{
  "_format": "hh-sol-artifact-1",
  "contractName": "RentChainUpgradeableProxy",
  "sourceName": "contracts/RentChainUpgradeableProxy.sol",
  "abi": [
    {
      "inputs": [
        {
          "internalType": "address",
          "name": "_logic",
          "type": "address"
        },
        {
          "internalType": "address",
          "name": "_admin",
          "type": "address"
        },
        {
          "internalType": "bytes",
          "name": "_data",
          "type": "bytes"
        }
      ],
      "stateMutability": "nonpayable",
      "type": "constructor"
    },
    {
      "anonymous": false,
      "inputs": [
        {
          "indexed": true,
          "internalType": "address",
          "name": "previousAdmin",
          "type": "address"
        },
        {
          "indexed": true,
          "internalType": "address",
          "name": "newAdmin",
          "type": "address"
        }
      ],
      "name": "AdminChanged",
      "type": "event"
    },
    {
      "anonymous": false,
      "inputs": [
        {
          "indexed": false,
          "internalType": "address",
          "name": "initializer",
          "type": "address"
        },
        {
          "indexed": false,
          "internalType": "uint256",
          "name": "version",
          "type": "uint256"
        }
      ],
      "name": "ContractInitialized",
      "type": "event"
    },
    {
      "anonymous": false,
      "inputs": [
        {
          "indexed": false,
          "internalType": "uint256",
          "name": "oldVersion",
          "type": "uint256"
        },
        {
          "indexed": false,
          "internalType": "uint256",
          "name": "newVersion",
          "type": "uint256"
        }
      ],
      "name": "ContractUpgraded",
      "type": "event"
    },
    {
      "anonymous": false,
      "inputs": [
        {
          "indexed": false,
          "internalType": "address",
          "name": "oldSystem",
          "type": "address"
        },
        {
          "indexed": false,
          "internalType": "address",
          "name": "newSystem",
          "type": "address"
        }
      ],
      "name": "EmergencySystemUpdated",
      "type": "event"
    },
    {
      "anonymous": false,
      "inputs": [
        {
          "indexed": true,
          "internalType": "address",
          "name": "implementation",
          "type": "address"
        }
      ],
      "name": "Upgraded",
      "type": "event"
    },
    {
      "stateMutability": "payable",
      "type": "fallback"
    },
    {
      "inputs": [],
      "name": "admin",
      "outputs": [
        {
          "internalType": "address",
          "name": "",
          "type": "address"
        }
      ],
      "stateMutability": "view",
      "type": "function"
    },
    {
      "inputs": [
        {
          "internalType": "address",
          "name": "newAdmin",
          "type": "address"
        }
      ],
      "name": "changeAdmin",
      "outputs": [],
      "stateMutability": "nonpayable",
      "type": "function"
    },
    {
      "inputs": [],
      "name": "emergencySystem",
      "outputs": [
        {
          "internalType": "contract RentChainEmergency",
          "name": "",
          "type": "address"
        }
      ],
      "stateMutability": "view",
      "type": "function"
    },
    {
      "inputs": [],
      "name": "getContractInfo",
      "outputs": [
        {
          "internalType": "address",
          "name": "contractAdmin",
          "type": "address"
        },
        {
          "internalType": "address",
          "name": "emergencySystemAddress",
          "type": "address"
        },
        {
          "internalType": "uint256",
          "name": "contractVersion",
          "type": "uint256"
        },
        {
          "internalType": "bool",
          "name": "isInitialized",
          "type": "bool"
        },
        {
          "internalType": "bool",
          "name": "isPaused",
          "type": "bool"
        }
      ],
      "stateMutability": "view",
      "type": "function"
    },
    {
      "inputs": [],
      "name": "getPauseInfo",
      "outputs": [
        {
          "internalType": "bool",
          "name": "paused",
          "type": "bool"
        },
        {
          "internalType": "uint256",
          "name": "pauseStart",
          "type": "uint256"
        },
        {
          "internalType": "uint256",
          "name": "pauseEnd",
          "type": "uint256"
        },
        {
          "internalType": "string",
          "name": "reason",
          "type": "string"
        }
      ],
      "stateMutability": "view",
      "type": "function"
    },
    {
      "inputs": [],
      "name": "getProxyAdmin",
      "outputs": [
        {
          "internalType": "address",
          "name": "",
          "type": "address"
        }
      ],
      "stateMutability": "view",
      "type": "function"
    },
    {
      "inputs": [],
      "name": "implementation",
      "outputs": [
        {
          "internalType": "address",
          "name": "",
          "type": "address"
        }
      ],
      "stateMutability": "view",
      "type": "function"
    },
    {
      "inputs": [],
      "name": "initialized",
      "outputs": [
        {
          "internalType": "bool",
          "name": "",
          "type": "bool"
        }
      ],
      "stateMutability": "view",
      "type": "function"
    },
    {
      "inputs": [],
      "name": "isSystemPaused",
      "outputs": [
        {
          "internalType": "bool",
          "name": "",
          "type": "bool"
        }
      ],
      "stateMutability": "view",
      "type": "function"
    },
    {
      "inputs": [],
      "name": "pauseContract",
      "outputs": [],
      "stateMutability": "nonpayable",
      "type": "function"
    },
    {
      "inputs": [
        {
          "internalType": "address",
          "name": "token",
          "type": "address"
        },
        {
          "internalType": "uint256",
          "name": "amount",
          "type": "uint256"
        },
        {
          "internalType": "address",
          "name": "recipient",
          "type": "address"
        }
      ],
      "name": "recoverStuckTokens",
      "outputs": [],
      "stateMutability": "nonpayable",
      "type": "function"
    },
    {
      "inputs": [
        {
          "internalType": "address",
          "name": "token",
          "type": "address"
        },
        {
          "internalType": "uint256",
          "name": "amount",
          "type": "uint256"
        }
      ],
      "name": "requestEmergencyWithdrawal",
      "outputs": [
        {
          "internalType": "bytes32",
          "name": "",
          "type": "bytes32"
        }
      ],
      "stateMutability": "nonpayable",
      "type": "function"
    },
    {
      "inputs": [],
      "name": "resumeContract",
      "outputs": [],
      "stateMutability": "nonpayable",
      "type": "function"
    },
    {
      "inputs": [
        {
          "internalType": "uint256",
          "name": "newVersion",
          "type": "uint256"
        }
      ],
      "name": "setVersion",
      "outputs": [],
      "stateMutability": "nonpayable",
      "type": "function"
    },
    {
      "inputs": [
        {
          "internalType": "address",
          "name": "newAdmin",
          "type": "address"
        }
      ],
      "name": "transferAdmin",
      "outputs": [],
      "stateMutability": "nonpayable",
      "type": "function"
    },
    {
      "inputs": [
        {
          "internalType": "address",
          "name": "newEmergencySystem",
          "type": "address"
        }
      ],
      "name": "updateEmergencySystem",
      "outputs": [],
      "stateMutability": "nonpayable",
      "type": "function"
    },
    {
      "inputs": [
        {
          "internalType": "address",
          "name": "newImplementation",
          "type": "address"
        }
      ],
      "name": "upgradeTo",
      "outputs": [],
      "stateMutability": "nonpayable",
      "type": "function"
    },
    {
      "inputs": [
        {
          "internalType": "address",
          "name": "newImplementation",
          "type": "address"
        },
        {
          "internalType": "bytes",
          "name": "data",
          "type": "bytes"
        }
      ],
      "name": "upgradeToAndCall",
      "outputs": [],
      "stateMutability": "payable",
      "type": "function"
    },
    {
      "inputs": [],
      "name": "version",
      "outputs": [
        {
          "internalType": "uint256",
          "name": "",
          "type": "uint256"
        }
      ],
      "stateMutability": "view",
      "type": "function"
    },
    {
      "stateMutability": "payable",
      "type": "receive"
    }
  ],
  "bytecode": "0x6040608081523462000250576200118f803803806200001e8162000255565b92833981016060828203126200025057620000398262000291565b906020926200004a84820162000291565b8582015190916001600160401b03821162000250570182601f820112156200025057805190620000846200007e83620002a6565b62000255565b938285528683830101116200025057859060005b8381106200023b5750506000918401015260018060a01b03199033826000541617600055816002541660025560018055833b1562000206577f360894a13ba1a3210667c828492db98dca3e2076cc3735a920a3ca505d382bbc805483166001600160a01b0386811691909117909155168015620001d2577fb53127684a568b3173ae13b9f8a6016e243e63b6e8ee1178d6a717850b5d6103918254161790558051806200014f575b8451610ecc9081620002c38239f35b60009284849301905af43d15620001cc573d620001706200007e82620002a6565b9081526000833d92013e5b156200018a5780808062000140565b606491519062461bcd60e51b82526004820152601560248201527f496e697469616c697a6174696f6e206661696c656400000000000000000000006044820152fd5b6200017b565b855162461bcd60e51b815260048101869052600d60248201526c24b73b30b634b21030b236b4b760991b6044820152606490fd5b855162461bcd60e51b815260048101869052600e60248201526d139bdd08184818dbdb9d1c9858dd60921b6044820152606490fd5b81810183015186820184015287920162000098565b600080fd5b6040519190601f01601f191682016001600160401b038111838210176200027b57604052565b634e487b7160e01b600052604160045260246000fd5b51906001600160a01b03821682036200025057565b6001600160401b0381116200027b57601f01601f19166020019056fe60806040526004361015610018575b36610dec57610dec565b60003560e01c8063158ef93e1461014857806326d44685146101435780633659cfe61461013e5780633981afc114610139578063408def1e14610134578063439766ce1461012f57806345282a921461012a5780634f1ef2861461012557806354fd4d50146101205780635c60da1b1461011b5780635d65ad671461011657806374fc18321461011157806375829def1461010c5780637691c4ac146101075780637cc1f867146101025780638b3240a0146100fd5780638f283970146100f8578063c4bc5da5146100f35763f851a4400361000e57610a38565b6109d4565b610947565b610911565b6108b6565b610891565b61080c565b610733565b610683565b61063b565b61061d565b61051d565b61046c565b610340565b6102dc565b610249565b6101d8565b610183565b61015d565b600091031261015857565b600080fd5b3461015857600036600319011261015857602060ff60005460a01c166040519015158152f35b34610158576000366003190112610158576002546040516001600160a01b039091168152602090f35b600435906001600160a01b038216820361015857565b604435906001600160a01b038216820361015857565b34610158576020366003190112610158576101f16101ac565b600080516020610e77833981519152546001600160a01b0391906102189083163314610cf5565b61022181610d33565b167fbc7cd75a20ee27fd9adebab32041f755214dbc6bffa90cc0225b39da2e5c2d3b600080a2005b34610158576020366003190112610158577f62fb284f5d1a9d326f25d6900267a8cb39113f8484b351a73c1ada4014c6686460406102856101ac565b6000546001600160a01b03906102a790821633146102a1610aea565b90610b0f565b6102b082610e38565b80600254921690816bffffffffffffffffffffffff60a01b8416176002558351921682526020820152a1005b34610158576020366003190112610158577f730abf329076f769aacddade69fbe7ca672a3c95fc1b7728ecf7b8f8cb705ed0604060043561032b60018060a01b036000541633146102a1610aea565b600154908060015582519182526020820152a1005b34610158576000806003193601126103f9578060018060a01b0361036b8183541633146102a1610aea565b60025416803b156103f657819060e4604051809481936334cc128960e21b835260016004840152600160248401526001604484015262278d00606484015260a06084840152600b60a48401526a41646d696e20706175736560a81b60c48401525af180156103f1576103db575080f35b806103e86103ee92610a77565b8061014d565b80f35b610b3f565b50fd5b80fd5b60005b83811061040f5750506000910152565b81810151838201526020016103ff565b90602091610438815180928185528580860191016103fc565b601f01601f1916010190565b909260809261046995941515835260208301526040820152816060820152019061041f565b90565b34610158576000806003193601126103f957600254604051633e8dc9cf60e21b815291908190839060049082906001600160a01b03165afa80156103f157818093819082936104eb575b508401908185116104d75750906104d39160405194859485610444565b0390f35b634e487b7160e01b81526011600452602490fd5b925050925061050c91503d8084833e6105048183610aac565b810190610b58565b5094509592509390509293386104b6565b6040366003190112610158576105316101ac565b6024359067ffffffffffffffff9081831161015857366023840112156101585782600401359182116101585736602483850101116101585760249260018060a01b039261059084600080516020610e7783398151915254163314610cf5565b61059983610d33565b806040519586930183378101600094859282848094520390845af46105bc610c9a565b50156105ea57167fbc7cd75a20ee27fd9adebab32041f755214dbc6bffa90cc0225b39da2e5c2d3b8280a280f35b60405162461bcd60e51b815260206004820152600b60248201526a10d85b1b0819985a5b195960aa1b6044820152606490fd5b34610158576000366003190112610158576020600154604051908152f35b34610158576000366003190112610158577f360894a13ba1a3210667c828492db98dca3e2076cc3735a920a3ca505d382bbc546040516001600160a01b039091168152602090f35b3461015857604036600319011261015857600060206106de6106a36101ac565b600254604051635d65ad6760e01b81526001600160a01b03928316600482015260248035908201529485939190921691839182906044820190565b03925af19081156103f1576000916106fc575b604051828152602090f35b6020813d821161072b575b8161071460209383610aac565b81010312610727575190506104d36106f1565b5080fd5b3d9150610707565b346101585760603660031901126101585761074c6101ac565b6024356107576101c2565b9160018060a01b039260009384926107768285541633146102a1610aea565b610786610781610c05565b610c5a565b8082166107b25750829383928392839183156107a8575b1690f1156103f15780f35b6108fc925061079d565b60405163a9059cbb60e01b602082019081526001600160a01b039490941660248201526044808201969096529485526103ee94849391925083906107f7606482610aac565b51925af1610803610c9a565b506102a1610cca565b34610158576020366003190112610158576108256101ac565b6000805490916001600160a01b038083169161084a610842610aea565b843314610b0f565b61085381610e38565b1680926bffffffffffffffffffffffff60a01b161783557f7e644d79422f17c01e4894b5f4f588d331ebfa28653d42ae832dc59e38c9798f8380a380f35b346101585760003660031901126101585760206108ac610c05565b6040519015158152f35b346101585760003660031901126101585760005460025460015460a0926001600160a01b039283169160ff91906108eb610c05565b93604051958316865260208601526040850152841c161515606083015215156080820152f35b3461015857600036600319011261015857600080516020610e77833981519152546040516001600160a01b039091168152602090f35b34610158576020366003190112610158576109606101ac565b600080516020610e778339815191528054916001600160a01b03906109883383861614610cf5565b16809261099f82151561099a81610db0565b610db0565b6001600160a01b031916179055807f7e644d79422f17c01e4894b5f4f588d331ebfa28653d42ae832dc59e38c9798f600080a3005b34610158576000806003193601126103f9578060018060a01b036109ff8183541633146102a1610aea565b60025416803b156103f657819060046040518094819363157c51d360e01b83525af180156103f157610a2f575080f35b6103ee90610a77565b34610158576000366003190112610158576000546040516001600160a01b039091168152602090f35b634e487b7160e01b600052604160045260246000fd5b67ffffffffffffffff8111610a8b57604052565b610a61565b6040810190811067ffffffffffffffff821117610a8b57604052565b90601f8019910116810190811067ffffffffffffffff821117610a8b57604052565b67ffffffffffffffff8111610a8b57601f01601f191660200190565b60405190610af782610a90565b60098252682737ba1030b236b4b760b91b6020830152565b15610b175750565b60405162461bcd60e51b815260206004820152908190610b3b90602483019061041f565b0390fd5b6040513d6000823e3d90fd5b5190811515820361015857565b91906101008382031261015857610b6e83610b4b565b92610b7b60208201610b4b565b92610b8860408301610b4b565b92610b9560608401610b4b565b9260808101519260a08201519260c083015167ffffffffffffffff81116101585783019080601f8301121561015857815191610bd083610ace565b91610bde6040519384610aac565b838352602084830101116101585760e092610bff91602080850191016103fc565b92015190565b600254604051633e8dc9cf60e21b815290600090829060049082906001600160a01b03165afa9081156103f157600091610c3d575090565b610c50913d8091833e6105048183610aac565b5050505050505090565b15610c6157565b60405162461bcd60e51b815260206004820152601160248201527014de5cdd195b481b9bdd081c185d5cd959607a1b6044820152606490fd5b3d15610cc5573d90610cab82610ace565b91610cb96040519384610aac565b82523d6000602084013e565b606090565b60405190610cd782610a90565b600f82526e151c985b9cd9995c8819985a5b1959608a1b6020830152565b15610cfc57565b60405162461bcd60e51b815260206004820152600f60248201526e2737ba10383937bc3c9030b236b4b760891b6044820152606490fd5b803b15610d7a577f360894a13ba1a3210667c828492db98dca3e2076cc3735a920a3ca505d382bbc80546001600160a01b0319166001600160a01b03909216919091179055565b60405162461bcd60e51b815260206004820152600e60248201526d139bdd08184818dbdb9d1c9858dd60921b6044820152606490fd5b15610db757565b60405162461bcd60e51b815260206004820152600d60248201526c24b73b30b634b21030b236b4b760991b6044820152606490fd5b7f360894a13ba1a3210667c828492db98dca3e2076cc3735a920a3ca505d382bbc54600090819081906001600160a01b0316368280378136915af43d82803e15610e34573d90f35b3d90fd5b604051610e7491610e4882610a90565b600f82526e496e76616c6964206164647265737360881b60208301526001600160a01b03161515610b0f565b56feb53127684a568b3173ae13b9f8a6016e243e63b6e8ee1178d6a717850b5d6103a2646970667358221220845e3b81da6a66ef74fb7f7ab32b00f0b54084a49d74dc5ef8ce1fb476e13f0464736f6c63430008130033",
  "linkReferences": {},
  "deployedLinkReferences": {}
}