{
  "_format": "hh-sol-artifact-1",
  "contractName": "RentChainTreasury",
  "sourceName": "contracts/RentChainTreasury.sol",
  "abi": [
    {
      "inputs": [
        {
          "internalType": "address",
          "name": "_dao",
          "type": "address"
        }
      ],
      "stateMutability": "nonpayable",
      "type": "constructor"
    },
    {
      "anonymous": false,
      "inputs": [
        {
          "indexed": false,
          "internalType": "string",
          "name": "category",
          "type": "string"
        },
        {
          "indexed": false,
          "internalType": "uint256",
          "name": "allocated",
          "type": "uint256"
        },
        {
          "indexed": false,
          "internalType": "uint256",
          "name": "startDate",
          "type": "uint256"
        },
        {
          "indexed": false,
          "internalType": "uint256",
          "name": "endDate",
          "type": "uint256"
        }
      ],
      "name": "BudgetCreated",
      "type": "event"
    },
    {
      "anonymous": false,
      "inputs": [
        {
          "indexed": false,
          "internalType": "string",
          "name": "category",
          "type": "string"
        },
        {
          "indexed": false,
          "internalType": "uint256",
          "name": "amount",
          "type": "uint256"
        },
        {
          "indexed": false,
          "internalType": "string",
          "name": "description",
          "type": "string"
        }
      ],
      "name": "BudgetSpent",
      "type": "event"
    },
    {
      "anonymous": false,
      "inputs": [
        {
          "indexed": false,
          "internalType": "address",
          "name": "from",
          "type": "address"
        },
        {
          "indexed": false,
          "internalType": "uint256",
          "name": "amount",
          "type": "uint256"
        },
        {
          "indexed": false,
          "internalType": "string",
          "name": "source",
          "type": "string"
        }
      ],
      "name": "FundsReceived",
      "type": "event"
    },
    {
      "anonymous": false,
      "inputs": [
        {
          "indexed": false,
          "internalType": "address",
          "name": "to",
          "type": "address"
        },
        {
          "indexed": false,
          "internalType": "uint256",
          "name": "amount",
          "type": "uint256"
        },
        {
          "indexed": false,
          "internalType": "string",
          "name": "purpose",
          "type": "string"
        }
      ],
      "name": "FundsWithdrawn",
      "type": "event"
    },
    {
      "anonymous": false,
      "inputs": [
        {
          "indexed": false,
          "internalType": "uint256",
          "name": "grantId",
          "type": "uint256"
        },
        {
          "indexed": false,
          "internalType": "address",
          "name": "recipient",
          "type": "address"
        },
        {
          "indexed": false,
          "internalType": "uint256",
          "name": "amount",
          "type": "uint256"
        }
      ],
      "name": "GrantDistributed",
      "type": "event"
    },
    {
      "anonymous": false,
      "inputs": [
        {
          "indexed": false,
          "internalType": "uint256",
          "name": "grantId",
          "type": "uint256"
        },
        {
          "indexed": false,
          "internalType": "address",
          "name": "recipient",
          "type": "address"
        },
        {
          "indexed": false,
          "internalType": "uint256",
          "name": "amount",
          "type": "uint256"
        },
        {
          "indexed": false,
          "internalType": "string",
          "name": "purpose",
          "type": "string"
        }
      ],
      "name": "GrantProposed",
      "type": "event"
    },
    {
      "inputs": [],
      "name": "admin",
      "outputs": [
        {
          "internalType": "address",
          "name": "",
          "type": "address"
        }
      ],
      "stateMutability": "view",
      "type": "function"
    },
    {
      "inputs": [
        {
          "internalType": "string",
          "name": "",
          "type": "string"
        }
      ],
      "name": "budgets",
      "outputs": [
        {
          "internalType": "uint256",
          "name": "allocated",
          "type": "uint256"
        },
        {
          "internalType": "uint256",
          "name": "spent",
          "type": "uint256"
        },
        {
          "internalType": "uint256",
          "name": "startDate",
          "type": "uint256"
        },
        {
          "internalType": "uint256",
          "name": "endDate",
          "type": "uint256"
        },
        {
          "internalType": "bool",
          "name": "active",
          "type": "bool"
        }
      ],
      "stateMutability": "view",
      "type": "function"
    },
    {
      "inputs": [
        {
          "internalType": "string",
          "name": "category",
          "type": "string"
        },
        {
          "internalType": "uint256",
          "name": "allocated",
          "type": "uint256"
        },
        {
          "internalType": "uint256",
          "name": "duration",
          "type": "uint256"
        }
      ],
      "name": "createBudget",
      "outputs": [],
      "stateMutability": "nonpayable",
      "type": "function"
    },
    {
      "inputs": [],
      "name": "dao",
      "outputs": [
        {
          "internalType": "address",
          "name": "",
          "type": "address"
        }
      ],
      "stateMutability": "view",
      "type": "function"
    },
    {
      "inputs": [
        {
          "internalType": "uint256",
          "name": "grantId",
          "type": "uint256"
        }
      ],
      "name": "distributeGrant",
      "outputs": [],
      "stateMutability": "nonpayable",
      "type": "function"
    },
    {
      "inputs": [],
      "name": "emergencyPause",
      "outputs": [],
      "stateMutability": "nonpayable",
      "type": "function"
    },
    {
      "inputs": [
        {
          "internalType": "string",
          "name": "category",
          "type": "string"
        }
      ],
      "name": "getBudgetInfo",
      "outputs": [
        {
          "internalType": "uint256",
          "name": "allocated",
          "type": "uint256"
        },
        {
          "internalType": "uint256",
          "name": "spent",
          "type": "uint256"
        },
        {
          "internalType": "uint256",
          "name": "remaining",
          "type": "uint256"
        },
        {
          "internalType": "uint256",
          "name": "startDate",
          "type": "uint256"
        },
        {
          "internalType": "uint256",
          "name": "endDate",
          "type": "uint256"
        },
        {
          "internalType": "bool",
          "name": "active",
          "type": "bool"
        }
      ],
      "stateMutability": "view",
      "type": "function"
    },
    {
      "inputs": [
        {
          "internalType": "uint256",
          "name": "grantId",
          "type": "uint256"
        }
      ],
      "name": "getGrantInfo",
      "outputs": [
        {
          "internalType": "address",
          "name": "recipient",
          "type": "address"
        },
        {
          "internalType": "uint256",
          "name": "amount",
          "type": "uint256"
        },
        {
          "internalType": "string",
          "name": "purpose",
          "type": "string"
        },
        {
          "internalType": "uint256",
          "name": "grantDate",
          "type": "uint256"
        },
        {
          "internalType": "bool",
          "name": "distributed",
          "type": "bool"
        }
      ],
      "stateMutability": "view",
      "type": "function"
    },
    {
      "inputs": [],
      "name": "getTreasuryStats",
      "outputs": [
        {
          "internalType": "uint256",
          "name": "totalBalance",
          "type": "uint256"
        },
        {
          "internalType": "uint256",
          "name": "totalAllocations",
          "type": "uint256"
        },
        {
          "internalType": "uint256",
          "name": "totalDistributions",
          "type": "uint256"
        },
        {
          "internalType": "uint256",
          "name": "availableBalance",
          "type": "uint256"
        }
      ],
      "stateMutability": "view",
      "type": "function"
    },
    {
      "inputs": [
        {
          "internalType": "uint256",
          "name": "",
          "type": "uint256"
        }
      ],
      "name": "grants",
      "outputs": [
        {
          "internalType": "address",
          "name": "recipient",
          "type": "address"
        },
        {
          "internalType": "uint256",
          "name": "amount",
          "type": "uint256"
        },
        {
          "internalType": "string",
          "name": "purpose",
          "type": "string"
        },
        {
          "internalType": "uint256",
          "name": "grantDate",
          "type": "uint256"
        },
        {
          "internalType": "bool",
          "name": "distributed",
          "type": "bool"
        }
      ],
      "stateMutability": "view",
      "type": "function"
    },
    {
      "inputs": [],
      "name": "nextGrantId",
      "outputs": [
        {
          "internalType": "uint256",
          "name": "",
          "type": "uint256"
        }
      ],
      "stateMutability": "view",
      "type": "function"
    },
    {
      "inputs": [
        {
          "internalType": "address",
          "name": "recipient",
          "type": "address"
        },
        {
          "internalType": "uint256",
          "name": "amount",
          "type": "uint256"
        },
        {
          "internalType": "string",
          "name": "purpose",
          "type": "string"
        }
      ],
      "name": "proposeGrant",
      "outputs": [
        {
          "internalType": "uint256",
          "name": "",
          "type": "uint256"
        }
      ],
      "stateMutability": "nonpayable",
      "type": "function"
    },
    {
      "inputs": [
        {
          "internalType": "string",
          "name": "source",
          "type": "string"
        }
      ],
      "name": "receiveFunds",
      "outputs": [],
      "stateMutability": "payable",
      "type": "function"
    },
    {
      "inputs": [
        {
          "internalType": "address",
          "name": "newDAO",
          "type": "address"
        }
      ],
      "name": "setDAO",
      "outputs": [],
      "stateMutability": "nonpayable",
      "type": "function"
    },
    {
      "inputs": [
        {
          "internalType": "string",
          "name": "category",
          "type": "string"
        },
        {
          "internalType": "uint256",
          "name": "amount",
          "type": "uint256"
        },
        {
          "internalType": "address",
          "name": "recipient",
          "type": "address"
        },
        {
          "internalType": "string",
          "name": "description",
          "type": "string"
        }
      ],
      "name": "spendFromBudget",
      "outputs": [],
      "stateMutability": "nonpayable",
      "type": "function"
    },
    {
      "inputs": [],
      "name": "totalAllocated",
      "outputs": [
        {
          "internalType": "uint256",
          "name": "",
          "type": "uint256"
        }
      ],
      "stateMutability": "view",
      "type": "function"
    },
    {
      "inputs": [],
      "name": "totalDistributed",
      "outputs": [
        {
          "internalType": "uint256",
          "name": "",
          "type": "uint256"
        }
      ],
      "stateMutability": "view",
      "type": "function"
    },
    {
      "inputs": [],
      "name": "totalFunds",
      "outputs": [
        {
          "internalType": "uint256",
          "name": "",
          "type": "uint256"
        }
      ],
      "stateMutability": "view",
      "type": "function"
    },
    {
      "inputs": [
        {
          "internalType": "address",
          "name": "token",
          "type": "address"
        },
        {
          "internalType": "address",
          "name": "to",
          "type": "address"
        },
        {
          "internalType": "uint256",
          "name": "amount",
          "type": "uint256"
        }
      ],
      "name": "withdrawERC20",
      "outputs": [],
      "stateMutability": "nonpayable",
      "type": "function"
    },
    {
      "inputs": [
        {
          "internalType": "address",
          "name": "to",
          "type": "address"
        },
        {
          "internalType": "uint256",
          "name": "amount",
          "type": "uint256"
        },
        {
          "internalType": "string",
          "name": "purpose",
          "type": "string"
        }
      ],
      "name": "withdrawFunds",
      "outputs": [],
      "stateMutability": "nonpayable",
      "type": "function"
    },
    {
      "stateMutability": "payable",
      "type": "receive"
    }
  ],
  "bytecode": "0x60803461007a57601f61120538819003918201601f19168301916001600160401b0383118484101761007f5780849260209460405283398101031261007a57516001600160a01b0381169081900361007a5760018060a01b031933816002541617600255600354161760035560405161116f90816100968239f35b600080fd5b634e487b7160e01b600052604160045260246000fdfe60806040526004361015610080575b361561001957600080fd5b61002534600554611082565b6005557f53bd392522b272902b85d06641a5c298f18e160fffff1e84a020e622f792281060a060405133815234602082015260606040820152600f60608201526e2234b932b1ba103a3930b739b332b960891b6080820152a1005b60003560e01c806307536a0414610d6e5780630c0debea14610d1357806311d5423914610ca65780633c730e2014610c495780634162169f14610c2057806344004cc114610b7957806345f7f24914610b5b57806351858e2714610ad857806365e3da301461093157806370251e5a146108a25780637a6ac7871461078f5780637b501f1b14610596578063968ed600146105785780639b81e17e146104d4578063bb8b3ea9146104b6578063c8692e3f14610483578063c9613e8c146101f4578063e73a914c146101ad578063efca2eed1461018f5763f851a4400361000e573461018a57600036600319011261018a576002546040516001600160a01b039091168152602090f35b600080fd5b3461018a57600036600319011261018a576020600754604051908152f35b3461018a57602036600319011261018a576101c6610ff0565b600354906001600160a01b03906101e0338385161461104c565b6001600160a01b0319909216911617600355005b3461018a5761020236611006565b909160018060a01b0361021a8160025416331461108f565b60045491600019831461046d57600183016004556040519461023b86610dfa565b8282168652602086018181526040870186815242606089015260006080890152856000526001602052604060002091858951166bffffffffffffffffffffffff60a01b8454161783555160018301555196875167ffffffffffffffff8111610457576102aa6002840154610e8f565b98601f8a11610410575b602099508990601f831160011461037457608061035e96948461033a957f3178a1f20fcdb4be5ac26c04fdbd5b6f0c2e09907fdd7941538fe87d264e63d09c9d9895600495600092610369575b50508160011b916000199060031b1c19161760028501555b606081015160038501550151151591019060ff801983541691151516179055565b60405194859488865216888501526040840152608060608401526080830190610f92565b0390a1604051908152f35b015190508f80610301565b90601f19831691600286016000528b6000209260005b8181106103f95750946001857f3178a1f20fcdb4be5ac26c04fdbd5b6f0c2e09907fdd7941538fe87d264e63d09c9d989560049560809561033a9961035e9d9b106103e0575b505050811b016002850155610319565b015160001960f88460031b161c191690558f80806103d0565b92938d60018192878601518155019501930161038a565b600284016000526020600020601f830160051c810160208410610450575b601f8c0160051c820181106104445750506102b4565b6000815560010161042e565b508061042e565b634e487b7160e01b600052604160045260246000fd5b634e487b7160e01b600052601160045260246000fd5b3461018a57600036600319011261018a576080476006546007544791604051938452602084015260408301526060820152f35b3461018a57600036600319011261018a576020600454604051908152f35b3461018a576104e236611006565b9160008080808560018060a01b036104ff8160035416331461104c565b61050b824710156110c7565b6105178260055461112c565b6005558290821561056e575b871690f1156105625761055d7fd30b68ba794ba733ec10c7ddce3e044482efdaa4c2e6b3d233800535afe5139b9360405193849384611108565b0390a1005b6040513d6000823e3d90fd5b6108fc9150610523565b3461018a57600036600319011261018a576020600554604051908152f35b3461018a57608036600319011261018a5767ffffffffffffffff60043581811161018a576105c8903690600401610e38565b6001600160a01b03604435818116939192916024359185900361018a5760643590811161018a5761060061060c913690600401610e38565b9360025416331461108f565b6040519384835160209681610625899383858a01610f6f565b8101600081520301902060ff6004820154161561075657600381015442116107205760018101908154906106598583611082565b9054106106e95760008481948294610672838596611082565b905561068082600754611082565b6007558282156106e0575bf115610562577fa8f7919b0e357845408d227bcc57a3040450daa3d6e8635678d01cde6f59f8ae936106cf9361055d92604051958695606087526060870190610f92565b928501528382036040850152610f92565b506108fc61068b565b60405162461bcd60e51b815260048101889052600f60248201526e109d5919d95d08195e18d959591959608a1b6044820152606490fd5b60405162461bcd60e51b815260048101879052600e60248201526d109d5919d95d08195e1c1a5c995960921b6044820152606490fd5b60405162461bcd60e51b8152600481018790526011602482015270427564676574206e6f742061637469766560781b6044820152606490fd5b3461018a57602036600319011261018a576003546001600160a01b0390600435906107bd908316331461104c565b8060005260016020526040600020906004820180549060ff8216610867576108049047906001808701946107f58654809510156110c7565b60ff1916179055600754611082565b60075560008080808787541685549082821561085e575bf115610562577f2e6e5c0d43f06afe737f834719c15e13df6c831bed7ca35074aa78892a2bbd4d93606093541690549060405192835260208301526040820152a1005b506108fc61081b565b60405162461bcd60e51b8152602060048201526013602482015272105b1c9958591e48191a5cdd1c9a589d5d1959606a1b6044820152606490fd5b3461018a57602036600319011261018a5760043567ffffffffffffffff811161018a576108ed60206108da60a0933690600401610e38565b8160405193828580945193849201610f6f565b81016000815203019020805490600181015490600281015460ff60046003840154930154169260405194855260208501526040840152606083015215156080820152f35b3461018a57606036600319011261018a5760043567ffffffffffffffff811161018a57610962903690600401610e38565b6024356044359061097e60018060a01b0360035416331461104c565b604051918351602093848181880193610998818387610f6f565b8101600081520301902054610a9b5791610a7282610a5d879560047fa5ba5caf9c4912b2d01fe746ade6375f8c1cd00519aeccd338f33b554d7c078d996109e3610a879a9842611082565b604051936109f085610dfa565b88855289850160008152610a278b604088019342855260608901958652608089019660018852604051938492839251928391610f6f565b810160008152030190209551865551600186015551600285015551600384015551151591019060ff801983541691151516179055565b610a6983600654611082565b60065542611082565b90604051948594608086526080860190610f92565b9284015242604084015260608301520390a1005b60405162461bcd60e51b815260048101859052601560248201527442756467657420616c72656164792065786973747360581b6044820152606490fd5b3461018a57600036600319011261018a576002547fd30b68ba794ba733ec10c7ddce3e044482efdaa4c2e6b3d233800535afe5139b9060a0906001600160a01b0316610b2533821461108f565b6040519081526000602082015260606040820152600f60608201526e454d455247454e43595f504155534560881b6080820152a1005b3461018a57600036600319011261018a576020600654604051908152f35b3461018a57606036600319011261018a57610b92610ff0565b6001600160a01b0390602435828116919082900361018a576044602092610bbe8560035416331461104c565b6000604051958694859363a9059cbb60e01b8552600485015284356024850152165af1801561056257610bed57005b6020813d8211610c18575b81610c0560209383610e16565b8101031261018a57518015150361018a57005b3d9150610bf8565b3461018a57600036600319011261018a576003546040516001600160a01b039091168152602090f35b3461018a57602036600319011261018a576004356000526001602052604060002060018060a01b03815416610ca26001830154926003810154610c96600260ff6004850154169301610ec9565b60405195869586610fb7565b0390f35b602036600319011261018a5760043567ffffffffffffffff811161018a5761055d610cf67f53bd392522b272902b85d06641a5c298f18e160fffff1e84a020e622f7922810923690600401610e38565b610d0234600554611082565b600555604051918291343384611108565b3461018a57602036600319011261018a576004356000526001602052604060002060018060a01b03815416610ca2600183015492610d5360028201610ec9565b9060ff60046003830154920154169160405195869586610fb7565b3461018a57602036600319011261018a5760043567ffffffffffffffff811161018a57610da660206108da60c0933690600401610e38565b81016000815203019020805490600181015490610dc3828461112c565b60028201549060ff6004600385015494015416936040519586526020860152604085015260608401526080830152151560a0820152f35b60a0810190811067ffffffffffffffff82111761045757604052565b90601f8019910116810190811067ffffffffffffffff82111761045757604052565b81601f8201121561018a5780359067ffffffffffffffff82116104575760405192610e6d601f8401601f191660200185610e16565b8284526020838301011161018a57816000926020809301838601378301015290565b90600182811c92168015610ebf575b6020831014610ea957565b634e487b7160e01b600052602260045260246000fd5b91607f1691610e9e565b9060405191826000825492610edd84610e8f565b908184526001948581169081600014610f4c5750600114610f09575b5050610f0792500383610e16565b565b9093915060005260209081600020936000915b818310610f34575050610f0793508201013880610ef9565b85548884018501529485019487945091830191610f1c565b915050610f0794506020925060ff191682840152151560051b8201013880610ef9565b60005b838110610f825750506000910152565b8181015183820152602001610f72565b90602091610fab81518092818552858086019101610f6f565b601f01601f1916010190565b9395949192608093610fe39260018060a01b03168652602086015260a0604086015260a0850190610f92565b9460608401521515910152565b600435906001600160a01b038216820361018a57565b606060031982011261018a576004356001600160a01b038116810361018a5791602435916044359067ffffffffffffffff821161018a5761104991600401610e38565b90565b1561105357565b60405162461bcd60e51b81526020600482015260076024820152664e6f742044414f60c81b6044820152606490fd5b9190820180921161046d57565b1561109657565b60405162461bcd60e51b81526020600482015260096024820152682737ba1030b236b4b760b91b6044820152606490fd5b156110ce57565b60405162461bcd60e51b8152602060048201526012602482015271496e73756666696369656e742066756e647360701b6044820152606490fd5b611049939260609260018060a01b0316825260208201528160408201520190610f92565b9190820391821161046d5756fea2646970667358221220245c02397fd6cd29b610de7758c353f9608d65ba574da4b379f0d12924cea25864736f6c63430008130033",
  "linkReferences": {},
  "deployedLinkReferences": {}
}