{
  "_format": "hh-sol-artifact-1",
  "contractName": "RentChainMain",
  "sourceName": "contracts/RentChainMain.sol",
  "abi": [
    {
      "inputs": [
        {
          "internalType": "address",
          "name": "_rentToken",
          "type": "address"
        },
        {
          "internalType": "address",
          "name": "_userRegistry",
          "type": "address"
        },
        {
          "internalType": "address",
          "name": "_propertyRegistry",
          "type": "address"
        },
        {
          "internalType": "address",
          "name": "_rentAgreement",
          "type": "address"
        },
        {
          "internalType": "address",
          "name": "_escrowManager",
          "type": "address"
        },
        {
          "internalType": "address",
          "name": "_paymentProcessor",
          "type": "address"
        },
        {
          "internalType": "address",
          "name": "_disputeResolution",
          "type": "address"
        },
        {
          "internalType": "address",
          "name": "_reviewSystem",
          "type": "address"
        }
      ],
      "stateMutability": "nonpayable",
      "type": "constructor"
    },
    {
      "anonymous": false,
      "inputs": [
        {
          "indexed": true,
          "internalType": "address",
          "name": "previousAdmin",
          "type": "address"
        },
        {
          "indexed": true,
          "internalType": "address",
          "name": "newAdmin",
          "type": "address"
        }
      ],
      "name": "AdminChanged",
      "type": "event"
    },
    {
      "anonymous": false,
      "inputs": [
        {
          "indexed": false,
          "internalType": "address",
          "name": "initializer",
          "type": "address"
        },
        {
          "indexed": false,
          "internalType": "uint256",
          "name": "version",
          "type": "uint256"
        }
      ],
      "name": "ContractInitialized",
      "type": "event"
    },
    {
      "anonymous": false,
      "inputs": [
        {
          "indexed": false,
          "internalType": "uint256",
          "name": "oldVersion",
          "type": "uint256"
        },
        {
          "indexed": false,
          "internalType": "uint256",
          "name": "newVersion",
          "type": "uint256"
        }
      ],
      "name": "ContractUpgraded",
      "type": "event"
    },
    {
      "anonymous": false,
      "inputs": [
        {
          "indexed": false,
          "internalType": "address",
          "name": "oldSystem",
          "type": "address"
        },
        {
          "indexed": false,
          "internalType": "address",
          "name": "newSystem",
          "type": "address"
        }
      ],
      "name": "EmergencySystemUpdated",
      "type": "event"
    },
    {
      "anonymous": false,
      "inputs": [
        {
          "indexed": false,
          "internalType": "string",
          "name": "reason",
          "type": "string"
        },
        {
          "indexed": false,
          "internalType": "address",
          "name": "triggeredBy",
          "type": "address"
        }
      ],
      "name": "EmergencyTriggered",
      "type": "event"
    },
    {
      "anonymous": false,
      "inputs": [
        {
          "indexed": false,
          "internalType": "string",
          "name": "feature",
          "type": "string"
        },
        {
          "indexed": false,
          "internalType": "bool",
          "name": "enabled",
          "type": "bool"
        }
      ],
      "name": "FeatureToggled",
      "type": "event"
    },
    {
      "anonymous": false,
      "inputs": [
        {
          "indexed": false,
          "internalType": "uint256",
          "name": "amount",
          "type": "uint256"
        },
        {
          "indexed": false,
          "internalType": "address",
          "name": "treasury",
          "type": "address"
        }
      ],
      "name": "RevenueDistributed",
      "type": "event"
    },
    {
      "anonymous": false,
      "inputs": [
        {
          "indexed": true,
          "internalType": "address",
          "name": "initializer",
          "type": "address"
        },
        {
          "indexed": false,
          "internalType": "uint256",
          "name": "timestamp",
          "type": "uint256"
        }
      ],
      "name": "SystemInitialized",
      "type": "event"
    },
    {
      "anonymous": false,
      "inputs": [
        {
          "indexed": false,
          "internalType": "uint256",
          "name": "newVersion",
          "type": "uint256"
        },
        {
          "indexed": false,
          "internalType": "string",
          "name": "description",
          "type": "string"
        }
      ],
      "name": "SystemUpgraded",
      "type": "event"
    },
    {
      "inputs": [],
      "name": "admin",
      "outputs": [
        {
          "internalType": "address",
          "name": "",
          "type": "address"
        }
      ],
      "stateMutability": "view",
      "type": "function"
    },
    {
      "inputs": [],
      "name": "analytics",
      "outputs": [
        {
          "internalType": "contract RentChainAnalytics",
          "name": "",
          "type": "address"
        }
      ],
      "stateMutability": "view",
      "type": "function"
    },
    {
      "inputs": [
        {
          "internalType": "uint256",
          "name": "propertyId",
          "type": "uint256"
        },
        {
          "internalType": "address",
          "name": "tenant",
          "type": "address"
        },
        {
          "internalType": "uint256",
          "name": "rentAmount",
          "type": "uint256"
        },
        {
          "internalType": "uint256",
          "name": "securityDeposit",
          "type": "uint256"
        },
        {
          "internalType": "uint256",
          "name": "startDate",
          "type": "uint256"
        },
        {
          "internalType": "uint256",
          "name": "endDate",
          "type": "uint256"
        },
        {
          "internalType": "address",
          "name": "paymentToken",
          "type": "address"
        },
        {
          "internalType": "uint256",
          "name": "insuranceCoverage",
          "type": "uint256"
        }
      ],
      "name": "createRentalAgreement",
      "outputs": [
        {
          "internalType": "uint256",
          "name": "agreementId",
          "type": "uint256"
        }
      ],
      "stateMutability": "nonpayable",
      "type": "function"
    },
    {
      "inputs": [],
      "name": "disputeResolution",
      "outputs": [
        {
          "internalType": "contract DisputeResolution",
          "name": "",
          "type": "address"
        }
      ],
      "stateMutability": "view",
      "type": "function"
    },
    {
      "inputs": [
        {
          "internalType": "string",
          "name": "reason",
          "type": "string"
        }
      ],
      "name": "emergencyShutdown",
      "outputs": [],
      "stateMutability": "nonpayable",
      "type": "function"
    },
    {
      "inputs": [],
      "name": "emergencySystem",
      "outputs": [
        {
          "internalType": "contract RentChainEmergency",
          "name": "",
          "type": "address"
        }
      ],
      "stateMutability": "view",
      "type": "function"
    },
    {
      "inputs": [
        {
          "internalType": "address",
          "name": "token",
          "type": "address"
        },
        {
          "internalType": "uint256",
          "name": "amount",
          "type": "uint256"
        }
      ],
      "name": "emergencyWithdraw",
      "outputs": [],
      "stateMutability": "nonpayable",
      "type": "function"
    },
    {
      "inputs": [],
      "name": "escrowManager",
      "outputs": [
        {
          "internalType": "contract EscrowManager",
          "name": "",
          "type": "address"
        }
      ],
      "stateMutability": "view",
      "type": "function"
    },
    {
      "inputs": [],
      "name": "featureFlags",
      "outputs": [
        {
          "internalType": "bool",
          "name": "marketplaceEnabled",
          "type": "bool"
        },
        {
          "internalType": "bool",
          "name": "subscriptionsEnabled",
          "type": "bool"
        },
        {
          "internalType": "bool",
          "name": "insuranceEnabled",
          "type": "bool"
        },
        {
          "internalType": "bool",
          "name": "stakingEnabled",
          "type": "bool"
        },
        {
          "internalType": "bool",
          "name": "referralsEnabled",
          "type": "bool"
        },
        {
          "internalType": "bool",
          "name": "crossChainEnabled",
          "type": "bool"
        }
      ],
      "stateMutability": "view",
      "type": "function"
    },
    {
      "inputs": [],
      "name": "getContractAddresses",
      "outputs": [
        {
          "internalType": "address",
          "name": "propertyRegistryAddress",
          "type": "address"
        },
        {
          "internalType": "address",
          "name": "rentAgreementAddress",
          "type": "address"
        },
        {
          "internalType": "address",
          "name": "escrowManagerAddress",
          "type": "address"
        },
        {
          "internalType": "address",
          "name": "paymentProcessorAddress",
          "type": "address"
        },
        {
          "internalType": "address",
          "name": "userRegistryAddress",
          "type": "address"
        },
        {
          "internalType": "address",
          "name": "tokenAddress",
          "type": "address"
        },
        {
          "internalType": "address",
          "name": "stakingAddress",
          "type": "address"
        },
        {
          "internalType": "address",
          "name": "insuranceAddress",
          "type": "address"
        },
        {
          "internalType": "address",
          "name": "marketplaceAddress",
          "type": "address"
        },
        {
          "internalType": "address",
          "name": "analyticsAddress",
          "type": "address"
        }
      ],
      "stateMutability": "view",
      "type": "function"
    },
    {
      "inputs": [],
      "name": "getContractInfo",
      "outputs": [
        {
          "internalType": "address",
          "name": "contractAdmin",
          "type": "address"
        },
        {
          "internalType": "address",
          "name": "emergencySystemAddress",
          "type": "address"
        },
        {
          "internalType": "uint256",
          "name": "contractVersion",
          "type": "uint256"
        },
        {
          "internalType": "bool",
          "name": "isInitialized",
          "type": "bool"
        },
        {
          "internalType": "bool",
          "name": "isPaused",
          "type": "bool"
        }
      ],
      "stateMutability": "view",
      "type": "function"
    },
    {
      "inputs": [],
      "name": "getPauseInfo",
      "outputs": [
        {
          "internalType": "bool",
          "name": "paused",
          "type": "bool"
        },
        {
          "internalType": "uint256",
          "name": "pauseStart",
          "type": "uint256"
        },
        {
          "internalType": "uint256",
          "name": "pauseEnd",
          "type": "uint256"
        },
        {
          "internalType": "string",
          "name": "reason",
          "type": "string"
        }
      ],
      "stateMutability": "view",
      "type": "function"
    },
    {
      "inputs": [],
      "name": "getSystemInfo",
      "outputs": [
        {
          "internalType": "address",
          "name": "systemAdmin",
          "type": "address"
        },
        {
          "internalType": "uint256",
          "name": "systemVersion",
          "type": "uint256"
        },
        {
          "internalType": "bool",
          "name": "isSystemActive",
          "type": "bool"
        },
        {
          "internalType": "uint256",
          "name": "launchTime",
          "type": "uint256"
        },
        {
          "internalType": "uint256",
          "name": "uptime",
          "type": "uint256"
        },
        {
          "components": [
            {
              "internalType": "bool",
              "name": "marketplaceEnabled",
              "type": "bool"
            },
            {
              "internalType": "bool",
              "name": "subscriptionsEnabled",
              "type": "bool"
            },
            {
              "internalType": "bool",
              "name": "insuranceEnabled",
              "type": "bool"
            },
            {
              "internalType": "bool",
              "name": "stakingEnabled",
              "type": "bool"
            },
            {
              "internalType": "bool",
              "name": "referralsEnabled",
              "type": "bool"
            },
            {
              "internalType": "bool",
              "name": "crossChainEnabled",
              "type": "bool"
            }
          ],
          "internalType": "struct RentChainConstants.FeatureFlags",
          "name": "features",
          "type": "tuple"
        }
      ],
      "stateMutability": "view",
      "type": "function"
    },
    {
      "inputs": [],
      "name": "getSystemStats",
      "outputs": [
        {
          "internalType": "uint256",
          "name": "properties",
          "type": "uint256"
        },
        {
          "internalType": "uint256",
          "name": "agreements",
          "type": "uint256"
        },
        {
          "internalType": "uint256",
          "name": "users",
          "type": "uint256"
        },
        {
          "internalType": "uint256",
          "name": "volume",
          "type": "uint256"
        },
        {
          "internalType": "uint256",
          "name": "activeUsers",
          "type": "uint256"
        },
        {
          "internalType": "uint256",
          "name": "platformRevenue",
          "type": "uint256"
        },
        {
          "internalType": "uint256",
          "name": "averageRent",
          "type": "uint256"
        }
      ],
      "stateMutability": "view",
      "type": "function"
    },
    {
      "inputs": [
        {
          "internalType": "address",
          "name": "user",
          "type": "address"
        }
      ],
      "name": "getUserDashboard",
      "outputs": [
        {
          "internalType": "bool",
          "name": "isVerified",
          "type": "bool"
        },
        {
          "internalType": "uint256",
          "name": "propertiesListed",
          "type": "uint256"
        },
        {
          "internalType": "uint256",
          "name": "activeAgreements",
          "type": "uint256"
        },
        {
          "internalType": "uint256",
          "name": "totalEarned",
          "type": "uint256"
        },
        {
          "internalType": "uint256",
          "name": "totalSpent",
          "type": "uint256"
        },
        {
          "internalType": "uint256",
          "name": "reputationScore",
          "type": "uint256"
        },
        {
          "internalType": "bool",
          "name": "hasActiveSubscription",
          "type": "bool"
        },
        {
          "internalType": "uint256",
          "name": "pendingRewards",
          "type": "uint256"
        }
      ],
      "stateMutability": "view",
      "type": "function"
    },
    {
      "inputs": [
        {
          "internalType": "address",
          "name": "_stakingRewards",
          "type": "address"
        },
        {
          "internalType": "address",
          "name": "_rentalInsurance",
          "type": "address"
        },
        {
          "internalType": "address",
          "name": "_marketplace",
          "type": "address"
        },
        {
          "internalType": "address",
          "name": "_subscriptions",
          "type": "address"
        },
        {
          "internalType": "address",
          "name": "_referralSystem",
          "type": "address"
        },
        {
          "internalType": "address",
          "name": "_multiChain",
          "type": "address"
        },
        {
          "internalType": "address",
          "name": "_analytics",
          "type": "address"
        }
      ],
      "name": "initializeOptionalContracts",
      "outputs": [],
      "stateMutability": "nonpayable",
      "type": "function"
    },
    {
      "inputs": [],
      "name": "initialized",
      "outputs": [
        {
          "internalType": "bool",
          "name": "",
          "type": "bool"
        }
      ],
      "stateMutability": "view",
      "type": "function"
    },
    {
      "inputs": [],
      "name": "isSystemPaused",
      "outputs": [
        {
          "internalType": "bool",
          "name": "",
          "type": "bool"
        }
      ],
      "stateMutability": "view",
      "type": "function"
    },
    {
      "inputs": [],
      "name": "marketplace",
      "outputs": [
        {
          "internalType": "contract RentChainMarketplace",
          "name": "",
          "type": "address"
        }
      ],
      "stateMutability": "view",
      "type": "function"
    },
    {
      "inputs": [],
      "name": "multiChain",
      "outputs": [
        {
          "internalType": "contract RentChainMultiChain",
          "name": "",
          "type": "address"
        }
      ],
      "stateMutability": "view",
      "type": "function"
    },
    {
      "inputs": [],
      "name": "pauseContract",
      "outputs": [],
      "stateMutability": "nonpayable",
      "type": "function"
    },
    {
      "inputs": [
        {
          "internalType": "uint256",
          "name": "agreementId",
          "type": "uint256"
        },
        {
          "internalType": "uint256",
          "name": "amount",
          "type": "uint256"
        }
      ],
      "name": "payRent",
      "outputs": [],
      "stateMutability": "nonpayable",
      "type": "function"
    },
    {
      "inputs": [],
      "name": "paymentProcessor",
      "outputs": [
        {
          "internalType": "contract PaymentProcessor",
          "name": "",
          "type": "address"
        }
      ],
      "stateMutability": "view",
      "type": "function"
    },
    {
      "inputs": [],
      "name": "propertyRegistry",
      "outputs": [
        {
          "internalType": "contract PropertyRegistry",
          "name": "",
          "type": "address"
        }
      ],
      "stateMutability": "view",
      "type": "function"
    },
    {
      "inputs": [
        {
          "internalType": "address",
          "name": "token",
          "type": "address"
        },
        {
          "internalType": "uint256",
          "name": "amount",
          "type": "uint256"
        },
        {
          "internalType": "address",
          "name": "recipient",
          "type": "address"
        }
      ],
      "name": "recoverStuckTokens",
      "outputs": [],
      "stateMutability": "nonpayable",
      "type": "function"
    },
    {
      "inputs": [],
      "name": "referralSystem",
      "outputs": [
        {
          "internalType": "contract RentChainReferral",
          "name": "",
          "type": "address"
        }
      ],
      "stateMutability": "view",
      "type": "function"
    },
    {
      "inputs": [
        {
          "internalType": "string",
          "name": "title",
          "type": "string"
        },
        {
          "internalType": "uint256",
          "name": "price",
          "type": "uint256"
        },
        {
          "internalType": "string",
          "name": "location",
          "type": "string"
        },
        {
          "internalType": "string",
          "name": "ipfsHash",
          "type": "string"
        }
      ],
      "name": "registerProperty",
      "outputs": [
        {
          "internalType": "uint256",
          "name": "",
          "type": "uint256"
        }
      ],
      "stateMutability": "nonpayable",
      "type": "function"
    },
    {
      "inputs": [
        {
          "internalType": "string",
          "name": "name",
          "type": "string"
        },
        {
          "internalType": "string",
          "name": "email",
          "type": "string"
        },
        {
          "internalType": "string",
          "name": "phone",
          "type": "string"
        },
        {
          "internalType": "string",
          "name": "ipfsHash",
          "type": "string"
        }
      ],
      "name": "registerUser",
      "outputs": [
        {
          "internalType": "bool",
          "name": "",
          "type": "bool"
        }
      ],
      "stateMutability": "nonpayable",
      "type": "function"
    },
    {
      "inputs": [],
      "name": "rentAgreement",
      "outputs": [
        {
          "internalType": "contract RentAgreement",
          "name": "",
          "type": "address"
        }
      ],
      "stateMutability": "view",
      "type": "function"
    },
    {
      "inputs": [],
      "name": "rentToken",
      "outputs": [
        {
          "internalType": "contract RentChainToken",
          "name": "",
          "type": "address"
        }
      ],
      "stateMutability": "view",
      "type": "function"
    },
    {
      "inputs": [],
      "name": "rentalInsurance",
      "outputs": [
        {
          "internalType": "contract RentalInsurance",
          "name": "",
          "type": "address"
        }
      ],
      "stateMutability": "view",
      "type": "function"
    },
    {
      "inputs": [
        {
          "internalType": "address",
          "name": "token",
          "type": "address"
        },
        {
          "internalType": "uint256",
          "name": "amount",
          "type": "uint256"
        }
      ],
      "name": "requestEmergencyWithdrawal",
      "outputs": [
        {
          "internalType": "bytes32",
          "name": "",
          "type": "bytes32"
        }
      ],
      "stateMutability": "nonpayable",
      "type": "function"
    },
    {
      "inputs": [],
      "name": "resumeContract",
      "outputs": [],
      "stateMutability": "nonpayable",
      "type": "function"
    },
    {
      "inputs": [],
      "name": "resumeSystem",
      "outputs": [],
      "stateMutability": "nonpayable",
      "type": "function"
    },
    {
      "inputs": [],
      "name": "reviewSystem",
      "outputs": [
        {
          "internalType": "contract ReviewSystem",
          "name": "",
          "type": "address"
        }
      ],
      "stateMutability": "view",
      "type": "function"
    },
    {
      "inputs": [
        {
          "internalType": "uint256",
          "name": "newVersion",
          "type": "uint256"
        }
      ],
      "name": "setVersion",
      "outputs": [],
      "stateMutability": "nonpayable",
      "type": "function"
    },
    {
      "inputs": [
        {
          "internalType": "uint256",
          "name": "amount",
          "type": "uint256"
        }
      ],
      "name": "stakeTokens",
      "outputs": [],
      "stateMutability": "nonpayable",
      "type": "function"
    },
    {
      "inputs": [],
      "name": "stakingRewards",
      "outputs": [
        {
          "internalType": "contract StakingRewards",
          "name": "",
          "type": "address"
        }
      ],
      "stateMutability": "view",
      "type": "function"
    },
    {
      "inputs": [],
      "name": "subscriptions",
      "outputs": [
        {
          "internalType": "contract RentChainSubscriptions",
          "name": "",
          "type": "address"
        }
      ],
      "stateMutability": "view",
      "type": "function"
    },
    {
      "inputs": [
        {
          "internalType": "uint256",
          "name": "targetChain",
          "type": "uint256"
        },
        {
          "internalType": "address",
          "name": "user",
          "type": "address"
        }
      ],
      "name": "syncUserCrossChain",
      "outputs": [
        {
          "internalType": "bytes32",
          "name": "",
          "type": "bytes32"
        }
      ],
      "stateMutability": "nonpayable",
      "type": "function"
    },
    {
      "inputs": [],
      "name": "systemActive",
      "outputs": [
        {
          "internalType": "bool",
          "name": "",
          "type": "bool"
        }
      ],
      "stateMutability": "view",
      "type": "function"
    },
    {
      "inputs": [],
      "name": "systemLaunchTime",
      "outputs": [
        {
          "internalType": "uint256",
          "name": "",
          "type": "uint256"
        }
      ],
      "stateMutability": "view",
      "type": "function"
    },
    {
      "inputs": [
        {
          "internalType": "string",
          "name": "feature",
          "type": "string"
        },
        {
          "internalType": "bool",
          "name": "enabled",
          "type": "bool"
        }
      ],
      "name": "toggleFeature",
      "outputs": [],
      "stateMutability": "nonpayable",
      "type": "function"
    },
    {
      "inputs": [],
      "name": "totalAgreements",
      "outputs": [
        {
          "internalType": "uint256",
          "name": "",
          "type": "uint256"
        }
      ],
      "stateMutability": "view",
      "type": "function"
    },
    {
      "inputs": [],
      "name": "totalProperties",
      "outputs": [
        {
          "internalType": "uint256",
          "name": "",
          "type": "uint256"
        }
      ],
      "stateMutability": "view",
      "type": "function"
    },
    {
      "inputs": [],
      "name": "totalUsers",
      "outputs": [
        {
          "internalType": "uint256",
          "name": "",
          "type": "uint256"
        }
      ],
      "stateMutability": "view",
      "type": "function"
    },
    {
      "inputs": [],
      "name": "totalVolume",
      "outputs": [
        {
          "internalType": "uint256",
          "name": "",
          "type": "uint256"
        }
      ],
      "stateMutability": "view",
      "type": "function"
    },
    {
      "inputs": [
        {
          "internalType": "address",
          "name": "newAdmin",
          "type": "address"
        }
      ],
      "name": "transferAdmin",
      "outputs": [],
      "stateMutability": "nonpayable",
      "type": "function"
    },
    {
      "inputs": [
        {
          "internalType": "address",
          "name": "newEmergencySystem",
          "type": "address"
        }
      ],
      "name": "updateEmergencySystem",
      "outputs": [],
      "stateMutability": "nonpayable",
      "type": "function"
    },
    {
      "inputs": [
        {
          "internalType": "uint256",
          "name": "newVersion",
          "type": "uint256"
        },
        {
          "internalType": "string",
          "name": "description",
          "type": "string"
        }
      ],
      "name": "upgradeSystem",
      "outputs": [],
      "stateMutability": "nonpayable",
      "type": "function"
    },
    {
      "inputs": [
        {
          "internalType": "uint256",
          "name": "planId",
          "type": "uint256"
        }
      ],
      "name": "upgradeToPremium",
      "outputs": [],
      "stateMutability": "nonpayable",
      "type": "function"
    },
    {
      "inputs": [],
      "name": "userRegistry",
      "outputs": [
        {
          "internalType": "contract UserRegistry",
          "name": "",
          "type": "address"
        }
      ],
      "stateMutability": "view",
      "type": "function"
    },
    {
      "inputs": [],
      "name": "version",
      "outputs": [
        {
          "internalType": "uint256",
          "name": "",
          "type": "uint256"
        }
      ],
      "stateMutability": "view",
      "type": "function"
    },
    {
      "stateMutability": "payable",
      "type": "receive"
    }
  ],
  "bytecode": "0x6080346200042657601f6200384538819003918201601f1916830191906001600160401b038311848410176200042b578161010092859260409586528339810103126200042657620000518262000461565b9160206200006181830162000461565b936200006f84840162000461565b6200007d6060850162000461565b936200008c6080820162000461565b906200009b60a0820162000461565b90620000b860e0620000b060c0840162000461565b920162000461565b9160018060a01b03199360009833868b5416178a55856002541660025560019788805560018060a01b038091169c8d15620003e25781169788156200039e5781169182156200035a57811692831562000316578116938415620002d25781169485156200028e5781169586156200024a5716968715620002065760a09a9b9c87600a541617600a55866007541617600755856003541617600355846004541617600455836005541617600555826006541617600655816008541617600855600954161760095583836200018a62000441565b82815282858201528288820152826060820152826080820152015280620001b062000441565b8181529283015284820181905260608201819052608082015201526017805465ffffffffffff19166401010101011790556011805460ff60a01b1916600160a01b17905542601655516133ce9081620004778239f35b8b5162461bcd60e51b8152600481018b9052601560248201527f496e76616c6964207265766965772073797374656d00000000000000000000006044820152606490fd5b8c5162461bcd60e51b8152600481018c9052601a60248201527f496e76616c69642064697370757465207265736f6c7574696f6e0000000000006044820152606490fd5b8c5162461bcd60e51b8152600481018c9052601960248201527f496e76616c6964207061796d656e742070726f636573736f72000000000000006044820152606490fd5b8c5162461bcd60e51b8152600481018c9052601660248201527f496e76616c696420657363726f77206d616e61676572000000000000000000006044820152606490fd5b8c5162461bcd60e51b8152600481018c9052601660248201527f496e76616c69642072656e742061677265656d656e74000000000000000000006044820152606490fd5b8c5162461bcd60e51b8152600481018c9052601960248201527f496e76616c69642070726f7065727479207265676973747279000000000000006044820152606490fd5b8c5162461bcd60e51b8152600481018c9052601560248201527f496e76616c6964207573657220726567697374727900000000000000000000006044820152606490fd5b8c5162461bcd60e51b8152600481018c9052601560248201527f496e76616c696420746f6b656e206164647265737300000000000000000000006044820152606490fd5b600080fd5b634e487b7160e01b600052604160045260246000fd5b6040519060c082016001600160401b038111838210176200042b57604052565b51906001600160a01b0382168203620004265756fe6080806040526004361015610069575b50361561001b57600080fd5b61002c60ff60115460a01c16613283565b341561003457005b60405162461bcd60e51b815260206004820152600d60248201526c139bc81d985b1d59481cd95b9d609a1b6044820152606490fd5b60009060e08235811c9182630b3bce2014612eea575081630bf2d66814612af85781631116cfdb14612a1e578163157c51d3146129b1578163158ef93e1461298c5781631acec795146125dc57816326b703a7146125b357816326d446851461258a57816330e66cd214612525578163335195a6146125075781633431d5c9146124e15781633981afc114612458578163408def1e146123f3578163439766ce1461235957816345282a92146122975781634cacef2b1461227957816354fd4d501461225b5781635c7460d6146122325781635d65ad67146121895781635f81a57c1461216b578163641f5d111461214257816364b87a70146121195781636cb69f4214611fef57816374fc183214611e935781637547c7a314611d2557816375829def14611ca75781637691c4ac14611c825781637cc1f86714611c2957816380d5ac8a14611c0057816382ce5f5214611bd757816387f38c8214611a65578163886e104414611a3c5781638c96cf631461195357816392d76cb61461192a57816393e54a5614611772578163953874d2146116e657816395ccea6714611618578163a04e876c146115ef578163a77db54f146115c6578163abc8c7af1461159d578163b8e381e514611574578163be9157cf1461154b578163bfa1f3b8146111f4578163bff1f9e1146111d6578163c12255c4146111ad578163c4bc5da51461114a578163d1ce59a714611103578163d849918914610f17578163eef6f9631461095d578163f1c6bdf814610934578163f851a4401461090d578163faaf807614610791575063fc2bf8f00361000f573461040557604036600319011261040557600254604051633e8dc9cf60e21b81526001600160a01b0392916024803592909184908290600490829089165afa908115610786579061031d91859161075d575b5061031661320e565b9015613097565b61032d60ff845460a01c16613237565b60119361034060ff865460a01c16613283565b8060045416803b1561075957848091604460405180948193630fc2bf8f60e41b8352600435600484015289898401525af1801561074e57908591610736575b505060fa830283810460fa14841517156107235761271090049485158015610418575b50849550541690813b156104135760a4600091858094604051968795869463a508b92160e01b8652336004870152850152604484015260016064840152600060848401525af18015610408576103f55750f35b6103fe90612f06565b6104055780f35b80fd5b6040513d84823e3d90fd5b505050fd5b60288702878104602814821715610710576064900490601e8802888104601e148217156106fd576064900490601489029089820460141417156106fd57918798916064899404610475816104708461047087896132d2565b6132d2565b9187600a5416916040519163a9059cbb60e01b9384845273742d35cc6634c0532925a3b8dc9f5a6f6e8c6f5e968760048601528c8501528360448160209b8c945af19081156106f2578d9389926106b4575b5060448c8c600a54169560405196879485938a85528c60048601528401525af19081156106a9578c92889261066b575b5060448b8b600a54169460405195869485938985528b60048601528401525af1801561066057610628575b5060ff60175460181c168061061f575b61056e575b5050906040917f1604c7c469c0ce177c411628a5787d2a5b6a2f7ffda7f9d732edcb70f1138032938351928352820152a1386103a2565b600a54600b5460405192835288166001600160a01b031660048301526024820192909252908490829060449082908d908b165af18015610614576105b3575b80610537565b91908383813d831161060d575b6105ca8183612f4f565b81010312610609577f1604c7c469c0ce177c411628a5787d2a5b6a2f7ffda7f9d732edcb70f1138032936105ff6040946130c7565b50935090916105ad565b8880fd5b503d6105c0565b6040513d8b823e3d90fd5b50811515610532565b8581813d8311610659575b61063d8183612f4f565b810103126106555761064e906130c7565b5038610522565b8a80fd5b503d610633565b6040513d8d823e3d90fd5b8281939294503d83116106a2575b6106838183612f4f565b8101031261069e578b9161069788926130c7565b50386104f7565b8b80fd5b503d610679565b6040513d8e823e3d90fd5b8281939295503d83116106eb575b6106cc8183612f4f565b810103126106e7578c926106e089926130c7565b50386104c7565b8c80fd5b503d6106c2565b6040513d8f823e3d90fd5b634e487b7160e01b885260048490528588fd5b634e487b7160e01b875260048390528487fd5b634e487b7160e01b855260048690528285fd5b61073f90612f06565b61074a57833861037f565b8380fd5b6040513d87823e3d90fd5b8480fd5b61077991503d8087833e6107718183612f4f565b810190613119565b505050505050503861030d565b6040513d86823e3d90fd5b82346104055760209081600319360112610405576107ad612fd2565b9260018060a01b0392838181600754169660246040518098819363056720bf60e51b835216998a60048301525afa9485156107865784956108d6575b5060248482600354166040519283809263cb64489760e01b82528b60048301525afa90811561074e5790839186916108b4575b5051916009541696602460405180998193631cec614760e21b835260048301525afa91821561078657849261087e575b6101009650604051951515865285015282604085015282606085015282608085015260a08401528160c0840152820152f35b80925086813d83116108ad575b6108958183612f4f565b810103126108a85761010095519161084c565b600080fd5b503d61088b565b6108d091503d8088833e6108c88183612f4f565b8101906132df565b8861081c565b9094508181813d8311610906575b6108ee8183612f4f565b8101031261074a576108ff906130c7565b93866107e9565b503d6108e4565b8234610405578060031936011261040557546040516001600160a01b039091168152602090f35b82346104055780600319360112610405576006546040516001600160a01b039091168152602090f35b82346104055761010036600319011261040557610978612ffe565b610980613014565b600254604051633e8dc9cf60e21b8152919291908490829060049082906001600160a01b03165afa8015610786576109c1918591610ef6575061031661320e565b6109d160ff845460a01c16613237565b6109e260ff60115460a01c16613283565b60075460405163056720bf60e51b81526001600160a01b038381166004830152909160209183916024918391165afa908115610786578491610ebc575b5015610e8157610a3360843560a4356132d2565b60443515610e3c576003604435026044358104600303610e285760643511610df057620151808110610db6576301e1338010610d7d57600480546040516387f98ca960e01b81528235928101929092526001600160a01b03838116602484015260448035908401526064803590840152608480359084015260a480359084015280851660c4840152919391602091859160e49183918991165af1928315610786578493610d49575b5060ff60175460101c1680610d3e575b610cbc575b606435610c22575b50610b046013546132c3565b601355610b20610b186064356044356131eb565b6015546131eb565b6015556011546001600160a01b0316908390823b15610bfb57604051828160a4818363a508b92160e01b9889835233600484015260016024840152604435604484015260006064840152600060848401525af1908115610bff578391610c0e575b50506011546001600160a01b031692833b15610c0a5760a490836040519586948593845260018060a01b0316600484015260006024840152604435604484015260006064840152600060848401525af18015610bff57610be7575b602082604051908152f35b610bf18391612f06565b610bfb5781610bdc565b5080fd5b6040513d85823e3d90fd5b8280fd5b610c1790612f06565b610bfb578186610b81565b6005546001600160a01b03169060209060a4610c4160843582356132d2565b604051635338c28b60e11b81523360048201526001600160a01b03878116602483015260648035604484015294169381019390935260848301529092839190829088905af180156107865715610af857602090813d8311610cb5575b610ca78183612f4f565b810103126108a85783610af8565b503d610c9d565b600c546040516306ac516d60e21b8152600481018590526001600160a01b03848116602483015233604483015260e43560648301529091602091839160849183918a91165af1801561074e57610d13575b50610af0565b602090813d8311610d37575b610d298183612f4f565b810103126108a85784610d0d565b503d610d1f565b5060e4351515610aeb565b9092506020813d602011610d75575b81610d6560209383612f4f565b810103126108a857519184610adb565b3d9150610d58565b60405162461bcd60e51b81526020600482015260116024820152704475726174696f6e20746f6f206c6f6e6760781b6044820152606490fd5b60405162461bcd60e51b8152602060048201526012602482015271111d5c985d1a5bdb881d1bdbc81cda1bdc9d60721b6044820152606490fd5b60405162461bcd60e51b815260206004820152601060248201526f088cae0dee6d2e840e8dede40d0d2ced60831b6044820152606490fd5b634e487b7160e01b85526011600452602485fd5b60405162461bcd60e51b815260206004820152601c60248201527f52656e7420616d6f756e74206d75737420626520706f736974697665000000006044820152606490fd5b60405162461bcd60e51b815260206004820152601360248201527215195b985b9d081b9bdd081d995c9a599a5959606a1b6044820152606490fd5b90506020813d602011610eee575b81610ed760209383612f4f565b8101031261074a57610ee8906130c7565b84610a1f565b3d9150610eca565b610f0a91503d8087833e6107718183612f4f565b505050505050508561030d565b905034610bfb5736600319011261040557610f30612fd2565b610f38612ffe565b610f40612fe8565b6001600160a01b0391606435838116908190036108a857608435908482168092036108a85760a435928584168094036108a857610f7b613014565b94885497610f94610f8a613072565b898b163314613097565b60ff8960a01c166110c857879283809216806110af575b501680611096575b50168061107d575b5080611064575b508061104b575b5080611032575b501680611019575b5060ff60a01b1916600160a01b17815560405142815233907f43863104038d02bfbf63a2b2c6aa5184d05e0a2f9af9a6aeec38009aab662c7890602090a280f35b6001600160601b0360a01b601154161760115538610fd8565b6001600160601b0360a01b601054161760105538610fd0565b6001600160601b0360a01b600f541617600f5538610fc9565b6001600160601b0360a01b600e541617600e5538610fc2565b6001600160601b0360a01b600d541617600d5538610fbb565b6001600160601b0360a01b600c541617600c5538610fb3565b6001600160601b0360a01b600b541617600b5538610fab565b60405162461bcd60e51b8152602060048201526013602482015272105b1c9958591e481a5b9a5d1a585b1a5e9959606a1b6044820152606490fd5b823461040557806003193601126104055760125490601354601454601554916040519485526020850152604084015260608301528060808301528060a083015260c0820152f35b82346104055780600319360112610405578060018060a01b0361117a818354163314611174613072565b90613097565b60025416803b156111aa5781809160046040518094819363157c51d360e01b83525af18015610408576103f55750f35b50fd5b82346104055780600319360112610405576005546040516001600160a01b039091168152602090f35b82346104055780600319360112610405576020601454604051908152f35b82346104055760403660031901126104055761120e612ffe565b600254604051633e8dc9cf60e21b815291936001600160a01b0392909184908290600490829087165afa908115610786579061125391859161152a575061031661320e565b61126360ff845460a01c16613237565b60ff60175460281c16156114ee57819061128460ff60115460a01c16613283565b8382600754169560246040518095819363543a185d60e11b835216988960048301525afa918215610786578491859361143f575b50508260045416604051632246d97b60e11b81528660048201528581602481855afa90811561141a5760249187918291611425575b50519260405192838092638aed078d60e01b82528b60048301525afa90811561141a579061132592918791611400575b5051906131eb565b60405192602096878501526040840152606083015260808201526080815260a08101918183106001600160401b038411176113ea578285918160405260105416638162e1bb60e01b825260043560a4850152604060c48501528186609f198661139160e482018261304d565b0301925af19283156113de57908491936113af575b50604051838152f35b90809293503d83116113d7575b6113c68185612f4f565b810103126108a857518282816113a6565b503d6113bc565b604051903d90823e3d90fd5b634e487b7160e01b600052604160045260246000fd5b61141491503d8089833e6108c88183612f4f565b8861131d565b6040513d88823e3d90fd5b61143991503d8084833e6108c88183612f4f565b896112ed565b915091503d8085843e6114528184612f4f565b8201610100838203126107595782516001600160401b03908181116114ea578261147d9186016130d4565b5060208401518181116114ea57826114969186016130d4565b5060408401518181116114ea57826114af9186016130d4565b5060608401519081116114e657906114c89184016130d4565b506114d5608083016130c7565b5060a08201519101519085806112b8565b8580fd5b8680fd5b60405162461bcd60e51b815260206004820152601460248201527310dc9bdcdccb58da185a5b88191a5cd8589b195960621b6044820152606490fd5b61153e91503d8087833e6107718183612f4f565b505050505050508661030d565b82346104055780600319360112610405576008546040516001600160a01b039091168152602090f35b8234610405578060031936011261040557600e546040516001600160a01b039091168152602090f35b8234610405578060031936011261040557600d546040516001600160a01b039091168152602090f35b8234610405578060031936011261040557600a546040516001600160a01b039091168152602090f35b8234610405578060031936011261040557600f546040516001600160a01b039091168152602090f35b823461040557604036600319011261040557611632612fd2565b81546001600160a01b03919082169061165461164c613072565b833314613097565b60ff60115460a01c166116a95782849360025416803b15610759578492836064926040519687958694631b0c0ad160e21b8652166004850152602435602485015260448401525af18015610408576103f55750f35b60405162461bcd60e51b815260206004820152601560248201527414de5cdd195b481b5d5cdd081899481c185d5cd959605a1b6044820152606490fd5b905034610bfb5781600319360112610bfb576101409060018060a01b03908160035416918060045416918160055416908260065416836007541684600a54169085600b54169286600c54169587600d54169760115416986040519a8b5260208b015260408a01526060890152608088015260a087015260c0860152840152610100830152610120820152f35b823461040557600319608036820112610bfb5781600435916001600160401b0392838111610c0a576117a8903690600401612f8b565b60243584811161074a576117c0903690600401612f8b565b91604435858111610759576117d9903690600401612f8b565b94606435908111610759576117f2903690600401612f8b565b600254604051633e8dc9cf60e21b81526001600160a01b039187908290600490829086165afa801561191f576118319188916118fe575061031661320e565b61184160ff875460a01c16613237565b61185260ff60115460a01c16613283565b6007541692833b156114e6576118c26118939387936118b36118a39a6040519b8c9a8b998a986349f2a52b60e11b8a52608060048b015260848a019061304d565b90868983030160248a015261304d565b908487830301604488015261304d565b9184830301606485015261304d565b03925af18015610408576118ea575b6118dc6014546132c3565b601455602060405160018152f35b6118f48291612f06565b61040557806118d1565b61191291503d808a833e6107718183612f4f565b505050505050508a61030d565b6040513d89823e3d90fd5b82346104055780600319360112610405576009546040516001600160a01b039091168152602090f35b8234610405576020366003190112610405576004356001600160401b038111610bfb57611984903690600401612f8b565b815482906001600160a01b03906119a790821661199f613072565b903314613097565b6011805460ff60a01b1916905560025416803b15610bfb57818091600460405180948193630775ef0f60e01b83525af1801561040857611a28575b507ff3ab02e27e493b90ce06184d5a193758ddf3218a1a7170cf71528ba0f8664925611a1c8360405191829160408352604083019061304d565b3360208301520390a180f35b611a3190612f06565b610bfb5781836119e2565b82346104055780600319360112610405576004546040516001600160a01b039091168152602090f35b823461040557602036600319011261040557600254604051633e8dc9cf60e21b81526001600160a01b039183908290600490829086165afa8015610bff57611ab6918491611bb6575061031661320e565b611ac660ff835460a01c16613237565b60ff60175460081c1615611b78578190611ae760ff60115460a01c16613283565b80600e5416803b15611b7457828091602460405180948193630f574ba760e01b835260043560048401525af1908115610bff578391611b60575b505060075416803b156111aa57818091604460405180948193639247db6360e01b8352336004840152606460248401525af18015610408576103f55750f35b611b6990612f06565b6111aa578184611b21565b5050fd5b60405162461bcd60e51b815260206004820152601660248201527514dd589cd8dc9a5c1d1a5bdb9cc8191a5cd8589b195960521b6044820152606490fd5b611bca91503d8086833e6107718183612f4f565b505050505050508461030d565b82346104055780600319360112610405576010546040516001600160a01b039091168152602090f35b82346104055780600319360112610405576011546040516001600160a01b039091168152602090f35b82346104055780600319360112610405575460025460015460a0926001600160a01b039283169160ff9190611c5c61318a565b93604051958316865260208601526040850152841c161515606083015215156080820152f35b82346104055780600319360112610405576020611c9d61318a565b6040519015158152f35b823461040557602036600319011261040557611cc1612fd2565b8154906001600160a01b0380831691611ce3611cdb613072565b843314613097565b611cec8161335a565b1680926001600160601b0360a01b161783557f7e644d79422f17c01e4894b5f4f588d331ebfa28653d42ae832dc59e38c9798f8380a380f35b8234610405576020908160031936011261040557600254604051633e8dc9cf60e21b815260048035926001600160a01b0392918591839190829086165afa9081156107865790611d7e91859161152a575061031661320e565b611d8e60ff845460a01c16613237565b60ff60175460181c1615611e5b57828094611db060ff60115460a01c16613283565b8083600a5416606485600b541660405195869384926323b872dd60e01b845233600485015260248401528960448401525af1801561074e57611e27575b5050600b541690813b15611b7457829160248392604051948593849263534a7e1d60e11b845260048401525af18015610408576103f55750f35b81813d8311611e54575b611e3b8183612f4f565b8101031261041357611e4c906130c7565b508480611ded565b503d611e31565b60405162461bcd60e51b815260048101859052601060248201526f14dd185ada5b99c8191a5cd8589b195960821b6044820152606490fd5b823461040557606036600319011261040557611ead612fd2565b60243590611eb9612fe8565b83546001600160a01b0390611ed49082163314611174613072565b611edc61318a565b15611fb6578492818116611f0f575082938392839283918315611f05575b1690f1156113de5780f35b6108fc9250611efa565b60405163a9059cbb60e01b602082019081526001600160a01b03949094166024820152604480820196909652948552611fae9484939192508390611f54606482612f4f565b51925af13d15611fb1573d611f6881612f70565b90611f766040519283612f4f565b81528360203d92013e5b60405190611f8d82612f34565b600f82526e151c985b9cd9995c8819985a5b1959608a1b6020830152613097565b80f35b611f80565b60405162461bcd60e51b815260206004820152601160248201527014de5cdd195b481b9bdd081c185d5cd959607a1b6044820152606490fd5b905034610bfb5781600319360112610bfb57816101609260a060405161201481612f19565b828152826020820152826040820152826060820152826080820152015260ff8060115460a01c16806000146121135761204f601654426132d2565b925b60018060a01b03905416936001549160165460405161206f81612f19565b60175496868816151582526020820192878960081c16151584526040830194888a60101c16151586526060840197898b60181c16151589526080850199808c60201c1615158b5260a086019b60281c1615158b526040519b8c5260208c0152151560408b015260608a0152608089015251151560a088015251151560c087015251151590850152511515610100840152511515610120830152511515610140820152f35b82612051565b8234610405578060031936011261040557600b546040516001600160a01b039091168152602090f35b8234610405578060031936011261040557600c546040516001600160a01b039091168152602090f35b82346104055780600319360112610405576020601554604051908152f35b8234610405576040366003190112610405578060206121e46121a9612fd2565b600254604051635d65ad6760e01b81526001600160a01b03928316600482015260248035908201529586939190921691839182906044820190565b03925af19081156113de5790612200575b602090604051908152f35b506020813d821161222a575b8161221960209383612f4f565b810103126108a857602090516121f5565b3d915061220c565b82346104055780600319360112610405576007546040516001600160a01b039091168152602090f35b82346104055780600319360112610405576020600154604051908152f35b82346104055780600319360112610405576020601654604051908152f35b8234610405578060031936011261040557600254604051633e8dc9cf60e21b815291908190839060049082906001600160a01b03165afa801561234c57818093818093612318575b5050906122ef61231492856131eb565b604051948594151585526020850152604084015260806060840152608083019061304d565b0390f35b90915061231494506122ef935061233992503d8091833e6107718183612f4f565b50945096949150949150939491926122df565b50604051903d90823e3d90fd5b82346104055780600319360112610405578060018060a01b03612383818354163314611174613072565b60025416803b156111aa5781809160e4604051809481936334cc128960e21b835260016004840152600160248401526001604484015262278d00606484015260a06084840152600b60a48401526a41646d696e20706175736560a81b60c48401525af18015610408576103f55750f35b8234610405576020366003190112610405577f730abf329076f769aacddade69fbe7ca672a3c95fc1b7728ecf7b8f8cb705ed0604060043561244260018060a01b038554163314611174613072565b600154908060015582519182526020820152a180f35b8234610405576020366003190112610405577f62fb284f5d1a9d326f25d6900267a8cb39113f8484b351a73c1ada4014c668646040612495612fd2565b83546001600160a01b03906124b09082163314611174613072565b6124b98261335a565b80600254921690816001600160601b0360a01b8416176002558351921682526020820152a180f35b8234610405578060031936011261040557602060ff60115460a01c166040519015158152f35b82346104055780600319360112610405576020601354604051908152f35b823461040557806003193601126104055760c06017546040519060ff9081811615158352818160081c1615156020840152818160101c1615156040840152818160181c1615156060840152818160201c161515608084015260281c16151560a0820152f35b82346104055780600319360112610405576002546040516001600160a01b039091168152602090f35b82346104055780600319360112610405576003546040516001600160a01b039091168152602090f35b8234610405576040366003190112610405576004356001600160401b038111610bfb5761260d903690600401612f8b565b602435801515809103610c0a577f43a0148be74197659be43bacdac4e492c6e55291225e29fd4f098868ff304fc1916126f79161265760018060a01b038654163314611174613072565b6040519061266482612f34565b600b8252602091828101906a6d61726b6574706c61636560a81b8252604051918483018651936126ab8782818b019761269e81878b61302a565b8101038084520182612f4f565b519020916126ca86604051809361269e8383019687925192839161302a565b51902003612701575060ff196017541660ff8216176017555b60405193849360408552604085019061304d565b918301520390a180f35b60405161270d81612f34565b600d81528381016c737562736372697074696f6e7360981b81526040518581019061274087828a5161269e81878b61302a565b5190209161275f86604051809361269e8383019687925192839161302a565b51902003612783575060175461ff008260081b169061ff001916176017555b6126e3565b60405161278f81612f34565b6009815283810168696e737572616e636560b81b8152604051858101906127be87828a5161269e81878b61302a565b519020916127dd86604051809361269e8383019687925192839161302a565b51902003612802575060175462ff00008260101b169062ff00001916176017556126e3565b60405161280e81612f34565b60078152838101667374616b696e6760c81b81526040518581019061283b87828a5161269e81878b61302a565b5190209161285a86604051809361269e8383019687925192839161302a565b51902003612881575060175463ff0000008260181b169063ff0000001916176017556126e3565b60405161288d81612f34565b6009815283810168726566657272616c7360b81b8152604051858101906128bc87828a5161269e81878b61302a565b519020916128db86604051809361269e8383019687925192839161302a565b5190200361290257506017805464ff00000000191682841b64ff00000000161790556126e3565b6040519061290f82612f34565b600a825261269e848301916931b937b9b9b1b430b4b760b11b83526129438660405180938282019586918c5192839161302a565b5190209161296285604051809361269e8383019687925192839161302a565b5190200361277e5760175465ff00000000008260281b169065ff00000000001916176017556126e3565b823461040557806003193601126104055760ff6020915460a01c166040519015158152f35b82346104055780600319360112610405578060018060a01b036129db818354163314611174613072565b6011805460ff60a01b1916600160a01b17905560025416803b156111aa5781809160046040518094819363157c51d360e01b83525af18015610408576103f55750f35b8234610405576040366003190112610405576004356024356001600160401b038111610c0a57612a52903690600401612f8b565b612a6960018060a01b038454163314611174613072565b600154821115612abb57817fbb39107f2d494b1da653c1f383620fe84ef10d7ac5ca16bb5a6a3e844699d56092600155612ab5604051928392835260406020840152604083019061304d565b0390a180f35b60405162461bcd60e51b815260206004820152601560248201527456657273696f6e206d75737420696e63726561736560581b6044820152606490fd5b823461040557600319608036820112610bfb576001600160401b0391600435838111610bfb57612b2c903690600401612f8b565b92602480359060443583811161075957612b4a903690600401612f8b565b9260643590811161075957612b63903690600401612f8b565b600254604051633e8dc9cf60e21b815291966001600160a01b0392909187908290600490829087165afa90811561191f5790612ba89188916118fe575061031661320e565b612bb860ff875460a01c16613237565b612bc960ff60115460a01c16613283565b816007541697604051809963056720bf60e51b8252336004830152818660209c8d935afa908115612edf578891612ea6575b5015612e6e5790889183600354169088604051809b8195829463017e5acd60e31b8452600484016080905260848401612c339161304d565b8b8b85015281848203016044850152612c4c908d61304d565b90838203016064840152612c5f9161304d565b03925af195861561074e578596612e3f575b5060ff60175460081c16612df2575b60ff601754881c16612d0c575b612c986012546132c3565b6012556011541691823b156107595791606085612cd995938195604051978896879586946358206d7760e11b8652336004870152850152606484019061304d565b90604483015203925af1801561040857612cf8575b5050604051908152f35b612d028291612f06565b6104055780612cee565b600f54604051631852e8d960e01b8152336004820152602481018590529082168882604481845afa91821561191f5791899188938492612dbd575b5081612d57575b50505050612c8d565b6040516307b22ee360e21b815233600482015260248101929092529092839160449183915af1801561141a57908891612d94575b90818792612d4e565b813d8311612db6575b612da78183612f4f565b810103126108a8578688612d8b565b503d612d9d565b92839194508092503d8311612deb575b612dd78183612f4f565b810103126108a8578691899151908b612d47565b503d612dcd565b80600e5416803b156114e657858091846040518094819363ec817e0d60e01b83523360048401525af1801561141a57612e2c575b50612c80565b612e3890959195612f06565b9387612e26565b9095508681813d8311612e67575b612e578183612f4f565b8101031261075957519487612c71565b503d612e4d565b60405162461bcd60e51b8152600481018a905260118186015270155cd95c881b9bdd081d995c9a599a5959607a1b6044820152606490fd5b90508981813d8311612ed8575b612ebd8183612f4f565b81010312612ed457612ece906130c7565b8a612bfb565b8780fd5b503d612eb3565b6040513d8a823e3d90fd5b839034610bfb5781600319360112610bfb576020906012548152f35b6001600160401b0381116113ea57604052565b60c081019081106001600160401b038211176113ea57604052565b604081019081106001600160401b038211176113ea57604052565b90601f801991011681019081106001600160401b038211176113ea57604052565b6001600160401b0381116113ea57601f01601f191660200190565b81601f820112156108a857803590612fa282612f70565b92612fb06040519485612f4f565b828452602083830101116108a857816000926020809301838601378301015290565b600435906001600160a01b03821682036108a857565b604435906001600160a01b03821682036108a857565b602435906001600160a01b03821682036108a857565b60c435906001600160a01b03821682036108a857565b60005b83811061303d5750506000910152565b818101518382015260200161302d565b906020916130668151809281855285808601910161302a565b601f01601f1916010190565b6040519061307f82612f34565b60098252682737ba1030b236b4b760b91b6020830152565b1561309f5750565b60405162461bcd60e51b8152602060048201529081906130c390602483019061304d565b0390fd5b519081151582036108a857565b81601f820112156108a85780516130ea81612f70565b926130f86040519485612f4f565b818452602082840101116108a857613116916020808501910161302a565b90565b9190610100838203126108a85761312f836130c7565b9261313c602082016130c7565b92613149604083016130c7565b92613156606084016130c7565b9260808101519260a08201519260c08301516001600160401b0381116108a85760e0916131849185016130d4565b92015190565b600254604051633e8dc9cf60e21b815290600090829060049082906001600160a01b03165afa9081156131df576000916131c2575090565b6131d5913d8091833e6107718183612f4f565b5050505050505090565b6040513d6000823e3d90fd5b919082018092116131f857565b634e487b7160e01b600052601160045260246000fd5b6040519061321b82612f34565b600d82526c14de5cdd195b481c185d5cd959609a1b6020830152565b1561323e57565b60405162461bcd60e51b815260206004820152601860248201527f436f6e7472616374206e6f7420696e697469616c697a656400000000000000006044820152606490fd5b1561328a57565b60405162461bcd60e51b815260206004820152601160248201527053797374656d206e6f742061637469766560781b6044820152606490fd5b60001981146131f85760010190565b919082039182116131f857565b9060209081838203126108a85782516001600160401b03938482116108a8570181601f820112156108a85780519384116113ea578360051b906040519461332885840187612f4f565b855283808601928201019283116108a8578301905b82821061334b575050505090565b8151815290830190830161333d565b6040516133969161336a82612f34565b600f82526e496e76616c6964206164647265737360881b60208301526001600160a01b03161515613097565b56fea26469706673582212202a0e66fbbf77ee7b1c58232ce9b9ecfd94f11ad84c3ecb120e756ef63a55db4064736f6c63430008130033",
  "linkReferences": {},
  "deployedLinkReferences": {}
}