{
  "_format": "hh-sol-artifact-1",
  "contractName": "RentChainPriceOracle",
  "sourceName": "contracts/RentChainPriceOracle.sol",
  "abi": [
    {
      "inputs": [
        {
          "internalType": "address",
          "name": "_emergencySystem",
          "type": "address"
        }
      ],
      "stateMutability": "nonpayable",
      "type": "constructor"
    },
    {
      "anonymous": false,
      "inputs": [
        {
          "indexed": true,
          "internalType": "address",
          "name": "previousAdmin",
          "type": "address"
        },
        {
          "indexed": true,
          "internalType": "address",
          "name": "newAdmin",
          "type": "address"
        }
      ],
      "name": "AdminChanged",
      "type": "event"
    },
    {
      "anonymous": false,
      "inputs": [
        {
          "indexed": false,
          "internalType": "address",
          "name": "initializer",
          "type": "address"
        },
        {
          "indexed": false,
          "internalType": "uint256",
          "name": "version",
          "type": "uint256"
        }
      ],
      "name": "ContractInitialized",
      "type": "event"
    },
    {
      "anonymous": false,
      "inputs": [
        {
          "indexed": false,
          "internalType": "uint256",
          "name": "oldVersion",
          "type": "uint256"
        },
        {
          "indexed": false,
          "internalType": "uint256",
          "name": "newVersion",
          "type": "uint256"
        }
      ],
      "name": "ContractUpgraded",
      "type": "event"
    },
    {
      "anonymous": false,
      "inputs": [
        {
          "indexed": false,
          "internalType": "address",
          "name": "oldSystem",
          "type": "address"
        },
        {
          "indexed": false,
          "internalType": "address",
          "name": "newSystem",
          "type": "address"
        }
      ],
      "name": "EmergencySystemUpdated",
      "type": "event"
    },
    {
      "anonymous": false,
      "inputs": [
        {
          "indexed": false,
          "internalType": "address",
          "name": "token",
          "type": "address"
        },
        {
          "indexed": false,
          "internalType": "uint256",
          "name": "timeSinceUpdate",
          "type": "uint256"
        }
      ],
      "name": "HeartbeatViolated",
      "type": "event"
    },
    {
      "anonymous": false,
      "inputs": [
        {
          "indexed": false,
          "internalType": "address",
          "name": "oracle",
          "type": "address"
        },
        {
          "indexed": false,
          "internalType": "bool",
          "name": "authorized",
          "type": "bool"
        }
      ],
      "name": "OracleAuthorized",
      "type": "event"
    },
    {
      "anonymous": false,
      "inputs": [
        {
          "indexed": true,
          "internalType": "address",
          "name": "token",
          "type": "address"
        },
        {
          "indexed": false,
          "internalType": "uint256",
          "name": "price",
          "type": "uint256"
        },
        {
          "indexed": false,
          "internalType": "uint256",
          "name": "timestamp",
          "type": "uint256"
        }
      ],
      "name": "PriceUpdated",
      "type": "event"
    },
    {
      "anonymous": false,
      "inputs": [
        {
          "indexed": true,
          "internalType": "address",
          "name": "token",
          "type": "address"
        },
        {
          "indexed": false,
          "internalType": "address",
          "name": "feedAddress",
          "type": "address"
        },
        {
          "indexed": false,
          "internalType": "uint8",
          "name": "decimals",
          "type": "uint8"
        }
      ],
      "name": "TokenConfigUpdated",
      "type": "event"
    },
    {
      "inputs": [],
      "name": "MAX_HEARTBEAT",
      "outputs": [
        {
          "internalType": "uint256",
          "name": "",
          "type": "uint256"
        }
      ],
      "stateMutability": "view",
      "type": "function"
    },
    {
      "inputs": [],
      "name": "MIN_HEARTBEAT",
      "outputs": [
        {
          "internalType": "uint256",
          "name": "",
          "type": "uint256"
        }
      ],
      "stateMutability": "view",
      "type": "function"
    },
    {
      "inputs": [],
      "name": "admin",
      "outputs": [
        {
          "internalType": "address",
          "name": "",
          "type": "address"
        }
      ],
      "stateMutability": "view",
      "type": "function"
    },
    {
      "inputs": [
        {
          "internalType": "address",
          "name": "oracle",
          "type": "address"
        },
        {
          "internalType": "bool",
          "name": "authorized",
          "type": "bool"
        }
      ],
      "name": "authorizeOracle",
      "outputs": [],
      "stateMutability": "nonpayable",
      "type": "function"
    },
    {
      "inputs": [
        {
          "internalType": "address",
          "name": "",
          "type": "address"
        }
      ],
      "name": "authorizedOracles",
      "outputs": [
        {
          "internalType": "bool",
          "name": "",
          "type": "bool"
        }
      ],
      "stateMutability": "view",
      "type": "function"
    },
    {
      "inputs": [
        {
          "internalType": "address[]",
          "name": "tokens",
          "type": "address[]"
        },
        {
          "internalType": "address[]",
          "name": "feeds",
          "type": "address[]"
        },
        {
          "internalType": "uint8[]",
          "name": "decimalsArray",
          "type": "uint8[]"
        },
        {
          "internalType": "string[]",
          "name": "descriptions",
          "type": "string[]"
        }
      ],
      "name": "batchUpdateConfigs",
      "outputs": [],
      "stateMutability": "nonpayable",
      "type": "function"
    },
    {
      "inputs": [],
      "name": "checkHeartbeats",
      "outputs": [
        {
          "internalType": "address[]",
          "name": "staleTokens",
          "type": "address[]"
        }
      ],
      "stateMutability": "view",
      "type": "function"
    },
    {
      "inputs": [
        {
          "internalType": "address",
          "name": "fromToken",
          "type": "address"
        },
        {
          "internalType": "address",
          "name": "toToken",
          "type": "address"
        },
        {
          "internalType": "uint256",
          "name": "amount",
          "type": "uint256"
        }
      ],
      "name": "convertValue",
      "outputs": [
        {
          "internalType": "uint256",
          "name": "",
          "type": "uint256"
        }
      ],
      "stateMutability": "view",
      "type": "function"
    },
    {
      "inputs": [
        {
          "internalType": "address",
          "name": "token",
          "type": "address"
        },
        {
          "internalType": "uint256",
          "name": "price",
          "type": "uint256"
        },
        {
          "internalType": "uint256",
          "name": "timestamp",
          "type": "uint256"
        }
      ],
      "name": "emergencyPriceUpdate",
      "outputs": [],
      "stateMutability": "nonpayable",
      "type": "function"
    },
    {
      "inputs": [],
      "name": "emergencySystem",
      "outputs": [
        {
          "internalType": "contract RentChainEmergency",
          "name": "",
          "type": "address"
        }
      ],
      "stateMutability": "view",
      "type": "function"
    },
    {
      "inputs": [],
      "name": "getContractInfo",
      "outputs": [
        {
          "internalType": "address",
          "name": "contractAdmin",
          "type": "address"
        },
        {
          "internalType": "address",
          "name": "emergencySystemAddress",
          "type": "address"
        },
        {
          "internalType": "uint256",
          "name": "contractVersion",
          "type": "uint256"
        },
        {
          "internalType": "bool",
          "name": "isInitialized",
          "type": "bool"
        },
        {
          "internalType": "bool",
          "name": "isPaused",
          "type": "bool"
        }
      ],
      "stateMutability": "view",
      "type": "function"
    },
    {
      "inputs": [],
      "name": "getPauseInfo",
      "outputs": [
        {
          "internalType": "bool",
          "name": "paused",
          "type": "bool"
        },
        {
          "internalType": "uint256",
          "name": "pauseStart",
          "type": "uint256"
        },
        {
          "internalType": "uint256",
          "name": "pauseEnd",
          "type": "uint256"
        },
        {
          "internalType": "string",
          "name": "reason",
          "type": "string"
        }
      ],
      "stateMutability": "view",
      "type": "function"
    },
    {
      "inputs": [
        {
          "internalType": "address",
          "name": "token",
          "type": "address"
        }
      ],
      "name": "getPrice",
      "outputs": [
        {
          "internalType": "uint256",
          "name": "",
          "type": "uint256"
        }
      ],
      "stateMutability": "view",
      "type": "function"
    },
    {
      "inputs": [
        {
          "internalType": "address",
          "name": "token",
          "type": "address"
        },
        {
          "internalType": "uint256",
          "name": "amount",
          "type": "uint256"
        }
      ],
      "name": "getPriceInUSD",
      "outputs": [
        {
          "internalType": "uint256",
          "name": "",
          "type": "uint256"
        }
      ],
      "stateMutability": "view",
      "type": "function"
    },
    {
      "inputs": [
        {
          "internalType": "address",
          "name": "token",
          "type": "address"
        }
      ],
      "name": "getPriceWithTimestamp",
      "outputs": [
        {
          "internalType": "uint256",
          "name": "price",
          "type": "uint256"
        },
        {
          "internalType": "uint256",
          "name": "timestamp",
          "type": "uint256"
        }
      ],
      "stateMutability": "view",
      "type": "function"
    },
    {
      "inputs": [
        {
          "internalType": "address",
          "name": "token",
          "type": "address"
        }
      ],
      "name": "getTokenInfo",
      "outputs": [
        {
          "internalType": "address",
          "name": "feedAddress",
          "type": "address"
        },
        {
          "internalType": "uint8",
          "name": "decimals",
          "type": "uint8"
        },
        {
          "internalType": "string",
          "name": "description",
          "type": "string"
        },
        {
          "internalType": "bool",
          "name": "active",
          "type": "bool"
        },
        {
          "internalType": "uint256",
          "name": "heartbeat",
          "type": "uint256"
        },
        {
          "internalType": "uint256",
          "name": "lastUpdate",
          "type": "uint256"
        },
        {
          "internalType": "uint256",
          "name": "currentPrice",
          "type": "uint256"
        }
      ],
      "stateMutability": "view",
      "type": "function"
    },
    {
      "inputs": [],
      "name": "initialized",
      "outputs": [
        {
          "internalType": "bool",
          "name": "",
          "type": "bool"
        }
      ],
      "stateMutability": "view",
      "type": "function"
    },
    {
      "inputs": [],
      "name": "isSystemPaused",
      "outputs": [
        {
          "internalType": "bool",
          "name": "",
          "type": "bool"
        }
      ],
      "stateMutability": "view",
      "type": "function"
    },
    {
      "inputs": [
        {
          "internalType": "address",
          "name": "",
          "type": "address"
        }
      ],
      "name": "latestPrices",
      "outputs": [
        {
          "internalType": "uint256",
          "name": "price",
          "type": "uint256"
        },
        {
          "internalType": "uint256",
          "name": "timestamp",
          "type": "uint256"
        },
        {
          "internalType": "uint80",
          "name": "roundId",
          "type": "uint80"
        },
        {
          "internalType": "uint8",
          "name": "decimals",
          "type": "uint8"
        }
      ],
      "stateMutability": "view",
      "type": "function"
    },
    {
      "inputs": [],
      "name": "pauseContract",
      "outputs": [],
      "stateMutability": "nonpayable",
      "type": "function"
    },
    {
      "inputs": [],
      "name": "priceAdmin",
      "outputs": [
        {
          "internalType": "address",
          "name": "",
          "type": "address"
        }
      ],
      "stateMutability": "view",
      "type": "function"
    },
    {
      "inputs": [
        {
          "internalType": "address",
          "name": "token",
          "type": "address"
        },
        {
          "internalType": "uint256",
          "name": "amount",
          "type": "uint256"
        },
        {
          "internalType": "address",
          "name": "recipient",
          "type": "address"
        }
      ],
      "name": "recoverStuckTokens",
      "outputs": [],
      "stateMutability": "nonpayable",
      "type": "function"
    },
    {
      "inputs": [
        {
          "internalType": "address",
          "name": "token",
          "type": "address"
        },
        {
          "internalType": "uint256",
          "name": "amount",
          "type": "uint256"
        }
      ],
      "name": "requestEmergencyWithdrawal",
      "outputs": [
        {
          "internalType": "bytes32",
          "name": "",
          "type": "bytes32"
        }
      ],
      "stateMutability": "nonpayable",
      "type": "function"
    },
    {
      "inputs": [],
      "name": "resumeContract",
      "outputs": [],
      "stateMutability": "nonpayable",
      "type": "function"
    },
    {
      "inputs": [
        {
          "internalType": "address",
          "name": "token",
          "type": "address"
        },
        {
          "internalType": "uint256",
          "name": "heartbeat",
          "type": "uint256"
        }
      ],
      "name": "setHeartbeat",
      "outputs": [],
      "stateMutability": "nonpayable",
      "type": "function"
    },
    {
      "inputs": [
        {
          "internalType": "address",
          "name": "newAdmin",
          "type": "address"
        }
      ],
      "name": "setPriceAdmin",
      "outputs": [],
      "stateMutability": "nonpayable",
      "type": "function"
    },
    {
      "inputs": [
        {
          "internalType": "address",
          "name": "token",
          "type": "address"
        },
        {
          "internalType": "address",
          "name": "feedAddress",
          "type": "address"
        },
        {
          "internalType": "uint8",
          "name": "decimals",
          "type": "uint8"
        },
        {
          "internalType": "string",
          "name": "description",
          "type": "string"
        }
      ],
      "name": "setTokenConfig",
      "outputs": [],
      "stateMutability": "nonpayable",
      "type": "function"
    },
    {
      "inputs": [
        {
          "internalType": "uint256",
          "name": "newVersion",
          "type": "uint256"
        }
      ],
      "name": "setVersion",
      "outputs": [],
      "stateMutability": "nonpayable",
      "type": "function"
    },
    {
      "inputs": [
        {
          "internalType": "address",
          "name": "token",
          "type": "address"
        },
        {
          "internalType": "bool",
          "name": "active",
          "type": "bool"
        }
      ],
      "name": "toggleTokenActive",
      "outputs": [],
      "stateMutability": "nonpayable",
      "type": "function"
    },
    {
      "inputs": [
        {
          "internalType": "address",
          "name": "",
          "type": "address"
        }
      ],
      "name": "tokenConfigs",
      "outputs": [
        {
          "internalType": "address",
          "name": "feedAddress",
          "type": "address"
        },
        {
          "internalType": "uint8",
          "name": "decimals",
          "type": "uint8"
        },
        {
          "internalType": "string",
          "name": "description",
          "type": "string"
        },
        {
          "internalType": "bool",
          "name": "active",
          "type": "bool"
        },
        {
          "internalType": "uint256",
          "name": "heartbeat",
          "type": "uint256"
        },
        {
          "internalType": "uint256",
          "name": "lastUpdate",
          "type": "uint256"
        }
      ],
      "stateMutability": "view",
      "type": "function"
    },
    {
      "inputs": [
        {
          "internalType": "address",
          "name": "newAdmin",
          "type": "address"
        }
      ],
      "name": "transferAdmin",
      "outputs": [],
      "stateMutability": "nonpayable",
      "type": "function"
    },
    {
      "inputs": [
        {
          "internalType": "address",
          "name": "newEmergencySystem",
          "type": "address"
        }
      ],
      "name": "updateEmergencySystem",
      "outputs": [],
      "stateMutability": "nonpayable",
      "type": "function"
    },
    {
      "inputs": [
        {
          "internalType": "address[]",
          "name": "tokens",
          "type": "address[]"
        }
      ],
      "name": "updateMultiplePrices",
      "outputs": [],
      "stateMutability": "nonpayable",
      "type": "function"
    },
    {
      "inputs": [
        {
          "internalType": "address",
          "name": "token",
          "type": "address"
        }
      ],
      "name": "updatePrice",
      "outputs": [],
      "stateMutability": "nonpayable",
      "type": "function"
    },
    {
      "inputs": [],
      "name": "version",
      "outputs": [
        {
          "internalType": "uint256",
          "name": "",
          "type": "uint256"
        }
      ],
      "stateMutability": "view",
      "type": "function"
    },
    {
      "stateMutability": "payable",
      "type": "receive"
    }
  ],
  "bytecode": "0x6080346200087157601f62002ae338819003918201601f19168301916001600160401b03831184841017620006a1578084926020946040528339810103126200087157516001600160a01b03811690819003620008715760018060a01b0319903382600054161760005581600254161760025560018055339060065416176006553360005260056020526040600020600160ff19825416179055620000a362000896565b600a8152691554d110c80bc81554d160b21b6020820152620000c462000876565b738fffffd4afb6115b954bd326cbe7b4ba576818f68152600860208083019182526040830193845260016060840152610e106080840152600060a080850182905273a0b86991c6218b36c1d19d4a2e9eb0ce3606eb48909152600390915282517f37c5eec85d84da1cf053e48828b531c27553684966639a8ba393ecfe725880fd805493516001600160a81b03199094166001600160a01b0392909216919091179290911b60ff60a01b1691909117815591518051906001600160401b038211620006a1576001840154600181811c9116801562000866575b60208210146200068057601f81116200081a575b50602090601f8311600114620007a05791806004949260a09460009262000794575b50508160011b916000199060031b1c19161760018501555b6200020b60608201511515600286019060ff801983541691151516179055565b60808101516003850155015191015573a0b86991c6218b36c1d19d4a2e9eb0ce3606eb4860008051602062002ac383398151915260408051738fffffd4afb6115b954bd326cbe7b4ba576818f6815260086020820152a26200026c62000896565b600a8152691554d115080bc81554d160b21b60208201526200028d62000876565b733e7d1eab13ad0104d2750b8863b489d65364e32d81526020810191600883526040820190815260016060830152610e106080830152600060a083015273dac17f958d2ee523a2206206994597c13d831ec7600052600360205260406000209260018060a01b0383511684549160ff60a01b905160a01b169160018060a81b031916171783555180519060018060401b038211620006a1576001840154600181811c9116801562000789575b60208210146200068057601f81116200073d575b50602090601f8311600114620006c35791806004949260a094600092620006b7575b50508160011b916000199060031b1c19161760018501555b620003a760608201511515600286019060ff801983541691151516179055565b60808101516003850155015191015573dac17f958d2ee523a2206206994597c13d831ec760008051602062002ac383398151915260408051733e7d1eab13ad0104d2750b8863b489d65364e32d815260086020820152a26200040862000896565b6009815268115512080bc81554d160ba1b60208201526200042862000876565b735f4ec3df9cbd43714fe2740f5e3616155c5b84198152600860208083019182526040830193845260016060840152610e106080840152600060a0808501829052908052600390915282517f3617319a054d772f909f7c479a2cebe5066e836a939412e32403c99029b92eff805493516001600160a81b03199094166001600160a01b0392909216919091179290911b60ff60a01b1691909117815591518051906001600160401b038211620006a1576001840154600181811c9116801562000696575b60208210146200068057601f811162000634575b50602090601f8311600114620005ba5791806004949260a094600092620005ae575b50508160011b916000199060031b1c19161760018501555b6200055a60608201511515600286019060ff801983541691151516179055565b608081015160038501550151910155600060008051602062002ac383398151915260408051735f4ec3df9cbd43714fe2740f5e3616155c5b8419815260086020820152a260405161220c9081620008b78239f35b01519050388062000522565b906001850160005260206000209160005b601f19851681106200061b5750926004949260019260a09583601f1981161062000601575b505050811b0160018501556200053a565b015160001960f88460031b161c19169055388080620005f0565b91926020600181928685015181550194019201620005cb565b600185016000526020600020601f840160051c81016020851062000678575b601f830160051c820181106200066b57505062000500565b6000815560010162000653565b508062000653565b634e487b7160e01b600052602260045260246000fd5b90607f1690620004ec565b634e487b7160e01b600052604160045260246000fd5b0151905038806200036f565b906001850160005260206000209160005b601f1985168110620007245750926004949260019260a09583601f198116106200070a575b505050811b01600185015562000387565b015160001960f88460031b161c19169055388080620006f9565b91926020600181928685015181550194019201620006d4565b600185016000526020600020601f840160051c81016020851062000781575b601f830160051c82018110620007745750506200034d565b600081556001016200075c565b50806200075c565b90607f169062000339565b015190503880620001d3565b906001850160005260206000209160005b601f1985168110620008015750926004949260019260a09583601f19811610620007e7575b505050811b016001850155620001eb565b015160001960f88460031b161c19169055388080620007d6565b91926020600181928685015181550194019201620007b1565b600185016000526020600020601f840160051c8101602085106200085e575b601f830160051c8201811062000851575050620001b1565b6000815560010162000839565b508062000839565b90607f16906200019d565b600080fd5b6040519060c082016001600160401b03811183821017620006a157604052565b60408051919082016001600160401b03811183821017620006a15760405256fe60806040526004361015610069575b361561001957600080fd5b60405162461bcd60e51b815260206004820152602260248201527f446972656374206574686572207472616e7366657273206e6f7420616c6c6f77604482015261195960f21b6064820152608490fd5b6000803560e01c80630c2c69fa14611729578063158ef93e14611704578063181bc717146116745780631b69dc5f146115e15780631f69565f146115425780631f76d82c1461152557806326d44685146114fc5780632e57c2361461145e5780632f1605fc146113aa5780633981afc114611321578063408def1e146112bc57806341976e0914611290578063439766ce146111ed57806345282a921461111757806348d7a27f14611009578063518adb8214610e7157806354fd4d5014610e5357806357dda26a14610e2a5780635d65ad6714610d7d57806361c992a314610d3e5780637089f2bf14610cd857806374fc183214610ba557806375829def14610b275780637691c4ac14610b025780637cc1f86714610aa957806396e85ced1461089a578063b4bbec5314610834578063c4bc5da5146107bc578063cbd732fe14610769578063cf61032314610706578063deb3566c14610461578063df835cc014610280578063ea8d937714610262578063eeb9ef621461021f5763f851a440146101f6575061000e565b3461021c578060031936011261021c57546040516001600160a01b039091168152602090f35b80fd5b503461021c57602036600319011261021c5760409081906001600160a01b036102466117bb565b1681526004602052206001815491015482519182526020820152f35b503461021c578060031936011261021c576020604051620151808152f35b503461021c578060031936011261021c578060405161029e8161187a565b600392838252602092838301606036823783511561044b5773a0b86991c6218b36c1d19d4a2e9eb0ce3606eb48905282519460019586101561044b5773dac17f958d2ee523a2206206994597c13d831ec7604085015283519360029485101561044b578360608298969801526103148151612118565b9684865b6103ac575b5050505061032a81612118565b94825b828110610379575050506040519280840190808552855180925280604086019601925b82811061035d5785870386f35b83516001600160a01b0316875295810195928101928401610350565b9395936103a4906001600160a01b03610392828561214a565b511661039e828861214a565b52611d79565b95939561032d565b9082918799979351811015610442576001600160a01b03806103ce838661214a565b51168852858a526040882060ff84820154169081610427575b50610401575b506103f790611d79565b9091929698610318565b8196610420916104146103f7948761214a565b511661039e828c61214a565b95906103ed565b905086610438600483015442611c39565b91015410386103e7565b5097959761031d565b634e487b7160e01b600052603260045260246000fd5b503461021c57602036600319011261021c5760043567ffffffffffffffff811161070257610493903690600401611a15565b9033835260056020526104ac60ff604085205416611d21565b825b8281106104b9578380f35b6001600160a01b0390816104d66104d1838787611d88565b611d98565b168552600380602052600260ff8160408920015416610501575b50506104fc9150611d79565b6104ae565b61050f6104d1848888611d88565b91338852600560205261052860ff60408a205416611d21565b8483168852602052604087209061054460ff8284015416611bf6565b81549460405193633fabe5a360e21b855260a085600481858b165afa80156106f7578a978b968c9261069a575b508b8713156106655760048601548211156106335760047fb556fac599c3c70efb9ab1fa725ecace6c81cc48d1455f886607def065f3e0c0968d84936104fc9c6040998a516105bf8161187a565b8d8152602081018881528c808301966001600160501b03809616885260ff606085019760a01c1687528d8d1681528960205220915182555160018201550192511682549160ff60501b905160501b16916001600160581b031916171790550155835195865260208601521692a238806104f0565b60405162461bcd60e51b815260206004820152600a6024820152695374616c65206461746160b01b6044820152606490fd5b60405162461bcd60e51b815260206004820152600d60248201526c496e76616c696420707269636560981b6044820152606490fd5b965097505060a0853d60a0116106ef575b816106b860a093836118b2565b810103126106eb576106c985611d65565b966020860151976106e1608060608901519801611d65565b5097959038610571565b8980fd5b3d91506106ab565b6040513d8c823e3d90fd5b5080fd5b503461021c5761075a610718366117e7565b60065490916001600160a01b039182163314801561075d575b61073a90611dac565b1683526003602052600260408420019060ff801983541691151516179055565b80f35b50845482163314610731565b503461021c57602036600319011261021c576107836117bb565b81546001600160a01b0391906107a5908316331461079f611a46565b90611a6b565b166001600160601b0360a01b600654161760065580f35b503461021c578060031936011261021c578060018060a01b036107e681835416331461079f611a46565b60025416803b156108315781809160046040518094819363157c51d360e01b83525af18015610826576108165750f35b61081f90611850565b61021c5780f35b6040513d84823e3d90fd5b50fd5b503461021c57602036600319011261021c576080906040906001600160a01b0361085c6117bb565b16815260046020522060ff815491600260018201549101549060405193845260208401526001600160501b038116604084015260501c166060820152f35b503461021c576020806003193601126107025760046108b76117bb565b338452600583526108ce60ff604086205416611d21565b6001600160a01b03908116808552600384526040852060028101549194916108f89060ff16611bf6565b60a081549360405195868092633fabe5a360e21b825287165afa928315610a9e57869187958895610a42575b5087861315610a0d576004019182548511156109db57938092877fb556fac599c3c70efb9ab1fa725ecace6c81cc48d1455f886607def065f3e0c0979593604097600289516109728161187a565b8981528d8b89830191898352818401976001600160501b03809716895260ff606086019860a01c168852815260048b5220915182555160018201550192511682549160ff60501b905160501b16916001600160581b03191617179055558351928352820152a280f35b60405162461bcd60e51b815260048101859052600a6024820152695374616c65206461746160b01b6044820152606490fd5b60405162461bcd60e51b815260048101859052600d60248201526c496e76616c696420707269636560981b6044820152606490fd5b95509350905060a0843d8211610a96575b81610a6060a093836118b2565b81010312610a9257610a7184611d65565b908285015191610a88608060608801519701611d65565b5091949338610924565b8580fd5b3d9150610a53565b6040513d88823e3d90fd5b503461021c578060031936011261021c575460025460015460a0926001600160a01b039283169160ff9190610adc611b55565b93604051958316865260208601526040850152841c161515606083015215156080820152f35b503461021c578060031936011261021c576020610b1d611b55565b6040519015158152f35b503461021c57602036600319011261021c57610b416117bb565b8154906001600160a01b0380831691610b63610b5b611a46565b843314611a6b565b610b6c8161219a565b1680926001600160601b0360a01b161783557f7e644d79422f17c01e4894b5f4f588d331ebfa28653d42ae832dc59e38c9798f8380a380f35b503461021c57606036600319011261021c57610bbf6117bb565b602435906001600160a01b03906044358281169190828103610cd35783610bee8795865416331461079f611a46565b610bfe610bf9611b55565b611bb6565b8216610c315750508180938192828215610c28575bf115610c1c5780f35b604051903d90823e3d90fd5b506108fc610c13565b60405163a9059cbb60e01b602082019081526001600160a01b0392909216602482015260448082019690965294855261075a948493508390610c746064826118b2565b51925af13d15610cce573d610c88816119c2565b90610c9660405192836118b2565b81528360203d92013e5b60405190610cad82611896565b600f82526e151c985b9cd9995c8819985a5b1959608a1b6020830152611a6b565b610ca0565b600080fd5b503461021c57604036600319011261021c576305f5e100610d35602092610d3060ff60026040610d066117bb565b94610d1086611c5c565b6001600160a01b0390961681526004895220015460501c166024356120ba565b61201d565b04604051908152f35b503461021c57602036600319011261021c5760209060ff906040906001600160a01b03610d696117bb565b168152600584522054166040519015158152f35b503461021c57604036600319011261021c57806020610dd8610d9d6117bb565b600254604051635d65ad6760e01b81526001600160a01b03928316600482015260248035908201529485939190921691839182906044820190565b03925af1908115610826578291610df5575b602082604051908152f35b90506020813d8211610e22575b81610e0f602093836118b2565b8101031261070257602091505138610dea565b3d9150610e02565b503461021c578060031936011261021c576006546040516001600160a01b039091168152602090f35b503461021c578060031936011261021c576020600154604051908152f35b503461021c57608036600319011261021c5767ffffffffffffffff60043581811161100557610ea4903690600401611a15565b9160248035828111610a9257610ebe903690600401611a15565b92909460443582811161100157610ed9903690600401611a15565b6064949194358481116106eb57610ef4903690600401611a15565b969093610f1660018060a01b0380600654163314908115610ff4575b50611dac565b610f2182821461215e565b610f2c83821461215e565b610f3788821461215e565b8a5b818110610f44578b80f35b80610f646104d182868f958f610f5e91896104d192611d88565b95611d88565b610f6f82878c611d88565b359260ff84168403610ff0578b831015610fdd578260051b890135601e198a360301811215610fd9578901938435948b8611610fd457602001928536038413610fd457610fc4610fca94610fcf9736916119de565b92611dea565b611d79565b610f39565b508f80fd5b8f80fd5b634e487b7160e01b8f526032600452878ffd5b8e80fd5b90508c5416331438610f10565b8780fd5b8280fd5b503461021c57606036600319011261021c576110236117bb565b7fb556fac599c3c70efb9ab1fa725ecace6c81cc48d1455f886607def065f3e0c060406024356044359360018060a01b039081600654163314801561110b575b61106c90611dac565b611077610bf9611b55565b1693848652600360205260ff8387205460a01c168351906110978261187a565b8382526001600160501b0360026020840193858552878101948b8652606082019485528a8c526004602052888c20915182555160018201550192511682549160ff60501b905160501b16916001600160581b031916171790556003602052806004848820015582519182526020820152a280f35b50865482163314611063565b503461021c578060031936011261021c57600254604051633e8dc9cf60e21b815291908190839060049082906001600160a01b03165afa80156111e057818093819082936111ae575b5084019081851161119a57509061119691604051948594151585526020850152604084015260806060840152608083019061199d565b0390f35b634e487b7160e01b81526011600452602490fd5b92505092506111cf91503d8084833e6111c781836118b2565b810190611aa8565b509450959250939050929338611160565b50604051903d90823e3d90fd5b503461021c578060031936011261021c578060018060a01b0361121781835416331461079f611a46565b60025416803b1561083157819060e4604051809481936334cc128960e21b835260016004840152600160248401526001604484015262278d00606484015260a06084840152600b60a48401526a41646d696e20706175736560a81b60c48401525af1801561082657611287575080f35b61075a90611850565b503461021c57602036600319011261021c5760206112b46112af6117bb565b611c5c565b604051908152f35b503461021c57602036600319011261021c577f730abf329076f769aacddade69fbe7ca672a3c95fc1b7728ecf7b8f8cb705ed0604060043561130b60018060a01b03855416331461079f611a46565b600154908060015582519182526020820152a180f35b503461021c57602036600319011261021c577f62fb284f5d1a9d326f25d6900267a8cb39113f8484b351a73c1ada4014c66864604061135e6117bb565b83546001600160a01b0390611379908216331461079f611a46565b6113828261219a565b80600254921690816001600160601b0360a01b8416176002558351921682526020820152a180f35b503461021c57604036600319011261021c576113c46117bb565b600654602435916001600160a01b0391821633148015611452575b6113e890611dac565b61012c83101580611445575b1561140c571682526003602052600360408320015580f35b60405162461bcd60e51b8152602060048201526011602482015270125b9d985b1a59081a19585c9d1899585d607a1b6044820152606490fd5b50620151808311156113f4565b508354821633146113df565b503461021c57608036600319011261021c576114786117bb565b6114806117d1565b9060443560ff811681036114f8576064359267ffffffffffffffff84116114f457366023850112156114f4576114c361075a9436906024816004013591016119de565b926114e260018060a01b03806006541633149081156114e75750611dac565b611dea565b9050875416331438610f10565b8480fd5b8380fd5b503461021c578060031936011261021c576002546040516001600160a01b039091168152602090f35b503461021c578060031936011261021c57602060405161012c8152f35b503461021c57602036600319011261021c576001600160a01b03806115656117bb565b168252600360205260408083209260046020522082549260ff6002820154169160038201546115c66115a060016004860154945495016118d4565b60ff6040519889988116895260a01c16602088015260e0604088015260e087019061199d565b9315156060860152608085015260a084015260c08301520390f35b503461021c57602036600319011261021c576001600160a01b0390604090826116086117bb565b16815260036020522090815491611621600182016118d4565b60ff6002830154169161165e600460038301549201549260ff6040519788978116885260a01c16602087015260c0604087015260c086019061199d565b9215156060850152608084015260a08301520390f35b503461021c57606036600319011261021c576112b46020916116ff6116976117bb565b916116f96116a36117d1565b9360ff6116ee81600260406116b786611c5c565b976116c18b611c5c565b6001600160a01b03978816825260048e528282208401549b90971681522001549760501c16604435612061565b9560501c1690612061565b9261201d565b612030565b503461021c578060031936011261021c5760ff6020915460a01c166040519015158152f35b503461021c577f82a8fb1e779ea45ad427cc612e47087f5386a567e49dce488185e40646fa48d5604061175b366117e7565b60065490916001600160a01b03918216331480156117af575b61177d90611dac565b1690818552600560205261179f818487209060ff801983541691151516179055565b825191825215156020820152a180f35b50855482163314611774565b600435906001600160a01b0382168203610cd357565b602435906001600160a01b0382168203610cd357565b6040906003190112610cd3576004356001600160a01b0381168103610cd357906024358015158103610cd35790565b90600182811c92168015611846575b602083101461183057565b634e487b7160e01b600052602260045260246000fd5b91607f1691611825565b67ffffffffffffffff811161186457604052565b634e487b7160e01b600052604160045260246000fd5b6080810190811067ffffffffffffffff82111761186457604052565b6040810190811067ffffffffffffffff82111761186457604052565b90601f8019910116810190811067ffffffffffffffff82111761186457604052565b90604051918260008254926118e884611816565b9081845260019485811690816000146119575750600114611914575b5050611912925003836118b2565b565b9093915060005260209081600020936000915b81831061193f57505061191293508201013880611904565b85548884018501529485019487945091830191611927565b91505061191294506020925060ff191682840152151560051b8201013880611904565b60005b83811061198d5750506000910152565b818101518382015260200161197d565b906020916119b68151809281855285808601910161197a565b601f01601f1916010190565b67ffffffffffffffff811161186457601f01601f191660200190565b9291926119ea826119c2565b916119f860405193846118b2565b829481845281830111610cd3578281602093846000960137010152565b9181601f84011215610cd35782359167ffffffffffffffff8311610cd3576020808501948460051b010111610cd357565b60405190611a5382611896565b60098252682737ba1030b236b4b760b91b6020830152565b15611a735750565b60405162461bcd60e51b815260206004820152908190611a9790602483019061199d565b0390fd5b51908115158203610cd357565b919061010083820312610cd357611abe83611a9b565b92611acb60208201611a9b565b92611ad860408301611a9b565b92611ae560608401611a9b565b9260808101519260a08201519260c083015167ffffffffffffffff8111610cd35783019080601f83011215610cd357815191611b20836119c2565b91611b2e60405193846118b2565b83835260208483010111610cd35760e092611b4f916020808501910161197a565b92015190565b600254604051633e8dc9cf60e21b815290600090829060049082906001600160a01b03165afa908115611baa57600091611b8d575090565b611ba0913d8091833e6111c781836118b2565b5050505050505090565b6040513d6000823e3d90fd5b15611bbd57565b60405162461bcd60e51b815260206004820152601160248201527014de5cdd195b481b9bdd081c185d5cd959607a1b6044820152606490fd5b15611bfd57565b60405162461bcd60e51b8152602060048201526014602482015273151bdad95b881b9bdd0818dbdb999a59dd5c995960621b6044820152606490fd5b91908203918211611c4657565b634e487b7160e01b600052601160045260246000fd5b6001600160a01b031660008181526003602052604090206002810154611c849060ff16611bf6565b60048101548015611cec57611c9b60039142611c39565b91015410611cb457600052600460205260406000205490565b60405162461bcd60e51b815260206004820152601060248201526f50726963652064617461207374616c6560801b6044820152606490fd5b60405162461bcd60e51b815260206004820152600d60248201526c4e6f207072696365206461746160981b6044820152606490fd5b15611d2857565b60405162461bcd60e51b81526020600482015260156024820152744e6f7420617574686f72697a6564206f7261636c6560581b6044820152606490fd5b51906001600160501b0382168203610cd357565b6000198114611c465760010190565b919081101561044b5760051b0190565b356001600160a01b0381168103610cd35790565b15611db357565b60405162461bcd60e51b815260206004820152600f60248201526e2737ba10383934b1b29030b236b4b760891b6044820152606490fd5b9092604092835160c081019167ffffffffffffffff928281108482111761186457865260018060a01b038097169485835260209360ff858501931695868452888501908152606085019160018084526080870194610e10865260a08801968d600092838a52169d8e835260038b528d832099511689549160ff60a01b905160a01b16916001600160581b0360a81b16171788558188019351805193841161200957611e958554611816565b601f8111611fc3575b508991601f8511600114611f325793807f1b16b8aec0dc26874ef3e5f163f82986b30b14a2ce90617b8c7a0184465049159e9d9c9b9a99979460049997948294611f129894611f27575b50501b916000199060031b1c19161790555b511515600286019060ff801983541691151516179055565b516003840155519101558351928352820152a2565b015192503880611ee8565b9190601f9493941984168684528b8420935b818110611fae575092611f1295927f1b16b8aec0dc26874ef3e5f163f82986b30b14a2ce90617b8c7a0184465049159f9e9d9c9b9a9895928360049b999610611f95575b505050811b019055611efa565b015160001960f88460031b161c19169055388080611f88565b82840151855593860193928c01928c01611f44565b8583528a8320601f860160051c8101918c8710611fff575b601f0160051c019084905b828110611ff4575050611e9e565b848155018490611fe6565b9091508190611fdb565b634e487b7160e01b82526041600452602482fd5b81810292918115918404141715611c4657565b811561203a570490565b634e487b7160e01b600052601260045260246000fd5b60ff16604d8111611c4657600a0a90565b9060ff16601281146120b657601281111561209857601119019060ff8211611c465761208f61209592612050565b90612030565b90565b6012039060ff8211611c46576120b061209592612050565b9061201d565b5090565b9060ff16600881146120b65760088111156120e857600719019060ff8211611c465761208f61209592612050565b6008039060ff8211611c46576120b061209592612050565b67ffffffffffffffff81116118645760051b60200190565b9061212282612100565b61212f60405191826118b2565b8281528092612140601f1991612100565b0190602036910137565b805182101561044b5760209160051b010190565b1561216557565b60405162461bcd60e51b815260206004820152600d60248201526c125b9d985b1a59081a5b9c1d5d609a1b6044820152606490fd5b604051611912916121aa82611896565b600f82526e496e76616c6964206164647265737360881b60208301526001600160a01b03161515611a6b56fea26469706673582212207e751f897baa68d00f3ae1a7b5a979acd7e226cb6e9e40da587e3b3dcb401d5164736f6c634300081300331b16b8aec0dc26874ef3e5f163f82986b30b14a2ce90617b8c7a018446504915",
  "linkReferences": {},
  "deployedLinkReferences": {}
}