{
  "_format": "hh-sol-artifact-1",
  "contractName": "RentChainV2",
  "sourceName": "contracts/RentChainV2.sol",
  "abi": [
    {
      "inputs": [],
      "stateMutability": "nonpayable",
      "type": "constructor"
    },
    {
      "anonymous": false,
      "inputs": [
        {
          "indexed": false,
          "internalType": "uint256",
          "name": "totalDistributed",
          "type": "uint256"
        }
      ],
      "name": "PlatformFeeDistributed",
      "type": "event"
    },
    {
      "anonymous": false,
      "inputs": [
        {
          "indexed": true,
          "internalType": "address",
          "name": "user",
          "type": "address"
        },
        {
          "indexed": false,
          "internalType": "uint256",
          "name": "feePaid",
          "type": "uint256"
        }
      ],
      "name": "PremiumUserUpgraded",
      "type": "event"
    },
    {
      "anonymous": false,
      "inputs": [
        {
          "indexed": true,
          "internalType": "address",
          "name": "user",
          "type": "address"
        },
        {
          "indexed": false,
          "internalType": "uint256",
          "name": "amount",
          "type": "uint256"
        }
      ],
      "name": "RewardClaimed",
      "type": "event"
    },
    {
      "anonymous": false,
      "inputs": [
        {
          "indexed": true,
          "internalType": "address",
          "name": "initiator",
          "type": "address"
        }
      ],
      "name": "SystemInitialized",
      "type": "event"
    },
    {
      "inputs": [],
      "name": "admin",
      "outputs": [
        {
          "internalType": "address",
          "name": "",
          "type": "address"
        }
      ],
      "stateMutability": "view",
      "type": "function"
    },
    {
      "inputs": [],
      "name": "claimRewards",
      "outputs": [],
      "stateMutability": "nonpayable",
      "type": "function"
    },
    {
      "inputs": [
        {
          "internalType": "uint256",
          "name": "propertyId",
          "type": "uint256"
        },
        {
          "internalType": "address",
          "name": "tenant",
          "type": "address"
        },
        {
          "internalType": "uint256",
          "name": "rentAmount",
          "type": "uint256"
        },
        {
          "internalType": "uint256",
          "name": "securityDeposit",
          "type": "uint256"
        },
        {
          "internalType": "uint256",
          "name": "startDate",
          "type": "uint256"
        },
        {
          "internalType": "uint256",
          "name": "endDate",
          "type": "uint256"
        },
        {
          "internalType": "address",
          "name": "paymentToken",
          "type": "address"
        },
        {
          "internalType": "uint256",
          "name": "insuranceCoverage",
          "type": "uint256"
        }
      ],
      "name": "createRentalWithInsurance",
      "outputs": [
        {
          "internalType": "uint256",
          "name": "agreementId",
          "type": "uint256"
        },
        {
          "internalType": "uint256",
          "name": "policyId",
          "type": "uint256"
        }
      ],
      "stateMutability": "nonpayable",
      "type": "function"
    },
    {
      "inputs": [],
      "name": "disputeResolution",
      "outputs": [
        {
          "internalType": "contract DisputeResolution",
          "name": "",
          "type": "address"
        }
      ],
      "stateMutability": "view",
      "type": "function"
    },
    {
      "inputs": [],
      "name": "distributePlatformFees",
      "outputs": [],
      "stateMutability": "nonpayable",
      "type": "function"
    },
    {
      "inputs": [],
      "name": "emergencyPause",
      "outputs": [],
      "stateMutability": "nonpayable",
      "type": "function"
    },
    {
      "inputs": [],
      "name": "emergencyResume",
      "outputs": [],
      "stateMutability": "nonpayable",
      "type": "function"
    },
    {
      "inputs": [],
      "name": "escrowManager",
      "outputs": [
        {
          "internalType": "contract EscrowManager",
          "name": "",
          "type": "address"
        }
      ],
      "stateMutability": "view",
      "type": "function"
    },
    {
      "inputs": [],
      "name": "getSystemStats",
      "outputs": [
        {
          "internalType": "uint256",
          "name": "totalProperties",
          "type": "uint256"
        },
        {
          "internalType": "uint256",
          "name": "totalAgreements",
          "type": "uint256"
        },
        {
          "internalType": "uint256",
          "name": "totalUsers",
          "type": "uint256"
        },
        {
          "internalType": "uint256",
          "name": "totalStaked",
          "type": "uint256"
        },
        {
          "internalType": "uint256",
          "name": "totalInsurancePolicies",
          "type": "uint256"
        },
        {
          "internalType": "uint256",
          "name": "totalRewardsDistributed",
          "type": "uint256"
        }
      ],
      "stateMutability": "view",
      "type": "function"
    },
    {
      "inputs": [
        {
          "internalType": "address",
          "name": "user",
          "type": "address"
        }
      ],
      "name": "getUserStats",
      "outputs": [
        {
          "internalType": "uint256",
          "name": "propertyCount",
          "type": "uint256"
        },
        {
          "internalType": "uint256",
          "name": "agreementCount",
          "type": "uint256"
        },
        {
          "internalType": "uint256",
          "name": "totalStaked",
          "type": "uint256"
        },
        {
          "internalType": "uint256",
          "name": "pendingRewards",
          "type": "uint256"
        },
        {
          "internalType": "uint256",
          "name": "userRating",
          "type": "uint256"
        },
        {
          "internalType": "bool",
          "name": "isPremium",
          "type": "bool"
        }
      ],
      "stateMutability": "view",
      "type": "function"
    },
    {
      "inputs": [
        {
          "internalType": "address",
          "name": "_propertyRegistry",
          "type": "address"
        },
        {
          "internalType": "address",
          "name": "_rentAgreement",
          "type": "address"
        },
        {
          "internalType": "address",
          "name": "_escrowManager",
          "type": "address"
        },
        {
          "internalType": "address",
          "name": "_paymentProcessor",
          "type": "address"
        },
        {
          "internalType": "address",
          "name": "_userRegistry",
          "type": "address"
        },
        {
          "internalType": "address",
          "name": "_disputeResolution",
          "type": "address"
        },
        {
          "internalType": "address",
          "name": "_reviewSystem",
          "type": "address"
        },
        {
          "internalType": "address",
          "name": "_rentToken",
          "type": "address"
        }
      ],
      "name": "initializeSystem",
      "outputs": [],
      "stateMutability": "nonpayable",
      "type": "function"
    },
    {
      "inputs": [],
      "name": "initialized",
      "outputs": [
        {
          "internalType": "bool",
          "name": "",
          "type": "bool"
        }
      ],
      "stateMutability": "view",
      "type": "function"
    },
    {
      "inputs": [],
      "name": "paymentProcessor",
      "outputs": [
        {
          "internalType": "contract PaymentProcessor",
          "name": "",
          "type": "address"
        }
      ],
      "stateMutability": "view",
      "type": "function"
    },
    {
      "inputs": [],
      "name": "platformFee",
      "outputs": [
        {
          "internalType": "uint256",
          "name": "",
          "type": "uint256"
        }
      ],
      "stateMutability": "view",
      "type": "function"
    },
    {
      "inputs": [
        {
          "internalType": "address",
          "name": "",
          "type": "address"
        }
      ],
      "name": "premiumUsers",
      "outputs": [
        {
          "internalType": "bool",
          "name": "",
          "type": "bool"
        }
      ],
      "stateMutability": "view",
      "type": "function"
    },
    {
      "inputs": [],
      "name": "propertyRegistry",
      "outputs": [
        {
          "internalType": "contract PropertyRegistry",
          "name": "",
          "type": "address"
        }
      ],
      "stateMutability": "view",
      "type": "function"
    },
    {
      "inputs": [
        {
          "internalType": "string",
          "name": "title",
          "type": "string"
        },
        {
          "internalType": "uint256",
          "name": "price",
          "type": "uint256"
        },
        {
          "internalType": "string",
          "name": "location",
          "type": "string"
        },
        {
          "internalType": "string",
          "name": "ipfsHash",
          "type": "string"
        }
      ],
      "name": "registerPropertyWithReward",
      "outputs": [
        {
          "internalType": "uint256",
          "name": "",
          "type": "uint256"
        }
      ],
      "stateMutability": "nonpayable",
      "type": "function"
    },
    {
      "inputs": [],
      "name": "rentAgreement",
      "outputs": [
        {
          "internalType": "contract RentAgreement",
          "name": "",
          "type": "address"
        }
      ],
      "stateMutability": "view",
      "type": "function"
    },
    {
      "inputs": [],
      "name": "rentToken",
      "outputs": [
        {
          "internalType": "contract RentChainToken",
          "name": "",
          "type": "address"
        }
      ],
      "stateMutability": "view",
      "type": "function"
    },
    {
      "inputs": [],
      "name": "rentalInsurance",
      "outputs": [
        {
          "internalType": "contract RentalInsurance",
          "name": "",
          "type": "address"
        }
      ],
      "stateMutability": "view",
      "type": "function"
    },
    {
      "inputs": [],
      "name": "reviewSystem",
      "outputs": [
        {
          "internalType": "contract ReviewSystem",
          "name": "",
          "type": "address"
        }
      ],
      "stateMutability": "view",
      "type": "function"
    },
    {
      "inputs": [
        {
          "internalType": "uint256",
          "name": "newFee",
          "type": "uint256"
        }
      ],
      "name": "setPlatformFee",
      "outputs": [],
      "stateMutability": "nonpayable",
      "type": "function"
    },
    {
      "inputs": [
        {
          "internalType": "uint256",
          "name": "amount",
          "type": "uint256"
        }
      ],
      "name": "stakeTokens",
      "outputs": [],
      "stateMutability": "nonpayable",
      "type": "function"
    },
    {
      "inputs": [],
      "name": "stakingRewards",
      "outputs": [
        {
          "internalType": "contract StakingRewards",
          "name": "",
          "type": "address"
        }
      ],
      "stateMutability": "view",
      "type": "function"
    },
    {
      "inputs": [],
      "name": "upgradeToPremium",
      "outputs": [],
      "stateMutability": "nonpayable",
      "type": "function"
    },
    {
      "inputs": [],
      "name": "userRegistry",
      "outputs": [
        {
          "internalType": "contract UserRegistry",
          "name": "",
          "type": "address"
        }
      ],
      "stateMutability": "view",
      "type": "function"
    },
    {
      "inputs": [
        {
          "internalType": "address",
          "name": "",
          "type": "address"
        }
      ],
      "name": "userRewards",
      "outputs": [
        {
          "internalType": "uint256",
          "name": "",
          "type": "uint256"
        }
      ],
      "stateMutability": "view",
      "type": "function"
    }
  ],
  "bytecode": "0x6080806040523461002d57600a80546001600160a01b031916331790556019600b55613b2290816100338239f35b600080fdfe60806040818152600491823610156200001757600080fd5b600092833560e01c9182630660f1e8146200185e5750816312e8e2c314620017ec578163158ef93e14620017c657816326232a2e14620017a557816326b703a7146200177b57816331a3e8fa14620014e8578163372500ab14620013c55781634e43603a14620010b357816351858e27146200107c5781635c7460d61462001052578163641f5d11146200102757816364b87a701462000ffc578382637547c7a31462000edc5750816379e710061462000b3a578163886e10441462000b0f57816392d76cb61462000ae457816393c87f031462000aaa578163a77db54f1462000a7f578163be9157cf1462000a54578163c12255c41462000a29578163c8e89ec014620007c9578163d1ce59a714620005c0578163d36f4a271462000448578163d7f1ecf5146200020457508063e2b2d48214620001c3578063f1c6bdf814620001995763f851a440146200016c57600080fd5b346200019557816003193601126200019557600a5490516001600160a01b039091168152602090f35b5080fd5b5034620001955781600319360112620001955760035490516001600160a01b039091168152602090f35b503462000195576020366003190112620001955760209160ff9082906001600160a01b03620001f162001896565b168152600e855220541690519015158152f35b83915034620001955761010036600319011262000195576200022562001896565b9262000230620018ad565b6001600160a01b0360443581811696919492908790036200044357606435858116809103620004435760843590868216809203620004435760a43598878a16809a03620004435762000281620018c4565b9360e435958987168097036200044357620002a28a600a5416331462001970565b60ff600c54166200040a5791898b9c9492819c829897956bffffffffffffffffffffffff60a01b9e8f911690825416179055168b60015416176001558a6002541617600255896003541617600355888654161785558760055416176005551685600654161760065580856007541617600755825190610cb69182810167ffffffffffffffff9382821085831117620003f7578691839162002e37833984815284602082015203019088f08015620003ed5785168660085416176008558351926112f5908185019385851090851117620003da575091839160209362001b428439815203019085f0908115620003d1575016906009541617600955600160ff19600c541617600c55337f6bc0723562497c91d6cc15ca8a46b9cef65f8d2575c8dc4f89eefa2d8e0eb87b8280a280f35b513d85823e3d90fd5b634e487b7160e01b895260419052602488fd5b84513d89823e3d90fd5b634e487b7160e01b8a526041865260248afd5b885162461bcd60e51b81526020818a01526013602482015272105b1c9958591e481a5b9a5d1a585b1a5e9959606a1b6044820152606490fd5b600080fd5b91905034620005bc5782600319360112620005bc576200046d60ff600c5416620019a9565b338352602090600e825260ff8185205416620005895760018060a01b03600754169281516323b872dd60e01b8152338282015230602482015283816064818968056bc75e2d63100000998a60448401525af19081156200057f5786916200054b575b5015620005195750907feb220a343cd9923c4e09a5275f5b2c60c318a3549832373a1ea013718b3efbdd91338552600e8252808520600160ff19825416179055519283523392a280f35b82606492519162461bcd60e51b8352820152600e60248201526d14185e5b595b9d0819985a5b195960921b6044820152fd5b620005709150843d861162000577575b620005678183620018db565b810190620019ef565b38620004cf565b503d6200055b565b83513d88823e3d90fd5b5162461bcd60e51b815291820152600f60248201526e416c7265616479207072656d69756d60881b604482015260649150fd5b8280fd5b828434620007c65780600319360112620007c657620005e460ff600c5416620019a9565b80548251630e5403cd60e21b815292906020906001600160a01b0390829086908890829085165afa948515620007b9579086939291859662000780575b5081816001541684519889809263c9b99dab60e01b82525afa968715620007765785976200073b575b50908181859493600854168451958680926340bd8e6960e11b82525afa9384156200057f57869462000706575b50600954835163cad0b8db60e01b815295839287928391165afa938415620006fc578594620006c4575b509060c096859282519788528701528501526060840152608083015260a0820152f35b919080945082813d8311620006f4575b620006e08183620018db565b81010312620004435790519260c0620006a1565b503d620006d4565b82513d87823e3d90fd5b9093508181813d831162000733575b620007218183620018db565b81010312620004435751928162000677565b503d62000715565b92918091975083813d83116200076e575b620007588183620018db565b810103126200044357839251969091926200064a565b503d6200074c565b83513d87823e3d90fd5b82809297508195503d8311620007b1575b6200079d8183620018db565b810103126200044357859251948762000621565b503d62000791565b50505051903d90823e3d90fd5b80fd5b91905034620005bc576003199160803684011262000a255767ffffffffffffffff938135858111620001955762000804903690840162001914565b94604435818111620005bc576200081f903690850162001914565b90606435908111620005bc576200083a903690850162001914565b946200084b60ff600c5416620019a9565b8354855163056720bf60e51b81523381870152602098602494909290916001600160a01b03918b9082908890829086165afa90811562000a1b578791620009f9575b5015620009c35790858a9493928154169289519a8b958694859363017e5acd60e31b85528c85016080905260848501620008c79162001a09565b8a358b86015282858203016044860152620008e29162001a09565b90838203016064840152620008f79162001a09565b03925af1948515620009b957829562000984575b50338252600e86528382205460ff16156200095c57338252600d865283822091825493678ac7230489e8000085018095116200094c57505050555b51908152f35b634e487b7160e01b825260119052fd5b600d865283822091825493674563918244f4000085018095116200094c575050505562000946565b9094508581813d8311620009b1575b6200099f8183620018db565b8101031262000443575193386200090b565b503d62000993565b84513d84823e3d90fd5b875162461bcd60e51b81528088018b905260118187015270155cd95c881b9bdd081d995c9a599a5959607a1b6044820152606490fd5b62000a1491508b3d8d116200057757620005678183620018db565b386200088d565b89513d89823e3d90fd5b8380fd5b505034620001955781600319360112620001955760025490516001600160a01b039091168152602090f35b505034620001955781600319360112620001955760055490516001600160a01b039091168152602090f35b505034620001955781600319360112620001955760075490516001600160a01b039091168152602090f35b8334620007c65780600319360112620007c65762000ad460018060a01b03600a5416331462001970565b600160ff19600c541617600c5580f35b505034620001955781600319360112620001955760065490516001600160a01b039091168152602090f35b505034620001955781600319360112620001955760015490516001600160a01b039091168152602090f35b905034620005bc5782600319360112620005bc57600a546001600160a01b039062000b69908216331462001970565b62000b7960ff600c5416620019a9565b80600754168351916370a0823160e01b835230848401526020938484602481865afa93841562000ed257879462000e9d575b50831562000e62576028840284810460280362000e4f576064900491601e8502858104601e0362000e3c57606490046014860286810460140362000e295789929160648492049089828262000c018a8d62001aae565b9062000c0d9162001aae565b9062000c199162001aae565b6008548d5163a9059cbb60e01b8082529188166001600160a01b03168a8201908152602081019b909b52919a909991958692839190829060400103925af190811562000e1f5762000ca2938b9262000dfd575b5084600754168c878a886009541692519788958694859384528d840160209093929193604081019460018060a01b031681520152565b03925af190811562000df35762000cef928a9262000dd1575b50836007541684600a5416868d518096819582948d84528c840160209093929193604081019460018060a01b031681520152565b03925af1801562000dc757918895939162000d3c9a97959362000da5575b5060075416928651998a958694859384523090840160209093929193604081019460018060a01b031681520152565b03925af193841562000d9b577f9ce5f0efee94d04914dc7e1d8c5110f678ee6c09078f9725c91018cedfdf8e4f9462000d79575b5051908152a180f35b62000d9390843d86116200057757620005678183620018db565b503862000d70565b81513d87823e3d90fd5b62000dbf90873d89116200057757620005678183620018db565b503862000d0d565b89513d85823e3d90fd5b62000deb90833d85116200057757620005678183620018db565b503862000cbb565b8a513d86823e3d90fd5b62000e1790833d85116200057757620005678183620018db565b503862000c6c565b8b513d87823e3d90fd5b634e487b7160e01b8a526011845260248afd5b634e487b7160e01b895260118352602489fd5b634e487b7160e01b885260118252602488fd5b855162461bcd60e51b815290810185905260156024820152744e6f206665657320746f206469737472696275746560581b6044820152606490fd5b9093508481813d831162000eca575b62000eb88183620018db565b81010312620004435751923862000bab565b503d62000eac565b86513d89823e3d90fd5b9291503462000ff857602036600319011262000ff857803562000f0460ff600c5416620019a9565b60018060a01b03846020826007541660648460085416885194859384926323b872dd60e01b8452338b85015260248401528860448401525af190811562000fee579062000f5a91879162000fcb575b5062001a6f565b60085416803b1562000fc757602485928551968793849263534a7e1d60e11b8452878401525af1801562000fbd5762000f91578380f35b67ffffffffffffffff831162000faa5750523880808380f35b634e487b7160e01b845260419052602483fd5b82513d86823e3d90fd5b8480fd5b62000fe7915060203d81116200057757620005678183620018db565b3862000f53565b85513d88823e3d90fd5b5050fd5b505034620001955781600319360112620001955760085490516001600160a01b039091168152602090f35b505034620001955781600319360112620001955760095490516001600160a01b039091168152602090f35b905034620005bc5782600319360112620005bc575490516001600160a01b03909116815260209150f35b8334620007c65780600319360112620007c657620010a660018060a01b03600a5416331462001970565b60ff19600c5416600c5580f35b905034620005bc576020908160031936011262000a2557620010d462001896565b92620010e560ff600c5416620019a9565b8454815163cb64489760e01b81526001600160a01b039586168482018190529592602492909190889082908590829088165afa908115620013bb5788916200139d575b5051958360015416888351632246d97b60e11b8152838882015281818781865afa908115620013935790829187939162001375575b505192855192838092638aed078d60e01b8252878c8301525afa9081156200136b57906200119792918b9162001344575b50519062001a4b565b9084600854169383519463c345315360e01b865282888701526080868381845afa9586156200133a578b96620012fd575b50828b52600d8952848b20548984848b895195869384926246613160e11b84528301525afa918c8315620012f257918593918c959392620012b0575b5090620012119162001a4b565b9760065416988651998a938492631cec614760e21b84528301525afa958615620012a65789966200126d575b50828960ff9260c09b52600e895220541695825197885287015285015260608401526080830152151560a0820152f35b9095508681813d83116200129e575b620012888183620018db565b810103126200129a575194826200123d565b8880fd5b503d6200127c565b83513d8b823e3d90fd5b94859194508092503d8311620012ea575b620012cd8183620018db565b81010312620012e6576200121184928b94519162001204565b8b80fd5b503d620012c1565b8751903d90823e3d90fd5b9095506080813d821162001331575b816200131b60809383620018db565b810103126200132d57519438620011c8565b8a80fd5b3d91506200130c565b85513d8d823e3d90fd5b6200136491503d808d833e6200135b8183620018db565b81019062001abc565b386200118e565b84513d8c823e3d90fd5b6200138c91503d8084833e6200135b8183620018db565b386200115d565b85513d84823e3d90fd5b620013b491503d808a833e6200135b8183620018db565b3862001128565b82513d8a823e3d90fd5b905034620005bc5782600319360112620005bc57620013e960ff600c5416620019a9565b3383526020600d815282842054918215620014b15733808652600d8352848620869055600754855163a9059cbb60e01b815292830191825260208201859052839183916001600160a01b03169082908990829060400103925af1908115620014a7577f106f923f993c2149d49b4255ff723acafa1f2d94393f561d3eda32ae348f7241939491620014829187916200148c575062001a6f565b519283523392a280f35b62000fe79150843d86116200057757620005678183620018db565b84513d87823e3d90fd5b60649184519162461bcd60e51b835282015260136024820152724e6f207265776172647320746f20636c61696d60681b6044820152fd5b905034620005bc57610100366003190112620005bc5762001508620018ad565b62001512620018c4565b9360e4356200152660ff600c5416620019a9565b8354855163056720bf60e51b81526001600160a01b039485168187018190529395602095879594919360249390889082908690829086165afa908115620017715787916200174f575b50156200171757868160e48b9c8983600154169d519d8e9485936387f98ca960e01b85528b358c8601528c8b86015260443560448601526064356064860152608435608486015260a43560a48601521660c48401525af19889156200170d578699620016d8575b5081620015ee575b5050505050508351928352820152f35b8597509060848792600997949596975416918b5194859384926306ac516d60e21b84528d8a8501528a8985015233604485015260648401525af1908115620016ce57869162001697575b5094338152600d8552878120938454671bc16d674ec80000958682018092116200168457558152600d85528781209283549485018095116200094c5750505055388080808080620015de565b5050634e487b7160e01b82525060118352fd5b90508481813d8311620016c6575b620016b18183620018db565b81010312620016c257513862001638565b8580fd5b503d620016a5565b88513d88823e3d90fd5b9098508681813d831162001705575b620016f38183620018db565b81010312620016c257519738620015d6565b503d620016e7565b8a513d88823e3d90fd5b885162461bcd60e51b81528085018890526013818501527215195b985b9d081b9bdd081d995c9a599a5959606a1b6044820152606490fd5b6200176a9150883d8a116200057757620005678183620018db565b386200156f565b8a513d89823e3d90fd5b5050346200019557816003193601126200019557905490516001600160a01b039091168152602090f35b5050346200019557816003193601126200019557602090600b549051908152f35b505034620001955781600319360112620001955760209060ff600c541690519015158152f35b905034620005bc576020366003190112620005bc578035916200181b60018060a01b03600a5416331462001970565b606483116200182c575050600b5580f35b906020606492519162461bcd60e51b8352820152600c60248201526b08ccaca40e8dede40d0d2ced60a31b6044820152fd5b84908434620005bc576020366003190112620005bc576020926001600160a01b036200188962001896565b168152600d845220548152f35b600435906001600160a01b03821682036200044357565b602435906001600160a01b03821682036200044357565b60c435906001600160a01b03821682036200044357565b90601f8019910116810190811067ffffffffffffffff821117620018fe57604052565b634e487b7160e01b600052604160045260246000fd5b81601f82011215620004435780359067ffffffffffffffff8211620018fe57604051926200194d601f8401601f191660200185620018db565b828452602083830101116200044357816000926020809301838601378301015290565b156200197857565b60405162461bcd60e51b81526020600482015260096024820152682737ba1030b236b4b760b91b6044820152606490fd5b15620019b157565b60405162461bcd60e51b815260206004820152601660248201527514de5cdd195b481b9bdd081a5b9a5d1a585b1a5e995960521b6044820152606490fd5b908160209103126200044357518015158103620004435790565b919082519283825260005b84811062001a36575050826000602080949584010152601f8019910116010190565b60208183018101518483018201520162001a14565b9190820180921162001a5957565b634e487b7160e01b600052601160045260246000fd5b1562001a7757565b60405162461bcd60e51b815260206004820152600f60248201526e151c985b9cd9995c8819985a5b1959608a1b6044820152606490fd5b9190820391821162001a5957565b9060209081838203126200044357825167ffffffffffffffff9384821162000443570181601f8201121562000443578051938411620018fe578360051b906040519462001b0c85840187620018db565b8552838086019282010192831162000443578301905b82821062001b31575050505090565b8151815290830190830162001b2256fe60803461008657601f6112f538819003918201601f19168301916001600160401b0383118484101761008b5780849260209460405283398101031261008657516001600160a01b038116908190036100865760018060a01b031990816003541617600355338160055416176005553390600454161760045560405161125390816100a28239f35b600080fd5b634e487b7160e01b600052604160045260246000fdfe608080604052600436101561001357600080fd5b60003560e01c90816306964de714610da95750806317a1f82814610c9e57806319ac461414610c175780631ab145b4146109a65780631cb27ba41461098a5780633013ce29146109615780633d36adc5146109095780634364b26e1461074557806346e30135146105f85780635e318e071461051a57806384ac35eb1461048c5780639efa0aa914610467578063a8e7410814610416578063b20e8bcc1461020a578063cad0b8db146101ec578063d3e894831461013c578063dbc837c5146101135763f851a440146100e557600080fd5b3461010e57600036600319011261010e576005546040516001600160a01b039091168152602090f35b600080fd5b3461010e57600036600319011261010e576004546040516001600160a01b039091168152602090f35b3461010e57602036600319011261010e576004356000526000602052610160604060002080549060ff60018060a01b03918260018201541692600282015416600382015460048301546005840154916006850154936008600787015496015497604051998a5260208a015260408901526060880152608087015260a086015260c0850152818116151560e0850152818160081c16151561010085015260101c161515610120830152610140820152f35b3461010e57600036600319011261010e576020600254604051908152f35b3461010e5760208060031936011261010e57600435908160005260008152604060002060018060a01b0380600183015416918233036103d85760078101805461025560ff82166110cd565b60ff8160081c166103a35760ff19169055600581015442039042821161038d57600301546201518061016d920482039082821161038d5781810291818304149015171561038d5704806102cb575b847fbb1ae509b65d9486a686f3f1b0435353031b5607109dc80aa4d063887e10f3e8600080a2005b60035460405163a9059cbb60e01b81526001600160a01b039490941660048501526024840191909152839183916044918391600091165af190811561038157600091610354575b5015610320578080806102a3565b6064906040519062461bcd60e51b82526004820152600d60248201526c1499599d5b990819985a5b1959609a1b6044820152fd5b6103749150823d841161037a575b61036c8183610fa4565b8101906110b5565b83610312565b503d610362565b6040513d6000823e3d90fd5b634e487b7160e01b600052601160045260246000fd5b60405162461bcd60e51b815260048101879052600d60248201526c436c61696d2070656e64696e6760981b6044820152606490fd5b60405162461bcd60e51b815260048101859052601660248201527513db9b1e481d195b985b9d0818d85b8818d85b98d95b60521b6044820152606490fd5b3461010e57602036600319011261010e5761042f611001565b6005546001600160a01b03919061044990831633146111e5565b166bffffffffffffffffffffffff60a01b6004541617600455600080f35b3461010e57600036600319011261010e57602060405169021e19e0c9bab24000008152f35b3461010e57602036600319011261010e576004356104b560018060a01b0360045416331461110d565b80600052600060205260006008604082206007810180546104da60ff82861c16611147565b6104ea60ff8260101c1615611188565b61ff001916905501557f2855af5d2357d4c3ccb4ee7c6848d4dc7d6c0ca5bff9d8d1338fca3d12508283600080a2005b3461010e57602036600319011261010e576000602061058860018060a01b0380600554169061054a8233146111e5565b60035460405163a9059cbb60e01b81526001600160a01b03909316600480850191909152356024840152919485939190921691839182906044820190565b03925af1908115610381576000916105da575b50156105a357005b60405162461bcd60e51b815260206004820152600f60248201526e151c985b9cd9995c8819985a5b1959608a1b6044820152606490fd5b6105f2915060203d811161037a5761036c8183610fa4565b8161059b565b3461010e5760208060031936011261010e576004359060018060a01b036106248160045416331461110d565b82600052600082526106ae826040600020926007840162010000815461064f60ff8260081c16611147565b61065f60ff8260101c1615611188565b62ff00ff191617905560088401549381600186936003541692015416600060405180968195829463a9059cbb60e01b84526004840160209093929193604081019460018060a01b031681520152565b03925af190811561038157600091610728575b50156106f357907f638d892b8630b775fea5d7a52b209e8bfa1d90c32b57cd37208ac84d4bcd6dcb91604051908152a2005b60405162461bcd60e51b815260048101839052600d60248201526c14185e5bdd5d0819985a5b1959609a1b6044820152606490fd5b61073f9150833d851161037a5761036c8183610fa4565b846106c1565b3461010e5760208060031936011261010e5760043590816000526000815260406000209060018060a01b03918260018201541633036108c457600781019060ff82541661088757600681019361079d85544210611078565b600354169160008460038401946064865460405194859384926323b872dd60e01b845233600485015230602485015260448401525af19081156103815760009161086a575b501561083457600160ff198254161790556005429101556301e13380420180421161038d577f7d285524823001f1a9e0eec4efb8c6350708012b991049fd6dd9250f89c8b258935554604051908152a2005b60405162461bcd60e51b815260048101859052600e60248201526d14185e5b595b9d0819985a5b195960921b6044820152606490fd5b6108819150853d871161037a5761036c8183610fa4565b876107e2565b60405162461bcd60e51b8152600481018490526015602482015274506f6c69637920616c72656164792061637469766560581b6044820152606490fd5b60405162461bcd60e51b815260048101839052601b60248201527f4f6e6c792074656e616e742063616e20706179207072656d69756d00000000006044820152606490fd5b3461010e57604036600319011261010e57610922611001565b6001600160a01b031660009081526001602052604090208054602435919082101561010e5760209161095391611017565b90546040519160031b1c8152f35b3461010e57600036600319011261010e576003546040516001600160a01b039091168152602090f35b3461010e57600036600319011261010e57602060405160058152f35b3461010e57608036600319011261010e576024356001600160a01b0381169060043582820361010e576044356001600160a01b038116939084900361010e5760643569021e19e0c9bab24000008111610bde5760058102908082046005148115171561038d5760025494610a198661102f565b6002556301e1338042019687421161038d576040519461016086019580871067ffffffffffffffff881117610bc85760209960647f0f96d7dd7db07c7ea86d9f68e49243f2d9606ef98a362f2f991cc59d22ff26bd978b996040528a8452848d8501528560408501520460608301528560808301524260a083015260c0820152600060e08201526000610100820152600061012082015260006101408201528660005260008a526008610140604060002092805184556001840160018060a01b038e83015116906bffffffffffffffffffffffff60a01b9182825416179055600285019060018060a01b0360408401511690825416179055606081015160038501556080810151600485015560a0810151600585015560c081015160068501556007840160e08201511515815461ff0061010085015115159160ff62ff0000610120880151151560101b1694169062ffffff19161791871b1617179055015191015560005260018852610b9085604060002061103e565b60005260018752610ba584604060002061103e565b604080516001600160a01b039290921682526020820192909252a3604051908152f35b634e487b7160e01b600052604160045260246000fd5b60405162461bcd60e51b8152602060048201526011602482015270086deeccae4c2ceca40e8dede40d0d2ced607b1b6044820152606490fd5b3461010e5760208060031936011261010e576001600160a01b03610c39611001565b166000526001808252604060002091604051918282855491828152019460005282600020926000905b828210610c8957610c8586610c79818a0382610fa4565b60405191829182610fc6565b0390f35b84548752958601959383019390830190610c62565b3461010e57600036600319011261010e57600080600254905b818110610d6c5750610cc8826111cd565b91610cd66040519384610fa4565b808352610ce5601f19916111cd565b0160209036828501376000805b838110610d075760405180610c858782610fc6565b806000526000835260ff60076040600020015416610d2e575b610d299061102f565b610cf2565b908451811015610d5657610d4e818385610d299460051b8901015261102f565b919050610d20565b634e487b7160e01b600052603260045260246000fd5b80600052600060205260ff60076040600020015416610d94575b610d8f9061102f565b610cb7565b91610da1610d8f9161102f565b929050610d86565b3461010e57606036600319011261010e5760043560249182356044359167ffffffffffffffff9283811161010e573660238201121561010e578060040135938411610f8f57602093610e04601f8201601f1916860184610fa4565b8083523687828401011161010e5760009281888794018483013701015282600052600082526040600020600781018054610e4060ff82166110cd565b6001830154336001600160a01b0391821614908115610f7f575b5015610f475760ff8160081c16610f035760048301548411610ec6577f675e9cd1ef5a9bb6971c9f1099eced3c6607be0407bc871bc50a8a7b36832e74959650916008916101008594610eb36006850154421115611078565b61ff0019161790550155604051908152a2005b60405162461bcd60e51b81526004810186905260168189015275436c61696d206578636565647320636f76657261676560501b6044820152606490fd5b60405162461bcd60e51b8152600481018690526017818901527f436c61696d20616c7265616479207375626d69747465640000000000000000006044820152606490fd5b60405162461bcd60e51b815260048101869052601181890152702737ba103837b634b1bc903437b63232b960791b6044820152606490fd5b9050600284015416331488610e5a565b85634e487b7160e01b60005260416004526000fd5b90601f8019910116810190811067ffffffffffffffff821117610bc857604052565b6020908160408183019282815285518094520193019160005b828110610fed575050505090565b835185529381019392810192600101610fdf565b600435906001600160a01b038216820361010e57565b8054821015610d565760005260206000200190600090565b600019811461038d5760010190565b805468010000000000000000811015610bc85761106091600182018155611017565b819291549060031b91821b91600019901b1916179055565b1561107f57565b60405162461bcd60e51b815260206004820152600e60248201526d141bdb1a58de48195e1c1a5c995960921b6044820152606490fd5b9081602091031261010e5751801515810361010e5790565b156110d457565b60405162461bcd60e51b8152602060048201526011602482015270506f6c696379206e6f742061637469766560781b6044820152606490fd5b1561111457565b60405162461bcd60e51b815260206004820152600b60248201526a2737ba1034b739bab932b960a91b6044820152606490fd5b1561114e57565b60405162461bcd60e51b8152602060048201526012602482015271139bc818db185a5b481cdd589b5a5d1d195960721b6044820152606490fd5b1561118f57565b60405162461bcd60e51b815260206004820152601660248201527510db185a5b48185b1c9958591e48185c1c1c9bdd995960521b6044820152606490fd5b67ffffffffffffffff8111610bc85760051b60200190565b156111ec57565b60405162461bcd60e51b81526020600482015260096024820152682737ba1030b236b4b760b91b6044820152606490fdfea2646970667358221220824f3fae565436e85ca9ec0fa8b177233afa96636e1f0940147413390ff7726564736f6c6343000813003360803461009557601f610cb638819003918201601f19168301916001600160401b0383118484101761009a57808492604094855283398101031261009557610052602061004b836100b0565b92016100b0565b60018060a01b03908160018060a01b03199316836000541617600055168160015416176001553390600754161760075543600555604051610bf190816100c58239f35b600080fd5b634e487b7160e01b600052604160045260246000fd5b51906001600160a01b03821682036100955756fe6040608081526004908136101561001557600080fd5b600091823560e01c9081628cc2621461097557816316934fc4146109165781631820cabb146108f85781632e1a7d4d1461078d57816331d7a262146107535781633d18b9121461066a5781635997bb371461064e57816372f702f314610626578163817b1cd2146106085781638da5cb5b146105df5781639e447fc6146105a3578163a218141b14610584578163a694fc3a146103d557838263beceed391461032e57508163c345315314610299578163cd3daf9d14610275578163d1af0c7d1461024c578163db2e21bc14610116575063df136d65146100f557600080fd5b346101125781600319360112610112576020906006549051908152f35b5080fd5b90503461024857826003193601126102485733835260206002815282842091825492831561021b578361019a9287859355610152828254610a8b565b815533808952600384528789208990558854885163a9059cbb60e01b81529283019182526020820193909352909384926001600160a01b03169183918a918391604090910190565b03925af1908115610211577f5fafa99d0643513820be26656b45130b01e1c03062e1266bf36f88cbd3bd96959394916101da9187916101e4575b50610a17565b519283523392a280f35b6102049150843d861161020a575b6101fc81836109d8565b8101906109fa565b386101d4565b503d6101f2565b84513d87823e3d90fd5b5060649184519162461bcd60e51b835282015260086024820152674e6f207374616b6560c01b6044820152fd5b8280fd5b50503461011257816003193601126101125760015490516001600160a01b039091168152602090f35b505034610112578160031936011261011257602090610292610a98565b9051908152f35b839150346101125760203660031901126101125735906001600160a01b038216808303610112578152600260205282902082519261032a916102da856109a6565b6103088154948587526001830154968760208201526060600360028601549586888501520154910152610afa565b9151948594859094939260609260808301968352602083015260408201520152565b0390f35b9150346101125760203660031901126101125761039260209160018060a01b0361035d81600754163314610b83565b60015486516323b872dd60e01b8152338185019081523060208201529335604085015295869492909116928492839160600190565b03925af19081156103c9576103ae925083916103b15750610a17565b80f35b610204915060203d811161020a576101fc81836109d8565b505051903d90823e3d90fd5b83833461011257602080600319360112610248578335916103f4610a98565b600655436005553361056b575b82156105375733845260028252808420805461051e575b845482516323b872dd60e01b815233818901908152306020820152604081018790529091859183916001600160a01b03169082908a90829060600103925af1908115610514579061046f9187916104f75750610a17565b61047a848254610a55565b80825542600183015562278d0042018042116104e4576104ca839260039260027f9e71bc8eea02a63969f509818f2dafb9254532904319f9dbda79b67bd34a5f3d999a9b96015560065490610a78565b9101556104d8858254610a55565b9055519283523392a280f35b634e487b7160e01b875260118852602487fd5b61050e9150853d871161020a576101fc81836109d8565b886101d4565b83513d88823e3d90fd5b61052733610afa565b3386526003845282862055610418565b5162461bcd60e51b815280850191909152600e60248201526d043616e6e6f74207374616b6520360941b6044820152606490fd5b61057433610afa565b3385526003835281852055610401565b5050346101125781600319360112610112576020906005549051908152f35b83346105dc5760203660031901126105dc576105ca60018060a01b03600754163314610b83565b6105d2610a98565b6006554360055580f35b80fd5b50503461011257816003193601126101125760075490516001600160a01b039091168152602090f35b90503461024857826003193601126102485760209250549051908152f35b505034610112578160031936011261011257905490516001600160a01b039091168152602090f35b5050346101125781600319360112610112576020905160648152f35b91905034610248578260031936011261024857610685610a98565b6006554360055533610739575b33835260036020528083209183835493846106ab575080f35b55600154825163a9059cbb60e01b815233928101928352602080840186905290929091839182900360400190829088906001600160a01b03165af190811561072f57906106fe9185916103b15750610a17565b519081527fe2403640ba68fed3a2f88b7557551d1993f84b99bb10ff833f0cf8db0c5e048660203392a23880808380f35b82513d86823e3d90fd5b61074233610afa565b338452600360205281842055610692565b90503461024857602036600319011261024857356001600160a01b0381169081900361024857828291602094526003845220549051908152f35b905034610248576020806003193601126108f4578135916107ac610a98565b60065543600555336108db575b3385526002825283852080548481106108a2576002820154421061086f576108309284926107e8878094610a8b565b90556107f5828254610a8b565b81558754875163a9059cbb60e01b8152339281019283526020830193909352919384926001600160a01b03169183918a918391604090910190565b03925af1908115610211577f7084f5476618d8e60b11ef0d7d3f06914655adb8793e28ff7f018d4c76d505d59394916101da9187916101e45750610a17565b855162461bcd60e51b8152808401859052600d60248201526c151bdad95b9cc81b1bd8dad959609a1b6044820152606490fd5b855162461bcd60e51b81528084018590526013602482015272125b9cdd59999a58da595b9d081cdd185ad959606a1b6044820152606490fd5b6108e433610afa565b33865260038352848620556107b9565b8380fd5b5050346101125781600319360112610112576020905162278d008152f35b90503461024857602036600319011261024857356001600160a01b038116908190036102485782526002602081815292829020805460018201549282015460039092015493519081529384019190915260408301526060820152608090f35b9050346102485760203660031901126102485735916001600160a01b03831683036105dc5750610292602092610afa565b6080810190811067ffffffffffffffff8211176109c257604052565b634e487b7160e01b600052604160045260246000fd5b90601f8019910116810190811067ffffffffffffffff8211176109c257604052565b90816020910312610a1257518015158103610a125790565b600080fd5b15610a1e57565b60405162461bcd60e51b815260206004820152600f60248201526e151c985b9cd9995c8819985a5b1959608a1b6044820152606490fd5b91908201809211610a6257565b634e487b7160e01b600052601160045260246000fd5b81810292918115918404141715610a6257565b91908203918211610a6257565b6004548015610af357610aad60055443610a8b565b606481029181830460641482151715610a625768056bc75e2d63100000600654920292808404670de0b6b3a76400001490151715610a6257610af0920490610a55565b90565b5060065490565b610af09060018060a01b0316806000526002602052670de0b6b3a7640000610b7c604060002092610b76600360405195610b33876109a6565b80548752600181015460208801526002810154604088015201549160608601928352610b5d610a98565b9060005260036020526040600020549551925190610a8b565b90610a78565b0490610a55565b15610b8a57565b60405162461bcd60e51b81526020600482015260096024820152682737ba1037bbb732b960b91b6044820152606490fdfea2646970667358221220c900fbdaf44f1309a5523e4320a98b4a61f75db23f36afc1c4e6fc0fb37e204e64736f6c63430008130033a2646970667358221220a39eacc8ac3406083967d0eb102721cffeb7f45f09605f9c5a6d83332584d3b964736f6c63430008130033",
  "linkReferences": {},
  "deployedLinkReferences": {}
}