{
  "_format": "hh-sol-artifact-1",
  "contractName": "RentChainEmergency",
  "sourceName": "contracts/RentChainEmergency.sol",
  "abi": [
    {
      "inputs": [],
      "stateMutability": "nonpayable",
      "type": "constructor"
    },
    {
      "anonymous": false,
      "inputs": [
        {
          "indexed": false,
          "internalType": "address",
          "name": "admin",
          "type": "address"
        }
      ],
      "name": "EmergencyAdminAdded",
      "type": "event"
    },
    {
      "anonymous": false,
      "inputs": [
        {
          "indexed": false,
          "internalType": "address",
          "name": "admin",
          "type": "address"
        }
      ],
      "name": "EmergencyAdminRemoved",
      "type": "event"
    },
    {
      "anonymous": false,
      "inputs": [
        {
          "indexed": false,
          "internalType": "address",
          "name": "token",
          "type": "address"
        },
        {
          "indexed": false,
          "internalType": "uint256",
          "name": "amount",
          "type": "uint256"
        },
        {
          "indexed": false,
          "internalType": "address",
          "name": "recipient",
          "type": "address"
        }
      ],
      "name": "EmergencyFundsRecovered",
      "type": "event"
    },
    {
      "anonymous": false,
      "inputs": [
        {
          "indexed": false,
          "internalType": "bytes32",
          "name": "requestId",
          "type": "bytes32"
        },
        {
          "indexed": false,
          "internalType": "address",
          "name": "user",
          "type": "address"
        },
        {
          "indexed": false,
          "internalType": "address",
          "name": "token",
          "type": "address"
        },
        {
          "indexed": false,
          "internalType": "uint256",
          "name": "amount",
          "type": "uint256"
        },
        {
          "indexed": false,
          "internalType": "bool",
          "name": "approved",
          "type": "bool"
        }
      ],
      "name": "EmergencyWithdrawalProcessed",
      "type": "event"
    },
    {
      "anonymous": false,
      "inputs": [
        {
          "indexed": false,
          "internalType": "bytes32",
          "name": "requestId",
          "type": "bytes32"
        },
        {
          "indexed": false,
          "internalType": "address",
          "name": "user",
          "type": "address"
        },
        {
          "indexed": false,
          "internalType": "address",
          "name": "token",
          "type": "address"
        },
        {
          "indexed": false,
          "internalType": "uint256",
          "name": "amount",
          "type": "uint256"
        }
      ],
      "name": "EmergencyWithdrawalRequested",
      "type": "event"
    },
    {
      "anonymous": false,
      "inputs": [
        {
          "indexed": false,
          "internalType": "string",
          "name": "reason",
          "type": "string"
        },
        {
          "indexed": false,
          "internalType": "uint256",
          "name": "duration",
          "type": "uint256"
        }
      ],
      "name": "SystemPaused",
      "type": "event"
    },
    {
      "anonymous": false,
      "inputs": [],
      "name": "SystemResumed",
      "type": "event"
    },
    {
      "inputs": [],
      "name": "MAX_PAUSE_DURATION",
      "outputs": [
        {
          "internalType": "uint256",
          "name": "",
          "type": "uint256"
        }
      ],
      "stateMutability": "view",
      "type": "function"
    },
    {
      "inputs": [
        {
          "internalType": "address",
          "name": "admin",
          "type": "address"
        }
      ],
      "name": "addEmergencyAdmin",
      "outputs": [],
      "stateMutability": "nonpayable",
      "type": "function"
    },
    {
      "inputs": [
        {
          "internalType": "bytes32[]",
          "name": "requestIds",
          "type": "bytes32[]"
        },
        {
          "internalType": "bool[]",
          "name": "approvals",
          "type": "bool[]"
        }
      ],
      "name": "batchProcessWithdrawals",
      "outputs": [],
      "stateMutability": "nonpayable",
      "type": "function"
    },
    {
      "inputs": [
        {
          "internalType": "address",
          "name": "",
          "type": "address"
        }
      ],
      "name": "emergencyAdmins",
      "outputs": [
        {
          "internalType": "bool",
          "name": "",
          "type": "bool"
        }
      ],
      "stateMutability": "view",
      "type": "function"
    },
    {
      "inputs": [],
      "name": "emergencyPauseAll",
      "outputs": [],
      "stateMutability": "nonpayable",
      "type": "function"
    },
    {
      "inputs": [],
      "name": "emergencyState",
      "outputs": [
        {
          "internalType": "bool",
          "name": "systemPaused",
          "type": "bool"
        },
        {
          "internalType": "bool",
          "name": "withdrawalsPaused",
          "type": "bool"
        },
        {
          "internalType": "bool",
          "name": "newRegistrationsPaused",
          "type": "bool"
        },
        {
          "internalType": "bool",
          "name": "paymentsPaused",
          "type": "bool"
        },
        {
          "internalType": "uint256",
          "name": "pauseStartTime",
          "type": "uint256"
        },
        {
          "internalType": "uint256",
          "name": "pauseDuration",
          "type": "uint256"
        },
        {
          "internalType": "string",
          "name": "pauseReason",
          "type": "string"
        }
      ],
      "stateMutability": "view",
      "type": "function"
    },
    {
      "inputs": [
        {
          "internalType": "address",
          "name": "newOwner",
          "type": "address"
        }
      ],
      "name": "emergencyTransferOwnership",
      "outputs": [],
      "stateMutability": "nonpayable",
      "type": "function"
    },
    {
      "inputs": [
        {
          "internalType": "bytes32",
          "name": "",
          "type": "bytes32"
        }
      ],
      "name": "emergencyWithdrawals",
      "outputs": [
        {
          "internalType": "address",
          "name": "user",
          "type": "address"
        },
        {
          "internalType": "address",
          "name": "token",
          "type": "address"
        },
        {
          "internalType": "uint256",
          "name": "amount",
          "type": "uint256"
        },
        {
          "internalType": "uint256",
          "name": "requestedAt",
          "type": "uint256"
        },
        {
          "internalType": "bool",
          "name": "processed",
          "type": "bool"
        },
        {
          "internalType": "bool",
          "name": "approved",
          "type": "bool"
        }
      ],
      "stateMutability": "view",
      "type": "function"
    },
    {
      "inputs": [],
      "name": "getEmergencyStatus",
      "outputs": [
        {
          "internalType": "bool",
          "name": "systemPaused",
          "type": "bool"
        },
        {
          "internalType": "bool",
          "name": "withdrawalsPaused",
          "type": "bool"
        },
        {
          "internalType": "bool",
          "name": "registrationsPaused",
          "type": "bool"
        },
        {
          "internalType": "bool",
          "name": "paymentsPaused",
          "type": "bool"
        },
        {
          "internalType": "uint256",
          "name": "pauseStartTime",
          "type": "uint256"
        },
        {
          "internalType": "uint256",
          "name": "pauseDuration",
          "type": "uint256"
        },
        {
          "internalType": "string",
          "name": "pauseReason",
          "type": "string"
        },
        {
          "internalType": "uint256",
          "name": "timeUntilResume",
          "type": "uint256"
        }
      ],
      "stateMutability": "view",
      "type": "function"
    },
    {
      "inputs": [],
      "name": "getPendingWithdrawals",
      "outputs": [
        {
          "internalType": "bytes32[]",
          "name": "",
          "type": "bytes32[]"
        }
      ],
      "stateMutability": "view",
      "type": "function"
    },
    {
      "inputs": [
        {
          "internalType": "address",
          "name": "user",
          "type": "address"
        }
      ],
      "name": "getUserWithdrawalStatus",
      "outputs": [
        {
          "internalType": "bool",
          "name": "hasPendingRequest",
          "type": "bool"
        },
        {
          "internalType": "uint256",
          "name": "requestTime",
          "type": "uint256"
        },
        {
          "internalType": "uint256",
          "name": "cooldownRemaining",
          "type": "uint256"
        }
      ],
      "stateMutability": "view",
      "type": "function"
    },
    {
      "inputs": [],
      "name": "nextWithdrawalId",
      "outputs": [
        {
          "internalType": "uint256",
          "name": "",
          "type": "uint256"
        }
      ],
      "stateMutability": "view",
      "type": "function"
    },
    {
      "inputs": [
        {
          "internalType": "bool",
          "name": "pauseWithdrawals",
          "type": "bool"
        },
        {
          "internalType": "bool",
          "name": "pauseRegistrations",
          "type": "bool"
        },
        {
          "internalType": "bool",
          "name": "pausePayments",
          "type": "bool"
        },
        {
          "internalType": "uint256",
          "name": "duration",
          "type": "uint256"
        },
        {
          "internalType": "string",
          "name": "reason",
          "type": "string"
        }
      ],
      "name": "pauseSystem",
      "outputs": [],
      "stateMutability": "nonpayable",
      "type": "function"
    },
    {
      "inputs": [
        {
          "internalType": "bytes32",
          "name": "requestId",
          "type": "bytes32"
        },
        {
          "internalType": "bool",
          "name": "approve",
          "type": "bool"
        }
      ],
      "name": "processEmergencyWithdrawal",
      "outputs": [],
      "stateMutability": "nonpayable",
      "type": "function"
    },
    {
      "inputs": [
        {
          "internalType": "address",
          "name": "token",
          "type": "address"
        },
        {
          "internalType": "uint256",
          "name": "amount",
          "type": "uint256"
        },
        {
          "internalType": "address",
          "name": "recipient",
          "type": "address"
        }
      ],
      "name": "recoverEmergencyFunds",
      "outputs": [],
      "stateMutability": "nonpayable",
      "type": "function"
    },
    {
      "inputs": [
        {
          "internalType": "address",
          "name": "admin",
          "type": "address"
        }
      ],
      "name": "removeEmergencyAdmin",
      "outputs": [],
      "stateMutability": "nonpayable",
      "type": "function"
    },
    {
      "inputs": [
        {
          "internalType": "address",
          "name": "token",
          "type": "address"
        },
        {
          "internalType": "uint256",
          "name": "amount",
          "type": "uint256"
        }
      ],
      "name": "requestEmergencyWithdrawal",
      "outputs": [
        {
          "internalType": "bytes32",
          "name": "",
          "type": "bytes32"
        }
      ],
      "stateMutability": "nonpayable",
      "type": "function"
    },
    {
      "inputs": [],
      "name": "resumeSystem",
      "outputs": [],
      "stateMutability": "nonpayable",
      "type": "function"
    },
    {
      "inputs": [],
      "name": "superAdmin",
      "outputs": [
        {
          "internalType": "address",
          "name": "",
          "type": "address"
        }
      ],
      "stateMutability": "view",
      "type": "function"
    },
    {
      "inputs": [
        {
          "internalType": "address",
          "name": "newSuperAdmin",
          "type": "address"
        }
      ],
      "name": "transferSuperAdmin",
      "outputs": [],
      "stateMutability": "nonpayable",
      "type": "function"
    },
    {
      "inputs": [
        {
          "internalType": "address",
          "name": "",
          "type": "address"
        }
      ],
      "name": "userWithdrawalRequests",
      "outputs": [
        {
          "internalType": "uint256",
          "name": "",
          "type": "uint256"
        }
      ],
      "stateMutability": "view",
      "type": "function"
    }
  ],
  "bytecode": "0x60808060405234610040573360018060a01b031960035416176003553360005260006020526040600020600160ff198254161790556118e190816100468239f35b600080fdfe6080604052600436101561001257600080fd5b60e0600035811c80630775ef0f146114525780630c6dd9fd146113d0578063157c51d3146112de578063179efb09146112665780632799657d1461124857806329575f6a1461121f5780634a9122e31461120157806355002b75146111725780635d65ad6714610ec95780635f00e0c614610e545780636c302b4414610d35578063739e663014610b2e5780637a9a93f414610ab95780637b7e526714610a64578063b50240fe14610a2a578063bc5e9ebe146109eb578063c37fc8a8146108f0578063d3304a24146105c7578063f1df3456146102a5578063f8a338a51461022b5763fa37273c1461010457600080fd5b346102265760003660031901126102265760405181810181811067ffffffffffffffff821117610210576040526004549160ff831615158252602082019160ff8460081c16151583526101ff604082019460ff8160101c161515865260ff606084019160181c16151581526005546080840190815260065460a0850190815261018b6115d6565b9160c086019283526101a08151835190611786565b804210600014610207576101b5904290611827565b955b51151597511515985115159351151590519151925193604051998a998a5260208a015260408901526060880152608087015260a08601526101008060c0870152850190611682565b918301520390f35b506000956101b7565b634e487b7160e01b600052604160045260246000fd5b600080fd5b50346102265760003660031901126102265760ff906102a160045491600554906006546102566115d6565b9260405196868189981615158852818160081c1615156020890152818160101c161515604089015260181c1615156060870152608086015260a08501528060c0850152830190611682565b0390f35b346102265760403660031901126102265767ffffffffffffffff600435818111610226576102d790369060040161156b565b9091602435908111610226576102f190369060040161156b565b91909233600052600060205260ff6040600020541680156105b3575b610316906116c2565b82820361057e5760005b82811061032957005b61033481848461185b565b359061034181868861185b565b359182151583036102265733600052600060205260ff60406000205416801561056a575b61036e906116c2565b80600052600260205260406000206004810180549060ff821661053157600383015462015180810180911161051b5742106104e45761ffff1990911685151560081b61ff001617600117905583610416575b60008051602061186c833981519152916104119460a092600180851b0390600282825416926001830154169101549160405194855260208501526040840152606083015215156080820152a161184c565b610320565b60018101548154600283015460405163a9059cbb60e01b81526001600160a01b03928316600482015260248101919091529095909391602090859060449082906000908b165af19283156104d8576104119661048c60a09560008051602061186c833981519152976000916104a9575b506117ab565b8154166000526001602052600060408120559250945091506103c0565b6104cb915060203d6020116104d1575b6104c38183611549565b810190611793565b8e610486565b503d6104b9565b6040513d6000823e3d90fd5b60405162461bcd60e51b815260206004820152600f60248201526e10dbdbdb191bdddb881c195c9a5bd9608a1b6044820152606490fd5b634e487b7160e01b600052601160045260246000fd5b60405162461bcd60e51b8152602060048201526011602482015270105b1c9958591e481c1c9bd8d95cdcd959607a1b6044820152606490fd5b506003546001600160a01b03163314610365565b60405162461bcd60e51b815260206004820152600d60248201526c125b9d985b1a59081a5b9c1d5d609a1b6044820152606490fd5b506003546001600160a01b0316331461030d565b346102265760a036600319011261022657600435801515809103610226576105ed61153a565b604435918215158093036102265760643560843567ffffffffffffffff948582116102265736602383011215610226578160040135938685116102105760405195602095601f1994610646601f8301871689018a611549565b8189523660248383010111610226578160009260248a9301838c013789010152336000526000865260ff6040600020541680156108dc575b610687906116c2565b62278d008511610897576004549160ff831661085a579062ff000063ff0000009594939261ff00600197889660181b169463ffffffff19169160081b161791151560101b1617171760045542600555826006558451958611610210576106ee60075461159c565b601f8111610805575b508390601f87116001146107745750948080610760969594937f1afc9a745f93ec77943b1a4555e0a06a23052f1f1e63bc5ffee991fe3104bacd98600093610769575b501b916000199060031b1c1916176007555b604051938493604085526040850190611682565b918301520390a1005b87015192508961073a565b861690600760005260008051602061188c8339815191529160005b8181106107f057509187917f1afc9a745f93ec77943b1a4555e0a06a23052f1f1e63bc5ffee991fe3104bacd986107609897969594106107d7575b5050811b0160075561074c565b86015160001960f88460031b161c1916905587806107ca565b8783015184559284019291860191860161078f565b600760005260008051602061188c833981519152601f880160051c810191868910610850575b601f0160051c019083905b8281106108445750506106f7565b60008155018390610836565b909150819061082b565b60405162461bcd60e51b815260048101889052601560248201527414de5cdd195b48185b1c9958591e481c185d5cd959605a1b6044820152606490fd5b60405162461bcd60e51b815260048101879052601760248201527f5061757365206475726174696f6e20746f6f206c6f6e670000000000000000006044820152606490fd5b506003546001600160a01b0316331461067e565b3461022657600036600319011261022657600060085461090f81611834565b61091c6040519182611549565b81815261092882611834565b6020938285019391601f190136853760005b8281106109855750505090604051928392818401908285525180915260408401929160005b82811061096e57505050500390f35b83518552869550938101939281019260010161095f565b806000526002865260ff60046040600020015416156109ad575b6109a89061184c565b61093a565b9083518110156109d5576109cd8183886109a89460051b8801015261184c565b91905061099f565b634e487b7160e01b600052603260045260246000fd5b34610226576020366003190112610226576001600160a01b03610a0c611524565b166000526000602052602060ff604060002054166040519015158152f35b34610226576020366003190112610226576001600160a01b03610a4b611524565b1660005260016020526020604060002054604051908152f35b3461022657602036600319011261022657610a7d611524565b600354906001600160a01b0390610a9733838516146117e9565b610aa560ff60045416611746565b6001600160a01b0319909216911617600355005b34610226576020366003190112610226577f96903ccf75a03683e56434e0f2926f527b559127b4e4b23fc234ce2b5109c7f86020610af5611524565b6003546001600160a01b039190610b0f90831633146117e9565b168060005260008252604060002060ff198154169055604051908152a1005b3461022657604036600319011261022657600435610b4a61153a565b3360005260206000815260ff604060002054168015610d21575b610b6d906116c2565b8260005260028152604060002060048101805460ff8116610ce857600383015462015180810180911161051b574210610cb15761ffff191684151560081b61ff001617600117905582610c04575b9160008051602061186c833981519152939160a093600180861b0360028183541691600184015416920154926040519586528501526040840152606083015215156080820152a1005b60018101548154600283015460405163a9059cbb60e01b81526001600160a01b03928316600482015260248101919091529590949093909290918290879060449082906000908a165af19485156104d857610c7860a09660008051602061186c83398151915298600091610c9457506117ab565b8154166000526001825260006040812055919350919350610bbb565b610cab9150853d87116104d1576104c38183611549565b89610486565b60405162461bcd60e51b815260048101859052600f60248201526e10dbdbdb191bdddb881c195c9a5bd9608a1b6044820152606490fd5b60405162461bcd60e51b8152600481018590526011602482015270105b1c9958591e481c1c9bd8d95cdcd959607a1b6044820152606490fd5b506003546001600160a01b03163314610b64565b3461022657606036600319011261022657610d4e611524565b6024356044356001600160a01b03808216908183036102265783602091610dd396336000526000845260ff604060002054168015610e47575b610d90906116c2565b610d9e60ff60045416611746565b60405163a9059cbb60e01b81526001600160a01b03909616600487015260248601929092529395931692859081906044820190565b03816000865af19283156104d857610e166060947f1eadb3d0c63d81bf1c4800d2630a76ccdeb92dde6127f48577a5e792233af37596600091610e2957506117ab565b60405192835260208301526040820152a1005b610e41915060203d81116104d1576104c38183611549565b87610486565b5060035482163314610d87565b3461022657602036600319011261022657600435600052600260205260c0604060002060ff60018060a01b0391828154169260018201541690600281015460046003830154920154926040519586526020860152604085015260608401528181161515608084015260081c16151560a0820152f35b503461022657604036600319011261022657610ee3611524565b602490813560ff60045460081c166111395780156111045733600052602093600185526040600020546110c05733600052600185526040600020549060405191868301913360601b835260018060a01b0391828716966bffffffffffffffffffffffff199060601b16603486015285604886015242606886015260888501526088845260c084019267ffffffffffffffff90858510828611176110ab578460405285519020976101808601918583109083111761109757506004608096948a611069957f1c381d8f9487dfce4e34fdcb2c79d9d78f16dd24c348fd99efb8d526983f8d589a98958c95604052338452860189815261010087019189835260026101208901944286526101606101408b019a60008c52019860008a5260005252806040600020955116906bffffffffffffffffffffffff60a01b91828754161786556001860192511690825416179055516002830155516003820155019151151560ff8019845416911617825551151561ff00825491151560081b169061ff001916179055565b33600052600186524260406000205560405191858352338784015260408301526060820152a1604051908152f35b634e487b7160e01b60009081526041600452fd5b88634e487b7160e01b60005260416004526000fd5b60405162461bcd60e51b8152600481018690526019818601527f50656e64696e67207769746864726177616c20657869737473000000000000006044820152606490fd5b60405162461bcd60e51b815260206004820152600e818501526d125b9d985b1a5908185b5bdd5b9d60921b6044820152606490fd5b60405162461bcd60e51b8152602060048201526012818501527115da5d1a191c985dd85b1cc81c185d5cd95960721b6044820152606490fd5b34610226576020366003190112610226576001600160a01b03611193611524565b166000526001602052604060002054801515600081806111ec575b6111c8575b60609260405192835260208301526040820152f35b506201518082019182811161051b576111e46060934290611827565b9092506111b3565b5062015180830180841161051b5742106111ae565b34610226576000366003190112610226576020600854604051908152f35b34610226576000366003190112610226576003546040516001600160a01b039091168152602090f35b3461022657600036600319011261022657602060405162278d008152f35b34610226576020366003190112610226577f2bbc948ec094d6153be3d4fca4cbb562ba47d9a8449d39fe557aa4d9c2319b3460206112a2611524565b6003546001600160a01b0391906112bc90831633146117e9565b1680600052600082526040600020600160ff19825416179055604051908152a1005b346102265760003660031901126102265733600052600060205260ff6040600020541680156113bc575b611311906116c2565b60045461132060ff8216611746565b61132f60055460065490611786565b42106113835763ffffffff1916600455600060065561135761135260075461159c565b611704565b60006007557f8405beb5718fa80e67847f8f4174dc9f80fed07680154149a25ce0cf37418350600080a1005b60405162461bcd60e51b815260206004820152601160248201527014185d5cd9481b9bdd08195e1c1a5c9959607a1b6044820152606490fd5b506003546001600160a01b03163314611308565b34610226576020366003190112610226576113e9611524565b600354906001600160a01b039061140333838516146117e9565b1690811561141b576001600160a01b03191617600355005b60405162461bcd60e51b815260206004820152600f60248201526e496e76616c6964206164647265737360881b6044820152606490fd5b346102265760003660031901126102265733600052600060205260ff604060002054168015611510575b611485906116c2565b630101010163ffffffff196004541617600455426005557f1afc9a745f93ec77943b1a4555e0a06a23052f1f1e63bc5ffee991fe3104bacd608062278d00806006556114d561135260075461159c565b721153515491d15390d657d4105554d157d05313606a1b906026820160075560405191604083526013604084015260608301526020820152a1005b506003546001600160a01b0316331461147c565b600435906001600160a01b038216820361022657565b60243590811515820361022657565b90601f8019910116810190811067ffffffffffffffff82111761021057604052565b9181601f840112156102265782359167ffffffffffffffff8311610226576020808501948460051b01011161022657565b90600182811c921680156115cc575b60208310146115b657565b634e487b7160e01b600052602260045260246000fd5b91607f16916115ab565b60405190600082600754916115ea8361159c565b808352926001908181169081156116605750600114611613575b5061161192500383611549565b565b60076000908152915060008051602061188c8339815191525b8483106116455750611611935050810160200138611604565b81935090816020925483858a0101520191019091859261162c565b90506020925061161194915060ff191682840152151560051b82010138611604565b919082519283825260005b8481106116ae575050826000602080949584010152601f8019910116010190565b60208183018101518483018201520161168d565b156116c957565b60405162461bcd60e51b81526020600482015260136024820152722737ba1032b6b2b933b2b731bc9030b236b4b760691b6044820152606490fd5b601f811161170f5750565b600060078152601f60008051602061188c833981519152920160051c8201915b82811061173b57505050565b81815560010161172f565b1561174d57565b60405162461bcd60e51b815260206004820152601160248201527014de5cdd195b481b9bdd081c185d5cd959607a1b6044820152606490fd5b9190820180921161051b57565b90816020910312610226575180151581036102265790565b156117b257565b60405162461bcd60e51b815260206004820152600f60248201526e151c985b9cd9995c8819985a5b1959608a1b6044820152606490fd5b156117f057565b60405162461bcd60e51b815260206004820152600f60248201526e2737ba1039bab832b91030b236b4b760891b6044820152606490fd5b9190820391821161051b57565b67ffffffffffffffff81116102105760051b60200190565b600019811461051b5760010190565b91908110156109d55760051b019056feccd78db4eb8bc6e5a260daba1a6835af3763927165be6e4e4f3becc69792cb75a66cc928b5edb82af9bd49922954155ab7b0942694bea4ce44661d9a8736c688a2646970667358221220fb8939f03edc43990999eef90e904cf50ffd79277338ac6e86a40327a1b9b89a64736f6c63430008130033",
  "linkReferences": {},
  "deployedLinkReferences": {}
}