{
  "_format": "hh-sol-artifact-1",
  "contractName": "RentChainBridge",
  "sourceName": "contracts/RentChainBridge.sol",
  "abi": [
    {
      "inputs": [],
      "stateMutability": "nonpayable",
      "type": "constructor"
    },
    {
      "anonymous": false,
      "inputs": [
        {
          "indexed": true,
          "internalType": "bytes32",
          "name": "bridgeHash",
          "type": "bytes32"
        },
        {
          "indexed": true,
          "internalType": "address",
          "name": "user",
          "type": "address"
        },
        {
          "indexed": false,
          "internalType": "uint256",
          "name": "amount",
          "type": "uint256"
        }
      ],
      "name": "BridgeCompleted",
      "type": "event"
    },
    {
      "anonymous": false,
      "inputs": [
        {
          "indexed": true,
          "internalType": "bytes32",
          "name": "bridgeHash",
          "type": "bytes32"
        },
        {
          "indexed": true,
          "internalType": "address",
          "name": "user",
          "type": "address"
        },
        {
          "indexed": false,
          "internalType": "address",
          "name": "token",
          "type": "address"
        },
        {
          "indexed": false,
          "internalType": "uint256",
          "name": "amount",
          "type": "uint256"
        },
        {
          "indexed": false,
          "internalType": "uint256",
          "name": "targetChain",
          "type": "uint256"
        },
        {
          "indexed": false,
          "internalType": "address",
          "name": "targetAddress",
          "type": "address"
        }
      ],
      "name": "BridgeInitiated",
      "type": "event"
    },
    {
      "anonymous": false,
      "inputs": [
        {
          "indexed": true,
          "internalType": "bytes32",
          "name": "bridgeHash",
          "type": "bytes32"
        },
        {
          "indexed": true,
          "internalType": "address",
          "name": "user",
          "type": "address"
        },
        {
          "indexed": false,
          "internalType": "uint256",
          "name": "amount",
          "type": "uint256"
        }
      ],
      "name": "BridgeReverted",
      "type": "event"
    },
    {
      "anonymous": false,
      "inputs": [
        {
          "indexed": false,
          "internalType": "address",
          "name": "validator",
          "type": "address"
        }
      ],
      "name": "ValidatorAdded",
      "type": "event"
    },
    {
      "anonymous": false,
      "inputs": [
        {
          "indexed": false,
          "internalType": "address",
          "name": "validator",
          "type": "address"
        }
      ],
      "name": "ValidatorRemoved",
      "type": "event"
    },
    {
      "inputs": [
        {
          "internalType": "uint256",
          "name": "chainId",
          "type": "uint256"
        }
      ],
      "name": "addSupportedChain",
      "outputs": [],
      "stateMutability": "nonpayable",
      "type": "function"
    },
    {
      "inputs": [
        {
          "internalType": "address",
          "name": "token",
          "type": "address"
        }
      ],
      "name": "addSupportedToken",
      "outputs": [],
      "stateMutability": "nonpayable",
      "type": "function"
    },
    {
      "inputs": [
        {
          "internalType": "address",
          "name": "validator",
          "type": "address"
        }
      ],
      "name": "addValidator",
      "outputs": [],
      "stateMutability": "nonpayable",
      "type": "function"
    },
    {
      "inputs": [],
      "name": "admin",
      "outputs": [
        {
          "internalType": "address",
          "name": "",
          "type": "address"
        }
      ],
      "stateMutability": "view",
      "type": "function"
    },
    {
      "inputs": [],
      "name": "bridgeFee",
      "outputs": [
        {
          "internalType": "uint256",
          "name": "",
          "type": "uint256"
        }
      ],
      "stateMutability": "view",
      "type": "function"
    },
    {
      "inputs": [
        {
          "internalType": "bytes32",
          "name": "",
          "type": "bytes32"
        }
      ],
      "name": "bridgeRequests",
      "outputs": [
        {
          "internalType": "address",
          "name": "user",
          "type": "address"
        },
        {
          "internalType": "address",
          "name": "token",
          "type": "address"
        },
        {
          "internalType": "uint256",
          "name": "amount",
          "type": "uint256"
        },
        {
          "internalType": "uint256",
          "name": "targetChain",
          "type": "uint256"
        },
        {
          "internalType": "address",
          "name": "targetAddress",
          "type": "address"
        },
        {
          "internalType": "uint256",
          "name": "timestamp",
          "type": "uint256"
        },
        {
          "internalType": "bool",
          "name": "completed",
          "type": "bool"
        },
        {
          "internalType": "bytes32",
          "name": "bridgeHash",
          "type": "bytes32"
        }
      ],
      "stateMutability": "view",
      "type": "function"
    },
    {
      "inputs": [
        {
          "internalType": "address",
          "name": "token",
          "type": "address"
        },
        {
          "internalType": "uint256",
          "name": "amount",
          "type": "uint256"
        },
        {
          "internalType": "uint256",
          "name": "targetChain",
          "type": "uint256"
        },
        {
          "internalType": "address",
          "name": "targetAddress",
          "type": "address"
        }
      ],
      "name": "bridgeTokens",
      "outputs": [
        {
          "internalType": "bytes32",
          "name": "",
          "type": "bytes32"
        }
      ],
      "stateMutability": "payable",
      "type": "function"
    },
    {
      "inputs": [
        {
          "internalType": "bytes32",
          "name": "bridgeHash",
          "type": "bytes32"
        },
        {
          "internalType": "address",
          "name": "user",
          "type": "address"
        },
        {
          "internalType": "address",
          "name": "token",
          "type": "address"
        },
        {
          "internalType": "uint256",
          "name": "amount",
          "type": "uint256"
        },
        {
          "internalType": "uint256",
          "name": "sourceChain",
          "type": "uint256"
        },
        {
          "internalType": "address",
          "name": "targetAddress",
          "type": "address"
        }
      ],
      "name": "completeBridge",
      "outputs": [],
      "stateMutability": "nonpayable",
      "type": "function"
    },
    {
      "inputs": [
        {
          "internalType": "bytes32",
          "name": "bridgeHash",
          "type": "bytes32"
        }
      ],
      "name": "getBridgeRequest",
      "outputs": [
        {
          "internalType": "address",
          "name": "user",
          "type": "address"
        },
        {
          "internalType": "address",
          "name": "token",
          "type": "address"
        },
        {
          "internalType": "uint256",
          "name": "amount",
          "type": "uint256"
        },
        {
          "internalType": "uint256",
          "name": "targetChain",
          "type": "uint256"
        },
        {
          "internalType": "address",
          "name": "targetAddress",
          "type": "address"
        },
        {
          "internalType": "uint256",
          "name": "timestamp",
          "type": "uint256"
        },
        {
          "internalType": "bool",
          "name": "completed",
          "type": "bool"
        }
      ],
      "stateMutability": "view",
      "type": "function"
    },
    {
      "inputs": [
        {
          "internalType": "address",
          "name": "user",
          "type": "address"
        }
      ],
      "name": "getUserBridges",
      "outputs": [
        {
          "internalType": "bytes32[]",
          "name": "",
          "type": "bytes32[]"
        }
      ],
      "stateMutability": "view",
      "type": "function"
    },
    {
      "inputs": [],
      "name": "maxBridgeAmount",
      "outputs": [
        {
          "internalType": "uint256",
          "name": "",
          "type": "uint256"
        }
      ],
      "stateMutability": "view",
      "type": "function"
    },
    {
      "inputs": [],
      "name": "minBridgeAmount",
      "outputs": [
        {
          "internalType": "uint256",
          "name": "",
          "type": "uint256"
        }
      ],
      "stateMutability": "view",
      "type": "function"
    },
    {
      "inputs": [
        {
          "internalType": "address",
          "name": "",
          "type": "address"
        }
      ],
      "name": "nonces",
      "outputs": [
        {
          "internalType": "uint256",
          "name": "",
          "type": "uint256"
        }
      ],
      "stateMutability": "view",
      "type": "function"
    },
    {
      "inputs": [
        {
          "internalType": "uint256",
          "name": "chainId",
          "type": "uint256"
        }
      ],
      "name": "removeSupportedChain",
      "outputs": [],
      "stateMutability": "nonpayable",
      "type": "function"
    },
    {
      "inputs": [
        {
          "internalType": "address",
          "name": "token",
          "type": "address"
        }
      ],
      "name": "removeSupportedToken",
      "outputs": [],
      "stateMutability": "nonpayable",
      "type": "function"
    },
    {
      "inputs": [
        {
          "internalType": "address",
          "name": "validator",
          "type": "address"
        }
      ],
      "name": "removeValidator",
      "outputs": [],
      "stateMutability": "nonpayable",
      "type": "function"
    },
    {
      "inputs": [
        {
          "internalType": "bytes32",
          "name": "bridgeHash",
          "type": "bytes32"
        }
      ],
      "name": "revertBridge",
      "outputs": [],
      "stateMutability": "nonpayable",
      "type": "function"
    },
    {
      "inputs": [
        {
          "internalType": "uint256",
          "name": "newFee",
          "type": "uint256"
        }
      ],
      "name": "setBridgeFee",
      "outputs": [],
      "stateMutability": "nonpayable",
      "type": "function"
    },
    {
      "inputs": [
        {
          "internalType": "uint256",
          "name": "minAmount",
          "type": "uint256"
        },
        {
          "internalType": "uint256",
          "name": "maxAmount",
          "type": "uint256"
        }
      ],
      "name": "setBridgeLimits",
      "outputs": [],
      "stateMutability": "nonpayable",
      "type": "function"
    },
    {
      "inputs": [
        {
          "internalType": "uint256",
          "name": "",
          "type": "uint256"
        }
      ],
      "name": "supportedChains",
      "outputs": [
        {
          "internalType": "bool",
          "name": "",
          "type": "bool"
        }
      ],
      "stateMutability": "view",
      "type": "function"
    },
    {
      "inputs": [
        {
          "internalType": "address",
          "name": "",
          "type": "address"
        }
      ],
      "name": "supportedTokens",
      "outputs": [
        {
          "internalType": "bool",
          "name": "",
          "type": "bool"
        }
      ],
      "stateMutability": "view",
      "type": "function"
    },
    {
      "inputs": [
        {
          "internalType": "address",
          "name": "",
          "type": "address"
        }
      ],
      "name": "validators",
      "outputs": [
        {
          "internalType": "bool",
          "name": "",
          "type": "bool"
        }
      ],
      "stateMutability": "view",
      "type": "function"
    },
    {
      "inputs": [
        {
          "internalType": "address",
          "name": "to",
          "type": "address"
        },
        {
          "internalType": "uint256",
          "name": "amount",
          "type": "uint256"
        }
      ],
      "name": "withdrawFees",
      "outputs": [],
      "stateMutability": "nonpayable",
      "type": "function"
    },
    {
      "inputs": [
        {
          "internalType": "address",
          "name": "token",
          "type": "address"
        },
        {
          "internalType": "address",
          "name": "to",
          "type": "address"
        },
        {
          "internalType": "uint256",
          "name": "amount",
          "type": "uint256"
        }
      ],
      "name": "withdrawTokenFees",
      "outputs": [],
      "stateMutability": "nonpayable",
      "type": "function"
    }
  ],
  "bytecode": "0x608080604052346100f857600580546001600160a01b0319163390811790915560009081526004602090815260408220805460ff19908116600190811790925566038d7ea4c68000600655662386f26fc1000060075569021e19e0c9bab240000060085560029092527fe90b7bceb6e7df5418fb78d8ee546e97c83a08bbccc01a0644d599ccd2a7c2e080548316821790557fcbaa359f1531c71e65ae7cc9842dd107a2ef2a5e7c27943e7cc3582371d0555080548316821790556208274f9092527f0b7844a11a34c247951929d0619a5688d503bc45284ad80a1ac4c4770e0352348054909116909117905561108190816100fe8239f35b600080fdfe6040608081526004908136101561001557600080fd5b600091823560e01c80630c4844aa14610e4257806333b15aad14610aac57806340a141ff14610a38578063492a38be1461098b5780634d238c8e14610914578063548d496f146108e857806360132c9c146108c957806360b414111461084557806368c4ac26146108075780636d69fcaf146107ba57806376319190146107705780637b6c05c11461064e5780637ecebe001461061657806382b12dd7146105f757806387188a00146105b8578063998cdf8314610589578063a0c79682146103ea578063a3e13d81146103b7578063ad3b1b4714610356578063b0dcfa8f1461022d578063c3c224751461020e578063d4b5bbc814610195578063f851a440146101685763fa52c7d81461012957600080fd5b346101645760203660031901126101645760209260ff918391906001600160a01b03610153610e7e565b168252855220541690519015158152f35b8280fd5b50503461019157816003193601126101915760055490516001600160a01b039091168152602090f35b5080fd5b509034610164576020366003190112610164578060e09383358152806020522060018060a01b039182825416938360018401541693600284015490600385015492850154169260ff600660058701549601541695815197885260208801528601526060850152608084015260a0830152151560c0820152f35b5050346101915781600319360112610191576020906007549051908152f35b50346101645760209182600319360112610352576102ce9282359133865283825261025d60ff8288205416610f7f565b828652858252808620600681016001815461027b60ff821615610fbb565b60ff191617905560018101548154600283018054855163a9059cbb60e01b81526001600160a01b03938416998101998a5260208a019190915298909791939286928a929186169183918d91839160400190565b03925af1968715610348577f37a0337ce0ca86eb888374225f4ef85e4bd484380c3a95660c12907fb04b7ec895969761030e918a9161031b575b50610f41565b541694549051908152a380f35b61033b9150863d8811610341575b6103338183610f07565b810190610f29565b38610308565b503d610329565b83513d8a823e3d90fd5b8380fd5b50503461019157806003193601126101915781808080610374610e7e565b6024359060018060a01b0361038e81600554163314610ffb565b839183156103ad575b1690f1156103a3575080f35b51903d90823e3d90fd5b6108fc9250610397565b50903461016457366003190112610191576103dd60018060a01b03600554163314610ffb565b3560075560243560085580f35b503461016457602080600319360112610352579092610407610e7e565b6001600160a01b038082168084526001808652868520549397909592909185918761044961043488611033565b976104418c51998a610f07565b808952611033565b8787019b90601f1901368d3760601b6bffffffffffffffffffffffff19169088905b6104a9575b5050505050508451948186019282875251809352850195925b8281106104965785870386f35b8351875295810195928101928401610489565b908392918a9c9a95948a98999a528589528b88205481101561057c578b848482518c8101908682528c60348201528c60488201528c60688201528c608882015285609c8201524660bc82015260dc8d81830152815261050781610ed4565b51902092838c528b8d528b20541614610535575b5061052590610eaf565b9091929394999b9897969861046b565b909550899491929394518210156105695761056282610525928f98979695948d8d9160051b010152610eaf565b949061051b565b634e487b7160e01b885260328752602488fd5b509a989a97969597610470565b838234610191576020366003190112610191576105b160018060a01b03600554163314610ffb565b3560065580f35b5034610164576020366003190112610164576105df60018060a01b03600554163314610ffb565b35825260026020528120805460ff1916600117905580f35b5050346101915781600319360112610191576020906006549051908152f35b5050346101915760203660031901126101915760209181906001600160a01b0361063e610e7e565b1681526001845220549051908152f35b50346101645760c036600319011261016457803561066a610e99565b6001600160a01b03604435818116929083900361076c57606435948760a4359184831683036101915788956107189388938a933382526106cd60ff600660209c8d99858b526106bd848389205416610f7f565b8652858a52852001541615610fbb565b8a82528186528c8220600601805460ff191660011790558c5163a9059cbb60e01b81526001600160a01b03909316908301908152602081019490945290948593849291839160400190565b03925af1908115610762577f3a5e0271cd79026f0993aa13e6dd17d1f34284aa2340c1d2c33653b9a4433ee995969791610758918a9161031b5750610f41565b519586521693a380f35b87513d8a823e3d90fd5b8680fd5b5050346101915760203660031901126101915761078b610e7e565b6005546001600160a01b0391906107a59083163314610ffb565b16825260036020528120805460ff1916905580f35b505034610191576020366003190112610191576107d5610e7e565b6005546001600160a01b0391906107ef9083163314610ffb565b16825260036020528120805460ff1916600117905580f35b5050346101915760203660031901126101915760209160ff9082906001600160a01b03610832610e7e565b1681526003855220541690519015158152f35b503461016457602036600319011261016457816101009382358152806020522060018060a01b0392838254169380600184015416936002840154916003850154918501541691600585015493600760ff60068801541696015496815198895260208901528701526060860152608085015260a0840152151560c083015260e0820152f35b5050346101915781600319360112610191576020906008549051908152f35b5034610164576020366003190112610164578160209360ff923581526002855220541690519015158152f35b509034610164576020366003190112610164577fe366c1c0452ed8eec96861e9e54141ebff23c9ec89fe27b996b45f5ec388498791602091610954610e7e565b6005546001600160a01b03919061096e9083163314610ffb565b16808652918352808520805460ff1916600117905551908152a180f35b5090346101645760603660031901126101645760206109ff926109ac610e7e565b6109b4610e99565b8660018060a01b036109cb81600554163314610ffb565b865163a9059cbb60e01b81526001600160a01b03909316948301948552604435602086015291968794859391849160400190565b0393165af1908115610a2f5750610a14575080f35b610a2b9060203d8111610341576103338183610f07565b5080f35b513d84823e3d90fd5b509034610164576020366003190112610164577fe1434e25d6611e0db941968fdc97811c982ac1602e951637d206f5fdda9dd8f191602091610a78610e7e565b6005546001600160a01b039190610a929083163314610ffb565b16808652918352808520805460ff1916905551908152a180f35b50826080366003190112610e3f57610ac2610e7e565b92602480359060449182359160649586359760018060a01b0390818a1696878b036103525786845260209a60028c5260ff8a8620541615610e0a578c6003858e9f9e9c9d9e169b8c88525260ff8c8720541615610dd4576007548810610da2576008548811610d70576006543410610d2e57918d918893338852600184528d80892090815491610b5183610eaf565b90555191858301936bffffffffffffffffffffffff198092813360601b16875260601b1660348501528760488501528d606885015260601b166088830152609c8201524660bc8201524260dc82015260dc8152610bad81610ed4565b5190209c8c519384926323b872dd60e01b84523387850152308a85015283015281878d5af1908115610d245790610bea918591610d075750610f41565b88519361010085019085821067ffffffffffffffff831117610cf6575088838693898f8f98978f898f988e9482918452338c52808c01998a52838c0195865260608c0196875260808c019a8b528d60a08d019c8d42905260c081019e8f5260e0019e8f52825252209a5116946bffffffffffffffffffffffff60a01b95868c5416178b558460018c01915116868254161790555160028a0155516003890155870192511690825416179055516005840155600683019051151560ff198254169060ff1617905551906007015584519384528684015283830152606082015282339160807fcbf1c73b5000549109ce63fa4647f09772b8d8edf2c7d3f520cc41adedbf318591a351908152f35b634e487b7160e01b85526041835284fd5b610d1e91508d803d10610341576103338183610f07565b8d610308565b8a513d86823e3d90fd5b5050895162461bcd60e51b81529182018c90526017828601527f496e73756666696369656e742062726964676520666565000000000000000000908201528990fd5b5050895162461bcd60e51b81529182018c9052600d828601526c41626f7665206d6178696d756d60981b908201528990fd5b5050895162461bcd60e51b81529182018c9052600d828601526c42656c6f77206d696e696d756d60981b908201528990fd5b5050895162461bcd60e51b81529182018c9052601182860152702ab739bab83837b93a32b2103a37b5b2b760791b908201528990fd5b50885162461bcd60e51b81529182018b9052601182860152702ab739bab83837b93a32b21031b430b4b760791b908201528890fd5b80fd5b503461016457602036600319011261016457610e6960018060a01b03600554163314610ffb565b35825260026020528120805460ff1916905580f35b600435906001600160a01b0382168203610e9457565b600080fd5b602435906001600160a01b0382168203610e9457565b6000198114610ebe5760010190565b634e487b7160e01b600052601160045260246000fd5b610100810190811067ffffffffffffffff821117610ef157604052565b634e487b7160e01b600052604160045260246000fd5b90601f8019910116810190811067ffffffffffffffff821117610ef157604052565b90816020910312610e9457518015158103610e945790565b15610f4857565b60405162461bcd60e51b815260206004820152600f60248201526e151c985b9cd9995c8819985a5b1959608a1b6044820152606490fd5b15610f8657565b60405162461bcd60e51b815260206004820152600d60248201526c2737ba103b30b634b230ba37b960991b6044820152606490fd5b15610fc257565b60405162461bcd60e51b8152602060048201526011602482015270105b1c9958591e4818dbdb5c1b195d1959607a1b6044820152606490fd5b1561100257565b60405162461bcd60e51b81526020600482015260096024820152682737ba1030b236b4b760b91b6044820152606490fd5b67ffffffffffffffff8111610ef15760051b6020019056fea2646970667358221220a77bf21a5fc9f01fc43b32bf281bed5f12ea485bf3a40fb2f8fe51868e4c8edc64736f6c63430008130033",
  "linkReferences": {},
  "deployedLinkReferences": {}
}