{
  "_format": "hh-sol-artifact-1",
  "contractName": "RentAgreement",
  "sourceName": "contracts/RentAgreement.sol",
  "abi": [
    {
      "inputs": [
        {
          "internalType": "address",
          "name": "_propertyRegistry",
          "type": "address"
        }
      ],
      "stateMutability": "nonpayable",
      "type": "constructor"
    },
    {
      "anonymous": false,
      "inputs": [
        {
          "indexed": true,
          "internalType": "uint256",
          "name": "agreementId",
          "type": "uint256"
        }
      ],
      "name": "AgreementCancelled",
      "type": "event"
    },
    {
      "anonymous": false,
      "inputs": [
        {
          "indexed": true,
          "internalType": "uint256",
          "name": "agreementId",
          "type": "uint256"
        }
      ],
      "name": "AgreementCompleted",
      "type": "event"
    },
    {
      "anonymous": false,
      "inputs": [
        {
          "indexed": true,
          "internalType": "uint256",
          "name": "agreementId",
          "type": "uint256"
        },
        {
          "indexed": true,
          "internalType": "uint256",
          "name": "propertyId",
          "type": "uint256"
        },
        {
          "indexed": false,
          "internalType": "address",
          "name": "landlord",
          "type": "address"
        },
        {
          "indexed": false,
          "internalType": "address",
          "name": "tenant",
          "type": "address"
        }
      ],
      "name": "AgreementCreated",
      "type": "event"
    },
    {
      "anonymous": false,
      "inputs": [
        {
          "indexed": true,
          "internalType": "uint256",
          "name": "agreementId",
          "type": "uint256"
        },
        {
          "indexed": true,
          "internalType": "address",
          "name": "tenant",
          "type": "address"
        },
        {
          "indexed": false,
          "internalType": "uint256",
          "name": "amount",
          "type": "uint256"
        }
      ],
      "name": "DepositRefunded",
      "type": "event"
    },
    {
      "anonymous": false,
      "inputs": [
        {
          "indexed": true,
          "internalType": "uint256",
          "name": "agreementId",
          "type": "uint256"
        },
        {
          "indexed": false,
          "internalType": "address",
          "name": "raisedBy",
          "type": "address"
        }
      ],
      "name": "DisputeRaised",
      "type": "event"
    },
    {
      "anonymous": false,
      "inputs": [
        {
          "indexed": true,
          "internalType": "uint256",
          "name": "agreementId",
          "type": "uint256"
        },
        {
          "indexed": true,
          "internalType": "address",
          "name": "tenant",
          "type": "address"
        },
        {
          "indexed": false,
          "internalType": "uint256",
          "name": "amount",
          "type": "uint256"
        }
      ],
      "name": "RentPaid",
      "type": "event"
    },
    {
      "inputs": [
        {
          "internalType": "uint256",
          "name": "",
          "type": "uint256"
        }
      ],
      "name": "agreements",
      "outputs": [
        {
          "internalType": "uint256",
          "name": "propertyId",
          "type": "uint256"
        },
        {
          "internalType": "address",
          "name": "landlord",
          "type": "address"
        },
        {
          "internalType": "address",
          "name": "tenant",
          "type": "address"
        },
        {
          "internalType": "uint256",
          "name": "rentAmount",
          "type": "uint256"
        },
        {
          "internalType": "uint256",
          "name": "securityDeposit",
          "type": "uint256"
        },
        {
          "internalType": "uint256",
          "name": "totalPaid",
          "type": "uint256"
        },
        {
          "internalType": "uint256",
          "name": "startDate",
          "type": "uint256"
        },
        {
          "internalType": "uint256",
          "name": "endDate",
          "type": "uint256"
        },
        {
          "internalType": "enum RentAgreement.AgreementStatus",
          "name": "status",
          "type": "uint8"
        },
        {
          "internalType": "bool",
          "name": "landlordConfirmed",
          "type": "bool"
        },
        {
          "internalType": "bool",
          "name": "tenantConfirmed",
          "type": "bool"
        },
        {
          "internalType": "address",
          "name": "paymentToken",
          "type": "address"
        }
      ],
      "stateMutability": "view",
      "type": "function"
    },
    {
      "inputs": [
        {
          "internalType": "uint256",
          "name": "agreementId",
          "type": "uint256"
        }
      ],
      "name": "cancelAgreement",
      "outputs": [],
      "stateMutability": "nonpayable",
      "type": "function"
    },
    {
      "inputs": [
        {
          "internalType": "uint256",
          "name": "agreementId",
          "type": "uint256"
        }
      ],
      "name": "confirmAgreement",
      "outputs": [],
      "stateMutability": "nonpayable",
      "type": "function"
    },
    {
      "inputs": [
        {
          "internalType": "uint256",
          "name": "propertyId",
          "type": "uint256"
        },
        {
          "internalType": "address",
          "name": "tenant",
          "type": "address"
        },
        {
          "internalType": "uint256",
          "name": "rentAmount",
          "type": "uint256"
        },
        {
          "internalType": "uint256",
          "name": "securityDeposit",
          "type": "uint256"
        },
        {
          "internalType": "uint256",
          "name": "startDate",
          "type": "uint256"
        },
        {
          "internalType": "uint256",
          "name": "endDate",
          "type": "uint256"
        },
        {
          "internalType": "address",
          "name": "paymentToken",
          "type": "address"
        }
      ],
      "name": "createAgreement",
      "outputs": [
        {
          "internalType": "uint256",
          "name": "",
          "type": "uint256"
        }
      ],
      "stateMutability": "nonpayable",
      "type": "function"
    },
    {
      "inputs": [
        {
          "internalType": "address",
          "name": "landlord",
          "type": "address"
        }
      ],
      "name": "getLandlordAgreements",
      "outputs": [
        {
          "internalType": "uint256[]",
          "name": "",
          "type": "uint256[]"
        }
      ],
      "stateMutability": "view",
      "type": "function"
    },
    {
      "inputs": [
        {
          "internalType": "address",
          "name": "tenant",
          "type": "address"
        }
      ],
      "name": "getTenantAgreements",
      "outputs": [
        {
          "internalType": "uint256[]",
          "name": "",
          "type": "uint256[]"
        }
      ],
      "stateMutability": "view",
      "type": "function"
    },
    {
      "inputs": [],
      "name": "nextAgreementId",
      "outputs": [
        {
          "internalType": "uint256",
          "name": "",
          "type": "uint256"
        }
      ],
      "stateMutability": "view",
      "type": "function"
    },
    {
      "inputs": [
        {
          "internalType": "uint256",
          "name": "agreementId",
          "type": "uint256"
        },
        {
          "internalType": "uint256",
          "name": "amount",
          "type": "uint256"
        }
      ],
      "name": "payRent",
      "outputs": [],
      "stateMutability": "nonpayable",
      "type": "function"
    },
    {
      "inputs": [],
      "name": "propertyRegistry",
      "outputs": [
        {
          "internalType": "contract IPropertyRegistry",
          "name": "",
          "type": "address"
        }
      ],
      "stateMutability": "view",
      "type": "function"
    },
    {
      "inputs": [
        {
          "internalType": "uint256",
          "name": "agreementId",
          "type": "uint256"
        }
      ],
      "name": "raiseDispute",
      "outputs": [],
      "stateMutability": "nonpayable",
      "type": "function"
    },
    {
      "inputs": [
        {
          "internalType": "uint256",
          "name": "agreementId",
          "type": "uint256"
        }
      ],
      "name": "releaseDeposit",
      "outputs": [],
      "stateMutability": "nonpayable",
      "type": "function"
    },
    {
      "inputs": [
        {
          "internalType": "uint256",
          "name": "",
          "type": "uint256"
        },
        {
          "internalType": "uint256",
          "name": "",
          "type": "uint256"
        }
      ],
      "name": "rentPayments",
      "outputs": [
        {
          "internalType": "bool",
          "name": "",
          "type": "bool"
        }
      ],
      "stateMutability": "view",
      "type": "function"
    }
  ],
  "bytecode": "0x60803461007457601f6111cc38819003918201601f19168301916001600160401b038311848410176100795780849260209460405283398101031261007457516001600160a01b0381169081900361007457600380546001600160a01b03191691909117905560405161113c90816100908239f35b600080fd5b634e487b7160e01b600052604160045260246000fdfe608080604052600436101561001357600080fd5b60003560e01c90816326b703a714610f0e57508063448db2f614610e335780635686b54b14610d765780637c05798c14610c5257806387f98ca91461086b5780638aed078d14610784578063a0f109c5146104a0578063a5c1674e146103f9578063bd14de9614610333578063c9b99dab14610315578063d064fbe8146102dd5763fc2bf8f0146100a357600080fd5b34610237576100b136610f83565b90806000526020600081526040600020600881015460ff811660058110156102c75760016100df9114611048565b60028201546001600160a01b0391908216330361028c576003830154860361024f576000916064859260405194859384926323b872dd60e01b84523360048501523060248501528b604485015260181c165af190811561024357600091610209575b50156101d357600581019081548581018091116101bd576006925501544203904282116101bd577f63e55317e25c0cab3a2de23ee0e244496daea0c1c2b8e272bbc01722b96bb9ae91836000526001825262278d006040600020910460005281526040600020600160ff198254161790556040519384523393a3005b634e487b7160e01b600052601160045260246000fd5b60405162461bcd60e51b815260048101839052600e60248201526d14185e5b595b9d0819985a5b195960921b6044820152606490fd5b90508281813d831161023c575b6102208183610f99565b81010312610237576102319061102c565b38610141565b600080fd5b503d610216565b6040513d6000823e3d90fd5b60405162461bcd60e51b8152600481018590526015602482015274125b98dbdc9c9958dd081c995b9d08185b5bdd5b9d605a1b6044820152606490fd5b60405162461bcd60e51b81526004810185905260136024820152724f6e6c792074656e616e742063616e2070617960681b6044820152606490fd5b634e487b7160e01b600052602160045260246000fd5b34610237576102eb36610f83565b906000526001602052604060002090600052602052602060ff604060002054166040519015158152f35b34610237576000366003190112610237576020600254604051908152f35b346102375760203660031901126102375760043560005260006020526040600020805460018060a01b038060018401541692816002820154169060038101546004820154600583015490600684015492600860078601549501549560ff871699604051998a5260208a015260408901526060880152608087015260a086015260c085015260e084015260058410156102c7576101809361010084015260ff8160081c16151561012084015260ff8160101c16151561014084015260181c16610160820152f35b34610237576020366003190112610237576004358060005260006020526008604060002061043e60018060a01b03806001840154163314908115610490575b5061108b565b01805460ff81169060058210156102c75761045d600160049314611048565b60ff19161790557f84a477df8a28a4276ca6dee4458a06c3015f30c477d9c949ede4e13ff8a552b46020604051338152a2005b9050600283015416331485610438565b346102375760208060031936011261023757600435908160005260008152604060002090600882019182549060ff821660058110156102c75760016104e59114611048565b60078101544210610749576001810180546001600160a01b0393919291908416330361070457839060181c166005820154916004810154908161061b575b50508161055e575b855460ff19166002178655867f5a098ab2367201784eb2ad9b7e2f0d916557002385b83ddcc19293f40c4e0ed0600080a2005b915460405163a9059cbb60e01b815293166001600160a01b03166004840152602483015282908290816000816044810103925af1908115610243576000916105e6575b50156105b0578080808061052b565b6064906040519062461bcd60e51b82526004820152600f60248201526e151c985b9cd9995c8819985a5b1959608a1b6044820152fd5b90508181813d8311610614575b6105fd8183610f99565b810103126102375761060e9061102c565b846105a1565b503d6105f3565b600201805460405163a9059cbb60e01b81529087166001600160a01b031660048201526024810183905287816044816000885af1908115610243576000916106cf575b501561069a577f69187e59ebb7ab44cba5434886e4e6cde1412568f3483279dc99de772cb2540587878b93541693604051908152a38780610523565b60405162461bcd60e51b815260048101889052600d60248201526c1499599d5b990819985a5b1959609a1b6044820152606490fd5b90508781813d83116106fd575b6106e68183610f99565b81010312610237576106f79061102c565b8a61065e565b503d6106dc565b60405162461bcd60e51b815260048101869052601960248201527f4f6e6c79206c616e646c6f72642063616e2072656c65617365000000000000006044820152606490fd5b60405162461bcd60e51b81526004810184905260136024820152721059dc99595b595b9d081b9bdd08195b991959606a1b6044820152606490fd5b34610237576020806003193601126102375761079e610f32565b60028054909290916001600160a01b03908116906000805b85811061082f57506107c7906110aa565b9460009360005b8681106107e757604051806107e38a82610f48565b0390f35b806000526000825284848460406000200154161461080e575b61080990611039565b6107ce565b946108278187610821610809948c6110dc565b52611039565b959050610800565b8060005260008552838388604060002001541614610856575b61085190611039565b6107b6565b9061086361085191611039565b919050610848565b346102375760e0366003190112610237576024356001600160a01b03811690600435908290036102375760a4359060843560c4356001600160a01b038116810361023757600354604051631ef6210160e31b81526004810185905290600090829060249082906001600160a01b03165afa90811561024357600090600092610bb7575b50336001600160a01b0390911603610b7d5715610b42578415610b0c5783821015610ad7576002549361092085611039565b60025560405192610180840184811067ffffffffffffffff821117610ac15760405284845233602085015286604085015260443560608501526064356080850152600060a085015260c084015260e083015260006101008301526000610120830152600061014083015260018060a01b031661016082015282600052600060205260086040600020825181556001810160018060a01b03602085015116906bffffffffffffffffffffffff60a01b9182825416179055600282019060018060a01b0360408601511690825416179055606083015160038201556080830151600482015560a0830151600582015560c0830151600682015560e0830151600782015501906101008101519060058210156102c757602095837fbccc93ea525c74213effe313cf29be12baa866b0a54b80532bfa465876a177459360409388965461ff00610120830151151560081b169060ff62ff0000610140850151151560101b16936101606301000000600160b81b0391015160181b1694169068ffffffffffffffffff60b81b1617171717905581519033825287820152a3604051908152f35b634e487b7160e01b600052604160045260246000fd5b60405162461bcd60e51b815260206004820152600d60248201526c496e76616c696420646174657360981b6044820152606490fd5b60405162461bcd60e51b815260206004820152600e60248201526d125b9d985b1a59081d195b985b9d60921b6044820152606490fd5b60405162461bcd60e51b815260206004820152601360248201527250726f7065727479206e6f742061637469766560681b6044820152606490fd5b60405162461bcd60e51b81526020600482015260126024820152712737ba10383937b832b93a3c9037bbb732b960711b6044820152606490fd5b9150503d806000833e610bca8183610f99565b81019060e081830312610237578051916001600160a01b03831683036102375760208201519167ffffffffffffffff928381116102375782610c0d918301610fbb565b5060608101518381116102375782610c26918301610fbb565b50608081015192831161023757610c4460a092610c4b948301610fbb565b500161102c565b90876108ee565b346102375760203660031901126102375760043560005260006020526040600020600881019081549060ff821660058110156102c757610d405760018101546001600160a01b0391903390831603610ce2575050815461ff001916610100178255505b805460ff8160081c1680610cd5575b610cca57005b60ff19166001179055005b5060ff8160101c16610cc4565b60020154163314600014610d025762ff0000191662010000178155610cb5565b60405162461bcd60e51b8152602060048201526016602482015275139bdd081c185c9d1e481d1bc81859dc99595b595b9d60521b6044820152606490fd5b60405162461bcd60e51b815260206004820152600e60248201526d496e76616c69642073746174757360901b6044820152606490fd5b346102375760203660031901126102375760043580600052600060205260086040600020610dba60018060a01b03806001840154163314908115610490575061108b565b01805460ff811660058110156102c757610dfe5760ff191660031790557f0cae0523c4d6568388c55dcaeb921d927527a60000ca46adffedddf87225f0ec600080a2005b60405162461bcd60e51b815260206004820152600d60248201526c10d85b9b9bdd0818d85b98d95b609a1b6044820152606490fd5b346102375760208060031936011261023757610e4d610f32565b6002546001600160a01b0392909183166000805b848110610ed15750610e72906110aa565b9360009260005b858110610e8e57604051806107e38982610f48565b806000526000825283836001604060002001541614610eb6575b610eb190611039565b610e79565b93610ec98186610821610eb1948b6110dc565b949050610ea8565b806000526000845282866001604060002001541614610ef9575b610ef490611039565b610e61565b90610f06610ef491611039565b919050610eeb565b34610237576000366003190112610237576003546001600160a01b03168152602090f35b600435906001600160a01b038216820361023757565b6020908160408183019282815285518094520193019160005b828110610f6f575050505090565b835185529381019392810192600101610f61565b6040906003190112610237576004359060243590565b90601f8019910116810190811067ffffffffffffffff821117610ac157604052565b919080601f840112156102375782519067ffffffffffffffff8211610ac15760405191602091610ff4601f8301601f1916840185610f99565b8184528282870101116102375760005b81811061101957508260009394955001015290565b8581018301518482018401528201611004565b5190811515820361023757565b60001981146101bd5760010190565b1561104f57565b60405162461bcd60e51b815260206004820152601460248201527341677265656d656e74206e6f742061637469766560601b6044820152606490fd5b15610d0257565b67ffffffffffffffff8111610ac15760051b60200190565b906110b482611092565b6110c16040519182610f99565b82815280926110d2601f1991611092565b0190602036910137565b80518210156110f05760209160051b010190565b634e487b7160e01b600052603260045260246000fdfea2646970667358221220d10a2b8c63cb6395077d534a7dc3bad5134c9fd999cb637825ca5a324241bd2c64736f6c63430008130033",
  "linkReferences": {},
  "deployedLinkReferences": {}
}