{
  "_format": "hh-sol-artifact-1",
  "contractName": "RentChainUpgradeable",
  "sourceName": "contracts/RentChainUpgradeable.sol",
  "abi": [
    {
      "inputs": [],
      "stateMutability": "nonpayable",
      "type": "constructor"
    },
    {
      "anonymous": false,
      "inputs": [
        {
          "indexed": false,
          "internalType": "address",
          "name": "previousAdmin",
          "type": "address"
        },
        {
          "indexed": false,
          "internalType": "address",
          "name": "newAdmin",
          "type": "address"
        }
      ],
      "name": "AdminChanged",
      "type": "event"
    },
    {
      "anonymous": false,
      "inputs": [
        {
          "indexed": true,
          "internalType": "bytes4",
          "name": "functionSelector",
          "type": "bytes4"
        },
        {
          "indexed": false,
          "internalType": "address",
          "name": "delegatedTo",
          "type": "address"
        }
      ],
      "name": "FunctionDelegated",
      "type": "event"
    },
    {
      "anonymous": false,
      "inputs": [
        {
          "indexed": true,
          "internalType": "address",
          "name": "implementation",
          "type": "address"
        }
      ],
      "name": "Upgraded",
      "type": "event"
    },
    {
      "anonymous": false,
      "inputs": [
        {
          "indexed": false,
          "internalType": "address",
          "name": "upgrader",
          "type": "address"
        },
        {
          "indexed": false,
          "internalType": "bool",
          "name": "authorized",
          "type": "bool"
        }
      ],
      "name": "UpgraderAuthorized",
      "type": "event"
    },
    {
      "stateMutability": "payable",
      "type": "fallback"
    },
    {
      "inputs": [],
      "name": "acceptAdmin",
      "outputs": [],
      "stateMutability": "nonpayable",
      "type": "function"
    },
    {
      "inputs": [],
      "name": "admin",
      "outputs": [
        {
          "internalType": "address",
          "name": "",
          "type": "address"
        }
      ],
      "stateMutability": "view",
      "type": "function"
    },
    {
      "inputs": [
        {
          "internalType": "address",
          "name": "upgrader",
          "type": "address"
        },
        {
          "internalType": "bool",
          "name": "authorized",
          "type": "bool"
        }
      ],
      "name": "authorizeUpgrader",
      "outputs": [],
      "stateMutability": "nonpayable",
      "type": "function"
    },
    {
      "inputs": [
        {
          "internalType": "address",
          "name": "",
          "type": "address"
        }
      ],
      "name": "authorizedUpgraders",
      "outputs": [
        {
          "internalType": "bool",
          "name": "",
          "type": "bool"
        }
      ],
      "stateMutability": "view",
      "type": "function"
    },
    {
      "inputs": [
        {
          "internalType": "bytes4",
          "name": "functionSelector",
          "type": "bytes4"
        },
        {
          "internalType": "address",
          "name": "to",
          "type": "address"
        }
      ],
      "name": "delegateFunction",
      "outputs": [],
      "stateMutability": "nonpayable",
      "type": "function"
    },
    {
      "inputs": [
        {
          "internalType": "bytes4",
          "name": "",
          "type": "bytes4"
        }
      ],
      "name": "delegatedFunctions",
      "outputs": [
        {
          "internalType": "address",
          "name": "",
          "type": "address"
        }
      ],
      "stateMutability": "view",
      "type": "function"
    },
    {
      "inputs": [
        {
          "internalType": "bytes4",
          "name": "functionSelector",
          "type": "bytes4"
        }
      ],
      "name": "getFunctionDelegate",
      "outputs": [
        {
          "internalType": "address",
          "name": "",
          "type": "address"
        }
      ],
      "stateMutability": "view",
      "type": "function"
    },
    {
      "inputs": [],
      "name": "implementation",
      "outputs": [
        {
          "internalType": "address",
          "name": "",
          "type": "address"
        }
      ],
      "stateMutability": "view",
      "type": "function"
    },
    {
      "inputs": [
        {
          "internalType": "address",
          "name": "_implementation",
          "type": "address"
        }
      ],
      "name": "initialize",
      "outputs": [],
      "stateMutability": "nonpayable",
      "type": "function"
    },
    {
      "inputs": [],
      "name": "initialized",
      "outputs": [
        {
          "internalType": "bool",
          "name": "",
          "type": "bool"
        }
      ],
      "stateMutability": "view",
      "type": "function"
    },
    {
      "inputs": [
        {
          "internalType": "address",
          "name": "upgrader",
          "type": "address"
        }
      ],
      "name": "isAuthorizedUpgrader",
      "outputs": [
        {
          "internalType": "bool",
          "name": "",
          "type": "bool"
        }
      ],
      "stateMutability": "view",
      "type": "function"
    },
    {
      "inputs": [],
      "name": "pendingAdmin",
      "outputs": [
        {
          "internalType": "address",
          "name": "",
          "type": "address"
        }
      ],
      "stateMutability": "view",
      "type": "function"
    },
    {
      "inputs": [
        {
          "internalType": "address",
          "name": "newAdmin",
          "type": "address"
        }
      ],
      "name": "transferAdmin",
      "outputs": [],
      "stateMutability": "nonpayable",
      "type": "function"
    },
    {
      "inputs": [
        {
          "internalType": "bytes4",
          "name": "functionSelector",
          "type": "bytes4"
        }
      ],
      "name": "undelegateFunction",
      "outputs": [],
      "stateMutability": "nonpayable",
      "type": "function"
    },
    {
      "inputs": [
        {
          "internalType": "address",
          "name": "newImplementation",
          "type": "address"
        }
      ],
      "name": "upgradeTo",
      "outputs": [],
      "stateMutability": "nonpayable",
      "type": "function"
    },
    {
      "inputs": [
        {
          "internalType": "address",
          "name": "newImplementation",
          "type": "address"
        },
        {
          "internalType": "bytes",
          "name": "data",
          "type": "bytes"
        }
      ],
      "name": "upgradeToAndCall",
      "outputs": [],
      "stateMutability": "nonpayable",
      "type": "function"
    },
    {
      "stateMutability": "payable",
      "type": "receive"
    }
  ],
  "bytecode": "0x6080806040523461004357600180546001600160a01b0319163390811782556000908152600460205260409020805460ff1916909117905561097290816100498239f35b600080fdfe60806040908082526004908136101561010d575b50361561010b57600080356001600160e01b031916815260036020528281205481906001600160a01b039081169081156100a357508451368382378036810184815203915af461006161081e565b501561006957005b6020606492519162461bcd60e51b8352820152601560248201527411195b1959d85d19590818d85b1b0819985a5b1959605a1b6044820152fd5b90508154168451368382378036810184815203915af46100c161081e565b50156100c957005b6020606492519162461bcd60e51b8352820152601a60248201527f496d706c656d656e746174696f6e2063616c6c206661696c65640000000000006044820152fd5b005b600090813560e01c9081630e18b6811461070257508063158ef93e146106db57806326782247146106b25780632d32b5ea146104265780633659cfe6146106595780634f1ef2861461055d5780635c60da1b146105355780636a3c1525146104f75780636b4cda0b146104f757806375829def14610469578063801c6e9914610426578063c4d66de814610391578063c82e326214610313578063cd9ed6a414610283578063dc9dda4e146101f25763f851a440036100135782346101ee57816003193601126101ee5760015490516001600160a01b039091168152602090f35b5080fd5b50913461027f578060031936011261027f5761020c6107cb565b9160243580151580910361027b576001547f54b5b665abb1da59fab755003ae5bfa11c59bfdfe07b08f54767f318ff5c1174946001600160a01b03916102559083163314610904565b169182865260205282852060ff1981541660ff831617905582519182526020820152a180f35b8480fd5b8280fd5b5082346101ee57806003193601126101ee5761029d6107af565b6001600160a01b036024358181169081900361027b577fea31665be41daef0fe9f0a65c4f3e06410703f35b660e894e494a304aad0580c926102e6602093600154163314610904565b6001600160e01b0319168086526003835284862080546001600160a01b031916831790559351908152a280f35b5082346101ee5760203660031901126101ee577fea31665be41daef0fe9f0a65c4f3e06410703f35b660e894e494a304aad0580c60206103516107af565b61036660018060a01b03600154163314610904565b6001600160e01b0319168085526003825283852080546001600160a01b03191690559251848152a280f35b5091903461027f57602036600319011261027f576103ad6107cb565b906002549260ff8460a01c166103ed57505082546001600160a01b0319166001600160a01b039190911617825560ff60a01b1916600160a01b1760025580f35b906020606492519162461bcd60e51b83528201526013602482015272105b1c9958591e481a5b9a5d1a585b1a5e9959606a1b6044820152fd5b5082346101ee5760203660031901126101ee576020916001600160e01b031961044d6107af565b168152600383528190205490516001600160a01b039091168152f35b5091903461027f57602036600319011261027f576104856107cb565b6001546001600160a01b03919061049f9083163314610904565b169182156104c45750506bffffffffffffffffffffffff60a01b600254161760025580f35b906020606492519162461bcd60e51b8352820152600d60248201526c24b73b30b634b21030b236b4b760991b6044820152fd5b5091903461027f57602036600319011261027f5760209260ff918391906001600160a01b036105246107cb565b168252855220541690519015158152f35b5082346101ee57816003193601126101ee57905490516001600160a01b039091168152602090f35b50913461027f578060031936011261027f57826105786107cb565b6024359067ffffffffffffffff808311610655573660238401121561065557828601359081116106555736602482850101116106555783926024913385528760205260ff87862054168015610641575b6105d1906107e1565b6105da8461087f565b808751938493018337810184815203915af46105f461081e565b50156105fe578280f35b906020606492519162461bcd60e51b8352820152601a60248201527f496e697469616c697a6174696f6e2063616c6c206661696c65640000000000006044820152fd5b506001546001600160a01b031633146105c8565b8380fd5b5091903461027f57602036600319011261027f5760ff61069b9261067b6107cb565b9233865260205284205416801561069e575b610696906107e1565b61087f565b80f35b506001546001600160a01b0316331461068d565b5082346101ee57816003193601126101ee5760025490516001600160a01b039091168152602090f35b5082346101ee57816003193601126101ee5760209060ff60025460a01c1690519015158152f35b90508383346106555783600319360112610655576002549160018060a01b03938484169283330361077a5750507f7e644d79422f17c01e4894b5f4f588d331ebfa28653d42ae832dc59e38c9798f906001549481519086168152836020820152a16001600160a01b0319928316176001551660025580f35b62461bcd60e51b825260209082015260116024820152702737ba103832b73234b7339030b236b4b760791b6044820152606490fd5b600435906001600160e01b0319821682036107c657565b600080fd5b600435906001600160a01b03821682036107c657565b156107e857565b60405162461bcd60e51b815260206004820152600e60248201526d139bdd08185d5d1a1bdc9a5e995960921b6044820152606490fd5b3d1561087a5767ffffffffffffffff903d8281116108645760405192601f8201601f19908116603f01168401908111848210176108645760405282523d6000602084013e565b634e487b7160e01b600052604160045260246000fd5b606090565b6001600160a01b031680156108c657600080546001600160a01b031916821781557fbc7cd75a20ee27fd9adebab32041f755214dbc6bffa90cc0225b39da2e5c2d3b9080a2565b60405162461bcd60e51b815260206004820152601660248201527524b73b30b634b21034b6b83632b6b2b73a30ba34b7b760511b6044820152606490fd5b1561090b57565b60405162461bcd60e51b81526020600482015260096024820152682737ba1030b236b4b760b91b6044820152606490fdfea2646970667358221220fa73040ad17d55fb74d6bc227b562fe58b21fdf4f6b2545c09e1818b154d8bb464736f6c63430008130033",
  "linkReferences": {},
  "deployedLinkReferences": {}
}