{
  "_format": "hh-sol-artifact-1",
  "contractName": "RentChainToken",
  "sourceName": "contracts/RentChainToken.sol",
  "abi": [
    {
      "inputs": [],
      "stateMutability": "nonpayable",
      "type": "constructor"
    },
    {
      "anonymous": false,
      "inputs": [
        {
          "indexed": true,
          "internalType": "address",
          "name": "owner",
          "type": "address"
        },
        {
          "indexed": true,
          "internalType": "address",
          "name": "spender",
          "type": "address"
        },
        {
          "indexed": false,
          "internalType": "uint256",
          "name": "value",
          "type": "uint256"
        }
      ],
      "name": "Approval",
      "type": "event"
    },
    {
      "anonymous": false,
      "inputs": [
        {
          "indexed": true,
          "internalType": "address",
          "name": "from",
          "type": "address"
        },
        {
          "indexed": false,
          "internalType": "uint256",
          "name": "value",
          "type": "uint256"
        }
      ],
      "name": "Burn",
      "type": "event"
    },
    {
      "anonymous": false,
      "inputs": [
        {
          "indexed": true,
          "internalType": "address",
          "name": "to",
          "type": "address"
        },
        {
          "indexed": false,
          "internalType": "uint256",
          "name": "value",
          "type": "uint256"
        }
      ],
      "name": "Mint",
      "type": "event"
    },
    {
      "anonymous": false,
      "inputs": [
        {
          "indexed": true,
          "internalType": "address",
          "name": "minter",
          "type": "address"
        }
      ],
      "name": "MinterAdded",
      "type": "event"
    },
    {
      "anonymous": false,
      "inputs": [
        {
          "indexed": true,
          "internalType": "address",
          "name": "minter",
          "type": "address"
        }
      ],
      "name": "MinterRemoved",
      "type": "event"
    },
    {
      "anonymous": false,
      "inputs": [
        {
          "indexed": true,
          "internalType": "address",
          "name": "from",
          "type": "address"
        },
        {
          "indexed": true,
          "internalType": "address",
          "name": "to",
          "type": "address"
        },
        {
          "indexed": false,
          "internalType": "uint256",
          "name": "value",
          "type": "uint256"
        }
      ],
      "name": "Transfer",
      "type": "event"
    },
    {
      "inputs": [
        {
          "internalType": "address",
          "name": "minter",
          "type": "address"
        }
      ],
      "name": "addMinter",
      "outputs": [],
      "stateMutability": "nonpayable",
      "type": "function"
    },
    {
      "inputs": [
        {
          "internalType": "address",
          "name": "",
          "type": "address"
        },
        {
          "internalType": "address",
          "name": "",
          "type": "address"
        }
      ],
      "name": "allowance",
      "outputs": [
        {
          "internalType": "uint256",
          "name": "",
          "type": "uint256"
        }
      ],
      "stateMutability": "view",
      "type": "function"
    },
    {
      "inputs": [
        {
          "internalType": "address",
          "name": "spender",
          "type": "address"
        },
        {
          "internalType": "uint256",
          "name": "value",
          "type": "uint256"
        }
      ],
      "name": "approve",
      "outputs": [
        {
          "internalType": "bool",
          "name": "",
          "type": "bool"
        }
      ],
      "stateMutability": "nonpayable",
      "type": "function"
    },
    {
      "inputs": [
        {
          "internalType": "address",
          "name": "",
          "type": "address"
        }
      ],
      "name": "balanceOf",
      "outputs": [
        {
          "internalType": "uint256",
          "name": "",
          "type": "uint256"
        }
      ],
      "stateMutability": "view",
      "type": "function"
    },
    {
      "inputs": [
        {
          "internalType": "uint256",
          "name": "value",
          "type": "uint256"
        }
      ],
      "name": "burn",
      "outputs": [],
      "stateMutability": "nonpayable",
      "type": "function"
    },
    {
      "inputs": [],
      "name": "decimals",
      "outputs": [
        {
          "internalType": "uint8",
          "name": "",
          "type": "uint8"
        }
      ],
      "stateMutability": "view",
      "type": "function"
    },
    {
      "inputs": [
        {
          "internalType": "address",
          "name": "spender",
          "type": "address"
        },
        {
          "internalType": "uint256",
          "name": "subtractedValue",
          "type": "uint256"
        }
      ],
      "name": "decreaseAllowance",
      "outputs": [
        {
          "internalType": "bool",
          "name": "",
          "type": "bool"
        }
      ],
      "stateMutability": "nonpayable",
      "type": "function"
    },
    {
      "inputs": [
        {
          "internalType": "address",
          "name": "spender",
          "type": "address"
        },
        {
          "internalType": "uint256",
          "name": "addedValue",
          "type": "uint256"
        }
      ],
      "name": "increaseAllowance",
      "outputs": [
        {
          "internalType": "bool",
          "name": "",
          "type": "bool"
        }
      ],
      "stateMutability": "nonpayable",
      "type": "function"
    },
    {
      "inputs": [],
      "name": "maxSupply",
      "outputs": [
        {
          "internalType": "uint256",
          "name": "",
          "type": "uint256"
        }
      ],
      "stateMutability": "view",
      "type": "function"
    },
    {
      "inputs": [
        {
          "internalType": "address",
          "name": "to",
          "type": "address"
        },
        {
          "internalType": "uint256",
          "name": "value",
          "type": "uint256"
        }
      ],
      "name": "mint",
      "outputs": [],
      "stateMutability": "nonpayable",
      "type": "function"
    },
    {
      "inputs": [
        {
          "internalType": "address",
          "name": "",
          "type": "address"
        }
      ],
      "name": "minters",
      "outputs": [
        {
          "internalType": "bool",
          "name": "",
          "type": "bool"
        }
      ],
      "stateMutability": "view",
      "type": "function"
    },
    {
      "inputs": [],
      "name": "name",
      "outputs": [
        {
          "internalType": "string",
          "name": "",
          "type": "string"
        }
      ],
      "stateMutability": "view",
      "type": "function"
    },
    {
      "inputs": [],
      "name": "owner",
      "outputs": [
        {
          "internalType": "address",
          "name": "",
          "type": "address"
        }
      ],
      "stateMutability": "view",
      "type": "function"
    },
    {
      "inputs": [
        {
          "internalType": "address",
          "name": "minter",
          "type": "address"
        }
      ],
      "name": "removeMinter",
      "outputs": [],
      "stateMutability": "nonpayable",
      "type": "function"
    },
    {
      "inputs": [],
      "name": "symbol",
      "outputs": [
        {
          "internalType": "string",
          "name": "",
          "type": "string"
        }
      ],
      "stateMutability": "view",
      "type": "function"
    },
    {
      "inputs": [],
      "name": "totalSupply",
      "outputs": [
        {
          "internalType": "uint256",
          "name": "",
          "type": "uint256"
        }
      ],
      "stateMutability": "view",
      "type": "function"
    },
    {
      "inputs": [
        {
          "internalType": "address",
          "name": "to",
          "type": "address"
        },
        {
          "internalType": "uint256",
          "name": "value",
          "type": "uint256"
        }
      ],
      "name": "transfer",
      "outputs": [
        {
          "internalType": "bool",
          "name": "",
          "type": "bool"
        }
      ],
      "stateMutability": "nonpayable",
      "type": "function"
    },
    {
      "inputs": [
        {
          "internalType": "address",
          "name": "from",
          "type": "address"
        },
        {
          "internalType": "address",
          "name": "to",
          "type": "address"
        },
        {
          "internalType": "uint256",
          "name": "value",
          "type": "uint256"
        }
      ],
      "name": "transferFrom",
      "outputs": [
        {
          "internalType": "bool",
          "name": "",
          "type": "bool"
        }
      ],
      "stateMutability": "nonpayable",
      "type": "function"
    }
  ],
  "bytecode": "0x60808060405234610056576b033b2e3c9fd0803ce8000000600555600480546001600160a01b031916339081179091556000908152600360205260408120805460ff191660011790558055610a98908161005c8239f35b600080fdfe608060408181526004918236101561001657600080fd5b600092833560e01c91826306fdde03146108ca57508163095ea7b31461085957816318160ddd1461083c57816323b872dd146107305781633092afd5146106c5578163313ce567146106a9578163395093511461061e57816340c10f19146104e15783826342966c68146104455750816370a082311461040d5781638da5cb5b146103e557816395d89b4114610381578163983b2d561461030f578163a457c2d71461022157508063a9059cbb14610193578063d5abeb0114610175578063dd62ed3e1461012d5763f46eccc4146100ed57600080fd5b346101295760203660031901126101295760209160ff9082906001600160a01b03610116610966565b1681526003855220541690519015158152f35b5080fd5b50346101295780600319360112610129578060209261014a610966565b610152610981565b6001600160a01b0391821683526002865283832091168252845220549051908152f35b50346101295781600319360112610129576020906005549051908152f35b50346101295780600319360112610129576020916101af610966565b8260243591338452600186526101ca83838620541015610997565b338452600186528184206101df8482546109da565b90556001600160a01b031680845260018652922080546102009083906109fd565b90558251908152600080516020610a43833981519152843392a35160018152f35b82843461030c578160031936011261030c5761023b610966565b90602435338252602094600286528483209360018060a01b031693848452865284832054908282106102c95750849291610274916109da565b33825260028652828220848352865282822055338152600285528181208382528552205482519081527f8c5be1e5ebec7d5bd14f71427d1e84f3dd0314c0f7b2291e5b200ac8c7c3b925843392a35160018152f35b855162461bcd60e51b8152908101879052601e60248201527f44656372656173656420616c6c6f77616e63652062656c6f77207a65726f00006044820152606490fd5b80fd5b90503461037d57602036600319011261037d5761032a610966565b61033f60018060a01b03809354163314610a0a565b168083526003602052908220805460ff191660011790557f6ae172837ea30b801fbfcdd4108aa1d5bf8ff775444fd70256b44e6bf3dfc3f68280a280f35b8280fd5b8383346101295781600319360112610129578051918183019083821067ffffffffffffffff8311176103d25750926103ce9382528252631491539560e21b6020830152519182918261091d565b0390f35b634e487b7160e01b815260418552602490fd5b90503461037d578260031936011261037d575490516001600160a01b03909116815260209150f35b5050346101295760203660031901126101295760209181906001600160a01b03610435610966565b1681526001845220549051908152f35b929150346104dd5760203660031901126104dd573590338352600160205261047282828520541015610997565b33835260016020528083206104888382546109da565b90556104958284546109da565b835580518281527fcc16f5dbb4873280815c1ee09dbd06736cffcc184412cf7a71a0fdb75d397ca560203392a251908152600080516020610a4383398151915260203392a380f35b5050fd5b90503461037d578160031936011261037d576104fb610966565b602435903385526020926003845260ff8587205416801561060b575b156105db5785549061052984836109fd565b600554106105a257509185939161054f82600080516020610a43833981519152956109fd565b855560018060a01b0316948585526001835280852061056f8382546109fd565b9055857f0f6798a560793a54c3bcfe86a93cde1e73087d944c0ea20544137d4121396885848351858152a251908152a380f35b855162461bcd60e51b8152908101859052601360248201527213585e081cdd5c1c1b1e48195e18d959591959606a1b6044820152606490fd5b845162461bcd60e51b8152908101849052600a6024820152692737ba1036b4b73a32b960b11b6044820152606490fd5b5080546001600160a01b03163314610517565b505034610129578060031936011261012957610638610966565b33835281602093600285528181209260018060a01b031692838252855281812061066560243582546109fd565b9055338152600285528181208382528552205482519081527f8c5be1e5ebec7d5bd14f71427d1e84f3dd0314c0f7b2291e5b200ac8c7c3b925843392a35160018152f35b5050346101295781600319360112610129576020905160128152f35b90503461037d57602036600319011261037d576106e0610966565b6106f560018060a01b03809354163314610a0a565b168083526003602052908220805460ff191690557fe94479a9f7e1952cc78f2d6baab678adc1b772d936c6583def489e524cb666928280a280f35b82843461030c57606036600319011261030c5761074b610966565b610753610981565b906044359060018060a01b03809116928385526020966001885261077c84888820541015610997565b848652600288528686203387528852838787205410610804575091858792600080516020610a4383398151915294868852600185528288206107bf8582546109da565b90551695868152600184528181206107d88482546109fd565b9055858152600284528181203382528452206107f58282546109da565b90558551908152a35160018152f35b865162461bcd60e51b81529081018890526012602482015271105b1b1bddd85b98d948195e18d95959195960721b6044820152606490fd5b505034610129578160031936011261012957602091549051908152f35b50503461012957806003193601126101295760209181610877610966565b91602435918291338152600287528181209460018060a01b0316948582528752205582519081527f8c5be1e5ebec7d5bd14f71427d1e84f3dd0314c0f7b2291e5b200ac8c7c3b925843392a35160018152f35b83853461030c578060031936011261030c578183019083821067ffffffffffffffff8311176103d257506103ce93508152600f82526e2932b73a21b430b4b7102a37b5b2b760891b602083015251918291825b6020808252825181830181905290939260005b82811061095257505060409293506000838284010152601f8019910116010190565b818101860151848201604001528501610930565b600435906001600160a01b038216820361097c57565b600080fd5b602435906001600160a01b038216820361097c57565b1561099e57565b60405162461bcd60e51b8152602060048201526014602482015273496e73756666696369656e742062616c616e636560601b6044820152606490fd5b919082039182116109e757565b634e487b7160e01b600052601160045260246000fd5b919082018092116109e757565b15610a1157565b60405162461bcd60e51b81526020600482015260096024820152682737ba1037bbb732b960b91b6044820152606490fdfeddf252ad1be2c89b69c2b068fc378daa952ba7f163c4a11628f55a4df523b3efa2646970667358221220c5698d936bb4b6fa1647f41c5a6019ef466ec50f4007c2c8b40143b2cf2bb20864736f6c63430008130033",
  "linkReferences": {},
  "deployedLinkReferences": {}
}