{
  "_format": "hh-sol-artifact-1",
  "contractName": "PaymentProcessor",
  "sourceName": "contracts/PaymentProcessor.sol",
  "abi": [
    {
      "inputs": [],
      "stateMutability": "nonpayable",
      "type": "constructor"
    },
    {
      "anonymous": false,
      "inputs": [
        {
          "indexed": true,
          "internalType": "uint256",
          "name": "paymentId",
          "type": "uint256"
        },
        {
          "indexed": true,
          "internalType": "address",
          "name": "from",
          "type": "address"
        },
        {
          "indexed": true,
          "internalType": "address",
          "name": "to",
          "type": "address"
        },
        {
          "indexed": false,
          "internalType": "uint256",
          "name": "amount",
          "type": "uint256"
        }
      ],
      "name": "PaymentProcessed",
      "type": "event"
    },
    {
      "anonymous": false,
      "inputs": [
        {
          "indexed": false,
          "internalType": "address",
          "name": "token",
          "type": "address"
        },
        {
          "indexed": false,
          "internalType": "bool",
          "name": "supported",
          "type": "bool"
        }
      ],
      "name": "TokenSupported",
      "type": "event"
    },
    {
      "inputs": [
        {
          "internalType": "address[]",
          "name": "recipients",
          "type": "address[]"
        },
        {
          "internalType": "uint256[]",
          "name": "amounts",
          "type": "uint256[]"
        },
        {
          "internalType": "address",
          "name": "token",
          "type": "address"
        },
        {
          "internalType": "string",
          "name": "description",
          "type": "string"
        }
      ],
      "name": "batchPayments",
      "outputs": [
        {
          "internalType": "uint256[]",
          "name": "",
          "type": "uint256[]"
        }
      ],
      "stateMutability": "nonpayable",
      "type": "function"
    },
    {
      "inputs": [
        {
          "internalType": "address",
          "name": "user",
          "type": "address"
        }
      ],
      "name": "getUserPayments",
      "outputs": [
        {
          "internalType": "uint256[]",
          "name": "",
          "type": "uint256[]"
        }
      ],
      "stateMutability": "view",
      "type": "function"
    },
    {
      "inputs": [],
      "name": "nextPaymentId",
      "outputs": [
        {
          "internalType": "uint256",
          "name": "",
          "type": "uint256"
        }
      ],
      "stateMutability": "view",
      "type": "function"
    },
    {
      "inputs": [],
      "name": "owner",
      "outputs": [
        {
          "internalType": "address",
          "name": "",
          "type": "address"
        }
      ],
      "stateMutability": "view",
      "type": "function"
    },
    {
      "inputs": [
        {
          "internalType": "uint256",
          "name": "",
          "type": "uint256"
        }
      ],
      "name": "payments",
      "outputs": [
        {
          "internalType": "address",
          "name": "from",
          "type": "address"
        },
        {
          "internalType": "address",
          "name": "to",
          "type": "address"
        },
        {
          "internalType": "uint256",
          "name": "amount",
          "type": "uint256"
        },
        {
          "internalType": "address",
          "name": "token",
          "type": "address"
        },
        {
          "internalType": "uint256",
          "name": "timestamp",
          "type": "uint256"
        },
        {
          "internalType": "string",
          "name": "description",
          "type": "string"
        },
        {
          "internalType": "bool",
          "name": "completed",
          "type": "bool"
        }
      ],
      "stateMutability": "view",
      "type": "function"
    },
    {
      "inputs": [
        {
          "internalType": "address",
          "name": "to",
          "type": "address"
        },
        {
          "internalType": "uint256",
          "name": "amount",
          "type": "uint256"
        },
        {
          "internalType": "address",
          "name": "token",
          "type": "address"
        },
        {
          "internalType": "string",
          "name": "description",
          "type": "string"
        }
      ],
      "name": "processPayment",
      "outputs": [
        {
          "internalType": "uint256",
          "name": "",
          "type": "uint256"
        }
      ],
      "stateMutability": "nonpayable",
      "type": "function"
    },
    {
      "inputs": [
        {
          "internalType": "address",
          "name": "token",
          "type": "address"
        },
        {
          "internalType": "bool",
          "name": "supported",
          "type": "bool"
        }
      ],
      "name": "setSupportedToken",
      "outputs": [],
      "stateMutability": "nonpayable",
      "type": "function"
    },
    {
      "inputs": [
        {
          "internalType": "address",
          "name": "",
          "type": "address"
        }
      ],
      "name": "supportedTokens",
      "outputs": [
        {
          "internalType": "bool",
          "name": "",
          "type": "bool"
        }
      ],
      "stateMutability": "view",
      "type": "function"
    },
    {
      "inputs": [
        {
          "internalType": "address",
          "name": "token",
          "type": "address"
        },
        {
          "internalType": "uint256",
          "name": "amount",
          "type": "uint256"
        }
      ],
      "name": "withdrawStuckTokens",
      "outputs": [],
      "stateMutability": "nonpayable",
      "type": "function"
    }
  ],
  "bytecode": "0x6080806040523461002857600380546001600160a01b03191633179055611243908161002e8239f35b600080fdfe608080604052600436101561001357600080fd5b60003560e01c90816368c4ac2614610e9f57508063818645b114610a575780638709ad40146104b357806387d81789146103395780638da5cb5b146103105780639b22b920146102f25780639d7dadeb146101d1578063bd61f0a61461011b5763e79864661461008257600080fd5b346101165760403660031901126101165761009b610eda565b6024359081151591828103610116577fd86c88b4a367d9b81a6e00c9d3f7d01657bffef358fa8968c91c045ae99f0d529261010960409360018060a01b03906100e982600354163314611041565b1692836000526002602052846000209060ff801983541691151516179055565b82519182526020820152a1005b600080fd5b3461011657604036600319011261011657610134610eda565b6003546001600160a01b039160209161018b91908416610155338214611041565b60405163a9059cbb60e01b81526001600160a01b0390911660048201526024803590820152938492839160009183906044820190565b0393165af180156101c55761019c57005b6101bc9060203d81116101be575b6101b48183610f22565b810190611138565b005b503d6101aa565b6040513d6000823e3d90fd5b3461011657602080600319360112610116576101eb610eda565b600180546001600160a01b0393909290919084166000805b8581106102995750610214906111b3565b9460009360005b86811061023457604051806102308a82610fcc565b0390f35b8060005260008252604060002084848782828554161493841561028a575b50505050610269575b61026490611150565b61021b565b94610282818761027c610264948c6111f9565b52611150565b95905061025b565b0154161490508484878c610252565b806000526000855260406000208388868282855416149384156102e3575b505050506102ce575b6102c990611150565b610203565b906102db6102c991611150565b9190506102c0565b0154161490508388868b6102b7565b34610116576000366003190112610116576020600154604051908152f35b34610116576000366003190112610116576003546040516001600160a01b039091168152602090f35b34610116576020806003193601126101165760043560005260008152604060002060018060a01b0390818154169260019183838201541693600282015490600383015416906004830154926005810160405196879160009181549161039d83611007565b928386528a838216918260001461048d575050600114610449575b505050916103d460069260ff949b99989796959a9b0388610f22565b0154169560405197889687528487015260408601526060850152608084015260e060a08401528151918260e085015260005b83811061043157505050610100926000848385010152151560c0830152601f80199101168101030190f35b81810183015187820161010001528694508201610406565b89935060009291925282600020916000925b828410610473575050508201016103d48260ff6103b8565b849295829585835492010152019101909288928a9461045b565b60ff19168782015293151560051b860190930193506103d4925084915060ff90506103b8565b346101165760803660031901126101165760043567ffffffffffffffff8111610116576104e4903690600401610f9b565b602490813567ffffffffffffffff811161011657610506903690600401610f9b565b9390610510610ef0565b9260643567ffffffffffffffff811161011657610531903690600401610f44565b92868203610a23576001600160a01b03851660009081526002602052604090205461055e9060ff16611079565b6000805b8881106109e957506040516323b872dd60e01b8152336004820152306024820152604481019190915260208160648160006001600160a01b038b165af19081156101c5576000916109ca575b501561098f576105bd826111b3565b9560005b8381106105d657604051806102308a82610fcc565b6105ec6105e4828b88611175565b3515156110bb565b6106126001600160a01b0361060a610605848888611175565b6111e5565b1615156110f8565b60015461061e81611150565b60015561062f610605838787611175565b61063a838c89611175565b35906040519061064982610f06565b3382526001600160a01b03908116602080840191825260408085019586528d841660608601908152426080870190815260a087018f8152600060c089018190528a81529485905292909320865181546001600160a01b03199081169188169190911782559451600182018054871691881691909117905596516002880155516003870180549094169416939093179091555160048401555180519067ffffffffffffffff821161097a576107006005850154611007565b601f8111610933575b50602090601f83116001146108ba57928260069360c09361075c97966000926108af575b50508160011b916000199060031b1c19161760058501555b0151151591019060ff801983541691151516179055565b6107aa60208b61077b85610774610605828c8c611175565b928b611175565b60405163a9059cbb60e01b81526001600160a01b03909216600483015235602482015291829081906044820190565b038160006001600160a01b038e165af19081156101c557600091610890575b501561085a5790816108559260005260006020526006604060002001600160ff19825416179055806107fb838c6111f9565b5261080a610605838888611175565b610815838d8a611175565b604051903581526001600160a01b039091169133917f37a13dcf7266fe3681e46ca252ea4f79e8a76da88ae9446f99242fbc014a6c3990602090a4611150565b6105c1565b60405162461bcd60e51b815260206004820152600f818501526e151c985b9cd9995c8819985a5b1959608a1b6044820152606490fd5b6108a9915060203d6020116101be576101b48183610f22565b8b6107c9565b01519050388061072d565b906005850160005260206000209160005b601f198516811061091b57508360c09361075c979693600193600697601f19811610610902575b505050811b016005850155610745565b015160001960f88460031b161c191690553880806108f2565b919260206001819286850151815501940192016108cb565b600585016000526020600020601f840160051c810160208510610973575b601f830160051c82018110610967575050610709565b60008155600101610951565b5080610951565b86634e487b7160e01b60005260416004526000fd5b60405162461bcd60e51b8152602060048201526014818801527310985d18da081c185e5b595b9d0819985a5b195960621b6044820152606490fd5b6109e3915060203d6020116101be576101b48183610f22565b886105ae565b906109f5828a87611175565b358101809111610a0e57610a099091611150565b610562565b87634e487b7160e01b60005260116004526000fd5b60405162461bcd60e51b815260206004820152600d818801526c125b9d985b1a59081a5b9c1d5d609a1b6044820152606490fd5b3461011657608036600319011261011657610a70610eda565b610a78610ef0565b60643567ffffffffffffffff811161011657610a98903690600401610f44565b9060018060a01b0381166000526002602052610abb60ff60406000205416611079565b610ac860243515156110bb565b610adc6001600160a01b03841615156110f8565b6040516323b872dd60e01b81523360048201523060248083019190915235604482015260208160648160006001600160a01b0387165af19081156101c557600091610e80575b5015610e4a5760015491610b3583611150565b60015560405190610b4582610f06565b3382526001600160a01b038581166020808501918252602435604080870191825287851660608801908152426080890190815260a08901978852600060c08a018190528b81529485905291909320875181546001600160a01b031990811691881691909117825594516001820180548716918816919091179055915160028301559151600382018054909416941693909317909155516004820155905180519192919067ffffffffffffffff8211610e3457610c046005850154611007565b601f8111610ded575b50602090601f8311600114610d7757928260069360c093610c5e9796600092610d6c5750508160011b916000199060031b1c19161760058501550151151591019060ff801983541691151516179055565b60405163a9059cbb60e01b81526001600160a01b0384811660048301526024803590830152909160209183916044918391600091165af19081156101c557600091610d4d575b5015610d085760209181600052600083526006604060002001600160ff1982541617905560405190602435825260018060a01b031690827f37a13dcf7266fe3681e46ca252ea4f79e8a76da88ae9446f99242fbc014a6c39853393a4604051908152f35b60405162461bcd60e51b815260206004820152601c60248201527f5472616e7366657220746f20726563697069656e74206661696c6564000000006044820152606490fd5b610d66915060203d6020116101be576101b48183610f22565b83610ca4565b015190508a8061072d565b90601f198316916005860160005260206000209260005b818110610dd557509360c093610c5e9796936001938360069810610dbc57505050811b016005850155610745565b015160001960f88460031b161c191690558a80806108f2565b92936020600181928786015181550195019301610d8e565b600585016000526020600020601f840160051c810160208510610e2d575b601f830160051c82018110610e21575050610c0d565b60008155600101610e0b565b5080610e0b565b634e487b7160e01b600052604160045260246000fd5b60405162461bcd60e51b815260206004820152600e60248201526d14185e5b595b9d0819985a5b195960921b6044820152606490fd5b610e99915060203d6020116101be576101b48183610f22565b84610b22565b34610116576020366003190112610116576020906001600160a01b03610ec3610eda565b166000526002825260ff6040600020541615158152f35b600435906001600160a01b038216820361011657565b604435906001600160a01b038216820361011657565b60e0810190811067ffffffffffffffff821117610e3457604052565b90601f8019910116810190811067ffffffffffffffff821117610e3457604052565b81601f820112156101165780359067ffffffffffffffff8211610e345760405192610f79601f8401601f191660200185610f22565b8284526020838301011161011657816000926020809301838601378301015290565b9181601f840112156101165782359167ffffffffffffffff8311610116576020808501948460051b01011161011657565b6020908160408183019282815285518094520193019160005b828110610ff3575050505090565b835185529381019392810192600101610fe5565b90600182811c92168015611037575b602083101461102157565b634e487b7160e01b600052602260045260246000fd5b91607f1691611016565b1561104857565b60405162461bcd60e51b81526020600482015260096024820152682737ba1037bbb732b960b91b6044820152606490fd5b1561108057565b60405162461bcd60e51b8152602060048201526013602482015272151bdad95b881b9bdd081cdd5c1c1bdc9d1959606a1b6044820152606490fd5b156110c257565b60405162461bcd60e51b815260206004820152600e60248201526d125b9d985b1a5908185b5bdd5b9d60921b6044820152606490fd5b156110ff57565b60405162461bcd60e51b8152602060048201526011602482015270125b9d985b1a59081c9958da5c1a595b9d607a1b6044820152606490fd5b90816020910312610116575180151581036101165790565b600019811461115f5760010190565b634e487b7160e01b600052601160045260246000fd5b91908110156111855760051b0190565b634e487b7160e01b600052603260045260246000fd5b67ffffffffffffffff8111610e345760051b60200190565b906111bd8261119b565b6111ca6040519182610f22565b82815280926111db601f199161119b565b0190602036910137565b356001600160a01b03811681036101165790565b80518210156111855760209160051b01019056fea2646970667358221220263a9215dc7a50f5d7f09afa02098d577f23001e432939250d929e0622c6f1cb64736f6c63430008130033",
  "linkReferences": {},
  "deployedLinkReferences": {}
}