{
  "_format": "hh-sol-artifact-1",
  "contractName": "RentChainMarketplace",
  "sourceName": "contracts/RentChainMarketplace.sol",
  "abi": [
    {
      "inputs": [],
      "stateMutability": "nonpayable",
      "type": "constructor"
    },
    {
      "anonymous": false,
      "inputs": [
        {
          "indexed": true,
          "internalType": "uint256",
          "name": "listingId",
          "type": "uint256"
        },
        {
          "indexed": false,
          "internalType": "address",
          "name": "bidder",
          "type": "address"
        },
        {
          "indexed": false,
          "internalType": "uint256",
          "name": "amount",
          "type": "uint256"
        }
      ],
      "name": "BidPlaced",
      "type": "event"
    },
    {
      "anonymous": false,
      "inputs": [
        {
          "indexed": true,
          "internalType": "uint256",
          "name": "listingId",
          "type": "uint256"
        },
        {
          "indexed": false,
          "internalType": "address",
          "name": "bidder",
          "type": "address"
        }
      ],
      "name": "BidWithdrawn",
      "type": "event"
    },
    {
      "anonymous": false,
      "inputs": [
        {
          "indexed": true,
          "internalType": "uint256",
          "name": "listingId",
          "type": "uint256"
        }
      ],
      "name": "ListingCancelled",
      "type": "event"
    },
    {
      "anonymous": false,
      "inputs": [
        {
          "indexed": true,
          "internalType": "uint256",
          "name": "listingId",
          "type": "uint256"
        },
        {
          "indexed": false,
          "internalType": "address",
          "name": "seller",
          "type": "address"
        },
        {
          "indexed": false,
          "internalType": "address",
          "name": "token",
          "type": "address"
        },
        {
          "indexed": false,
          "internalType": "uint256",
          "name": "tokenId",
          "type": "uint256"
        },
        {
          "indexed": false,
          "internalType": "uint256",
          "name": "price",
          "type": "uint256"
        },
        {
          "indexed": false,
          "internalType": "bool",
          "name": "isAuction",
          "type": "bool"
        }
      ],
      "name": "ListingCreated",
      "type": "event"
    },
    {
      "anonymous": false,
      "inputs": [
        {
          "indexed": true,
          "internalType": "uint256",
          "name": "listingId",
          "type": "uint256"
        },
        {
          "indexed": false,
          "internalType": "address",
          "name": "buyer",
          "type": "address"
        },
        {
          "indexed": false,
          "internalType": "uint256",
          "name": "price",
          "type": "uint256"
        }
      ],
      "name": "ListingSold",
      "type": "event"
    },
    {
      "anonymous": false,
      "inputs": [
        {
          "indexed": true,
          "internalType": "uint256",
          "name": "listingId",
          "type": "uint256"
        },
        {
          "indexed": false,
          "internalType": "uint256",
          "name": "newPrice",
          "type": "uint256"
        }
      ],
      "name": "ListingUpdated",
      "type": "event"
    },
    {
      "anonymous": false,
      "inputs": [
        {
          "indexed": true,
          "internalType": "uint256",
          "name": "listingId",
          "type": "uint256"
        },
        {
          "indexed": false,
          "internalType": "address",
          "name": "buyer",
          "type": "address"
        },
        {
          "indexed": false,
          "internalType": "uint256",
          "name": "amount",
          "type": "uint256"
        }
      ],
      "name": "OfferAccepted",
      "type": "event"
    },
    {
      "anonymous": false,
      "inputs": [
        {
          "indexed": true,
          "internalType": "uint256",
          "name": "listingId",
          "type": "uint256"
        },
        {
          "indexed": false,
          "internalType": "address",
          "name": "buyer",
          "type": "address"
        }
      ],
      "name": "OfferCancelled",
      "type": "event"
    },
    {
      "anonymous": false,
      "inputs": [
        {
          "indexed": true,
          "internalType": "uint256",
          "name": "listingId",
          "type": "uint256"
        },
        {
          "indexed": false,
          "internalType": "address",
          "name": "buyer",
          "type": "address"
        },
        {
          "indexed": false,
          "internalType": "uint256",
          "name": "amount",
          "type": "uint256"
        }
      ],
      "name": "OfferMade",
      "type": "event"
    },
    {
      "inputs": [],
      "name": "MAX_AUCTION_DURATION",
      "outputs": [
        {
          "internalType": "uint256",
          "name": "",
          "type": "uint256"
        }
      ],
      "stateMutability": "view",
      "type": "function"
    },
    {
      "inputs": [],
      "name": "MIN_AUCTION_DURATION",
      "outputs": [
        {
          "internalType": "uint256",
          "name": "",
          "type": "uint256"
        }
      ],
      "stateMutability": "view",
      "type": "function"
    },
    {
      "inputs": [
        {
          "internalType": "uint256",
          "name": "listingId",
          "type": "uint256"
        },
        {
          "internalType": "address",
          "name": "buyer",
          "type": "address"
        }
      ],
      "name": "acceptOffer",
      "outputs": [],
      "stateMutability": "nonpayable",
      "type": "function"
    },
    {
      "inputs": [],
      "name": "admin",
      "outputs": [
        {
          "internalType": "address",
          "name": "",
          "type": "address"
        }
      ],
      "stateMutability": "view",
      "type": "function"
    },
    {
      "inputs": [
        {
          "internalType": "uint256",
          "name": "listingId",
          "type": "uint256"
        }
      ],
      "name": "buyListing",
      "outputs": [],
      "stateMutability": "payable",
      "type": "function"
    },
    {
      "inputs": [
        {
          "internalType": "uint256",
          "name": "listingId",
          "type": "uint256"
        }
      ],
      "name": "cancelListing",
      "outputs": [],
      "stateMutability": "nonpayable",
      "type": "function"
    },
    {
      "inputs": [
        {
          "internalType": "uint256",
          "name": "listingId",
          "type": "uint256"
        }
      ],
      "name": "cancelOffer",
      "outputs": [],
      "stateMutability": "nonpayable",
      "type": "function"
    },
    {
      "inputs": [
        {
          "internalType": "address",
          "name": "token",
          "type": "address"
        },
        {
          "internalType": "uint256",
          "name": "tokenId",
          "type": "uint256"
        },
        {
          "internalType": "uint256",
          "name": "price",
          "type": "uint256"
        },
        {
          "internalType": "uint256",
          "name": "duration",
          "type": "uint256"
        },
        {
          "internalType": "bool",
          "name": "isAuction",
          "type": "bool"
        }
      ],
      "name": "createListing",
      "outputs": [
        {
          "internalType": "uint256",
          "name": "",
          "type": "uint256"
        }
      ],
      "stateMutability": "payable",
      "type": "function"
    },
    {
      "inputs": [
        {
          "internalType": "uint256",
          "name": "listingId",
          "type": "uint256"
        }
      ],
      "name": "emergencyCancelListing",
      "outputs": [],
      "stateMutability": "nonpayable",
      "type": "function"
    },
    {
      "inputs": [
        {
          "internalType": "uint256",
          "name": "listingId",
          "type": "uint256"
        }
      ],
      "name": "finalizeAuction",
      "outputs": [],
      "stateMutability": "nonpayable",
      "type": "function"
    },
    {
      "inputs": [
        {
          "internalType": "uint256",
          "name": "start",
          "type": "uint256"
        },
        {
          "internalType": "uint256",
          "name": "count",
          "type": "uint256"
        }
      ],
      "name": "getActiveListings",
      "outputs": [
        {
          "internalType": "uint256[]",
          "name": "",
          "type": "uint256[]"
        },
        {
          "components": [
            {
              "internalType": "address",
              "name": "seller",
              "type": "address"
            },
            {
              "internalType": "address",
              "name": "token",
              "type": "address"
            },
            {
              "internalType": "uint256",
              "name": "tokenId",
              "type": "uint256"
            },
            {
              "internalType": "uint256",
              "name": "price",
              "type": "uint256"
            },
            {
              "internalType": "uint256",
              "name": "expiresAt",
              "type": "uint256"
            },
            {
              "internalType": "bool",
              "name": "isActive",
              "type": "bool"
            },
            {
              "internalType": "bool",
              "name": "isAuction",
              "type": "bool"
            },
            {
              "internalType": "uint256",
              "name": "highestBid",
              "type": "uint256"
            },
            {
              "internalType": "address",
              "name": "highestBidder",
              "type": "address"
            },
            {
              "internalType": "uint256",
              "name": "auctionEnd",
              "type": "uint256"
            }
          ],
          "internalType": "struct RentChainMarketplace.Listing[]",
          "name": "",
          "type": "tuple[]"
        }
      ],
      "stateMutability": "view",
      "type": "function"
    },
    {
      "inputs": [
        {
          "internalType": "address",
          "name": "user",
          "type": "address"
        }
      ],
      "name": "getUserListings",
      "outputs": [
        {
          "internalType": "uint256[]",
          "name": "",
          "type": "uint256[]"
        }
      ],
      "stateMutability": "view",
      "type": "function"
    },
    {
      "inputs": [
        {
          "internalType": "address",
          "name": "user",
          "type": "address"
        }
      ],
      "name": "getUserOffers",
      "outputs": [
        {
          "internalType": "uint256[]",
          "name": "",
          "type": "uint256[]"
        },
        {
          "internalType": "address[]",
          "name": "",
          "type": "address[]"
        }
      ],
      "stateMutability": "view",
      "type": "function"
    },
    {
      "inputs": [],
      "name": "listingFee",
      "outputs": [
        {
          "internalType": "uint256",
          "name": "",
          "type": "uint256"
        }
      ],
      "stateMutability": "view",
      "type": "function"
    },
    {
      "inputs": [
        {
          "internalType": "uint256",
          "name": "",
          "type": "uint256"
        }
      ],
      "name": "listings",
      "outputs": [
        {
          "internalType": "address",
          "name": "seller",
          "type": "address"
        },
        {
          "internalType": "address",
          "name": "token",
          "type": "address"
        },
        {
          "internalType": "uint256",
          "name": "tokenId",
          "type": "uint256"
        },
        {
          "internalType": "uint256",
          "name": "price",
          "type": "uint256"
        },
        {
          "internalType": "uint256",
          "name": "expiresAt",
          "type": "uint256"
        },
        {
          "internalType": "bool",
          "name": "isActive",
          "type": "bool"
        },
        {
          "internalType": "bool",
          "name": "isAuction",
          "type": "bool"
        },
        {
          "internalType": "uint256",
          "name": "highestBid",
          "type": "uint256"
        },
        {
          "internalType": "address",
          "name": "highestBidder",
          "type": "address"
        },
        {
          "internalType": "uint256",
          "name": "auctionEnd",
          "type": "uint256"
        }
      ],
      "stateMutability": "view",
      "type": "function"
    },
    {
      "inputs": [
        {
          "internalType": "uint256",
          "name": "listingId",
          "type": "uint256"
        },
        {
          "internalType": "uint256",
          "name": "amount",
          "type": "uint256"
        },
        {
          "internalType": "uint256",
          "name": "duration",
          "type": "uint256"
        }
      ],
      "name": "makeOffer",
      "outputs": [],
      "stateMutability": "nonpayable",
      "type": "function"
    },
    {
      "inputs": [],
      "name": "nextListingId",
      "outputs": [
        {
          "internalType": "uint256",
          "name": "",
          "type": "uint256"
        }
      ],
      "stateMutability": "view",
      "type": "function"
    },
    {
      "inputs": [
        {
          "internalType": "uint256",
          "name": "",
          "type": "uint256"
        },
        {
          "internalType": "address",
          "name": "",
          "type": "address"
        }
      ],
      "name": "offers",
      "outputs": [
        {
          "internalType": "address",
          "name": "buyer",
          "type": "address"
        },
        {
          "internalType": "uint256",
          "name": "amount",
          "type": "uint256"
        },
        {
          "internalType": "uint256",
          "name": "expiresAt",
          "type": "uint256"
        },
        {
          "internalType": "bool",
          "name": "accepted",
          "type": "bool"
        }
      ],
      "stateMutability": "view",
      "type": "function"
    },
    {
      "inputs": [
        {
          "internalType": "uint256",
          "name": "listingId",
          "type": "uint256"
        }
      ],
      "name": "placeBid",
      "outputs": [],
      "stateMutability": "payable",
      "type": "function"
    },
    {
      "inputs": [
        {
          "internalType": "uint256",
          "name": "newFee",
          "type": "uint256"
        }
      ],
      "name": "setListingFee",
      "outputs": [],
      "stateMutability": "nonpayable",
      "type": "function"
    },
    {
      "inputs": [
        {
          "internalType": "uint256",
          "name": "listingId",
          "type": "uint256"
        },
        {
          "internalType": "uint256",
          "name": "newPrice",
          "type": "uint256"
        }
      ],
      "name": "updateListingPrice",
      "outputs": [],
      "stateMutability": "nonpayable",
      "type": "function"
    },
    {
      "inputs": [
        {
          "internalType": "address",
          "name": "",
          "type": "address"
        }
      ],
      "name": "userListings",
      "outputs": [
        {
          "internalType": "uint256",
          "name": "",
          "type": "uint256"
        }
      ],
      "stateMutability": "view",
      "type": "function"
    },
    {
      "inputs": [
        {
          "internalType": "address",
          "name": "",
          "type": "address"
        }
      ],
      "name": "userOffers",
      "outputs": [
        {
          "internalType": "uint256",
          "name": "",
          "type": "uint256"
        }
      ],
      "stateMutability": "view",
      "type": "function"
    },
    {
      "inputs": [
        {
          "internalType": "uint256",
          "name": "listingId",
          "type": "uint256"
        }
      ],
      "name": "withdrawBid",
      "outputs": [],
      "stateMutability": "nonpayable",
      "type": "function"
    },
    {
      "inputs": [
        {
          "internalType": "uint256",
          "name": "amount",
          "type": "uint256"
        }
      ],
      "name": "withdrawFees",
      "outputs": [],
      "stateMutability": "nonpayable",
      "type": "function"
    }
  ],
  "bytecode": "0x6080806040523461003357600480546001600160a01b0319163317905566038d7ea4c68000600555611ea390816100398239f35b600080fdfe6080604052600436101561001257600080fd5b6000803560e01c80630eaaf4c81461195e578063131dbd091461192e578063305a67a8146118195780633fb35178146117fb5780634884f459146115a55780635e318e0714611550578063661d2c2c146114165780636a1b7ecc146113f85780636e3a8f28146113bf578063918d407d1461117a5780639979ef4514610fbe578063a9b2c12014610f85578063aaccf1ec14610f67578063c128b23114610cdb578063c2f50a7a14610cbe578063c460494314610be8578063c56370e914610b81578063d264dc1514610848578063de74e57b146107a6578063e210a72d14610589578063e80838631461035f578063eb18a9d8146102ba578063ebdfbce514610248578063ef706adf1461015b5763f851a4401461013057600080fd5b346101585780600319360112610158576004546040516001600160a01b039091168152602090f35b80fd5b50346101585760208060031936011261024457600435808352828252604083205490917f1f51377b3e685a0e2419f9bb4ba7c07ec54936353ba3d0fb3c6538dab6766222916101b4906001600160a01b03161515611b74565b82845260018152604084203360005281526101f9600260406000206101de60018201541515611cf6565b6101ef60ff60038301541615611d6f565b0154421115611d33565b82845260018152604084203360005281528360036040600020828155826001820155826002820155015533845260038152604084206102388154611db4565b9055604051338152a280f35b5080fd5b5034610158576040366003190112610158576080906040610267611a8f565b91600435815260016020522060018060a01b038092166000526020526040600020908154169060018101549060ff6003600283015492015416916040519384526020840152604083015215156060820152f35b503461015857602080600319360112610244576001600160a01b0391826102df611a74565b1692838252600283526102f56040832054611dd9565b93829183600654945b85811061031c5760405187815280610318818a018b611aa5565b0390f35b80825281875283836040842054161461033e575b61033990611b42565b6102fe565b936103578186610351610339948c611e0b565b52611b42565b949050610330565b503461015857602036600319011261015857600435808252602082905260408220546001600160a01b03906103979082161515611b74565b818352826020526103b160ff600560408620015416611bb4565b8183528260205260408320600581019182546103d260ff8260081c16611c40565b6103e160088401544211611c7d565b60078301938285541690811561055a57879260ff19169055826001850154168385541690600286015490803b1561054b576040516323b872dd60e01b81526001600160a01b039384166004820152939092166024840152604483015282908290606490829084905af1801561054f57610537575b5050600682019182549060fa820282810460fa148315171561052357878080809594876104886127108497048098611c33565b91541682821561051a575bf11561050d57818080928560045416828215610504575bf1156104f9579154905460408051929093166001600160a01b0316825260208201527f8e378317cc1b9c64766fd136e5849da5f702d26a8f8b750115b7422909b2309f91819081015b0390a280f35b6040513d86823e3d90fd5b506108fc6104aa565b50604051903d90823e3d90fd5b506108fc610493565b634e487b7160e01b88526011600452602488fd5b61054090611aef565b61054b578438610455565b8480fd5b6040513d84823e3d90fd5b60405162461bcd60e51b81526020600482015260076024820152664e6f206269647360c81b6044820152606490fd5b503461015857606036600319011261015857600435808252602082815260408320546001600160a01b0390602435906105c59083161515611b74565b8385528483526105de60ff600560408820015416611bb4565b8385528483526040852060ff600582015460081c16610761576004610607910154421115611bf5565b83855260018352604085203360005283526001604060002001546107255761063160443542611b67565b9160405193608085019385851067ffffffffffffffff86111761070f577fbdf1e76c2ba2a5c85b93bf78678a4a3b06d63b18422612dac8d7d5249ed46714956003886106e3938b83976104f39a6040523386526040888701928b84528188019485526060880195818752815260018a522033600052885260406000209551166001600160601b0360a01b86541617855551600185015551600284015551151591019060ff801983541691151516179055565b33875252604085206106f58154611b42565b905560408051338152602081019290925290918291820190565b634e487b7160e01b600052604160045260246000fd5b60405162461bcd60e51b81526004810184905260146024820152734f6666657220616c72656164792065786973747360601b6044820152606490fd5b60405162461bcd60e51b815260048101859052601760248201527f43616e6e6f74206f66666572206f6e2061756374696f6e0000000000000000006044820152606490fd5b5034610158576020366003190112610158576040610140916004358152806020522060018060a01b038082541691816001820154169160ff60028301546003840154600485015490600586015492600860068801549660078901541697015497604051998a5260208a0152604089015260608801526080870152818116151560a087015260081c16151560c085015260e0840152610100830152610120820152f35b5060a03660031901126101585761085d611a74565b608435151560843503610244576005543410610b3c576040516331a9108f60e11b81526024803560048301526020908290816001600160a01b0386165afa908115610b31578391610aeb575b50336001600160a01b0390911603610ab45760643515610a7c576020917f52ac1f237eb54827f2c077ce1a53146aa8d5b27546ff026a6252a5ea6b05ccb160a06040936006549485946108fb86611b42565b60065561090a60643542611b67565b60843515610a765761091e60643542611b67565b83519161092a83611b03565b338352600180881b0386168b8401526024358584015260443560608401526080830152600186830152608435151560c08301528260e083015282610100830152610120820152868252818952600861012084842092600180891b038151166001600160601b03891b9081865416178555600185016001808b1b038e84015116828254161790558682015160028601556060820151600386015560808201516004860155600585016109ec8a8401511515829060ff801983541691151516179055565b60c0830151151561ff00825491871b169061ff00191617905560e0820151600686015560078501906001808b1b03610100840151169082541617905501519101553381526002885220610a3f8154611b42565b905560405190338252600180841b0316868201526024356040820152604435606082015260843515156080820152a2604051908152f35b8161091e565b60405162461bcd60e51b815260206004820152601060248201526f24b73b30b634b210323ab930ba34b7b760811b6044820152606490fd5b60405162461bcd60e51b815260206004820152600f60248201526e2737ba103a37b5b2b71037bbb732b960891b6044820152606490fd5b90506020813d602011610b29575b81610b0660209383611b20565b81010312610b2557516001600160a01b0381168103610b2557386108a9565b8280fd5b3d9150610af9565b6040513d85823e3d90fd5b60405162461bcd60e51b815260206004820152601860248201527f496e73756666696369656e74206c697374696e672066656500000000000000006044820152606490fd5b503461015857602036600319011261015857600435610bab60018060a01b03600454163314611e35565b808252816020526005604083200160ff1981541690557f411aee90354c51b1b04cd563fcab2617142a9d50da19232d888547c8a1b7fd8a8280a280f35b503461015857610bf736611ad9565b818352602090838252610c2e60018060a01b03610c1b816040882054163314611cbd565b8486528584526040862054161515611b74565b828452838252610c4760ff600560408720015416611bb4565b8015610c8957907f66bcde9f7aec9b81719a4fdec54cbafbf6c834d1f2f989d9cd2134dab8d0c0de91838552848252806003604087200155604051908152a280f35b60405162461bcd60e51b815260048101839052600d60248201526c496e76616c696420707269636560981b6044820152606490fd5b50346101585780600319360112610158576020604051610e108152f35b503461015857610cea36611ad9565b90610cf482611dd9565b90610cfe83611dc1565b93610d0c6040519586611b20565b838552601f19610d1b85611dc1565b01815b818110610f125750508091936006908154955b86811080610f09575b15610e47578084526020848152604085209060ff906005928284820154169081610e38575b50610d76575b505050610d7190611b42565b610d31565b918791610e2f9385610d8c610d71979b8d611e0b565b52898952888152604089209060405193610da585611b03565b60018060a01b0391828454168652826001850154169086015260028301546040860152600383015460608601526004830154608086015282015492808416151560a0860152600893841c16151560c08501528882015460e08501526007820154166101008401520154610120820152610e1e828c611e0b565b52610e29818b611e0b565b50611b42565b94903880610d65565b60049150015442111538610d5f565b838689610e5f60405192604084526040840190611aa5565b6020838203818501528080845193848152019301945b828110610e825784840385f35b855180516001600160a01b0390811686528184015181168685015260408083015190870152606080830151908701526080808301519087015260a08083015115159087015260c08083015115159087015260e08083015190870152610100808301519091169086015261012090810151908501529481019461014090930192600101610e75565b50818510610d3a565b602090604051610f2181611b03565b8481528285818301528560408301528560608301528560808301528560a08301528560c08301528560e08301528561010083015285610120830152828a01015201610d1e565b50346101585780600319360112610158576020600654604051908152f35b5034610158576020366003190112610158576020906040906001600160a01b03610fad611a74565b168152600283522054604051908152f35b5060208060031936011261024457600435808352828252604083205490916001600160a01b0391610ff29083161515611b74565b82845283815261100b60ff600560408720015416611bb4565b828452838152604084209061102960ff600584015460081c16611c40565b600882015442116111465760068201918254918234111561111457600382015434106110dc57509060078692019384541690816110b7575b505034918290555081546001600160a01b031916339081179092556040805192835260208301919091527f0e54eff26401bf69b81b26f60bd85ef47f5d85275c1d268d84f68d6897431c479190819081016104f3565b8280929181928282156110d3575bf115610b3157833880611061565b506108fc6110c5565b6064906040519062461bcd60e51b8252600482015260116024820152704269642062656c6f77207265736572766560781b6044820152fd5b6064906040519062461bcd60e51b82526004820152600b60248201526a42696420746f6f206c6f7760a81b6044820152fd5b6064906040519062461bcd60e51b82526004820152600d60248201526c105d58dd1a5bdb88195b991959609a1b6044820152fd5b503461015857604036600319011261015857600435611197611a8f565b81835260209083825260018060a01b036111b8816040872054163314611cbd565b8385528483526111cf816040872054161515611b74565b8385528483526111e860ff600560408820015416611bb4565b8385526001835260408520818316600052835284604060002093816003600187019661121688541515611cf6565b6112266002820154421115611d33565b019182549261123860ff851615611d6f565b600160ff198095161790558782525260408220906005820190815416905560028360018301541691015490803b15610b25576040516323b872dd60e01b81523360048201526001600160a01b0386166024820152604481019290925282908290606490829084905af1801561054f576113ab575b5050825460fa810281810460fa14821517156113975790868080806112d8612710829897048096611c33565b81811561138e575b3390f11561054f5782809291819260045416828215611385575bf115610b31579054604080516001600160a01b0384168152602081018390527f8e378317cc1b9c64766fd136e5849da5f702d26a8f8b750115b7422909b2309f939185917fea555ab99331ceac5051c58f17cc7b411b30241b0e28cb93a7d3a24c77a7a9a99190a2604080516001600160a01b039092168252602082019290925290819081016104f3565b506108fc6112fa565b506108fc6112e0565b634e487b7160e01b87526011600452602487fd5b6113b490611aef565b61054b5784386112ac565b5034610158576020366003190112610158576020906040906001600160a01b036113e7611a74565b168152600383522054604051908152f35b50346101585780600319360112610158576020600554604051908152f35b503461015857602080600319360112610244576001600160a01b03918261143b611a74565b1690818152600383526114516040822054611dd9565b928282526003815260408220549061148161146b83611dc1565b926114796040519485611b20565b808452611dc1565b8282019490601f1901368637838491600654925b8381106114ea5750505050806114b660405196604088526040880190611aa5565b928684038288015251928381520193925b8281106114d45785850386f35b83518716855293810193928101926001016114c7565b8087959697526001808752604086208360005287526040600020015461151d575b61151490611b42565b95949395611495565b916115488184611530611514948d611e0b565b528487528688528b604088205416610351828b611e0b565b92905061150b565b5034610158576020366003190112610158578080808060043560018060a01b036004541661157f813314611e35565b82821561159c575bf1156115905780f35b604051903d90823e3d90fd5b506108fc611587565b50602080600319360112610244576004359081835282815260018060a01b036115d5816040862054161515611b74565b8284528382526115ee60ff600560408720015416611bb4565b8284528382526040842060058101805460ff8160081c166117c1576116196004840154421115611bf5565b600383019485543410611786575060ff1916905581600182015416858383541691600284015490803b15610b25576040516323b872dd60e01b81526001600160a01b0394909416600485015233602485015260448401919091528290606490829084905af1801561177b57611768575b5082549060fa820282810460fa14831517156113975786808086959481976116b76127108497048098611c33565b91541682821561175f575bf11561054f5782809291819260045416828215611756575bf11561054f57828154803411611729575b5050546040805133815260208101929092527f8e378317cc1b9c64766fd136e5849da5f702d26a8f8b750115b7422909b2309f9190819081016104f3565b8180611736819334611c33565b81811561174d575b3390f11561054f5782386116eb565b506108fc61173e565b506108fc6116da565b506108fc6116c2565b61177490959195611aef565b9338611689565b6040513d88823e3d90fd5b6064906040519062461bcd60e51b825260048201526014602482015273125b9cdd59999a58da595b9d081c185e5b595b9d60621b6044820152fd5b60405162461bcd60e51b81526004810186905260126024820152712634b9ba34b7339034b99030bab1ba34b7b760711b6044820152606490fd5b5034610158578060031936011261015857602060405162278d008152f35b50346101585760208060031936011261024457600435808352828252604083205490916001600160a01b03916118529083163314611cbd565b828452838152611869826040862054161515611b74565b82845283815261188260ff600560408720015416611bb4565b8284528381528360408120600581019360ff855460081c168061191f575b6118ee575b50505060029160ff19815416905533845252604082206118c58154611db4565b90557f411aee90354c51b1b04cd563fcab2617142a9d50da19232d888547c8a1b7fd8a8280a280f35b828260068294936007849501541691015490828215611916575bf115610b31578338806118a5565b506108fc611908565b508060078301541615156118a0565b50346101585760203660031901126101585761195560018060a01b03600454163314611e35565b60043560055580f35b503461015857602036600319011261015857600435808252602082905260408220546001600160a01b03906119969082161515611b74565b8183528260205260408320906119b560ff600584015460081c16611c40565b600782018054913390831603611a3a57848093928193926006846119df6008869701544211611c7d565b019183835493556001600160601b0360a01b169055818115611a31575b3390f11561050d577f5e9c7ae3229b2cda5065d7058fcc05765c695c29ce05313fbe96cb2ca639231a6020604051338152a280f35b506108fc6119fc565b60405162461bcd60e51b81526020600482015260126024820152712737ba103434b3b432b9ba103134b23232b960711b6044820152606490fd5b600435906001600160a01b0382168203611a8a57565b600080fd5b602435906001600160a01b0382168203611a8a57565b90815180825260208080930193019160005b828110611ac5575050505090565b835185529381019392810192600101611ab7565b6040906003190112611a8a576004359060243590565b67ffffffffffffffff811161070f57604052565b610140810190811067ffffffffffffffff82111761070f57604052565b90601f8019910116810190811067ffffffffffffffff82111761070f57604052565b6000198114611b515760010190565b634e487b7160e01b600052601160045260246000fd5b91908201809211611b5157565b15611b7b57565b60405162461bcd60e51b8152602060048201526011602482015270131a5cdd1a5b99c81b9bdd08199bdd5b99607a1b6044820152606490fd5b15611bbb57565b60405162461bcd60e51b81526020600482015260126024820152714c697374696e67206e6f742061637469766560701b6044820152606490fd5b15611bfc57565b60405162461bcd60e51b815260206004820152600f60248201526e131a5cdd1a5b99c8195e1c1a5c9959608a1b6044820152606490fd5b91908203918211611b5157565b15611c4757565b60405162461bcd60e51b815260206004820152600e60248201526d2737ba1030b71030bab1ba34b7b760911b6044820152606490fd5b15611c8457565b60405162461bcd60e51b8152602060048201526011602482015270105d58dd1a5bdb881b9bdd08195b991959607a1b6044820152606490fd5b15611cc457565b60405162461bcd60e51b815260206004820152600a6024820152692737ba1039b2b63632b960b11b6044820152606490fd5b15611cfd57565b60405162461bcd60e51b815260206004820152600e60248201526d139bc81bd999995c88199bdd5b9960921b6044820152606490fd5b15611d3a57565b60405162461bcd60e51b815260206004820152600d60248201526c13d999995c88195e1c1a5c9959609a1b6044820152606490fd5b15611d7657565b60405162461bcd60e51b815260206004820152601660248201527513d999995c88185b1c9958591e481858d8d95c1d195960521b6044820152606490fd5b8015611b51576000190190565b67ffffffffffffffff811161070f5760051b60200190565b90611de382611dc1565b611df06040519182611b20565b8281528092611e01601f1991611dc1565b0190602036910137565b8051821015611e1f5760209160051b010190565b634e487b7160e01b600052603260045260246000fd5b15611e3c57565b60405162461bcd60e51b81526020600482015260096024820152682737ba1030b236b4b760b91b6044820152606490fdfea2646970667358221220f5692ac08afe731c9382d01cd2e70bfc9e324b53732e39bd80f449e57b2cd51764736f6c63430008130033",
  "linkReferences": {},
  "deployedLinkReferences": {}
}