{
  "_format": "hh-sol-artifact-1",
  "contractName": "DisputeResolution",
  "sourceName": "contracts/DisputeResolution.sol",
  "abi": [
    {
      "inputs": [],
      "stateMutability": "nonpayable",
      "type": "constructor"
    },
    {
      "anonymous": false,
      "inputs": [
        {
          "indexed": false,
          "internalType": "address",
          "name": "arbitrator",
          "type": "address"
        }
      ],
      "name": "ArbitratorAdded",
      "type": "event"
    },
    {
      "anonymous": false,
      "inputs": [
        {
          "indexed": false,
          "internalType": "address",
          "name": "arbitrator",
          "type": "address"
        }
      ],
      "name": "ArbitratorRemoved",
      "type": "event"
    },
    {
      "anonymous": false,
      "inputs": [
        {
          "indexed": true,
          "internalType": "uint256",
          "name": "disputeId",
          "type": "uint256"
        },
        {
          "indexed": true,
          "internalType": "uint256",
          "name": "agreementId",
          "type": "uint256"
        },
        {
          "indexed": false,
          "internalType": "address",
          "name": "raisedBy",
          "type": "address"
        }
      ],
      "name": "DisputeRaised",
      "type": "event"
    },
    {
      "anonymous": false,
      "inputs": [
        {
          "indexed": true,
          "internalType": "uint256",
          "name": "disputeId",
          "type": "uint256"
        },
        {
          "indexed": false,
          "internalType": "enum DisputeResolution.Resolution",
          "name": "resolution",
          "type": "uint8"
        },
        {
          "indexed": false,
          "internalType": "address",
          "name": "resolver",
          "type": "address"
        }
      ],
      "name": "DisputeResolved",
      "type": "event"
    },
    {
      "inputs": [
        {
          "internalType": "address",
          "name": "arbitrator",
          "type": "address"
        }
      ],
      "name": "addArbitrator",
      "outputs": [],
      "stateMutability": "nonpayable",
      "type": "function"
    },
    {
      "inputs": [],
      "name": "admin",
      "outputs": [
        {
          "internalType": "address",
          "name": "",
          "type": "address"
        }
      ],
      "stateMutability": "view",
      "type": "function"
    },
    {
      "inputs": [
        {
          "internalType": "address",
          "name": "",
          "type": "address"
        }
      ],
      "name": "arbitrators",
      "outputs": [
        {
          "internalType": "bool",
          "name": "",
          "type": "bool"
        }
      ],
      "stateMutability": "view",
      "type": "function"
    },
    {
      "inputs": [
        {
          "internalType": "uint256",
          "name": "disputeId",
          "type": "uint256"
        }
      ],
      "name": "assignDispute",
      "outputs": [],
      "stateMutability": "nonpayable",
      "type": "function"
    },
    {
      "inputs": [
        {
          "internalType": "uint256",
          "name": "disputeId",
          "type": "uint256"
        }
      ],
      "name": "cancelDispute",
      "outputs": [],
      "stateMutability": "nonpayable",
      "type": "function"
    },
    {
      "inputs": [
        {
          "internalType": "uint256",
          "name": "",
          "type": "uint256"
        }
      ],
      "name": "disputes",
      "outputs": [
        {
          "internalType": "uint256",
          "name": "agreementId",
          "type": "uint256"
        },
        {
          "internalType": "address",
          "name": "raisedBy",
          "type": "address"
        },
        {
          "internalType": "address",
          "name": "against",
          "type": "address"
        },
        {
          "internalType": "string",
          "name": "reason",
          "type": "string"
        },
        {
          "internalType": "string",
          "name": "evidenceIpfs",
          "type": "string"
        },
        {
          "internalType": "enum DisputeResolution.DisputeStatus",
          "name": "status",
          "type": "uint8"
        },
        {
          "internalType": "enum DisputeResolution.Resolution",
          "name": "resolution",
          "type": "uint8"
        },
        {
          "internalType": "uint256",
          "name": "raisedAt",
          "type": "uint256"
        },
        {
          "internalType": "uint256",
          "name": "resolvedAt",
          "type": "uint256"
        },
        {
          "internalType": "address",
          "name": "resolver",
          "type": "address"
        },
        {
          "internalType": "uint256",
          "name": "tenantAmount",
          "type": "uint256"
        },
        {
          "internalType": "uint256",
          "name": "landlordAmount",
          "type": "uint256"
        }
      ],
      "stateMutability": "view",
      "type": "function"
    },
    {
      "inputs": [],
      "name": "getActiveDisputes",
      "outputs": [
        {
          "internalType": "uint256[]",
          "name": "",
          "type": "uint256[]"
        }
      ],
      "stateMutability": "view",
      "type": "function"
    },
    {
      "inputs": [
        {
          "internalType": "address",
          "name": "user",
          "type": "address"
        }
      ],
      "name": "getUserDisputes",
      "outputs": [
        {
          "internalType": "uint256[]",
          "name": "",
          "type": "uint256[]"
        }
      ],
      "stateMutability": "view",
      "type": "function"
    },
    {
      "inputs": [],
      "name": "nextDisputeId",
      "outputs": [
        {
          "internalType": "uint256",
          "name": "",
          "type": "uint256"
        }
      ],
      "stateMutability": "view",
      "type": "function"
    },
    {
      "inputs": [
        {
          "internalType": "uint256",
          "name": "agreementId",
          "type": "uint256"
        },
        {
          "internalType": "address",
          "name": "against",
          "type": "address"
        },
        {
          "internalType": "string",
          "name": "reason",
          "type": "string"
        },
        {
          "internalType": "string",
          "name": "evidenceIpfs",
          "type": "string"
        }
      ],
      "name": "raiseDispute",
      "outputs": [
        {
          "internalType": "uint256",
          "name": "",
          "type": "uint256"
        }
      ],
      "stateMutability": "nonpayable",
      "type": "function"
    },
    {
      "inputs": [
        {
          "internalType": "address",
          "name": "arbitrator",
          "type": "address"
        }
      ],
      "name": "removeArbitrator",
      "outputs": [],
      "stateMutability": "nonpayable",
      "type": "function"
    },
    {
      "inputs": [
        {
          "internalType": "uint256",
          "name": "disputeId",
          "type": "uint256"
        },
        {
          "internalType": "enum DisputeResolution.Resolution",
          "name": "resolution",
          "type": "uint8"
        },
        {
          "internalType": "uint256",
          "name": "tenantAmount",
          "type": "uint256"
        },
        {
          "internalType": "uint256",
          "name": "landlordAmount",
          "type": "uint256"
        }
      ],
      "name": "resolveDispute",
      "outputs": [],
      "stateMutability": "nonpayable",
      "type": "function"
    }
  ],
  "bytecode": "0x60808060405234610040573360018060a01b031960035416176003553360005260016020526040600020600160ff1982541617905561103f90816100468239f35b600080fdfe6080604052600436101561001257600080fd5b60003560e01c806301fabd7514610c6d57806303a09d1814610b2d5780630db3993414610b0f578063345565dc146106b257806351d0ea3714610673578063564a565d14610578578063973ad27014610503578063bfb0a55b146103dc578063d077a4f814610289578063df02935c146101a8578063e0338b63146100ce5763f851a440146100a057600080fd5b346100c95760003660031901126100c9576003546040516001600160a01b039091168152602090f35b600080fd5b346100c95760203660031901126100c95760043533600052600160205260ff604060002054168015610194575b61010490610f20565b80600052600060205260ff60056040600020015416600481101561017e576101465760005260006020526005604060002001600160ff19825416179055600080f35b60405162461bcd60e51b815260206004820152601060248201526f2234b9b83aba32903737ba1037b832b760811b6044820152606490fd5b634e487b7160e01b600052602160045260246000fd5b506003546001600160a01b031633146100fb565b346100c9576020806003193601126100c957600435600081815280835260409020600101549091906001600160a01b0316330361025057816000526000815260ff60056040600020015416600481101561017e5761021c57600091825281905260409020600501805460ff19166003179055005b6064906040519062461bcd60e51b82526004820152600d60248201526c10d85b9b9bdd0818d85b98d95b609a1b6044820152fd5b6064906040519062461bcd60e51b8252600482015260126024820152712737ba103234b9b83aba32903930b4b9b2b960711b6044820152fd5b346100c95760803660031901126100c95760043560243560038110156100c9573360005260206001815260ff6040600020541680156103c8575b6102cc90610f20565b826000526000815260ff60056040600020015416600481101561017e57600103610384577fd479d35c2c3aee3d59f9972a1214f8effa0c54c4f8ff4dcf020913c0a5e27c629160409184600052600081526103388260058560002001600260ff19825416178155610f01565b84600052600081528260002042600782015560088101336001600160601b0360a01b8254161790556044356009820155600a60643591015561037c83518093610ecf565b3390820152a2005b6064906040519062461bcd60e51b82526004820152601760248201527f44697370757465206e6f7420696e2070726f67726573730000000000000000006044820152fd5b506003546001600160a01b031633146102c3565b346100c9576020806003193601126100c9576103f6610ce5565b600280546001600160a01b0393909290919084166000805b8581106104a7575061041f90610fad565b9460009360005b86811061043f576040518061043b8a82610cfb565b0390f35b80600052600082526040600020848487828260018601541614938415610498575b50505050610477575b61047290610edc565b610426565b94610490818761048a610472948c610fdf565b52610edc565b959050610469565b0154161490508484878c610460565b806000526000855260406000208388868282600186015416149384156104f4575b505050506104df575b6104da90610edc565b61040e565b906104ec6104da91610edc565b9190506104d1565b0154161490508388868b6104c8565b346100c95760203660031901126100c9577f715484adb5bc9cc29af577725dbf8486d0b82eca3ba79f65846e92ff38ef32b5602061053f610ce5565b6003546001600160a01b0391906105599083163314610f5d565b168060005260018252604060002060ff198154169055604051908152a1005b346100c95760203660031901126100c9576004356000526000602052604060002080549060018060a01b038060018301541681600284015416926105be60038201610de9565b936105cb60048301610de9565b9360058301549561062d60ff88169661061f60068701549360078801549560088901541696600a60098a01549901549960206040519e8f908152015260408d015260608c61018091829101528c0190610e8f565b908a820360808c0152610e8f565b95600481101561017e5788976106529160a08a015260ff60c08a019160081c16610ecf565b60e08701526101008601526101208501526101408401526101608301520390f35b346100c95760203660031901126100c9576001600160a01b03610694610ce5565b166000526001602052602060ff604060002054166040519015158152f35b346100c95760803660031901126100c9576024356001600160a01b03811681036100c95760443567ffffffffffffffff81116100c9576106f6903690600401610d58565b9060643567ffffffffffffffff81116100c957610717903690600401610d58565b6002549261072484610edc565b60025560405192610180840184811067ffffffffffffffff821117610a3857604052600435845233602085015260018060a01b0316604084015260608301526080820152600060a0820152600260c08201524260e082015260006101008201526000610120820152600061014082015260006101608201528160005260006020526040600020908051825560018060a01b036020820151166001600160601b0360a01b6001840154161760018301556002820160018060a01b036040830151166001600160601b0360a01b825416179055606081015192835167ffffffffffffffff8111610a38576108196003850154610daf565b601f8111610ac8575b506020601f8211600114610a59578192939495600092610a4e575b50508160011b916000199060031b1c19161760038401555b608082015192835167ffffffffffffffff8111610a38576108796004830154610daf565b601f81116109f1575b506020601f8211600114610982578192939495600092610977575b50508160011b916000199060031b1c19161760048201555b60a0830151600481101561017e5760ff8019600584015416911617600582015560c083015192600384101561017e57610160600a916108f960209660058601610f01565b60e0810151600685015561010081015160078501556008840160018060a01b03610120830151166001600160601b0360a01b82541617905561014081015160098501550151910155604051338152817f83201991c75b30e493678d0543bdbd02d6a194a5a0dda31490a5fe09e9f0a2208460043593a3604051908152f35b01519050858061089d565b6004830160005260206000209060005b601f19841681106109d9575060019394959683601f198116106109c0575b505050811b0160048201556108b5565b015160001960f88460031b161c191690558580806109b0565b9091602060018192858b015181550193019101610992565b600483016000526020600020601f830160051c810160208410610a31575b601f830160051c82018110610a25575050610882565b60008155600101610a0f565b5080610a0f565b634e487b7160e01b600052604160045260246000fd5b01519050858061083d565b6003850160005260206000209060005b601f1984168110610ab0575060019394959683601f19811610610a97575b505050811b016003840155610855565b015160001960f88460031b161c19169055858080610a87565b9091602060018192858b015181550193019101610a69565b600385016000526020600020601f830160051c810160208410610b08575b601f830160051c82018110610afc575050610822565b60008155600101610ae6565b5080610ae6565b346100c95760003660031901126100c9576020600254604051908152f35b346100c95760003660031901126100c9576002546000805b828110610bf25750610b5690610fad565b60009160005b818110610b71576040518061043b8582610cfb565b8060005260206000815260ff600581816040600020015416600481101561017e5715928315610bcc575b505050610bb1575b610bac90610edc565b610b5c565b92610bc4818561048a610bac9487610fdf565b939050610ba3565b600091929350848252526040600020015416600481101561017e57600114858080610b9b565b8060005260206000815260ff600581816040600020015416600481101561017e5715928315610c47575b505050610c32575b610c2d90610edc565b610b45565b90610c3f610c2d91610edc565b919050610c24565b600091929350848252526040600020015416600481101561017e57600114848080610c1c565b346100c95760203660031901126100c9577ffc4dfef69004b5e3aba1eb4a8b1e53b893418fda232d9f60574a6c62f30c449d6020610ca9610ce5565b6003546001600160a01b039190610cc39083163314610f5d565b1680600052600182526040600020600160ff19825416179055604051908152a1005b600435906001600160a01b03821682036100c957565b6020908160408183019282815285518094520193019160005b828110610d22575050505090565b835185529381019392810192600101610d14565b90601f8019910116810190811067ffffffffffffffff821117610a3857604052565b81601f820112156100c95780359067ffffffffffffffff8211610a385760405192610d8d601f8401601f191660200185610d36565b828452602083830101116100c957816000926020809301838601378301015290565b90600182811c92168015610ddf575b6020831014610dc957565b634e487b7160e01b600052602260045260246000fd5b91607f1691610dbe565b9060405191826000825492610dfd84610daf565b908184526001948581169081600014610e6c5750600114610e29575b5050610e2792500383610d36565b565b9093915060005260209081600020936000915b818310610e54575050610e2793508201013880610e19565b85548884018501529485019487945091830191610e3c565b915050610e2794506020925060ff191682840152151560051b8201013880610e19565b919082519283825260005b848110610ebb575050826000602080949584010152601f8019910116010190565b602081830181015184830182015201610e9a565b90600382101561017e5752565b6000198114610eeb5760010190565b634e487b7160e01b600052601160045260246000fd5b90600381101561017e5761ff0082549160081b169061ff001916179055565b15610f2757565b60405162461bcd60e51b815260206004820152600e60248201526d2737ba1030b93134ba3930ba37b960911b6044820152606490fd5b15610f6457565b60405162461bcd60e51b81526020600482015260096024820152682737ba1030b236b4b760b91b6044820152606490fd5b67ffffffffffffffff8111610a385760051b60200190565b90610fb782610f95565b610fc46040519182610d36565b8281528092610fd5601f1991610f95565b0190602036910137565b8051821015610ff35760209160051b010190565b634e487b7160e01b600052603260045260246000fdfea2646970667358221220ff6404c9e7efb9df128722ee9da73bac17b8a4618ec36a64da47622688ae6b8464736f6c63430008130033",
  "linkReferences": {},
  "deployedLinkReferences": {}
}