{
  "_format": "hh-sol-artifact-1",
  "contractName": "MultiSigWallet",
  "sourceName": "contracts/MultiSigWallet.sol",
  "abi": [
    {
      "inputs": [
        {
          "internalType": "address[]",
          "name": "_owners",
          "type": "address[]"
        },
        {
          "internalType": "uint256",
          "name": "_required",
          "type": "uint256"
        }
      ],
      "stateMutability": "nonpayable",
      "type": "constructor"
    },
    {
      "anonymous": false,
      "inputs": [
        {
          "indexed": true,
          "internalType": "address",
          "name": "sender",
          "type": "address"
        },
        {
          "indexed": true,
          "internalType": "uint256",
          "name": "transactionId",
          "type": "uint256"
        }
      ],
      "name": "Confirmation",
      "type": "event"
    },
    {
      "anonymous": false,
      "inputs": [
        {
          "indexed": true,
          "internalType": "address",
          "name": "sender",
          "type": "address"
        },
        {
          "indexed": false,
          "internalType": "uint256",
          "name": "amount",
          "type": "uint256"
        }
      ],
      "name": "Deposit",
      "type": "event"
    },
    {
      "anonymous": false,
      "inputs": [
        {
          "indexed": true,
          "internalType": "uint256",
          "name": "transactionId",
          "type": "uint256"
        }
      ],
      "name": "Execution",
      "type": "event"
    },
    {
      "anonymous": false,
      "inputs": [
        {
          "indexed": true,
          "internalType": "uint256",
          "name": "transactionId",
          "type": "uint256"
        }
      ],
      "name": "ExecutionFailure",
      "type": "event"
    },
    {
      "anonymous": false,
      "inputs": [
        {
          "indexed": true,
          "internalType": "address",
          "name": "owner",
          "type": "address"
        }
      ],
      "name": "OwnerAddition",
      "type": "event"
    },
    {
      "anonymous": false,
      "inputs": [
        {
          "indexed": true,
          "internalType": "address",
          "name": "owner",
          "type": "address"
        }
      ],
      "name": "OwnerRemoval",
      "type": "event"
    },
    {
      "anonymous": false,
      "inputs": [
        {
          "indexed": false,
          "internalType": "uint256",
          "name": "required",
          "type": "uint256"
        }
      ],
      "name": "RequirementChange",
      "type": "event"
    },
    {
      "anonymous": false,
      "inputs": [
        {
          "indexed": true,
          "internalType": "uint256",
          "name": "transactionId",
          "type": "uint256"
        }
      ],
      "name": "Submission",
      "type": "event"
    },
    {
      "inputs": [
        {
          "internalType": "address",
          "name": "owner",
          "type": "address"
        }
      ],
      "name": "addOwner",
      "outputs": [],
      "stateMutability": "nonpayable",
      "type": "function"
    },
    {
      "inputs": [
        {
          "internalType": "uint256",
          "name": "_required",
          "type": "uint256"
        }
      ],
      "name": "changeRequirement",
      "outputs": [],
      "stateMutability": "nonpayable",
      "type": "function"
    },
    {
      "inputs": [
        {
          "internalType": "uint256",
          "name": "",
          "type": "uint256"
        },
        {
          "internalType": "address",
          "name": "",
          "type": "address"
        }
      ],
      "name": "confirmations",
      "outputs": [
        {
          "internalType": "bool",
          "name": "",
          "type": "bool"
        }
      ],
      "stateMutability": "view",
      "type": "function"
    },
    {
      "inputs": [
        {
          "internalType": "uint256",
          "name": "transactionId",
          "type": "uint256"
        }
      ],
      "name": "executeTransaction",
      "outputs": [],
      "stateMutability": "nonpayable",
      "type": "function"
    },
    {
      "inputs": [
        {
          "internalType": "uint256",
          "name": "transactionId",
          "type": "uint256"
        }
      ],
      "name": "getConfirmationCount",
      "outputs": [
        {
          "internalType": "uint256",
          "name": "",
          "type": "uint256"
        }
      ],
      "stateMutability": "view",
      "type": "function"
    },
    {
      "inputs": [],
      "name": "getOwners",
      "outputs": [
        {
          "internalType": "address[]",
          "name": "",
          "type": "address[]"
        }
      ],
      "stateMutability": "view",
      "type": "function"
    },
    {
      "inputs": [
        {
          "internalType": "uint256",
          "name": "transactionId",
          "type": "uint256"
        }
      ],
      "name": "getTransaction",
      "outputs": [
        {
          "internalType": "address",
          "name": "to",
          "type": "address"
        },
        {
          "internalType": "uint256",
          "name": "value",
          "type": "uint256"
        },
        {
          "internalType": "bytes",
          "name": "data",
          "type": "bytes"
        },
        {
          "internalType": "bool",
          "name": "executed",
          "type": "bool"
        },
        {
          "internalType": "uint256",
          "name": "confirmations",
          "type": "uint256"
        }
      ],
      "stateMutability": "view",
      "type": "function"
    },
    {
      "inputs": [],
      "name": "getTransactionCount",
      "outputs": [
        {
          "internalType": "uint256",
          "name": "",
          "type": "uint256"
        }
      ],
      "stateMutability": "view",
      "type": "function"
    },
    {
      "inputs": [
        {
          "internalType": "uint256",
          "name": "transactionId",
          "type": "uint256"
        }
      ],
      "name": "isConfirmed",
      "outputs": [
        {
          "internalType": "bool",
          "name": "",
          "type": "bool"
        }
      ],
      "stateMutability": "view",
      "type": "function"
    },
    {
      "inputs": [
        {
          "internalType": "address",
          "name": "",
          "type": "address"
        }
      ],
      "name": "isOwner",
      "outputs": [
        {
          "internalType": "bool",
          "name": "",
          "type": "bool"
        }
      ],
      "stateMutability": "view",
      "type": "function"
    },
    {
      "inputs": [
        {
          "internalType": "uint256",
          "name": "",
          "type": "uint256"
        }
      ],
      "name": "owners",
      "outputs": [
        {
          "internalType": "address",
          "name": "",
          "type": "address"
        }
      ],
      "stateMutability": "view",
      "type": "function"
    },
    {
      "inputs": [
        {
          "internalType": "address",
          "name": "owner",
          "type": "address"
        }
      ],
      "name": "removeOwner",
      "outputs": [],
      "stateMutability": "nonpayable",
      "type": "function"
    },
    {
      "inputs": [],
      "name": "required",
      "outputs": [
        {
          "internalType": "uint256",
          "name": "",
          "type": "uint256"
        }
      ],
      "stateMutability": "view",
      "type": "function"
    },
    {
      "inputs": [
        {
          "internalType": "uint256",
          "name": "transactionId",
          "type": "uint256"
        }
      ],
      "name": "revokeConfirmation",
      "outputs": [],
      "stateMutability": "nonpayable",
      "type": "function"
    },
    {
      "inputs": [
        {
          "internalType": "address",
          "name": "to",
          "type": "address"
        },
        {
          "internalType": "uint256",
          "name": "value",
          "type": "uint256"
        },
        {
          "internalType": "bytes",
          "name": "data",
          "type": "bytes"
        }
      ],
      "name": "submitTransaction",
      "outputs": [
        {
          "internalType": "uint256",
          "name": "",
          "type": "uint256"
        }
      ],
      "stateMutability": "nonpayable",
      "type": "function"
    },
    {
      "inputs": [
        {
          "internalType": "uint256",
          "name": "",
          "type": "uint256"
        }
      ],
      "name": "transactions",
      "outputs": [
        {
          "internalType": "address",
          "name": "to",
          "type": "address"
        },
        {
          "internalType": "uint256",
          "name": "value",
          "type": "uint256"
        },
        {
          "internalType": "bytes",
          "name": "data",
          "type": "bytes"
        },
        {
          "internalType": "bool",
          "name": "executed",
          "type": "bool"
        },
        {
          "internalType": "uint256",
          "name": "confirmations",
          "type": "uint256"
        }
      ],
      "stateMutability": "view",
      "type": "function"
    },
    {
      "inputs": [
        {
          "internalType": "address",
          "name": "token",
          "type": "address"
        },
        {
          "internalType": "uint256",
          "name": "amount",
          "type": "uint256"
        }
      ],
      "name": "withdrawERC20",
      "outputs": [],
      "stateMutability": "nonpayable",
      "type": "function"
    },
    {
      "stateMutability": "payable",
      "type": "receive"
    }
  ],
  "bytecode": "0x60406080815234620002f557620016f590813803806200001f81620002fa565b9384398201908083830312620002f55782516001600160401b039390848111620002f55781019280601f85011215620002f5578351948511620001b0578460051b602094858062000072818501620002fa565b809981520192820101928311620002f55790858094939201905b828210620002c95750505001519280511562000293578315158062000287575b15620002435760005b815181101562000230576001600160a01b0380620000d4838562000320565b511615620001fc5780620000e9838562000320565b511660005260019081865260ff856000205416620001c657806200010e848662000320565b5116600052818652846000208260ff1982541617905562000130838562000320565b5116906000549068010000000000000000821015620001b0578101806000558110156200019a5760008080528690200180546001600160a01b031916909117905560001981146200018457600101620000b5565b634e487b7160e01b600052601160045260246000fd5b634e487b7160e01b600052603260045260246000fd5b634e487b7160e01b600052604160045260246000fd5b845162461bcd60e51b815260048101879052600f60248201526e223ab83634b1b0ba329037bbb732b960891b6044820152606490fd5b835162461bcd60e51b815260048101869052600d60248201526c24b73b30b634b21037bbb732b960991b6044820152606490fd5b8285600255516113bf9081620003368239f35b815162461bcd60e51b815260048101849052601760248201527f496e76616c6964207265717569726564206e756d6265720000000000000000006044820152606490fd5b508051841115620000ac565b815162461bcd60e51b815260048101849052600f60248201526e13dddb995c9cc81c995c5d5a5c9959608a1b6044820152606490fd5b815193945091929091906001600160a01b0381168103620002f55781528593929184019084016200008c565b600080fd5b6040519190601f01601f191682016001600160401b03811183821017620001b057604052565b80518210156200019a5760209160051b01019056fe6080604052600436101561004e575b361561001957600080fd5b3461002057005b6040513481527fe1fffcc4923d04b559f4d29a8bfc6cda04eb5b0d3c460751c2402c5c5cc9109c60203392a2005b60003560e01c8063025e7c2714610feb578063173825d914610e4357806320ea8d8614610d5c5780632e7700f014610d3e5780632f54bf6e14610cff57806333ea3dc814610caa5780633411c81c14610c585780637065cb4814610b5b578063784547a714610b2c5780638b51d13f14610b025780639ace38c214610a9c578063a0e67e2b146109d5578063a1db978214610934578063ba51a6df14610885578063c642747414610310578063dc8452cd146102f25763ee22610b0361000e57346102ed576020806003193601126102ed576004359033600052600180825261013e60ff60406000205416611269565b61014b60035484106112ac565b61016560ff600361015b866110fa565b5001541615611307565b61016e836110fa565b50906004820154600254116102a857600382019260ff1992828486541617855560018060a01b03815416926002818301549201604051936000928254926101b48461114b565b9389838216918260001461028f575050600114610257575b50505050916000939181859403925af13d15610252576101f66101ee3d61124d565b604051611185565b156102245750507f33e13ecb54c3076d8e8bb8c2881800a4d972b792045ffae98fdf46df365fed75600080a2005b90917f526441bb6c1aba3c9a4a6ca1d6545da9c2333c8c48343ef398eb858d72b79236600080a28154169055005b6101f6565b600090815282812093945091925b84831061027e57505050908301905081836000806101cc565b805487840152918301918101610265565b16885250505050801515028301905081836000806101cc565b60405162461bcd60e51b815260048101849052601a60248201527f496e73756666696369656e7420636f6e6669726d6174696f6e730000000000006044820152606490fd5b600080fd5b346102ed5760003660031901126102ed576020600254604051908152f35b346102ed5760603660031901126102ed57610329611077565b67ffffffffffffffff906044358281116102ed57366023820112156102ed5780600401356103568161124d565b916103646040519384611185565b81835236602483830101116102ed5781600092602460209301838601378301015233600052600160205261039f60ff60406000205416611269565b600354906040519260a08401848110868211176108595760405260018060a01b0316835260208301906024358252604084019081526000606085015260006080850152600160401b83101561085957600183016003556103fe836110fa565b92909261086f57845183546001600160a01b0319166001600160a01b03919091161783555160018301555180519094811161085957610440600283015461114b565b601f8111610812575b50602094601f82116001146107a65794819293949560009261079b575b50508160011b916000199060031b1c19161760028201555b600460806003830194606081015115159560ff199660ff8883541691161790550151910155807fc0ba8fe4b176c1714197d43b9cc6bcf797a4a7461c5fe8d0ef6e184ae7601e51600080a23360005260016020526104e360ff60406000205416611269565b6104f060035482106112ac565b80600052600460205260406000203360005260205260ff604060002054166107625780600052600460205260406000203360005260205260406000206001838254161790556004610540826110fa565b500161054c81546112f8565b905580337f4a504a94899432a9846e1aa406dceb1bcfd538bb839071d49d1e5e23f5be30ef600080a36004610580826110fa565b5001546002548091101561059a575b602082604051908152f35b3360005260016020526105b460ff60406000205416611269565b6105c160035483106112ac565b6105d160ff600361015b856110fa565b6105da826110fa565b509060048201541061071d57602092600382019160018284541617835560018060a01b0381541690600260018201549101906040519160009080549061061f8261114b565b91876001821691826000146107095750506001146106d7575b5050916000939181859403925af13d156106d2573d6106568161124d565b906106646040519283611185565b81526000863d92013e5b156106a2575050807f33e13ecb54c3076d8e8bb8c2881800a4d972b792045ffae98fdf46df365fed75600080a25b8261058f565b827f526441bb6c1aba3c9a4a6ca1d6545da9c2333c8c48343ef398eb858d72b79236600080a2815416905561069c565b61066e565b909150600052876000206000905b8282106106f757505082018183610638565b805485830152908901906001016106e5565b168652505080151502830190508183610638565b60405162461bcd60e51b815260206004820152601a60248201527f496e73756666696369656e7420636f6e6669726d6174696f6e730000000000006044820152606490fd5b60405162461bcd60e51b8152602060048201526011602482015270105b1c9958591e4818dbdb999a5c9b5959607a1b6044820152606490fd5b015190508580610466565b601f198216956002840160005260206000209160005b8881106107fa575083600195969798106107e1575b505050811b01600282015561047e565b015160001960f88460031b161c191690558580806107d1565b919260206001819286850151815501940192016107bc565b600283016000526020600020601f830160051c810160208410610852575b601f830160051c82018110610846575050610449565b60008155600101610830565b5080610830565b634e487b7160e01b600052604160045260246000fd5b634e487b7160e01b600052600060045260246000fd5b346102ed5760203660031901126102ed576004356108a4303314611346565b80151580610928575b156108e3576020817fa3f1ee9126a074d9326c682f561767f710e927faa811f7a99829d49dc421797a92600255604051908152a1005b60405162461bcd60e51b815260206004820152601760248201527f496e76616c6964207265717569726564206e756d6265720000000000000000006044820152606490fd5b506000548111156108ad565b346102ed5760403660031901126102ed5760006020610951611077565b61095c303314611346565b60405163a9059cbb60e01b8152336004820152602480359082015292839160449183916001600160a01b03165af180156109c95761099657005b6020813d82116109c1575b816109ae60209383611185565b810103126102ed5751801515036102ed57005b3d91506109a1565b6040513d6000823e3d90fd5b346102ed5760003660031901126102ed576040518060005480835260208093018091600080527f290decd9548b62a8d60345a988386fc84ba6bc95484008f6362f93160ef3e5639060005b86828210610a7f578686610a3682880383611185565b604051928392818401908285525180915260408401929160005b828110610a5f57505050500390f35b83516001600160a01b031685528695509381019392810192600101610a50565b83546001600160a01b031685529093019260019283019201610a20565b346102ed5760203660031901126102ed576004356003548110156102ed57610ac3906110fa565b5060018060a01b03815416610afe600183015492610ae3600282016111a7565b90600460ff600383015416910154916040519586958661108d565b0390f35b346102ed5760203660031901126102ed5760206004610b2181356110fa565b500154604051908152f35b346102ed5760203660031901126102ed5760206004610b4b81356110fa565b5001546002541115604051908152f35b346102ed5760203660031901126102ed57610b74611077565b610b7f303314611346565b6001600160a01b03811660008181526001602052604090205490919060ff16610c24578160005260016020526040600020600160ff1982541617905560005490600160401b82101561085957610bde826001610bfd940160005561102d565b90919082549060031b9160018060a01b03809116831b921b1916179055565b7ff39e6e1eb0edcf53c221607b54b00cd28f3196fed0a24994dc308b8f611b682d600080a2005b60405162461bcd60e51b815260206004820152600c60248201526b4f776e65722065786973747360a01b6044820152606490fd5b346102ed5760403660031901126102ed576024356001600160a01b038116908190036102ed576004356000526004602052604060002090600052602052602060ff604060002054166040519015158152f35b346102ed5760203660031901126102ed57610cc66004356110fa565b5060018060a01b03815416610afe60018301549260ff600382015416610cf36002600484015493016111a7565b6040519586958661108d565b346102ed5760203660031901126102ed576001600160a01b03610d20611077565b166000526001602052602060ff604060002054166040519015158152f35b346102ed5760003660031901126102ed576020600354604051908152f35b346102ed576020806003193601126102ed57600435903360005260018152610d8b60ff60406000205416611269565b8160005260048152604060002033600052815260ff6040600020541615610e0f5781610de791610dc360ff600361015b6004976110fa565b816000528381526040600020903360005252604060002060ff1981541690556110fa565b500180548015610df957600019019055005b634e487b7160e01b600052601160045260246000fd5b6064906040519062461bcd60e51b82526004820152600d60248201526c139bdd0818dbdb999a5c9b5959609a1b6044820152fd5b346102ed5760203660031901126102ed57610e5c611077565b30331490610e6982611346565b60018060a01b03809116918260005260019081602052610e9060ff60406000205416611269565b6000848152602083905260408120805460ff19169055825b610f76575b506000548015610f60576000190192610ec58461102d565b909182549160031b1b19169055826000558260025411610f08575b837f8001553a916ef2f495d26a907cc54d96ed840d7bda71e73194bf5a9df7a76b90600080a2005b610f1190611346565b8115159081610f58575b50156108e3576020817fa3f1ee9126a074d9326c682f561767f710e927faa811f7a99829d49dc421797a92600255604051908152a1818080610ee0565b905083610f1b565b634e487b7160e01b600052603160045260246000fd5b600054600019810191908211610df95784828593831015610fe357819088610f9d8561102d565b939054600394851b1c1614610fbe57505050610fb8906112f8565b90610ea8565b610fdd945090610fd1610bde939261102d565b9054911b1c169161102d565b84610ead565b505050610ead565b346102ed5760203660031901126102ed576004356000548110156102ed5761101460209161102d565b905460405160039290921b1c6001600160a01b03168152f35b906000918254811015611063578280527f290decd9548b62a8d60345a988386fc84ba6bc95484008f6362f93160ef3e563019190565b634e487b7160e01b83526032600452602483fd5b600435906001600160a01b03821682036102ed57565b9291909594939560018060a01b031683526020908184015260a060408401528151918260a085015260005b8381106110e6575050509060c08260008260809585010152601f801991011682010194151560608201520152565b81810183015185820160c0015282016110b8565b600354811015611135576005906003600052027fc2575a0e9e593c00f959f8c92f12db2869c3395a3b0502d05e2516446f71f85b0190600090565b634e487b7160e01b600052603260045260246000fd5b90600182811c9216801561117b575b602083101461116557565b634e487b7160e01b600052602260045260246000fd5b91607f169161115a565b90601f8019910116810190811067ffffffffffffffff82111761085957604052565b90604051918260008254926111bb8461114b565b90818452600194858116908160001461122a57506001146111e7575b50506111e592500383611185565b565b9093915060005260209081600020936000915b8183106112125750506111e5935082010138806111d7565b855488840185015294850194879450918301916111fa565b9150506111e594506020925060ff191682840152151560051b82010138806111d7565b67ffffffffffffffff811161085957601f01601f191660200190565b1561127057565b60405162461bcd60e51b815260206004820152601460248201527313dddb995c88191bd95cc81b9bdd08195e1a5cdd60621b6044820152606490fd5b156112b357565b60405162461bcd60e51b815260206004820152601a60248201527f5472616e73616374696f6e20646f6573206e6f742065786973740000000000006044820152606490fd5b6000198114610df95760010190565b1561130e57565b60405162461bcd60e51b815260206004820152601060248201526f105b1c9958591e48195e1958dd5d195960821b6044820152606490fd5b1561134d57565b60405162461bcd60e51b815260206004820152601460248201527313db9b1e481dd85b1b195d0818d85b8818d85b1b60621b6044820152606490fdfea264697066735822122010c051a5b33ad8b1ce93d957b05b03f0d3c790c56fed84fda1dee759bc8bdf2264736f6c63430008130033",
  "linkReferences": {},
  "deployedLinkReferences": {}
}