{
  "_format": "hh-sol-artifact-1",
  "contractName": "RentChainConstants",
  "sourceName": "contracts/RentChainConstants.sol",
  "abi": [
    {
      "inputs": [],
      "name": "ADMIN_ROLE",
      "outputs": [
        {
          "internalType": "bytes32",
          "name": "",
          "type": "bytes32"
        }
      ],
      "stateMutability": "view",
      "type": "function"
    },
    {
      "inputs": [],
      "name": "AGREEMENT_GRACE_PERIOD",
      "outputs": [
        {
          "internalType": "uint256",
          "name": "",
          "type": "uint256"
        }
      ],
      "stateMutability": "view",
      "type": "function"
    },
    {
      "inputs": [],
      "name": "CHAIN_ARBITRUM_MAINNET",
      "outputs": [
        {
          "internalType": "uint256",
          "name": "",
          "type": "uint256"
        }
      ],
      "stateMutability": "view",
      "type": "function"
    },
    {
      "inputs": [],
      "name": "CHAIN_ETH_GOERLI",
      "outputs": [
        {
          "internalType": "uint256",
          "name": "",
          "type": "uint256"
        }
      ],
      "stateMutability": "view",
      "type": "function"
    },
    {
      "inputs": [],
      "name": "CHAIN_ETH_MAINNET",
      "outputs": [
        {
          "internalType": "uint256",
          "name": "",
          "type": "uint256"
        }
      ],
      "stateMutability": "view",
      "type": "function"
    },
    {
      "inputs": [],
      "name": "CHAIN_POLYGON_MAINNET",
      "outputs": [
        {
          "internalType": "uint256",
          "name": "",
          "type": "uint256"
        }
      ],
      "stateMutability": "view",
      "type": "function"
    },
    {
      "inputs": [],
      "name": "CHAIN_SCROLL_MAINNET",
      "outputs": [
        {
          "internalType": "uint256",
          "name": "",
          "type": "uint256"
        }
      ],
      "stateMutability": "view",
      "type": "function"
    },
    {
      "inputs": [],
      "name": "CHAIN_SCROLL_TESTNET",
      "outputs": [
        {
          "internalType": "uint256",
          "name": "",
          "type": "uint256"
        }
      ],
      "stateMutability": "view",
      "type": "function"
    },
    {
      "inputs": [],
      "name": "DAI_ADDRESS",
      "outputs": [
        {
          "internalType": "address",
          "name": "",
          "type": "address"
        }
      ],
      "stateMutability": "view",
      "type": "function"
    },
    {
      "inputs": [],
      "name": "DEVELOPMENT_ADDRESS",
      "outputs": [
        {
          "internalType": "address",
          "name": "",
          "type": "address"
        }
      ],
      "stateMutability": "view",
      "type": "function"
    },
    {
      "inputs": [],
      "name": "DISPUTE_TIMEOUT",
      "outputs": [
        {
          "internalType": "uint256",
          "name": "",
          "type": "uint256"
        }
      ],
      "stateMutability": "view",
      "type": "function"
    },
    {
      "inputs": [],
      "name": "EMERGENCY_ROLE",
      "outputs": [
        {
          "internalType": "bytes32",
          "name": "",
          "type": "bytes32"
        }
      ],
      "stateMutability": "view",
      "type": "function"
    },
    {
      "inputs": [],
      "name": "ERROR_BLACKLISTED",
      "outputs": [
        {
          "internalType": "string",
          "name": "",
          "type": "string"
        }
      ],
      "stateMutability": "view",
      "type": "function"
    },
    {
      "inputs": [],
      "name": "ERROR_INSUFFICIENT_BALANCE",
      "outputs": [
        {
          "internalType": "string",
          "name": "",
          "type": "string"
        }
      ],
      "stateMutability": "view",
      "type": "function"
    },
    {
      "inputs": [],
      "name": "ERROR_INVALID_ADDRESS",
      "outputs": [
        {
          "internalType": "string",
          "name": "",
          "type": "string"
        }
      ],
      "stateMutability": "view",
      "type": "function"
    },
    {
      "inputs": [],
      "name": "ERROR_INVALID_AMOUNT",
      "outputs": [
        {
          "internalType": "string",
          "name": "",
          "type": "string"
        }
      ],
      "stateMutability": "view",
      "type": "function"
    },
    {
      "inputs": [],
      "name": "ERROR_NOT_ADMIN",
      "outputs": [
        {
          "internalType": "string",
          "name": "",
          "type": "string"
        }
      ],
      "stateMutability": "view",
      "type": "function"
    },
    {
      "inputs": [],
      "name": "ERROR_NOT_OWNER",
      "outputs": [
        {
          "internalType": "string",
          "name": "",
          "type": "string"
        }
      ],
      "stateMutability": "view",
      "type": "function"
    },
    {
      "inputs": [],
      "name": "ERROR_SYSTEM_PAUSED",
      "outputs": [
        {
          "internalType": "string",
          "name": "",
          "type": "string"
        }
      ],
      "stateMutability": "view",
      "type": "function"
    },
    {
      "inputs": [],
      "name": "ERROR_TRANSFER_FAILED",
      "outputs": [
        {
          "internalType": "string",
          "name": "",
          "type": "string"
        }
      ],
      "stateMutability": "view",
      "type": "function"
    },
    {
      "inputs": [],
      "name": "ETH_USD_FEED",
      "outputs": [
        {
          "internalType": "address",
          "name": "",
          "type": "address"
        }
      ],
      "stateMutability": "view",
      "type": "function"
    },
    {
      "inputs": [],
      "name": "INITIAL_SUPPLY",
      "outputs": [
        {
          "internalType": "uint256",
          "name": "",
          "type": "uint256"
        }
      ],
      "stateMutability": "view",
      "type": "function"
    },
    {
      "inputs": [],
      "name": "INSURANCE_FEE_BP",
      "outputs": [
        {
          "internalType": "uint256",
          "name": "",
          "type": "uint256"
        }
      ],
      "stateMutability": "view",
      "type": "function"
    },
    {
      "inputs": [],
      "name": "IPFS_AGREEMENT_PREFIX",
      "outputs": [
        {
          "internalType": "string",
          "name": "",
          "type": "string"
        }
      ],
      "stateMutability": "view",
      "type": "function"
    },
    {
      "inputs": [],
      "name": "IPFS_GATEWAY",
      "outputs": [
        {
          "internalType": "string",
          "name": "",
          "type": "string"
        }
      ],
      "stateMutability": "view",
      "type": "function"
    },
    {
      "inputs": [],
      "name": "IPFS_PROPERTY_PREFIX",
      "outputs": [
        {
          "internalType": "string",
          "name": "",
          "type": "string"
        }
      ],
      "stateMutability": "view",
      "type": "function"
    },
    {
      "inputs": [],
      "name": "MARKETING_ADDRESS",
      "outputs": [
        {
          "internalType": "address",
          "name": "",
          "type": "address"
        }
      ],
      "stateMutability": "view",
      "type": "function"
    },
    {
      "inputs": [],
      "name": "MAX_ACTIVE_AGREEMENTS",
      "outputs": [
        {
          "internalType": "uint256",
          "name": "",
          "type": "uint256"
        }
      ],
      "stateMutability": "view",
      "type": "function"
    },
    {
      "inputs": [],
      "name": "MAX_PAUSE_DURATION",
      "outputs": [
        {
          "internalType": "uint256",
          "name": "",
          "type": "uint256"
        }
      ],
      "stateMutability": "view",
      "type": "function"
    },
    {
      "inputs": [],
      "name": "MAX_PROPERTIES_PER_USER",
      "outputs": [
        {
          "internalType": "uint256",
          "name": "",
          "type": "uint256"
        }
      ],
      "stateMutability": "view",
      "type": "function"
    },
    {
      "inputs": [],
      "name": "MAX_RENTAL_DURATION",
      "outputs": [
        {
          "internalType": "uint256",
          "name": "",
          "type": "uint256"
        }
      ],
      "stateMutability": "view",
      "type": "function"
    },
    {
      "inputs": [],
      "name": "MAX_SECURITY_DEPOSIT_MULTIPLIER",
      "outputs": [
        {
          "internalType": "uint256",
          "name": "",
          "type": "uint256"
        }
      ],
      "stateMutability": "view",
      "type": "function"
    },
    {
      "inputs": [],
      "name": "MAX_TOKEN_SUPPLY",
      "outputs": [
        {
          "internalType": "uint256",
          "name": "",
          "type": "uint256"
        }
      ],
      "stateMutability": "view",
      "type": "function"
    },
    {
      "inputs": [],
      "name": "MIN_RENTAL_DURATION",
      "outputs": [
        {
          "internalType": "uint256",
          "name": "",
          "type": "uint256"
        }
      ],
      "stateMutability": "view",
      "type": "function"
    },
    {
      "inputs": [],
      "name": "MODERATOR_ROLE",
      "outputs": [
        {
          "internalType": "bytes32",
          "name": "",
          "type": "bytes32"
        }
      ],
      "stateMutability": "view",
      "type": "function"
    },
    {
      "inputs": [],
      "name": "NATIVE_TOKEN",
      "outputs": [
        {
          "internalType": "address",
          "name": "",
          "type": "address"
        }
      ],
      "stateMutability": "view",
      "type": "function"
    },
    {
      "inputs": [],
      "name": "PLATFORM_FEE_BP",
      "outputs": [
        {
          "internalType": "uint256",
          "name": "",
          "type": "uint256"
        }
      ],
      "stateMutability": "view",
      "type": "function"
    },
    {
      "inputs": [],
      "name": "PREMIUM_FEE_BP",
      "outputs": [
        {
          "internalType": "uint256",
          "name": "",
          "type": "uint256"
        }
      ],
      "stateMutability": "view",
      "type": "function"
    },
    {
      "inputs": [],
      "name": "REFERRAL_REWARD_BP",
      "outputs": [
        {
          "internalType": "uint256",
          "name": "",
          "type": "uint256"
        }
      ],
      "stateMutability": "view",
      "type": "function"
    },
    {
      "inputs": [],
      "name": "SECONDS_PER_DAY",
      "outputs": [
        {
          "internalType": "uint256",
          "name": "",
          "type": "uint256"
        }
      ],
      "stateMutability": "view",
      "type": "function"
    },
    {
      "inputs": [],
      "name": "SECONDS_PER_MONTH",
      "outputs": [
        {
          "internalType": "uint256",
          "name": "",
          "type": "uint256"
        }
      ],
      "stateMutability": "view",
      "type": "function"
    },
    {
      "inputs": [],
      "name": "SECONDS_PER_WEEK",
      "outputs": [
        {
          "internalType": "uint256",
          "name": "",
          "type": "uint256"
        }
      ],
      "stateMutability": "view",
      "type": "function"
    },
    {
      "inputs": [],
      "name": "SECONDS_PER_YEAR",
      "outputs": [
        {
          "internalType": "uint256",
          "name": "",
          "type": "uint256"
        }
      ],
      "stateMutability": "view",
      "type": "function"
    },
    {
      "inputs": [],
      "name": "STAKING_FEE_BP",
      "outputs": [
        {
          "internalType": "uint256",
          "name": "",
          "type": "uint256"
        }
      ],
      "stateMutability": "view",
      "type": "function"
    },
    {
      "inputs": [],
      "name": "STAKING_REWARD_RATE",
      "outputs": [
        {
          "internalType": "uint256",
          "name": "",
          "type": "uint256"
        }
      ],
      "stateMutability": "view",
      "type": "function"
    },
    {
      "inputs": [],
      "name": "SUCCESS_AGREEMENT",
      "outputs": [
        {
          "internalType": "string",
          "name": "",
          "type": "string"
        }
      ],
      "stateMutability": "view",
      "type": "function"
    },
    {
      "inputs": [],
      "name": "SUCCESS_OPERATION",
      "outputs": [
        {
          "internalType": "string",
          "name": "",
          "type": "string"
        }
      ],
      "stateMutability": "view",
      "type": "function"
    },
    {
      "inputs": [],
      "name": "SUCCESS_PAYMENT",
      "outputs": [
        {
          "internalType": "string",
          "name": "",
          "type": "string"
        }
      ],
      "stateMutability": "view",
      "type": "function"
    },
    {
      "inputs": [],
      "name": "SUCCESS_VERIFICATION",
      "outputs": [
        {
          "internalType": "string",
          "name": "",
          "type": "string"
        }
      ],
      "stateMutability": "view",
      "type": "function"
    },
    {
      "inputs": [],
      "name": "TOKEN_DECIMALS",
      "outputs": [
        {
          "internalType": "uint256",
          "name": "",
          "type": "uint256"
        }
      ],
      "stateMutability": "view",
      "type": "function"
    },
    {
      "inputs": [],
      "name": "TREASURY_ADDRESS",
      "outputs": [
        {
          "internalType": "address",
          "name": "",
          "type": "address"
        }
      ],
      "stateMutability": "view",
      "type": "function"
    },
    {
      "inputs": [],
      "name": "USDC_ADDRESS",
      "outputs": [
        {
          "internalType": "address",
          "name": "",
          "type": "address"
        }
      ],
      "stateMutability": "view",
      "type": "function"
    },
    {
      "inputs": [],
      "name": "USDC_USD_FEED",
      "outputs": [
        {
          "internalType": "address",
          "name": "",
          "type": "address"
        }
      ],
      "stateMutability": "view",
      "type": "function"
    },
    {
      "inputs": [],
      "name": "USDT_ADDRESS",
      "outputs": [
        {
          "internalType": "address",
          "name": "",
          "type": "address"
        }
      ],
      "stateMutability": "view",
      "type": "function"
    },
    {
      "inputs": [],
      "name": "USDT_USD_FEED",
      "outputs": [
        {
          "internalType": "address",
          "name": "",
          "type": "address"
        }
      ],
      "stateMutability": "view",
      "type": "function"
    },
    {
      "inputs": [],
      "name": "VALIDATOR_ROLE",
      "outputs": [
        {
          "internalType": "bytes32",
          "name": "",
          "type": "bytes32"
        }
      ],
      "stateMutability": "view",
      "type": "function"
    },
    {
      "inputs": [],
      "name": "WITHDRAWAL_COOLDOWN",
      "outputs": [
        {
          "internalType": "uint256",
          "name": "",
          "type": "uint256"
        }
      ],
      "stateMutability": "view",
      "type": "function"
    }
  ],
  "bytecode": "0x6080806040523461001a57610bc69081610020823930815050f35b600080fdfe604060808152600436101561001357600080fd5b6000803560e01c91826307604b1a146109ba5782630a60d6c8146102945782630d6f23cd1461096a5782630f1a29051461057057826310786deb146108f75782631b4a7785146109305782631c2ad5f31461057057826320df4359146108fc5782632799657d146108f757826328c03c89146108e25782632a4c0a1a146108ba5782632e4eb7881461087e5782632ff2e9dc1461085f57826331f7d9641461084b5782633e84b08f146107f657826343656f1114610823578263440ceac714610349578263449de5f1146107fb578263486265c6146106875782634ac63567146107f65782634f65473c1461034457826351c8f26b146107e05782635b7f415c146107cb578263614768c7146107b4578263632437801461075f57826365e28be61461074a57826369f4b5151461070b5782636f3ed5e8146106f457826374f0314f1461029457826375b238fc146106c0578263797669c91461068c57826384ae2a741461068757826386b5a7da146106485782638854d7c714610610578263944565e2146105dc57826394d8572a146105b457826397b7b03d14610575578263a5ed78c114610570578263b8ab5c3e14610536578263b9642ab814610502578263bb09d9b7146104da578263c1892058146104b2578263c49baebe1461047e578263c49d489a14610442578263ca56b9cd146103f0578263cba43dc4146103da578263d1b751de146103c3578263d5e7bb12146103ad578263da6125bd14610398578263db26cbf914610383578263de7adf6e1461036e578263e489d5101461034e578263e689c47614610349578263e6a69ab814610344578263e7f401e11461030c578263f817b3cd1461029957505063feedab001461029457600080fd5b6109e9565b816003193601126103085780519080820182811067ffffffffffffffff8211176102f4576102f093508152601582527468747470733a2f2f697066732e696f2f697066732f60581b60208301525191829182610acc565b0390f35b634e487b7160e01b84526041600452602484fd5b5080fd5b81600319360112610308576102f090610323610a84565b906c155cd95c881d995c9a599a5959609a1b60208301525191829182610acc565b610b76565b6109ba565b8160031936011261030857602090516b033b2e3c9fd0803ce80000008152f35b81600319360112610308576020905160fa8152f35b81600319360112610308576020905160038152f35b81600319360112610308576020905160018152f35b81600319360112610308576020905161a4b18152f35b8160031936011261030857602090516203f4808152f35b8160031936011261030857602090516103e88152f35b816003193601126103085780519080820182811067ffffffffffffffff8211176102f4576102f093508152601082526f155cd95c88189b1858dadb1a5cdd195960821b60208301525191829182610acc565b81600319360112610308576102f090610459610a3c565b907014185e5b595b9d081c1c9bd8d95cdcd959607a1b60208301525191829182610acc565b8160031936011261030857602090517f21702c8af46127c7fa207f89d0b0a8441bb32959a0ac7df790e9ab1a25c989268152f35b81600319360112610308576020905173dac17f958d2ee523a2206206994597c13d831ec78152f35b81600319360112610308576020905173a0b86991c6218b36c1d19d4a2e9eb0ce3606eb488152f35b81600319360112610308576102f090610519610aa8565b90682737ba1037bbb732b960b91b60208301525191829182610acc565b81600319360112610308576102f09061054d610a02565b906e151c985b9cd9995c8819985a5b1959608a1b60208301525191829182610acc565b610b15565b81600319360112610308576102f09061058c610a60565b9073496e73756666696369656e742062616c616e636560601b60208301525191829182610acc565b816003193601126103085760209051735f4ec3df9cbd43714fe2740f5e3616155c5b84198152f35b81600319360112610308576102f0906105f3610aa8565b90682737ba1030b236b4b760b91b60208301525191829182610acc565b81600319360112610308576102f090610627610a84565b906c14de5cdd195b481c185d5cd959609a1b60208301525191829182610acc565b81600319360112610308576102f09061065f610a60565b907313dc195c985d1a5bdb881cdd58d8d95cdcd99d5b60621b60208301525191829182610acc565b610b5d565b8160031936011261030857602090517f71f3d55856e4058ed06ee057d79ada615f65cdf5f9ee88181b914225088f834f8152f35b8160031936011261030857602090517fa49807205ce4d355092ef5a8a18f56e8913cf4a201fbe287825b095693c217758152f35b816003193601126103085760209051620827508152f35b81600319360112610308576102f090610722610a60565b907372656e74636861696e2d61677265656d656e742d60601b60208301525191829182610acc565b81600319360112610308576020905160898152f35b816003193601126103085780519080820182811067ffffffffffffffff8211176102f4576102f093508152601382527272656e74636861696e2d70726f70657274792d60681b60208301525191829182610acc565b8160031936011261030857602090516208274f8152f35b81600319360112610308576020905160128152f35b81600319360112610308576020905161012c8152f35b610b45565b816003193601126103085760209051733e7d1eab13ad0104d2750b8863b489d65364e32d8152f35b816003193601126103085760209051738fffffd4afb6115b954bd326cbe7b4ba576818f68152f35b816003193601126103085751908152602090f35b8160031936011261030857602090516a52b7d2dcc80cd2e40000008152f35b81600319360112610308576102f090610895610a3c565b90701059dc99595b595b9d0818dc99585d1959607a1b60208301525191829182610acc565b816003193601126103085760209051736b175474e89094c44da98b954eedeac495271d0f8152f35b81600319360112610308576020905160058152f35b610b2c565b8160031936011261030857602090517fbf233dd2aafeb4d50879c4aa5c81e96d92f6e6945c906a58f9f2d1c1631b4b268152f35b81600319360112610308576102f090610947610a02565b906e496e76616c6964206164647265737360881b60208301525191829182610acc565b816003193601126103085780519080820182811067ffffffffffffffff8211176102f4576102f093508152600e82526d125b9d985b1a5908185b5bdd5b9d60921b60208301525191829182610acc565b60003660031901126109e457602060405173742d35cc6634c0532925a3b8dc9f5a6f6e8c6f5e8152f35b600080fd5b60003660031901126109e4576020604051620151808152f35b604051906040820182811067ffffffffffffffff821117610a2657604052600f8252565b634e487b7160e01b600052604160045260246000fd5b604051906040820182811067ffffffffffffffff821117610a265760405260118252565b604051906040820182811067ffffffffffffffff821117610a265760405260148252565b604051906040820182811067ffffffffffffffff821117610a2657604052600d8252565b604051906040820182811067ffffffffffffffff821117610a265760405260098252565b6020808252825181830181905290939260005b828110610b0157505060409293506000838284010152601f8019910116010190565b818101860151848201604001528501610adf565b60003660031901126109e457602060405160648152f35b60003660031901126109e457602060405162278d008152f35b60003660031901126109e45760206040516101f48152f35b60003660031901126109e457602060405162093a808152f35b60003660031901126109e45760206040516301e133808152f3fea26469706673582212201b5ce95d90ff2c2d1f36c37f05f3a0539419246e0b27799fae4f6ba73eb3b6c764736f6c63430008130033",
  "linkReferences": {},
  "deployedLinkReferences": {}
}