{
  "_format": "hh-sol-artifact-1",
  "contractName": "EscrowManager",
  "sourceName": "contracts/EscrowManager.sol",
  "abi": [
    {
      "inputs": [
        {
          "internalType": "address",
          "name": "_rentAgreement",
          "type": "address"
        }
      ],
      "stateMutability": "nonpayable",
      "type": "constructor"
    },
    {
      "anonymous": false,
      "inputs": [
        {
          "indexed": true,
          "internalType": "uint256",
          "name": "escrowId",
          "type": "uint256"
        },
        {
          "indexed": true,
          "internalType": "address",
          "name": "landlord",
          "type": "address"
        },
        {
          "indexed": true,
          "internalType": "address",
          "name": "tenant",
          "type": "address"
        },
        {
          "indexed": false,
          "internalType": "uint256",
          "name": "amount",
          "type": "uint256"
        }
      ],
      "name": "EscrowCreated",
      "type": "event"
    },
    {
      "anonymous": false,
      "inputs": [
        {
          "indexed": true,
          "internalType": "uint256",
          "name": "escrowId",
          "type": "uint256"
        }
      ],
      "name": "EscrowDisputed",
      "type": "event"
    },
    {
      "anonymous": false,
      "inputs": [
        {
          "indexed": true,
          "internalType": "uint256",
          "name": "escrowId",
          "type": "uint256"
        },
        {
          "indexed": true,
          "internalType": "address",
          "name": "to",
          "type": "address"
        },
        {
          "indexed": false,
          "internalType": "uint256",
          "name": "amount",
          "type": "uint256"
        }
      ],
      "name": "EscrowReleased",
      "type": "event"
    },
    {
      "anonymous": false,
      "inputs": [
        {
          "indexed": true,
          "internalType": "uint256",
          "name": "escrowId",
          "type": "uint256"
        },
        {
          "indexed": true,
          "internalType": "address",
          "name": "winner",
          "type": "address"
        },
        {
          "indexed": false,
          "internalType": "uint256",
          "name": "amount",
          "type": "uint256"
        }
      ],
      "name": "EscrowResolved",
      "type": "event"
    },
    {
      "inputs": [
        {
          "internalType": "address",
          "name": "landlord",
          "type": "address"
        },
        {
          "internalType": "address",
          "name": "tenant",
          "type": "address"
        },
        {
          "internalType": "uint256",
          "name": "amount",
          "type": "uint256"
        },
        {
          "internalType": "address",
          "name": "token",
          "type": "address"
        },
        {
          "internalType": "uint256",
          "name": "duration",
          "type": "uint256"
        }
      ],
      "name": "createEscrow",
      "outputs": [
        {
          "internalType": "uint256",
          "name": "",
          "type": "uint256"
        }
      ],
      "stateMutability": "nonpayable",
      "type": "function"
    },
    {
      "inputs": [
        {
          "internalType": "uint256",
          "name": "",
          "type": "uint256"
        }
      ],
      "name": "escrows",
      "outputs": [
        {
          "internalType": "address",
          "name": "landlord",
          "type": "address"
        },
        {
          "internalType": "address",
          "name": "tenant",
          "type": "address"
        },
        {
          "internalType": "uint256",
          "name": "amount",
          "type": "uint256"
        },
        {
          "internalType": "address",
          "name": "token",
          "type": "address"
        },
        {
          "internalType": "uint256",
          "name": "releaseTime",
          "type": "uint256"
        },
        {
          "internalType": "bool",
          "name": "released",
          "type": "bool"
        },
        {
          "internalType": "bool",
          "name": "disputed",
          "type": "bool"
        }
      ],
      "stateMutability": "view",
      "type": "function"
    },
    {
      "inputs": [
        {
          "internalType": "address",
          "name": "token",
          "type": "address"
        }
      ],
      "name": "getEscrowBalance",
      "outputs": [
        {
          "internalType": "uint256",
          "name": "",
          "type": "uint256"
        }
      ],
      "stateMutability": "view",
      "type": "function"
    },
    {
      "inputs": [],
      "name": "nextEscrowId",
      "outputs": [
        {
          "internalType": "uint256",
          "name": "",
          "type": "uint256"
        }
      ],
      "stateMutability": "view",
      "type": "function"
    },
    {
      "inputs": [
        {
          "internalType": "uint256",
          "name": "escrowId",
          "type": "uint256"
        }
      ],
      "name": "raiseDispute",
      "outputs": [],
      "stateMutability": "nonpayable",
      "type": "function"
    },
    {
      "inputs": [
        {
          "internalType": "uint256",
          "name": "escrowId",
          "type": "uint256"
        }
      ],
      "name": "refundTenant",
      "outputs": [],
      "stateMutability": "nonpayable",
      "type": "function"
    },
    {
      "inputs": [
        {
          "internalType": "uint256",
          "name": "escrowId",
          "type": "uint256"
        }
      ],
      "name": "releaseEscrow",
      "outputs": [],
      "stateMutability": "nonpayable",
      "type": "function"
    },
    {
      "inputs": [],
      "name": "rentAgreement",
      "outputs": [
        {
          "internalType": "address",
          "name": "",
          "type": "address"
        }
      ],
      "stateMutability": "view",
      "type": "function"
    },
    {
      "inputs": [
        {
          "internalType": "uint256",
          "name": "escrowId",
          "type": "uint256"
        },
        {
          "internalType": "address",
          "name": "winner",
          "type": "address"
        },
        {
          "internalType": "uint256",
          "name": "amount",
          "type": "uint256"
        }
      ],
      "name": "resolveDispute",
      "outputs": [],
      "stateMutability": "nonpayable",
      "type": "function"
    }
  ],
  "bytecode": "0x60803461007457601f610b1d38819003918201601f19168301916001600160401b038311848410176100795780849260209460405283398101031261007457516001600160a01b0381169081900361007457600280546001600160a01b031916919091179055604051610a8d90816100908239f35b600080fd5b634e487b7160e01b600052604160045260246000fdfe608080604052600436101561001357600080fd5b60003560e01c908163012f52ee146108b657508063356008a51461079a5780636374b11b14610716578063886e1044146106ed57806389cb29dd146106cf5780639c17e43914610559578063a5c1674e14610486578063a67185161461023c5763ed6531641461008257600080fd5b346102375760208060031936011261023757600435806000526000825260406000209060058201926100c760ff85546100bd828216156109da565b60081c1615610a19565b600483015442106101fc5782546001600160a01b0390811693338590036101b757600381015460028201805460405163a9059cbb60e01b81526001600160a01b039890981660048901526024880152969495949084908690604490829060009088165af19485156101ab577f6244ed823ca6be0f11bc890c3fafcf3c29cb23420c14243642e930b5e07e6d0a956101669160009161017e575b5061099c565b600160ff1982541617905554169354604051908152a3005b61019e9150863d88116101a4575b6101968183610962565b810190610984565b38610160565b503d61018c565b6040513d6000823e3d90fd5b60405162461bcd60e51b815260048101849052601960248201527f4f6e6c79206c616e646c6f72642063616e2072656c65617365000000000000006044820152606490fd5b6064906040519062461bcd60e51b825260048201526014602482015273546f6f206561726c7920746f2072656c6561736560601b6044820152fd5b600080fd5b346102375760a036600319011261023757610255610936565b61025d61094c565b606435916001600160a01b03831683036102375760443515610450576040516323b872dd60e01b8152336004820152306024820152604480359082015260208160648160006001600160a01b0389165af180156101ab576102c591600091610431575061099c565b60015491600019831461041b57600183016001556084354201421161041b5760405160e081019481861067ffffffffffffffff8711176104055760409586526001600160a01b039384168083529284166020808401828152604435858a0181815294881660608701908152608435420160808801908152600060a0890181815260c08a018281528d8352828852918e902099518a54908d166001600160a01b0319918216178b55955160018b018054918e16918816919091179055975160028a0155915160038901805491909b1694169390931790985590516004860155925160059094018054965161ff0090151560081b1694151560ff1661ffff19909716969096179390931790945594519485529383907f9405ad0a6208539879349284d71265479b1623846f70303da1f9890d6e8c10a7908690a4604051908152f35b634e487b7160e01b600052604160045260246000fd5b634e487b7160e01b600052601160045260246000fd5b61044a915060203d6020116101a4576101968183610962565b85610160565b60405162461bcd60e51b815260206004820152600e60248201526d125b9d985b1a5908185b5bdd5b9d60921b6044820152606490fd5b3461023757602036600319011261023757600435806000526000602052604060002060058101908154906104bd60ff8316156109da565b8054336001600160a01b0391821614918215610548575b50501561050d5761ff0019166101001790557f7ce7831fed9a800b1aa5e7ca21034bf7b95efc31a196459012cf8b8eb42b7dac600080a2005b60405162461bcd60e51b81526020600482015260136024820152724e6f7420706172747920746f20657363726f7760681b6044820152606490fd5b6001919250015416331484806104d4565b346102375760603660031901126102375760043561057561094c565b9060443591816000526020600081526040600020916005830192835460ff8160081c16156106965760ff6105aa9116156109da565b6002810154861161065f576003015460405163a9059cbb60e01b81526001600160a01b03838116600483015260248201889052909490929184908690604490829060009088165af19485156101ab577ff2986d88fbef6d847cabab14d6c2deed600a28c1330f7a5c25465898dc891d329561062c91600091610642575061099c565b805460ff191660011790556040519586521693a3005b6106599150863d88116101a4576101968183610962565b89610160565b60405162461bcd60e51b815260048101849052600f60248201526e082dadeeadce840e8dede40d0d2ced608b1b6044820152606490fd5b60405162461bcd60e51b8152600481018590526011602482015270139bc8191a5cdc1d5d19481c985a5cd959607a1b6044820152606490fd5b34610237576000366003190112610237576020600154604051908152f35b34610237576000366003190112610237576002546040516001600160a01b039091168152602090f35b3461023757602080600319360112610237576024816001600160a01b0361073b610936565b16604051928380926370a0823160e01b82523060048301525afa9081156101ab5760009161076d575b50604051908152f35b90508181813d8311610793575b6107848183610962565b81010312610237575182610764565b503d61077a565b346102375760208060031936011261023757600435806000526000825260406000209160058301926107d560ff85546100bd828216156109da565b80546001600160a01b039190821633036108715760038101546001820180546002909301805460405163a9059cbb60e01b81529486166001600160a01b03166004860152602485015296929493929091849086908516816000816044810103925af19485156101ab577f6244ed823ca6be0f11bc890c3fafcf3c29cb23420c14243642e930b5e07e6d0a9561016691600091610642575061099c565b60405162461bcd60e51b815260048101849052601860248201527f4f6e6c79206c616e646c6f72642063616e20726566756e6400000000000000006044820152606490fd5b346102375760203660031901126102375760e090600435600052600060205260ff604060002060018060a01b03908181541691806001830154169060028301549060038401541691600560048501549401549487526020870152604086015260608501526080840152818116151560a084015260081c16151560c0820152f35b600435906001600160a01b038216820361023757565b602435906001600160a01b038216820361023757565b90601f8019910116810190811067ffffffffffffffff82111761040557604052565b90816020910312610237575180151581036102375790565b156109a357565b60405162461bcd60e51b815260206004820152600f60248201526e151c985b9cd9995c8819985a5b1959608a1b6044820152606490fd5b156109e157565b60405162461bcd60e51b815260206004820152601060248201526f105b1c9958591e481c995b19585cd95960821b6044820152606490fd5b15610a2057565b60405162461bcd60e51b815260206004820152600f60248201526e115cd8dc9bddc8191a5cdc1d5d1959608a1b6044820152606490fdfea264697066735822122038f8572c47fcfe8a4eac0cb2e7d6790debb0d6d8d4772b5c062be8e507d381bb64736f6c63430008130033",
  "linkReferences": {},
  "deployedLinkReferences": {}
}