{
  "_format": "hh-sol-artifact-1",
  "contractName": "RentChainCompliance",
  "sourceName": "contracts/RentChainCompliance.sol",
  "abi": [
    {
      "inputs": [
        {
          "internalType": "address",
          "name": "_emergencySystem",
          "type": "address"
        }
      ],
      "stateMutability": "nonpayable",
      "type": "constructor"
    },
    {
      "anonymous": false,
      "inputs": [
        {
          "indexed": true,
          "internalType": "address",
          "name": "previousAdmin",
          "type": "address"
        },
        {
          "indexed": true,
          "internalType": "address",
          "name": "newAdmin",
          "type": "address"
        }
      ],
      "name": "AdminChanged",
      "type": "event"
    },
    {
      "anonymous": false,
      "inputs": [
        {
          "indexed": false,
          "internalType": "address",
          "name": "officer",
          "type": "address"
        }
      ],
      "name": "ComplianceOfficerAdded",
      "type": "event"
    },
    {
      "anonymous": false,
      "inputs": [
        {
          "indexed": false,
          "internalType": "address",
          "name": "officer",
          "type": "address"
        }
      ],
      "name": "ComplianceOfficerRemoved",
      "type": "event"
    },
    {
      "anonymous": false,
      "inputs": [
        {
          "indexed": false,
          "internalType": "string",
          "name": "ruleId",
          "type": "string"
        },
        {
          "indexed": false,
          "internalType": "string",
          "name": "jurisdiction",
          "type": "string"
        },
        {
          "indexed": false,
          "internalType": "string",
          "name": "description",
          "type": "string"
        }
      ],
      "name": "ComplianceRuleAdded",
      "type": "event"
    },
    {
      "anonymous": false,
      "inputs": [
        {
          "indexed": false,
          "internalType": "string",
          "name": "ruleId",
          "type": "string"
        },
        {
          "indexed": false,
          "internalType": "bool",
          "name": "active",
          "type": "bool"
        }
      ],
      "name": "ComplianceRuleUpdated",
      "type": "event"
    },
    {
      "anonymous": false,
      "inputs": [
        {
          "indexed": false,
          "internalType": "address",
          "name": "initializer",
          "type": "address"
        },
        {
          "indexed": false,
          "internalType": "uint256",
          "name": "version",
          "type": "uint256"
        }
      ],
      "name": "ContractInitialized",
      "type": "event"
    },
    {
      "anonymous": false,
      "inputs": [
        {
          "indexed": false,
          "internalType": "uint256",
          "name": "oldVersion",
          "type": "uint256"
        },
        {
          "indexed": false,
          "internalType": "uint256",
          "name": "newVersion",
          "type": "uint256"
        }
      ],
      "name": "ContractUpgraded",
      "type": "event"
    },
    {
      "anonymous": false,
      "inputs": [
        {
          "indexed": false,
          "internalType": "address",
          "name": "oldSystem",
          "type": "address"
        },
        {
          "indexed": false,
          "internalType": "address",
          "name": "newSystem",
          "type": "address"
        }
      ],
      "name": "EmergencySystemUpdated",
      "type": "event"
    },
    {
      "anonymous": false,
      "inputs": [
        {
          "indexed": false,
          "internalType": "address",
          "name": "user",
          "type": "address"
        },
        {
          "indexed": false,
          "internalType": "string",
          "name": "newJurisdiction",
          "type": "string"
        }
      ],
      "name": "JurisdictionUpdated",
      "type": "event"
    },
    {
      "anonymous": false,
      "inputs": [
        {
          "indexed": false,
          "internalType": "address",
          "name": "user",
          "type": "address"
        },
        {
          "indexed": false,
          "internalType": "uint256",
          "name": "amount",
          "type": "uint256"
        },
        {
          "indexed": false,
          "internalType": "string",
          "name": "reason",
          "type": "string"
        }
      ],
      "name": "TransactionFlagged",
      "type": "event"
    },
    {
      "anonymous": false,
      "inputs": [
        {
          "indexed": false,
          "internalType": "address",
          "name": "user",
          "type": "address"
        },
        {
          "indexed": false,
          "internalType": "string",
          "name": "checkType",
          "type": "string"
        },
        {
          "indexed": false,
          "internalType": "bool",
          "name": "passed",
          "type": "bool"
        },
        {
          "indexed": false,
          "internalType": "address",
          "name": "verifiedBy",
          "type": "address"
        }
      ],
      "name": "UserVerified",
      "type": "event"
    },
    {
      "inputs": [],
      "name": "DAILY_RESET_TIME",
      "outputs": [
        {
          "internalType": "uint256",
          "name": "",
          "type": "uint256"
        }
      ],
      "stateMutability": "view",
      "type": "function"
    },
    {
      "inputs": [
        {
          "internalType": "address",
          "name": "officer",
          "type": "address"
        }
      ],
      "name": "addComplianceOfficer",
      "outputs": [],
      "stateMutability": "nonpayable",
      "type": "function"
    },
    {
      "inputs": [
        {
          "internalType": "string",
          "name": "jurisdiction",
          "type": "string"
        },
        {
          "internalType": "string",
          "name": "ruleId",
          "type": "string"
        },
        {
          "internalType": "string",
          "name": "description",
          "type": "string"
        },
        {
          "internalType": "uint256",
          "name": "minAmount",
          "type": "uint256"
        },
        {
          "internalType": "uint256",
          "name": "maxAmount",
          "type": "uint256"
        }
      ],
      "name": "addRegulatoryRule",
      "outputs": [],
      "stateMutability": "nonpayable",
      "type": "function"
    },
    {
      "inputs": [],
      "name": "admin",
      "outputs": [
        {
          "internalType": "address",
          "name": "",
          "type": "address"
        }
      ],
      "stateMutability": "view",
      "type": "function"
    },
    {
      "inputs": [
        {
          "internalType": "address",
          "name": "user",
          "type": "address"
        },
        {
          "internalType": "uint256",
          "name": "amount",
          "type": "uint256"
        },
        {
          "internalType": "string",
          "name": "transactionType",
          "type": "string"
        }
      ],
      "name": "checkTransactionCompliance",
      "outputs": [
        {
          "internalType": "bool",
          "name": "compliant",
          "type": "bool"
        },
        {
          "internalType": "string",
          "name": "reason",
          "type": "string"
        }
      ],
      "stateMutability": "view",
      "type": "function"
    },
    {
      "inputs": [],
      "name": "complianceAdmin",
      "outputs": [
        {
          "internalType": "address",
          "name": "",
          "type": "address"
        }
      ],
      "stateMutability": "view",
      "type": "function"
    },
    {
      "inputs": [
        {
          "internalType": "address",
          "name": "",
          "type": "address"
        },
        {
          "internalType": "uint256",
          "name": "",
          "type": "uint256"
        }
      ],
      "name": "complianceHistory",
      "outputs": [
        {
          "internalType": "address",
          "name": "user",
          "type": "address"
        },
        {
          "internalType": "uint256",
          "name": "timestamp",
          "type": "uint256"
        },
        {
          "internalType": "string",
          "name": "checkType",
          "type": "string"
        },
        {
          "internalType": "bool",
          "name": "passed",
          "type": "bool"
        },
        {
          "internalType": "string",
          "name": "details",
          "type": "string"
        },
        {
          "internalType": "address",
          "name": "verifiedBy",
          "type": "address"
        }
      ],
      "stateMutability": "view",
      "type": "function"
    },
    {
      "inputs": [
        {
          "internalType": "address",
          "name": "",
          "type": "address"
        }
      ],
      "name": "complianceOfficers",
      "outputs": [
        {
          "internalType": "bool",
          "name": "",
          "type": "bool"
        }
      ],
      "stateMutability": "view",
      "type": "function"
    },
    {
      "inputs": [
        {
          "internalType": "address",
          "name": "user",
          "type": "address"
        }
      ],
      "name": "emergencyFreezeUser",
      "outputs": [],
      "stateMutability": "nonpayable",
      "type": "function"
    },
    {
      "inputs": [],
      "name": "emergencySystem",
      "outputs": [
        {
          "internalType": "contract RentChainEmergency",
          "name": "",
          "type": "address"
        }
      ],
      "stateMutability": "view",
      "type": "function"
    },
    {
      "inputs": [
        {
          "internalType": "address",
          "name": "user",
          "type": "address"
        },
        {
          "internalType": "uint256",
          "name": "amount",
          "type": "uint256"
        },
        {
          "internalType": "string",
          "name": "reason",
          "type": "string"
        }
      ],
      "name": "flagSuspiciousActivity",
      "outputs": [],
      "stateMutability": "nonpayable",
      "type": "function"
    },
    {
      "inputs": [
        {
          "internalType": "address",
          "name": "user",
          "type": "address"
        },
        {
          "internalType": "uint256",
          "name": "start",
          "type": "uint256"
        },
        {
          "internalType": "uint256",
          "name": "count",
          "type": "uint256"
        }
      ],
      "name": "getComplianceHistory",
      "outputs": [
        {
          "components": [
            {
              "internalType": "address",
              "name": "user",
              "type": "address"
            },
            {
              "internalType": "uint256",
              "name": "timestamp",
              "type": "uint256"
            },
            {
              "internalType": "string",
              "name": "checkType",
              "type": "string"
            },
            {
              "internalType": "bool",
              "name": "passed",
              "type": "bool"
            },
            {
              "internalType": "string",
              "name": "details",
              "type": "string"
            },
            {
              "internalType": "address",
              "name": "verifiedBy",
              "type": "address"
            }
          ],
          "internalType": "struct RentChainCompliance.ComplianceCheck[]",
          "name": "",
          "type": "tuple[]"
        }
      ],
      "stateMutability": "view",
      "type": "function"
    },
    {
      "inputs": [],
      "name": "getContractInfo",
      "outputs": [
        {
          "internalType": "address",
          "name": "contractAdmin",
          "type": "address"
        },
        {
          "internalType": "address",
          "name": "emergencySystemAddress",
          "type": "address"
        },
        {
          "internalType": "uint256",
          "name": "contractVersion",
          "type": "uint256"
        },
        {
          "internalType": "bool",
          "name": "isInitialized",
          "type": "bool"
        },
        {
          "internalType": "bool",
          "name": "isPaused",
          "type": "bool"
        }
      ],
      "stateMutability": "view",
      "type": "function"
    },
    {
      "inputs": [],
      "name": "getPauseInfo",
      "outputs": [
        {
          "internalType": "bool",
          "name": "paused",
          "type": "bool"
        },
        {
          "internalType": "uint256",
          "name": "pauseStart",
          "type": "uint256"
        },
        {
          "internalType": "uint256",
          "name": "pauseEnd",
          "type": "uint256"
        },
        {
          "internalType": "string",
          "name": "reason",
          "type": "string"
        }
      ],
      "stateMutability": "view",
      "type": "function"
    },
    {
      "inputs": [],
      "name": "getRegulatoryRules",
      "outputs": [
        {
          "internalType": "string[]",
          "name": "ruleIds",
          "type": "string[]"
        },
        {
          "internalType": "string[]",
          "name": "jurisdictions",
          "type": "string[]"
        },
        {
          "internalType": "string[]",
          "name": "descriptions",
          "type": "string[]"
        },
        {
          "internalType": "bool[]",
          "name": "activeStatus",
          "type": "bool[]"
        }
      ],
      "stateMutability": "view",
      "type": "function"
    },
    {
      "inputs": [
        {
          "internalType": "address",
          "name": "user",
          "type": "address"
        }
      ],
      "name": "getUserComplianceStatus",
      "outputs": [
        {
          "internalType": "bool",
          "name": "kycVerified",
          "type": "bool"
        },
        {
          "internalType": "bool",
          "name": "amlVerified",
          "type": "bool"
        },
        {
          "internalType": "uint256",
          "name": "verificationLevel",
          "type": "uint256"
        },
        {
          "internalType": "uint256",
          "name": "lastVerified",
          "type": "uint256"
        },
        {
          "internalType": "string",
          "name": "jurisdiction",
          "type": "string"
        },
        {
          "internalType": "uint256",
          "name": "transactionLimit",
          "type": "uint256"
        },
        {
          "internalType": "uint256",
          "name": "dailyVolume",
          "type": "uint256"
        },
        {
          "internalType": "uint256",
          "name": "checksCount",
          "type": "uint256"
        }
      ],
      "stateMutability": "view",
      "type": "function"
    },
    {
      "inputs": [],
      "name": "initialized",
      "outputs": [
        {
          "internalType": "bool",
          "name": "",
          "type": "bool"
        }
      ],
      "stateMutability": "view",
      "type": "function"
    },
    {
      "inputs": [],
      "name": "isSystemPaused",
      "outputs": [
        {
          "internalType": "bool",
          "name": "",
          "type": "bool"
        }
      ],
      "stateMutability": "view",
      "type": "function"
    },
    {
      "inputs": [
        {
          "internalType": "string",
          "name": "",
          "type": "string"
        },
        {
          "internalType": "address",
          "name": "",
          "type": "address"
        }
      ],
      "name": "jurisdictionApprovals",
      "outputs": [
        {
          "internalType": "bool",
          "name": "",
          "type": "bool"
        }
      ],
      "stateMutability": "view",
      "type": "function"
    },
    {
      "inputs": [],
      "name": "nextRuleId",
      "outputs": [
        {
          "internalType": "uint256",
          "name": "",
          "type": "uint256"
        }
      ],
      "stateMutability": "view",
      "type": "function"
    },
    {
      "inputs": [],
      "name": "pauseContract",
      "outputs": [],
      "stateMutability": "nonpayable",
      "type": "function"
    },
    {
      "inputs": [
        {
          "internalType": "address",
          "name": "user",
          "type": "address"
        },
        {
          "internalType": "uint256",
          "name": "amount",
          "type": "uint256"
        }
      ],
      "name": "recordTransaction",
      "outputs": [],
      "stateMutability": "nonpayable",
      "type": "function"
    },
    {
      "inputs": [
        {
          "internalType": "address",
          "name": "token",
          "type": "address"
        },
        {
          "internalType": "uint256",
          "name": "amount",
          "type": "uint256"
        },
        {
          "internalType": "address",
          "name": "recipient",
          "type": "address"
        }
      ],
      "name": "recoverStuckTokens",
      "outputs": [],
      "stateMutability": "nonpayable",
      "type": "function"
    },
    {
      "inputs": [
        {
          "internalType": "string",
          "name": "",
          "type": "string"
        }
      ],
      "name": "regulatoryRules",
      "outputs": [
        {
          "internalType": "string",
          "name": "jurisdiction",
          "type": "string"
        },
        {
          "internalType": "string",
          "name": "ruleId",
          "type": "string"
        },
        {
          "internalType": "string",
          "name": "description",
          "type": "string"
        },
        {
          "internalType": "bool",
          "name": "active",
          "type": "bool"
        },
        {
          "internalType": "uint256",
          "name": "minAmount",
          "type": "uint256"
        },
        {
          "internalType": "uint256",
          "name": "maxAmount",
          "type": "uint256"
        },
        {
          "internalType": "uint256",
          "name": "createdAt",
          "type": "uint256"
        }
      ],
      "stateMutability": "view",
      "type": "function"
    },
    {
      "inputs": [
        {
          "internalType": "address",
          "name": "officer",
          "type": "address"
        }
      ],
      "name": "removeComplianceOfficer",
      "outputs": [],
      "stateMutability": "nonpayable",
      "type": "function"
    },
    {
      "inputs": [
        {
          "internalType": "address",
          "name": "token",
          "type": "address"
        },
        {
          "internalType": "uint256",
          "name": "amount",
          "type": "uint256"
        }
      ],
      "name": "requestEmergencyWithdrawal",
      "outputs": [
        {
          "internalType": "bytes32",
          "name": "",
          "type": "bytes32"
        }
      ],
      "stateMutability": "nonpayable",
      "type": "function"
    },
    {
      "inputs": [],
      "name": "resumeContract",
      "outputs": [],
      "stateMutability": "nonpayable",
      "type": "function"
    },
    {
      "inputs": [
        {
          "internalType": "address",
          "name": "user",
          "type": "address"
        },
        {
          "internalType": "uint256",
          "name": "limit",
          "type": "uint256"
        }
      ],
      "name": "setUserTransactionLimit",
      "outputs": [],
      "stateMutability": "nonpayable",
      "type": "function"
    },
    {
      "inputs": [
        {
          "internalType": "uint256",
          "name": "newVersion",
          "type": "uint256"
        }
      ],
      "name": "setVersion",
      "outputs": [],
      "stateMutability": "nonpayable",
      "type": "function"
    },
    {
      "inputs": [
        {
          "internalType": "string",
          "name": "ruleId",
          "type": "string"
        },
        {
          "internalType": "bool",
          "name": "active",
          "type": "bool"
        }
      ],
      "name": "toggleRegulatoryRule",
      "outputs": [],
      "stateMutability": "nonpayable",
      "type": "function"
    },
    {
      "inputs": [
        {
          "internalType": "address",
          "name": "newAdmin",
          "type": "address"
        }
      ],
      "name": "transferAdmin",
      "outputs": [],
      "stateMutability": "nonpayable",
      "type": "function"
    },
    {
      "inputs": [
        {
          "internalType": "address",
          "name": "newEmergencySystem",
          "type": "address"
        }
      ],
      "name": "updateEmergencySystem",
      "outputs": [],
      "stateMutability": "nonpayable",
      "type": "function"
    },
    {
      "inputs": [
        {
          "internalType": "address",
          "name": "user",
          "type": "address"
        },
        {
          "internalType": "string",
          "name": "jurisdiction",
          "type": "string"
        }
      ],
      "name": "updateUserJurisdiction",
      "outputs": [],
      "stateMutability": "nonpayable",
      "type": "function"
    },
    {
      "inputs": [
        {
          "internalType": "address",
          "name": "",
          "type": "address"
        }
      ],
      "name": "userCompliance",
      "outputs": [
        {
          "internalType": "bool",
          "name": "kycVerified",
          "type": "bool"
        },
        {
          "internalType": "bool",
          "name": "amlVerified",
          "type": "bool"
        },
        {
          "internalType": "uint256",
          "name": "verificationLevel",
          "type": "uint256"
        },
        {
          "internalType": "uint256",
          "name": "lastVerified",
          "type": "uint256"
        },
        {
          "internalType": "string",
          "name": "jurisdiction",
          "type": "string"
        },
        {
          "internalType": "uint256",
          "name": "transactionLimit",
          "type": "uint256"
        },
        {
          "internalType": "uint256",
          "name": "dailyVolume",
          "type": "uint256"
        },
        {
          "internalType": "uint256",
          "name": "lastReset",
          "type": "uint256"
        }
      ],
      "stateMutability": "view",
      "type": "function"
    },
    {
      "inputs": [
        {
          "internalType": "address",
          "name": "user",
          "type": "address"
        },
        {
          "internalType": "bool",
          "name": "passed",
          "type": "bool"
        },
        {
          "internalType": "string",
          "name": "details",
          "type": "string"
        }
      ],
      "name": "verifyUserAML",
      "outputs": [],
      "stateMutability": "nonpayable",
      "type": "function"
    },
    {
      "inputs": [
        {
          "internalType": "address",
          "name": "user",
          "type": "address"
        },
        {
          "internalType": "bool",
          "name": "passed",
          "type": "bool"
        },
        {
          "internalType": "string",
          "name": "details",
          "type": "string"
        }
      ],
      "name": "verifyUserKYC",
      "outputs": [],
      "stateMutability": "nonpayable",
      "type": "function"
    },
    {
      "inputs": [],
      "name": "version",
      "outputs": [
        {
          "internalType": "uint256",
          "name": "",
          "type": "uint256"
        }
      ],
      "stateMutability": "view",
      "type": "function"
    },
    {
      "stateMutability": "payable",
      "type": "receive"
    }
  ],
  "bytecode": "0x60803462001b6c57601f6200476838819003918201601f19168301916001600160401b0383118484101762000e855780849260209460405283398101031262001b6c57516001600160a01b0381169081900362001b6c5760018060a01b0319903382600054161760005581600254161760025560018055339060085416176008553360005260066020526040600020600160ff19825416179055620000a362001b91565b6002815261555360f01b6020820152620000bc62001b91565b600a81526955535f4b59435f30303160b01b6020820152620000dd62001b91565b601f81527f4261736963204b594320766572696669636174696f6e20726571756972656400602082015233600052600660205260ff60406000205416801562001b57575b156200105e576200013162001b71565b92808452826020850152816040850152600160608501526000608085015260001960a08501524260c08501526040516020818551620001748183858a0162001bb1565b60059082019081520301902084518051906001600160401b03821162000e8557825490600182811c9216801562001b4c575b602083101462000e645781601f84931162001af7575b50602090601f831160011462001a865760009262001a7a575b50508160011b916000199060031b1c19161781555b60208501518051906001600160401b03821162000e8557600183015490600182811c9216801562001a6f575b602083101462000e645781601f84931162001a17575b50602090601f8311600114620019a05760009262001994575b50508160011b916000199060031b1c19161760018201555b604085015180519095906001600160401b03811162000e85576002830154600181811c9116801562001989575b602082101462000e6457601f81116200193d575b506020601f8211600114620018bf5792600660c0620003549484620003639895620003459b9a98600080516020620047488339815191529d60009262000d73575b50508160011b916000199060031b1c19161760028501555b6200031760608201511515600386019060ff801983541691151516179055565b6080810151600485015560a08101516005850155015191015560405195869560608752606087019062001bd6565b90858203602087015262001bd6565b90838203604085015262001bd6565b0390a16200037062001b91565b6002815261555360f01b60208201526200038962001b91565b600a81526955535f414d4c5f30303160b01b6020820152620003aa62001b91565b601681527f414d4c2073637265656e696e6720726571756972656400000000000000000000602082015233600052600660205260ff604060002054168015620018aa575b156200105e57620003fe62001b71565b9280845282602085015281604085015260016060850152683635c9adc5dea00000608085015260001960a08501524260c08501526040516020818551620004498183858a0162001bb1565b60059082019081520301902084518051906001600160401b03821162000e8557825490600182811c921680156200189f575b602083101462000e645781601f8493116200184a575b50602090601f8311600114620017d957600092620017cd575b50508160011b916000199060031b1c19161781555b60208501518051906001600160401b03821162000e8557600183015490600182811c92168015620017c2575b602083101462000e645781601f8493116200176a575b50602090601f8311600114620016f357600092620016e7575b50508160011b916000199060031b1c19161760018201555b604085015180519095906001600160401b03811162000e85576002830154600181811c91168015620016dc575b602082101462000e6457601f811162001690575b506020601f8211600114620016125792600660c0620003549484620005ea9895620003459b9a98600080516020620047488339815191529d60009262000d735750508160011b916000199060031b1c19161760028501556200031760608201511515600386019060ff801983541691151516179055565b0390a1620005f762001b91565b6002815261455560f01b60208201526200061062001b91565b600a81526945555f4b59435f30303160b01b60208201526200063162001b91565b601081526f4555204b5943207374616e646172647360801b602082015233600052600660205260ff604060002054168015620015fd575b156200105e576200067862001b71565b92808452826020850152816040850152600160608501526000608085015260001960a08501524260c08501526040516020818551620006bb8183858a0162001bb1565b60059082019081520301902084518051906001600160401b03821162000e8557825490600182811c92168015620015f2575b602083101462000e645781601f8493116200159d575b50602090601f83116001146200152c5760009262001520575b50508160011b916000199060031b1c19161781555b60208501518051906001600160401b03821162000e8557600183015490600182811c9216801562001515575b602083101462000e645781601f849311620014bd575b50602090601f831160011462001446576000926200143a575b50508160011b916000199060031b1c19161760018201555b604085015180519095906001600160401b03811162000e85576002830154600181811c911680156200142f575b602082101462000e6457601f8111620013e3575b506020601f8211600114620013655792600660c06200035494846200085c9895620003459b9a98600080516020620047488339815191529d60009262000d735750508160011b916000199060031b1c19161760028501556200031760608201511515600386019060ff801983541691151516179055565b0390a16200086962001b91565b6002815261455560f01b60208201526200088262001b91565b600a81526945555f414d4c5f30303160b01b6020820152620008a362001b91565b601081526f455520414d4c2064697265637469766560801b602082015233600052600660205260ff60406000205416801562001350575b156200105e57620008ea62001b71565b928084528260208501528160408501526001606085015269021e19e0c9bab2400000608085015260001960a08501524260c08501526040516020818551620009368183858a0162001bb1565b60059082019081520301902084518051906001600160401b03821162000e8557825490600182811c9216801562001345575b602083101462000e645781601f849311620012f0575b50602090601f83116001146200127f5760009262001273575b50508160011b916000199060031b1c19161781555b60208501518051906001600160401b03821162000e8557600183015490600182811c9216801562001268575b602083101462000e645781601f84931162001210575b50602090601f831160011462001199576000926200118d575b50508160011b916000199060031b1c19161760018201555b604085015180519095906001600160401b03811162000e85576002830154600181811c9116801562001182575b602082101462000e6457601f811162001136575b506020601f8211600114620010b85792600660c062000354948462000ad79895620003459b9a98600080516020620047488339815191529d60009262000d735750508160011b916000199060031b1c19161760028501556200031760608201511515600386019060ff801983541691151516179055565b0390a162000ae462001b91565b600681526511d313d0905360d21b602082015262000b0162001b91565b601081526f474c4f42414c5f53414e4354494f4e5360801b602082015262000b2862001b91565b601a81527f476c6f62616c2073616e6374696f6e732073637265656e696e67000000000000602082015233600052600660205260ff604060002054168015620010a3575b156200105e5762000b7c62001b71565b92808452826020850152816040850152600160608501526000608085015260001960a08501524260c0850152604051602081855162000bbf8183858a0162001bb1565b60059082019081520301902084518051906001600160401b03821162000e8557825490600182811c9216801562001053575b602083101462000e645781601f84931162000ffe575b50602090601f831160011462000f8d5760009262000f81575b50508160011b916000199060031b1c19161781555b60208501518051906001600160401b03821162000e8557600183015490600182811c9216801562000f76575b602083101462000e645781601f84931162000f1e575b50602090601f831160011462000ea75760009262000e9b575b50508160011b916000199060031b1c19161760018201555b604085015180519095906001600160401b03811162000e85576002830154600181811c9116801562000e7a575b602082101462000e6457601f811162000e18575b506020601f821160011462000d7f5792600660c062000354948462000d609895620003459b9a98600080516020620047488339815191529d60009262000d735750508160011b916000199060031b1c19161760028501556200031760608201511515600386019060ff801983541691151516179055565b0390a1604051612b4a908162001bfe8239f35b015190503880620002df565b6002840160005260206000209760005b601f198416811062000dff575060c06200035494600185600080516020620047488339815191529c620003459c9b999660069662000d609c99601f1981161062000de5575b505050811b016002850155620002f7565b015160001960f88460031b161c1916905538808062000dd4565b828201518a556001909901986020928301920162000d8f565b600284016000526020600020601f830160051c81016020841062000e5c575b601f830160051c8201811062000e4f57505062000ce9565b6000815560010162000e37565b508062000e37565b634e487b7160e01b600052602260045260246000fd5b90607f169062000cd5565b634e487b7160e01b600052604160045260246000fd5b01519050388062000c90565b9250600184016000526020600020906000935b601f198416851062000f02576001945083601f1981161062000ee8575b505050811b01600182015562000ca8565b015160001960f88460031b161c1916905538808062000ed7565b8181015183556020948501946001909301929091019062000eba565b909150600184016000526020600020601f840160051c81016020851062000f6e575b90849392915b601f830160051c8201811062000f5e57505062000c77565b6000815585945060010162000f46565b508062000f40565b91607f169162000c61565b01519050388062000c20565b9250836000526020600020906000935b601f198416851062000fe2576001945083601f1981161062000fc8575b505050811b01815562000c35565b015160001960f88460031b161c1916905538808062000fba565b8181015183556020948501946001909301929091019062000f9d565b909150836000526020600020601f840160051c8101602085106200104b575b90849392915b601f830160051c820181106200103b57505062000c07565b6000815585945060010162001023565b50806200101d565b91607f169162000bf1565b60405162461bcd60e51b815260206004820152601660248201527f4e6f7420636f6d706c69616e6365206f666669636572000000000000000000006044820152606490fd5b506008546001600160a01b0316331462000b6c565b6002840160005260206000209760005b601f19841681106200111d575060c06200035494600185600080516020620047488339815191529c620003459c9b999660069662000ad79c99601f1981161062000de557505050811b016002850155620002f7565b828201518a5560019099019860209283019201620010c8565b600284016000526020600020601f830160051c8101602084106200117a575b601f830160051c820181106200116d57505062000a60565b6000815560010162001155565b508062001155565b90607f169062000a4c565b01519050388062000a07565b9250600184016000526020600020906000935b601f1984168510620011f4576001945083601f19811610620011da575b505050811b01600182015562000a1f565b015160001960f88460031b161c19169055388080620011c9565b81810151835560209485019460019093019290910190620011ac565b909150600184016000526020600020601f840160051c81016020851062001260575b90849392915b601f830160051c8201811062001250575050620009ee565b6000815585945060010162001238565b508062001232565b91607f1691620009d8565b01519050388062000997565b9250836000526020600020906000935b601f1984168510620012d4576001945083601f19811610620012ba575b505050811b018155620009ac565b015160001960f88460031b161c19169055388080620012ac565b818101518355602094850194600190930192909101906200128f565b909150836000526020600020601f840160051c8101602085106200133d575b90849392915b601f830160051c820181106200132d5750506200097e565b6000815585945060010162001315565b50806200130f565b91607f169162000968565b506008546001600160a01b03163314620008da565b6002840160005260206000209760005b601f1984168110620013ca575060c06200035494600185600080516020620047488339815191529c620003459c9b99966006966200085c9c99601f1981161062000de557505050811b016002850155620002f7565b828201518a556001909901986020928301920162001375565b600284016000526020600020601f830160051c81016020841062001427575b601f830160051c820181106200141a575050620007e5565b6000815560010162001402565b508062001402565b90607f1690620007d1565b0151905038806200078c565b9250600184016000526020600020906000935b601f1984168510620014a1576001945083601f1981161062001487575b505050811b016001820155620007a4565b015160001960f88460031b161c1916905538808062001476565b8181015183556020948501946001909301929091019062001459565b909150600184016000526020600020601f840160051c8101602085106200150d575b90849392915b601f830160051c82018110620014fd57505062000773565b60008155859450600101620014e5565b5080620014df565b91607f16916200075d565b0151905038806200071c565b9250836000526020600020906000935b601f198416851062001581576001945083601f1981161062001567575b505050811b01815562000731565b015160001960f88460031b161c1916905538808062001559565b818101518355602094850194600190930192909101906200153c565b909150836000526020600020601f840160051c810160208510620015ea575b90849392915b601f830160051c82018110620015da57505062000703565b60008155859450600101620015c2565b5080620015bc565b91607f1691620006ed565b506008546001600160a01b0316331462000668565b6002840160005260206000209760005b601f198416811062001677575060c06200035494600185600080516020620047488339815191529c620003459c9b9996600696620005ea9c99601f1981161062000de557505050811b016002850155620002f7565b828201518a556001909901986020928301920162001622565b600284016000526020600020601f830160051c810160208410620016d4575b601f830160051c82018110620016c757505062000573565b60008155600101620016af565b5080620016af565b90607f16906200055f565b0151905038806200051a565b9250600184016000526020600020906000935b601f19841685106200174e576001945083601f1981161062001734575b505050811b01600182015562000532565b015160001960f88460031b161c1916905538808062001723565b8181015183556020948501946001909301929091019062001706565b909150600184016000526020600020601f840160051c810160208510620017ba575b90849392915b601f830160051c82018110620017aa57505062000501565b6000815585945060010162001792565b50806200178c565b91607f1691620004eb565b015190503880620004aa565b9250836000526020600020906000935b601f19841685106200182e576001945083601f1981161062001814575b505050811b018155620004bf565b015160001960f88460031b161c1916905538808062001806565b81810151835560209485019460019093019290910190620017e9565b909150836000526020600020601f840160051c81016020851062001897575b90849392915b601f830160051c820181106200188757505062000491565b600081558594506001016200186f565b508062001869565b91607f16916200047b565b506008546001600160a01b03163314620003ee565b6002840160005260206000209760005b601f198416811062001924575060c06200035494600185600080516020620047488339815191529c620003459c9b9996600696620003639c99601f1981161062000de557505050811b016002850155620002f7565b828201518a5560019099019860209283019201620018cf565b600284016000526020600020601f830160051c81016020841062001981575b601f830160051c82018110620019745750506200029e565b600081556001016200195c565b50806200195c565b90607f16906200028a565b01519050388062000245565b9250600184016000526020600020906000935b601f1984168510620019fb576001945083601f19811610620019e1575b505050811b0160018201556200025d565b015160001960f88460031b161c19169055388080620019d0565b81810151835560209485019460019093019290910190620019b3565b909150600184016000526020600020601f840160051c81016020851062001a67575b90849392915b601f830160051c8201811062001a575750506200022c565b6000815585945060010162001a3f565b508062001a39565b91607f169162000216565b015190503880620001d5565b9250836000526020600020906000935b601f198416851062001adb576001945083601f1981161062001ac1575b505050811b018155620001ea565b015160001960f88460031b161c1916905538808062001ab3565b8181015183556020948501946001909301929091019062001a96565b909150836000526020600020601f840160051c81016020851062001b44575b90849392915b601f830160051c8201811062001b34575050620001bc565b6000815585945060010162001b1c565b508062001b16565b91607f1691620001a6565b506008546001600160a01b0316331462000121565b600080fd5b6040519060e082016001600160401b0381118382101762000e8557604052565b60408051919082016001600160401b0381118382101762000e8557604052565b60005b83811062001bc55750506000910152565b818101518382015260200162001bb4565b9060209162001bf18151809281855285808601910162001bb1565b601f01601f191601019056fe60806040526004361015610069575b361561001957600080fd5b60405162461bcd60e51b815260206004820152602260248201527f446972656374206574686572207472616e7366657273206e6f7420616c6c6f77604482015261195960f21b6064820152608490fd5b6000803560e01c8063144e1c2d14611d06578063158ef93e14611ce15780631601966414611ca957806317ca06ab14611bef57806326d4468514611bc65780632951127114611b505780633981afc114611ac75780633eea21dc146118d2578063408def1e1461186d578063439766ce146117ca57806345282a921461170457806354fd4d50146116e65780635d65ad671461163957806366728c98146115c75780636ee315281461106857806370f047b01461104a57806374fc183214610ee357806375829def14610e655780637691c4ac14610e405780637cc1f86714610de75780638c44d9a414610d515780638d64cdbf14610ccb5780638f0176e714610c8c5780639b35570b14610a5f578063a8769c65146108f0578063ae03f6a3146108d2578063b7073672146108a9578063b8e8356f1461083b578063c4bc5da5146107c3578063cce4c80e146106ff578063ccf2258b14610680578063d8ceb62214610605578063e159825d14610521578063e1e57f98146103bf578063e5b6875b146102b0578063f2eb444f146102355763f851a4401461020c575061000e565b34610232578060031936011261023257546040516001600160a01b039091168152602090f35b80fd5b50346102325760203660031901126102325761024f611dff565b338252600660205260ff604083205416801561029c575b61026f90612323565b6001600160a01b03168152600360205260408120805461ffff191681556001810182905560040181905580f35b506008546001600160a01b03163314610266565b5034610232577f59e474304c28848514bd1efa64be936bb77b92c144002503db6e368e7f90297160c06102e236611ee1565b91338652600660205260ff60408720541680156103ab575b61030390612323565b61036560018060a01b03821693848852600360205260408820938015159481815461ff008860081b1661ff00198216178355816103a0575b5061038d575b5060405161034e81611e43565b600381526210535360ea1b94856020830152612542565b604051928352608060208401526003608084015260a08301526040820152336060820152a180f35b6002600182015560024291015538610341565b60ff9150163861033b565b506008546001600160a01b031633146102fa565b5034610232576040366003190112610232576004356001600160401b03811161051d576103f0903690600401611e9a565b602435801515808203610518573384526020916006835260ff6040862054168015610504575b61041f90612323565b60405161044c60018651928681818a019561043b818389611f71565b810160058152030190200154611fb9565b156104ce57916104b0849260036104946104c4977f1c285cebd863f0ce0f7f09fe22f0d6e552e6fd8b04fa132798018e1512049f029997604051809381928b51928391611f71565b81016005815203019020019060ff801983541691151516179055565b604051938493604085526040850190611f94565b918301520390a180f35b60405162461bcd60e51b815260048101859052600e60248201526d149d5b19481b9bdd08199bdd5b9960921b6044820152606490fd5b506008546001600160a01b03163314610416565b600080fd5b5080fd5b503461023257602036600319011261023257600435906001600160401b038211610232576105ce61056d602061055a3660048701611e9a565b8160405193828580945193849201611f71565b8101600581520301902061058081611ff3565b9061058d60018201611ff3565b61059960028301611ff3565b9160ff600382015416926105ea6004830154916105dc6006600586015495015495604051998a9960e08b5260e08b0190611f94565b9089820360208b0152611f94565b908782036040890152611f94565b9315156060860152608085015260a084015260c08301520390f35b5034610232576020366003190112610232576001600160a01b03610627611dff565b16815260036020526040812061067c815491600181015493600282015460048301549061066560036040600587015495600460205220549501611ff3565b90604051978760ff808b9a60081c16911689612099565b0390f35b5034610232576020366003190112610232577f6770c4f338cccfcc4c4627e6dcaa5a6892b441f73ffea5186197d156d83b55fd60206106bd611dff565b83546001600160a01b0391906106df90831633146106d9612191565b906121b6565b16808452600682526040808520805460ff1916600117905551908152a180f35b503461023257604036600319011261023257610719611dff565b6001600160a01b039081168252600460205260408220805460243591908210156107bf57906107479161215f565b5081815416906107b560018201549361076260028401611ff3565b926107a060ff60038301541692600561077d60048501611ff3565b93015416946040519788978852602088015260c0604088015260c0870190611f94565b91151560608601528482036080860152611f94565b9060a08301520390f35b8380fd5b50346102325780600319360112610232578060018060a01b036107ed8183541633146106d9612191565b60025416803b156108385781809160046040518094819363157c51d360e01b83525af1801561082d5761081d5750f35b61082690611e15565b6102325780f35b6040513d84823e3d90fd5b50fd5b503461023257604036600319011261023257610855611dff565b338252600660205260ff6040832054168015610895575b61087590612323565b6001600160a01b0316815260036020526040812060243560049091015580f35b506008546001600160a01b0316331461086c565b50346102325780600319360112610232576008546040516001600160a01b039091168152602090f35b50346102325780600319360112610232576020604051620151808152f35b5034610232578060031936011261023257610909612aa6565b610911612aa6565b9161091a612aa6565b9060405161092781611e28565b6005928382526020958683019460a0368737845b8181106109ba575050956109808192610972610965996040519a8b9a60808c5260808c0190612103565b908a8203868c0152612103565b9088820360408a0152612103565b92868403606088015251928381520193925b8281106109a157505050500390f35b8351151585528695509381019392810192600101610992565b8060ff60038a6109fb846109de9d9e9b9a9c9d6109d9610a549861295e565b6120dd565b926109eb60018501611ff3565b6109f58383612a92565b52612a92565b50610a0581611ff3565b610a0f8589612a92565b52610a1a8488612a92565b50610a2760028201611ff3565b610a31858a612a92565b52610a3c8489612a92565b50015416610a4a828a612a92565b9015159052612871565b97969593949761093b565b5034610232576060908160031936011261023257610a7b611dff565b6024359060443560018060a01b038092168452602090600482526040852090848254610aa78282612a6e565b831115610c8057610ab89250612a6e565b90949291945b610ac782612a7b565b94610ad56040519687611e5e565b828652601f19610ae484612a7b565b01855b818110610c40575050845b838110610ba957505050506040519380850191818652845180935260408601908260408560051b890101960194975b848910610b2e5787870388f35b9091929394958480600192603f198b82030187528951908682511681528282015183820152610b8b610b6e604084015160c0806040860152840190611f94565b878401511515888401526080808501519084830390850152611f94565b918760a0809201511691015298019401980197919094939294610b21565b80610bc4610bbe610c3793859b98999b612300565b8561215f565b5087600560405192610bd584611e28565b82815416845260018101548a850152610bf060028201611ff3565b6040850152600381015460ff1615158e850152610c0f60048201611ff3565b608085015201541660a0820152610c26828a612a92565b52610c318189612a92565b50612871565b96949396610af2565b9780959698604051610c5181611e28565b8a81528a838201528b60408201528a8c8201528b60808201528a60a082015282828b0101520197959497610ae7565b50509094929194610abe565b50346102325760203660031901126102325760209060ff906040906001600160a01b03610cb7611dff565b168152600684522054166040519015158152f35b5034610232576040366003190112610232576004356001600160401b03811161051d57610cfc903690600401611e9a565b6024356001600160a01b0381169190829003610518576020610d2b918160405193828580945193849201611f71565b8101600781520301902090600052602052602060ff604060002054166040519015158152f35b5034610232577f47ce6a0a45ef229786b8cf53f05efba95d395c2fa6694ec3ad5156c897a0363a610dcd610d8436611f2f565b929092338652600660205260ff6040872054168015610dd3575b610da790612323565b60405193849360018060a01b031684526020840152606060408401526060830190611f94565b0390a180f35b506008546001600160a01b03163314610d9e565b50346102325780600319360112610232575460025460015460a0926001600160a01b039283169160ff9190610e1a61229f565b93604051958316865260208601526040850152841c161515606083015215156080820152f35b50346102325780600319360112610232576020610e5b61229f565b6040519015158152f35b503461023257602036600319011261023257610e7f611dff565b8154906001600160a01b0380831691610ea1610e99612191565b8433146121b6565b610eaa81612ad8565b1680926001600160601b0360a01b161783557f7e644d79422f17c01e4894b5f4f588d331ebfa28653d42ae832dc59e38c9798f8380a380f35b503461023257606036600319011261023257610efd611dff565b602435906001600160a01b0390604435828116919082810361051857610f2a8487541633146106d9612191565b610f3261229f565b156110115785938216610f6c5750508180938192828215610f63575bf115610f575780f35b604051903d90823e3d90fd5b506108fc610f4e565b60405163a9059cbb60e01b602082019081526001600160a01b03929092166024820152604480820196909652948552611009948493508390610faf606482611e5e565b51925af13d1561100c573d610fc381611e7f565b90610fd16040519283611e5e565b81528360203d92013e5b60405190610fe882611e43565b600f82526e151c985b9cd9995c8819985a5b1959608a1b60208301526121b6565b80f35b610fdb565b60405162461bcd60e51b815260206004820152601160248201527014de5cdd195b481b9bdd081c185d5cd959607a1b6044820152606490fd5b50346102325780600319360112610232576020600954604051908152f35b50346102325760a0366003190112610232576004356001600160401b03811161051d57611099903690600401611e9a565b6024356001600160401b0381116115c3576110b8903690600401611e9a565b906044356001600160401b0381116107bf576110d8903690600401611e9a565b90338452600660205260ff60408520541680156115af575b6110f990612323565b60405160e081018181106001600160401b038211176115995760405281815283602082015282604082015260016060820152606435608082015260843560a08201524260c082015260405160208186516111568183858b01611f71565b810160058152030190209080518051906001600160401b0382116113fa5781906111808554611fb9565b601f811161154c575b50602090601f83116001146114e35789926114d8575b50508160011b916000199060031b1c19161782555b60208101518051906001600160401b0382116113fa5781906111d96001860154611fb9565b601f8111611488575b50602090601f831160011461141957899261140e575b50508160011b916000199060031b1c19161760018301555b60408101518051906001600160401b0382116113fa576112336002850154611fb9565b601f81116113b6575b5060209088601f84116001146113155760c06112ee9895856112fc967ff23590f8d80c3d0ba4d7d1873d6e0d73503b891a5ea08c5fb7efeca3bd68cdee9c9a96610dcd9a966006969261130a575b50508160011b916000199060031b1c19161760028501555b6112c160608201511515600386019060ff801983541691151516179055565b6080810151600485015560a081015160058501550151910155604051958695606087526060870190611f94565b908582036020870152611f94565b908382036040850152611f94565b01519050388061128a565b50906002850189526020892091895b601f198516811061139e575060c06112ee98956001867ff23590f8d80c3d0ba4d7d1873d6e0d73503b891a5ea08c5fb7efeca3bd68cdee9c9a96610dcd9a966006966112fc9a601f19811610611385575b505050811b0160028501556112a2565b015160001960f88460031b161c19169055388080611375565b91926020600181928685015181550194019201611324565b60028501895260208920601f840160051c8101602085106113f3575b601f830160051c820181106113e857505061123c565b8a81556001016113d2565b50806113d2565b634e487b7160e01b88526041600452602488fd5b0151905038806111f8565b9250600185018952602089209089935b601f198416851061146d576001945083601f19811610611454575b505050811b016001830155611210565b015160001960f88460031b161c19169055388080611444565b81810151835560209485019460019093019290910190611429565b90915060018501895260208920601f840160051c8101602085106114d1575b90849392915b601f830160051c820181106114c35750506111e2565b8b81558594506001016114ad565b50806114a7565b01519050388061119f565b9250848952602089209089935b601f1984168510611531576001945083601f19811610611518575b505050811b0182556111b4565b015160001960f88460031b161c1916905538808061150b565b818101518355602094850194600190930192909101906114f0565b90915084895260208920601f840160051c810160208510611592575b90849392915b601f830160051c82018110611584575050611189565b8b815585945060010161156e565b5080611568565b634e487b7160e01b600052604160045260246000fd5b506008546001600160a01b031633146110f0565b8280fd5b5034610232576020366003190112610232576040906001600160a01b036115ec611dff565b168152600360205220805461067c60018301549260028101549061161260038201611ff3565b6004820154906006600584015493015493604051978760ff808b9a60081c16911689612099565b503461023257604036600319011261023257806020611694611659611dff565b600254604051635d65ad6760e01b81526001600160a01b03928316600482015260248035908201529485939190921691839182906044820190565b03925af190811561082d5782916116b1575b602082604051908152f35b90506020813d82116116de575b816116cb60209383611e5e565b8101031261051d576020915051386116a6565b3d91506116be565b50346102325780600319360112610232576020600154604051908152f35b5034610232578060031936011261023257600254604051633e8dc9cf60e21b815291908190839060049082906001600160a01b03165afa80156117bd57818093818093611781575b50509061175c61067c9285612300565b6040519485941515855260208501526040840152608060608401526080830190611f94565b90915061067c945061175c93506117aa92503d8091833e6117a28183611e5e565b8101906121f3565b509450969491509491509394919261174c565b50604051903d90823e3d90fd5b50346102325780600319360112610232578060018060a01b036117f48183541633146106d9612191565b60025416803b1561083857819060e4604051809481936334cc128960e21b835260016004840152600160248401526001604484015262278d00606484015260a06084840152600b60a48401526a41646d696e20706175736560a81b60c48401525af1801561082d57611864575080f35b61100990611e15565b5034610232576020366003190112610232577f730abf329076f769aacddade69fbe7ca672a3c95fc1b7728ecf7b8f8cb705ed060406004356118bc60018060a01b0385541633146106d9612191565b600154908060015582519182526020820152a180f35b5034610232576040366003190112610232576118ec611dff565b6001600160401b0391906024358381116115c35761190e903690600401611e9a565b3383526020916006835260ff6040852054168015611ab3575b61193090612323565b60018060a01b03169081845260038352600360408520018151958611611a9f5761195a8154611fb9565b601f8111611a5c575b508395601f81116001146119d7579081610dcd939287987f130eaf911cd9e793a0aa72011b3d28708426b325096df62592198145f24a0f2798916119cc575b508160011b916000199060031b1c19161790555b6040805194859485528401526040830190611f94565b9050830151386119a2565b818652848620601f198216875b818110611a455750916001917f130eaf911cd9e793a0aa72011b3d28708426b325096df62592198145f24a0f27989982610dcd97969510611a2c575b5050811b0190556119b6565b85015160001960f88460031b161c191690553880611a20565b858a015183559887019860019092019187016119e4565b818652848620601f880160051c810191868910611a95575b601f0160051c01905b818110611a8a5750611963565b868155600101611a7d565b9091508190611a74565b634e487b7160e01b85526041600452602485fd5b506008546001600160a01b03163314611927565b5034610232576020366003190112610232577f62fb284f5d1a9d326f25d6900267a8cb39113f8484b351a73c1ada4014c668646040611b04611dff565b83546001600160a01b0390611b1f90821633146106d9612191565b611b2882612ad8565b80600254921690816001600160601b0360a01b8416176002558351921682526020820152a180f35b5034610232576020366003190112610232577f324590cd250ede40df823fef6b277ac70bf9636f8597b262a65605eb46148a1f6020611b8d611dff565b83546001600160a01b039190611ba990831633146106d9612191565b16808452600682526040808520805460ff1916905551908152a180f35b50346102325780600319360112610232576002546040516001600160a01b039091168152602090f35b503461023257604036600319011261023257611c09611dff565b338252600660205260ff6040832054168015611c95575b611c2990612323565b6001600160a01b03168152600360205260408120600681018054620151808101939291908410611c815760059293421015611c73575b5001611c6e6024358254612300565b905580f35b838383015542905538611c5f565b634e487b7160e01b83526011600452602483fd5b506008546001600160a01b03163314611c20565b503461023257611cc2611cbb36611f2f565b5090612368565b9061067c60405192839215158352604060208401526040830190611f94565b503461023257806003193601126102325760ff6020915460a01c166040519015158152f35b5034610232577f59e474304c28848514bd1efa64be936bb77b92c144002503db6e368e7f90297160c0611d3836611ee1565b91338652600660205260ff6040872054168015611deb575b611d5990612323565b6001600160a01b038116808752600360205260408720805460ff191660ff851515161781559093611daf9184611dd9575b5083604051611d9881611e43565b60038152624b594360e81b94856020830152612542565b604051928352608060208401526003608084015260a083015215156040820152336060820152a180f35b60018082015560024291015538611d8a565b506008546001600160a01b03163314611d50565b600435906001600160a01b038216820361051857565b6001600160401b03811161159957604052565b60c081019081106001600160401b0382111761159957604052565b604081019081106001600160401b0382111761159957604052565b90601f801991011681019081106001600160401b0382111761159957604052565b6001600160401b03811161159957601f01601f191660200190565b81601f8201121561051857803590611eb182611e7f565b92611ebf6040519485611e5e565b8284526020838301011161051857816000926020809301838601378301015290565b6060600319820112610518576004356001600160a01b0381168103610518579160243580151581036105185791604435906001600160401b03821161051857611f2c91600401611e9a565b90565b6060600319820112610518576004356001600160a01b0381168103610518579160243591604435906001600160401b03821161051857611f2c91600401611e9a565b60005b838110611f845750506000910152565b8181015183820152602001611f74565b90602091611fad81518092818552858086019101611f71565b601f01601f1916010190565b90600182811c92168015611fe9575b6020831014611fd357565b634e487b7160e01b600052602260045260246000fd5b91607f1691611fc8565b906040519182600082549261200784611fb9565b9081845260019485811690816000146120765750600114612033575b505061203192500383611e5e565b565b9093915060005260209081600020936000915b81831061205e57505061203193508201013880612023565b85548884018501529485019487945091830191612046565b91505061203194506020925060ff191682840152151560051b8201013880612023565b9491926120ce9360e0979a99989592151587521515602087015260408601526060850152610100806080860152840190611f94565b9560a083015260c08201520152565b60206120f6918160405193828580945193849201611f71565b8101600581520301902090565b908082519081815260208091019281808460051b8301019501936000915b8483106121315750505050505090565b909192939495848061214f600193601f198682030187528a51611f94565b9801930193019194939290612121565b805482101561217b576000526006602060002091020190600090565b634e487b7160e01b600052603260045260246000fd5b6040519061219e82611e43565b60098252682737ba1030b236b4b760b91b6020830152565b156121be5750565b60405162461bcd60e51b8152602060048201529081906121e2906024830190611f94565b0390fd5b5190811515820361051857565b91906101008382031261051857612209836121e6565b92612216602082016121e6565b92612223604083016121e6565b92612230606084016121e6565b9260808101519260a08201519260c08301516001600160401b0381116105185783019080601f830112156105185781519161226a83611e7f565b916122786040519384611e5e565b838352602084830101116105185760e0926122999160208085019101611f71565b92015190565b600254604051633e8dc9cf60e21b815290600090829060049082906001600160a01b03165afa9081156122f4576000916122d7575090565b6122ea913d8091833e6117a28183611e5e565b5050505050505090565b6040513d6000823e3d90fd5b9190820180921161230d57565b634e487b7160e01b600052601160045260246000fd5b1561232a57565b60405162461bcd60e51b81526020600482015260166024820152752737ba1031b7b6b83634b0b731b29037b33334b1b2b960511b6044820152606490fd5b6001600160a01b0316600090815260036020908152604080832080549195949293929160ff81161580612530575b6124c15760081c60ff1615806124ae575b612474576123b9826005830154612300565b60048201541061243b57906123d360036123d89301611ff3565b612880565b1561240357506810dbdb5c1b1a585b9d60ba1b60019351916123f983611e43565b6009835282015290565b7f4a7572697364696374696f6e616c206c696d69747320657863656564656400009093519161243183611e43565b601e835282015290565b50507f4461696c79207472616e73616374696f6e206c696d69742065786365656465649093519161246b83611e43565b80835282015290565b50507f414d4c20766572696669636174696f6e20726571756972656400000000000000909351916124a483611e43565b6019835282015290565b5069021e19e0c9bab240000082116123a7565b5050509092819381519260608401908482106001600160401b0383111761251c57508252602383527f4b594320726571756972656420666f72206c61726765207472616e736163746990830152626f6e7360e81b9082015290565b634e487b7160e01b81526041600452602490fd5b50683635c9adc5dea000008311612396565b6001600160a01b03166000818152600460205260409081902090519493929161256a86611e28565b855260208501934285526040860192835260608601931515845260808601523360a0860152805468010000000000000000811015611599576125b19160018201815561215f565b93909361285b57845184546001600160a01b0319166001600160a01b0391909116178455516001840155518051906001600160401b038211611599576125fa6002850154611fb9565b601f8111612810575b50602090601f831160011461279c5761265193929160009183612791575b50508160011b916000199060031b1c19161760028401555b511515600383019060ff801983541691151516179055565b6004810160808301518051906001600160401b038211611599576126758354611fb9565b601f8111612749575b50602090601f83116001146126dd57600594939291600091836126d2575b50508160011b916000199060031b1c19161790555b019060a0600180821b03910151166001600160601b0360a01b825416179055565b01519050388061269c565b90601f198316918460005260206000209260005b818110612731575091600193918560059897969410612718575b505050811b0190556126b1565b015160001960f88460031b161c1916905538808061270b565b929360206001819287860151815501950193016126f1565b836000526020600020601f840160051c81019160208510612787575b601f0160051c01905b81811061277b575061267e565b6000815560010161276e565b9091508190612765565b015190503880612621565b906002850160005260206000209160005b601f19851681106127f857509183916001936126519695601f198116106127df575b505050811b016002840155612639565b015160001960f88460031b161c191690553880806127cf565b919260206001819286850151815501940192016127ad565b600285016000526020600020601f840160051c81019160208510612851575b601f0160051c01905b8181106128455750612603565b60008155600101612838565b909150819061282f565b634e487b7160e01b600052600060045260246000fd5b600019811461230d5760010190565b6000908192600954935b84811061289b575050505050600190565b6128a76109d98261295e565b60ff60038201541690816128fc575b816128d7575b506128cf576128ca90612871565b61288a565b505050905090565b60048101548410915081156128ee575b50386128bc565b6005915001548211386128e7565b905061290781611ff3565b6040908151906020916129368382816129298183019687815193849201611f71565b8101038084520182611e5e565b51902091516129548282019282816129298b87815193849201611f71565b51902014906128b6565b8015612a475760018114612a2057600281146129f957600381146129d2576004146129a657604051602081018181106001600160401b03821117611599576040526000815290565b6040516129b281611e43565b601081526f474c4f42414c5f53414e4354494f4e5360801b602082015290565b506040516129df81611e43565b600a81526945555f414d4c5f30303160b01b602082015290565b50604051612a0681611e43565b600a81526945555f4b59435f30303160b01b602082015290565b50604051612a2d81611e43565b600a81526955535f414d4c5f30303160b01b602082015290565b50604051612a5481611e43565b600a81526955535f4b59435f30303160b01b602082015290565b9190820391821161230d57565b6001600160401b0381116115995760051b60200190565b805182101561217b5760209160051b010190565b60405190612ab382611e28565b600582528160005b60a08110612ac7575050565b806060602080938501015201612abb565b60405161203191612ae882611e43565b600f82526e496e76616c6964206164647265737360881b60208301526001600160a01b031615156121b656fea2646970667358221220b8356d4967ea594c32f0ee9c986353c61a183d9173dfce40624a1ea63e2317cf64736f6c63430008130033f23590f8d80c3d0ba4d7d1873d6e0d73503b891a5ea08c5fb7efeca3bd68cdee",
  "linkReferences": {},
  "deployedLinkReferences": {}
}