{
  "_format": "hh-sol-artifact-1",
  "contractName": "RentChainFactory",
  "sourceName": "contracts/RentChainFactory.sol",
  "abi": [
    {
      "anonymous": false,
      "inputs": [
        {
          "indexed": true,
          "internalType": "address",
          "name": "deployer",
          "type": "address"
        },
        {
          "components": [
            {
              "internalType": "address",
              "name": "propertyRegistry",
              "type": "address"
            },
            {
              "internalType": "address",
              "name": "rentAgreement",
              "type": "address"
            },
            {
              "internalType": "address",
              "name": "escrowManager",
              "type": "address"
            },
            {
              "internalType": "address",
              "name": "paymentProcessor",
              "type": "address"
            },
            {
              "internalType": "address",
              "name": "userRegistry",
              "type": "address"
            },
            {
              "internalType": "address",
              "name": "disputeResolution",
              "type": "address"
            },
            {
              "internalType": "address",
              "name": "reviewSystem",
              "type": "address"
            }
          ],
          "indexed": false,
          "internalType": "struct RentChainFactory.DeployedContracts",
          "name": "contracts",
          "type": "tuple"
        }
      ],
      "name": "ContractsDeployed",
      "type": "event"
    },
    {
      "inputs": [
        {
          "internalType": "uint256",
          "name": "",
          "type": "uint256"
        }
      ],
      "name": "allDeployers",
      "outputs": [
        {
          "internalType": "address",
          "name": "",
          "type": "address"
        }
      ],
      "stateMutability": "view",
      "type": "function"
    },
    {
      "inputs": [],
      "name": "deployRentChain",
      "outputs": [
        {
          "components": [
            {
              "internalType": "address",
              "name": "propertyRegistry",
              "type": "address"
            },
            {
              "internalType": "address",
              "name": "rentAgreement",
              "type": "address"
            },
            {
              "internalType": "address",
              "name": "escrowManager",
              "type": "address"
            },
            {
              "internalType": "address",
              "name": "paymentProcessor",
              "type": "address"
            },
            {
              "internalType": "address",
              "name": "userRegistry",
              "type": "address"
            },
            {
              "internalType": "address",
              "name": "disputeResolution",
              "type": "address"
            },
            {
              "internalType": "address",
              "name": "reviewSystem",
              "type": "address"
            }
          ],
          "internalType": "struct RentChainFactory.DeployedContracts",
          "name": "",
          "type": "tuple"
        }
      ],
      "stateMutability": "nonpayable",
      "type": "function"
    },
    {
      "inputs": [],
      "name": "getAllDeployers",
      "outputs": [
        {
          "internalType": "address[]",
          "name": "",
          "type": "address[]"
        }
      ],
      "stateMutability": "view",
      "type": "function"
    },
    {
      "inputs": [],
      "name": "getTotalDeployments",
      "outputs": [
        {
          "internalType": "uint256",
          "name": "",
          "type": "uint256"
        }
      ],
      "stateMutability": "view",
      "type": "function"
    },
    {
      "inputs": [
        {
          "internalType": "address",
          "name": "user",
          "type": "address"
        }
      ],
      "name": "getUserContracts",
      "outputs": [
        {
          "components": [
            {
              "internalType": "address",
              "name": "propertyRegistry",
              "type": "address"
            },
            {
              "internalType": "address",
              "name": "rentAgreement",
              "type": "address"
            },
            {
              "internalType": "address",
              "name": "escrowManager",
              "type": "address"
            },
            {
              "internalType": "address",
              "name": "paymentProcessor",
              "type": "address"
            },
            {
              "internalType": "address",
              "name": "userRegistry",
              "type": "address"
            },
            {
              "internalType": "address",
              "name": "disputeResolution",
              "type": "address"
            },
            {
              "internalType": "address",
              "name": "reviewSystem",
              "type": "address"
            }
          ],
          "internalType": "struct RentChainFactory.DeployedContracts",
          "name": "",
          "type": "tuple"
        }
      ],
      "stateMutability": "view",
      "type": "function"
    },
    {
      "inputs": [
        {
          "internalType": "address",
          "name": "",
          "type": "address"
        }
      ],
      "name": "userContracts",
      "outputs": [
        {
          "internalType": "address",
          "name": "propertyRegistry",
          "type": "address"
        },
        {
          "internalType": "address",
          "name": "rentAgreement",
          "type": "address"
        },
        {
          "internalType": "address",
          "name": "escrowManager",
          "type": "address"
        },
        {
          "internalType": "address",
          "name": "paymentProcessor",
          "type": "address"
        },
        {
          "internalType": "address",
          "name": "userRegistry",
          "type": "address"
        },
        {
          "internalType": "address",
          "name": "disputeResolution",
          "type": "address"
        },
        {
          "internalType": "address",
          "name": "reviewSystem",
          "type": "address"
        }
      ],
      "stateMutability": "view",
      "type": "function"
    }
  ],
  "bytecode": "0x6080806040523461001657617fe2908161001c8239f35b600080fdfe60806040908082526004918236101561001757600080fd5b600091823560e01c9081630687b785146105fc57508063246c751f146105de57806334c925f01461053c5780638bfeb39e1461044d578063d95c122b146104055763df17640f1461006757600080fd5b3461040157816003193601126104015761007f610768565b5033825260208281528183205490926001600160a01b039182166103cb578251936112109485810167ffffffffffffffff96828210888311176103b8579082916135b48339039083f080156103ae5783169484516111cc808201908282108483111761039b57849183916147c4833989815203019084f08015610391578416908551610b1d808201908282108483111761037e5785918391611826833985815203019085f09081156103745786516112718082019082821084831117610361579082916123438339039086f080156103575787516117248082019082821085831117610344579082916168898339039087f090811561033a5788516110858082019082821086831117610326579082916107a18339039088f092831561031c57895190610ef980830191821183831017610326579082916159908339039088f095861561031c5790878995949392868c80519e8f906101dd82610736565b81528381019a8b520196168652868d81606082019516855260800194168452868d8160a082019716875260c001991689523382525289882093858c5116966bffffffffffffffffffffffff60a01b9788875416178655866001870191511688825416179055856002860191511687825416179055846003850191511686825416179055838b840191511685825416179055826005830191511684825416179055600601925116908254161790556001549068010000000000000000821015610309575061030594508060016102b592016001556106e9565b819291549060031b9133831b921b191617905580517fff0251e6d13b5efe4ef524053a10bd84c26c2b26f20a06afdd5b1e111927b4ac3391806102f8868261068c565b0390a2519182918261068c565b0390f35b634e487b7160e01b815260418652602490fd5b89513d89823e3d90fd5b50634e487b7160e01b895260418d52602489fd5b88513d88823e3d90fd5b634e487b7160e01b895260418d52602489fd5b87513d87823e3d90fd5b634e487b7160e01b885260418c52602488fd5b86513d86823e3d90fd5b634e487b7160e01b875260418b52602487fd5b85513d85823e3d90fd5b634e487b7160e01b865260418a52602486fd5b84513d84823e3d90fd5b634e487b7160e01b855260418952602485fd5b825162461bcd60e51b8152808601859052601060248201526f105b1c9958591e4819195c1b1bde595960821b6044820152606490fd5b5080fd5b50823461044957602036600319011261044957359160015483101561044657506104306020926106e9565b905491519160018060a01b039160031b1c168152f35b80fd5b8280fd5b5082903461044957826003193601126104495780518060019485549384835260208080940180968985527fb10e2d527612073b26eecdfd717e6a320cf44b4afac2b0732d9fcbe2b7fa0cf6908a865b82811061051e5750505050859003601f01601f1916850196905067ffffffffffffffff87118588101761050b575092869284878096528186019282875251809352850195925b8281106104ef5785870386f35b83516001600160a01b03168752958101959281019284016104e2565b634e487b7160e01b835260419052602482fd5b83546001600160a01b0316855288959094019392810192810161049c565b50829034610449576020366003190112610449576001600160a01b038235818116908190036105da578261030595600692610575610768565b50815280602052208284519561058a87610736565b81835416875281600184015416602088015281600284015416868801528160038401541660608801528201541660808601528260058201541660a086015201541660c0830152519182918261068c565b8480fd5b50346104015781600319360112610401576020906001549051908152f35b9293905034610688576020366003190112610688576001600160a01b038135818116908190036106845785849160e0975280602052209181835416938260018501541690836002860154169184806003880154169487015416946006816005890154169701541696885260208801528601526060850152608084015260a083015260c0820152f35b8580fd5b8380fd5b91909160c060e08201938160018060a01b03918281511685528260208201511660208601528260408201511660408601528260608201511660608601528260808201511660808601528260a08201511660a0860152015116910152565b6001548110156107205760016000527fb10e2d527612073b26eecdfd717e6a320cf44b4afac2b0732d9fcbe2b7fa0cf60190600090565b634e487b7160e01b600052603260045260246000fd5b60e0810190811067ffffffffffffffff82111761075257604052565b634e487b7160e01b600052604160045260246000fd5b6040519061077582610736565b8160c06000918281528260208201528260408201528260608201528260808201528260a0820152015256fe60808060405234610040573360018060a01b031960035416176003553360005260016020526040600020600160ff1982541617905561103f90816100468239f35b600080fdfe6080604052600436101561001257600080fd5b60003560e01c806301fabd7514610c6d57806303a09d1814610b2d5780630db3993414610b0f578063345565dc146106b257806351d0ea3714610673578063564a565d14610578578063973ad27014610503578063bfb0a55b146103dc578063d077a4f814610289578063df02935c146101a8578063e0338b63146100ce5763f851a440146100a057600080fd5b346100c95760003660031901126100c9576003546040516001600160a01b039091168152602090f35b600080fd5b346100c95760203660031901126100c95760043533600052600160205260ff604060002054168015610194575b61010490610f20565b80600052600060205260ff60056040600020015416600481101561017e576101465760005260006020526005604060002001600160ff19825416179055600080f35b60405162461bcd60e51b815260206004820152601060248201526f2234b9b83aba32903737ba1037b832b760811b6044820152606490fd5b634e487b7160e01b600052602160045260246000fd5b506003546001600160a01b031633146100fb565b346100c9576020806003193601126100c957600435600081815280835260409020600101549091906001600160a01b0316330361025057816000526000815260ff60056040600020015416600481101561017e5761021c57600091825281905260409020600501805460ff19166003179055005b6064906040519062461bcd60e51b82526004820152600d60248201526c10d85b9b9bdd0818d85b98d95b609a1b6044820152fd5b6064906040519062461bcd60e51b8252600482015260126024820152712737ba103234b9b83aba32903930b4b9b2b960711b6044820152fd5b346100c95760803660031901126100c95760043560243560038110156100c9573360005260206001815260ff6040600020541680156103c8575b6102cc90610f20565b826000526000815260ff60056040600020015416600481101561017e57600103610384577fd479d35c2c3aee3d59f9972a1214f8effa0c54c4f8ff4dcf020913c0a5e27c629160409184600052600081526103388260058560002001600260ff19825416178155610f01565b84600052600081528260002042600782015560088101336001600160601b0360a01b8254161790556044356009820155600a60643591015561037c83518093610ecf565b3390820152a2005b6064906040519062461bcd60e51b82526004820152601760248201527f44697370757465206e6f7420696e2070726f67726573730000000000000000006044820152fd5b506003546001600160a01b031633146102c3565b346100c9576020806003193601126100c9576103f6610ce5565b600280546001600160a01b0393909290919084166000805b8581106104a7575061041f90610fad565b9460009360005b86811061043f576040518061043b8a82610cfb565b0390f35b80600052600082526040600020848487828260018601541614938415610498575b50505050610477575b61047290610edc565b610426565b94610490818761048a610472948c610fdf565b52610edc565b959050610469565b0154161490508484878c610460565b806000526000855260406000208388868282600186015416149384156104f4575b505050506104df575b6104da90610edc565b61040e565b906104ec6104da91610edc565b9190506104d1565b0154161490508388868b6104c8565b346100c95760203660031901126100c9577f715484adb5bc9cc29af577725dbf8486d0b82eca3ba79f65846e92ff38ef32b5602061053f610ce5565b6003546001600160a01b0391906105599083163314610f5d565b168060005260018252604060002060ff198154169055604051908152a1005b346100c95760203660031901126100c9576004356000526000602052604060002080549060018060a01b038060018301541681600284015416926105be60038201610de9565b936105cb60048301610de9565b9360058301549561062d60ff88169661061f60068701549360078801549560088901541696600a60098a01549901549960206040519e8f908152015260408d015260608c61018091829101528c0190610e8f565b908a820360808c0152610e8f565b95600481101561017e5788976106529160a08a015260ff60c08a019160081c16610ecf565b60e08701526101008601526101208501526101408401526101608301520390f35b346100c95760203660031901126100c9576001600160a01b03610694610ce5565b166000526001602052602060ff604060002054166040519015158152f35b346100c95760803660031901126100c9576024356001600160a01b03811681036100c95760443567ffffffffffffffff81116100c9576106f6903690600401610d58565b9060643567ffffffffffffffff81116100c957610717903690600401610d58565b6002549261072484610edc565b60025560405192610180840184811067ffffffffffffffff821117610a3857604052600435845233602085015260018060a01b0316604084015260608301526080820152600060a0820152600260c08201524260e082015260006101008201526000610120820152600061014082015260006101608201528160005260006020526040600020908051825560018060a01b036020820151166001600160601b0360a01b6001840154161760018301556002820160018060a01b036040830151166001600160601b0360a01b825416179055606081015192835167ffffffffffffffff8111610a38576108196003850154610daf565b601f8111610ac8575b506020601f8211600114610a59578192939495600092610a4e575b50508160011b916000199060031b1c19161760038401555b608082015192835167ffffffffffffffff8111610a38576108796004830154610daf565b601f81116109f1575b506020601f8211600114610982578192939495600092610977575b50508160011b916000199060031b1c19161760048201555b60a0830151600481101561017e5760ff8019600584015416911617600582015560c083015192600384101561017e57610160600a916108f960209660058601610f01565b60e0810151600685015561010081015160078501556008840160018060a01b03610120830151166001600160601b0360a01b82541617905561014081015160098501550151910155604051338152817f83201991c75b30e493678d0543bdbd02d6a194a5a0dda31490a5fe09e9f0a2208460043593a3604051908152f35b01519050858061089d565b6004830160005260206000209060005b601f19841681106109d9575060019394959683601f198116106109c0575b505050811b0160048201556108b5565b015160001960f88460031b161c191690558580806109b0565b9091602060018192858b015181550193019101610992565b600483016000526020600020601f830160051c810160208410610a31575b601f830160051c82018110610a25575050610882565b60008155600101610a0f565b5080610a0f565b634e487b7160e01b600052604160045260246000fd5b01519050858061083d565b6003850160005260206000209060005b601f1984168110610ab0575060019394959683601f19811610610a97575b505050811b016003840155610855565b015160001960f88460031b161c19169055858080610a87565b9091602060018192858b015181550193019101610a69565b600385016000526020600020601f830160051c810160208410610b08575b601f830160051c82018110610afc575050610822565b60008155600101610ae6565b5080610ae6565b346100c95760003660031901126100c9576020600254604051908152f35b346100c95760003660031901126100c9576002546000805b828110610bf25750610b5690610fad565b60009160005b818110610b71576040518061043b8582610cfb565b8060005260206000815260ff600581816040600020015416600481101561017e5715928315610bcc575b505050610bb1575b610bac90610edc565b610b5c565b92610bc4818561048a610bac9487610fdf565b939050610ba3565b600091929350848252526040600020015416600481101561017e57600114858080610b9b565b8060005260206000815260ff600581816040600020015416600481101561017e5715928315610c47575b505050610c32575b610c2d90610edc565b610b45565b90610c3f610c2d91610edc565b919050610c24565b600091929350848252526040600020015416600481101561017e57600114848080610c1c565b346100c95760203660031901126100c9577ffc4dfef69004b5e3aba1eb4a8b1e53b893418fda232d9f60574a6c62f30c449d6020610ca9610ce5565b6003546001600160a01b039190610cc39083163314610f5d565b1680600052600182526040600020600160ff19825416179055604051908152a1005b600435906001600160a01b03821682036100c957565b6020908160408183019282815285518094520193019160005b828110610d22575050505090565b835185529381019392810192600101610d14565b90601f8019910116810190811067ffffffffffffffff821117610a3857604052565b81601f820112156100c95780359067ffffffffffffffff8211610a385760405192610d8d601f8401601f191660200185610d36565b828452602083830101116100c957816000926020809301838601378301015290565b90600182811c92168015610ddf575b6020831014610dc957565b634e487b7160e01b600052602260045260246000fd5b91607f1691610dbe565b9060405191826000825492610dfd84610daf565b908184526001948581169081600014610e6c5750600114610e29575b5050610e2792500383610d36565b565b9093915060005260209081600020936000915b818310610e54575050610e2793508201013880610e19565b85548884018501529485019487945091830191610e3c565b915050610e2794506020925060ff191682840152151560051b8201013880610e19565b919082519283825260005b848110610ebb575050826000602080949584010152601f8019910116010190565b602081830181015184830182015201610e9a565b90600382101561017e5752565b6000198114610eeb5760010190565b634e487b7160e01b600052601160045260246000fd5b90600381101561017e5761ff0082549160081b169061ff001916179055565b15610f2757565b60405162461bcd60e51b815260206004820152600e60248201526d2737ba1030b93134ba3930ba37b960911b6044820152606490fd5b15610f6457565b60405162461bcd60e51b81526020600482015260096024820152682737ba1030b236b4b760b91b6044820152606490fd5b67ffffffffffffffff8111610a385760051b60200190565b90610fb782610f95565b610fc46040519182610d36565b8281528092610fd5601f1991610f95565b0190602036910137565b8051821015610ff35760209160051b010190565b634e487b7160e01b600052603260045260246000fdfea2646970667358221220ff6404c9e7efb9df128722ee9da73bac17b8a4618ec36a64da47622688ae6b8464736f6c6343000813003360803461007457601f610b1d38819003918201601f19168301916001600160401b038311848410176100795780849260209460405283398101031261007457516001600160a01b0381169081900361007457600280546001600160a01b031916919091179055604051610a8d90816100908239f35b600080fd5b634e487b7160e01b600052604160045260246000fdfe608080604052600436101561001357600080fd5b60003560e01c908163012f52ee146108b657508063356008a51461079a5780636374b11b14610716578063886e1044146106ed57806389cb29dd146106cf5780639c17e43914610559578063a5c1674e14610486578063a67185161461023c5763ed6531641461008257600080fd5b346102375760208060031936011261023757600435806000526000825260406000209060058201926100c760ff85546100bd828216156109da565b60081c1615610a19565b600483015442106101fc5782546001600160a01b0390811693338590036101b757600381015460028201805460405163a9059cbb60e01b81526001600160a01b039890981660048901526024880152969495949084908690604490829060009088165af19485156101ab577f6244ed823ca6be0f11bc890c3fafcf3c29cb23420c14243642e930b5e07e6d0a956101669160009161017e575b5061099c565b600160ff1982541617905554169354604051908152a3005b61019e9150863d88116101a4575b6101968183610962565b810190610984565b38610160565b503d61018c565b6040513d6000823e3d90fd5b60405162461bcd60e51b815260048101849052601960248201527f4f6e6c79206c616e646c6f72642063616e2072656c65617365000000000000006044820152606490fd5b6064906040519062461bcd60e51b825260048201526014602482015273546f6f206561726c7920746f2072656c6561736560601b6044820152fd5b600080fd5b346102375760a036600319011261023757610255610936565b61025d61094c565b606435916001600160a01b03831683036102375760443515610450576040516323b872dd60e01b8152336004820152306024820152604480359082015260208160648160006001600160a01b0389165af180156101ab576102c591600091610431575061099c565b60015491600019831461041b57600183016001556084354201421161041b5760405160e081019481861067ffffffffffffffff8711176104055760409586526001600160a01b039384168083529284166020808401828152604435858a0181815294881660608701908152608435420160808801908152600060a0890181815260c08a018281528d8352828852918e902099518a54908d166001600160a01b0319918216178b55955160018b018054918e16918816919091179055975160028a0155915160038901805491909b1694169390931790985590516004860155925160059094018054965161ff0090151560081b1694151560ff1661ffff19909716969096179390931790945594519485529383907f9405ad0a6208539879349284d71265479b1623846f70303da1f9890d6e8c10a7908690a4604051908152f35b634e487b7160e01b600052604160045260246000fd5b634e487b7160e01b600052601160045260246000fd5b61044a915060203d6020116101a4576101968183610962565b85610160565b60405162461bcd60e51b815260206004820152600e60248201526d125b9d985b1a5908185b5bdd5b9d60921b6044820152606490fd5b3461023757602036600319011261023757600435806000526000602052604060002060058101908154906104bd60ff8316156109da565b8054336001600160a01b0391821614918215610548575b50501561050d5761ff0019166101001790557f7ce7831fed9a800b1aa5e7ca21034bf7b95efc31a196459012cf8b8eb42b7dac600080a2005b60405162461bcd60e51b81526020600482015260136024820152724e6f7420706172747920746f20657363726f7760681b6044820152606490fd5b6001919250015416331484806104d4565b346102375760603660031901126102375760043561057561094c565b9060443591816000526020600081526040600020916005830192835460ff8160081c16156106965760ff6105aa9116156109da565b6002810154861161065f576003015460405163a9059cbb60e01b81526001600160a01b03838116600483015260248201889052909490929184908690604490829060009088165af19485156101ab577ff2986d88fbef6d847cabab14d6c2deed600a28c1330f7a5c25465898dc891d329561062c91600091610642575061099c565b805460ff191660011790556040519586521693a3005b6106599150863d88116101a4576101968183610962565b89610160565b60405162461bcd60e51b815260048101849052600f60248201526e082dadeeadce840e8dede40d0d2ced608b1b6044820152606490fd5b60405162461bcd60e51b8152600481018590526011602482015270139bc8191a5cdc1d5d19481c985a5cd959607a1b6044820152606490fd5b34610237576000366003190112610237576020600154604051908152f35b34610237576000366003190112610237576002546040516001600160a01b039091168152602090f35b3461023757602080600319360112610237576024816001600160a01b0361073b610936565b16604051928380926370a0823160e01b82523060048301525afa9081156101ab5760009161076d575b50604051908152f35b90508181813d8311610793575b6107848183610962565b81010312610237575182610764565b503d61077a565b346102375760208060031936011261023757600435806000526000825260406000209160058301926107d560ff85546100bd828216156109da565b80546001600160a01b039190821633036108715760038101546001820180546002909301805460405163a9059cbb60e01b81529486166001600160a01b03166004860152602485015296929493929091849086908516816000816044810103925af19485156101ab577f6244ed823ca6be0f11bc890c3fafcf3c29cb23420c14243642e930b5e07e6d0a9561016691600091610642575061099c565b60405162461bcd60e51b815260048101849052601860248201527f4f6e6c79206c616e646c6f72642063616e20726566756e6400000000000000006044820152606490fd5b346102375760203660031901126102375760e090600435600052600060205260ff604060002060018060a01b03908181541691806001830154169060028301549060038401541691600560048501549401549487526020870152604086015260608501526080840152818116151560a084015260081c16151560c0820152f35b600435906001600160a01b038216820361023757565b602435906001600160a01b038216820361023757565b90601f8019910116810190811067ffffffffffffffff82111761040557604052565b90816020910312610237575180151581036102375790565b156109a357565b60405162461bcd60e51b815260206004820152600f60248201526e151c985b9cd9995c8819985a5b1959608a1b6044820152606490fd5b156109e157565b60405162461bcd60e51b815260206004820152601060248201526f105b1c9958591e481c995b19585cd95960821b6044820152606490fd5b15610a2057565b60405162461bcd60e51b815260206004820152600f60248201526e115cd8dc9bddc8191a5cdc1d5d1959608a1b6044820152606490fdfea264697066735822122038f8572c47fcfe8a4eac0cb2e7d6790debb0d6d8d4772b5c062be8e507d381bb64736f6c634300081300336080806040523461002857600380546001600160a01b03191633179055611243908161002e8239f35b600080fdfe608080604052600436101561001357600080fd5b60003560e01c90816368c4ac2614610e9f57508063818645b114610a575780638709ad40146104b357806387d81789146103395780638da5cb5b146103105780639b22b920146102f25780639d7dadeb146101d1578063bd61f0a61461011b5763e79864661461008257600080fd5b346101165760403660031901126101165761009b610eda565b6024359081151591828103610116577fd86c88b4a367d9b81a6e00c9d3f7d01657bffef358fa8968c91c045ae99f0d529261010960409360018060a01b03906100e982600354163314611041565b1692836000526002602052846000209060ff801983541691151516179055565b82519182526020820152a1005b600080fd5b3461011657604036600319011261011657610134610eda565b6003546001600160a01b039160209161018b91908416610155338214611041565b60405163a9059cbb60e01b81526001600160a01b0390911660048201526024803590820152938492839160009183906044820190565b0393165af180156101c55761019c57005b6101bc9060203d81116101be575b6101b48183610f22565b810190611138565b005b503d6101aa565b6040513d6000823e3d90fd5b3461011657602080600319360112610116576101eb610eda565b600180546001600160a01b0393909290919084166000805b8581106102995750610214906111b3565b9460009360005b86811061023457604051806102308a82610fcc565b0390f35b8060005260008252604060002084848782828554161493841561028a575b50505050610269575b61026490611150565b61021b565b94610282818761027c610264948c6111f9565b52611150565b95905061025b565b0154161490508484878c610252565b806000526000855260406000208388868282855416149384156102e3575b505050506102ce575b6102c990611150565b610203565b906102db6102c991611150565b9190506102c0565b0154161490508388868b6102b7565b34610116576000366003190112610116576020600154604051908152f35b34610116576000366003190112610116576003546040516001600160a01b039091168152602090f35b34610116576020806003193601126101165760043560005260008152604060002060018060a01b0390818154169260019183838201541693600282015490600383015416906004830154926005810160405196879160009181549161039d83611007565b928386528a838216918260001461048d575050600114610449575b505050916103d460069260ff949b99989796959a9b0388610f22565b0154169560405197889687528487015260408601526060850152608084015260e060a08401528151918260e085015260005b83811061043157505050610100926000848385010152151560c0830152601f80199101168101030190f35b81810183015187820161010001528694508201610406565b89935060009291925282600020916000925b828410610473575050508201016103d48260ff6103b8565b849295829585835492010152019101909288928a9461045b565b60ff19168782015293151560051b860190930193506103d4925084915060ff90506103b8565b346101165760803660031901126101165760043567ffffffffffffffff8111610116576104e4903690600401610f9b565b602490813567ffffffffffffffff811161011657610506903690600401610f9b565b9390610510610ef0565b9260643567ffffffffffffffff811161011657610531903690600401610f44565b92868203610a23576001600160a01b03851660009081526002602052604090205461055e9060ff16611079565b6000805b8881106109e957506040516323b872dd60e01b8152336004820152306024820152604481019190915260208160648160006001600160a01b038b165af19081156101c5576000916109ca575b501561098f576105bd826111b3565b9560005b8381106105d657604051806102308a82610fcc565b6105ec6105e4828b88611175565b3515156110bb565b6106126001600160a01b0361060a610605848888611175565b6111e5565b1615156110f8565b60015461061e81611150565b60015561062f610605838787611175565b61063a838c89611175565b35906040519061064982610f06565b3382526001600160a01b03908116602080840191825260408085019586528d841660608601908152426080870190815260a087018f8152600060c089018190528a81529485905292909320865181546001600160a01b03199081169188169190911782559451600182018054871691881691909117905596516002880155516003870180549094169416939093179091555160048401555180519067ffffffffffffffff821161097a576107006005850154611007565b601f8111610933575b50602090601f83116001146108ba57928260069360c09361075c97966000926108af575b50508160011b916000199060031b1c19161760058501555b0151151591019060ff801983541691151516179055565b6107aa60208b61077b85610774610605828c8c611175565b928b611175565b60405163a9059cbb60e01b81526001600160a01b03909216600483015235602482015291829081906044820190565b038160006001600160a01b038e165af19081156101c557600091610890575b501561085a5790816108559260005260006020526006604060002001600160ff19825416179055806107fb838c6111f9565b5261080a610605838888611175565b610815838d8a611175565b604051903581526001600160a01b039091169133917f37a13dcf7266fe3681e46ca252ea4f79e8a76da88ae9446f99242fbc014a6c3990602090a4611150565b6105c1565b60405162461bcd60e51b815260206004820152600f818501526e151c985b9cd9995c8819985a5b1959608a1b6044820152606490fd5b6108a9915060203d6020116101be576101b48183610f22565b8b6107c9565b01519050388061072d565b906005850160005260206000209160005b601f198516811061091b57508360c09361075c979693600193600697601f19811610610902575b505050811b016005850155610745565b015160001960f88460031b161c191690553880806108f2565b919260206001819286850151815501940192016108cb565b600585016000526020600020601f840160051c810160208510610973575b601f830160051c82018110610967575050610709565b60008155600101610951565b5080610951565b86634e487b7160e01b60005260416004526000fd5b60405162461bcd60e51b8152602060048201526014818801527310985d18da081c185e5b595b9d0819985a5b195960621b6044820152606490fd5b6109e3915060203d6020116101be576101b48183610f22565b886105ae565b906109f5828a87611175565b358101809111610a0e57610a099091611150565b610562565b87634e487b7160e01b60005260116004526000fd5b60405162461bcd60e51b815260206004820152600d818801526c125b9d985b1a59081a5b9c1d5d609a1b6044820152606490fd5b3461011657608036600319011261011657610a70610eda565b610a78610ef0565b60643567ffffffffffffffff811161011657610a98903690600401610f44565b9060018060a01b0381166000526002602052610abb60ff60406000205416611079565b610ac860243515156110bb565b610adc6001600160a01b03841615156110f8565b6040516323b872dd60e01b81523360048201523060248083019190915235604482015260208160648160006001600160a01b0387165af19081156101c557600091610e80575b5015610e4a5760015491610b3583611150565b60015560405190610b4582610f06565b3382526001600160a01b038581166020808501918252602435604080870191825287851660608801908152426080890190815260a08901978852600060c08a018190528b81529485905291909320875181546001600160a01b031990811691881691909117825594516001820180548716918816919091179055915160028301559151600382018054909416941693909317909155516004820155905180519192919067ffffffffffffffff8211610e3457610c046005850154611007565b601f8111610ded575b50602090601f8311600114610d7757928260069360c093610c5e9796600092610d6c5750508160011b916000199060031b1c19161760058501550151151591019060ff801983541691151516179055565b60405163a9059cbb60e01b81526001600160a01b0384811660048301526024803590830152909160209183916044918391600091165af19081156101c557600091610d4d575b5015610d085760209181600052600083526006604060002001600160ff1982541617905560405190602435825260018060a01b031690827f37a13dcf7266fe3681e46ca252ea4f79e8a76da88ae9446f99242fbc014a6c39853393a4604051908152f35b60405162461bcd60e51b815260206004820152601c60248201527f5472616e7366657220746f20726563697069656e74206661696c6564000000006044820152606490fd5b610d66915060203d6020116101be576101b48183610f22565b83610ca4565b015190508a8061072d565b90601f198316916005860160005260206000209260005b818110610dd557509360c093610c5e9796936001938360069810610dbc57505050811b016005850155610745565b015160001960f88460031b161c191690558a80806108f2565b92936020600181928786015181550195019301610d8e565b600585016000526020600020601f840160051c810160208510610e2d575b601f830160051c82018110610e21575050610c0d565b60008155600101610e0b565b5080610e0b565b634e487b7160e01b600052604160045260246000fd5b60405162461bcd60e51b815260206004820152600e60248201526d14185e5b595b9d0819985a5b195960921b6044820152606490fd5b610e99915060203d6020116101be576101b48183610f22565b84610b22565b34610116576020366003190112610116576020906001600160a01b03610ec3610eda565b166000526002825260ff6040600020541615158152f35b600435906001600160a01b038216820361011657565b604435906001600160a01b038216820361011657565b60e0810190811067ffffffffffffffff821117610e3457604052565b90601f8019910116810190811067ffffffffffffffff821117610e3457604052565b81601f820112156101165780359067ffffffffffffffff8211610e345760405192610f79601f8401601f191660200185610f22565b8284526020838301011161011657816000926020809301838601378301015290565b9181601f840112156101165782359167ffffffffffffffff8311610116576020808501948460051b01011161011657565b6020908160408183019282815285518094520193019160005b828110610ff3575050505090565b835185529381019392810192600101610fe5565b90600182811c92168015611037575b602083101461102157565b634e487b7160e01b600052602260045260246000fd5b91607f1691611016565b1561104857565b60405162461bcd60e51b81526020600482015260096024820152682737ba1037bbb732b960b91b6044820152606490fd5b1561108057565b60405162461bcd60e51b8152602060048201526013602482015272151bdad95b881b9bdd081cdd5c1c1bdc9d1959606a1b6044820152606490fd5b156110c257565b60405162461bcd60e51b815260206004820152600e60248201526d125b9d985b1a5908185b5bdd5b9d60921b6044820152606490fd5b156110ff57565b60405162461bcd60e51b8152602060048201526011602482015270125b9d985b1a59081c9958da5c1a595b9d607a1b6044820152606490fd5b90816020910312610116575180151581036101165790565b600019811461115f5760010190565b634e487b7160e01b600052601160045260246000fd5b91908110156111855760051b0190565b634e487b7160e01b600052603260045260246000fd5b67ffffffffffffffff8111610e345760051b60200190565b906111bd8261119b565b6111ca6040519182610f22565b82815280926111db601f199161119b565b0190602036910137565b356001600160a01b03811681036101165790565b80518210156111855760209160051b01019056fea2646970667358221220263a9215dc7a50f5d7f09afa02098d577f23001e432939250d929e0622c6f1cb64736f6c6343000813003360808060405234610016576111f4908161001c8239f35b600080fdfe6080604052600436101561001257600080fd5b60e0600035811c80630bf2d668146109f057806339500f34146109d25780637ca28bc61461095d5780638b8cc996146104c25780638f48bd5b1461046a578063a715f673146101c4578063cb644897146101325763f7b108081461007557600080fd5b3461012d57602036600319011261012d57600435600090815260208190526040902080546001600160a01b0316906100af60018201611090565b61011c600283015461010e6100c660038601611090565b916100d360048701611090565b926100fb600660ff60058a015416980154966040519a8b9a8b528060208c01528a0190611016565b9160408901528782036060890152611016565b908582036080870152611016565b91151560a084015260c08301520390f35b600080fd5b3461012d5760208060031936011261012d576001600160a01b03610154610f9e565b166000526001908181526040600020916040519081938491848254948581520191600052846000209060005b868682106101ae57859061019682870383610f27565b6101aa604051928284938452830190610fe2565b0390f35b8354855288955090930192918101918101610180565b503461012d57604036600319011261012d57602435906101e382611193565b6101f06040519182610f27565b828152601f198061020085611193565b0193602094368685013761021381611193565b946102216040519687610f27565b8186528261022e83611193565b018160005b82811061042657505050600092600435956002938454975b8881108061041d575b1561033f5780600052600085528960ff60058a82826040600020015416610288575b5050505061028390611136565b61024b565b8a6103339460068c8396899f968a8f989b6102a96102839d6103229a6111aa565b5260005260008852604060002092604051986102c48a610f0c565b84546001600160a01b03168a526102dd60018601611090565b908a015283015460408901526102f560038401611090565b606089015261030660048401611090565b608089015282015416151560a0870152015460c08501526111aa565b5261032d818d6111aa565b50611136565b9690508938808a610276565b84888b868661035960405194604086526040860190610fe2565b94848603818601528351918287528187019082808560051b8a01019601946000985b858a106103885788880389f35b909192939495968580828585600195030188528a5190848060a01b0382511681526103f46103e16103c4858501518b878601528b850190611016565b604085015160408501526060808601519085830390860152611016565b6080808501519084830390850152611016565b9160a08082015115159083015260c080910151910152990195019901989291909594939561037b565b50818710610254565b60405161043281610f0c565b60008152606080848301526000604083015280808301526080820152600060a0820152600060c082015282828b010152018290610233565b3461012d57604036600319011261012d57610483610f9e565b6001600160a01b031660009081526001602052604090208054602435919082101561012d576020916104b491610fb4565b90546040519160031b1c8152f35b3461012d5760a036600319011261012d576024356001600160401b03811161012d576104f2903690600401610f48565b6064356001600160401b03811161012d57610511903690600401610f48565b6084356001600160401b03811161012d57610530903690600401610f48565b90600435600052600060205261055460018060a01b0360406000205416331461115b565b600435600052600060205260ff6005604060002001541615610922576004356000526000602052600160406000200183516001600160401b0381116107905761059d8254611056565b601f81116108da575b50602094601f821160011461087457948192939495600092610869575b50508160011b916000199060031b1c19161790555b600435600052600060205260406000209060443560028301558051906001600160401b0382116107905761060f6003840154611056565b601f811161081e575b50602090601f83116001146107b15760039291600091836107a6575b50508160011b9160001990841b1c1916179101555b6004356000526000602052600460406000200181516001600160401b038111610790576106768254611056565b601f8111610748575b50602092601f82116001146106e457928192936000926106d9575b50508160011b916000199060031b1c19161790555b6004357f7ad43e2b215acc30fe68db10cbf57c6b2b699ef7572e54808c2a106fb904f3fb600080a2005b01519050838061069a565b601f198216938360005260206000209160005b8681106107305750836001959610610717575b505050811b0190556106af565b015160001960f88460031b161c1916905583808061070a565b919260206001819286850151815501940192016106f7565b826000526020600020601f830160051c81019160208410610786575b601f0160051c01905b81811061077a575061067f565b6000815560010161076d565b9091508190610764565b634e487b7160e01b600052604160045260246000fd5b015190508580610634565b90601f198316916003850160005260206000209260005b818110610806575091600193918560039694106107ee575b505050811b01910155610649565b015160001983861b60f8161c191690558580806107e0565b929360206001819287860151815501950193016107c8565b600384016000526020600020601f840160051c8101916020851061085f575b601f0160051c01905b8181106108535750610618565b60008155600101610846565b909150819061083d565b0151905085806105c3565b601f198216958360005260206000209160005b8881106108c2575083600195969798106108a9575b505050811b0190556105d8565b015160001960f88460031b161c1916905585808061089c565b91926020600181928685015181550194019201610887565b826000526020600020601f830160051c81019160208410610918575b601f0160051c01905b81811061090c57506105a6565b600081556001016108ff565b90915081906108f6565b60405162461bcd60e51b815260206004820152601360248201527250726f7065727479206e6f742061637469766560681b6044820152606490fd5b3461012d57602036600319011261012d5760043580600052600060205261099260018060a01b0360406000205416331461115b565b806000526000602052600560406000200160ff1981541690557f7bc5467b3abd536b298666c57448e8ec6a25e7929f01a0789e4ef525716f45e3600080a2005b3461012d57600036600319011261012d576020600254604051908152f35b3461012d57608036600319011261012d576004356001600160401b03811161012d57610a20903690600401610f48565b6044356001600160401b03811161012d57610a3f903690600401610f48565b6064356001600160401b03811161012d57610a5e903690600401610f48565b9060025491610a6c83611136565b60025560405190610a7c82610f0c565b3382526020820192858452602435604084015260608301526080820152600160a08201524260c082015282600052600060205260406000209160018060a01b038251166bffffffffffffffffffffffff60a01b845416178355518051906001600160401b038211610790578190610af66001860154611056565b601f8111610eb9575b50602090601f8311600114610e4c57600092610e41575b50508160011b916000199060031b1c19161760018301555b6040810151600283015560608101518051906001600160401b038211610790578190610b5d6003860154611056565b601f8111610dee575b50602090601f8311600114610d7c57600092610d71575b50508160011b916000199060031b1c19161760038301555b60808101518051906001600160401b03821161079057610bb86004850154611056565b601f8111610d2a575b50602090601f8311600114610cb75791806006949260c094600092610cac575b50508160011b916000199060031b1c19161760048501555b6005840160a0820151151560ff801983541691161790550151910155336000526001602052604060002091825492680100000000000000008410156107905783610c4a916001602096018155610fb4565b81549060031b9084821b91600019901b1916179055817f4a94c8d5fab40a5edfd34ed099a279029ee376bf6a571684e0cffd8e00216dbc610c9660405193604085526040850190611016565b92602435868201528033940390a3604051908152f35b015190508880610be1565b90601f198316916004860160005260206000209260005b818110610d12575092600192859260c0966006989610610cf9575b505050811b016004850155610bf9565b015160001960f88460031b161c19169055888080610ce9565b92936020600181928786015181550195019301610cce565b600485016000526020600020601f840160051c810160208510610d6a575b601f830160051c82018110610d5e575050610bc1565b60008155600101610d48565b5080610d48565b015190508680610b7d565b9250600385016000526020600020906000935b601f1984168510610dd3576001945083601f19811610610dba575b505050811b016003830155610b95565b015160001960f88460031b161c19169055868080610daa565b81810151835560209485019460019093019290910190610d8f565b909150600385016000526020600020601f840160051c810160208510610e3a575b90849392915b601f830160051c82018110610e2b575050610b66565b60008155859450600101610e15565b5080610e0f565b015190508680610b16565b600186016000908152602081209350601f198516905b818110610ea15750908460019594939210610e88575b505050811b016001830155610b2e565b015160001960f88460031b161c19169055868080610e78565b92936020600181928786015181550195019301610e62565b909150600185016000526020600020601f840160051c810160208510610f05575b90849392915b601f830160051c82018110610ef6575050610aff565b60008155859450600101610ee0565b5080610eda565b60e081019081106001600160401b0382111761079057604052565b90601f801991011681019081106001600160401b0382111761079057604052565b81601f8201121561012d578035906001600160401b0382116107905760405192610f7c601f8401601f191660200185610f27565b8284526020838301011161012d57816000926020809301838601378301015290565b600435906001600160a01b038216820361012d57565b8054821015610fcc5760005260206000200190600090565b634e487b7160e01b600052603260045260246000fd5b90815180825260208080930193019160005b828110611002575050505090565b835185529381019392810192600101610ff4565b919082519283825260005b848110611042575050826000602080949584010152601f8019910116010190565b602081830181015184830182015201611021565b90600182811c92168015611086575b602083101461107057565b634e487b7160e01b600052602260045260246000fd5b91607f1691611065565b90604051918260008254926110a484611056565b90818452600194858116908160001461111357506001146110d0575b50506110ce92500383610f27565b565b9093915060005260209081600020936000915b8183106110fb5750506110ce935082010138806110c0565b855488840185015294850194879450918301916110e3565b9150506110ce94506020925060ff191682840152151560051b82010138806110c0565b60001981146111455760010190565b634e487b7160e01b600052601160045260246000fd5b1561116257565b60405162461bcd60e51b81526020600482015260096024820152682737ba1037bbb732b960b91b6044820152606490fd5b6001600160401b0381116107905760051b60200190565b8051821015610fcc5760209160051b01019056fea26469706673582212209a496ed9ad3ef31fe750e98da85f7d8712acd6e34f40b8c39c27c0894b014b4b64736f6c6343000813003360803461007457601f6111cc38819003918201601f19168301916001600160401b038311848410176100795780849260209460405283398101031261007457516001600160a01b0381169081900361007457600380546001600160a01b03191691909117905560405161113c90816100908239f35b600080fd5b634e487b7160e01b600052604160045260246000fdfe608080604052600436101561001357600080fd5b60003560e01c90816326b703a714610f0e57508063448db2f614610e335780635686b54b14610d765780637c05798c14610c5257806387f98ca91461086b5780638aed078d14610784578063a0f109c5146104a0578063a5c1674e146103f9578063bd14de9614610333578063c9b99dab14610315578063d064fbe8146102dd5763fc2bf8f0146100a357600080fd5b34610237576100b136610f83565b90806000526020600081526040600020600881015460ff811660058110156102c75760016100df9114611048565b60028201546001600160a01b0391908216330361028c576003830154860361024f576000916064859260405194859384926323b872dd60e01b84523360048501523060248501528b604485015260181c165af190811561024357600091610209575b50156101d357600581019081548581018091116101bd576006925501544203904282116101bd577f63e55317e25c0cab3a2de23ee0e244496daea0c1c2b8e272bbc01722b96bb9ae91836000526001825262278d006040600020910460005281526040600020600160ff198254161790556040519384523393a3005b634e487b7160e01b600052601160045260246000fd5b60405162461bcd60e51b815260048101839052600e60248201526d14185e5b595b9d0819985a5b195960921b6044820152606490fd5b90508281813d831161023c575b6102208183610f99565b81010312610237576102319061102c565b38610141565b600080fd5b503d610216565b6040513d6000823e3d90fd5b60405162461bcd60e51b8152600481018590526015602482015274125b98dbdc9c9958dd081c995b9d08185b5bdd5b9d605a1b6044820152606490fd5b60405162461bcd60e51b81526004810185905260136024820152724f6e6c792074656e616e742063616e2070617960681b6044820152606490fd5b634e487b7160e01b600052602160045260246000fd5b34610237576102eb36610f83565b906000526001602052604060002090600052602052602060ff604060002054166040519015158152f35b34610237576000366003190112610237576020600254604051908152f35b346102375760203660031901126102375760043560005260006020526040600020805460018060a01b038060018401541692816002820154169060038101546004820154600583015490600684015492600860078601549501549560ff871699604051998a5260208a015260408901526060880152608087015260a086015260c085015260e084015260058410156102c7576101809361010084015260ff8160081c16151561012084015260ff8160101c16151561014084015260181c16610160820152f35b34610237576020366003190112610237576004358060005260006020526008604060002061043e60018060a01b03806001840154163314908115610490575b5061108b565b01805460ff81169060058210156102c75761045d600160049314611048565b60ff19161790557f84a477df8a28a4276ca6dee4458a06c3015f30c477d9c949ede4e13ff8a552b46020604051338152a2005b9050600283015416331485610438565b346102375760208060031936011261023757600435908160005260008152604060002090600882019182549060ff821660058110156102c75760016104e59114611048565b60078101544210610749576001810180546001600160a01b0393919291908416330361070457839060181c166005820154916004810154908161061b575b50508161055e575b855460ff19166002178655867f5a098ab2367201784eb2ad9b7e2f0d916557002385b83ddcc19293f40c4e0ed0600080a2005b915460405163a9059cbb60e01b815293166001600160a01b03166004840152602483015282908290816000816044810103925af1908115610243576000916105e6575b50156105b0578080808061052b565b6064906040519062461bcd60e51b82526004820152600f60248201526e151c985b9cd9995c8819985a5b1959608a1b6044820152fd5b90508181813d8311610614575b6105fd8183610f99565b810103126102375761060e9061102c565b846105a1565b503d6105f3565b600201805460405163a9059cbb60e01b81529087166001600160a01b031660048201526024810183905287816044816000885af1908115610243576000916106cf575b501561069a577f69187e59ebb7ab44cba5434886e4e6cde1412568f3483279dc99de772cb2540587878b93541693604051908152a38780610523565b60405162461bcd60e51b815260048101889052600d60248201526c1499599d5b990819985a5b1959609a1b6044820152606490fd5b90508781813d83116106fd575b6106e68183610f99565b81010312610237576106f79061102c565b8a61065e565b503d6106dc565b60405162461bcd60e51b815260048101869052601960248201527f4f6e6c79206c616e646c6f72642063616e2072656c65617365000000000000006044820152606490fd5b60405162461bcd60e51b81526004810184905260136024820152721059dc99595b595b9d081b9bdd08195b991959606a1b6044820152606490fd5b34610237576020806003193601126102375761079e610f32565b60028054909290916001600160a01b03908116906000805b85811061082f57506107c7906110aa565b9460009360005b8681106107e757604051806107e38a82610f48565b0390f35b806000526000825284848460406000200154161461080e575b61080990611039565b6107ce565b946108278187610821610809948c6110dc565b52611039565b959050610800565b8060005260008552838388604060002001541614610856575b61085190611039565b6107b6565b9061086361085191611039565b919050610848565b346102375760e0366003190112610237576024356001600160a01b03811690600435908290036102375760a4359060843560c4356001600160a01b038116810361023757600354604051631ef6210160e31b81526004810185905290600090829060249082906001600160a01b03165afa90811561024357600090600092610bb7575b50336001600160a01b0390911603610b7d5715610b42578415610b0c5783821015610ad7576002549361092085611039565b60025560405192610180840184811067ffffffffffffffff821117610ac15760405284845233602085015286604085015260443560608501526064356080850152600060a085015260c084015260e083015260006101008301526000610120830152600061014083015260018060a01b031661016082015282600052600060205260086040600020825181556001810160018060a01b03602085015116906bffffffffffffffffffffffff60a01b9182825416179055600282019060018060a01b0360408601511690825416179055606083015160038201556080830151600482015560a0830151600582015560c0830151600682015560e0830151600782015501906101008101519060058210156102c757602095837fbccc93ea525c74213effe313cf29be12baa866b0a54b80532bfa465876a177459360409388965461ff00610120830151151560081b169060ff62ff0000610140850151151560101b16936101606301000000600160b81b0391015160181b1694169068ffffffffffffffffff60b81b1617171717905581519033825287820152a3604051908152f35b634e487b7160e01b600052604160045260246000fd5b60405162461bcd60e51b815260206004820152600d60248201526c496e76616c696420646174657360981b6044820152606490fd5b60405162461bcd60e51b815260206004820152600e60248201526d125b9d985b1a59081d195b985b9d60921b6044820152606490fd5b60405162461bcd60e51b815260206004820152601360248201527250726f7065727479206e6f742061637469766560681b6044820152606490fd5b60405162461bcd60e51b81526020600482015260126024820152712737ba10383937b832b93a3c9037bbb732b960711b6044820152606490fd5b9150503d806000833e610bca8183610f99565b81019060e081830312610237578051916001600160a01b03831683036102375760208201519167ffffffffffffffff928381116102375782610c0d918301610fbb565b5060608101518381116102375782610c26918301610fbb565b50608081015192831161023757610c4460a092610c4b948301610fbb565b500161102c565b90876108ee565b346102375760203660031901126102375760043560005260006020526040600020600881019081549060ff821660058110156102c757610d405760018101546001600160a01b0391903390831603610ce2575050815461ff001916610100178255505b805460ff8160081c1680610cd5575b610cca57005b60ff19166001179055005b5060ff8160101c16610cc4565b60020154163314600014610d025762ff0000191662010000178155610cb5565b60405162461bcd60e51b8152602060048201526016602482015275139bdd081c185c9d1e481d1bc81859dc99595b595b9d60521b6044820152606490fd5b60405162461bcd60e51b815260206004820152600e60248201526d496e76616c69642073746174757360901b6044820152606490fd5b346102375760203660031901126102375760043580600052600060205260086040600020610dba60018060a01b03806001840154163314908115610490575061108b565b01805460ff811660058110156102c757610dfe5760ff191660031790557f0cae0523c4d6568388c55dcaeb921d927527a60000ca46adffedddf87225f0ec600080a2005b60405162461bcd60e51b815260206004820152600d60248201526c10d85b9b9bdd0818d85b98d95b609a1b6044820152606490fd5b346102375760208060031936011261023757610e4d610f32565b6002546001600160a01b0392909183166000805b848110610ed15750610e72906110aa565b9360009260005b858110610e8e57604051806107e38982610f48565b806000526000825283836001604060002001541614610eb6575b610eb190611039565b610e79565b93610ec98186610821610eb1948b6110dc565b949050610ea8565b806000526000845282866001604060002001541614610ef9575b610ef490611039565b610e61565b90610f06610ef491611039565b919050610eeb565b34610237576000366003190112610237576003546001600160a01b03168152602090f35b600435906001600160a01b038216820361023757565b6020908160408183019282815285518094520193019160005b828110610f6f575050505090565b835185529381019392810192600101610f61565b6040906003190112610237576004359060243590565b90601f8019910116810190811067ffffffffffffffff821117610ac157604052565b919080601f840112156102375782519067ffffffffffffffff8211610ac15760405191602091610ff4601f8301601f1916840185610f99565b8184528282870101116102375760005b81811061101957508260009394955001015290565b8581018301518482018401528201611004565b5190811515820361023757565b60001981146101bd5760010190565b1561104f57565b60405162461bcd60e51b815260206004820152601460248201527341677265656d656e74206e6f742061637469766560601b6044820152606490fd5b15610d0257565b67ffffffffffffffff8111610ac15760051b60200190565b906110b482611092565b6110c16040519182610f99565b82815280926110d2601f1991611092565b0190602036910137565b80518210156110f05760209160051b010190565b634e487b7160e01b600052603260045260246000fdfea2646970667358221220d10a2b8c63cb6395077d534a7dc3bad5134c9fd999cb637825ca5a324241bd2c64736f6c634300081300336080806040523461001657610edd908161001c8239f35b600080fdfe608080604052600436101561001357600080fd5b60003560e01c90816318d0e8b214610b37575080631bf94bf214610b065780631f4ac12914610aae5780632932ebe2146105c5578063396e77e7146105a7578063404a51391461030457806373b1851c14610219578063ac610e88146101f3578063e83ddcea1461013e5763ed10b1dd1461008d57600080fd5b34610139576020366003190112610139576004356000818152602081905260409020546001600160a01b031615610101578060005260006020526007604060002001600160ff198254161790557f6c791c617591653cc115cd51ccea47bba48c18c394a2ea4435fed2528f5ed665600080a2005b60405162461bcd60e51b815260206004820152601060248201526f14995d9a595dc81b9bdd08199bdd5b9960821b6044820152606490fd5b600080fd5b34610139576020366003190112610139576004356000526000602052604060002060018060a01b0380825416906001830154169160028101546101e260ff6003840154166101d461019160048601610d49565b61019d60058701610d49565b9260ff600760068901549801541695604051998a998a5260208a015260408901526060880152610100806080890152870190610ccf565b9085820360a0870152610ccf565b9160c0840152151560e08301520390f35b34610139576020366003190112610139576020610211600435610e38565b604051908152f35b346101395760208060031936011261013957610233610bc1565b600380546000928392906001600160a01b03908116845b8481106102885787878781158061027e576102685704604051908152f35b634e487b7160e01b600052601260045260246000fd5b5050506000610211565b80600052600088526040600020828460018301541614806102f6575b6102b8575b506102b390610def565b61024a565b8460ff919897929801541681018091116102e0576102d96102b39196610def565b96906102a9565b634e487b7160e01b600052601160045260246000fd5b5060ff6007820154166102a4565b34610139576020806003193601126101395760038054916004358381111561059f575091805b61033381610e7b565b926103416040519485610c56565b818452601f19918261035282610e7b565b01368787013761036181610e7b565b9361036f6040519586610c56565b8185528361037c83610e7b565b0160005b8181106105485750506000198082019180831160005b85811061047c578a8a8a8a6103b660405193604085526040850190610bd7565b938385038185015282519081865280860181808460051b8901019501936000975b8489106103e45787870388f35b909192939495848082858560019503018752895190848060a01b0380835116825283830151168382015260408201516040820152606060ff81840151169082015260e080610458610445608080870151906101008091880152860190610ccf565b60a0808701519086830390870152610ccf565b9360c0808201519085015201511515910152980194019801979190949392946103d7565b819a979a6102e0578381840301908582116102e05781610540926104a0838e610e93565b52600052600089526040600020604051906104ba82610c39565b80546001600160a01b0390811683526001820154168b830152600281015460408301528981015460ff9081166060840152906007906104fb60048201610d49565b608085015261050c60058201610d49565b60a0850152600681015460c0850152015416151560e082015261052f828c610e93565b5261053a818b610e93565b50610def565b999699610396565b9780959860409493945161055b81610c39565b6000815260008382015260006040820152606060008183015280608083015260a0820152600060c0820152600060e082015282828a01015201979497929192610380565b92909261032a565b34610139576000366003190112610139576020600354604051908152f35b346101395760a0366003190112610139576105de610bc1565b6044359060ff821682036101395760643567ffffffffffffffff81116101395761060c903690600401610c78565b60843567ffffffffffffffff81116101395761062c903690600401610c78565b600160ff8516101580610aa0575b15610a6a57602435600052600260205260ff60406000205416610a25576003549161066483610def565b60035560ff6040519561067687610c39565b33875260018060a01b03861660208801526024356040880152166060860152608085015260a08401524260c0840152600060e084015280600052600060205260406000209260018060a01b038151166bffffffffffffffffffffffff60a01b9081865416178555600185019060018060a01b0360208401511690825416179055604081015160028501556003840160ff60608301511660ff19825416179055608081015180519067ffffffffffffffff821161093f57819061073b6004880154610d0f565b601f81116109d2575b50602090601f831160011461096057600092610955575b50508160011b916000199060031b1c19161760048501555b60a081015193845167ffffffffffffffff811161093f576107976005830154610d0f565b95601f87116108f8575b602096508690601f831160011461088757918060e0949260079460009261087c575b50508160011b916000199060031b1c19161760058201555b60c0840151600682015501910151151560ff80198354169116179055336000526001835261080d816040600020610dfe565b60018060a01b0382166000526001835261082b816040600020610dfe565b602435600052600283526040600020600160ff198254161790556040519160018060a01b031633827f7a1fdd90c3193bbed48d66a2360ac4036187df7f3947ce2c9463476ae7906d49600080a48152f35b0151905089806107c3565b90601f1983169160058501600052886000209260005b8181106108e1575092600192859260079660e09896106108c8575b505050811b0160058201556107db565b015160001960f88460031b161c191690558980806108b8565b92938a60018192878601518155019501930161089d565b600583016000526020600020601f830160051c810160208410610938575b601f890160051c8201811061092c5750506107a1565b60008155600101610916565b5080610916565b634e487b7160e01b600052604160045260246000fd5b01519050868061075b565b9250600487016000526020600020906000935b601f19841685106109b7576001945083601f1981161061099e575b505050811b016004850155610773565b015160001960f88460031b161c1916905586808061098e565b81810151835560209485019460019093019290910190610973565b909150600487016000526020600020601f840160051c810160208510610a1e575b90849392915b601f830160051c82018110610a0f575050610744565b600081558594506001016109f9565b50806109f3565b60405162461bcd60e51b815260206004820152601a60248201527f41677265656d656e7420616c72656164792072657669657765640000000000006044820152606490fd5b60405162461bcd60e51b815260206004820152600e60248201526d496e76616c696420726174696e6760901b6044820152606490fd5b50600560ff8516111561063a565b3461013957604036600319011261013957610ac7610bc1565b6001600160a01b031660009081526001602052604090208054602435919082101561013957602091610af891610c0b565b90546040519160031b1c8152f35b34610139576020366003190112610139576004356000526002602052602060ff604060002054166040519015158152f35b3461013957602080600319360112610139576001600160a01b03610b59610bc1565b16600052600180825282604060002080549283835284830191600052846000209060005b86868210610bab578590610b9382870383610c56565b610ba7604051928284938452830190610bd7565b0390f35b8354855288955090930192918101918101610b7d565b600435906001600160a01b038216820361013957565b90815180825260208080930193019160005b828110610bf7575050505090565b835185529381019392810192600101610be9565b8054821015610c235760005260206000200190600090565b634e487b7160e01b600052603260045260246000fd5b610100810190811067ffffffffffffffff82111761093f57604052565b90601f8019910116810190811067ffffffffffffffff82111761093f57604052565b81601f820112156101395780359067ffffffffffffffff821161093f5760405192610cad601f8401601f191660200185610c56565b8284526020838301011161013957816000926020809301838601378301015290565b919082519283825260005b848110610cfb575050826000602080949584010152601f8019910116010190565b602081830181015184830182015201610cda565b90600182811c92168015610d3f575b6020831014610d2957565b634e487b7160e01b600052602260045260246000fd5b91607f1691610d1e565b9060405191826000825492610d5d84610d0f565b908184526001948581169081600014610dcc5750600114610d89575b5050610d8792500383610c56565b565b9093915060005260209081600020936000915b818310610db4575050610d8793508201013880610d79565b85548884018501529485019487945091830191610d9c565b915050610d8794506020925060ff191682840152151560051b8201013880610d79565b60001981146102e05760010190565b80546801000000000000000081101561093f57610e2091600182018155610c0b565b819291549060031b91821b91600019901b1916179055565b600354906000805b838110610e51575050505060001990565b8082528160205282600260408420015414610e7457610e6f90610def565b610e40565b9250505090565b67ffffffffffffffff811161093f5760051b60200190565b8051821015610c235760209160051b01019056fea26469706673582212206d0720c222312c923c04605d125eefe3c5d7fbe39645d263de746aa3339299ea64736f6c6343000813003360808060405234610040573360018060a01b031960025416176002553360005260016020526040600020600160ff198254161790556116de90816100468239f35b600080fdfe608080604052600436101561001357600080fd5b60e0600035811c91826314d0f1ba14611312575081634b084d77146110055781634d81312014610f4c578163869d785f14610f005781639247db6314610d4357816393e54a56146107855781639483f25c14610282578163a87430ba146101a357508063ace417e014610161578063b532e4cb14610110578063baccbfdb146100d35763f851a440146100a557600080fd5b346100ce5760003660031901126100ce576002546040516001600160a01b039091168152602090f35b600080fd5b346100ce5760203660031901126100ce576001600160a01b036100f461134d565b1660005260006020526020600560406000200154604051908152f35b346100ce5760203660031901126100ce5761012961134d565b6002546001600160a01b039190610143908316331461162e565b1660005260016020526040600020600160ff19825416179055600080f35b346100ce5760203660031901126100ce576001600160a01b0361018261134d565b166000526000602052602060ff600460406000200154166040519015158152f35b346100ce5760203660031901126100ce5761023f906001600160a01b036101c861134d565b16600052600060205260406000206101df816114ea565b916101ec600183016114ea565b906101f9600284016114ea565b92610206600382016114ea565b9361026960ff6004840154169561025b60058501549361024d60076006880154970154986040519c8d9c8d610100908181520190611363565b8c810360208e015290611363565b908a820360408c0152611363565b9088820360608a0152611363565b941515608087015260a086015260c08501528301520390f35b346100ce5761029036611439565b9233600052602093600085526102aa6040600020546114b0565b1561074f57336000526000855260406000209282519367ffffffffffffffff948581116104fc57806102dc83546114b0565b95601f96878111610700575b50899087831160011461069b57600092610690575b50508160011b916000199060031b1c19161790555b336000526000865260019485604060002001908051908682116104fc57819061033b84546114b0565b87811161063f575b5089908783116001146105dc576000926105d1575b5050600019600383901b1c191690871b1790555b33600052600086526002604060002001908051908582116104fc57819061039384546114b0565b868111610580575b50889086831160011461051d57600092610512575b5050600019600383901b1c191690861b1790555b336000526000855260036040600020019481519384116104fc576103e886546114b0565b8381116104b6575b50809284116001146104505750928293918392600094610445575b50501b916000199060031b1c19161790555b337fbe4ec58a792f909e102ee3d745d0c3b34a4d437a54d903c4db098d31c556422f600080a2005b01519250858061040b565b919083601f1981168760005284600020946000905b8883831061049c5750505010610483575b505050811b01905561041d565b015160001960f88460031b161c19169055838080610476565b858701518855909601959485019487935090810190610465565b86600052816000208480870160051c8201928488106104f3575b0160051c019086905b8281106104e75750506103f0565b600081550186906104d9565b925081926104d0565b634e487b7160e01b600052604160045260246000fd5b0151905088806103b0565b90889350601f19831691856000528a6000209260005b8c82821061056a5750508411610551575b505050811b0190556103c4565b015160001960f88460031b161c19169055888080610544565b8385015186558c97909501949384019301610533565b90915083600052886000208680850160051c8201928b86106105c8575b918a91869594930160051c01915b8281106105b957505061039b565b600081558594508a91016105ab565b9250819261059d565b015190508980610358565b90899350601f19831691856000528b6000209260005b8d8282106106295750508411610610575b505050811b01905561036c565b015160001960f88460031b161c19169055898080610603565b8385015186558d979095019493840193016105f2565b90915083600052896000208780850160051c8201928c8610610687575b918b91869594930160051c01915b828110610678575050610343565b600081558594508b910161066a565b9250819261065c565b0151905089806102fd565b60008581528b81209350601f198516905b8c8282106106ea5750509084600195949392106106d1575b505050811b019055610312565b015160001960f88460031b161c191690558980806106c4565b60018596829396860151815501950193016106ac565b90915083600052896000208780850160051c8201928c8610610746575b9085949392910160051c01905b81811061073757506102e8565b6000815584935060010161072a565b9250819261071d565b60405162461bcd60e51b815260048101869052600e60248201526d139bdd081c9959da5cdd195c995960921b6044820152606490fd5b346100ce5761079336611439565b90939192933360005260006020526107af6040600020546114b0565b610d0957604051936107c0856113a3565b85855260208501526040840152606083015260006080830152603260a08301524260c0830152600081830152336000526000602052604060002091805180519067ffffffffffffffff82116104fc57819061081b86546114b0565b601f8111610cb9575b50602090601f8311600114610c4d57600092610c42575b50508160011b916000199060031b1c19161783555b602081015180519067ffffffffffffffff82116104fc57819061087660018701546114b0565b601f8111610bef575b50602090601f8311600114610b7d57600092610b72575b50508160011b916000199060031b1c19161760018401555b604081015180519067ffffffffffffffff82116104fc5781906108d460028701546114b0565b601f8111610b1f575b50602090601f8311600114610aad57600092610aa2575b50508160011b916000199060031b1c19161760028401555b606081015180519067ffffffffffffffff82116104fc5761093060038601546114b0565b601f8111610a5b575b50602090601f83116001146109e757600794939291600091836109dc575b50508160011b916000199060031b1c19161760038501555b600484016080820151151560ff8019835416911617905560a0810151600585015560c0810151600685015501519101557f48cac28ad4dc618e15f4c2dd5e97751182f166de97b25618318b2112aa951a2f60405160208152806109d733946020830190611363565b0390a2005b015190508780610957565b906003860160005260206000209160005b601f1985168110610a4357509183916001936007979695601f19811610610a2a575b505050811b01600385015561096f565b015160001960f88460031b161c19169055878080610a1a565b919260206001819286850151815501940192016109f8565b600386016000526020600020601f840160051c810160208510610a9b575b601f830160051c82018110610a8f575050610939565b60008155600101610a79565b5080610a79565b0151905086806108f4565b9250600286016000526020600020906000935b601f1984168510610b04576001945083601f19811610610aeb575b505050811b01600284015561090c565b015160001960f88460031b161c19169055868080610adb565b81810151835560209485019460019093019290910190610ac0565b909150600286016000526020600020601f840160051c810160208510610b6b575b90849392915b601f830160051c82018110610b5c5750506108dd565b60008155859450600101610b46565b5080610b40565b015190508680610896565b9250600186016000526020600020906000935b601f1984168510610bd4576001945083601f19811610610bbb575b505050811b0160018401556108ae565b015160001960f88460031b161c19169055868080610bab565b81810151835560209485019460019093019290910190610b90565b909150600186016000526020600020601f840160051c810160208510610c3b575b90849392915b601f830160051c82018110610c2c57505061087f565b60008155859450600101610c16565b5080610c10565b01519050868061083b565b9250856000526020600020906000935b601f1984168510610c9e576001945083601f19811610610c85575b505050811b018355610850565b015160001960f88460031b161c19169055868080610c78565b81810151835560209485019460019093019290910190610c5d565b909150856000526020600020601f840160051c810160208510610d02575b90849392915b601f830160051c82018110610cf3575050610824565b60008155859450600101610cdd565b5080610cd7565b60405162461bcd60e51b8152602060048201526012602482015271105b1c9958591e481c9959da5cdd195c995960721b6044820152606490fd5b346100ce5760403660031901126100ce57610d5c61134d565b602435336000526020916001835260ff604060002054168015610eec575b610d8390611590565b60018060a01b0316918260005260008152610dac610da56040600020546114b0565b15156115cc565b6000821315610e425782600052600081526005604060002001918254908101809111610e2c577ffc577563f1b9a0461e24abef1e1fcc0d33d3d881f20b5df6dda59de4aae2c82192555b82600052600081526007604060002001610e10815461161f565b90558260005260008152600560406000200154604051908152a2005b634e487b7160e01b600052601160045260246000fd5b908260005260008252600560406000200154610e5d8261160e565b1015610eb257610e6c9061160e565b9082600052600081526005604060002001918254908103908111610e2c577ffc577563f1b9a0461e24abef1e1fcc0d33d3d881f20b5df6dda59de4aae2c8219255610df6565b507ffc577563f1b9a0461e24abef1e1fcc0d33d3d881f20b5df6dda59de4aae2c82190826000526000815260006005604082200155610df6565b506002546001600160a01b03163314610d7a565b346100ce5760203660031901126100ce57610f1961134d565b6002546001600160a01b039190610f33908316331461162e565b166000908152600160205260409020805460ff19169055005b346100ce5760203660031901126100ce57610f6561134d565b33600052600160205260ff604060002054168015610ff1575b610f8790611590565b60018060a01b0316806000526000602052610fa9610da56040600020546114b0565b8060005260006020526004604060002001600160ff198254161790557fbfb2fa25f828a712fda370028ecc8813c7082c69b239a579753b10e24dd472cc6020604051338152a2005b506002546001600160a01b03163314610f7e565b346100ce5760403660031901126100ce5760243561102281611666565b9161103060405193846113c0565b81835261103c82611666565b92602080820191601f1980960136843761105585611666565b61106260405191826113c0565b8581528661106f87611666565b018360005b8281106112c9575050506000936004355b878610806112b9575b156111a1576001600160a01b038116600081815280875260409020546110b3906114b0565b151580611187575b6110cf575b506110ca9061161f565b611085565b8681611180926110e36110ca959a8961167e565b526000526000875260406000206007604051916110ff836113a3565b611108816114ea565b8352611116600182016114ea565b8a840152611126600282016114ea565b6040840152611137600382016114ea565b606084015260ff60048201541615156080840152600581015460a0840152600681015460c084015201548a82015261116f828761167e565b5261117a818661167e565b5061161f565b95906110c0565b50806000526000865260ff600460406000200154166110bb565b5092859288916040519460408601926040875251809352606092838701979060005b81811061129c57505050858703828701528451928388528288019183808660051b8b01019701956000995b868b106111fb578989038af35b90919293949596978680828585600195030189528b519087806112626112526112406112308751610100808952880190611363565b888801518782038a890152611363565b60408701518682036040880152611363565b858d0151858203868f0152611363565b9360808082015115159085015260a0808201519085015260c0808201519085015201519101529a0196019a019993929190969594966111ee565b82516001600160a01b03168a5298840198918401916001016111c3565b506001600160a01b03811061108e565b6040516112d5816113a3565b606080825280848301528060408301528082015260006080820152600060a0820152600060c0820152600089820152828286010152018490611074565b346100ce5760203660031901126100ce576020906001600160a01b0361133661134d565b166000526001825260ff6040600020541615158152f35b600435906001600160a01b03821682036100ce57565b919082519283825260005b84811061138f575050826000602080949584010152601f8019910116010190565b60208183018101518483018201520161136e565b610100810190811067ffffffffffffffff8211176104fc57604052565b90601f8019910116810190811067ffffffffffffffff8211176104fc57604052565b81601f820112156100ce5780359067ffffffffffffffff82116104fc5760405192611417601f8401601f1916602001856113c0565b828452602083830101116100ce57816000926020809301838601378301015290565b60806003198201126100ce5767ffffffffffffffff906004358281116100ce5781611466916004016113e2565b926024358381116100ce578261147e916004016113e2565b926044358181116100ce5783611496916004016113e2565b926064359182116100ce576114ad916004016113e2565b90565b90600182811c921680156114e0575b60208310146114ca57565b634e487b7160e01b600052602260045260246000fd5b91607f16916114bf565b90604051918260008254926114fe846114b0565b90818452600194858116908160001461156d575060011461152a575b5050611528925003836113c0565b565b9093915060005260209081600020936000915b8183106115555750506115289350820101388061151a565b8554888401850152948501948794509183019161153d565b91505061152894506020925060ff191682840152151560051b820101388061151a565b1561159757565b60405162461bcd60e51b815260206004820152600d60248201526c2737ba1036b7b232b930ba37b960991b6044820152606490fd5b156115d357565b60405162461bcd60e51b8152602060048201526013602482015272155cd95c881b9bdd081c9959da5cdd195c9959606a1b6044820152606490fd5b600160ff1b8114610e2c5760000390565b6000198114610e2c5760010190565b1561163557565b60405162461bcd60e51b81526020600482015260096024820152682737ba1030b236b4b760b91b6044820152606490fd5b67ffffffffffffffff81116104fc5760051b60200190565b80518210156116925760209160051b010190565b634e487b7160e01b600052603260045260246000fdfea26469706673582212209d1728393159528f18e730195abd7e7195cbcd747f3181a8e38de6cc51582fa364736f6c63430008130033a26469706673582212203e4a4b65d16410ef214f2ff1f74db6a464e76a36503cc056aae027fd5567757364736f6c63430008130033",
  "linkReferences": {},
  "deployedLinkReferences": {}
}