{
  "_format": "hh-sol-artifact-1",
  "contractName": "RentChainGovernance",
  "sourceName": "contracts/RentChainGovernance.sol",
  "abi": [
    {
      "inputs": [
        {
          "internalType": "address",
          "name": "_governanceToken",
          "type": "address"
        }
      ],
      "stateMutability": "nonpayable",
      "type": "constructor"
    },
    {
      "anonymous": false,
      "inputs": [
        {
          "indexed": true,
          "internalType": "uint256",
          "name": "proposalId",
          "type": "uint256"
        },
        {
          "indexed": true,
          "internalType": "address",
          "name": "proposer",
          "type": "address"
        }
      ],
      "name": "ProposalCreated",
      "type": "event"
    },
    {
      "anonymous": false,
      "inputs": [
        {
          "indexed": true,
          "internalType": "uint256",
          "name": "proposalId",
          "type": "uint256"
        }
      ],
      "name": "ProposalExecuted",
      "type": "event"
    },
    {
      "anonymous": false,
      "inputs": [
        {
          "indexed": true,
          "internalType": "uint256",
          "name": "proposalId",
          "type": "uint256"
        },
        {
          "indexed": true,
          "internalType": "address",
          "name": "voter",
          "type": "address"
        },
        {
          "indexed": false,
          "internalType": "uint256",
          "name": "support",
          "type": "uint256"
        },
        {
          "indexed": false,
          "internalType": "uint256",
          "name": "votes",
          "type": "uint256"
        }
      ],
      "name": "VoteCast",
      "type": "event"
    },
    {
      "anonymous": false,
      "inputs": [
        {
          "indexed": true,
          "internalType": "address",
          "name": "user",
          "type": "address"
        },
        {
          "indexed": false,
          "internalType": "uint256",
          "name": "newPower",
          "type": "uint256"
        }
      ],
      "name": "VotingPowerUpdated",
      "type": "event"
    },
    {
      "inputs": [],
      "name": "admin",
      "outputs": [
        {
          "internalType": "address",
          "name": "",
          "type": "address"
        }
      ],
      "stateMutability": "view",
      "type": "function"
    },
    {
      "inputs": [
        {
          "internalType": "uint256",
          "name": "proposalId",
          "type": "uint256"
        },
        {
          "internalType": "uint256",
          "name": "support",
          "type": "uint256"
        }
      ],
      "name": "castVote",
      "outputs": [],
      "stateMutability": "nonpayable",
      "type": "function"
    },
    {
      "inputs": [
        {
          "internalType": "string",
          "name": "title",
          "type": "string"
        },
        {
          "internalType": "string",
          "name": "description",
          "type": "string"
        },
        {
          "internalType": "string",
          "name": "ipfsHash",
          "type": "string"
        },
        {
          "internalType": "address",
          "name": "target",
          "type": "address"
        },
        {
          "internalType": "bytes",
          "name": "data",
          "type": "bytes"
        }
      ],
      "name": "createProposal",
      "outputs": [
        {
          "internalType": "uint256",
          "name": "",
          "type": "uint256"
        }
      ],
      "stateMutability": "nonpayable",
      "type": "function"
    },
    {
      "inputs": [
        {
          "internalType": "uint256",
          "name": "proposalId",
          "type": "uint256"
        }
      ],
      "name": "executeProposal",
      "outputs": [],
      "stateMutability": "nonpayable",
      "type": "function"
    },
    {
      "inputs": [],
      "name": "getActiveProposals",
      "outputs": [
        {
          "internalType": "uint256[]",
          "name": "",
          "type": "uint256[]"
        }
      ],
      "stateMutability": "view",
      "type": "function"
    },
    {
      "inputs": [],
      "name": "governanceToken",
      "outputs": [
        {
          "internalType": "contract IERC20",
          "name": "",
          "type": "address"
        }
      ],
      "stateMutability": "view",
      "type": "function"
    },
    {
      "inputs": [],
      "name": "nextProposalId",
      "outputs": [
        {
          "internalType": "uint256",
          "name": "",
          "type": "uint256"
        }
      ],
      "stateMutability": "view",
      "type": "function"
    },
    {
      "inputs": [],
      "name": "proposalThreshold",
      "outputs": [
        {
          "internalType": "uint256",
          "name": "",
          "type": "uint256"
        }
      ],
      "stateMutability": "view",
      "type": "function"
    },
    {
      "inputs": [
        {
          "internalType": "uint256",
          "name": "",
          "type": "uint256"
        }
      ],
      "name": "proposals",
      "outputs": [
        {
          "internalType": "uint256",
          "name": "id",
          "type": "uint256"
        },
        {
          "internalType": "address",
          "name": "proposer",
          "type": "address"
        },
        {
          "internalType": "string",
          "name": "title",
          "type": "string"
        },
        {
          "internalType": "string",
          "name": "description",
          "type": "string"
        },
        {
          "internalType": "string",
          "name": "ipfsHash",
          "type": "string"
        },
        {
          "internalType": "uint256",
          "name": "voteStart",
          "type": "uint256"
        },
        {
          "internalType": "uint256",
          "name": "voteEnd",
          "type": "uint256"
        },
        {
          "internalType": "uint256",
          "name": "forVotes",
          "type": "uint256"
        },
        {
          "internalType": "uint256",
          "name": "againstVotes",
          "type": "uint256"
        },
        {
          "internalType": "uint256",
          "name": "abstainVotes",
          "type": "uint256"
        },
        {
          "internalType": "bool",
          "name": "executed",
          "type": "bool"
        },
        {
          "internalType": "address",
          "name": "target",
          "type": "address"
        },
        {
          "internalType": "bytes",
          "name": "data",
          "type": "bytes"
        }
      ],
      "stateMutability": "view",
      "type": "function"
    },
    {
      "inputs": [
        {
          "internalType": "uint256",
          "name": "threshold",
          "type": "uint256"
        }
      ],
      "name": "setProposalThreshold",
      "outputs": [],
      "stateMutability": "nonpayable",
      "type": "function"
    },
    {
      "inputs": [
        {
          "internalType": "uint256",
          "name": "period",
          "type": "uint256"
        }
      ],
      "name": "setVotingPeriod",
      "outputs": [],
      "stateMutability": "nonpayable",
      "type": "function"
    },
    {
      "inputs": [
        {
          "internalType": "address",
          "name": "user",
          "type": "address"
        }
      ],
      "name": "updateVotingPower",
      "outputs": [],
      "stateMutability": "nonpayable",
      "type": "function"
    },
    {
      "inputs": [
        {
          "internalType": "uint256",
          "name": "",
          "type": "uint256"
        },
        {
          "internalType": "address",
          "name": "",
          "type": "address"
        }
      ],
      "name": "votes",
      "outputs": [
        {
          "internalType": "uint256",
          "name": "",
          "type": "uint256"
        }
      ],
      "stateMutability": "view",
      "type": "function"
    },
    {
      "inputs": [],
      "name": "votingPeriod",
      "outputs": [
        {
          "internalType": "uint256",
          "name": "",
          "type": "uint256"
        }
      ],
      "stateMutability": "view",
      "type": "function"
    },
    {
      "inputs": [
        {
          "internalType": "address",
          "name": "",
          "type": "address"
        }
      ],
      "name": "votingPower",
      "outputs": [
        {
          "internalType": "uint256",
          "name": "",
          "type": "uint256"
        }
      ],
      "stateMutability": "view",
      "type": "function"
    }
  ],
  "bytecode": "0x60803461009057601f6113cb38819003918201601f19168301916001600160401b038311848410176100955780849260209460405283398101031261009057516001600160a01b038116908190036100905760018060a01b03199081600354161760035533906007541617600755683635c9adc5dea000006005556203f48060065560405161131f90816100ac8239f35b600080fd5b634e487b7160e01b600052604160045260246000fdfe608080604052600436101561001357600080fd5b60003560e01c908163013cf08b14610f015750806302a251a314610ee35780630d61b51914610cb75780632ab09d1414610c995780632c0a3f8914610a815780635584c4f91461090d578063747c12551461081e578063b58131b014610800578063c07473f6146107c6578063d23254b414610779578063d69e192714610177578063ea0217cf14610149578063ece40cc11461011b578063f851a440146100f25763f96dae0a146100c457600080fd5b346100ed5760003660031901126100ed576003546040516001600160a01b039091168152602090f35b600080fd5b346100ed5760003660031901126100ed576007546040516001600160a01b039091168152602090f35b346100ed5760203660031901126100ed5761014160018060a01b03600754163314611299565b600435600555005b346100ed5760203660031901126100ed5761016f60018060a01b03600754163314611299565b600435600655005b346100ed5760a03660031901126100ed5760043567ffffffffffffffff81116100ed576101a89036906004016111f5565b60243567ffffffffffffffff81116100ed576101c89036906004016111f5565b9060443567ffffffffffffffff81116100ed576101e99036906004016111f5565b916064356001600160a01b03811681036100ed5760843567ffffffffffffffff81116100ed57366023820112156100ed5761022e9036906024816004013591016111be565b9133600052600260205260406000205460055411610734576004549461025386611213565b60045561026260065442611238565b91604051956101a0870187811067ffffffffffffffff8211176105a9576040528787523360208801526040870152606086015260808501524260a085015260c0840152600060e084015260006101008401526000610120840152600061014084015260018060a01b0316610160830152610180820152816000526000602052604060002090805182556001820160018060a01b036020830151166bffffffffffffffffffffffff60a01b825416179055604081015192835167ffffffffffffffff81116105a9576103438161033a600287015461105a565b60028701611245565b6020601f82116001146106c55781929394956000926106ba575b50508160011b916000199060031b1c19161760028401555b606082015192835167ffffffffffffffff81116105a9576103a68161039d600385015461105a565b60038501611245565b6020601f821160011461064b578192939495600092610640575b50508160011b916000199060031b1c19161760038201555b608083015180519067ffffffffffffffff82116105a95761040982610400600486015461105a565b60048601611245565b602090601f83116001146105ca5791806101809492600b946000926105bf575b50508160011b916000199060031b1c19161760048201555b60a0850151600582015560c0850151600682015560e0850151600782015561010085015160088201556101208501516009820155600a81016101408601511515815460ff610100600160a81b036101608a015160081b169216906affffffffffffffffffffff60a81b1617179055019201519081519267ffffffffffffffff84116105a957836104dd6020956104d7845461105a565b84611245565b8493601f821160011461054657938192939460009261053b575b50508160011b916000199060031b1c19161790555b6040519033817fcd423cc1203c0af96b9b3d68d73b3064a69de2d14450bb7181c5e5df2132b358600080a38152f35b0151905085806104f7565b601f1982169483600052866000209160005b878110610592575083600195969710610579575b505050811b01905561050c565b015160001960f88460031b161c1916905585808061056c565b919288600181928685015181550194019201610558565b634e487b7160e01b600052604160045260246000fd5b015190508780610429565b906004840160005260206000209160005b601f19851681106106285750926101809492600192600b9583601f1981161061060f575b505050811b016004820155610441565b015160001960f88460031b161c191690558780806105ff565b919260206001819286850151815501940192016105db565b0151905085806103c0565b6003830160005260206000209060005b601f19841681106106a2575060019394959683601f19811610610689575b505050811b0160038201556103d8565b015160001960f88460031b161c19169055858080610679565b9091602060018192858b01518155019301910161065b565b01519050858061035d565b6002850160005260206000209060005b601f198416811061071c575060019394959683601f19811610610703575b505050811b016002840155610375565b015160001960f88460031b161c191690558580806106f3565b9091602060018192858b0151815501930191016106d5565b60405162461bcd60e51b815260206004820152601960248201527f496e73756666696369656e7420766f74696e6720706f776572000000000000006044820152606490fd5b346100ed5760403660031901126100ed576024356001600160a01b038116908190036100ed5760043560005260016020526040600020906000526020526020604060002054604051908152f35b346100ed5760203660031901126100ed576001600160a01b036107e761118c565b1660005260026020526020604060002054604051908152f35b346100ed5760003660031901126100ed576020600554604051908152f35b346100ed576020806003193601126100ed5761083861118c565b6003546040516370a0823160e01b81526001600160a01b03928316600482018190529390929091829184916024918391165afa8015610901576000906108b4575b7f36ac285914fb5fd49dd16e36cab1e696eda836080e3a61ff587c8671cbbdcab99250836000526002825280604060002055604051908152a2005b508082813d83116108fa575b6108ca818361112a565b810103126100ed577f36ac285914fb5fd49dd16e36cab1e696eda836080e3a61ff587c8671cbbdcab99151610879565b503d6108c0565b6040513d6000823e3d90fd5b346100ed5760003660031901126100ed576004546000805b828110610a2b575061094f610939826112d1565b91610947604051938461112a565b8083526112d1565b6020928383019291601f19013684376000805b8281106109ad5750505090604051928392818401908285525180915260408401929160005b82811061099657505050500390f35b835185528695509381019392810192600101610987565b8060005260008652604060002060068101544211159081610a1b575b506109dd575b6109d890611213565b610962565b908351811015610a05576109fd8183886109d89460051b88010152611213565b9190506109cf565b634e487b7160e01b600052603260045260246000fd5b60ff9150600a01541615876109c9565b806000526000602052604060002060068101544211159081610a71575b50610a5c575b610a5790611213565b610925565b90610a69610a5791611213565b919050610a4e565b60ff9150600a0154161584610a48565b346100ed5760403660031901126100ed5760043560249081359181600052602060008152604060002060058101544210610c615760068101544211610c2f5783600052600182526040600020336000528252604060002054610bfc573360005260028252604060002054928315610bc75760018603610b575750600701610b09838254611238565b90555b82600052600181526040600020336000528152816040600020556040519384528301527f0271f53eebbe20450d9578f28ec279231556c34545b30e2278d754ffd39cd63c60403393a3005b60028603610b755750600801610b6e838254611238565b9055610b0c565b60038603610b8c5750600901610b6e838254611238565b8260156064926040519262461bcd60e51b8452600484015282015274496e76616c696420737570706f72742076616c756560581b6044820152fd5b82600f6064926040519262461bcd60e51b845260048401528201526e2737903b37ba34b733903837bbb2b960891b6044820152fd5b50600d6064926040519262461bcd60e51b845260048401528201526c105b1c9958591e481d9bdd1959609a1b6044820152fd5b50600c6064926040519262461bcd60e51b845260048401528201526b159bdd1a5b99c8195b99195960a21b6044820152fd5b5060126064926040519262461bcd60e51b8452600484015282015271159bdd1a5b99c81b9bdd081cdd185c9d195960721b6044820152fd5b346100ed5760003660031901126100ed576020600454604051908152f35b346100ed576020806003193601126100ed5760043590816000526000815260406000206006810154421115610eab57600a81019182549160ff8316610e7357600781015460088201541015610e3c57600b01916040516000845494610d1b8661105a565b906001968781169081600014610e245750600114610deb575b50600093849392839003929150839060081c6001600160a01b03165af13d15610de6573d610d61816111a2565b90610d6f604051928361112a565b81526000833d92013e5b15610daf5750815460ff19161790557f712ae1383f79ac853f8d882153778e0260ef8f03b504e2866e0593e04d2b291f600080a2005b6064906040519062461bcd60e51b82526004820152601060248201526f115e1958dd5d1a5bdb8819985a5b195960821b6044820152fd5b610d79565b9091506000528360002084866000925b848410610e12575050509082019050816000610d34565b80548487015201910190868691610dfb565b60ff1916855250508015150282019050816000610d34565b60405162461bcd60e51b815260048101839052600f60248201526e141c9bdc1bdcd85b0819985a5b1959608a1b6044820152606490fd5b60405162461bcd60e51b815260048101839052601060248201526f105b1c9958591e48195e1958dd5d195960821b6044820152606490fd5b60405162461bcd60e51b815260048101839052601060248201526f159bdd1a5b99c81b9bdd08195b99195960821b6044820152606490fd5b346100ed5760003660031901126100ed576020600654604051908152f35b346100ed5760203660031901126100ed576004356000908152602081905260409020805460018201546001600160a01b03908116939192919081610f488160028601611094565b03610f53908361112a565b6040519182610f658160038701611094565b03610f70908461112a565b6040519283610f828160048801611094565b03610f8d908561112a565b6005850154936006860154600787015490600888015492600989015494600a8a01549660405180600b819d0190610fc391611094565b03610fce908c61112a565b6040519c8d9c8d5260208d01528b6101a06040819201528c01610ff09161114c565b8b810360608d01526110019161114c565b8a810360808c01526110129161114c565b9660a08a015260c089015260e088015261010087015261012086015260ff8116151561014086015260081c166101608401528281036101808401526110569161114c565b0390f35b90600182811c9216801561108a575b602083101461107457565b634e487b7160e01b600052602260045260246000fd5b91607f1691611069565b90600092918054916110a58361105a565b91828252600193848116908160001461110757506001146110c7575b50505050565b90919394506000526020928360002092846000945b8386106110f35750505050010190388080806110c1565b8054858701830152940193859082016110dc565b9294505050602093945060ff191683830152151560051b010190388080806110c1565b90601f8019910116810190811067ffffffffffffffff8211176105a957604052565b919082519283825260005b848110611178575050826000602080949584010152601f8019910116010190565b602081830181015184830182015201611157565b600435906001600160a01b03821682036100ed57565b67ffffffffffffffff81116105a957601f01601f191660200190565b9291926111ca826111a2565b916111d8604051938461112a565b8294818452818301116100ed578281602093846000960137010152565b9080601f830112156100ed57816020611210933591016111be565b90565b60001981146112225760010190565b634e487b7160e01b600052601160045260246000fd5b9190820180921161122257565b90601f811161125357505050565b600091825260208220906020601f850160051c8301941061128f575b601f0160051c01915b82811061128457505050565b818155600101611278565b909250829061126f565b156112a057565b60405162461bcd60e51b81526020600482015260096024820152682737ba1030b236b4b760b91b6044820152606490fd5b67ffffffffffffffff81116105a95760051b6020019056fea2646970667358221220152d51f201fe7f0da1c6cc679b6ec0d04758ca6b762def5e0570f6e8791f9a8e64736f6c63430008130033",
  "linkReferences": {},
  "deployedLinkReferences": {}
}