{
  "_format": "hh-sol-artifact-1",
  "contractName": "RentChainIntegration",
  "sourceName": "contracts/RentChainIntegration.sol",
  "abi": [
    {
      "inputs": [
        {
          "internalType": "address",
          "name": "_emergencySystem",
          "type": "address"
        }
      ],
      "stateMutability": "nonpayable",
      "type": "constructor"
    },
    {
      "anonymous": false,
      "inputs": [
        {
          "indexed": true,
          "internalType": "address",
          "name": "previousAdmin",
          "type": "address"
        },
        {
          "indexed": true,
          "internalType": "address",
          "name": "newAdmin",
          "type": "address"
        }
      ],
      "name": "AdminChanged",
      "type": "event"
    },
    {
      "anonymous": false,
      "inputs": [
        {
          "indexed": false,
          "internalType": "uint256",
          "name": "chainId",
          "type": "uint256"
        },
        {
          "indexed": false,
          "internalType": "address",
          "name": "bridgeContract",
          "type": "address"
        }
      ],
      "name": "BridgeConfigured",
      "type": "event"
    },
    {
      "anonymous": false,
      "inputs": [
        {
          "indexed": false,
          "internalType": "address",
          "name": "initializer",
          "type": "address"
        },
        {
          "indexed": false,
          "internalType": "uint256",
          "name": "version",
          "type": "uint256"
        }
      ],
      "name": "ContractInitialized",
      "type": "event"
    },
    {
      "anonymous": false,
      "inputs": [
        {
          "indexed": false,
          "internalType": "uint256",
          "name": "oldVersion",
          "type": "uint256"
        },
        {
          "indexed": false,
          "internalType": "uint256",
          "name": "newVersion",
          "type": "uint256"
        }
      ],
      "name": "ContractUpgraded",
      "type": "event"
    },
    {
      "anonymous": false,
      "inputs": [
        {
          "indexed": false,
          "internalType": "address",
          "name": "oldSystem",
          "type": "address"
        },
        {
          "indexed": false,
          "internalType": "address",
          "name": "newSystem",
          "type": "address"
        }
      ],
      "name": "EmergencySystemUpdated",
      "type": "event"
    },
    {
      "anonymous": false,
      "inputs": [
        {
          "indexed": false,
          "internalType": "string",
          "name": "name",
          "type": "string"
        },
        {
          "indexed": false,
          "internalType": "address",
          "name": "contractAddress",
          "type": "address"
        },
        {
          "indexed": false,
          "internalType": "uint256",
          "name": "integrationType",
          "type": "uint256"
        }
      ],
      "name": "IntegrationAdded",
      "type": "event"
    },
    {
      "anonymous": false,
      "inputs": [
        {
          "indexed": false,
          "internalType": "string",
          "name": "name",
          "type": "string"
        }
      ],
      "name": "IntegrationRemoved",
      "type": "event"
    },
    {
      "anonymous": false,
      "inputs": [
        {
          "indexed": false,
          "internalType": "address",
          "name": "token",
          "type": "address"
        },
        {
          "indexed": false,
          "internalType": "uint256",
          "name": "price",
          "type": "uint256"
        }
      ],
      "name": "OraclePriceUpdated",
      "type": "event"
    },
    {
      "anonymous": false,
      "inputs": [
        {
          "indexed": false,
          "internalType": "address",
          "name": "token",
          "type": "address"
        },
        {
          "indexed": false,
          "internalType": "address",
          "name": "feed",
          "type": "address"
        }
      ],
      "name": "PriceFeedUpdated",
      "type": "event"
    },
    {
      "anonymous": false,
      "inputs": [
        {
          "indexed": false,
          "internalType": "address",
          "name": "token",
          "type": "address"
        },
        {
          "indexed": false,
          "internalType": "bool",
          "name": "enabled",
          "type": "bool"
        }
      ],
      "name": "TokenIntegrated",
      "type": "event"
    },
    {
      "inputs": [
        {
          "internalType": "string",
          "name": "name",
          "type": "string"
        },
        {
          "internalType": "address",
          "name": "contractAddress",
          "type": "address"
        },
        {
          "internalType": "uint256",
          "name": "integrationType",
          "type": "uint256"
        },
        {
          "internalType": "string",
          "name": "version",
          "type": "string"
        }
      ],
      "name": "addIntegration",
      "outputs": [],
      "stateMutability": "nonpayable",
      "type": "function"
    },
    {
      "inputs": [],
      "name": "admin",
      "outputs": [
        {
          "internalType": "address",
          "name": "",
          "type": "address"
        }
      ],
      "stateMutability": "view",
      "type": "function"
    },
    {
      "inputs": [
        {
          "internalType": "address[]",
          "name": "tokens",
          "type": "address[]"
        },
        {
          "internalType": "bool[]",
          "name": "enabled",
          "type": "bool[]"
        }
      ],
      "name": "batchIntegrateTokens",
      "outputs": [],
      "stateMutability": "nonpayable",
      "type": "function"
    },
    {
      "inputs": [
        {
          "internalType": "uint256",
          "name": "",
          "type": "uint256"
        }
      ],
      "name": "bridgeConfigs",
      "outputs": [
        {
          "internalType": "uint256",
          "name": "chainId",
          "type": "uint256"
        },
        {
          "internalType": "address",
          "name": "bridgeContract",
          "type": "address"
        },
        {
          "internalType": "bool",
          "name": "enabled",
          "type": "bool"
        },
        {
          "internalType": "uint256",
          "name": "gasLimit",
          "type": "uint256"
        }
      ],
      "stateMutability": "view",
      "type": "function"
    },
    {
      "inputs": [
        {
          "internalType": "uint256",
          "name": "targetChain",
          "type": "uint256"
        },
        {
          "internalType": "address",
          "name": "token",
          "type": "address"
        },
        {
          "internalType": "uint256",
          "name": "amount",
          "type": "uint256"
        },
        {
          "internalType": "address",
          "name": "recipient",
          "type": "address"
        }
      ],
      "name": "bridgeTokens",
      "outputs": [
        {
          "internalType": "bytes32",
          "name": "",
          "type": "bytes32"
        }
      ],
      "stateMutability": "nonpayable",
      "type": "function"
    },
    {
      "inputs": [
        {
          "internalType": "uint256",
          "name": "chainId",
          "type": "uint256"
        },
        {
          "internalType": "address",
          "name": "bridgeContract",
          "type": "address"
        },
        {
          "internalType": "uint256",
          "name": "gasLimit",
          "type": "uint256"
        }
      ],
      "name": "configureBridge",
      "outputs": [],
      "stateMutability": "nonpayable",
      "type": "function"
    },
    {
      "inputs": [
        {
          "internalType": "address",
          "name": "fromToken",
          "type": "address"
        },
        {
          "internalType": "address",
          "name": "toToken",
          "type": "address"
        },
        {
          "internalType": "uint256",
          "name": "amount",
          "type": "uint256"
        }
      ],
      "name": "convertPrice",
      "outputs": [
        {
          "internalType": "uint256",
          "name": "",
          "type": "uint256"
        }
      ],
      "stateMutability": "view",
      "type": "function"
    },
    {
      "inputs": [],
      "name": "emergencySystem",
      "outputs": [
        {
          "internalType": "contract RentChainEmergency",
          "name": "",
          "type": "address"
        }
      ],
      "stateMutability": "view",
      "type": "function"
    },
    {
      "inputs": [
        {
          "internalType": "address",
          "name": "token",
          "type": "address"
        },
        {
          "internalType": "uint256",
          "name": "amount",
          "type": "uint256"
        },
        {
          "internalType": "address",
          "name": "recipient",
          "type": "address"
        }
      ],
      "name": "emergencyWithdrawToken",
      "outputs": [],
      "stateMutability": "nonpayable",
      "type": "function"
    },
    {
      "inputs": [],
      "name": "getActiveIntegrations",
      "outputs": [
        {
          "internalType": "string[]",
          "name": "names",
          "type": "string[]"
        },
        {
          "internalType": "address[]",
          "name": "addresses",
          "type": "address[]"
        },
        {
          "internalType": "bool[]",
          "name": "activeStatus",
          "type": "bool[]"
        }
      ],
      "stateMutability": "view",
      "type": "function"
    },
    {
      "inputs": [
        {
          "internalType": "uint256",
          "name": "chainId",
          "type": "uint256"
        }
      ],
      "name": "getBridgeConfig",
      "outputs": [
        {
          "internalType": "address",
          "name": "bridgeContract",
          "type": "address"
        },
        {
          "internalType": "bool",
          "name": "enabled",
          "type": "bool"
        },
        {
          "internalType": "uint256",
          "name": "gasLimit",
          "type": "uint256"
        }
      ],
      "stateMutability": "view",
      "type": "function"
    },
    {
      "inputs": [],
      "name": "getContractInfo",
      "outputs": [
        {
          "internalType": "address",
          "name": "contractAdmin",
          "type": "address"
        },
        {
          "internalType": "address",
          "name": "emergencySystemAddress",
          "type": "address"
        },
        {
          "internalType": "uint256",
          "name": "contractVersion",
          "type": "uint256"
        },
        {
          "internalType": "bool",
          "name": "isInitialized",
          "type": "bool"
        },
        {
          "internalType": "bool",
          "name": "isPaused",
          "type": "bool"
        }
      ],
      "stateMutability": "view",
      "type": "function"
    },
    {
      "inputs": [
        {
          "internalType": "string",
          "name": "name",
          "type": "string"
        }
      ],
      "name": "getIntegrationStatus",
      "outputs": [
        {
          "internalType": "address",
          "name": "contractAddress",
          "type": "address"
        },
        {
          "internalType": "bool",
          "name": "active",
          "type": "bool"
        },
        {
          "internalType": "uint256",
          "name": "integrationType",
          "type": "uint256"
        },
        {
          "internalType": "string",
          "name": "version",
          "type": "string"
        },
        {
          "internalType": "uint256",
          "name": "addedAt",
          "type": "uint256"
        }
      ],
      "stateMutability": "view",
      "type": "function"
    },
    {
      "inputs": [],
      "name": "getPauseInfo",
      "outputs": [
        {
          "internalType": "bool",
          "name": "paused",
          "type": "bool"
        },
        {
          "internalType": "uint256",
          "name": "pauseStart",
          "type": "uint256"
        },
        {
          "internalType": "uint256",
          "name": "pauseEnd",
          "type": "uint256"
        },
        {
          "internalType": "string",
          "name": "reason",
          "type": "string"
        }
      ],
      "stateMutability": "view",
      "type": "function"
    },
    {
      "inputs": [
        {
          "internalType": "address",
          "name": "token",
          "type": "address"
        }
      ],
      "name": "getPrice",
      "outputs": [
        {
          "internalType": "uint256",
          "name": "",
          "type": "uint256"
        }
      ],
      "stateMutability": "view",
      "type": "function"
    },
    {
      "inputs": [],
      "name": "initialized",
      "outputs": [
        {
          "internalType": "bool",
          "name": "",
          "type": "bool"
        }
      ],
      "stateMutability": "view",
      "type": "function"
    },
    {
      "inputs": [
        {
          "internalType": "address",
          "name": "token",
          "type": "address"
        },
        {
          "internalType": "bool",
          "name": "enabled",
          "type": "bool"
        }
      ],
      "name": "integrateToken",
      "outputs": [],
      "stateMutability": "nonpayable",
      "type": "function"
    },
    {
      "inputs": [
        {
          "internalType": "address",
          "name": "",
          "type": "address"
        }
      ],
      "name": "integratedTokens",
      "outputs": [
        {
          "internalType": "bool",
          "name": "",
          "type": "bool"
        }
      ],
      "stateMutability": "view",
      "type": "function"
    },
    {
      "inputs": [],
      "name": "integrationManager",
      "outputs": [
        {
          "internalType": "address",
          "name": "",
          "type": "address"
        }
      ],
      "stateMutability": "view",
      "type": "function"
    },
    {
      "inputs": [
        {
          "internalType": "string",
          "name": "",
          "type": "string"
        }
      ],
      "name": "integrations",
      "outputs": [
        {
          "internalType": "string",
          "name": "name",
          "type": "string"
        },
        {
          "internalType": "address",
          "name": "contractAddress",
          "type": "address"
        },
        {
          "internalType": "bool",
          "name": "active",
          "type": "bool"
        },
        {
          "internalType": "uint256",
          "name": "integrationType",
          "type": "uint256"
        },
        {
          "internalType": "string",
          "name": "version",
          "type": "string"
        },
        {
          "internalType": "uint256",
          "name": "addedAt",
          "type": "uint256"
        }
      ],
      "stateMutability": "view",
      "type": "function"
    },
    {
      "inputs": [],
      "name": "isSystemPaused",
      "outputs": [
        {
          "internalType": "bool",
          "name": "",
          "type": "bool"
        }
      ],
      "stateMutability": "view",
      "type": "function"
    },
    {
      "inputs": [
        {
          "internalType": "address",
          "name": "token",
          "type": "address"
        }
      ],
      "name": "isTokenIntegrated",
      "outputs": [
        {
          "internalType": "bool",
          "name": "",
          "type": "bool"
        }
      ],
      "stateMutability": "view",
      "type": "function"
    },
    {
      "inputs": [],
      "name": "nextBridgeConfigId",
      "outputs": [
        {
          "internalType": "uint256",
          "name": "",
          "type": "uint256"
        }
      ],
      "stateMutability": "view",
      "type": "function"
    },
    {
      "inputs": [],
      "name": "nextIntegrationId",
      "outputs": [
        {
          "internalType": "uint256",
          "name": "",
          "type": "uint256"
        }
      ],
      "stateMutability": "view",
      "type": "function"
    },
    {
      "inputs": [],
      "name": "pauseContract",
      "outputs": [],
      "stateMutability": "nonpayable",
      "type": "function"
    },
    {
      "inputs": [
        {
          "internalType": "address",
          "name": "",
          "type": "address"
        }
      ],
      "name": "priceFeeds",
      "outputs": [
        {
          "internalType": "address",
          "name": "token",
          "type": "address"
        },
        {
          "internalType": "address",
          "name": "feedAddress",
          "type": "address"
        },
        {
          "internalType": "uint8",
          "name": "decimals",
          "type": "uint8"
        },
        {
          "internalType": "bool",
          "name": "active",
          "type": "bool"
        }
      ],
      "stateMutability": "view",
      "type": "function"
    },
    {
      "inputs": [
        {
          "internalType": "address",
          "name": "token",
          "type": "address"
        },
        {
          "internalType": "uint256",
          "name": "amount",
          "type": "uint256"
        },
        {
          "internalType": "address",
          "name": "recipient",
          "type": "address"
        }
      ],
      "name": "recoverStuckTokens",
      "outputs": [],
      "stateMutability": "nonpayable",
      "type": "function"
    },
    {
      "inputs": [
        {
          "internalType": "string",
          "name": "name",
          "type": "string"
        }
      ],
      "name": "removeIntegration",
      "outputs": [],
      "stateMutability": "nonpayable",
      "type": "function"
    },
    {
      "inputs": [
        {
          "internalType": "address",
          "name": "token",
          "type": "address"
        },
        {
          "internalType": "uint256",
          "name": "amount",
          "type": "uint256"
        }
      ],
      "name": "requestEmergencyWithdrawal",
      "outputs": [
        {
          "internalType": "bytes32",
          "name": "",
          "type": "bytes32"
        }
      ],
      "stateMutability": "nonpayable",
      "type": "function"
    },
    {
      "inputs": [],
      "name": "resumeContract",
      "outputs": [],
      "stateMutability": "nonpayable",
      "type": "function"
    },
    {
      "inputs": [
        {
          "internalType": "address",
          "name": "newManager",
          "type": "address"
        }
      ],
      "name": "setIntegrationManager",
      "outputs": [],
      "stateMutability": "nonpayable",
      "type": "function"
    },
    {
      "inputs": [
        {
          "internalType": "address",
          "name": "token",
          "type": "address"
        },
        {
          "internalType": "address",
          "name": "feedAddress",
          "type": "address"
        },
        {
          "internalType": "uint8",
          "name": "decimals",
          "type": "uint8"
        }
      ],
      "name": "setPriceFeed",
      "outputs": [],
      "stateMutability": "nonpayable",
      "type": "function"
    },
    {
      "inputs": [
        {
          "internalType": "uint256",
          "name": "newVersion",
          "type": "uint256"
        }
      ],
      "name": "setVersion",
      "outputs": [],
      "stateMutability": "nonpayable",
      "type": "function"
    },
    {
      "inputs": [
        {
          "internalType": "address",
          "name": "fromToken",
          "type": "address"
        },
        {
          "internalType": "address",
          "name": "toToken",
          "type": "address"
        },
        {
          "internalType": "uint256",
          "name": "amountIn",
          "type": "uint256"
        },
        {
          "internalType": "uint256",
          "name": "minAmountOut",
          "type": "uint256"
        }
      ],
      "name": "swapTokens",
      "outputs": [
        {
          "internalType": "uint256",
          "name": "amountOut",
          "type": "uint256"
        }
      ],
      "stateMutability": "nonpayable",
      "type": "function"
    },
    {
      "inputs": [
        {
          "internalType": "address",
          "name": "newAdmin",
          "type": "address"
        }
      ],
      "name": "transferAdmin",
      "outputs": [],
      "stateMutability": "nonpayable",
      "type": "function"
    },
    {
      "inputs": [
        {
          "internalType": "address",
          "name": "newEmergencySystem",
          "type": "address"
        }
      ],
      "name": "updateEmergencySystem",
      "outputs": [],
      "stateMutability": "nonpayable",
      "type": "function"
    },
    {
      "inputs": [
        {
          "internalType": "string",
          "name": "name",
          "type": "string"
        },
        {
          "internalType": "address",
          "name": "newAddress",
          "type": "address"
        }
      ],
      "name": "updateIntegrationAddress",
      "outputs": [],
      "stateMutability": "nonpayable",
      "type": "function"
    },
    {
      "inputs": [
        {
          "internalType": "address",
          "name": "token",
          "type": "address"
        },
        {
          "internalType": "uint256",
          "name": "price",
          "type": "uint256"
        }
      ],
      "name": "updateOraclePrice",
      "outputs": [],
      "stateMutability": "nonpayable",
      "type": "function"
    },
    {
      "inputs": [],
      "name": "version",
      "outputs": [
        {
          "internalType": "uint256",
          "name": "",
          "type": "uint256"
        }
      ],
      "stateMutability": "view",
      "type": "function"
    },
    {
      "stateMutability": "payable",
      "type": "receive"
    }
  ],
  "bytecode": "0x6080346200108057601f6200399938819003918201601f19168301916001600160401b03831184841017620009f2578084926020946040528339810103126200108057516001600160a01b03811690819003620010805760018060a01b0319903382600054161760005581600254161760025560018055339060075416176007556200008a620010a5565b600a815269554e49535741505f563360b01b6020820152620000ab620010a5565b6002815261763360f01b6020820152620000e66040516020818551620000d58183858a01620010c5565b8101600381520301902054620010ea565b62000acb57620000f562001085565b9082825260006020830152600160408301526001606083015260808201524260a08201526040516020818451620001308183858901620010c5565b8101600381520301902091815192835160018060401b038111620009f2576200015a8254620010ea565b601f811162001037575b506020601f821160011462000fc957819293949560009262000fbd575b50508160011b916000199060031b1c19161781555b6020830151600182018054604086015160ff60a01b90151560a01b166001600160a01b039093166001600160a81b03199091161791909117905560608301516002820155608083015180519093906001600160401b038111620009f257620002026003840154620010ea565b601f811162000f71575b506020601f821160011462000ee857918160a092600494600080516020620039798339815191529860009262000edc575b50508160011b916000199060031b1c19161760038501555b01519101556080604051809260608252620002808151809281606086015260208686019101620010c5565b6000602083015260016040830152601f01601f19168101030190a1620002a5620010a5565b6007815266414156455f563360c81b6020820152620002c3620010a5565b6002815261763360f01b60208201526007546001600160a01b03163314801562000ec7575b1562000b1057620003096040516020818551620000d58183858a01620010c5565b62000acb576200031862001085565b9082825260006020830152600160408301526002606083015260808201524260a08201526040516020818451620003538183858901620010c5565b8101600381520301902091815192835160018060401b038111620009f2576200037d8254620010ea565b601f811162000e7e575b506020601f821160011462000e1057819293949560009262000e04575b50508160011b916000199060031b1c19161781555b6020830151600182018054604086015160ff60a01b90151560a01b166001600160a01b039093166001600160a81b03199091161791909117905560608301516002820155608083015180519093906001600160401b038111620009f257620004256003840154620010ea565b601f811162000db8575b506020601f821160011462000d2f57918160a092600494600080516020620039798339815191529860009262000d23575b50508160011b916000199060031b1c19161760038501555b01519101556080604051809260608252620004a38151809281606086015260208686019101620010c5565b6000602083015260026040830152601f01601f19168101030190a1620004c8620010a5565b6009815268434841494e4c494e4b60b81b6020820152620004e8620010a5565b6002815261763160f01b60208201526007546001600160a01b03163314801562000d0e575b1562000b10576200052e6040516020818551620000d58183858a01620010c5565b62000acb576200053d62001085565b9082825260006020830152600160408301526003606083015260808201524260a08201526040516020818451620005788183858901620010c5565b8101600381520301902091815192835160018060401b038111620009f257620005a28254620010ea565b601f811162000cc5575b506020601f821160011462000c5757819293949560009262000c4b575b50508160011b916000199060031b1c19161781555b6020830151600182018054604086015160ff60a01b90151560a01b166001600160a01b039093166001600160a81b03199091161791909117905560608301516002820155608083015180519093906001600160401b038111620009f2576200064a6003840154620010ea565b601f811162000bff575b506020601f821160011462000b7657918160a092600494600080516020620039798339815191529860009262000b6a575b50508160011b916000199060031b1c19161760038501555b01519101556080604051809260608252620006c88151809281606086015260208686019101620010c5565b6000602083015260036040830152601f01601f19168101030190a1620006ed620010a5565b60098152680a8908abe8ea482a0960bb1b60208201526200070d620010a5565b6002815261763160f01b60208201526007546001600160a01b03163314801562000b55575b1562000b1057620007536040516020818551620000d58183858a01620010c5565b62000acb576200076262001085565b9082825260006020830152600160408301526004606083015260808201524260a082015260405160208184516200079d8183858901620010c5565b8101600381520301902091815192835160018060401b038111620009f257620007c78254620010ea565b601f811162000a82575b506020601f821160011462000a1457819293949560009262000a08575b50508160011b916000199060031b1c19161781555b6020830151600182018054604086015160ff60a01b90151560a01b166001600160a01b039093166001600160a81b031990911617919091179055606083015160028201556080830151805160038301916001600160401b038211620009f2576200086e8354620010ea565b601f8111620009a5575b50602090601f83116001146200092257928260a09360008051602062003979833981519152989360049660009262000916575b50508160011b916000199060031b1c19161790555b01519101556080604051809260608252620008eb8151809281606086015260208686019101620010c5565b6000602083015260046040830152601f01601f19168101030190a16040516128519081620011288239f35b015190503880620008ab565b90601f198316918460005260206000209260005b8181106200098c575093600080516020620039798339815191529893600496936001938360a0981062000972575b505050811b019055620008c0565b015160001960f88460031b161c1916905538808062000964565b9293602060018192878601518155019501930162000936565b836000526020600020601f840160051c81019160208510620009e7575b601f0160051c01905b818110620009da575062000878565b60008155600101620009cb565b9091508190620009c2565b634e487b7160e01b600052604160045260246000fd5b015190503880620007ee565b8260005260206000209060005b601f198416811062000a69575060019394959683601f1981161062000a4f575b505050811b01815562000803565b015160001960f88460031b161c1916905538808062000a41565b9091602060018192858b01518155019301910162000a21565b826000526020600020601f830160051c81016020841062000ac3575b601f830160051c8201811062000ab6575050620007d1565b6000815560010162000a9e565b508062000a9e565b60405162461bcd60e51b815260206004820152601a60248201527f496e746567726174696f6e20616c7265616479206578697374730000000000006044820152606490fd5b60405162461bcd60e51b815260206004820152601760248201527f4e6f7420696e746567726174696f6e206d616e616765720000000000000000006044820152606490fd5b506000546001600160a01b0316331462000732565b01519050388062000685565b6003840160005260206000209560005b601f198416811062000be657508260008051602062003979833981519152976004959360019360a096601f1981161062000bcc575b505050811b0160038501556200069d565b015160001960f88460031b161c1916905538808062000bbb565b8282015188556001909701966020928301920162000b86565b600384016000526020600020601f830160051c81016020841062000c43575b601f830160051c8201811062000c3657505062000654565b6000815560010162000c1e565b508062000c1e565b015190503880620005c9565b8260005260206000209060005b601f198416811062000cac575060019394959683601f1981161062000c92575b505050811b018155620005de565b015160001960f88460031b161c1916905538808062000c84565b9091602060018192858b01518155019301910162000c64565b826000526020600020601f830160051c81016020841062000d06575b601f830160051c8201811062000cf9575050620005ac565b6000815560010162000ce1565b508062000ce1565b506000546001600160a01b031633146200050d565b01519050388062000460565b6003840160005260206000209560005b601f198416811062000d9f57508260008051602062003979833981519152976004959360019360a096601f1981161062000d85575b505050811b01600385015562000478565b015160001960f88460031b161c1916905538808062000d74565b8282015188556001909701966020928301920162000d3f565b600384016000526020600020601f830160051c81016020841062000dfc575b601f830160051c8201811062000def5750506200042f565b6000815560010162000dd7565b508062000dd7565b015190503880620003a4565b8260005260206000209060005b601f198416811062000e65575060019394959683601f1981161062000e4b575b505050811b018155620003b9565b015160001960f88460031b161c1916905538808062000e3d565b9091602060018192858b01518155019301910162000e1d565b826000526020600020601f830160051c81016020841062000ebf575b601f830160051c8201811062000eb257505062000387565b6000815560010162000e9a565b508062000e9a565b506000546001600160a01b03163314620002e8565b0151905038806200023d565b6003840160005260206000209560005b601f198416811062000f5857508260008051602062003979833981519152976004959360019360a096601f1981161062000f3e575b505050811b01600385015562000255565b015160001960f88460031b161c1916905538808062000f2d565b8282015188556001909701966020928301920162000ef8565b600384016000526020600020601f830160051c81016020841062000fb5575b601f830160051c8201811062000fa85750506200020c565b6000815560010162000f90565b508062000f90565b01519050388062000181565b8260005260206000209060005b601f19841681106200101e575060019394959683601f1981161062001004575b505050811b01815562000196565b015160001960f88460031b161c1916905538808062000ff6565b9091602060018192858b01518155019301910162000fd6565b826000526020600020601f830160051c81016020841062001078575b601f830160051c820181106200106b57505062000164565b6000815560010162001053565b508062001053565b600080fd5b6040519060c082016001600160401b03811183821017620009f257604052565b60408051919082016001600160401b03811183821017620009f257604052565b60005b838110620010d95750506000910152565b8181015183820152602001620010c8565b90600182811c921680156200111c575b60208310146200110657565b634e487b7160e01b600052602260045260246000fd5b91607f1691620010fa56fe608080604052600436101561006b575b50361561001b57600080fd5b60405162461bcd60e51b815260206004820152602260248201527f446972656374206574686572207472616e7366657273206e6f7420616c6c6f77604482015261195960f21b6064820152608490fd5b600090813560e01c908163158ef93e1461207a575080631913ef411461202d57806326d446851461200457806331e0ae1d14611f105780633981afc114611e74578063408def1e14611e0f57806341976e0914611deb578063439766ce14611d4857806345282a9214611c7a5780634bb846e114611c4257806354fd4d5014611c2457806359bc9e8314611b865780635a76212014611b685780635d65ad6714611abb5780635f13f78e14610c2357806361b73ae6146119ea578063635c6fc11461191f5780636ddd1fd4146117af57806370d2ddf4146117605780637254f06a1461173757806374fc1832146115f257806375829def146115745780637691c4ac1461154f5780637cc1f867146114f657806383509080146113f65780638e18cdfc146111145780639c9dcea3146110f65780639dcb511a14611090578063ad2ff25a14610fd2578063c4bc5da514610f5f578063c61c806214610c62578063cb74ad4c14610c23578063cde01440146107a4578063d172f2f01461074c578063d1f91726146104dd578063d3a24fbc1461044e578063d8bcdc8f1461037f578063f851a440146103585763fd4690b60361000f57346103555760603660031901126103555761023a61209c565b6102426120b2565b6044359160ff8316809303610351576007547fa8abe0398416476db5b05737cd4da3b3cbde5012d978a6a6c3fd49d321753536936001600160a01b0391821633148015610345575b6102939061248f565b604051916102a083612110565b808416908184526001602085019482881686526040810194855260608101938285528a5260046020528260408b209151166001600160601b0360a01b8254161781550193511683549260ff60a01b905160a01b169160ff60a81b9051151560a81b169269ffffffffffffffffffff60b01b16171717905561033f6040519283928390602090939293604083019460018060a01b03809216845216910152565b0390a180f35b5085548216331461028a565b8380fd5b80fd5b5034610355578060031936011261035557546040516001600160a01b039091168152602090f35b503461035557602036600319011261035557600435906001600160401b038211610355576104156103cb60206103b83660048701612195565b81604051938285809451938492016120c8565b810160038152030190206103de8161227a565b90610444600182015460028301549260046103fb6003830161227a565b9101549360ff60405197889760c0895260c08901906120eb565b6001600160a01b038516602089015260a09490941c1615156040870152606086015284820360808601526120eb565b9060a08301520390f35b5034610355576040366003190112610355577f77c20208cd7e01a3ac49a77a10791ff815d4994e3297d40f1762a9c5eaeb94ae61033f61048c61209c565b6007546104ae90336001600160a01b03918216149081156104d0575b5061248f565b604080516001600160a01b039092168252602435602083015290918291820190565b90508554163314386104a8565b5034610355576080366003190112610355576004356104fa6120b2565b6001600160a01b0392604435919060643590858216820361074757600481876002541660405192838092633e8dc9cf60e21b82525afa90811561073c5790610553918391610713575b5061054c6126ab565b9015612345565b61056360ff825460a01c166126d4565b8481526020956005875260ff600160408420015460a01c16156106d6578316908181526006875260ff6040822054161561069a576040516323b872dd60e01b8152336004820152306024820152604481018690529187908390606490829085905af190811561068e578091610655575b506105de9150612720565b60405193858501933360601b85526001600160601b0319809460601b1660348701526048860152606885015260601b16608883015242609c830152609c825260c08201918083106001600160401b0384111761063f57826040525190208152f35b634e487b7160e01b600052604160045260246000fd5b90508682813d8311610687575b61066c8183612159565b8101031261035557506106816105de91612375565b386105d3565b503d610662565b604051903d90823e3d90fd5b60405162461bcd60e51b8152600481018890526014602482015273151bdad95b881b9bdd081a5b9d1959dc985d195960621b6044820152606490fd5b60405162461bcd60e51b8152600481018890526015602482015274109c9a5919d9481b9bdd0818dbdb999a59dd5c9959605a1b6044820152606490fd5b61072f91503d8085833e6107278183612159565b810190612382565b5050505050505038610543565b6040513d84823e3d90fd5b600080fd5b5034610355576020366003190112610355576040608091600435815260056020522080549060ff600260018301549201549160405193845260018060a01b038116602085015260a01c16151560408301526060820152f35b5034610355576080366003190112610355576004356001600160401b038111610c1f576107d5903690600401612195565b6107dd6120b2565b6064356001600160401b038111610351576107fc903690600401612195565b6007546001600160a01b031633148015610c0c575b61081a9061248f565b60405190610846845192602081818801956108368183896120c8565b8101600381520301902054612240565b610bc7576040519160c08301908382106001600160401b0383111761063f576108aa9260209260405286855260018060a01b0386168386015260016040860152604435606086015260808501524260a08501526040518093819288519283916120c8565b810160038152030190209080518051906001600160401b038211610af25781906108d48554612240565b601f8111610b7a575b50602090601f8311600114610b11578892610b06575b50508160011b916000199060031b1c19161782555b6020810151600183018054604084015160ff60a01b90151560a01b166001600160a01b039093166001600160a81b0319909116179190911790556060810151600283015560808101518051906001600160401b038211610af25761096f6003850154612240565b601f8111610aae575b50602090601f8311600114610a18576109ef9593837ff890f086e0b40a73005667da0e6cb35e1d80c5e7e8e4cc3b9496241abb535d6398969460049460a0948c92610a0d575b50508160011b916000199060031b1c19161760038501555b01519101556040519283926060845260608401906120eb565b6001600160a01b03909116602083015260443560408301520390a180f35b0151905038806109be565b600385018852602088209190601f198416895b818110610a9657508460049460a0946109ef9a98947ff890f086e0b40a73005667da0e6cb35e1d80c5e7e8e4cc3b9496241abb535d639c9a9860019510610a7d575b505050811b0160038501556109d6565b015160001960f88460031b161c19169055388080610a6d565b92936020600181928786015181550195019301610a2b565b60038501885260208820601f840160051c810160208510610aeb575b601f830160051c82018110610ae0575050610978565b898155600101610aca565b5080610aca565b634e487b7160e01b87526041600452602487fd5b0151905038806108f3565b9250848852602088209088935b601f1984168510610b5f576001945083601f19811610610b46575b505050811b018255610908565b015160001960f88460031b161c19169055388080610b39565b81810151835560209485019460019093019290910190610b1e565b90915084885260208820601f840160051c810160208510610bc0575b90849392915b601f830160051c82018110610bb25750506108dd565b8a8155859450600101610b9c565b5080610b96565b60405162461bcd60e51b815260206004820152601a60248201527f496e746567726174696f6e20616c7265616479206578697374730000000000006044820152606490fd5b5083546001600160a01b03163314610811565b5080fd5b50346103555760203660031901126103555760209060ff906040906001600160a01b03610c4e61209c565b168152600684522054166040519015158152f35b503461035557806003193601126103555780600854610c808161275e565b92610c8e6040519485612159565b818452601f199182610c9f8261275e565b01825b818110610f4c575050610cb48161275e565b93610cc26040519586612159565b818552610cce8261275e565b91602091858388019401368537610cfd610ce78361275e565b92610cf56040519485612159565b80845261275e565b828401960136873760405190610d1282612110565b604051610d1e8161213e565b600a815269554e49535741505f563360b01b858201528252604051610d428161213e565b6007815266414156455f563360c81b8582015284830152604051610d658161213e565b6009815268434841494e4c494e4b60b81b858201526040830152604051610d8b8161213e565b60098152680a8908abe8ea482a0960bb1b858201526060830152855b60048110610e94575050506040519687966060880160608952825180915260808901908560808260051b8c010194019188905b828210610e5b575050505087820388850152518082529083019390855b818110610e3b5750505085830360408701525180835291810193925b828110610e2257505050500390f35b8351151585528695509381019392810192600101610e13565b82516001600160a01b031686528998509484019491840191600101610df7565b9193949680610e7e600193959899829c9b9d9e607f1990820301865289516120eb565b9701920192018b9a999798969594939192610dda565b610eba858260059c969799989a9b9c1b85015181604051938285809451938492016120c8565b81016003815203019020610ece8154612240565b610eea575b50610edd90612775565b9897969495939298610da7565b610edd9192600182610efe610f459461227a565b610f08848a612784565b52610f138389612784565b5001546001600160a01b038116610f2a838f612784565b5260ff610f37838a612784565b9160a01c1615159052612775565b9190610ed3565b6060602082890181019190915201610ca2565b50346103555780600319360112610355578060018060a01b03610f8f818354163314610f89612320565b90612345565b60025416803b15610fcf5781809160046040518094819363157c51d360e01b83525af1801561073c57610fbf5750f35b610fc89061212b565b6103555780f35b50fd5b503461035557604036600319011261035557610fec61209c565b602435801515810361108c576007547faca4e11e645c6b63d9b2a5d1e36556030db0e7da8cba6a168c51911ceabfa85a92906001600160a01b0390811633148015611080575b61103b9061248f565b81168452600660205261105d82604086209060ff801983541691151516179055565b604080516001600160a01b0390921682529115156020820152908190810161033f565b50845481163314611032565b8280fd5b5034610355576020366003190112610355576080906001600160a01b039060ff90604090836110bd61209c565b168152600460205220916001818454169301549060405193845281166020840152818160a01c16604084015260a81c1615156060820152f35b50346103555780600319360112610355576020600854604051908152f35b50346103555760803660031901126103555761112e61209c565b6111366120b2565b916044359160018060a01b0393600483866002541660405192838092633e8dc9cf60e21b82525afa9081156113eb57906111799185916113d7575061054c6126ab565b61118960ff845460a01c166126d4565b848216908184526020956006875260ff60408620541615611392578116928385526006875260ff6040862054161561134d576111c6918691612652565b936064358510611312576040516323b872dd60e01b815233600482015230602482015260448101919091529085908290606490829087905af180156113075783906112d1575b6112169150612720565b60405163a9059cbb60e01b8152336004820152602481018490529084908290604490829086905af191821561068e578092611299575b50501561125b57604051908152f35b60405162461bcd60e51b815260048101839052601660248201527513dd5d1c1d5d081d1c985b9cd9995c8819985a5b195960521b6044820152606490fd5b9091508382813d83116112ca575b6112b18183612159565b8101031261035557506112c390612375565b388061124c565b503d6112a7565b508481813d8311611300575b6112e78183612159565b8101031261108c576112fb61121691612375565b61120c565b503d6112dd565b6040513d85823e3d90fd5b60405162461bcd60e51b8152600481018790526013602482015272125b9cdd59999a58da595b9d081bdd5d1c1d5d606a1b6044820152606490fd5b60405162461bcd60e51b815260048101889052601760248201527f546f20746f6b656e206e6f7420696e74656772617465640000000000000000006044820152606490fd5b60405162461bcd60e51b815260048101889052601960248201527f46726f6d20746f6b656e206e6f7420696e7465677261746564000000000000006044820152606490fd5b61072f91503d8087833e6107278183612159565b6040513d86823e3d90fd5b5034610355576114053661220c565b835490926001600160a01b0392916114239084163314610f89612320565b61142b61242e565b156114b95760405163a9059cbb60e01b81526001600160a01b039490941660048501526024840191909152602091839160449183918791165af1801561073c57829061147f575b61147c9150612720565b80f35b506020813d82116114b1575b8161149860209383612159565b81010312610c1f576114ac61147c91612375565b611472565b3d915061148b565b60405162461bcd60e51b815260206004820152601560248201527414de5cdd195b481b5d5cdd081899481c185d5cd959605a1b6044820152606490fd5b50346103555780600319360112610355575460025460015460a0926001600160a01b039283169160ff919061152961242e565b93604051958316865260208601526040850152841c161515606083015215156080820152f35b5034610355578060031936011261035557602061156a61242e565b6040519015158152f35b50346103555760203660031901126103555761158e61209c565b8154906001600160a01b03808316916115b06115a8612320565b843314612345565b6115b9816127df565b1680926001600160601b0360a01b161783557f7e644d79422f17c01e4894b5f4f588d331ebfa28653d42ae832dc59e38c9798f8380a380f35b5034610355576116013661220c565b83549192916001600160a01b039061161f9082163314610f89612320565b61162761242e565b156116fe57849281811661165a575082938392839283918315611650575b1690f11561068e5780f35b6108fc9250611645565b60405163a9059cbb60e01b602082019081526001600160a01b0394909416602482015260448082019690965294855261147c948493919250839061169f606482612159565b51925af13d156116f9573d6116b38161217a565b906116c16040519283612159565b81528360203d92013e5b604051906116d88261213e565b600f82526e151c985b9cd9995c8819985a5b1959608a1b6020830152612345565b6116cb565b60405162461bcd60e51b815260206004820152601160248201527014de5cdd195b481b9bdd081c185d5cd959607a1b6044820152606490fd5b50346103555780600319360112610355576007546040516001600160a01b039091168152602090f35b503461035557602036600319011261035557604060609160043581526005602052206002600182015491015460ff6040519260018060a01b038116845260a01c16151560208301526040820152f35b5034610355576040366003190112610355576001600160401b0360043581811161108c576117e19036906004016121dc565b9091602435908111610351576117fb9036906004016121dc565b909160018060a01b0393846007541633148015611913575b61181c9061248f565b8282036118de57855b828110611830578680f35b8061187b61184a6118456118d994888a6127ae565b6127be565b8861185e6118598589896127ae565b6127cb565b168a52600660205260408a209060ff801983541691151516179055565b7faca4e11e645c6b63d9b2a5d1e36556030db0e7da8cba6a168c51911ceabfa85a6118aa6118598387876127ae565b6118b861184584898b6127ae565b604080516001600160a01b03939093168352901515602083015290a1612775565b611825565b60405162461bcd60e51b815260206004820152600d60248201526c125b9d985b1a59081a5b9c1d5d609a1b6044820152606490fd5b50855485163314611813565b5034610355576040366003190112610355576004356001600160401b038111610c1f57611950903690600401612195565b6119586120b2565b9060016119bd6020828060a01b03938460075416331480156119de575b61197e9061248f565b611987866127df565b604051906119ac6119a582519385818186019661083681838a6120c8565b15156124db565b6040519384928392519283916120c8565b810160038152030190200191166001600160601b0360a01b82541617905580f35b50865485163314611975565b503461035557602080600319360112610c1f57600435906001600160401b03821161108c57611a3e7feb69770a1a304ddd42beb5910601b46ecadeb0422e39fb892e722f95a62b79dc923690600401612195565b90611a5d60018060a01b03806007541633149081156104d0575061248f565b6001611a9182604051611a806119a58751928481818b01956108368183896120c8565b6040518093819288519283916120c8565b810160038152030190200160ff60a01b19815416905561033f6040519282849384528301906120eb565b503461035557604036600319011261035557806020611b16611adb61209c565b600254604051635d65ad6760e01b81526001600160a01b03928316600482015260248035908201529485939190921691839182906044820190565b03925af190811561073c578291611b33575b602082604051908152f35b90506020813d8211611b60575b81611b4d60209383612159565b81010312610c1f57602091505138611b28565b3d9150611b40565b50346103555780600319360112610355576020600954604051908152f35b503461035557602036600319011261035557600435906001600160401b0382116103555760ff611bbe60206103b83660048701612195565b81016003815203019020600181015490611c1a6002820154611be760036004850154940161227a565b9060405195869560018060a01b038116875260a01c1615156020860152604085015260a0606085015260a08401906120eb565b9060808301520390f35b50346103555780600319360112610355576020600154604051908152f35b5034610355576060366003190112610355576020611c72611c6161209c565b611c696120b2565b60443591612652565b604051908152f35b5034610355578060031936011261035557600254604051633e8dc9cf60e21b815291908190839060049082906001600160a01b03165afa8015611d3b5781809381908293611d11575b50840190818511611cfd575090611cf99160405194859415158552602085015260408401526080606084015260808301906120eb565b0390f35b634e487b7160e01b81526011600452602490fd5b9250509250611d2a91503d8084833e6107278183612159565b509450959250939050929338611cc3565b50604051903d90823e3d90fd5b50346103555780600319360112610355578060018060a01b03611d72818354163314610f89612320565b60025416803b15610fcf57819060e4604051809481936334cc128960e21b835260016004840152600160248401526001604484015262278d00606484015260a06084840152600b60a48401526a41646d696e20706175736560a81b60c48401525af1801561073c57611de2575080f35b61147c9061212b565b5034610355576020366003190112610355576020611c72611e0a61209c565b612536565b5034610355576020366003190112610355577f730abf329076f769aacddade69fbe7ca672a3c95fc1b7728ecf7b8f8cb705ed06040600435611e5e60018060a01b038554163314610f89612320565b600154908060015582519182526020820152a180f35b5034610355576020366003190112610355577f62fb284f5d1a9d326f25d6900267a8cb39113f8484b351a73c1ada4014c66864611eaf61209c565b82546001600160a01b039190611ecb9083163314610f89612320565b611ed4816127df565b600280548284166001600160a01b031982161790915560408051939091166001600160a01b03908116845290911660208301528190810161033f565b5034610355576060366003190112610355577f9e3fe4691b5eedc9a99c5f59e1a82d35fc2569f133ff9e3081249bca7b446df46040600435611f506120b2565b6007546001600160a01b0390811633148015611ff8575b611f709061248f565b6002845191611f7e83612110565b848352611fe681602085019516948581528785016001815260608601936044358552888c526005602052898c2096518755600187019251166001600160601b0360a01b83541617825551151581549060ff60a01b90151560a01b169060ff60a01b1916179055565b5191015582519182526020820152a180f35b50855481163314611f67565b50346103555780600319360112610355576002546040516001600160a01b039091168152602090f35b50346103555760203660031901126103555761204761209c565b81546001600160a01b0391906120639083163314610f89612320565b166001600160601b0360a01b600754161760075580f35b905034610c1f5781600319360112610c1f5760ff6020925460a01c1615158152f35b600435906001600160a01b038216820361074757565b602435906001600160a01b038216820361074757565b60005b8381106120db5750506000910152565b81810151838201526020016120cb565b90602091612104815180928185528580860191016120c8565b601f01601f1916010190565b608081019081106001600160401b0382111761063f57604052565b6001600160401b03811161063f57604052565b604081019081106001600160401b0382111761063f57604052565b90601f801991011681019081106001600160401b0382111761063f57604052565b6001600160401b03811161063f57601f01601f191660200190565b81601f82011215610747578035906121ac8261217a565b926121ba6040519485612159565b8284526020838301011161074757816000926020809301838601378301015290565b9181601f84011215610747578235916001600160401b038311610747576020808501948460051b01011161074757565b6060906003190112610747576001600160a01b03600435818116810361074757916024359160443590811681036107475790565b90600182811c92168015612270575b602083101461225a57565b634e487b7160e01b600052602260045260246000fd5b91607f169161224f565b906040519182600082549261228e84612240565b9081845260019485811690816000146122fd57506001146122ba575b50506122b892500383612159565b565b9093915060005260209081600020936000915b8183106122e55750506122b8935082010138806122aa565b855488840185015294850194879450918301916122cd565b9150506122b894506020925060ff191682840152151560051b82010138806122aa565b6040519061232d8261213e565b60098252682737ba1030b236b4b760b91b6020830152565b1561234d5750565b60405162461bcd60e51b8152602060048201529081906123719060248301906120eb565b0390fd5b5190811515820361074757565b9190610100838203126107475761239883612375565b926123a560208201612375565b926123b260408301612375565b926123bf60608401612375565b9260808101519260a08201519260c08301516001600160401b0381116107475783019080601f83011215610747578151916123f98361217a565b916124076040519384612159565b838352602084830101116107475760e09261242891602080850191016120c8565b92015190565b600254604051633e8dc9cf60e21b815290600090829060049082906001600160a01b03165afa90811561248357600091612466575090565b612479913d8091833e6107278183612159565b5050505050505090565b6040513d6000823e3d90fd5b1561249657565b60405162461bcd60e51b815260206004820152601760248201527f4e6f7420696e746567726174696f6e206d616e616765720000000000000000006044820152606490fd5b156124e257565b60405162461bcd60e51b8152602060048201526015602482015274125b9d1959dc985d1a5bdb881b9bdd08199bdd5b99605a1b6044820152606490fd5b519069ffffffffffffffffffff8216820361074757565b6001600160a01b0390811660009081526004602052604081206001015460a881901c60ff16156126155760a090600460405180958193633fabe5a360e21b8352165afa918215611d3b5781926125c7575b508113156125925790565b60405162461bcd60e51b815260206004820152600d60248201526c496e76616c696420707269636560981b6044820152606490fd5b90915060a0813d821161260d575b816125e260a09383612159565b81010312610c1f576125f38161251f565b5061260560806020830151920161251f565b509038612587565b3d91506125d5565b60405162461bcd60e51b815260206004820152601560248201527450726963652066656564206e6f742061637469766560581b6044820152606490fd5b61265e61266491612536565b91612536565b9181810291818304149015171561269557811561267f570490565b634e487b7160e01b600052601260045260246000fd5b634e487b7160e01b600052601160045260246000fd5b604051906126b88261213e565b600d82526c14de5cdd195b481c185d5cd959609a1b6020830152565b156126db57565b60405162461bcd60e51b815260206004820152601860248201527f436f6e7472616374206e6f7420696e697469616c697a656400000000000000006044820152606490fd5b1561272757565b60405162461bcd60e51b815260206004820152600f60248201526e151c985b9cd9995c8819985a5b1959608a1b6044820152606490fd5b6001600160401b03811161063f5760051b60200190565b60001981146126955760010190565b80518210156127985760209160051b010190565b634e487b7160e01b600052603260045260246000fd5b91908110156127985760051b0190565b3580151581036107475790565b356001600160a01b03811681036107475790565b6040516122b8916127ef8261213e565b600f82526e496e76616c6964206164647265737360881b60208301526001600160a01b0316151561234556fea2646970667358221220c0de8aace07acc42188f6dde52a8bb9f310a6cd32964a05eb2cf79d3180dd7d364736f6c63430008130033f890f086e0b40a73005667da0e6cb35e1d80c5e7e8e4cc3b9496241abb535d63",
  "linkReferences": {},
  "deployedLinkReferences": {}
}