{
  "_format": "hh-sol-artifact-1",
  "contractName": "LiquidityPool",
  "sourceName": "contracts/LiquidityPool.sol",
  "abi": [
    {
      "inputs": [
        {
          "internalType": "address",
          "name": "_feeCollector",
          "type": "address"
        }
      ],
      "stateMutability": "nonpayable",
      "type": "constructor"
    },
    {
      "anonymous": false,
      "inputs": [
        {
          "indexed": true,
          "internalType": "uint256",
          "name": "poolId",
          "type": "uint256"
        },
        {
          "indexed": false,
          "internalType": "address",
          "name": "provider",
          "type": "address"
        },
        {
          "indexed": false,
          "internalType": "uint256",
          "name": "amountA",
          "type": "uint256"
        },
        {
          "indexed": false,
          "internalType": "uint256",
          "name": "amountB",
          "type": "uint256"
        },
        {
          "indexed": false,
          "internalType": "uint256",
          "name": "liquidity",
          "type": "uint256"
        }
      ],
      "name": "LiquidityAdded",
      "type": "event"
    },
    {
      "anonymous": false,
      "inputs": [
        {
          "indexed": true,
          "internalType": "uint256",
          "name": "poolId",
          "type": "uint256"
        },
        {
          "indexed": false,
          "internalType": "address",
          "name": "provider",
          "type": "address"
        },
        {
          "indexed": false,
          "internalType": "uint256",
          "name": "amountA",
          "type": "uint256"
        },
        {
          "indexed": false,
          "internalType": "uint256",
          "name": "amountB",
          "type": "uint256"
        },
        {
          "indexed": false,
          "internalType": "uint256",
          "name": "liquidity",
          "type": "uint256"
        }
      ],
      "name": "LiquidityRemoved",
      "type": "event"
    },
    {
      "anonymous": false,
      "inputs": [
        {
          "indexed": true,
          "internalType": "uint256",
          "name": "poolId",
          "type": "uint256"
        },
        {
          "indexed": false,
          "internalType": "address",
          "name": "tokenA",
          "type": "address"
        },
        {
          "indexed": false,
          "internalType": "address",
          "name": "tokenB",
          "type": "address"
        }
      ],
      "name": "PoolCreated",
      "type": "event"
    },
    {
      "anonymous": false,
      "inputs": [
        {
          "indexed": true,
          "internalType": "uint256",
          "name": "poolId",
          "type": "uint256"
        },
        {
          "indexed": false,
          "internalType": "address",
          "name": "tokenIn",
          "type": "address"
        },
        {
          "indexed": false,
          "internalType": "address",
          "name": "tokenOut",
          "type": "address"
        },
        {
          "indexed": false,
          "internalType": "uint256",
          "name": "amountIn",
          "type": "uint256"
        },
        {
          "indexed": false,
          "internalType": "uint256",
          "name": "amountOut",
          "type": "uint256"
        }
      ],
      "name": "Swap",
      "type": "event"
    },
    {
      "inputs": [],
      "name": "FEE",
      "outputs": [
        {
          "internalType": "uint256",
          "name": "",
          "type": "uint256"
        }
      ],
      "stateMutability": "view",
      "type": "function"
    },
    {
      "inputs": [
        {
          "internalType": "uint256",
          "name": "poolId",
          "type": "uint256"
        },
        {
          "internalType": "uint256",
          "name": "amountA",
          "type": "uint256"
        },
        {
          "internalType": "uint256",
          "name": "amountB",
          "type": "uint256"
        }
      ],
      "name": "addLiquidity",
      "outputs": [
        {
          "internalType": "uint256",
          "name": "liquidity",
          "type": "uint256"
        }
      ],
      "stateMutability": "nonpayable",
      "type": "function"
    },
    {
      "inputs": [
        {
          "internalType": "address",
          "name": "token",
          "type": "address"
        },
        {
          "internalType": "uint256",
          "name": "amount",
          "type": "uint256"
        }
      ],
      "name": "collectFees",
      "outputs": [],
      "stateMutability": "nonpayable",
      "type": "function"
    },
    {
      "inputs": [
        {
          "internalType": "address",
          "name": "tokenA",
          "type": "address"
        },
        {
          "internalType": "address",
          "name": "tokenB",
          "type": "address"
        }
      ],
      "name": "createPool",
      "outputs": [
        {
          "internalType": "uint256",
          "name": "",
          "type": "uint256"
        }
      ],
      "stateMutability": "nonpayable",
      "type": "function"
    },
    {
      "inputs": [],
      "name": "feeCollector",
      "outputs": [
        {
          "internalType": "address",
          "name": "",
          "type": "address"
        }
      ],
      "stateMutability": "view",
      "type": "function"
    },
    {
      "inputs": [
        {
          "internalType": "uint256",
          "name": "poolId",
          "type": "uint256"
        }
      ],
      "name": "getPoolInfo",
      "outputs": [
        {
          "internalType": "address",
          "name": "tokenA",
          "type": "address"
        },
        {
          "internalType": "address",
          "name": "tokenB",
          "type": "address"
        },
        {
          "internalType": "uint256",
          "name": "reserveA",
          "type": "uint256"
        },
        {
          "internalType": "uint256",
          "name": "reserveB",
          "type": "uint256"
        },
        {
          "internalType": "uint256",
          "name": "totalLiquidity",
          "type": "uint256"
        }
      ],
      "stateMutability": "view",
      "type": "function"
    },
    {
      "inputs": [
        {
          "internalType": "uint256",
          "name": "poolId",
          "type": "uint256"
        }
      ],
      "name": "getPoolReserves",
      "outputs": [
        {
          "internalType": "uint256",
          "name": "reserveA",
          "type": "uint256"
        },
        {
          "internalType": "uint256",
          "name": "reserveB",
          "type": "uint256"
        }
      ],
      "stateMutability": "view",
      "type": "function"
    },
    {
      "inputs": [
        {
          "internalType": "uint256",
          "name": "poolId",
          "type": "uint256"
        },
        {
          "internalType": "address",
          "name": "user",
          "type": "address"
        }
      ],
      "name": "getUserLiquidity",
      "outputs": [
        {
          "internalType": "uint256",
          "name": "",
          "type": "uint256"
        }
      ],
      "stateMutability": "view",
      "type": "function"
    },
    {
      "inputs": [],
      "name": "nextPoolId",
      "outputs": [
        {
          "internalType": "uint256",
          "name": "",
          "type": "uint256"
        }
      ],
      "stateMutability": "view",
      "type": "function"
    },
    {
      "inputs": [
        {
          "internalType": "uint256",
          "name": "",
          "type": "uint256"
        }
      ],
      "name": "pools",
      "outputs": [
        {
          "internalType": "address",
          "name": "tokenA",
          "type": "address"
        },
        {
          "internalType": "address",
          "name": "tokenB",
          "type": "address"
        },
        {
          "internalType": "uint256",
          "name": "reserveA",
          "type": "uint256"
        },
        {
          "internalType": "uint256",
          "name": "reserveB",
          "type": "uint256"
        },
        {
          "internalType": "uint256",
          "name": "totalLiquidity",
          "type": "uint256"
        }
      ],
      "stateMutability": "view",
      "type": "function"
    },
    {
      "inputs": [
        {
          "internalType": "uint256",
          "name": "poolId",
          "type": "uint256"
        },
        {
          "internalType": "uint256",
          "name": "liquidity",
          "type": "uint256"
        }
      ],
      "name": "removeLiquidity",
      "outputs": [],
      "stateMutability": "nonpayable",
      "type": "function"
    },
    {
      "inputs": [
        {
          "internalType": "uint256",
          "name": "poolId",
          "type": "uint256"
        },
        {
          "internalType": "address",
          "name": "tokenIn",
          "type": "address"
        },
        {
          "internalType": "uint256",
          "name": "amountIn",
          "type": "uint256"
        }
      ],
      "name": "swap",
      "outputs": [
        {
          "internalType": "uint256",
          "name": "amountOut",
          "type": "uint256"
        }
      ],
      "stateMutability": "nonpayable",
      "type": "function"
    }
  ],
  "bytecode": "0x60803461007457601f610fbb38819003918201601f19168301916001600160401b038311848410176100795780849260209460405283398101031261007457516001600160a01b0381169081900361007457600280546001600160a01b031916919091179055604051610f2b90816100908239f35b600080fd5b634e487b7160e01b600052604160045260246000fdfe6040608081526004908136101561001557600080fd5b600090813560e01c806301c8867c14610cc957806318e5613114610cab5780632f380b3514610c2e578063422f1043146109a657806343264349146106375780636a4c3264146105e65780639d7de6b3146103d4578063a033fcd4146102a3578063ac4afa3814610234578063c415b95c1461020c578063c57981b5146101f15763e3433615146100a557600080fd5b346101ed57806003193601126101ed576100bd610d25565b6001600160a01b03806100ce610d0a565b169116908082146101bd57811515806101b4575b156101825760015493600019851461016f5784927f1a7a1d16c3ec9167827a7be3534be26288720a0bdd3de56d290f415db3d3e0a692859260209860018701600155868252818a528482206bffffffffffffffffffffffff60a01b85818354161782558460018301918254161790558260028201558260038201550155825191825287820152a251908152f35b634e487b7160e01b815260118652602490fd5b825162461bcd60e51b8152602081870152600c60248201526b5a65726f206164647265737360a01b6044820152606490fd5b508015156100e2565b825162461bcd60e51b8152602081870152600a60248201526929b0b6b2903a37b5b2b760b11b6044820152606490fd5b5080fd5b50346101ed57816003193601126101ed5760209051601e8152f35b50346101ed57816003193601126101ed5760025490516001600160a01b039091168152602090f35b5090346102a05760203660031901126102a057823581526020818152908290208054600182015460028301546003840154939096015494516001600160a01b03928316815291169281019290925260408201939093526060810192909252608082015260a090f35b0390f35b80fd5b508290346103d057806003193601126103d0576102be610d25565b6002546001600160a01b03919082163381900361039957835163a9059cbb60e01b81526001600160a01b0390911685820190815260243560208281019190915291939192849290918391899183906040010393165af190811561038f578491610361575b501561032c578280f35b906020606492519162461bcd60e51b8352820152600f60248201526e151c985b9cd9995c8819985a5b1959608a1b6044820152fd5b610382915060203d8111610388575b61037a8183610e0b565b810190610e43565b84610322565b503d610370565b82513d86823e3d90fd5b835162461bcd60e51b815260208187015260116024820152702737ba103332b29031b7b63632b1ba37b960791b6044820152606490fd5b8280fd5b5082346103d057816003193601126103d0578035906024356103f96001548410610d3b565b82855260209085825284862091600583019333885284825261042083888a20541015610dc6565b6002840193610430855485610d7d565b8282019561044087548093610da6565b96610459600385019361045485548a610d7d565b610da6565b98338d5286528a8c2061046d888254610ee8565b905561047a878254610ee8565b9055610487878254610ee8565b9055610494878254610ee8565b90558054885163a9059cbb60e01b80825233858301908152602081018990526001600160a01b039592939192918d918891869182900360400190829085908b165af19586156105da57600188966104f7610524998e9886916105bd575b50610e5b565b015416928c519687958694859384523390840160209093929193604081019460018060a01b031681520152565b03925af19182156105b35761059093927f9c27aedc1d1fccd4271dc15980dab26a907cdb41ed08aef747c6d0a9680f55ce97989261056a928b92610596575b5050610e9b565b513381526020810193909352604083019390935260608201929092529081906080820190565b0390a280f35b6105ac9250803d106103885761037a8183610e0b565b8a80610563565b87513d8a823e3d90fd5b6105d491508a3d8c116103885761037a8183610e0b565b386104f1565b508b51903d90823e3d90fd5b5082346103d057816003193601126103d057602092829135610606610d0a565b906106146001548210610d3b565b82528185528282206001600160a01b039091168252600501845220549051908152f35b508290346103d05760603660031901126103d0578135610655610d0a565b6044356106656001548410610d3b565b8286526020868152848720805491976001600160a01b03948516949283168514808015610997575b15610964571561095557600282015460038301545b6126f29081870291878304148715171561094257816106c091610d7d565b9161271090818102918183041490151715610942576106e992916106e391610edb565b90610da6565b9788156109095787516323b872dd60e01b815233828201908152306020820152604081018790528b90829081906060010381868b5af190811561087a5783916108ec575b50156108b45782548416860361088d576002830161074c868254610edb565b90556003830161075d8a8254610ee8565b90555b838a8185541680891460001461088457506107a7826001870154165b8b5163a9059cbb60e01b815233868201908152602081018f9052909485938492899291849160400190565b0393165af190811561087a57839161085d575b501561082457509180827fbcb6ba82bf7b5ab7e1ef293120339d48a22f48e74d6c080577d5694895280284969482608097955416905080861460001461081c575060010154165b8751938452168883015285820152856060820152a251908152f35b915050610801565b875162461bcd60e51b81529081018a90526013602482015272151c985b9cd9995c881bdd5d0819985a5b1959606a1b6044820152606490fd5b61087491508b3d8d116103885761037a8183610e0b565b8b6107ba565b89513d85823e3d90fd5b6107a79061077c565b6003830161089c868254610edb565b9055600283016108ad8a8254610ee8565b9055610760565b875162461bcd60e51b81529081018a90526012602482015271151c985b9cd9995c881a5b8819985a5b195960721b6044820152606490fd5b61090391508b3d8d116103885761037a8183610e0b565b8b61072d565b875162461bcd60e51b81529081018a90526013602482015272125b9cdd59999a58da595b9d081bdd5d1c1d5d606a1b6044820152606490fd5b634e487b7160e01b845260118b52602484fd5b600382015460028301546106a2565b875162461bcd60e51b8152808a018b9052600d60248201526c24b73b30b634b2103a37b5b2b760991b6044820152606490fd5b5083600184015416861461068d565b50346101ed5760603660031901126101ed578235602435604435906001946109d086548510610d3b565b83815260209681885285822090838183019182548015600014610be7575090866109f991610d7d565b898101808211610bd457908692918b1c815b828210610bb1575050995b610a218b1515610dc6565b84548a516323b872dd60e01b808252338583019081523060208201526040810196909652946001600160a01b0393928f91839186169082908c90829060600103925af1908115610ba7578a938f959293610a87610ab998958c948591610b905750610e5b565b8901548e5194855233938501938452306020850152604084019590955292958694939093169284928391606090910190565b03925af1908115610b8657928492610b006005938b968e7f089607a52cca0d390ff7d0ad4e97545804dcc41418e1daee9ec3948596fec9449b9a9992610b69575050610e9b565b60028201610b0f878254610edb565b905560038201610b20888254610edb565b9055610b2d8b8254610edb565b905533835201895220610b41878254610edb565b905584513381526020810191909152604081019190915260608101859052608090a251908152f35b610b7f9250803d106103885761037a8183610e0b565b388e610563565b88513d86823e3d90fd5b6105d49150893d8b116103885761037a8183610e0b565b8c513d8a823e3d90fd5b9150919250610bc982610bc48184610da6565b610edb565b8b1c87939291610a0b565b634e487b7160e01b865260118352602486fd5b610c17610c0c610c05610bfa8487610d7d565b600289015490610da6565b928a610d7d565b600387015490610da6565b80821015610c2757505b99610a16565b9050610c21565b5090346102a05760203660031901126102a0578161029c918435610c556001548210610d3b565b815260208181529190208054600182015460028301546003840154979093015495516001600160a01b039283168152911692810192909252604082015260608101939093526080830191909152819060a0820190565b50346101ed57816003193601126101ed576020906001549051908152f35b5082346103d05760203660031901126103d05791819235610ced6001548210610d3b565b815280602052206003600282015491015482519182526020820152f35b602435906001600160a01b0382168203610d2057565b600080fd5b600435906001600160a01b0382168203610d2057565b15610d4257565b60405162461bcd60e51b8152602060048201526013602482015272141bdbdb08191bd95cc81b9bdd08195e1a5cdd606a1b6044820152606490fd5b81810292918115918404141715610d9057565b634e487b7160e01b600052601160045260246000fd5b8115610db0570490565b634e487b7160e01b600052601260045260246000fd5b15610dcd57565b60405162461bcd60e51b8152602060048201526016602482015275496e73756666696369656e74206c697175696469747960501b6044820152606490fd5b90601f8019910116810190811067ffffffffffffffff821117610e2d57604052565b634e487b7160e01b600052604160045260246000fd5b90816020910312610d2057518015158103610d205790565b15610e6257565b60405162461bcd60e51b8152602060048201526011602482015270151c985b9cd9995c88104819985a5b1959607a1b6044820152606490fd5b15610ea257565b60405162461bcd60e51b8152602060048201526011602482015270151c985b9cd9995c88108819985a5b1959607a1b6044820152606490fd5b91908201809211610d9057565b91908203918211610d905756fea264697066735822122017530b283f1efb94594f9aaad78f393f4fd5f45fbe6b9aab2886689c9738cb5b64736f6c63430008130033",
  "linkReferences": {},
  "deployedLinkReferences": {}
}