{
  "_format": "hh-sol-artifact-1",
  "contractName": "RentChainAnalytics",
  "sourceName": "contracts/RentChainAnalytics.sol",
  "abi": [
    {
      "inputs": [
        {
          "internalType": "address",
          "name": "_propertyRegistry",
          "type": "address"
        },
        {
          "internalType": "address",
          "name": "_rentAgreement",
          "type": "address"
        }
      ],
      "stateMutability": "nonpayable",
      "type": "constructor"
    },
    {
      "anonymous": false,
      "inputs": [
        {
          "indexed": false,
          "internalType": "uint256",
          "name": "snapshotId",
          "type": "uint256"
        },
        {
          "indexed": false,
          "internalType": "uint256",
          "name": "timestamp",
          "type": "uint256"
        }
      ],
      "name": "MarketSnapshotTaken",
      "type": "event"
    },
    {
      "anonymous": false,
      "inputs": [
        {
          "indexed": false,
          "internalType": "uint256",
          "name": "totalProperties",
          "type": "uint256"
        },
        {
          "indexed": false,
          "internalType": "uint256",
          "name": "totalRentals",
          "type": "uint256"
        },
        {
          "indexed": false,
          "internalType": "uint256",
          "name": "totalVolume",
          "type": "uint256"
        }
      ],
      "name": "PlatformStatsUpdated",
      "type": "event"
    },
    {
      "anonymous": false,
      "inputs": [
        {
          "indexed": false,
          "internalType": "address",
          "name": "user",
          "type": "address"
        },
        {
          "indexed": false,
          "internalType": "uint256",
          "name": "propertiesListed",
          "type": "uint256"
        },
        {
          "indexed": false,
          "internalType": "uint256",
          "name": "rentalsCompleted",
          "type": "uint256"
        }
      ],
      "name": "UserStatsUpdated",
      "type": "event"
    },
    {
      "inputs": [],
      "name": "admin",
      "outputs": [
        {
          "internalType": "address",
          "name": "",
          "type": "address"
        }
      ],
      "stateMutability": "view",
      "type": "function"
    },
    {
      "inputs": [],
      "name": "emergencyPause",
      "outputs": [],
      "stateMutability": "nonpayable",
      "type": "function"
    },
    {
      "inputs": [],
      "name": "getLocationDistribution",
      "outputs": [
        {
          "internalType": "string[]",
          "name": "locations",
          "type": "string[]"
        },
        {
          "internalType": "uint256[]",
          "name": "counts",
          "type": "uint256[]"
        }
      ],
      "stateMutability": "view",
      "type": "function"
    },
    {
      "inputs": [],
      "name": "getMarketInsights",
      "outputs": [
        {
          "internalType": "uint256[]",
          "name": "popularPriceRanges",
          "type": "uint256[]"
        },
        {
          "internalType": "string[]",
          "name": "topLocations",
          "type": "string[]"
        },
        {
          "internalType": "uint256",
          "name": "marketGrowthRate",
          "type": "uint256"
        },
        {
          "internalType": "uint256",
          "name": "userRetentionRate",
          "type": "uint256"
        }
      ],
      "stateMutability": "view",
      "type": "function"
    },
    {
      "inputs": [],
      "name": "getPlatformAnalytics",
      "outputs": [
        {
          "internalType": "uint256",
          "name": "totalProperties",
          "type": "uint256"
        },
        {
          "internalType": "uint256",
          "name": "totalRentals",
          "type": "uint256"
        },
        {
          "internalType": "uint256",
          "name": "totalVolume",
          "type": "uint256"
        },
        {
          "internalType": "uint256",
          "name": "activeUsers",
          "type": "uint256"
        },
        {
          "internalType": "uint256",
          "name": "averageRent",
          "type": "uint256"
        },
        {
          "internalType": "uint256",
          "name": "platformDisputeRate",
          "type": "uint256"
        }
      ],
      "stateMutability": "view",
      "type": "function"
    },
    {
      "inputs": [],
      "name": "getRentDistribution",
      "outputs": [
        {
          "internalType": "uint256[]",
          "name": "ranges",
          "type": "uint256[]"
        },
        {
          "internalType": "uint256[]",
          "name": "counts",
          "type": "uint256[]"
        }
      ],
      "stateMutability": "view",
      "type": "function"
    },
    {
      "inputs": [
        {
          "internalType": "address",
          "name": "user",
          "type": "address"
        }
      ],
      "name": "getUserAnalytics",
      "outputs": [
        {
          "internalType": "uint256",
          "name": "propertiesListed",
          "type": "uint256"
        },
        {
          "internalType": "uint256",
          "name": "rentalsCompleted",
          "type": "uint256"
        },
        {
          "internalType": "uint256",
          "name": "totalSpent",
          "type": "uint256"
        },
        {
          "internalType": "uint256",
          "name": "totalEarned",
          "type": "uint256"
        },
        {
          "internalType": "uint256",
          "name": "disputeRate",
          "type": "uint256"
        },
        {
          "internalType": "uint256",
          "name": "successRate",
          "type": "uint256"
        },
        {
          "internalType": "uint256",
          "name": "avgTransactionSize",
          "type": "uint256"
        }
      ],
      "stateMutability": "view",
      "type": "function"
    },
    {
      "inputs": [],
      "name": "lastSnapshot",
      "outputs": [
        {
          "internalType": "uint256",
          "name": "",
          "type": "uint256"
        }
      ],
      "stateMutability": "view",
      "type": "function"
    },
    {
      "inputs": [
        {
          "internalType": "string",
          "name": "",
          "type": "string"
        }
      ],
      "name": "locationStats",
      "outputs": [
        {
          "internalType": "uint256",
          "name": "",
          "type": "uint256"
        }
      ],
      "stateMutability": "view",
      "type": "function"
    },
    {
      "inputs": [
        {
          "internalType": "uint256",
          "name": "",
          "type": "uint256"
        }
      ],
      "name": "marketSnapshots",
      "outputs": [
        {
          "internalType": "uint256",
          "name": "timestamp",
          "type": "uint256"
        }
      ],
      "stateMutability": "view",
      "type": "function"
    },
    {
      "inputs": [],
      "name": "nextSnapshotId",
      "outputs": [
        {
          "internalType": "uint256",
          "name": "",
          "type": "uint256"
        }
      ],
      "stateMutability": "view",
      "type": "function"
    },
    {
      "inputs": [],
      "name": "propertyRegistry",
      "outputs": [
        {
          "internalType": "address",
          "name": "",
          "type": "address"
        }
      ],
      "stateMutability": "view",
      "type": "function"
    },
    {
      "inputs": [],
      "name": "rentAgreement",
      "outputs": [
        {
          "internalType": "address",
          "name": "",
          "type": "address"
        }
      ],
      "stateMutability": "view",
      "type": "function"
    },
    {
      "inputs": [
        {
          "internalType": "uint256",
          "name": "",
          "type": "uint256"
        }
      ],
      "name": "rentDistribution",
      "outputs": [
        {
          "internalType": "uint256",
          "name": "",
          "type": "uint256"
        }
      ],
      "stateMutability": "view",
      "type": "function"
    },
    {
      "inputs": [
        {
          "internalType": "address",
          "name": "_propertyRegistry",
          "type": "address"
        },
        {
          "internalType": "address",
          "name": "_rentAgreement",
          "type": "address"
        }
      ],
      "name": "setContractAddresses",
      "outputs": [],
      "stateMutability": "nonpayable",
      "type": "function"
    },
    {
      "inputs": [
        {
          "internalType": "uint256",
          "name": "interval",
          "type": "uint256"
        }
      ],
      "name": "setSnapshotInterval",
      "outputs": [],
      "stateMutability": "nonpayable",
      "type": "function"
    },
    {
      "inputs": [],
      "name": "snapshotInterval",
      "outputs": [
        {
          "internalType": "uint256",
          "name": "",
          "type": "uint256"
        }
      ],
      "stateMutability": "view",
      "type": "function"
    },
    {
      "inputs": [],
      "name": "takeMarketSnapshot",
      "outputs": [],
      "stateMutability": "nonpayable",
      "type": "function"
    },
    {
      "inputs": [
        {
          "internalType": "address",
          "name": "user",
          "type": "address"
        },
        {
          "internalType": "string",
          "name": "location",
          "type": "string"
        },
        {
          "internalType": "uint256",
          "name": "rentPrice",
          "type": "uint256"
        }
      ],
      "name": "updatePropertyStats",
      "outputs": [],
      "stateMutability": "nonpayable",
      "type": "function"
    },
    {
      "inputs": [
        {
          "internalType": "address",
          "name": "user",
          "type": "address"
        },
        {
          "internalType": "bool",
          "name": "isLandlord",
          "type": "bool"
        },
        {
          "internalType": "uint256",
          "name": "amount",
          "type": "uint256"
        },
        {
          "internalType": "bool",
          "name": "successful",
          "type": "bool"
        },
        {
          "internalType": "bool",
          "name": "hadDispute",
          "type": "bool"
        }
      ],
      "name": "updateUserStats",
      "outputs": [],
      "stateMutability": "nonpayable",
      "type": "function"
    },
    {
      "inputs": [
        {
          "internalType": "address",
          "name": "",
          "type": "address"
        }
      ],
      "name": "userStats",
      "outputs": [
        {
          "internalType": "uint256",
          "name": "propertiesListed",
          "type": "uint256"
        },
        {
          "internalType": "uint256",
          "name": "rentalsCompleted",
          "type": "uint256"
        },
        {
          "internalType": "uint256",
          "name": "totalSpent",
          "type": "uint256"
        },
        {
          "internalType": "uint256",
          "name": "totalEarned",
          "type": "uint256"
        },
        {
          "internalType": "uint256",
          "name": "avgRating",
          "type": "uint256"
        },
        {
          "internalType": "uint256",
          "name": "disputeCount",
          "type": "uint256"
        },
        {
          "internalType": "uint256",
          "name": "successfulRentals",
          "type": "uint256"
        }
      ],
      "stateMutability": "view",
      "type": "function"
    }
  ],
  "bytecode": "0x60803461009d57601f610f0138819003918201601f19168301916001600160401b038311848410176100a257808492604094855283398101031261009d57610052602061004b836100b8565b92016100b8565b9060018060a01b0319913383600654161760065560018060a01b03809216836004541617600455169060055416176005556201518060085542600955604051610e3490816100cd8239f35b600080fd5b634e487b7160e01b600052604160045260246000fd5b51906001600160a01b038216820361009d5756fe6040608081526004908136101561001557600080fd5b600091823560e01c90816303a9176214610b2b5781630749ca3e14610b0057816307d0413c14610ae1578163254129a314610a8457816326b703a714610a5c57816351858e2714610a2d57816358de7297146109f557816362dad5c314610740578163664fc5bd146106d6578163764e57fe146106a75781638598bcc41461056b578163886e1044146105425781638a65d874146104b6578163a508b921146103ac578163b040daee146102ce578163b5c21510146102a6578163cd931e401461023a578163e767b6ef1461017157508063ed2655cf14610153578063f851a4401461012b5763fb861ac11461010a57600080fd5b346101275781600319360112610127576020906009549051908152f35b5080fd5b503461012757816003193601126101275760065490516001600160a01b039091168152602090f35b50346101275781600319360112610127576020906007549051908152f35b83833461012757816003193601126101275761018b610c7d565b91600a808452610140906020928236858801376101a6610c7d565b928284523685850137805b8281106101e457505050906101e0916101d38451958587968752860190610c13565b9184830390850152610c13565b0390f35b6103e8808202908282041482151715610227579061022291610206828a610d9c565b52808352600386528683205461021c8287610d9c565b52610d3f565b6101b1565b634e487b7160e01b835260118952602483fd5b919050346102a25736600319011261012757610254610d06565b6024356001600160a01b03818116939184900361029e5761027a81600654163314610dc6565b6bffffffffffffffffffffffff60a01b921682825416179055600554161760055580f35b8480fd5b8280fd5b9050346102a25760203660031901126102a25760209282913581526003845220549051908152f35b919050346102a25760603660031901126102a2576102ea610d06565b9060243567ffffffffffffffff811161029e5760206060936103337f8f8ef30e9b0f21e3357aedef2bd0475931edee61d9ad4eedbd92ec2207b41c5e9661036594369101610c9e565b6001600160a01b039091168752868252838720805461035190610d3f565b905581845193828580945193849201610b7f565b810160028152030190206103798154610d3f565b90556103e860443504845260036020528084206103968154610d3f565b905583815191818352816020840152820152a180f35b5050346101275760a0366003190112610127576103c7610d06565b60243580151581036104b257604435906064359384151585036104ae5760843580151581036104aa577f4b6c7abacb75992cc13ad43ffe4479dac5f7be91202f5fbb108eb1af8d56ed629560609560018060a01b03169485895288602052838920946000146104995761043f60038601918254610d1c565b9055610484575b61046f575b600182019161045a8354610d3f565b8093555481519384526020840152820152a180f35b6005820161047d8154610d3f565b905561044b565b600683016104928154610d3f565b9055610446565b905061049260028501918254610d1c565b8680fd5b8580fd5b8380fd5b82843461053f57602036600319011261053f576101e09082906001600160a01b036104df610d06565b168152806020522091825492600181015494600282015490600383015490830154916006600585015494015494519788978893909796959260c0959260e08601998652602086015260408501526060840152608083015260a08201520152565b80fd5b50503461012757816003193601126101275760055490516001600160a01b039091168152602090f35b838334610127576020366003190112610127576001600160a01b0361058e610d06565b168252816020528082209060018201549283151590816000146106a15760058401546127109081810291818304149015171561068e57856105ce91610d4e565b905b82156106805760068501546127109081810291818304149015171561066d57866101e09697985061060091610d4e565b925b1561066757506106248661061f6003880154600289015490610d1c565b610d4e565b925b8554956003600282015491015491519788978893909796959260c0959260e08601998652602086015260408501526060840152608083015260a08201520152565b92610626565b634e487b7160e01b825260118852602482fd5b6101e0949596508092610602565b634e487b7160e01b825260118752602482fd5b806105d0565b839034610127576020366003190112610127576106cf60018060a01b03600654163314610dc6565b3560085580f35b505034610127578160031936011261012757610722906106f4610c47565b906005825260a0366020840137611d4c61073061070f610d6e565b8351958695608087526080870190610c13565b908582036020870152610ba2565b9183015261213460608301520390f35b83833461012757816003193601126101275761076160095460085490610d1c565b42106109c85760075461077381610d3f565b600755808352600193602090858252838520426003820155610793610c7d565b600a8152838101926101409182368637519367ffffffffffffffff948581116109b55768010000000000000000918282116109a257855482875580831061097b575b50858b52878b208c8c5b8481106109695750505050506107f3610c7d565b600a815286810190843683378b860190519187831161095657838311610956578154838355838a8e838310610927575b50505050908b52878b208c8c5b8481106109155750505050506002610846610c7d565b94600a8652878601943686370193519485116109025784116108ef575081548383558084106108c8575b50908652828620865b8381106108b757877f2ef70149803d0100afae7852c0fba62f17434ee8c76252b95586eb50d45c57668888884260095582519182524290820152a180f35b825182820155918401918801610879565b8288528884868a2092830192015b8281106108e4575050610870565b8981550189906108d6565b634e487b7160e01b885260419052602487fd5b634e487b7160e01b895260418252602489fd5b8a845194019381840155018d90610830565b8590525050898d20908101908e9085018e5b83821061094b578692508c9150610823565b8155018e908e610939565b634e487b7160e01b8c526041855260248cfd5b8a845194019381840155018d906107df565b8c838a8e8a81522092830192015b8281106109975750506107d5565b8d8155018d90610989565b634e487b7160e01b8b526041845260248bfd5b634e487b7160e01b8a526041835260248afd5b5162461bcd60e51b815260208184015260086024820152672a37b79039b7b7b760c11b6044820152606490fd5b5050346101275781600319360112610127578160c09282519281845281602085015283015280606083015280608083015260a0820152f35b833461053f578060031936011261053f57610a5360018060a01b03600654163314610dc6565b60001960085580f35b9050346102a257826003193601126102a2575490516001600160a01b03909116815260209150f35b82843461053f57602036600319011261053f5782359067ffffffffffffffff821161053f57506020610abd8194610acf93369101610c9e565b81845193828580945193849201610b7f565b81016002815203019020549051908152f35b5050346101275781600319360112610127576020906008549051908152f35b9050346102a25760203660031901126102a25781602093600392358152600185522001549051908152f35b82843461053f578060031936011261053f5750610b46610d6e565b906101e0610b52610c47565b6005815260a0366020830137610b718351948486958652850190610ba2565b908382036020850152610c13565b60005b838110610b925750506000910152565b8181015183820152602001610b82565b908082519081815260208091019281808460051b8301019501936000915b848310610bd05750505050505090565b909192939495848080600193601f1980878303018852601f8c51610bff81518092818752878088019101610b7f565b011601019801930193019194939290610bc0565b90815180825260208080930193019160005b828110610c33575050505090565b835185529381019392810192600101610c25565b6040519060c0820182811067ffffffffffffffff821117610c6757604052565b634e487b7160e01b600052604160045260246000fd5b60405190610160820182811067ffffffffffffffff821117610c6757604052565b81601f82011215610d015780359067ffffffffffffffff92838311610c675760405193601f8401601f19908116603f0116850190811185821017610c675760405282845260208383010111610d0157816000926020809301838601378301015290565b600080fd5b600435906001600160a01b0382168203610d0157565b91908201809211610d2957565b634e487b7160e01b600052601160045260246000fd5b6000198114610d295760010190565b8115610d58570490565b634e487b7160e01b600052601260045260246000fd5b610d76610c47565b90600582528160005b60a08110610d8b575050565b806060602080938501015201610d7f565b8051821015610db05760209160051b010190565b634e487b7160e01b600052603260045260246000fd5b15610dcd57565b60405162461bcd60e51b81526020600482015260096024820152682737ba1030b236b4b760b91b6044820152606490fdfea26469706673582212209f781f0ca0dc6460fe4f38795fa9ffe48de14987e100446623bea182974fe8ed64736f6c63430008130033",
  "linkReferences": {},
  "deployedLinkReferences": {}
}