{
  "_format": "hh-sol-artifact-1",
  "contractName": "RentChainNFT",
  "sourceName": "contracts/RentChainNFT.sol",
  "abi": [
    {
      "inputs": [
        {
          "internalType": "address",
          "name": "_propertyRegistry",
          "type": "address"
        }
      ],
      "stateMutability": "nonpayable",
      "type": "constructor"
    },
    {
      "anonymous": false,
      "inputs": [
        {
          "indexed": true,
          "internalType": "uint256",
          "name": "tokenId",
          "type": "uint256"
        },
        {
          "indexed": true,
          "internalType": "uint256",
          "name": "propertyId",
          "type": "uint256"
        },
        {
          "indexed": false,
          "internalType": "address",
          "name": "owner",
          "type": "address"
        }
      ],
      "name": "PropertyNFTMinted",
      "type": "event"
    },
    {
      "anonymous": false,
      "inputs": [
        {
          "indexed": true,
          "internalType": "uint256",
          "name": "tokenId",
          "type": "uint256"
        },
        {
          "indexed": false,
          "internalType": "address",
          "name": "from",
          "type": "address"
        },
        {
          "indexed": false,
          "internalType": "address",
          "name": "to",
          "type": "address"
        }
      ],
      "name": "PropertyNFTTransferred",
      "type": "event"
    },
    {
      "anonymous": false,
      "inputs": [
        {
          "indexed": false,
          "internalType": "address",
          "name": "newRegistry",
          "type": "address"
        }
      ],
      "name": "PropertyRegistryUpdated",
      "type": "event"
    },
    {
      "inputs": [],
      "name": "admin",
      "outputs": [
        {
          "internalType": "address",
          "name": "",
          "type": "address"
        }
      ],
      "stateMutability": "view",
      "type": "function"
    },
    {
      "inputs": [
        {
          "internalType": "address",
          "name": "owner",
          "type": "address"
        }
      ],
      "name": "balanceOf",
      "outputs": [
        {
          "internalType": "uint256",
          "name": "",
          "type": "uint256"
        }
      ],
      "stateMutability": "view",
      "type": "function"
    },
    {
      "inputs": [
        {
          "internalType": "uint256[]",
          "name": "propertyIds",
          "type": "uint256[]"
        },
        {
          "internalType": "string[]",
          "name": "tokenURIs",
          "type": "string[]"
        }
      ],
      "name": "batchMintNFTs",
      "outputs": [],
      "stateMutability": "nonpayable",
      "type": "function"
    },
    {
      "inputs": [
        {
          "internalType": "address",
          "name": "owner",
          "type": "address"
        }
      ],
      "name": "getOwnerTokens",
      "outputs": [
        {
          "internalType": "uint256[]",
          "name": "",
          "type": "uint256[]"
        }
      ],
      "stateMutability": "view",
      "type": "function"
    },
    {
      "inputs": [
        {
          "internalType": "uint256",
          "name": "propertyId",
          "type": "uint256"
        }
      ],
      "name": "getPropertyOwner",
      "outputs": [
        {
          "internalType": "address",
          "name": "",
          "type": "address"
        }
      ],
      "stateMutability": "view",
      "type": "function"
    },
    {
      "inputs": [
        {
          "internalType": "uint256",
          "name": "propertyId",
          "type": "uint256"
        }
      ],
      "name": "getTokenByProperty",
      "outputs": [
        {
          "internalType": "uint256",
          "name": "",
          "type": "uint256"
        }
      ],
      "stateMutability": "view",
      "type": "function"
    },
    {
      "inputs": [
        {
          "internalType": "uint256",
          "name": "tokenId",
          "type": "uint256"
        }
      ],
      "name": "getTokenInfo",
      "outputs": [
        {
          "internalType": "uint256",
          "name": "propertyId",
          "type": "uint256"
        },
        {
          "internalType": "address",
          "name": "owner",
          "type": "address"
        },
        {
          "internalType": "uint256",
          "name": "mintedAt",
          "type": "uint256"
        },
        {
          "internalType": "string",
          "name": "tokenURI",
          "type": "string"
        }
      ],
      "stateMutability": "view",
      "type": "function"
    },
    {
      "inputs": [
        {
          "internalType": "uint256",
          "name": "propertyId",
          "type": "uint256"
        },
        {
          "internalType": "string",
          "name": "tokenURI",
          "type": "string"
        }
      ],
      "name": "mintPropertyNFT",
      "outputs": [
        {
          "internalType": "uint256",
          "name": "",
          "type": "uint256"
        }
      ],
      "stateMutability": "nonpayable",
      "type": "function"
    },
    {
      "inputs": [],
      "name": "name",
      "outputs": [
        {
          "internalType": "string",
          "name": "",
          "type": "string"
        }
      ],
      "stateMutability": "view",
      "type": "function"
    },
    {
      "inputs": [],
      "name": "nextTokenId",
      "outputs": [
        {
          "internalType": "uint256",
          "name": "",
          "type": "uint256"
        }
      ],
      "stateMutability": "view",
      "type": "function"
    },
    {
      "inputs": [
        {
          "internalType": "uint256",
          "name": "tokenId",
          "type": "uint256"
        }
      ],
      "name": "ownerOf",
      "outputs": [
        {
          "internalType": "address",
          "name": "",
          "type": "address"
        }
      ],
      "stateMutability": "view",
      "type": "function"
    },
    {
      "inputs": [
        {
          "internalType": "address",
          "name": "",
          "type": "address"
        },
        {
          "internalType": "uint256",
          "name": "",
          "type": "uint256"
        }
      ],
      "name": "ownerTokens",
      "outputs": [
        {
          "internalType": "uint256",
          "name": "",
          "type": "uint256"
        }
      ],
      "stateMutability": "view",
      "type": "function"
    },
    {
      "inputs": [
        {
          "internalType": "uint256",
          "name": "",
          "type": "uint256"
        }
      ],
      "name": "propertyNFTs",
      "outputs": [
        {
          "internalType": "uint256",
          "name": "propertyId",
          "type": "uint256"
        },
        {
          "internalType": "address",
          "name": "owner",
          "type": "address"
        },
        {
          "internalType": "uint256",
          "name": "mintedAt",
          "type": "uint256"
        },
        {
          "internalType": "string",
          "name": "tokenURI",
          "type": "string"
        }
      ],
      "stateMutability": "view",
      "type": "function"
    },
    {
      "inputs": [],
      "name": "propertyRegistry",
      "outputs": [
        {
          "internalType": "address",
          "name": "",
          "type": "address"
        }
      ],
      "stateMutability": "view",
      "type": "function"
    },
    {
      "inputs": [
        {
          "internalType": "uint256",
          "name": "",
          "type": "uint256"
        }
      ],
      "name": "propertyToTokenId",
      "outputs": [
        {
          "internalType": "uint256",
          "name": "",
          "type": "uint256"
        }
      ],
      "stateMutability": "view",
      "type": "function"
    },
    {
      "inputs": [
        {
          "internalType": "address",
          "name": "newRegistry",
          "type": "address"
        }
      ],
      "name": "setPropertyRegistry",
      "outputs": [],
      "stateMutability": "nonpayable",
      "type": "function"
    },
    {
      "inputs": [],
      "name": "symbol",
      "outputs": [
        {
          "internalType": "string",
          "name": "",
          "type": "string"
        }
      ],
      "stateMutability": "view",
      "type": "function"
    },
    {
      "inputs": [
        {
          "internalType": "uint256",
          "name": "tokenId",
          "type": "uint256"
        }
      ],
      "name": "tokenURI",
      "outputs": [
        {
          "internalType": "string",
          "name": "",
          "type": "string"
        }
      ],
      "stateMutability": "view",
      "type": "function"
    },
    {
      "inputs": [
        {
          "internalType": "uint256",
          "name": "tokenId",
          "type": "uint256"
        },
        {
          "internalType": "address",
          "name": "to",
          "type": "address"
        }
      ],
      "name": "transferPropertyNFT",
      "outputs": [],
      "stateMutability": "nonpayable",
      "type": "function"
    }
  ],
  "bytecode": "0x60803461007a57601f61108e38819003918201601f19168301916001600160401b0383118484101761007f5780849260209460405283398101031261007a57516001600160a01b0381169081900361007a5760018060a01b0319338160045416176004556005541617600555604051610ff890816100968239f35b600080fd5b634e487b7160e01b600052604160045260246000fdfe6080604081815260048036101561001557600080fd5b600092833560e01c90816306fdde03146108605750806326b703a71461083757806328b60031146107e157806334159c87146105fb5780633565578f146101ff5780635d6c8a7d146105a35780636352211e1461057057806370a082311461053857806375794a3c146105195780638c7a63ae1461048457806395d89b41146104d2578063c4a20f8114610484578063c87b56dd14610442578063ca12d645146102d3578063d63d4af014610226578063d998861f146101ff578063e34fc531146101cb578063eed00d3d1461011e5763f851a440146100f457600080fd5b3461011a578260031936011261011a575490516001600160a01b03909116815260209150f35b8280fd5b508290346101c75760203660031901126101c75761013a61096e565b81546001600160a01b039290831633036101985750837f2f54be6210413baf14188545a8ba758a6deb74047e8ec0dec42a17632b95672a926020921690816bffffffffffffffffffffffff60a01b600554161760055551908152a180f35b606490602086519162461bcd60e51b835282015260096024820152682737ba1030b236b4b760b91b6044820152fd5b5080fd5b5091346101fc5760203660031901126101fc57506101eb60209235610e8b565b90516001600160a01b039091168152f35b80fd5b503461011a57602036600319011261011a5760209282913581526001845220549051908152f35b8284346101fc57602090816003193601126101fc5782906001600160a01b0361024d61096e565b16815260028352818120908251808584549182815201908194845286842090845b8181106102bf57505050816102849103826108e8565b83519485948186019282875251809352850193925b8281106102a857505050500390f35b835185528695509381019392810192600101610299565b82548452928801926001928301920161026e565b50903461011a578060031936011261011a5767ffffffffffffffff823581811161043e576103049036908501610afc565b6024939193803584811161043a5761031f9036908801610afc565b96909287810361040857885b818110610336578980f35b61034181838a610fb2565b358a5260209060018252868b205415806103e3575b61036a575b6103659150610dfc565b61032b565b61037581848b610fb2565b358a8210156103d1578160051b870135601e19883603018112156103c9578701928335938a85116103cd57019083360382136103c9576103bd6103c3926103659536916109b7565b90610b2d565b5061035b565b8c80fd5b8d80fd5b634e487b7160e01b8c5260328552858cfd5b506103f86103f282858c610fb2565b35610e8b565b6001600160a01b03163314610356565b50600d606492602086519362461bcd60e51b85528401528201526c125b9d985b1a59081a5b9c1d5d609a1b6044820152fd5b8780fd5b8480fd5b503461011a57602036600319011261011a576003826104809461046d93358152806020522001610a56565b9051918291602083526020830190610949565b0390f35b503461011a57602036600319011261011a5791819235815280602052209061048082549160018060a01b03600185015416936104c7600360028301549201610a56565b9151948594856109ee565b5050346101c757816003193601126101c7578051610480916104f3826108b6565b60078252661491539513919560ca1b602083015251918291602083526020830190610949565b5050346101c757816003193601126101c7576020906003549051908152f35b5050346101c75760203660031901126101c75760209181906001600160a01b0361056061096e565b1681526002845220549051908152f35b503461011a57602036600319011261011a573582526020828152918190206001015490516001600160a01b039091168152f35b5091346101fc57816003193601126101fc576024359067ffffffffffffffff82116101fc57366023830112156101fc57506020926105ed6105f492369060248185013591016109b7565b9035610b2d565b9051908152f35b509190346101c757806003193601126101c7578235906001600160a01b03602480358281169291908390036107dd578486528560205260019182858820019081549033908216036107ab576001600160a01b0319168417905533865260026020528386209086835b6106b0575b87877f6496aa2ccdc5c06c8c0f60f74e1d1209750548b133fdb6911ca3bae01f2fab80888880855260026020526106a184838720610e21565b8151903382526020820152a280f35b8254808210156107a55787906106c68386610989565b929054600393841b1c146106e55750506106df90610dfc565b83610663565b909450600019929190838101908111610793579061071661070961072f9387610989565b905490881b1c9186610989565b90919082549060031b91821b91600019901b1916179055565b8254988915610782575050807f6496aa2ccdc5c06c8c0f60f74e1d1209750548b133fdb6911ca3bae01f2fab80969798019261076b8484610989565b81939154921b1b1916905555849392388080610668565b634e487b7160e01b89526031905287fd5b634e487b7160e01b8a5260118b52828afd5b50610668565b855162461bcd60e51b81526020818b0152600d818501526c2737ba1027232a1037bbb732b960991b6044820152606490fd5b8580fd5b5050346101c757806003193601126101c7576107fb61096e565b6001600160a01b031682526002602052808220805460243593908410156101fc575060209261082991610989565b91905490519160031b1c8152f35b5050346101c757816003193601126101c75760055490516001600160a01b039091168152602090f35b8490843461011a578260031936011261011a576104809250610881826108b6565b601682527514995b9d10da185a5b88141c9bdc195c9d1e4813919560521b602083015251918291602083526020830190610949565b6040810190811067ffffffffffffffff8211176108d257604052565b634e487b7160e01b600052604160045260246000fd5b90601f8019910116810190811067ffffffffffffffff8211176108d257604052565b67ffffffffffffffff81116108d257601f01601f191660200190565b60005b8381106109395750506000910152565b8181015183820152602001610929565b9060209161096281518092818552858086019101610926565b601f01601f1916010190565b600435906001600160a01b038216820361098457565b600080fd5b80548210156109a15760005260206000200190600090565b634e487b7160e01b600052603260045260246000fd5b9291926109c38261090a565b916109d160405193846108e8565b829481845281830111610984578281602093846000960137010152565b9092608092610a199594835260018060a01b0316602083015260408201528160608201520190610949565b90565b90600182811c92168015610a4c575b6020831014610a3657565b634e487b7160e01b600052602260045260246000fd5b91607f1691610a2b565b9060405191826000825492610a6a84610a1c565b908184526001948581169081600014610ad95750600114610a96575b5050610a94925003836108e8565b565b9093915060005260209081600020936000915b818310610ac1575050610a9493508201013880610a86565b85548884018501529485019487945091830191610aa9565b915050610a9494506020925060ff191682840152151560051b8201013880610a86565b9181601f840112156109845782359167ffffffffffffffff8311610984576020808501948460051b01011161098457565b6001600160a01b0380610b3f83610e8b565b163303610dc2576000828152600160209181835260409182822054610d895760035496610b6b88610dfc565b600355835167ffffffffffffffff966080820188811183821017610d75579060039291875289825287820133815287830191428352606084019586528c8852878a52888820935184558684019151166bffffffffffffffffffffffff60a01b8254161790555160028201550190518051968711610d615790889594939291610bf38254610a1c565b601f8111610d0a575b508590601f8911600114610c7d5792859289899a87947f4c2110845ce576c58bd955d5e05fc8d7f9a358bde030babb14689c37a8ed65139b97610c6a9992610c72575b5050600019600383901b1c191690831b1790555b898252865282828220553381526002865220610e21565b51338152a390565b015190503880610c3f565b828552868520989190601f198316865b818110610cf2575094838a9b82948a9794610c6a9a977f4c2110845ce576c58bd955d5e05fc8d7f9a358bde030babb14689c37a8ed65139e9a10610cd9575b505050811b019055610c53565b015160001960f88460031b161c19169055388080610ccc565b838301518c559a86019a8d9a50928901928901610c8d565b9091848194959697985052868520601f890160051c810191888a10610d57575b90601f8c99989796959493920160051c01905b818110610d4a5750610bfc565b8581558b98508401610d3d565b9091508190610d2a565b634e487b7160e01b84526041600452602484fd5b634e487b7160e01b86526041600452602486fd5b825162461bcd60e51b815260048101859052601260248201527113919508185b1c9958591e481b5a5b9d195960721b6044820152606490fd5b60405162461bcd60e51b81526020600482015260126024820152712737ba10383937b832b93a3c9037bbb732b960711b6044820152606490fd5b6000198114610e0b5760010190565b634e487b7160e01b600052601160045260246000fd5b90815491680100000000000000008310156108d25782610716916001610a9495018155610989565b81601f82011215610984578051610e5f8161090a565b92610e6d60405194856108e8565b8184526020828401011161098457610a199160208085019101610926565b600554604051631ef6210160e31b60208083019182526024808401959095529382526001600160a01b0393928416929167ffffffffffffffff919060608101838111828210176108d2576040526000948592839251915afa913d15610faa573d92610ef58461090a565b93610f0360405195866108e8565b84523d858386013e5b80610fa0575b610f1e57505050905090565b825183019160e08483850194031261043e578184015195861680960361043e5760408401518181116107dd578383610f5892870101610e49565b5060808401518181116107dd578383610f7392870101610e49565b5060a084015190811161043e5791610f9191849360c0950101610e49565b500151801515036101fc575090565b5082511515610f12565b606092610f0c565b91908110156109a15760051b019056fea2646970667358221220a5a8cb3b760d31ec938c2ea715817f7d63d765782fd80ec8d8d7a03c9e11e3f164736f6c63430008130033",
  "linkReferences": {},
  "deployedLinkReferences": {}
}