{
  "_format": "hh-sol-artifact-1",
  "contractName": "RentChainFinal",
  "sourceName": "contracts/RentChainFinal.sol",
  "abi": [
    {
      "inputs": [],
      "stateMutability": "nonpayable",
      "type": "constructor"
    },
    {
      "anonymous": false,
      "inputs": [
        {
          "indexed": false,
          "internalType": "string",
          "name": "reason",
          "type": "string"
        }
      ],
      "name": "EmergencyTriggered",
      "type": "event"
    },
    {
      "anonymous": false,
      "inputs": [
        {
          "indexed": false,
          "internalType": "address",
          "name": "main",
          "type": "address"
        },
        {
          "indexed": false,
          "internalType": "address",
          "name": "treasury",
          "type": "address"
        },
        {
          "indexed": false,
          "internalType": "address",
          "name": "compliance",
          "type": "address"
        },
        {
          "indexed": false,
          "internalType": "address",
          "name": "integration",
          "type": "address"
        }
      ],
      "name": "SystemFullyDeployed",
      "type": "event"
    },
    {
      "anonymous": false,
      "inputs": [],
      "name": "SystemRecovered",
      "type": "event"
    },
    {
      "anonymous": false,
      "inputs": [
        {
          "indexed": false,
          "internalType": "string",
          "name": "component",
          "type": "string"
        },
        {
          "indexed": false,
          "internalType": "address",
          "name": "newAddress",
          "type": "address"
        }
      ],
      "name": "SystemUpgraded",
      "type": "event"
    },
    {
      "inputs": [
        {
          "internalType": "address[]",
          "name": "users",
          "type": "address[]"
        },
        {
          "internalType": "uint256[]",
          "name": "operations",
          "type": "uint256[]"
        }
      ],
      "name": "batchOperations",
      "outputs": [],
      "stateMutability": "nonpayable",
      "type": "function"
    },
    {
      "inputs": [],
      "name": "complianceSystem",
      "outputs": [
        {
          "internalType": "contract RentChainCompliance",
          "name": "",
          "type": "address"
        }
      ],
      "stateMutability": "view",
      "type": "function"
    },
    {
      "inputs": [],
      "name": "deployCompleteSystem",
      "outputs": [],
      "stateMutability": "nonpayable",
      "type": "function"
    },
    {
      "inputs": [],
      "name": "deploymentTimestamp",
      "outputs": [
        {
          "internalType": "uint256",
          "name": "",
          "type": "uint256"
        }
      ],
      "stateMutability": "view",
      "type": "function"
    },
    {
      "inputs": [
        {
          "internalType": "string",
          "name": "reason",
          "type": "string"
        }
      ],
      "name": "emergencyShutdown",
      "outputs": [],
      "stateMutability": "nonpayable",
      "type": "function"
    },
    {
      "inputs": [],
      "name": "getCompleteSystemInfo",
      "outputs": [
        {
          "internalType": "address",
          "name": "systemOwnerAddress",
          "type": "address"
        },
        {
          "internalType": "uint256",
          "name": "deploymentTime",
          "type": "uint256"
        },
        {
          "internalType": "string",
          "name": "currentVersion",
          "type": "string"
        },
        {
          "internalType": "bool",
          "name": "systemActive",
          "type": "bool"
        },
        {
          "internalType": "uint256",
          "name": "totalProperties",
          "type": "uint256"
        },
        {
          "internalType": "uint256",
          "name": "totalAgreements",
          "type": "uint256"
        },
        {
          "internalType": "uint256",
          "name": "totalUsers",
          "type": "uint256"
        },
        {
          "internalType": "uint256",
          "name": "totalVolume",
          "type": "uint256"
        },
        {
          "internalType": "address",
          "name": "emergencySystemAddress",
          "type": "address"
        }
      ],
      "stateMutability": "view",
      "type": "function"
    },
    {
      "inputs": [],
      "name": "getSystemStatus",
      "outputs": [
        {
          "internalType": "bool",
          "name": "fullyDeployed",
          "type": "bool"
        },
        {
          "internalType": "uint256",
          "name": "deployTime",
          "type": "uint256"
        },
        {
          "internalType": "string",
          "name": "version",
          "type": "string"
        },
        {
          "internalType": "address",
          "name": "mainContract",
          "type": "address"
        },
        {
          "internalType": "address",
          "name": "treasuryContract",
          "type": "address"
        },
        {
          "internalType": "address",
          "name": "complianceContract",
          "type": "address"
        },
        {
          "internalType": "address",
          "name": "integrationContract",
          "type": "address"
        },
        {
          "internalType": "bool",
          "name": "mainActive",
          "type": "bool"
        },
        {
          "internalType": "bool",
          "name": "treasuryActive",
          "type": "bool"
        },
        {
          "internalType": "bool",
          "name": "complianceActive",
          "type": "bool"
        },
        {
          "internalType": "bool",
          "name": "integrationActive",
          "type": "bool"
        }
      ],
      "stateMutability": "view",
      "type": "function"
    },
    {
      "inputs": [],
      "name": "integrationSystem",
      "outputs": [
        {
          "internalType": "contract RentChainIntegration",
          "name": "",
          "type": "address"
        }
      ],
      "stateMutability": "view",
      "type": "function"
    },
    {
      "inputs": [],
      "name": "mainSystem",
      "outputs": [
        {
          "internalType": "contract RentChainMain",
          "name": "",
          "type": "address"
        }
      ],
      "stateMutability": "view",
      "type": "function"
    },
    {
      "inputs": [],
      "name": "resumeSystem",
      "outputs": [],
      "stateMutability": "nonpayable",
      "type": "function"
    },
    {
      "inputs": [],
      "name": "systemFullyDeployed",
      "outputs": [
        {
          "internalType": "bool",
          "name": "",
          "type": "bool"
        }
      ],
      "stateMutability": "view",
      "type": "function"
    },
    {
      "inputs": [],
      "name": "systemHealthCheck",
      "outputs": [
        {
          "internalType": "bool",
          "name": "healthy",
          "type": "bool"
        },
        {
          "internalType": "string",
          "name": "issues",
          "type": "string"
        }
      ],
      "stateMutability": "view",
      "type": "function"
    },
    {
      "inputs": [],
      "name": "systemOwner",
      "outputs": [
        {
          "internalType": "address",
          "name": "",
          "type": "address"
        }
      ],
      "stateMutability": "view",
      "type": "function"
    },
    {
      "inputs": [],
      "name": "systemVersion",
      "outputs": [
        {
          "internalType": "string",
          "name": "",
          "type": "string"
        }
      ],
      "stateMutability": "view",
      "type": "function"
    },
    {
      "inputs": [
        {
          "internalType": "address",
          "name": "newOwner",
          "type": "address"
        }
      ],
      "name": "transferOwnership",
      "outputs": [],
      "stateMutability": "nonpayable",
      "type": "function"
    },
    {
      "inputs": [],
      "name": "treasuryManager",
      "outputs": [
        {
          "internalType": "contract RentChainTreasuryManager",
          "name": "",
          "type": "address"
        }
      ],
      "stateMutability": "view",
      "type": "function"
    },
    {
      "inputs": [
        {
          "internalType": "string",
          "name": "component",
          "type": "string"
        },
        {
          "internalType": "address",
          "name": "newContract",
          "type": "address"
        }
      ],
      "name": "upgradeComponent",
      "outputs": [],
      "stateMutability": "nonpayable",
      "type": "function"
    },
    {
      "stateMutability": "payable",
      "type": "receive"
    }
  ],
  "bytecode": "0x608080604052346100cb57600480546001600160a01b031916331790554260055560065460019080821c90821680156100c1575b60208210146100ab57601f8111610062575b600a640312e302e360dc1b016006556201a12f8381620000d18239f35b6006600052601f0160051c7ff652222313e28459528d920b65115c16c04f3efc82aaedc97be59f3f377c0d3f908101905b8181106100a05750610045565b600081558201610093565b634e487b7160e01b600052602260045260246000fd5b90607f1690610033565b600080fdfe6080806040526004361015620000de575b5036156200001d57600080fd5b60ff60045460a01c1680620000c9575b6200003457005b600080808060018060a01b036001541634905af13d15620000c3573d6200005b816200153a565b906200006b604051928362001518565b8152600060203d92013e5b156200007e57005b60405162461bcd60e51b815260206004820152601b60248201527f5472616e7366657220746f207472656173757279206661696c656400000000006044820152606490fd5b62000076565b506001546001600160a01b031615156200002d565b600090813560e01c9081622066de146200145f57508063157c51d314620013ca5780631bb2ee0614620011f65780633377925414620011cb5780633cea70d914620011a057806350c1d19d146200109657806368db91681462000cc05780638c96cf631462000bd4578063bfc12c051462000bb4578063c0e8b8021462000b63578063cd03664f1462000a73578063ce692e1d1462000a4b578063d26369021462000a11578063db9c98b01462000297578063f2fde38b1462000208578063f664dfe014620001dd5763f8bedef503620000105734620001da5780600319360112620001da57546040516001600160a01b039091168152602090f35b80fd5b5034620001da5780600319360112620001da576003546040516001600160a01b039091168152602090f35b5034620001da576020366003190112620001da576004356001600160a01b03818116918290036200029257620002456004549182163314620016ce565b81156200025d576001600160a01b0319161760045580f35b60405162461bcd60e51b815260206004820152600d60248201526c24b73b30b634b21037bbb732b960991b6044820152606490fd5b600080fd5b5034620001da5780600319360112620001da5760045460ff90620002c6336001600160a01b03831614620016ce565b60a01c16620009cc57604051611927808201908282106001600160401b03831117620009ac579082916200b2888339039082f0908115620009c057604051610af4808201908282106001600160401b03831117620009ac5790829162013d8d8339039082f080156200090f57604051611724808201908282106001600160401b03831117620008fb57908291620189b68339039083f080156200085657604051611210808201908282106001600160401b038311176200099857908291620047448339039084f08015620008f0576040516111cc808201908282106001600160401b03831117620009845760209183916200595483396001600160a01b038516815203019085f080156200088257604051610b1d808201908282106001600160401b0383111762000970576020918391620029b683396001600160a01b038516815203019086f080156200096557604051611271808201908282106001600160401b038311176200093b57908291620034d38339039087f09182156200095a57604051611085808201908282106001600160401b038311176200091c57908291620019318339039088f09384156200094f5760405180610ef98101106001600160401b03610ef9830111176200093b57610ef962017abd823980610ef98101039089f0958615620009305760405197886138458101106001600160401b036138458b0111176200091c57613845620105488a396001600160a01b039081166138458a01908152918116602083015291821660408201529181166060830152918216608082015291811660a083015291821660c0820152911660e0820152819003610100019082f09182156200090f5781546001600160a01b03199081166001600160a01b039485161783556040519093919091169061323c808201906001600160401b03821183831017620008fb57602091839162014881833984815203019083f08015620008565760018060a01b0316836001541617600155604051614768808201908282106001600160401b03831117620008fb57602091839162006b20833984815203019083f08015620008565760018060a01b03168360025416176002556040519261399993848101948186106001600160401b03871117620008fb578185966020926200cbaf833985815203019084f08015620008f057600380549092166001600160a01b039182161790915560015460045482169116803b15620008615760405163671bf40760e11b81526001600160a01b0392909216600483018190526024830181905260448301819052606483015283908290608490829084905af1908115620008f0578391620008d5575b505081546001600160a01b0316813b156200087e5760405163179efb0960e01b918282526004820152838160248183875af190811562000882578491620008bd575b50506001546001600160a01b0316823b156200086157604051908282526004820152838160248183875af190811562000882578491620008a5575b50506002546001600160a01b0316823b156200086157604051908282526004820152838160248183875af1908115620008825784916200088d575b50506003546001600160a01b0316823b156200086157604051908282526004820152838160248183875af19081156200088257849162000866575b50506004546001600160a01b0316823b15620008615760248492836040519586948593845260048401525af1801562000856576200083e575b506004805460ff60a01b1916600160a01b1790558054600154600254600354604080516001600160a01b03958616815293851660208501529184169183019190915290911660608201527f1f302093cf2bffb32a9631b8ac124a63e44724b8c34d29a732e38844209b07799080608081015b0390a180f35b6200084990620014d2565b620001da578038620007c6565b6040513d84823e3d90fd5b505050fd5b6200087190620014d2565b6200087e5782386200078d565b5050fd5b6040513d86823e3d90fd5b6200089890620014d2565b6200087e57823862000752565b620008b090620014d2565b6200087e57823862000717565b620008c890620014d2565b6200087e578238620006dc565b620008e090620014d2565b620008ed5781386200069a565b50fd5b6040513d85823e3d90fd5b634e487b7160e01b85526041600452602485fd5b50604051903d90823e3d90fd5b634e487b7160e01b8a52604160045260248afd5b6040513d8a823e3d90fd5b634e487b7160e01b89526041600452602489fd5b6040513d89823e3d90fd5b6040513d88823e3d90fd5b6040513d87823e3d90fd5b634e487b7160e01b88526041600452602488fd5b634e487b7160e01b87526041600452602487fd5b634e487b7160e01b86526041600452602486fd5b634e487b7160e01b84526041600452602484fd5b604051903d90823e3d90fd5b60405162461bcd60e51b815260206004820152601760248201527f53797374656d20616c7265616479206465706c6f7965640000000000000000006044820152606490fd5b5034620001da5780600319360112620001da5762000a4762000a32620015d6565b604051918291602083526020830190620014ab565b0390f35b5034620001da5780600319360112620001da57602060ff60045460a01c166040519015158152f35b5034620001da576040366003190112620001da576001600160401b0360043581811162000b5f5762000aaa903690600401620015a3565b916024359150811162000b5f5762000ac7903690600401620015a3565b91905062000ae160018060a01b03600454163314620016ce565b0362000b2a576000805160206201a0da833981519152608060405160408152601060408201526f62617463685f6f7065726174696f6e7360801b6060820152836020820152a180f35b60405162461bcd60e51b815260206004820152600d60248201526c125b9d985b1a59081a5b9c1d5d609a1b6044820152606490fd5b8280fd5b5034620001da5780600319360112620001da5762000b8960ff60045460a01c1662001728565b62000b9362001775565b9062000a4760405192839215158352604060208401526040830190620014ab565b5034620001da5780600319360112620001da576020600554604051908152f35b5034620001da576020366003190112620001da576004356001600160401b03811162000cbc5762000c0a90369060040162001556565b8160018060a01b0362000c2381600454163314620016ce565b815416803b1562000cbc57816040518092638c96cf6360e01b82526020600483015281838162000c57602482018a620014ab565b03925af18015620008565762000ca4575b507f61de75611a1ecb67963a7f93ee116047ae0a70d34c713379ab401329b4be68386200083883604051918291602083526020830190620014ab565b62000caf90620014d2565b62000cbc57813862000c68565b5080fd5b5034620001da576040366003190112620001da576004356001600160401b03811162000cbc5762000cf690369060040162001556565b6001600160a01b0360243581811691828203620002925760ff62000d309162000d266004549182163314620016ce565b60a01c1662001728565b811562001051573b156200101b576040519062000d4d82620014fc565b60048252602091828101906336b0b4b760e11b82526040519184830186519362000d918782818b019762000d8381878b62001486565b810103808452018262001518565b5190209162000db386604051809362000d838383019687925192839162001486565b5190200362000e05575083546001600160a01b031916811784556000805160206201a0da8339815191529262000dfb9290915b604051938493604085526040850190620014ab565b918301520390a180f35b60405162000e1381620014fc565b6008815283810167747265617375727960c01b81526040518581019062000e4487828a5162000d8381878b62001486565b5190209162000e6686604051809362000d838383019687925192839162001486565b5190200362000ea157509162000dfb91836000805160206201a0da833981519152946001600160601b0360a01b600154161760015562000de6565b60405162000eaf81620014fc565b600a815283810169636f6d706c69616e636560b01b81526040518581019062000ee287828a5162000d8381878b62001486565b5190209162000f0486604051809362000d838383019687925192839162001486565b5190200362000f3f57509162000dfb91836000805160206201a0da833981519152946001600160601b0360a01b600254161760025562000de6565b6040519062000f4e82620014fc565b600b825262000d83848301916a34b73a32b3b930ba34b7b760a91b835262000f868660405180938282019586918c5192839162001486565b5190209162000fa885604051809362000d838383019687925192839162001486565b5190200362000fe2579162000dfb91836000805160206201a0da833981519152946001600160601b0360a01b600354161760035562000de6565b60405162461bcd60e51b8152600481018390526011602482015270125b9d985b1a590818dbdb5c1bdb995b9d607a1b6044820152606490fd5b60405162461bcd60e51b815260206004820152600e60248201526d139bdd08184818dbdb9d1c9858dd60921b6044820152606490fd5b60405162461bcd60e51b815260206004820152601860248201527f496e76616c696420636f6e7472616374206164647265737300000000000000006044820152606490fd5b5034620001da5780600319360112620001da5760045460055460018060a01b03908184541691806001541690806002541690600354169160405193633431d5c960e01b8552602085600481895afa948515620009305760ff989562001164575b506200112c9062001106620015d6565b90604051998a9960a01c161515895260208901526101608060408a0152880190620014ab565b946060870152608086015260a085015260c0840152151560e08301526001610100830152600161012083015260016101408301520390f35b6200112c919550620011909060203d811162001198575b62001187818362001518565b8101906200170e565b9490620010f6565b503d6200117b565b5034620001da5780600319360112620001da576001546040516001600160a01b039091168152602090f35b5034620001da5780600319360112620001da576004546040516001600160a01b039091168152602090f35b5034620001da5780600319360112620001da576004546200121d60ff8260a01c1662001728565b815460405163d1ce59a760e01b81526001600160a01b03929183169060e081600481855afa801562000965578591868791889362001377575b506005549360405194633431d5c960e01b86526020998a876004818b5afa9687156200090f578b90829862001352575b506040516326d4468560e01b81529798889060049082905afa9687156200090f5781976200130c575b50508899620012e591620012c69a98999a620015d6565b916040519c8d9c168c528b01526101208060408c01528a0190620014ab565b9615156060890152608088015260a087015260c086015260e0850152166101008301520390f35b909196508a81813d83116200134a575b62001328818362001518565b8101031262000cbc5751908982168203620001da57509489620012e5620012af565b503d6200131c565b600498506200137090823d8411620011985762001187818362001518565b9762001286565b935050505060e0813d60e011620013c1575b816200139860e0938362001518565b81010312620013bd578051602082015160408301516060909301519192903862001256565b8480fd5b3d915062001389565b5034620001da5780600319360112620001da578060018060a01b03620013f681600454163314620016ce565b815416803b15620008ed57819060046040518094819363157c51d360e01b83525af1801562000856576200144d575b507f3b35b5f40438154b24d431a3cb7319dfeee23feb7fda1347a66fbd1571cb2ad38180a180f35b6200145890620014d2565b3862001425565b90503462000cbc578160031936011262000cbc576002546001600160a01b03168152602090f35b60005b8381106200149a5750506000910152565b818101518382015260200162001489565b90602091620014c68151809281855285808601910162001486565b601f01601f1916010190565b6001600160401b038111620014e657604052565b634e487b7160e01b600052604160045260246000fd5b604081019081106001600160401b03821117620014e657604052565b90601f801991011681019081106001600160401b03821117620014e657604052565b6001600160401b038111620014e657601f01601f191660200190565b81601f82011215620002925780359062001570826200153a565b9262001580604051948562001518565b828452602083830101116200029257816000926020809301838601378301015290565b9181601f8401121562000292578235916001600160401b03831162000292576020808501948460051b0101116200029257565b60405190600060065490600182811c90808416938415620016c3575b6020948584108114620016af57838852879493929181156200168d57506001146200162a575b5050620016289250038362001518565b565b9093915060066000527ff652222313e28459528d920b65115c16c04f3efc82aaedc97be59f3f377c0d3f936000915b81831062001674575050620016289350820101388062001618565b8554888401850152948501948794509183019162001659565b9150506200162894925060ff191682840152151560051b820101388062001618565b634e487b7160e01b85526022600452602485fd5b91607f1691620015f2565b15620016d657565b60405162461bcd60e51b815260206004820152601060248201526f2737ba1039bcb9ba32b69037bbb732b960811b6044820152606490fd5b908160209103126200029257518015158103620002925790565b156200173057565b60405162461bcd60e51b815260206004820152601960248201527f53797374656d206e6f742066756c6c79206465706c6f796564000000000000006044820152606490fd5b6000805460408051633431d5c960e01b81529093926020929091906001600160a01b039084908390600490829085165afa9182156200192657839262001902575b508060015416158160025416159160035416159215620018cc57620018905762001855576200181b57507f416c6c2073797374656d73206f7065726174696f6e616c00000000000000000060019351916200181183620014fc565b6017835282015290565b7f496e746567726174696f6e2073797374656d206e6f74206465706c6f79656400909351916200184b83620014fc565b601f835282015290565b507f436f6d706c69616e63652073797374656d206e6f74206465706c6f7965640000909351916200188683620014fc565b601e835282015290565b50507f54726561737572792073797374656d206e6f74206465706c6f7965640000000090935191620018c283620014fc565b601c835282015290565b505050754d61696e2073797374656d206e6f742061637469766560501b90935191620018f883620014fc565b6016835282015290565b6200191e919250843d8611620011985762001187818362001518565b9038620017b6565b86513d85823e3d90fdfe60808060405234610040573360018060a01b031960035416176003553360005260016020526040600020600160ff1982541617905561103f90816100468239f35b600080fdfe6080604052600436101561001257600080fd5b60003560e01c806301fabd7514610c6d57806303a09d1814610b2d5780630db3993414610b0f578063345565dc146106b257806351d0ea3714610673578063564a565d14610578578063973ad27014610503578063bfb0a55b146103dc578063d077a4f814610289578063df02935c146101a8578063e0338b63146100ce5763f851a440146100a057600080fd5b346100c95760003660031901126100c9576003546040516001600160a01b039091168152602090f35b600080fd5b346100c95760203660031901126100c95760043533600052600160205260ff604060002054168015610194575b61010490610f20565b80600052600060205260ff60056040600020015416600481101561017e576101465760005260006020526005604060002001600160ff19825416179055600080f35b60405162461bcd60e51b815260206004820152601060248201526f2234b9b83aba32903737ba1037b832b760811b6044820152606490fd5b634e487b7160e01b600052602160045260246000fd5b506003546001600160a01b031633146100fb565b346100c9576020806003193601126100c957600435600081815280835260409020600101549091906001600160a01b0316330361025057816000526000815260ff60056040600020015416600481101561017e5761021c57600091825281905260409020600501805460ff19166003179055005b6064906040519062461bcd60e51b82526004820152600d60248201526c10d85b9b9bdd0818d85b98d95b609a1b6044820152fd5b6064906040519062461bcd60e51b8252600482015260126024820152712737ba103234b9b83aba32903930b4b9b2b960711b6044820152fd5b346100c95760803660031901126100c95760043560243560038110156100c9573360005260206001815260ff6040600020541680156103c8575b6102cc90610f20565b826000526000815260ff60056040600020015416600481101561017e57600103610384577fd479d35c2c3aee3d59f9972a1214f8effa0c54c4f8ff4dcf020913c0a5e27c629160409184600052600081526103388260058560002001600260ff19825416178155610f01565b84600052600081528260002042600782015560088101336001600160601b0360a01b8254161790556044356009820155600a60643591015561037c83518093610ecf565b3390820152a2005b6064906040519062461bcd60e51b82526004820152601760248201527f44697370757465206e6f7420696e2070726f67726573730000000000000000006044820152fd5b506003546001600160a01b031633146102c3565b346100c9576020806003193601126100c9576103f6610ce5565b600280546001600160a01b0393909290919084166000805b8581106104a7575061041f90610fad565b9460009360005b86811061043f576040518061043b8a82610cfb565b0390f35b80600052600082526040600020848487828260018601541614938415610498575b50505050610477575b61047290610edc565b610426565b94610490818761048a610472948c610fdf565b52610edc565b959050610469565b0154161490508484878c610460565b806000526000855260406000208388868282600186015416149384156104f4575b505050506104df575b6104da90610edc565b61040e565b906104ec6104da91610edc565b9190506104d1565b0154161490508388868b6104c8565b346100c95760203660031901126100c9577f715484adb5bc9cc29af577725dbf8486d0b82eca3ba79f65846e92ff38ef32b5602061053f610ce5565b6003546001600160a01b0391906105599083163314610f5d565b168060005260018252604060002060ff198154169055604051908152a1005b346100c95760203660031901126100c9576004356000526000602052604060002080549060018060a01b038060018301541681600284015416926105be60038201610de9565b936105cb60048301610de9565b9360058301549561062d60ff88169661061f60068701549360078801549560088901541696600a60098a01549901549960206040519e8f908152015260408d015260608c61018091829101528c0190610e8f565b908a820360808c0152610e8f565b95600481101561017e5788976106529160a08a015260ff60c08a019160081c16610ecf565b60e08701526101008601526101208501526101408401526101608301520390f35b346100c95760203660031901126100c9576001600160a01b03610694610ce5565b166000526001602052602060ff604060002054166040519015158152f35b346100c95760803660031901126100c9576024356001600160a01b03811681036100c95760443567ffffffffffffffff81116100c9576106f6903690600401610d58565b9060643567ffffffffffffffff81116100c957610717903690600401610d58565b6002549261072484610edc565b60025560405192610180840184811067ffffffffffffffff821117610a3857604052600435845233602085015260018060a01b0316604084015260608301526080820152600060a0820152600260c08201524260e082015260006101008201526000610120820152600061014082015260006101608201528160005260006020526040600020908051825560018060a01b036020820151166001600160601b0360a01b6001840154161760018301556002820160018060a01b036040830151166001600160601b0360a01b825416179055606081015192835167ffffffffffffffff8111610a38576108196003850154610daf565b601f8111610ac8575b506020601f8211600114610a59578192939495600092610a4e575b50508160011b916000199060031b1c19161760038401555b608082015192835167ffffffffffffffff8111610a38576108796004830154610daf565b601f81116109f1575b506020601f8211600114610982578192939495600092610977575b50508160011b916000199060031b1c19161760048201555b60a0830151600481101561017e5760ff8019600584015416911617600582015560c083015192600384101561017e57610160600a916108f960209660058601610f01565b60e0810151600685015561010081015160078501556008840160018060a01b03610120830151166001600160601b0360a01b82541617905561014081015160098501550151910155604051338152817f83201991c75b30e493678d0543bdbd02d6a194a5a0dda31490a5fe09e9f0a2208460043593a3604051908152f35b01519050858061089d565b6004830160005260206000209060005b601f19841681106109d9575060019394959683601f198116106109c0575b505050811b0160048201556108b5565b015160001960f88460031b161c191690558580806109b0565b9091602060018192858b015181550193019101610992565b600483016000526020600020601f830160051c810160208410610a31575b601f830160051c82018110610a25575050610882565b60008155600101610a0f565b5080610a0f565b634e487b7160e01b600052604160045260246000fd5b01519050858061083d565b6003850160005260206000209060005b601f1984168110610ab0575060019394959683601f19811610610a97575b505050811b016003840155610855565b015160001960f88460031b161c19169055858080610a87565b9091602060018192858b015181550193019101610a69565b600385016000526020600020601f830160051c810160208410610b08575b601f830160051c82018110610afc575050610822565b60008155600101610ae6565b5080610ae6565b346100c95760003660031901126100c9576020600254604051908152f35b346100c95760003660031901126100c9576002546000805b828110610bf25750610b5690610fad565b60009160005b818110610b71576040518061043b8582610cfb565b8060005260206000815260ff600581816040600020015416600481101561017e5715928315610bcc575b505050610bb1575b610bac90610edc565b610b5c565b92610bc4818561048a610bac9487610fdf565b939050610ba3565b600091929350848252526040600020015416600481101561017e57600114858080610b9b565b8060005260206000815260ff600581816040600020015416600481101561017e5715928315610c47575b505050610c32575b610c2d90610edc565b610b45565b90610c3f610c2d91610edc565b919050610c24565b600091929350848252526040600020015416600481101561017e57600114848080610c1c565b346100c95760203660031901126100c9577ffc4dfef69004b5e3aba1eb4a8b1e53b893418fda232d9f60574a6c62f30c449d6020610ca9610ce5565b6003546001600160a01b039190610cc39083163314610f5d565b1680600052600182526040600020600160ff19825416179055604051908152a1005b600435906001600160a01b03821682036100c957565b6020908160408183019282815285518094520193019160005b828110610d22575050505090565b835185529381019392810192600101610d14565b90601f8019910116810190811067ffffffffffffffff821117610a3857604052565b81601f820112156100c95780359067ffffffffffffffff8211610a385760405192610d8d601f8401601f191660200185610d36565b828452602083830101116100c957816000926020809301838601378301015290565b90600182811c92168015610ddf575b6020831014610dc957565b634e487b7160e01b600052602260045260246000fd5b91607f1691610dbe565b9060405191826000825492610dfd84610daf565b908184526001948581169081600014610e6c5750600114610e29575b5050610e2792500383610d36565b565b9093915060005260209081600020936000915b818310610e54575050610e2793508201013880610e19565b85548884018501529485019487945091830191610e3c565b915050610e2794506020925060ff191682840152151560051b8201013880610e19565b919082519283825260005b848110610ebb575050826000602080949584010152601f8019910116010190565b602081830181015184830182015201610e9a565b90600382101561017e5752565b6000198114610eeb5760010190565b634e487b7160e01b600052601160045260246000fd5b90600381101561017e5761ff0082549160081b169061ff001916179055565b15610f2757565b60405162461bcd60e51b815260206004820152600e60248201526d2737ba1030b93134ba3930ba37b960911b6044820152606490fd5b15610f6457565b60405162461bcd60e51b81526020600482015260096024820152682737ba1030b236b4b760b91b6044820152606490fd5b67ffffffffffffffff8111610a385760051b60200190565b90610fb782610f95565b610fc46040519182610d36565b8281528092610fd5601f1991610f95565b0190602036910137565b8051821015610ff35760209160051b010190565b634e487b7160e01b600052603260045260246000fdfea2646970667358221220ff6404c9e7efb9df128722ee9da73bac17b8a4618ec36a64da47622688ae6b8464736f6c6343000813003360803461007457601f610b1d38819003918201601f19168301916001600160401b038311848410176100795780849260209460405283398101031261007457516001600160a01b0381169081900361007457600280546001600160a01b031916919091179055604051610a8d90816100908239f35b600080fd5b634e487b7160e01b600052604160045260246000fdfe608080604052600436101561001357600080fd5b60003560e01c908163012f52ee146108b657508063356008a51461079a5780636374b11b14610716578063886e1044146106ed57806389cb29dd146106cf5780639c17e43914610559578063a5c1674e14610486578063a67185161461023c5763ed6531641461008257600080fd5b346102375760208060031936011261023757600435806000526000825260406000209060058201926100c760ff85546100bd828216156109da565b60081c1615610a19565b600483015442106101fc5782546001600160a01b0390811693338590036101b757600381015460028201805460405163a9059cbb60e01b81526001600160a01b039890981660048901526024880152969495949084908690604490829060009088165af19485156101ab577f6244ed823ca6be0f11bc890c3fafcf3c29cb23420c14243642e930b5e07e6d0a956101669160009161017e575b5061099c565b600160ff1982541617905554169354604051908152a3005b61019e9150863d88116101a4575b6101968183610962565b810190610984565b38610160565b503d61018c565b6040513d6000823e3d90fd5b60405162461bcd60e51b815260048101849052601960248201527f4f6e6c79206c616e646c6f72642063616e2072656c65617365000000000000006044820152606490fd5b6064906040519062461bcd60e51b825260048201526014602482015273546f6f206561726c7920746f2072656c6561736560601b6044820152fd5b600080fd5b346102375760a036600319011261023757610255610936565b61025d61094c565b606435916001600160a01b03831683036102375760443515610450576040516323b872dd60e01b8152336004820152306024820152604480359082015260208160648160006001600160a01b0389165af180156101ab576102c591600091610431575061099c565b60015491600019831461041b57600183016001556084354201421161041b5760405160e081019481861067ffffffffffffffff8711176104055760409586526001600160a01b039384168083529284166020808401828152604435858a0181815294881660608701908152608435420160808801908152600060a0890181815260c08a018281528d8352828852918e902099518a54908d166001600160a01b0319918216178b55955160018b018054918e16918816919091179055975160028a0155915160038901805491909b1694169390931790985590516004860155925160059094018054965161ff0090151560081b1694151560ff1661ffff19909716969096179390931790945594519485529383907f9405ad0a6208539879349284d71265479b1623846f70303da1f9890d6e8c10a7908690a4604051908152f35b634e487b7160e01b600052604160045260246000fd5b634e487b7160e01b600052601160045260246000fd5b61044a915060203d6020116101a4576101968183610962565b85610160565b60405162461bcd60e51b815260206004820152600e60248201526d125b9d985b1a5908185b5bdd5b9d60921b6044820152606490fd5b3461023757602036600319011261023757600435806000526000602052604060002060058101908154906104bd60ff8316156109da565b8054336001600160a01b0391821614918215610548575b50501561050d5761ff0019166101001790557f7ce7831fed9a800b1aa5e7ca21034bf7b95efc31a196459012cf8b8eb42b7dac600080a2005b60405162461bcd60e51b81526020600482015260136024820152724e6f7420706172747920746f20657363726f7760681b6044820152606490fd5b6001919250015416331484806104d4565b346102375760603660031901126102375760043561057561094c565b9060443591816000526020600081526040600020916005830192835460ff8160081c16156106965760ff6105aa9116156109da565b6002810154861161065f576003015460405163a9059cbb60e01b81526001600160a01b03838116600483015260248201889052909490929184908690604490829060009088165af19485156101ab577ff2986d88fbef6d847cabab14d6c2deed600a28c1330f7a5c25465898dc891d329561062c91600091610642575061099c565b805460ff191660011790556040519586521693a3005b6106599150863d88116101a4576101968183610962565b89610160565b60405162461bcd60e51b815260048101849052600f60248201526e082dadeeadce840e8dede40d0d2ced608b1b6044820152606490fd5b60405162461bcd60e51b8152600481018590526011602482015270139bc8191a5cdc1d5d19481c985a5cd959607a1b6044820152606490fd5b34610237576000366003190112610237576020600154604051908152f35b34610237576000366003190112610237576002546040516001600160a01b039091168152602090f35b3461023757602080600319360112610237576024816001600160a01b0361073b610936565b16604051928380926370a0823160e01b82523060048301525afa9081156101ab5760009161076d575b50604051908152f35b90508181813d8311610793575b6107848183610962565b81010312610237575182610764565b503d61077a565b346102375760208060031936011261023757600435806000526000825260406000209160058301926107d560ff85546100bd828216156109da565b80546001600160a01b039190821633036108715760038101546001820180546002909301805460405163a9059cbb60e01b81529486166001600160a01b03166004860152602485015296929493929091849086908516816000816044810103925af19485156101ab577f6244ed823ca6be0f11bc890c3fafcf3c29cb23420c14243642e930b5e07e6d0a9561016691600091610642575061099c565b60405162461bcd60e51b815260048101849052601860248201527f4f6e6c79206c616e646c6f72642063616e20726566756e6400000000000000006044820152606490fd5b346102375760203660031901126102375760e090600435600052600060205260ff604060002060018060a01b03908181541691806001830154169060028301549060038401541691600560048501549401549487526020870152604086015260608501526080840152818116151560a084015260081c16151560c0820152f35b600435906001600160a01b038216820361023757565b602435906001600160a01b038216820361023757565b90601f8019910116810190811067ffffffffffffffff82111761040557604052565b90816020910312610237575180151581036102375790565b156109a357565b60405162461bcd60e51b815260206004820152600f60248201526e151c985b9cd9995c8819985a5b1959608a1b6044820152606490fd5b156109e157565b60405162461bcd60e51b815260206004820152601060248201526f105b1c9958591e481c995b19585cd95960821b6044820152606490fd5b15610a2057565b60405162461bcd60e51b815260206004820152600f60248201526e115cd8dc9bddc8191a5cdc1d5d1959608a1b6044820152606490fdfea264697066735822122038f8572c47fcfe8a4eac0cb2e7d6790debb0d6d8d4772b5c062be8e507d381bb64736f6c634300081300336080806040523461002857600380546001600160a01b03191633179055611243908161002e8239f35b600080fdfe608080604052600436101561001357600080fd5b60003560e01c90816368c4ac2614610e9f57508063818645b114610a575780638709ad40146104b357806387d81789146103395780638da5cb5b146103105780639b22b920146102f25780639d7dadeb146101d1578063bd61f0a61461011b5763e79864661461008257600080fd5b346101165760403660031901126101165761009b610eda565b6024359081151591828103610116577fd86c88b4a367d9b81a6e00c9d3f7d01657bffef358fa8968c91c045ae99f0d529261010960409360018060a01b03906100e982600354163314611041565b1692836000526002602052846000209060ff801983541691151516179055565b82519182526020820152a1005b600080fd5b3461011657604036600319011261011657610134610eda565b6003546001600160a01b039160209161018b91908416610155338214611041565b60405163a9059cbb60e01b81526001600160a01b0390911660048201526024803590820152938492839160009183906044820190565b0393165af180156101c55761019c57005b6101bc9060203d81116101be575b6101b48183610f22565b810190611138565b005b503d6101aa565b6040513d6000823e3d90fd5b3461011657602080600319360112610116576101eb610eda565b600180546001600160a01b0393909290919084166000805b8581106102995750610214906111b3565b9460009360005b86811061023457604051806102308a82610fcc565b0390f35b8060005260008252604060002084848782828554161493841561028a575b50505050610269575b61026490611150565b61021b565b94610282818761027c610264948c6111f9565b52611150565b95905061025b565b0154161490508484878c610252565b806000526000855260406000208388868282855416149384156102e3575b505050506102ce575b6102c990611150565b610203565b906102db6102c991611150565b9190506102c0565b0154161490508388868b6102b7565b34610116576000366003190112610116576020600154604051908152f35b34610116576000366003190112610116576003546040516001600160a01b039091168152602090f35b34610116576020806003193601126101165760043560005260008152604060002060018060a01b0390818154169260019183838201541693600282015490600383015416906004830154926005810160405196879160009181549161039d83611007565b928386528a838216918260001461048d575050600114610449575b505050916103d460069260ff949b99989796959a9b0388610f22565b0154169560405197889687528487015260408601526060850152608084015260e060a08401528151918260e085015260005b83811061043157505050610100926000848385010152151560c0830152601f80199101168101030190f35b81810183015187820161010001528694508201610406565b89935060009291925282600020916000925b828410610473575050508201016103d48260ff6103b8565b849295829585835492010152019101909288928a9461045b565b60ff19168782015293151560051b860190930193506103d4925084915060ff90506103b8565b346101165760803660031901126101165760043567ffffffffffffffff8111610116576104e4903690600401610f9b565b602490813567ffffffffffffffff811161011657610506903690600401610f9b565b9390610510610ef0565b9260643567ffffffffffffffff811161011657610531903690600401610f44565b92868203610a23576001600160a01b03851660009081526002602052604090205461055e9060ff16611079565b6000805b8881106109e957506040516323b872dd60e01b8152336004820152306024820152604481019190915260208160648160006001600160a01b038b165af19081156101c5576000916109ca575b501561098f576105bd826111b3565b9560005b8381106105d657604051806102308a82610fcc565b6105ec6105e4828b88611175565b3515156110bb565b6106126001600160a01b0361060a610605848888611175565b6111e5565b1615156110f8565b60015461061e81611150565b60015561062f610605838787611175565b61063a838c89611175565b35906040519061064982610f06565b3382526001600160a01b03908116602080840191825260408085019586528d841660608601908152426080870190815260a087018f8152600060c089018190528a81529485905292909320865181546001600160a01b03199081169188169190911782559451600182018054871691881691909117905596516002880155516003870180549094169416939093179091555160048401555180519067ffffffffffffffff821161097a576107006005850154611007565b601f8111610933575b50602090601f83116001146108ba57928260069360c09361075c97966000926108af575b50508160011b916000199060031b1c19161760058501555b0151151591019060ff801983541691151516179055565b6107aa60208b61077b85610774610605828c8c611175565b928b611175565b60405163a9059cbb60e01b81526001600160a01b03909216600483015235602482015291829081906044820190565b038160006001600160a01b038e165af19081156101c557600091610890575b501561085a5790816108559260005260006020526006604060002001600160ff19825416179055806107fb838c6111f9565b5261080a610605838888611175565b610815838d8a611175565b604051903581526001600160a01b039091169133917f37a13dcf7266fe3681e46ca252ea4f79e8a76da88ae9446f99242fbc014a6c3990602090a4611150565b6105c1565b60405162461bcd60e51b815260206004820152600f818501526e151c985b9cd9995c8819985a5b1959608a1b6044820152606490fd5b6108a9915060203d6020116101be576101b48183610f22565b8b6107c9565b01519050388061072d565b906005850160005260206000209160005b601f198516811061091b57508360c09361075c979693600193600697601f19811610610902575b505050811b016005850155610745565b015160001960f88460031b161c191690553880806108f2565b919260206001819286850151815501940192016108cb565b600585016000526020600020601f840160051c810160208510610973575b601f830160051c82018110610967575050610709565b60008155600101610951565b5080610951565b86634e487b7160e01b60005260416004526000fd5b60405162461bcd60e51b8152602060048201526014818801527310985d18da081c185e5b595b9d0819985a5b195960621b6044820152606490fd5b6109e3915060203d6020116101be576101b48183610f22565b886105ae565b906109f5828a87611175565b358101809111610a0e57610a099091611150565b610562565b87634e487b7160e01b60005260116004526000fd5b60405162461bcd60e51b815260206004820152600d818801526c125b9d985b1a59081a5b9c1d5d609a1b6044820152606490fd5b3461011657608036600319011261011657610a70610eda565b610a78610ef0565b60643567ffffffffffffffff811161011657610a98903690600401610f44565b9060018060a01b0381166000526002602052610abb60ff60406000205416611079565b610ac860243515156110bb565b610adc6001600160a01b03841615156110f8565b6040516323b872dd60e01b81523360048201523060248083019190915235604482015260208160648160006001600160a01b0387165af19081156101c557600091610e80575b5015610e4a5760015491610b3583611150565b60015560405190610b4582610f06565b3382526001600160a01b038581166020808501918252602435604080870191825287851660608801908152426080890190815260a08901978852600060c08a018190528b81529485905291909320875181546001600160a01b031990811691881691909117825594516001820180548716918816919091179055915160028301559151600382018054909416941693909317909155516004820155905180519192919067ffffffffffffffff8211610e3457610c046005850154611007565b601f8111610ded575b50602090601f8311600114610d7757928260069360c093610c5e9796600092610d6c5750508160011b916000199060031b1c19161760058501550151151591019060ff801983541691151516179055565b60405163a9059cbb60e01b81526001600160a01b0384811660048301526024803590830152909160209183916044918391600091165af19081156101c557600091610d4d575b5015610d085760209181600052600083526006604060002001600160ff1982541617905560405190602435825260018060a01b031690827f37a13dcf7266fe3681e46ca252ea4f79e8a76da88ae9446f99242fbc014a6c39853393a4604051908152f35b60405162461bcd60e51b815260206004820152601c60248201527f5472616e7366657220746f20726563697069656e74206661696c6564000000006044820152606490fd5b610d66915060203d6020116101be576101b48183610f22565b83610ca4565b015190508a8061072d565b90601f198316916005860160005260206000209260005b818110610dd557509360c093610c5e9796936001938360069810610dbc57505050811b016005850155610745565b015160001960f88460031b161c191690558a80806108f2565b92936020600181928786015181550195019301610d8e565b600585016000526020600020601f840160051c810160208510610e2d575b601f830160051c82018110610e21575050610c0d565b60008155600101610e0b565b5080610e0b565b634e487b7160e01b600052604160045260246000fd5b60405162461bcd60e51b815260206004820152600e60248201526d14185e5b595b9d0819985a5b195960921b6044820152606490fd5b610e99915060203d6020116101be576101b48183610f22565b84610b22565b34610116576020366003190112610116576020906001600160a01b03610ec3610eda565b166000526002825260ff6040600020541615158152f35b600435906001600160a01b038216820361011657565b604435906001600160a01b038216820361011657565b60e0810190811067ffffffffffffffff821117610e3457604052565b90601f8019910116810190811067ffffffffffffffff821117610e3457604052565b81601f820112156101165780359067ffffffffffffffff8211610e345760405192610f79601f8401601f191660200185610f22565b8284526020838301011161011657816000926020809301838601378301015290565b9181601f840112156101165782359167ffffffffffffffff8311610116576020808501948460051b01011161011657565b6020908160408183019282815285518094520193019160005b828110610ff3575050505090565b835185529381019392810192600101610fe5565b90600182811c92168015611037575b602083101461102157565b634e487b7160e01b600052602260045260246000fd5b91607f1691611016565b1561104857565b60405162461bcd60e51b81526020600482015260096024820152682737ba1037bbb732b960b91b6044820152606490fd5b1561108057565b60405162461bcd60e51b8152602060048201526013602482015272151bdad95b881b9bdd081cdd5c1c1bdc9d1959606a1b6044820152606490fd5b156110c257565b60405162461bcd60e51b815260206004820152600e60248201526d125b9d985b1a5908185b5bdd5b9d60921b6044820152606490fd5b156110ff57565b60405162461bcd60e51b8152602060048201526011602482015270125b9d985b1a59081c9958da5c1a595b9d607a1b6044820152606490fd5b90816020910312610116575180151581036101165790565b600019811461115f5760010190565b634e487b7160e01b600052601160045260246000fd5b91908110156111855760051b0190565b634e487b7160e01b600052603260045260246000fd5b67ffffffffffffffff8111610e345760051b60200190565b906111bd8261119b565b6111ca6040519182610f22565b82815280926111db601f199161119b565b0190602036910137565b356001600160a01b03811681036101165790565b80518210156111855760209160051b01019056fea2646970667358221220263a9215dc7a50f5d7f09afa02098d577f23001e432939250d929e0622c6f1cb64736f6c6343000813003360808060405234610016576111f4908161001c8239f35b600080fdfe6080604052600436101561001257600080fd5b60e0600035811c80630bf2d668146109f057806339500f34146109d25780637ca28bc61461095d5780638b8cc996146104c25780638f48bd5b1461046a578063a715f673146101c4578063cb644897146101325763f7b108081461007557600080fd5b3461012d57602036600319011261012d57600435600090815260208190526040902080546001600160a01b0316906100af60018201611090565b61011c600283015461010e6100c660038601611090565b916100d360048701611090565b926100fb600660ff60058a015416980154966040519a8b9a8b528060208c01528a0190611016565b9160408901528782036060890152611016565b908582036080870152611016565b91151560a084015260c08301520390f35b600080fd5b3461012d5760208060031936011261012d576001600160a01b03610154610f9e565b166000526001908181526040600020916040519081938491848254948581520191600052846000209060005b868682106101ae57859061019682870383610f27565b6101aa604051928284938452830190610fe2565b0390f35b8354855288955090930192918101918101610180565b503461012d57604036600319011261012d57602435906101e382611193565b6101f06040519182610f27565b828152601f198061020085611193565b0193602094368685013761021381611193565b946102216040519687610f27565b8186528261022e83611193565b018160005b82811061042657505050600092600435956002938454975b8881108061041d575b1561033f5780600052600085528960ff60058a82826040600020015416610288575b5050505061028390611136565b61024b565b8a6103339460068c8396899f968a8f989b6102a96102839d6103229a6111aa565b5260005260008852604060002092604051986102c48a610f0c565b84546001600160a01b03168a526102dd60018601611090565b908a015283015460408901526102f560038401611090565b606089015261030660048401611090565b608089015282015416151560a0870152015460c08501526111aa565b5261032d818d6111aa565b50611136565b9690508938808a610276565b84888b868661035960405194604086526040860190610fe2565b94848603818601528351918287528187019082808560051b8a01019601946000985b858a106103885788880389f35b909192939495968580828585600195030188528a5190848060a01b0382511681526103f46103e16103c4858501518b878601528b850190611016565b604085015160408501526060808601519085830390860152611016565b6080808501519084830390850152611016565b9160a08082015115159083015260c080910151910152990195019901989291909594939561037b565b50818710610254565b60405161043281610f0c565b60008152606080848301526000604083015280808301526080820152600060a0820152600060c082015282828b010152018290610233565b3461012d57604036600319011261012d57610483610f9e565b6001600160a01b031660009081526001602052604090208054602435919082101561012d576020916104b491610fb4565b90546040519160031b1c8152f35b3461012d5760a036600319011261012d576024356001600160401b03811161012d576104f2903690600401610f48565b6064356001600160401b03811161012d57610511903690600401610f48565b6084356001600160401b03811161012d57610530903690600401610f48565b90600435600052600060205261055460018060a01b0360406000205416331461115b565b600435600052600060205260ff6005604060002001541615610922576004356000526000602052600160406000200183516001600160401b0381116107905761059d8254611056565b601f81116108da575b50602094601f821160011461087457948192939495600092610869575b50508160011b916000199060031b1c19161790555b600435600052600060205260406000209060443560028301558051906001600160401b0382116107905761060f6003840154611056565b601f811161081e575b50602090601f83116001146107b15760039291600091836107a6575b50508160011b9160001990841b1c1916179101555b6004356000526000602052600460406000200181516001600160401b038111610790576106768254611056565b601f8111610748575b50602092601f82116001146106e457928192936000926106d9575b50508160011b916000199060031b1c19161790555b6004357f7ad43e2b215acc30fe68db10cbf57c6b2b699ef7572e54808c2a106fb904f3fb600080a2005b01519050838061069a565b601f198216938360005260206000209160005b8681106107305750836001959610610717575b505050811b0190556106af565b015160001960f88460031b161c1916905583808061070a565b919260206001819286850151815501940192016106f7565b826000526020600020601f830160051c81019160208410610786575b601f0160051c01905b81811061077a575061067f565b6000815560010161076d565b9091508190610764565b634e487b7160e01b600052604160045260246000fd5b015190508580610634565b90601f198316916003850160005260206000209260005b818110610806575091600193918560039694106107ee575b505050811b01910155610649565b015160001983861b60f8161c191690558580806107e0565b929360206001819287860151815501950193016107c8565b600384016000526020600020601f840160051c8101916020851061085f575b601f0160051c01905b8181106108535750610618565b60008155600101610846565b909150819061083d565b0151905085806105c3565b601f198216958360005260206000209160005b8881106108c2575083600195969798106108a9575b505050811b0190556105d8565b015160001960f88460031b161c1916905585808061089c565b91926020600181928685015181550194019201610887565b826000526020600020601f830160051c81019160208410610918575b601f0160051c01905b81811061090c57506105a6565b600081556001016108ff565b90915081906108f6565b60405162461bcd60e51b815260206004820152601360248201527250726f7065727479206e6f742061637469766560681b6044820152606490fd5b3461012d57602036600319011261012d5760043580600052600060205261099260018060a01b0360406000205416331461115b565b806000526000602052600560406000200160ff1981541690557f7bc5467b3abd536b298666c57448e8ec6a25e7929f01a0789e4ef525716f45e3600080a2005b3461012d57600036600319011261012d576020600254604051908152f35b3461012d57608036600319011261012d576004356001600160401b03811161012d57610a20903690600401610f48565b6044356001600160401b03811161012d57610a3f903690600401610f48565b6064356001600160401b03811161012d57610a5e903690600401610f48565b9060025491610a6c83611136565b60025560405190610a7c82610f0c565b3382526020820192858452602435604084015260608301526080820152600160a08201524260c082015282600052600060205260406000209160018060a01b038251166bffffffffffffffffffffffff60a01b845416178355518051906001600160401b038211610790578190610af66001860154611056565b601f8111610eb9575b50602090601f8311600114610e4c57600092610e41575b50508160011b916000199060031b1c19161760018301555b6040810151600283015560608101518051906001600160401b038211610790578190610b5d6003860154611056565b601f8111610dee575b50602090601f8311600114610d7c57600092610d71575b50508160011b916000199060031b1c19161760038301555b60808101518051906001600160401b03821161079057610bb86004850154611056565b601f8111610d2a575b50602090601f8311600114610cb75791806006949260c094600092610cac575b50508160011b916000199060031b1c19161760048501555b6005840160a0820151151560ff801983541691161790550151910155336000526001602052604060002091825492680100000000000000008410156107905783610c4a916001602096018155610fb4565b81549060031b9084821b91600019901b1916179055817f4a94c8d5fab40a5edfd34ed099a279029ee376bf6a571684e0cffd8e00216dbc610c9660405193604085526040850190611016565b92602435868201528033940390a3604051908152f35b015190508880610be1565b90601f198316916004860160005260206000209260005b818110610d12575092600192859260c0966006989610610cf9575b505050811b016004850155610bf9565b015160001960f88460031b161c19169055888080610ce9565b92936020600181928786015181550195019301610cce565b600485016000526020600020601f840160051c810160208510610d6a575b601f830160051c82018110610d5e575050610bc1565b60008155600101610d48565b5080610d48565b015190508680610b7d565b9250600385016000526020600020906000935b601f1984168510610dd3576001945083601f19811610610dba575b505050811b016003830155610b95565b015160001960f88460031b161c19169055868080610daa565b81810151835560209485019460019093019290910190610d8f565b909150600385016000526020600020601f840160051c810160208510610e3a575b90849392915b601f830160051c82018110610e2b575050610b66565b60008155859450600101610e15565b5080610e0f565b015190508680610b16565b600186016000908152602081209350601f198516905b818110610ea15750908460019594939210610e88575b505050811b016001830155610b2e565b015160001960f88460031b161c19169055868080610e78565b92936020600181928786015181550195019301610e62565b909150600185016000526020600020601f840160051c810160208510610f05575b90849392915b601f830160051c82018110610ef6575050610aff565b60008155859450600101610ee0565b5080610eda565b60e081019081106001600160401b0382111761079057604052565b90601f801991011681019081106001600160401b0382111761079057604052565b81601f8201121561012d578035906001600160401b0382116107905760405192610f7c601f8401601f191660200185610f27565b8284526020838301011161012d57816000926020809301838601378301015290565b600435906001600160a01b038216820361012d57565b8054821015610fcc5760005260206000200190600090565b634e487b7160e01b600052603260045260246000fd5b90815180825260208080930193019160005b828110611002575050505090565b835185529381019392810192600101610ff4565b919082519283825260005b848110611042575050826000602080949584010152601f8019910116010190565b602081830181015184830182015201611021565b90600182811c92168015611086575b602083101461107057565b634e487b7160e01b600052602260045260246000fd5b91607f1691611065565b90604051918260008254926110a484611056565b90818452600194858116908160001461111357506001146110d0575b50506110ce92500383610f27565b565b9093915060005260209081600020936000915b8183106110fb5750506110ce935082010138806110c0565b855488840185015294850194879450918301916110e3565b9150506110ce94506020925060ff191682840152151560051b82010138806110c0565b60001981146111455760010190565b634e487b7160e01b600052601160045260246000fd5b1561116257565b60405162461bcd60e51b81526020600482015260096024820152682737ba1037bbb732b960b91b6044820152606490fd5b6001600160401b0381116107905760051b60200190565b8051821015610fcc5760209160051b01019056fea26469706673582212209a496ed9ad3ef31fe750e98da85f7d8712acd6e34f40b8c39c27c0894b014b4b64736f6c6343000813003360803461007457601f6111cc38819003918201601f19168301916001600160401b038311848410176100795780849260209460405283398101031261007457516001600160a01b0381169081900361007457600380546001600160a01b03191691909117905560405161113c90816100908239f35b600080fd5b634e487b7160e01b600052604160045260246000fdfe608080604052600436101561001357600080fd5b60003560e01c90816326b703a714610f0e57508063448db2f614610e335780635686b54b14610d765780637c05798c14610c5257806387f98ca91461086b5780638aed078d14610784578063a0f109c5146104a0578063a5c1674e146103f9578063bd14de9614610333578063c9b99dab14610315578063d064fbe8146102dd5763fc2bf8f0146100a357600080fd5b34610237576100b136610f83565b90806000526020600081526040600020600881015460ff811660058110156102c75760016100df9114611048565b60028201546001600160a01b0391908216330361028c576003830154860361024f576000916064859260405194859384926323b872dd60e01b84523360048501523060248501528b604485015260181c165af190811561024357600091610209575b50156101d357600581019081548581018091116101bd576006925501544203904282116101bd577f63e55317e25c0cab3a2de23ee0e244496daea0c1c2b8e272bbc01722b96bb9ae91836000526001825262278d006040600020910460005281526040600020600160ff198254161790556040519384523393a3005b634e487b7160e01b600052601160045260246000fd5b60405162461bcd60e51b815260048101839052600e60248201526d14185e5b595b9d0819985a5b195960921b6044820152606490fd5b90508281813d831161023c575b6102208183610f99565b81010312610237576102319061102c565b38610141565b600080fd5b503d610216565b6040513d6000823e3d90fd5b60405162461bcd60e51b8152600481018590526015602482015274125b98dbdc9c9958dd081c995b9d08185b5bdd5b9d605a1b6044820152606490fd5b60405162461bcd60e51b81526004810185905260136024820152724f6e6c792074656e616e742063616e2070617960681b6044820152606490fd5b634e487b7160e01b600052602160045260246000fd5b34610237576102eb36610f83565b906000526001602052604060002090600052602052602060ff604060002054166040519015158152f35b34610237576000366003190112610237576020600254604051908152f35b346102375760203660031901126102375760043560005260006020526040600020805460018060a01b038060018401541692816002820154169060038101546004820154600583015490600684015492600860078601549501549560ff871699604051998a5260208a015260408901526060880152608087015260a086015260c085015260e084015260058410156102c7576101809361010084015260ff8160081c16151561012084015260ff8160101c16151561014084015260181c16610160820152f35b34610237576020366003190112610237576004358060005260006020526008604060002061043e60018060a01b03806001840154163314908115610490575b5061108b565b01805460ff81169060058210156102c75761045d600160049314611048565b60ff19161790557f84a477df8a28a4276ca6dee4458a06c3015f30c477d9c949ede4e13ff8a552b46020604051338152a2005b9050600283015416331485610438565b346102375760208060031936011261023757600435908160005260008152604060002090600882019182549060ff821660058110156102c75760016104e59114611048565b60078101544210610749576001810180546001600160a01b0393919291908416330361070457839060181c166005820154916004810154908161061b575b50508161055e575b855460ff19166002178655867f5a098ab2367201784eb2ad9b7e2f0d916557002385b83ddcc19293f40c4e0ed0600080a2005b915460405163a9059cbb60e01b815293166001600160a01b03166004840152602483015282908290816000816044810103925af1908115610243576000916105e6575b50156105b0578080808061052b565b6064906040519062461bcd60e51b82526004820152600f60248201526e151c985b9cd9995c8819985a5b1959608a1b6044820152fd5b90508181813d8311610614575b6105fd8183610f99565b810103126102375761060e9061102c565b846105a1565b503d6105f3565b600201805460405163a9059cbb60e01b81529087166001600160a01b031660048201526024810183905287816044816000885af1908115610243576000916106cf575b501561069a577f69187e59ebb7ab44cba5434886e4e6cde1412568f3483279dc99de772cb2540587878b93541693604051908152a38780610523565b60405162461bcd60e51b815260048101889052600d60248201526c1499599d5b990819985a5b1959609a1b6044820152606490fd5b90508781813d83116106fd575b6106e68183610f99565b81010312610237576106f79061102c565b8a61065e565b503d6106dc565b60405162461bcd60e51b815260048101869052601960248201527f4f6e6c79206c616e646c6f72642063616e2072656c65617365000000000000006044820152606490fd5b60405162461bcd60e51b81526004810184905260136024820152721059dc99595b595b9d081b9bdd08195b991959606a1b6044820152606490fd5b34610237576020806003193601126102375761079e610f32565b60028054909290916001600160a01b03908116906000805b85811061082f57506107c7906110aa565b9460009360005b8681106107e757604051806107e38a82610f48565b0390f35b806000526000825284848460406000200154161461080e575b61080990611039565b6107ce565b946108278187610821610809948c6110dc565b52611039565b959050610800565b8060005260008552838388604060002001541614610856575b61085190611039565b6107b6565b9061086361085191611039565b919050610848565b346102375760e0366003190112610237576024356001600160a01b03811690600435908290036102375760a4359060843560c4356001600160a01b038116810361023757600354604051631ef6210160e31b81526004810185905290600090829060249082906001600160a01b03165afa90811561024357600090600092610bb7575b50336001600160a01b0390911603610b7d5715610b42578415610b0c5783821015610ad7576002549361092085611039565b60025560405192610180840184811067ffffffffffffffff821117610ac15760405284845233602085015286604085015260443560608501526064356080850152600060a085015260c084015260e083015260006101008301526000610120830152600061014083015260018060a01b031661016082015282600052600060205260086040600020825181556001810160018060a01b03602085015116906bffffffffffffffffffffffff60a01b9182825416179055600282019060018060a01b0360408601511690825416179055606083015160038201556080830151600482015560a0830151600582015560c0830151600682015560e0830151600782015501906101008101519060058210156102c757602095837fbccc93ea525c74213effe313cf29be12baa866b0a54b80532bfa465876a177459360409388965461ff00610120830151151560081b169060ff62ff0000610140850151151560101b16936101606301000000600160b81b0391015160181b1694169068ffffffffffffffffff60b81b1617171717905581519033825287820152a3604051908152f35b634e487b7160e01b600052604160045260246000fd5b60405162461bcd60e51b815260206004820152600d60248201526c496e76616c696420646174657360981b6044820152606490fd5b60405162461bcd60e51b815260206004820152600e60248201526d125b9d985b1a59081d195b985b9d60921b6044820152606490fd5b60405162461bcd60e51b815260206004820152601360248201527250726f7065727479206e6f742061637469766560681b6044820152606490fd5b60405162461bcd60e51b81526020600482015260126024820152712737ba10383937b832b93a3c9037bbb732b960711b6044820152606490fd5b9150503d806000833e610bca8183610f99565b81019060e081830312610237578051916001600160a01b03831683036102375760208201519167ffffffffffffffff928381116102375782610c0d918301610fbb565b5060608101518381116102375782610c26918301610fbb565b50608081015192831161023757610c4460a092610c4b948301610fbb565b500161102c565b90876108ee565b346102375760203660031901126102375760043560005260006020526040600020600881019081549060ff821660058110156102c757610d405760018101546001600160a01b0391903390831603610ce2575050815461ff001916610100178255505b805460ff8160081c1680610cd5575b610cca57005b60ff19166001179055005b5060ff8160101c16610cc4565b60020154163314600014610d025762ff0000191662010000178155610cb5565b60405162461bcd60e51b8152602060048201526016602482015275139bdd081c185c9d1e481d1bc81859dc99595b595b9d60521b6044820152606490fd5b60405162461bcd60e51b815260206004820152600e60248201526d496e76616c69642073746174757360901b6044820152606490fd5b346102375760203660031901126102375760043580600052600060205260086040600020610dba60018060a01b03806001840154163314908115610490575061108b565b01805460ff811660058110156102c757610dfe5760ff191660031790557f0cae0523c4d6568388c55dcaeb921d927527a60000ca46adffedddf87225f0ec600080a2005b60405162461bcd60e51b815260206004820152600d60248201526c10d85b9b9bdd0818d85b98d95b609a1b6044820152606490fd5b346102375760208060031936011261023757610e4d610f32565b6002546001600160a01b0392909183166000805b848110610ed15750610e72906110aa565b9360009260005b858110610e8e57604051806107e38982610f48565b806000526000825283836001604060002001541614610eb6575b610eb190611039565b610e79565b93610ec98186610821610eb1948b6110dc565b949050610ea8565b806000526000845282866001604060002001541614610ef9575b610ef490611039565b610e61565b90610f06610ef491611039565b919050610eeb565b34610237576000366003190112610237576003546001600160a01b03168152602090f35b600435906001600160a01b038216820361023757565b6020908160408183019282815285518094520193019160005b828110610f6f575050505090565b835185529381019392810192600101610f61565b6040906003190112610237576004359060243590565b90601f8019910116810190811067ffffffffffffffff821117610ac157604052565b919080601f840112156102375782519067ffffffffffffffff8211610ac15760405191602091610ff4601f8301601f1916840185610f99565b8184528282870101116102375760005b81811061101957508260009394955001015290565b8581018301518482018401528201611004565b5190811515820361023757565b60001981146101bd5760010190565b1561104f57565b60405162461bcd60e51b815260206004820152601460248201527341677265656d656e74206e6f742061637469766560601b6044820152606490fd5b15610d0257565b67ffffffffffffffff8111610ac15760051b60200190565b906110b482611092565b6110c16040519182610f99565b82815280926110d2601f1991611092565b0190602036910137565b80518210156110f05760209160051b010190565b634e487b7160e01b600052603260045260246000fdfea2646970667358221220d10a2b8c63cb6395077d534a7dc3bad5134c9fd999cb637825ca5a324241bd2c64736f6c6343000813003360803462001b6c57601f6200476838819003918201601f19168301916001600160401b0383118484101762000e855780849260209460405283398101031262001b6c57516001600160a01b0381169081900362001b6c5760018060a01b0319903382600054161760005581600254161760025560018055339060085416176008553360005260066020526040600020600160ff19825416179055620000a362001b91565b6002815261555360f01b6020820152620000bc62001b91565b600a81526955535f4b59435f30303160b01b6020820152620000dd62001b91565b601f81527f4261736963204b594320766572696669636174696f6e20726571756972656400602082015233600052600660205260ff60406000205416801562001b57575b156200105e576200013162001b71565b92808452826020850152816040850152600160608501526000608085015260001960a08501524260c08501526040516020818551620001748183858a0162001bb1565b60059082019081520301902084518051906001600160401b03821162000e8557825490600182811c9216801562001b4c575b602083101462000e645781601f84931162001af7575b50602090601f831160011462001a865760009262001a7a575b50508160011b916000199060031b1c19161781555b60208501518051906001600160401b03821162000e8557600183015490600182811c9216801562001a6f575b602083101462000e645781601f84931162001a17575b50602090601f8311600114620019a05760009262001994575b50508160011b916000199060031b1c19161760018201555b604085015180519095906001600160401b03811162000e85576002830154600181811c9116801562001989575b602082101462000e6457601f81116200193d575b506020601f8211600114620018bf5792600660c0620003549484620003639895620003459b9a98600080516020620047488339815191529d60009262000d73575b50508160011b916000199060031b1c19161760028501555b6200031760608201511515600386019060ff801983541691151516179055565b6080810151600485015560a08101516005850155015191015560405195869560608752606087019062001bd6565b90858203602087015262001bd6565b90838203604085015262001bd6565b0390a16200037062001b91565b6002815261555360f01b60208201526200038962001b91565b600a81526955535f414d4c5f30303160b01b6020820152620003aa62001b91565b601681527f414d4c2073637265656e696e6720726571756972656400000000000000000000602082015233600052600660205260ff604060002054168015620018aa575b156200105e57620003fe62001b71565b9280845282602085015281604085015260016060850152683635c9adc5dea00000608085015260001960a08501524260c08501526040516020818551620004498183858a0162001bb1565b60059082019081520301902084518051906001600160401b03821162000e8557825490600182811c921680156200189f575b602083101462000e645781601f8493116200184a575b50602090601f8311600114620017d957600092620017cd575b50508160011b916000199060031b1c19161781555b60208501518051906001600160401b03821162000e8557600183015490600182811c92168015620017c2575b602083101462000e645781601f8493116200176a575b50602090601f8311600114620016f357600092620016e7575b50508160011b916000199060031b1c19161760018201555b604085015180519095906001600160401b03811162000e85576002830154600181811c91168015620016dc575b602082101462000e6457601f811162001690575b506020601f8211600114620016125792600660c0620003549484620005ea9895620003459b9a98600080516020620047488339815191529d60009262000d735750508160011b916000199060031b1c19161760028501556200031760608201511515600386019060ff801983541691151516179055565b0390a1620005f762001b91565b6002815261455560f01b60208201526200061062001b91565b600a81526945555f4b59435f30303160b01b60208201526200063162001b91565b601081526f4555204b5943207374616e646172647360801b602082015233600052600660205260ff604060002054168015620015fd575b156200105e576200067862001b71565b92808452826020850152816040850152600160608501526000608085015260001960a08501524260c08501526040516020818551620006bb8183858a0162001bb1565b60059082019081520301902084518051906001600160401b03821162000e8557825490600182811c92168015620015f2575b602083101462000e645781601f8493116200159d575b50602090601f83116001146200152c5760009262001520575b50508160011b916000199060031b1c19161781555b60208501518051906001600160401b03821162000e8557600183015490600182811c9216801562001515575b602083101462000e645781601f849311620014bd575b50602090601f831160011462001446576000926200143a575b50508160011b916000199060031b1c19161760018201555b604085015180519095906001600160401b03811162000e85576002830154600181811c911680156200142f575b602082101462000e6457601f8111620013e3575b506020601f8211600114620013655792600660c06200035494846200085c9895620003459b9a98600080516020620047488339815191529d60009262000d735750508160011b916000199060031b1c19161760028501556200031760608201511515600386019060ff801983541691151516179055565b0390a16200086962001b91565b6002815261455560f01b60208201526200088262001b91565b600a81526945555f414d4c5f30303160b01b6020820152620008a362001b91565b601081526f455520414d4c2064697265637469766560801b602082015233600052600660205260ff60406000205416801562001350575b156200105e57620008ea62001b71565b928084528260208501528160408501526001606085015269021e19e0c9bab2400000608085015260001960a08501524260c08501526040516020818551620009368183858a0162001bb1565b60059082019081520301902084518051906001600160401b03821162000e8557825490600182811c9216801562001345575b602083101462000e645781601f849311620012f0575b50602090601f83116001146200127f5760009262001273575b50508160011b916000199060031b1c19161781555b60208501518051906001600160401b03821162000e8557600183015490600182811c9216801562001268575b602083101462000e645781601f84931162001210575b50602090601f831160011462001199576000926200118d575b50508160011b916000199060031b1c19161760018201555b604085015180519095906001600160401b03811162000e85576002830154600181811c9116801562001182575b602082101462000e6457601f811162001136575b506020601f8211600114620010b85792600660c062000354948462000ad79895620003459b9a98600080516020620047488339815191529d60009262000d735750508160011b916000199060031b1c19161760028501556200031760608201511515600386019060ff801983541691151516179055565b0390a162000ae462001b91565b600681526511d313d0905360d21b602082015262000b0162001b91565b601081526f474c4f42414c5f53414e4354494f4e5360801b602082015262000b2862001b91565b601a81527f476c6f62616c2073616e6374696f6e732073637265656e696e67000000000000602082015233600052600660205260ff604060002054168015620010a3575b156200105e5762000b7c62001b71565b92808452826020850152816040850152600160608501526000608085015260001960a08501524260c0850152604051602081855162000bbf8183858a0162001bb1565b60059082019081520301902084518051906001600160401b03821162000e8557825490600182811c9216801562001053575b602083101462000e645781601f84931162000ffe575b50602090601f831160011462000f8d5760009262000f81575b50508160011b916000199060031b1c19161781555b60208501518051906001600160401b03821162000e8557600183015490600182811c9216801562000f76575b602083101462000e645781601f84931162000f1e575b50602090601f831160011462000ea75760009262000e9b575b50508160011b916000199060031b1c19161760018201555b604085015180519095906001600160401b03811162000e85576002830154600181811c9116801562000e7a575b602082101462000e6457601f811162000e18575b506020601f821160011462000d7f5792600660c062000354948462000d609895620003459b9a98600080516020620047488339815191529d60009262000d735750508160011b916000199060031b1c19161760028501556200031760608201511515600386019060ff801983541691151516179055565b0390a1604051612b4a908162001bfe8239f35b015190503880620002df565b6002840160005260206000209760005b601f198416811062000dff575060c06200035494600185600080516020620047488339815191529c620003459c9b999660069662000d609c99601f1981161062000de5575b505050811b016002850155620002f7565b015160001960f88460031b161c1916905538808062000dd4565b828201518a556001909901986020928301920162000d8f565b600284016000526020600020601f830160051c81016020841062000e5c575b601f830160051c8201811062000e4f57505062000ce9565b6000815560010162000e37565b508062000e37565b634e487b7160e01b600052602260045260246000fd5b90607f169062000cd5565b634e487b7160e01b600052604160045260246000fd5b01519050388062000c90565b9250600184016000526020600020906000935b601f198416851062000f02576001945083601f1981161062000ee8575b505050811b01600182015562000ca8565b015160001960f88460031b161c1916905538808062000ed7565b8181015183556020948501946001909301929091019062000eba565b909150600184016000526020600020601f840160051c81016020851062000f6e575b90849392915b601f830160051c8201811062000f5e57505062000c77565b6000815585945060010162000f46565b508062000f40565b91607f169162000c61565b01519050388062000c20565b9250836000526020600020906000935b601f198416851062000fe2576001945083601f1981161062000fc8575b505050811b01815562000c35565b015160001960f88460031b161c1916905538808062000fba565b8181015183556020948501946001909301929091019062000f9d565b909150836000526020600020601f840160051c8101602085106200104b575b90849392915b601f830160051c820181106200103b57505062000c07565b6000815585945060010162001023565b50806200101d565b91607f169162000bf1565b60405162461bcd60e51b815260206004820152601660248201527f4e6f7420636f6d706c69616e6365206f666669636572000000000000000000006044820152606490fd5b506008546001600160a01b0316331462000b6c565b6002840160005260206000209760005b601f19841681106200111d575060c06200035494600185600080516020620047488339815191529c620003459c9b999660069662000ad79c99601f1981161062000de557505050811b016002850155620002f7565b828201518a5560019099019860209283019201620010c8565b600284016000526020600020601f830160051c8101602084106200117a575b601f830160051c820181106200116d57505062000a60565b6000815560010162001155565b508062001155565b90607f169062000a4c565b01519050388062000a07565b9250600184016000526020600020906000935b601f1984168510620011f4576001945083601f19811610620011da575b505050811b01600182015562000a1f565b015160001960f88460031b161c19169055388080620011c9565b81810151835560209485019460019093019290910190620011ac565b909150600184016000526020600020601f840160051c81016020851062001260575b90849392915b601f830160051c8201811062001250575050620009ee565b6000815585945060010162001238565b508062001232565b91607f1691620009d8565b01519050388062000997565b9250836000526020600020906000935b601f1984168510620012d4576001945083601f19811610620012ba575b505050811b018155620009ac565b015160001960f88460031b161c19169055388080620012ac565b818101518355602094850194600190930192909101906200128f565b909150836000526020600020601f840160051c8101602085106200133d575b90849392915b601f830160051c820181106200132d5750506200097e565b6000815585945060010162001315565b50806200130f565b91607f169162000968565b506008546001600160a01b03163314620008da565b6002840160005260206000209760005b601f1984168110620013ca575060c06200035494600185600080516020620047488339815191529c620003459c9b99966006966200085c9c99601f1981161062000de557505050811b016002850155620002f7565b828201518a556001909901986020928301920162001375565b600284016000526020600020601f830160051c81016020841062001427575b601f830160051c820181106200141a575050620007e5565b6000815560010162001402565b508062001402565b90607f1690620007d1565b0151905038806200078c565b9250600184016000526020600020906000935b601f1984168510620014a1576001945083601f1981161062001487575b505050811b016001820155620007a4565b015160001960f88460031b161c1916905538808062001476565b8181015183556020948501946001909301929091019062001459565b909150600184016000526020600020601f840160051c8101602085106200150d575b90849392915b601f830160051c82018110620014fd57505062000773565b60008155859450600101620014e5565b5080620014df565b91607f16916200075d565b0151905038806200071c565b9250836000526020600020906000935b601f198416851062001581576001945083601f1981161062001567575b505050811b01815562000731565b015160001960f88460031b161c1916905538808062001559565b818101518355602094850194600190930192909101906200153c565b909150836000526020600020601f840160051c810160208510620015ea575b90849392915b601f830160051c82018110620015da57505062000703565b60008155859450600101620015c2565b5080620015bc565b91607f1691620006ed565b506008546001600160a01b0316331462000668565b6002840160005260206000209760005b601f198416811062001677575060c06200035494600185600080516020620047488339815191529c620003459c9b9996600696620005ea9c99601f1981161062000de557505050811b016002850155620002f7565b828201518a556001909901986020928301920162001622565b600284016000526020600020601f830160051c810160208410620016d4575b601f830160051c82018110620016c757505062000573565b60008155600101620016af565b5080620016af565b90607f16906200055f565b0151905038806200051a565b9250600184016000526020600020906000935b601f19841685106200174e576001945083601f1981161062001734575b505050811b01600182015562000532565b015160001960f88460031b161c1916905538808062001723565b8181015183556020948501946001909301929091019062001706565b909150600184016000526020600020601f840160051c810160208510620017ba575b90849392915b601f830160051c82018110620017aa57505062000501565b6000815585945060010162001792565b50806200178c565b91607f1691620004eb565b015190503880620004aa565b9250836000526020600020906000935b601f19841685106200182e576001945083601f1981161062001814575b505050811b018155620004bf565b015160001960f88460031b161c1916905538808062001806565b81810151835560209485019460019093019290910190620017e9565b909150836000526020600020601f840160051c81016020851062001897575b90849392915b601f830160051c820181106200188757505062000491565b600081558594506001016200186f565b508062001869565b91607f16916200047b565b506008546001600160a01b03163314620003ee565b6002840160005260206000209760005b601f198416811062001924575060c06200035494600185600080516020620047488339815191529c620003459c9b9996600696620003639c99601f1981161062000de557505050811b016002850155620002f7565b828201518a5560019099019860209283019201620018cf565b600284016000526020600020601f830160051c81016020841062001981575b601f830160051c82018110620019745750506200029e565b600081556001016200195c565b50806200195c565b90607f16906200028a565b01519050388062000245565b9250600184016000526020600020906000935b601f1984168510620019fb576001945083601f19811610620019e1575b505050811b0160018201556200025d565b015160001960f88460031b161c19169055388080620019d0565b81810151835560209485019460019093019290910190620019b3565b909150600184016000526020600020601f840160051c81016020851062001a67575b90849392915b601f830160051c8201811062001a575750506200022c565b6000815585945060010162001a3f565b508062001a39565b91607f169162000216565b015190503880620001d5565b9250836000526020600020906000935b601f198416851062001adb576001945083601f1981161062001ac1575b505050811b018155620001ea565b015160001960f88460031b161c1916905538808062001ab3565b8181015183556020948501946001909301929091019062001a96565b909150836000526020600020601f840160051c81016020851062001b44575b90849392915b601f830160051c8201811062001b34575050620001bc565b6000815585945060010162001b1c565b508062001b16565b91607f1691620001a6565b506008546001600160a01b0316331462000121565b600080fd5b6040519060e082016001600160401b0381118382101762000e8557604052565b60408051919082016001600160401b0381118382101762000e8557604052565b60005b83811062001bc55750506000910152565b818101518382015260200162001bb4565b9060209162001bf18151809281855285808601910162001bb1565b601f01601f191601019056fe60806040526004361015610069575b361561001957600080fd5b60405162461bcd60e51b815260206004820152602260248201527f446972656374206574686572207472616e7366657273206e6f7420616c6c6f77604482015261195960f21b6064820152608490fd5b6000803560e01c8063144e1c2d14611d06578063158ef93e14611ce15780631601966414611ca957806317ca06ab14611bef57806326d4468514611bc65780632951127114611b505780633981afc114611ac75780633eea21dc146118d2578063408def1e1461186d578063439766ce146117ca57806345282a921461170457806354fd4d50146116e65780635d65ad671461163957806366728c98146115c75780636ee315281461106857806370f047b01461104a57806374fc183214610ee357806375829def14610e655780637691c4ac14610e405780637cc1f86714610de75780638c44d9a414610d515780638d64cdbf14610ccb5780638f0176e714610c8c5780639b35570b14610a5f578063a8769c65146108f0578063ae03f6a3146108d2578063b7073672146108a9578063b8e8356f1461083b578063c4bc5da5146107c3578063cce4c80e146106ff578063ccf2258b14610680578063d8ceb62214610605578063e159825d14610521578063e1e57f98146103bf578063e5b6875b146102b0578063f2eb444f146102355763f851a4401461020c575061000e565b34610232578060031936011261023257546040516001600160a01b039091168152602090f35b80fd5b50346102325760203660031901126102325761024f611dff565b338252600660205260ff604083205416801561029c575b61026f90612323565b6001600160a01b03168152600360205260408120805461ffff191681556001810182905560040181905580f35b506008546001600160a01b03163314610266565b5034610232577f59e474304c28848514bd1efa64be936bb77b92c144002503db6e368e7f90297160c06102e236611ee1565b91338652600660205260ff60408720541680156103ab575b61030390612323565b61036560018060a01b03821693848852600360205260408820938015159481815461ff008860081b1661ff00198216178355816103a0575b5061038d575b5060405161034e81611e43565b600381526210535360ea1b94856020830152612542565b604051928352608060208401526003608084015260a08301526040820152336060820152a180f35b6002600182015560024291015538610341565b60ff9150163861033b565b506008546001600160a01b031633146102fa565b5034610232576040366003190112610232576004356001600160401b03811161051d576103f0903690600401611e9a565b602435801515808203610518573384526020916006835260ff6040862054168015610504575b61041f90612323565b60405161044c60018651928681818a019561043b818389611f71565b810160058152030190200154611fb9565b156104ce57916104b0849260036104946104c4977f1c285cebd863f0ce0f7f09fe22f0d6e552e6fd8b04fa132798018e1512049f029997604051809381928b51928391611f71565b81016005815203019020019060ff801983541691151516179055565b604051938493604085526040850190611f94565b918301520390a180f35b60405162461bcd60e51b815260048101859052600e60248201526d149d5b19481b9bdd08199bdd5b9960921b6044820152606490fd5b506008546001600160a01b03163314610416565b600080fd5b5080fd5b503461023257602036600319011261023257600435906001600160401b038211610232576105ce61056d602061055a3660048701611e9a565b8160405193828580945193849201611f71565b8101600581520301902061058081611ff3565b9061058d60018201611ff3565b61059960028301611ff3565b9160ff600382015416926105ea6004830154916105dc6006600586015495015495604051998a9960e08b5260e08b0190611f94565b9089820360208b0152611f94565b908782036040890152611f94565b9315156060860152608085015260a084015260c08301520390f35b5034610232576020366003190112610232576001600160a01b03610627611dff565b16815260036020526040812061067c815491600181015493600282015460048301549061066560036040600587015495600460205220549501611ff3565b90604051978760ff808b9a60081c16911689612099565b0390f35b5034610232576020366003190112610232577f6770c4f338cccfcc4c4627e6dcaa5a6892b441f73ffea5186197d156d83b55fd60206106bd611dff565b83546001600160a01b0391906106df90831633146106d9612191565b906121b6565b16808452600682526040808520805460ff1916600117905551908152a180f35b503461023257604036600319011261023257610719611dff565b6001600160a01b039081168252600460205260408220805460243591908210156107bf57906107479161215f565b5081815416906107b560018201549361076260028401611ff3565b926107a060ff60038301541692600561077d60048501611ff3565b93015416946040519788978852602088015260c0604088015260c0870190611f94565b91151560608601528482036080860152611f94565b9060a08301520390f35b8380fd5b50346102325780600319360112610232578060018060a01b036107ed8183541633146106d9612191565b60025416803b156108385781809160046040518094819363157c51d360e01b83525af1801561082d5761081d5750f35b61082690611e15565b6102325780f35b6040513d84823e3d90fd5b50fd5b503461023257604036600319011261023257610855611dff565b338252600660205260ff6040832054168015610895575b61087590612323565b6001600160a01b0316815260036020526040812060243560049091015580f35b506008546001600160a01b0316331461086c565b50346102325780600319360112610232576008546040516001600160a01b039091168152602090f35b50346102325780600319360112610232576020604051620151808152f35b5034610232578060031936011261023257610909612aa6565b610911612aa6565b9161091a612aa6565b9060405161092781611e28565b6005928382526020958683019460a0368737845b8181106109ba575050956109808192610972610965996040519a8b9a60808c5260808c0190612103565b908a8203868c0152612103565b9088820360408a0152612103565b92868403606088015251928381520193925b8281106109a157505050500390f35b8351151585528695509381019392810192600101610992565b8060ff60038a6109fb846109de9d9e9b9a9c9d6109d9610a549861295e565b6120dd565b926109eb60018501611ff3565b6109f58383612a92565b52612a92565b50610a0581611ff3565b610a0f8589612a92565b52610a1a8488612a92565b50610a2760028201611ff3565b610a31858a612a92565b52610a3c8489612a92565b50015416610a4a828a612a92565b9015159052612871565b97969593949761093b565b5034610232576060908160031936011261023257610a7b611dff565b6024359060443560018060a01b038092168452602090600482526040852090848254610aa78282612a6e565b831115610c8057610ab89250612a6e565b90949291945b610ac782612a7b565b94610ad56040519687611e5e565b828652601f19610ae484612a7b565b01855b818110610c40575050845b838110610ba957505050506040519380850191818652845180935260408601908260408560051b890101960194975b848910610b2e5787870388f35b9091929394958480600192603f198b82030187528951908682511681528282015183820152610b8b610b6e604084015160c0806040860152840190611f94565b878401511515888401526080808501519084830390850152611f94565b918760a0809201511691015298019401980197919094939294610b21565b80610bc4610bbe610c3793859b98999b612300565b8561215f565b5087600560405192610bd584611e28565b82815416845260018101548a850152610bf060028201611ff3565b6040850152600381015460ff1615158e850152610c0f60048201611ff3565b608085015201541660a0820152610c26828a612a92565b52610c318189612a92565b50612871565b96949396610af2565b9780959698604051610c5181611e28565b8a81528a838201528b60408201528a8c8201528b60808201528a60a082015282828b0101520197959497610ae7565b50509094929194610abe565b50346102325760203660031901126102325760209060ff906040906001600160a01b03610cb7611dff565b168152600684522054166040519015158152f35b5034610232576040366003190112610232576004356001600160401b03811161051d57610cfc903690600401611e9a565b6024356001600160a01b0381169190829003610518576020610d2b918160405193828580945193849201611f71565b8101600781520301902090600052602052602060ff604060002054166040519015158152f35b5034610232577f47ce6a0a45ef229786b8cf53f05efba95d395c2fa6694ec3ad5156c897a0363a610dcd610d8436611f2f565b929092338652600660205260ff6040872054168015610dd3575b610da790612323565b60405193849360018060a01b031684526020840152606060408401526060830190611f94565b0390a180f35b506008546001600160a01b03163314610d9e565b50346102325780600319360112610232575460025460015460a0926001600160a01b039283169160ff9190610e1a61229f565b93604051958316865260208601526040850152841c161515606083015215156080820152f35b50346102325780600319360112610232576020610e5b61229f565b6040519015158152f35b503461023257602036600319011261023257610e7f611dff565b8154906001600160a01b0380831691610ea1610e99612191565b8433146121b6565b610eaa81612ad8565b1680926001600160601b0360a01b161783557f7e644d79422f17c01e4894b5f4f588d331ebfa28653d42ae832dc59e38c9798f8380a380f35b503461023257606036600319011261023257610efd611dff565b602435906001600160a01b0390604435828116919082810361051857610f2a8487541633146106d9612191565b610f3261229f565b156110115785938216610f6c5750508180938192828215610f63575bf115610f575780f35b604051903d90823e3d90fd5b506108fc610f4e565b60405163a9059cbb60e01b602082019081526001600160a01b03929092166024820152604480820196909652948552611009948493508390610faf606482611e5e565b51925af13d1561100c573d610fc381611e7f565b90610fd16040519283611e5e565b81528360203d92013e5b60405190610fe882611e43565b600f82526e151c985b9cd9995c8819985a5b1959608a1b60208301526121b6565b80f35b610fdb565b60405162461bcd60e51b815260206004820152601160248201527014de5cdd195b481b9bdd081c185d5cd959607a1b6044820152606490fd5b50346102325780600319360112610232576020600954604051908152f35b50346102325760a0366003190112610232576004356001600160401b03811161051d57611099903690600401611e9a565b6024356001600160401b0381116115c3576110b8903690600401611e9a565b906044356001600160401b0381116107bf576110d8903690600401611e9a565b90338452600660205260ff60408520541680156115af575b6110f990612323565b60405160e081018181106001600160401b038211176115995760405281815283602082015282604082015260016060820152606435608082015260843560a08201524260c082015260405160208186516111568183858b01611f71565b810160058152030190209080518051906001600160401b0382116113fa5781906111808554611fb9565b601f811161154c575b50602090601f83116001146114e35789926114d8575b50508160011b916000199060031b1c19161782555b60208101518051906001600160401b0382116113fa5781906111d96001860154611fb9565b601f8111611488575b50602090601f831160011461141957899261140e575b50508160011b916000199060031b1c19161760018301555b60408101518051906001600160401b0382116113fa576112336002850154611fb9565b601f81116113b6575b5060209088601f84116001146113155760c06112ee9895856112fc967ff23590f8d80c3d0ba4d7d1873d6e0d73503b891a5ea08c5fb7efeca3bd68cdee9c9a96610dcd9a966006969261130a575b50508160011b916000199060031b1c19161760028501555b6112c160608201511515600386019060ff801983541691151516179055565b6080810151600485015560a081015160058501550151910155604051958695606087526060870190611f94565b908582036020870152611f94565b908382036040850152611f94565b01519050388061128a565b50906002850189526020892091895b601f198516811061139e575060c06112ee98956001867ff23590f8d80c3d0ba4d7d1873d6e0d73503b891a5ea08c5fb7efeca3bd68cdee9c9a96610dcd9a966006966112fc9a601f19811610611385575b505050811b0160028501556112a2565b015160001960f88460031b161c19169055388080611375565b91926020600181928685015181550194019201611324565b60028501895260208920601f840160051c8101602085106113f3575b601f830160051c820181106113e857505061123c565b8a81556001016113d2565b50806113d2565b634e487b7160e01b88526041600452602488fd5b0151905038806111f8565b9250600185018952602089209089935b601f198416851061146d576001945083601f19811610611454575b505050811b016001830155611210565b015160001960f88460031b161c19169055388080611444565b81810151835560209485019460019093019290910190611429565b90915060018501895260208920601f840160051c8101602085106114d1575b90849392915b601f830160051c820181106114c35750506111e2565b8b81558594506001016114ad565b50806114a7565b01519050388061119f565b9250848952602089209089935b601f1984168510611531576001945083601f19811610611518575b505050811b0182556111b4565b015160001960f88460031b161c1916905538808061150b565b818101518355602094850194600190930192909101906114f0565b90915084895260208920601f840160051c810160208510611592575b90849392915b601f830160051c82018110611584575050611189565b8b815585945060010161156e565b5080611568565b634e487b7160e01b600052604160045260246000fd5b506008546001600160a01b031633146110f0565b8280fd5b5034610232576020366003190112610232576040906001600160a01b036115ec611dff565b168152600360205220805461067c60018301549260028101549061161260038201611ff3565b6004820154906006600584015493015493604051978760ff808b9a60081c16911689612099565b503461023257604036600319011261023257806020611694611659611dff565b600254604051635d65ad6760e01b81526001600160a01b03928316600482015260248035908201529485939190921691839182906044820190565b03925af190811561082d5782916116b1575b602082604051908152f35b90506020813d82116116de575b816116cb60209383611e5e565b8101031261051d576020915051386116a6565b3d91506116be565b50346102325780600319360112610232576020600154604051908152f35b5034610232578060031936011261023257600254604051633e8dc9cf60e21b815291908190839060049082906001600160a01b03165afa80156117bd57818093818093611781575b50509061175c61067c9285612300565b6040519485941515855260208501526040840152608060608401526080830190611f94565b90915061067c945061175c93506117aa92503d8091833e6117a28183611e5e565b8101906121f3565b509450969491509491509394919261174c565b50604051903d90823e3d90fd5b50346102325780600319360112610232578060018060a01b036117f48183541633146106d9612191565b60025416803b1561083857819060e4604051809481936334cc128960e21b835260016004840152600160248401526001604484015262278d00606484015260a06084840152600b60a48401526a41646d696e20706175736560a81b60c48401525af1801561082d57611864575080f35b61100990611e15565b5034610232576020366003190112610232577f730abf329076f769aacddade69fbe7ca672a3c95fc1b7728ecf7b8f8cb705ed060406004356118bc60018060a01b0385541633146106d9612191565b600154908060015582519182526020820152a180f35b5034610232576040366003190112610232576118ec611dff565b6001600160401b0391906024358381116115c35761190e903690600401611e9a565b3383526020916006835260ff6040852054168015611ab3575b61193090612323565b60018060a01b03169081845260038352600360408520018151958611611a9f5761195a8154611fb9565b601f8111611a5c575b508395601f81116001146119d7579081610dcd939287987f130eaf911cd9e793a0aa72011b3d28708426b325096df62592198145f24a0f2798916119cc575b508160011b916000199060031b1c19161790555b6040805194859485528401526040830190611f94565b9050830151386119a2565b818652848620601f198216875b818110611a455750916001917f130eaf911cd9e793a0aa72011b3d28708426b325096df62592198145f24a0f27989982610dcd97969510611a2c575b5050811b0190556119b6565b85015160001960f88460031b161c191690553880611a20565b858a015183559887019860019092019187016119e4565b818652848620601f880160051c810191868910611a95575b601f0160051c01905b818110611a8a5750611963565b868155600101611a7d565b9091508190611a74565b634e487b7160e01b85526041600452602485fd5b506008546001600160a01b03163314611927565b5034610232576020366003190112610232577f62fb284f5d1a9d326f25d6900267a8cb39113f8484b351a73c1ada4014c668646040611b04611dff565b83546001600160a01b0390611b1f90821633146106d9612191565b611b2882612ad8565b80600254921690816001600160601b0360a01b8416176002558351921682526020820152a180f35b5034610232576020366003190112610232577f324590cd250ede40df823fef6b277ac70bf9636f8597b262a65605eb46148a1f6020611b8d611dff565b83546001600160a01b039190611ba990831633146106d9612191565b16808452600682526040808520805460ff1916905551908152a180f35b50346102325780600319360112610232576002546040516001600160a01b039091168152602090f35b503461023257604036600319011261023257611c09611dff565b338252600660205260ff6040832054168015611c95575b611c2990612323565b6001600160a01b03168152600360205260408120600681018054620151808101939291908410611c815760059293421015611c73575b5001611c6e6024358254612300565b905580f35b838383015542905538611c5f565b634e487b7160e01b83526011600452602483fd5b506008546001600160a01b03163314611c20565b503461023257611cc2611cbb36611f2f565b5090612368565b9061067c60405192839215158352604060208401526040830190611f94565b503461023257806003193601126102325760ff6020915460a01c166040519015158152f35b5034610232577f59e474304c28848514bd1efa64be936bb77b92c144002503db6e368e7f90297160c0611d3836611ee1565b91338652600660205260ff6040872054168015611deb575b611d5990612323565b6001600160a01b038116808752600360205260408720805460ff191660ff851515161781559093611daf9184611dd9575b5083604051611d9881611e43565b60038152624b594360e81b94856020830152612542565b604051928352608060208401526003608084015260a083015215156040820152336060820152a180f35b60018082015560024291015538611d8a565b506008546001600160a01b03163314611d50565b600435906001600160a01b038216820361051857565b6001600160401b03811161159957604052565b60c081019081106001600160401b0382111761159957604052565b604081019081106001600160401b0382111761159957604052565b90601f801991011681019081106001600160401b0382111761159957604052565b6001600160401b03811161159957601f01601f191660200190565b81601f8201121561051857803590611eb182611e7f565b92611ebf6040519485611e5e565b8284526020838301011161051857816000926020809301838601378301015290565b6060600319820112610518576004356001600160a01b0381168103610518579160243580151581036105185791604435906001600160401b03821161051857611f2c91600401611e9a565b90565b6060600319820112610518576004356001600160a01b0381168103610518579160243591604435906001600160401b03821161051857611f2c91600401611e9a565b60005b838110611f845750506000910152565b8181015183820152602001611f74565b90602091611fad81518092818552858086019101611f71565b601f01601f1916010190565b90600182811c92168015611fe9575b6020831014611fd357565b634e487b7160e01b600052602260045260246000fd5b91607f1691611fc8565b906040519182600082549261200784611fb9565b9081845260019485811690816000146120765750600114612033575b505061203192500383611e5e565b565b9093915060005260209081600020936000915b81831061205e57505061203193508201013880612023565b85548884018501529485019487945091830191612046565b91505061203194506020925060ff191682840152151560051b8201013880612023565b9491926120ce9360e0979a99989592151587521515602087015260408601526060850152610100806080860152840190611f94565b9560a083015260c08201520152565b60206120f6918160405193828580945193849201611f71565b8101600581520301902090565b908082519081815260208091019281808460051b8301019501936000915b8483106121315750505050505090565b909192939495848061214f600193601f198682030187528a51611f94565b9801930193019194939290612121565b805482101561217b576000526006602060002091020190600090565b634e487b7160e01b600052603260045260246000fd5b6040519061219e82611e43565b60098252682737ba1030b236b4b760b91b6020830152565b156121be5750565b60405162461bcd60e51b8152602060048201529081906121e2906024830190611f94565b0390fd5b5190811515820361051857565b91906101008382031261051857612209836121e6565b92612216602082016121e6565b92612223604083016121e6565b92612230606084016121e6565b9260808101519260a08201519260c08301516001600160401b0381116105185783019080601f830112156105185781519161226a83611e7f565b916122786040519384611e5e565b838352602084830101116105185760e0926122999160208085019101611f71565b92015190565b600254604051633e8dc9cf60e21b815290600090829060049082906001600160a01b03165afa9081156122f4576000916122d7575090565b6122ea913d8091833e6117a28183611e5e565b5050505050505090565b6040513d6000823e3d90fd5b9190820180921161230d57565b634e487b7160e01b600052601160045260246000fd5b1561232a57565b60405162461bcd60e51b81526020600482015260166024820152752737ba1031b7b6b83634b0b731b29037b33334b1b2b960511b6044820152606490fd5b6001600160a01b0316600090815260036020908152604080832080549195949293929160ff81161580612530575b6124c15760081c60ff1615806124ae575b612474576123b9826005830154612300565b60048201541061243b57906123d360036123d89301611ff3565b612880565b1561240357506810dbdb5c1b1a585b9d60ba1b60019351916123f983611e43565b6009835282015290565b7f4a7572697364696374696f6e616c206c696d69747320657863656564656400009093519161243183611e43565b601e835282015290565b50507f4461696c79207472616e73616374696f6e206c696d69742065786365656465649093519161246b83611e43565b80835282015290565b50507f414d4c20766572696669636174696f6e20726571756972656400000000000000909351916124a483611e43565b6019835282015290565b5069021e19e0c9bab240000082116123a7565b5050509092819381519260608401908482106001600160401b0383111761251c57508252602383527f4b594320726571756972656420666f72206c61726765207472616e736163746990830152626f6e7360e81b9082015290565b634e487b7160e01b81526041600452602490fd5b50683635c9adc5dea000008311612396565b6001600160a01b03166000818152600460205260409081902090519493929161256a86611e28565b855260208501934285526040860192835260608601931515845260808601523360a0860152805468010000000000000000811015611599576125b19160018201815561215f565b93909361285b57845184546001600160a01b0319166001600160a01b0391909116178455516001840155518051906001600160401b038211611599576125fa6002850154611fb9565b601f8111612810575b50602090601f831160011461279c5761265193929160009183612791575b50508160011b916000199060031b1c19161760028401555b511515600383019060ff801983541691151516179055565b6004810160808301518051906001600160401b038211611599576126758354611fb9565b601f8111612749575b50602090601f83116001146126dd57600594939291600091836126d2575b50508160011b916000199060031b1c19161790555b019060a0600180821b03910151166001600160601b0360a01b825416179055565b01519050388061269c565b90601f198316918460005260206000209260005b818110612731575091600193918560059897969410612718575b505050811b0190556126b1565b015160001960f88460031b161c1916905538808061270b565b929360206001819287860151815501950193016126f1565b836000526020600020601f840160051c81019160208510612787575b601f0160051c01905b81811061277b575061267e565b6000815560010161276e565b9091508190612765565b015190503880612621565b906002850160005260206000209160005b601f19851681106127f857509183916001936126519695601f198116106127df575b505050811b016002840155612639565b015160001960f88460031b161c191690553880806127cf565b919260206001819286850151815501940192016127ad565b600285016000526020600020601f840160051c81019160208510612851575b601f0160051c01905b8181106128455750612603565b60008155600101612838565b909150819061282f565b634e487b7160e01b600052600060045260246000fd5b600019811461230d5760010190565b6000908192600954935b84811061289b575050505050600190565b6128a76109d98261295e565b60ff60038201541690816128fc575b816128d7575b506128cf576128ca90612871565b61288a565b505050905090565b60048101548410915081156128ee575b50386128bc565b6005915001548211386128e7565b905061290781611ff3565b6040908151906020916129368382816129298183019687815193849201611f71565b8101038084520182611e5e565b51902091516129548282019282816129298b87815193849201611f71565b51902014906128b6565b8015612a475760018114612a2057600281146129f957600381146129d2576004146129a657604051602081018181106001600160401b03821117611599576040526000815290565b6040516129b281611e43565b601081526f474c4f42414c5f53414e4354494f4e5360801b602082015290565b506040516129df81611e43565b600a81526945555f414d4c5f30303160b01b602082015290565b50604051612a0681611e43565b600a81526945555f4b59435f30303160b01b602082015290565b50604051612a2d81611e43565b600a81526955535f414d4c5f30303160b01b602082015290565b50604051612a5481611e43565b600a81526955535f4b59435f30303160b01b602082015290565b9190820391821161230d57565b6001600160401b0381116115995760051b60200190565b805182101561217b5760209160051b010190565b60405190612ab382611e28565b600582528160005b60a08110612ac7575050565b806060602080938501015201612abb565b60405161203191612ae882611e43565b600f82526e496e76616c6964206164647265737360881b60208301526001600160a01b031615156121b656fea2646970667358221220b8356d4967ea594c32f0ee9c986353c61a183d9173dfce40624a1ea63e2317cf64736f6c63430008130033f23590f8d80c3d0ba4d7d1873d6e0d73503b891a5ea08c5fb7efeca3bd68cdee60808060405234610040573360018060a01b031960035416176003553360005260006020526040600020600160ff198254161790556118e190816100468239f35b600080fdfe6080604052600436101561001257600080fd5b60e0600035811c80630775ef0f146114525780630c6dd9fd146113d0578063157c51d3146112de578063179efb09146112665780632799657d1461124857806329575f6a1461121f5780634a9122e31461120157806355002b75146111725780635d65ad6714610ec95780635f00e0c614610e545780636c302b4414610d35578063739e663014610b2e5780637a9a93f414610ab95780637b7e526714610a64578063b50240fe14610a2a578063bc5e9ebe146109eb578063c37fc8a8146108f0578063d3304a24146105c7578063f1df3456146102a5578063f8a338a51461022b5763fa37273c1461010457600080fd5b346102265760003660031901126102265760405181810181811067ffffffffffffffff821117610210576040526004549160ff831615158252602082019160ff8460081c16151583526101ff604082019460ff8160101c161515865260ff606084019160181c16151581526005546080840190815260065460a0850190815261018b6115d6565b9160c086019283526101a08151835190611786565b804210600014610207576101b5904290611827565b955b51151597511515985115159351151590519151925193604051998a998a5260208a015260408901526060880152608087015260a08601526101008060c0870152850190611682565b918301520390f35b506000956101b7565b634e487b7160e01b600052604160045260246000fd5b600080fd5b50346102265760003660031901126102265760ff906102a160045491600554906006546102566115d6565b9260405196868189981615158852818160081c1615156020890152818160101c161515604089015260181c1615156060870152608086015260a08501528060c0850152830190611682565b0390f35b346102265760403660031901126102265767ffffffffffffffff600435818111610226576102d790369060040161156b565b9091602435908111610226576102f190369060040161156b565b91909233600052600060205260ff6040600020541680156105b3575b610316906116c2565b82820361057e5760005b82811061032957005b61033481848461185b565b359061034181868861185b565b359182151583036102265733600052600060205260ff60406000205416801561056a575b61036e906116c2565b80600052600260205260406000206004810180549060ff821661053157600383015462015180810180911161051b5742106104e45761ffff1990911685151560081b61ff001617600117905583610416575b60008051602061186c833981519152916104119460a092600180851b0390600282825416926001830154169101549160405194855260208501526040840152606083015215156080820152a161184c565b610320565b60018101548154600283015460405163a9059cbb60e01b81526001600160a01b03928316600482015260248101919091529095909391602090859060449082906000908b165af19283156104d8576104119661048c60a09560008051602061186c833981519152976000916104a9575b506117ab565b8154166000526001602052600060408120559250945091506103c0565b6104cb915060203d6020116104d1575b6104c38183611549565b810190611793565b8e610486565b503d6104b9565b6040513d6000823e3d90fd5b60405162461bcd60e51b815260206004820152600f60248201526e10dbdbdb191bdddb881c195c9a5bd9608a1b6044820152606490fd5b634e487b7160e01b600052601160045260246000fd5b60405162461bcd60e51b8152602060048201526011602482015270105b1c9958591e481c1c9bd8d95cdcd959607a1b6044820152606490fd5b506003546001600160a01b03163314610365565b60405162461bcd60e51b815260206004820152600d60248201526c125b9d985b1a59081a5b9c1d5d609a1b6044820152606490fd5b506003546001600160a01b0316331461030d565b346102265760a036600319011261022657600435801515809103610226576105ed61153a565b604435918215158093036102265760643560843567ffffffffffffffff948582116102265736602383011215610226578160040135938685116102105760405195602095601f1994610646601f8301871689018a611549565b8189523660248383010111610226578160009260248a9301838c013789010152336000526000865260ff6040600020541680156108dc575b610687906116c2565b62278d008511610897576004549160ff831661085a579062ff000063ff0000009594939261ff00600197889660181b169463ffffffff19169160081b161791151560101b1617171760045542600555826006558451958611610210576106ee60075461159c565b601f8111610805575b508390601f87116001146107745750948080610760969594937f1afc9a745f93ec77943b1a4555e0a06a23052f1f1e63bc5ffee991fe3104bacd98600093610769575b501b916000199060031b1c1916176007555b604051938493604085526040850190611682565b918301520390a1005b87015192508961073a565b861690600760005260008051602061188c8339815191529160005b8181106107f057509187917f1afc9a745f93ec77943b1a4555e0a06a23052f1f1e63bc5ffee991fe3104bacd986107609897969594106107d7575b5050811b0160075561074c565b86015160001960f88460031b161c1916905587806107ca565b8783015184559284019291860191860161078f565b600760005260008051602061188c833981519152601f880160051c810191868910610850575b601f0160051c019083905b8281106108445750506106f7565b60008155018390610836565b909150819061082b565b60405162461bcd60e51b815260048101889052601560248201527414de5cdd195b48185b1c9958591e481c185d5cd959605a1b6044820152606490fd5b60405162461bcd60e51b815260048101879052601760248201527f5061757365206475726174696f6e20746f6f206c6f6e670000000000000000006044820152606490fd5b506003546001600160a01b0316331461067e565b3461022657600036600319011261022657600060085461090f81611834565b61091c6040519182611549565b81815261092882611834565b6020938285019391601f190136853760005b8281106109855750505090604051928392818401908285525180915260408401929160005b82811061096e57505050500390f35b83518552869550938101939281019260010161095f565b806000526002865260ff60046040600020015416156109ad575b6109a89061184c565b61093a565b9083518110156109d5576109cd8183886109a89460051b8801015261184c565b91905061099f565b634e487b7160e01b600052603260045260246000fd5b34610226576020366003190112610226576001600160a01b03610a0c611524565b166000526000602052602060ff604060002054166040519015158152f35b34610226576020366003190112610226576001600160a01b03610a4b611524565b1660005260016020526020604060002054604051908152f35b3461022657602036600319011261022657610a7d611524565b600354906001600160a01b0390610a9733838516146117e9565b610aa560ff60045416611746565b6001600160a01b0319909216911617600355005b34610226576020366003190112610226577f96903ccf75a03683e56434e0f2926f527b559127b4e4b23fc234ce2b5109c7f86020610af5611524565b6003546001600160a01b039190610b0f90831633146117e9565b168060005260008252604060002060ff198154169055604051908152a1005b3461022657604036600319011261022657600435610b4a61153a565b3360005260206000815260ff604060002054168015610d21575b610b6d906116c2565b8260005260028152604060002060048101805460ff8116610ce857600383015462015180810180911161051b574210610cb15761ffff191684151560081b61ff001617600117905582610c04575b9160008051602061186c833981519152939160a093600180861b0360028183541691600184015416920154926040519586528501526040840152606083015215156080820152a1005b60018101548154600283015460405163a9059cbb60e01b81526001600160a01b03928316600482015260248101919091529590949093909290918290879060449082906000908a165af19485156104d857610c7860a09660008051602061186c83398151915298600091610c9457506117ab565b8154166000526001825260006040812055919350919350610bbb565b610cab9150853d87116104d1576104c38183611549565b89610486565b60405162461bcd60e51b815260048101859052600f60248201526e10dbdbdb191bdddb881c195c9a5bd9608a1b6044820152606490fd5b60405162461bcd60e51b8152600481018590526011602482015270105b1c9958591e481c1c9bd8d95cdcd959607a1b6044820152606490fd5b506003546001600160a01b03163314610b64565b3461022657606036600319011261022657610d4e611524565b6024356044356001600160a01b03808216908183036102265783602091610dd396336000526000845260ff604060002054168015610e47575b610d90906116c2565b610d9e60ff60045416611746565b60405163a9059cbb60e01b81526001600160a01b03909616600487015260248601929092529395931692859081906044820190565b03816000865af19283156104d857610e166060947f1eadb3d0c63d81bf1c4800d2630a76ccdeb92dde6127f48577a5e792233af37596600091610e2957506117ab565b60405192835260208301526040820152a1005b610e41915060203d81116104d1576104c38183611549565b87610486565b5060035482163314610d87565b3461022657602036600319011261022657600435600052600260205260c0604060002060ff60018060a01b0391828154169260018201541690600281015460046003830154920154926040519586526020860152604085015260608401528181161515608084015260081c16151560a0820152f35b503461022657604036600319011261022657610ee3611524565b602490813560ff60045460081c166111395780156111045733600052602093600185526040600020546110c05733600052600185526040600020549060405191868301913360601b835260018060a01b0391828716966bffffffffffffffffffffffff199060601b16603486015285604886015242606886015260888501526088845260c084019267ffffffffffffffff90858510828611176110ab578460405285519020976101808601918583109083111761109757506004608096948a611069957f1c381d8f9487dfce4e34fdcb2c79d9d78f16dd24c348fd99efb8d526983f8d589a98958c95604052338452860189815261010087019189835260026101208901944286526101606101408b019a60008c52019860008a5260005252806040600020955116906bffffffffffffffffffffffff60a01b91828754161786556001860192511690825416179055516002830155516003820155019151151560ff8019845416911617825551151561ff00825491151560081b169061ff001916179055565b33600052600186524260406000205560405191858352338784015260408301526060820152a1604051908152f35b634e487b7160e01b60009081526041600452fd5b88634e487b7160e01b60005260416004526000fd5b60405162461bcd60e51b8152600481018690526019818601527f50656e64696e67207769746864726177616c20657869737473000000000000006044820152606490fd5b60405162461bcd60e51b815260206004820152600e818501526d125b9d985b1a5908185b5bdd5b9d60921b6044820152606490fd5b60405162461bcd60e51b8152602060048201526012818501527115da5d1a191c985dd85b1cc81c185d5cd95960721b6044820152606490fd5b34610226576020366003190112610226576001600160a01b03611193611524565b166000526001602052604060002054801515600081806111ec575b6111c8575b60609260405192835260208301526040820152f35b506201518082019182811161051b576111e46060934290611827565b9092506111b3565b5062015180830180841161051b5742106111ae565b34610226576000366003190112610226576020600854604051908152f35b34610226576000366003190112610226576003546040516001600160a01b039091168152602090f35b3461022657600036600319011261022657602060405162278d008152f35b34610226576020366003190112610226577f2bbc948ec094d6153be3d4fca4cbb562ba47d9a8449d39fe557aa4d9c2319b3460206112a2611524565b6003546001600160a01b0391906112bc90831633146117e9565b1680600052600082526040600020600160ff19825416179055604051908152a1005b346102265760003660031901126102265733600052600060205260ff6040600020541680156113bc575b611311906116c2565b60045461132060ff8216611746565b61132f60055460065490611786565b42106113835763ffffffff1916600455600060065561135761135260075461159c565b611704565b60006007557f8405beb5718fa80e67847f8f4174dc9f80fed07680154149a25ce0cf37418350600080a1005b60405162461bcd60e51b815260206004820152601160248201527014185d5cd9481b9bdd08195e1c1a5c9959607a1b6044820152606490fd5b506003546001600160a01b03163314611308565b34610226576020366003190112610226576113e9611524565b600354906001600160a01b039061140333838516146117e9565b1690811561141b576001600160a01b03191617600355005b60405162461bcd60e51b815260206004820152600f60248201526e496e76616c6964206164647265737360881b6044820152606490fd5b346102265760003660031901126102265733600052600060205260ff604060002054168015611510575b611485906116c2565b630101010163ffffffff196004541617600455426005557f1afc9a745f93ec77943b1a4555e0a06a23052f1f1e63bc5ffee991fe3104bacd608062278d00806006556114d561135260075461159c565b721153515491d15390d657d4105554d157d05313606a1b906026820160075560405191604083526013604084015260608301526020820152a1005b506003546001600160a01b0316331461147c565b600435906001600160a01b038216820361022657565b60243590811515820361022657565b90601f8019910116810190811067ffffffffffffffff82111761021057604052565b9181601f840112156102265782359167ffffffffffffffff8311610226576020808501948460051b01011161022657565b90600182811c921680156115cc575b60208310146115b657565b634e487b7160e01b600052602260045260246000fd5b91607f16916115ab565b60405190600082600754916115ea8361159c565b808352926001908181169081156116605750600114611613575b5061161192500383611549565b565b60076000908152915060008051602061188c8339815191525b8483106116455750611611935050810160200138611604565b81935090816020925483858a0101520191019091859261162c565b90506020925061161194915060ff191682840152151560051b82010138611604565b919082519283825260005b8481106116ae575050826000602080949584010152601f8019910116010190565b60208183018101518483018201520161168d565b156116c957565b60405162461bcd60e51b81526020600482015260136024820152722737ba1032b6b2b933b2b731bc9030b236b4b760691b6044820152606490fd5b601f811161170f5750565b600060078152601f60008051602061188c833981519152920160051c8201915b82811061173b57505050565b81815560010161172f565b1561174d57565b60405162461bcd60e51b815260206004820152601160248201527014de5cdd195b481b9bdd081c185d5cd959607a1b6044820152606490fd5b9190820180921161051b57565b90816020910312610226575180151581036102265790565b156117b257565b60405162461bcd60e51b815260206004820152600f60248201526e151c985b9cd9995c8819985a5b1959608a1b6044820152606490fd5b156117f057565b60405162461bcd60e51b815260206004820152600f60248201526e2737ba1039bab832b91030b236b4b760891b6044820152606490fd5b9190820391821161051b57565b67ffffffffffffffff81116102105760051b60200190565b600019811461051b5760010190565b91908110156109d55760051b019056feccd78db4eb8bc6e5a260daba1a6835af3763927165be6e4e4f3becc69792cb75a66cc928b5edb82af9bd49922954155ab7b0942694bea4ce44661d9a8736c688a2646970667358221220fb8939f03edc43990999eef90e904cf50ffd79277338ac6e86a40327a1b9b89a64736f6c634300081300336080346200108057601f6200399938819003918201601f19168301916001600160401b03831184841017620009f2578084926020946040528339810103126200108057516001600160a01b03811690819003620010805760018060a01b0319903382600054161760005581600254161760025560018055339060075416176007556200008a620010a5565b600a815269554e49535741505f563360b01b6020820152620000ab620010a5565b6002815261763360f01b6020820152620000e66040516020818551620000d58183858a01620010c5565b8101600381520301902054620010ea565b62000acb57620000f562001085565b9082825260006020830152600160408301526001606083015260808201524260a08201526040516020818451620001308183858901620010c5565b8101600381520301902091815192835160018060401b038111620009f2576200015a8254620010ea565b601f811162001037575b506020601f821160011462000fc957819293949560009262000fbd575b50508160011b916000199060031b1c19161781555b6020830151600182018054604086015160ff60a01b90151560a01b166001600160a01b039093166001600160a81b03199091161791909117905560608301516002820155608083015180519093906001600160401b038111620009f257620002026003840154620010ea565b601f811162000f71575b506020601f821160011462000ee857918160a092600494600080516020620039798339815191529860009262000edc575b50508160011b916000199060031b1c19161760038501555b01519101556080604051809260608252620002808151809281606086015260208686019101620010c5565b6000602083015260016040830152601f01601f19168101030190a1620002a5620010a5565b6007815266414156455f563360c81b6020820152620002c3620010a5565b6002815261763360f01b60208201526007546001600160a01b03163314801562000ec7575b1562000b1057620003096040516020818551620000d58183858a01620010c5565b62000acb576200031862001085565b9082825260006020830152600160408301526002606083015260808201524260a08201526040516020818451620003538183858901620010c5565b8101600381520301902091815192835160018060401b038111620009f2576200037d8254620010ea565b601f811162000e7e575b506020601f821160011462000e1057819293949560009262000e04575b50508160011b916000199060031b1c19161781555b6020830151600182018054604086015160ff60a01b90151560a01b166001600160a01b039093166001600160a81b03199091161791909117905560608301516002820155608083015180519093906001600160401b038111620009f257620004256003840154620010ea565b601f811162000db8575b506020601f821160011462000d2f57918160a092600494600080516020620039798339815191529860009262000d23575b50508160011b916000199060031b1c19161760038501555b01519101556080604051809260608252620004a38151809281606086015260208686019101620010c5565b6000602083015260026040830152601f01601f19168101030190a1620004c8620010a5565b6009815268434841494e4c494e4b60b81b6020820152620004e8620010a5565b6002815261763160f01b60208201526007546001600160a01b03163314801562000d0e575b1562000b10576200052e6040516020818551620000d58183858a01620010c5565b62000acb576200053d62001085565b9082825260006020830152600160408301526003606083015260808201524260a08201526040516020818451620005788183858901620010c5565b8101600381520301902091815192835160018060401b038111620009f257620005a28254620010ea565b601f811162000cc5575b506020601f821160011462000c5757819293949560009262000c4b575b50508160011b916000199060031b1c19161781555b6020830151600182018054604086015160ff60a01b90151560a01b166001600160a01b039093166001600160a81b03199091161791909117905560608301516002820155608083015180519093906001600160401b038111620009f2576200064a6003840154620010ea565b601f811162000bff575b506020601f821160011462000b7657918160a092600494600080516020620039798339815191529860009262000b6a575b50508160011b916000199060031b1c19161760038501555b01519101556080604051809260608252620006c88151809281606086015260208686019101620010c5565b6000602083015260036040830152601f01601f19168101030190a1620006ed620010a5565b60098152680a8908abe8ea482a0960bb1b60208201526200070d620010a5565b6002815261763160f01b60208201526007546001600160a01b03163314801562000b55575b1562000b1057620007536040516020818551620000d58183858a01620010c5565b62000acb576200076262001085565b9082825260006020830152600160408301526004606083015260808201524260a082015260405160208184516200079d8183858901620010c5565b8101600381520301902091815192835160018060401b038111620009f257620007c78254620010ea565b601f811162000a82575b506020601f821160011462000a1457819293949560009262000a08575b50508160011b916000199060031b1c19161781555b6020830151600182018054604086015160ff60a01b90151560a01b166001600160a01b039093166001600160a81b031990911617919091179055606083015160028201556080830151805160038301916001600160401b038211620009f2576200086e8354620010ea565b601f8111620009a5575b50602090601f83116001146200092257928260a09360008051602062003979833981519152989360049660009262000916575b50508160011b916000199060031b1c19161790555b01519101556080604051809260608252620008eb8151809281606086015260208686019101620010c5565b6000602083015260046040830152601f01601f19168101030190a16040516128519081620011288239f35b015190503880620008ab565b90601f198316918460005260206000209260005b8181106200098c575093600080516020620039798339815191529893600496936001938360a0981062000972575b505050811b019055620008c0565b015160001960f88460031b161c1916905538808062000964565b9293602060018192878601518155019501930162000936565b836000526020600020601f840160051c81019160208510620009e7575b601f0160051c01905b818110620009da575062000878565b60008155600101620009cb565b9091508190620009c2565b634e487b7160e01b600052604160045260246000fd5b015190503880620007ee565b8260005260206000209060005b601f198416811062000a69575060019394959683601f1981161062000a4f575b505050811b01815562000803565b015160001960f88460031b161c1916905538808062000a41565b9091602060018192858b01518155019301910162000a21565b826000526020600020601f830160051c81016020841062000ac3575b601f830160051c8201811062000ab6575050620007d1565b6000815560010162000a9e565b508062000a9e565b60405162461bcd60e51b815260206004820152601a60248201527f496e746567726174696f6e20616c7265616479206578697374730000000000006044820152606490fd5b60405162461bcd60e51b815260206004820152601760248201527f4e6f7420696e746567726174696f6e206d616e616765720000000000000000006044820152606490fd5b506000546001600160a01b0316331462000732565b01519050388062000685565b6003840160005260206000209560005b601f198416811062000be657508260008051602062003979833981519152976004959360019360a096601f1981161062000bcc575b505050811b0160038501556200069d565b015160001960f88460031b161c1916905538808062000bbb565b8282015188556001909701966020928301920162000b86565b600384016000526020600020601f830160051c81016020841062000c43575b601f830160051c8201811062000c3657505062000654565b6000815560010162000c1e565b508062000c1e565b015190503880620005c9565b8260005260206000209060005b601f198416811062000cac575060019394959683601f1981161062000c92575b505050811b018155620005de565b015160001960f88460031b161c1916905538808062000c84565b9091602060018192858b01518155019301910162000c64565b826000526020600020601f830160051c81016020841062000d06575b601f830160051c8201811062000cf9575050620005ac565b6000815560010162000ce1565b508062000ce1565b506000546001600160a01b031633146200050d565b01519050388062000460565b6003840160005260206000209560005b601f198416811062000d9f57508260008051602062003979833981519152976004959360019360a096601f1981161062000d85575b505050811b01600385015562000478565b015160001960f88460031b161c1916905538808062000d74565b8282015188556001909701966020928301920162000d3f565b600384016000526020600020601f830160051c81016020841062000dfc575b601f830160051c8201811062000def5750506200042f565b6000815560010162000dd7565b508062000dd7565b015190503880620003a4565b8260005260206000209060005b601f198416811062000e65575060019394959683601f1981161062000e4b575b505050811b018155620003b9565b015160001960f88460031b161c1916905538808062000e3d565b9091602060018192858b01518155019301910162000e1d565b826000526020600020601f830160051c81016020841062000ebf575b601f830160051c8201811062000eb257505062000387565b6000815560010162000e9a565b508062000e9a565b506000546001600160a01b03163314620002e8565b0151905038806200023d565b6003840160005260206000209560005b601f198416811062000f5857508260008051602062003979833981519152976004959360019360a096601f1981161062000f3e575b505050811b01600385015562000255565b015160001960f88460031b161c1916905538808062000f2d565b8282015188556001909701966020928301920162000ef8565b600384016000526020600020601f830160051c81016020841062000fb5575b601f830160051c8201811062000fa85750506200020c565b6000815560010162000f90565b508062000f90565b01519050388062000181565b8260005260206000209060005b601f19841681106200101e575060019394959683601f1981161062001004575b505050811b01815562000196565b015160001960f88460031b161c1916905538808062000ff6565b9091602060018192858b01518155019301910162000fd6565b826000526020600020601f830160051c81016020841062001078575b601f830160051c820181106200106b57505062000164565b6000815560010162001053565b508062001053565b600080fd5b6040519060c082016001600160401b03811183821017620009f257604052565b60408051919082016001600160401b03811183821017620009f257604052565b60005b838110620010d95750506000910152565b8181015183820152602001620010c8565b90600182811c921680156200111c575b60208310146200110657565b634e487b7160e01b600052602260045260246000fd5b91607f1691620010fa56fe608080604052600436101561006b575b50361561001b57600080fd5b60405162461bcd60e51b815260206004820152602260248201527f446972656374206574686572207472616e7366657273206e6f7420616c6c6f77604482015261195960f21b6064820152608490fd5b600090813560e01c908163158ef93e1461207a575080631913ef411461202d57806326d446851461200457806331e0ae1d14611f105780633981afc114611e74578063408def1e14611e0f57806341976e0914611deb578063439766ce14611d4857806345282a9214611c7a5780634bb846e114611c4257806354fd4d5014611c2457806359bc9e8314611b865780635a76212014611b685780635d65ad6714611abb5780635f13f78e14610c2357806361b73ae6146119ea578063635c6fc11461191f5780636ddd1fd4146117af57806370d2ddf4146117605780637254f06a1461173757806374fc1832146115f257806375829def146115745780637691c4ac1461154f5780637cc1f867146114f657806383509080146113f65780638e18cdfc146111145780639c9dcea3146110f65780639dcb511a14611090578063ad2ff25a14610fd2578063c4bc5da514610f5f578063c61c806214610c62578063cb74ad4c14610c23578063cde01440146107a4578063d172f2f01461074c578063d1f91726146104dd578063d3a24fbc1461044e578063d8bcdc8f1461037f578063f851a440146103585763fd4690b60361000f57346103555760603660031901126103555761023a61209c565b6102426120b2565b6044359160ff8316809303610351576007547fa8abe0398416476db5b05737cd4da3b3cbde5012d978a6a6c3fd49d321753536936001600160a01b0391821633148015610345575b6102939061248f565b604051916102a083612110565b808416908184526001602085019482881686526040810194855260608101938285528a5260046020528260408b209151166001600160601b0360a01b8254161781550193511683549260ff60a01b905160a01b169160ff60a81b9051151560a81b169269ffffffffffffffffffff60b01b16171717905561033f6040519283928390602090939293604083019460018060a01b03809216845216910152565b0390a180f35b5085548216331461028a565b8380fd5b80fd5b5034610355578060031936011261035557546040516001600160a01b039091168152602090f35b503461035557602036600319011261035557600435906001600160401b038211610355576104156103cb60206103b83660048701612195565b81604051938285809451938492016120c8565b810160038152030190206103de8161227a565b90610444600182015460028301549260046103fb6003830161227a565b9101549360ff60405197889760c0895260c08901906120eb565b6001600160a01b038516602089015260a09490941c1615156040870152606086015284820360808601526120eb565b9060a08301520390f35b5034610355576040366003190112610355577f77c20208cd7e01a3ac49a77a10791ff815d4994e3297d40f1762a9c5eaeb94ae61033f61048c61209c565b6007546104ae90336001600160a01b03918216149081156104d0575b5061248f565b604080516001600160a01b039092168252602435602083015290918291820190565b90508554163314386104a8565b5034610355576080366003190112610355576004356104fa6120b2565b6001600160a01b0392604435919060643590858216820361074757600481876002541660405192838092633e8dc9cf60e21b82525afa90811561073c5790610553918391610713575b5061054c6126ab565b9015612345565b61056360ff825460a01c166126d4565b8481526020956005875260ff600160408420015460a01c16156106d6578316908181526006875260ff6040822054161561069a576040516323b872dd60e01b8152336004820152306024820152604481018690529187908390606490829085905af190811561068e578091610655575b506105de9150612720565b60405193858501933360601b85526001600160601b0319809460601b1660348701526048860152606885015260601b16608883015242609c830152609c825260c08201918083106001600160401b0384111761063f57826040525190208152f35b634e487b7160e01b600052604160045260246000fd5b90508682813d8311610687575b61066c8183612159565b8101031261035557506106816105de91612375565b386105d3565b503d610662565b604051903d90823e3d90fd5b60405162461bcd60e51b8152600481018890526014602482015273151bdad95b881b9bdd081a5b9d1959dc985d195960621b6044820152606490fd5b60405162461bcd60e51b8152600481018890526015602482015274109c9a5919d9481b9bdd0818dbdb999a59dd5c9959605a1b6044820152606490fd5b61072f91503d8085833e6107278183612159565b810190612382565b5050505050505038610543565b6040513d84823e3d90fd5b600080fd5b5034610355576020366003190112610355576040608091600435815260056020522080549060ff600260018301549201549160405193845260018060a01b038116602085015260a01c16151560408301526060820152f35b5034610355576080366003190112610355576004356001600160401b038111610c1f576107d5903690600401612195565b6107dd6120b2565b6064356001600160401b038111610351576107fc903690600401612195565b6007546001600160a01b031633148015610c0c575b61081a9061248f565b60405190610846845192602081818801956108368183896120c8565b8101600381520301902054612240565b610bc7576040519160c08301908382106001600160401b0383111761063f576108aa9260209260405286855260018060a01b0386168386015260016040860152604435606086015260808501524260a08501526040518093819288519283916120c8565b810160038152030190209080518051906001600160401b038211610af25781906108d48554612240565b601f8111610b7a575b50602090601f8311600114610b11578892610b06575b50508160011b916000199060031b1c19161782555b6020810151600183018054604084015160ff60a01b90151560a01b166001600160a01b039093166001600160a81b0319909116179190911790556060810151600283015560808101518051906001600160401b038211610af25761096f6003850154612240565b601f8111610aae575b50602090601f8311600114610a18576109ef9593837ff890f086e0b40a73005667da0e6cb35e1d80c5e7e8e4cc3b9496241abb535d6398969460049460a0948c92610a0d575b50508160011b916000199060031b1c19161760038501555b01519101556040519283926060845260608401906120eb565b6001600160a01b03909116602083015260443560408301520390a180f35b0151905038806109be565b600385018852602088209190601f198416895b818110610a9657508460049460a0946109ef9a98947ff890f086e0b40a73005667da0e6cb35e1d80c5e7e8e4cc3b9496241abb535d639c9a9860019510610a7d575b505050811b0160038501556109d6565b015160001960f88460031b161c19169055388080610a6d565b92936020600181928786015181550195019301610a2b565b60038501885260208820601f840160051c810160208510610aeb575b601f830160051c82018110610ae0575050610978565b898155600101610aca565b5080610aca565b634e487b7160e01b87526041600452602487fd5b0151905038806108f3565b9250848852602088209088935b601f1984168510610b5f576001945083601f19811610610b46575b505050811b018255610908565b015160001960f88460031b161c19169055388080610b39565b81810151835560209485019460019093019290910190610b1e565b90915084885260208820601f840160051c810160208510610bc0575b90849392915b601f830160051c82018110610bb25750506108dd565b8a8155859450600101610b9c565b5080610b96565b60405162461bcd60e51b815260206004820152601a60248201527f496e746567726174696f6e20616c7265616479206578697374730000000000006044820152606490fd5b5083546001600160a01b03163314610811565b5080fd5b50346103555760203660031901126103555760209060ff906040906001600160a01b03610c4e61209c565b168152600684522054166040519015158152f35b503461035557806003193601126103555780600854610c808161275e565b92610c8e6040519485612159565b818452601f199182610c9f8261275e565b01825b818110610f4c575050610cb48161275e565b93610cc26040519586612159565b818552610cce8261275e565b91602091858388019401368537610cfd610ce78361275e565b92610cf56040519485612159565b80845261275e565b828401960136873760405190610d1282612110565b604051610d1e8161213e565b600a815269554e49535741505f563360b01b858201528252604051610d428161213e565b6007815266414156455f563360c81b8582015284830152604051610d658161213e565b6009815268434841494e4c494e4b60b81b858201526040830152604051610d8b8161213e565b60098152680a8908abe8ea482a0960bb1b858201526060830152855b60048110610e94575050506040519687966060880160608952825180915260808901908560808260051b8c010194019188905b828210610e5b575050505087820388850152518082529083019390855b818110610e3b5750505085830360408701525180835291810193925b828110610e2257505050500390f35b8351151585528695509381019392810192600101610e13565b82516001600160a01b031686528998509484019491840191600101610df7565b9193949680610e7e600193959899829c9b9d9e607f1990820301865289516120eb565b9701920192018b9a999798969594939192610dda565b610eba858260059c969799989a9b9c1b85015181604051938285809451938492016120c8565b81016003815203019020610ece8154612240565b610eea575b50610edd90612775565b9897969495939298610da7565b610edd9192600182610efe610f459461227a565b610f08848a612784565b52610f138389612784565b5001546001600160a01b038116610f2a838f612784565b5260ff610f37838a612784565b9160a01c1615159052612775565b9190610ed3565b6060602082890181019190915201610ca2565b50346103555780600319360112610355578060018060a01b03610f8f818354163314610f89612320565b90612345565b60025416803b15610fcf5781809160046040518094819363157c51d360e01b83525af1801561073c57610fbf5750f35b610fc89061212b565b6103555780f35b50fd5b503461035557604036600319011261035557610fec61209c565b602435801515810361108c576007547faca4e11e645c6b63d9b2a5d1e36556030db0e7da8cba6a168c51911ceabfa85a92906001600160a01b0390811633148015611080575b61103b9061248f565b81168452600660205261105d82604086209060ff801983541691151516179055565b604080516001600160a01b0390921682529115156020820152908190810161033f565b50845481163314611032565b8280fd5b5034610355576020366003190112610355576080906001600160a01b039060ff90604090836110bd61209c565b168152600460205220916001818454169301549060405193845281166020840152818160a01c16604084015260a81c1615156060820152f35b50346103555780600319360112610355576020600854604051908152f35b50346103555760803660031901126103555761112e61209c565b6111366120b2565b916044359160018060a01b0393600483866002541660405192838092633e8dc9cf60e21b82525afa9081156113eb57906111799185916113d7575061054c6126ab565b61118960ff845460a01c166126d4565b848216908184526020956006875260ff60408620541615611392578116928385526006875260ff6040862054161561134d576111c6918691612652565b936064358510611312576040516323b872dd60e01b815233600482015230602482015260448101919091529085908290606490829087905af180156113075783906112d1575b6112169150612720565b60405163a9059cbb60e01b8152336004820152602481018490529084908290604490829086905af191821561068e578092611299575b50501561125b57604051908152f35b60405162461bcd60e51b815260048101839052601660248201527513dd5d1c1d5d081d1c985b9cd9995c8819985a5b195960521b6044820152606490fd5b9091508382813d83116112ca575b6112b18183612159565b8101031261035557506112c390612375565b388061124c565b503d6112a7565b508481813d8311611300575b6112e78183612159565b8101031261108c576112fb61121691612375565b61120c565b503d6112dd565b6040513d85823e3d90fd5b60405162461bcd60e51b8152600481018790526013602482015272125b9cdd59999a58da595b9d081bdd5d1c1d5d606a1b6044820152606490fd5b60405162461bcd60e51b815260048101889052601760248201527f546f20746f6b656e206e6f7420696e74656772617465640000000000000000006044820152606490fd5b60405162461bcd60e51b815260048101889052601960248201527f46726f6d20746f6b656e206e6f7420696e7465677261746564000000000000006044820152606490fd5b61072f91503d8087833e6107278183612159565b6040513d86823e3d90fd5b5034610355576114053661220c565b835490926001600160a01b0392916114239084163314610f89612320565b61142b61242e565b156114b95760405163a9059cbb60e01b81526001600160a01b039490941660048501526024840191909152602091839160449183918791165af1801561073c57829061147f575b61147c9150612720565b80f35b506020813d82116114b1575b8161149860209383612159565b81010312610c1f576114ac61147c91612375565b611472565b3d915061148b565b60405162461bcd60e51b815260206004820152601560248201527414de5cdd195b481b5d5cdd081899481c185d5cd959605a1b6044820152606490fd5b50346103555780600319360112610355575460025460015460a0926001600160a01b039283169160ff919061152961242e565b93604051958316865260208601526040850152841c161515606083015215156080820152f35b5034610355578060031936011261035557602061156a61242e565b6040519015158152f35b50346103555760203660031901126103555761158e61209c565b8154906001600160a01b03808316916115b06115a8612320565b843314612345565b6115b9816127df565b1680926001600160601b0360a01b161783557f7e644d79422f17c01e4894b5f4f588d331ebfa28653d42ae832dc59e38c9798f8380a380f35b5034610355576116013661220c565b83549192916001600160a01b039061161f9082163314610f89612320565b61162761242e565b156116fe57849281811661165a575082938392839283918315611650575b1690f11561068e5780f35b6108fc9250611645565b60405163a9059cbb60e01b602082019081526001600160a01b0394909416602482015260448082019690965294855261147c948493919250839061169f606482612159565b51925af13d156116f9573d6116b38161217a565b906116c16040519283612159565b81528360203d92013e5b604051906116d88261213e565b600f82526e151c985b9cd9995c8819985a5b1959608a1b6020830152612345565b6116cb565b60405162461bcd60e51b815260206004820152601160248201527014de5cdd195b481b9bdd081c185d5cd959607a1b6044820152606490fd5b50346103555780600319360112610355576007546040516001600160a01b039091168152602090f35b503461035557602036600319011261035557604060609160043581526005602052206002600182015491015460ff6040519260018060a01b038116845260a01c16151560208301526040820152f35b5034610355576040366003190112610355576001600160401b0360043581811161108c576117e19036906004016121dc565b9091602435908111610351576117fb9036906004016121dc565b909160018060a01b0393846007541633148015611913575b61181c9061248f565b8282036118de57855b828110611830578680f35b8061187b61184a6118456118d994888a6127ae565b6127be565b8861185e6118598589896127ae565b6127cb565b168a52600660205260408a209060ff801983541691151516179055565b7faca4e11e645c6b63d9b2a5d1e36556030db0e7da8cba6a168c51911ceabfa85a6118aa6118598387876127ae565b6118b861184584898b6127ae565b604080516001600160a01b03939093168352901515602083015290a1612775565b611825565b60405162461bcd60e51b815260206004820152600d60248201526c125b9d985b1a59081a5b9c1d5d609a1b6044820152606490fd5b50855485163314611813565b5034610355576040366003190112610355576004356001600160401b038111610c1f57611950903690600401612195565b6119586120b2565b9060016119bd6020828060a01b03938460075416331480156119de575b61197e9061248f565b611987866127df565b604051906119ac6119a582519385818186019661083681838a6120c8565b15156124db565b6040519384928392519283916120c8565b810160038152030190200191166001600160601b0360a01b82541617905580f35b50865485163314611975565b503461035557602080600319360112610c1f57600435906001600160401b03821161108c57611a3e7feb69770a1a304ddd42beb5910601b46ecadeb0422e39fb892e722f95a62b79dc923690600401612195565b90611a5d60018060a01b03806007541633149081156104d0575061248f565b6001611a9182604051611a806119a58751928481818b01956108368183896120c8565b6040518093819288519283916120c8565b810160038152030190200160ff60a01b19815416905561033f6040519282849384528301906120eb565b503461035557604036600319011261035557806020611b16611adb61209c565b600254604051635d65ad6760e01b81526001600160a01b03928316600482015260248035908201529485939190921691839182906044820190565b03925af190811561073c578291611b33575b602082604051908152f35b90506020813d8211611b60575b81611b4d60209383612159565b81010312610c1f57602091505138611b28565b3d9150611b40565b50346103555780600319360112610355576020600954604051908152f35b503461035557602036600319011261035557600435906001600160401b0382116103555760ff611bbe60206103b83660048701612195565b81016003815203019020600181015490611c1a6002820154611be760036004850154940161227a565b9060405195869560018060a01b038116875260a01c1615156020860152604085015260a0606085015260a08401906120eb565b9060808301520390f35b50346103555780600319360112610355576020600154604051908152f35b5034610355576060366003190112610355576020611c72611c6161209c565b611c696120b2565b60443591612652565b604051908152f35b5034610355578060031936011261035557600254604051633e8dc9cf60e21b815291908190839060049082906001600160a01b03165afa8015611d3b5781809381908293611d11575b50840190818511611cfd575090611cf99160405194859415158552602085015260408401526080606084015260808301906120eb565b0390f35b634e487b7160e01b81526011600452602490fd5b9250509250611d2a91503d8084833e6107278183612159565b509450959250939050929338611cc3565b50604051903d90823e3d90fd5b50346103555780600319360112610355578060018060a01b03611d72818354163314610f89612320565b60025416803b15610fcf57819060e4604051809481936334cc128960e21b835260016004840152600160248401526001604484015262278d00606484015260a06084840152600b60a48401526a41646d696e20706175736560a81b60c48401525af1801561073c57611de2575080f35b61147c9061212b565b5034610355576020366003190112610355576020611c72611e0a61209c565b612536565b5034610355576020366003190112610355577f730abf329076f769aacddade69fbe7ca672a3c95fc1b7728ecf7b8f8cb705ed06040600435611e5e60018060a01b038554163314610f89612320565b600154908060015582519182526020820152a180f35b5034610355576020366003190112610355577f62fb284f5d1a9d326f25d6900267a8cb39113f8484b351a73c1ada4014c66864611eaf61209c565b82546001600160a01b039190611ecb9083163314610f89612320565b611ed4816127df565b600280548284166001600160a01b031982161790915560408051939091166001600160a01b03908116845290911660208301528190810161033f565b5034610355576060366003190112610355577f9e3fe4691b5eedc9a99c5f59e1a82d35fc2569f133ff9e3081249bca7b446df46040600435611f506120b2565b6007546001600160a01b0390811633148015611ff8575b611f709061248f565b6002845191611f7e83612110565b848352611fe681602085019516948581528785016001815260608601936044358552888c526005602052898c2096518755600187019251166001600160601b0360a01b83541617825551151581549060ff60a01b90151560a01b169060ff60a01b1916179055565b5191015582519182526020820152a180f35b50855481163314611f67565b50346103555780600319360112610355576002546040516001600160a01b039091168152602090f35b50346103555760203660031901126103555761204761209c565b81546001600160a01b0391906120639083163314610f89612320565b166001600160601b0360a01b600754161760075580f35b905034610c1f5781600319360112610c1f5760ff6020925460a01c1615158152f35b600435906001600160a01b038216820361074757565b602435906001600160a01b038216820361074757565b60005b8381106120db5750506000910152565b81810151838201526020016120cb565b90602091612104815180928185528580860191016120c8565b601f01601f1916010190565b608081019081106001600160401b0382111761063f57604052565b6001600160401b03811161063f57604052565b604081019081106001600160401b0382111761063f57604052565b90601f801991011681019081106001600160401b0382111761063f57604052565b6001600160401b03811161063f57601f01601f191660200190565b81601f82011215610747578035906121ac8261217a565b926121ba6040519485612159565b8284526020838301011161074757816000926020809301838601378301015290565b9181601f84011215610747578235916001600160401b038311610747576020808501948460051b01011161074757565b6060906003190112610747576001600160a01b03600435818116810361074757916024359160443590811681036107475790565b90600182811c92168015612270575b602083101461225a57565b634e487b7160e01b600052602260045260246000fd5b91607f169161224f565b906040519182600082549261228e84612240565b9081845260019485811690816000146122fd57506001146122ba575b50506122b892500383612159565b565b9093915060005260209081600020936000915b8183106122e55750506122b8935082010138806122aa565b855488840185015294850194879450918301916122cd565b9150506122b894506020925060ff191682840152151560051b82010138806122aa565b6040519061232d8261213e565b60098252682737ba1030b236b4b760b91b6020830152565b1561234d5750565b60405162461bcd60e51b8152602060048201529081906123719060248301906120eb565b0390fd5b5190811515820361074757565b9190610100838203126107475761239883612375565b926123a560208201612375565b926123b260408301612375565b926123bf60608401612375565b9260808101519260a08201519260c08301516001600160401b0381116107475783019080601f83011215610747578151916123f98361217a565b916124076040519384612159565b838352602084830101116107475760e09261242891602080850191016120c8565b92015190565b600254604051633e8dc9cf60e21b815290600090829060049082906001600160a01b03165afa90811561248357600091612466575090565b612479913d8091833e6107278183612159565b5050505050505090565b6040513d6000823e3d90fd5b1561249657565b60405162461bcd60e51b815260206004820152601760248201527f4e6f7420696e746567726174696f6e206d616e616765720000000000000000006044820152606490fd5b156124e257565b60405162461bcd60e51b8152602060048201526015602482015274125b9d1959dc985d1a5bdb881b9bdd08199bdd5b99605a1b6044820152606490fd5b519069ffffffffffffffffffff8216820361074757565b6001600160a01b0390811660009081526004602052604081206001015460a881901c60ff16156126155760a090600460405180958193633fabe5a360e21b8352165afa918215611d3b5781926125c7575b508113156125925790565b60405162461bcd60e51b815260206004820152600d60248201526c496e76616c696420707269636560981b6044820152606490fd5b90915060a0813d821161260d575b816125e260a09383612159565b81010312610c1f576125f38161251f565b5061260560806020830151920161251f565b509038612587565b3d91506125d5565b60405162461bcd60e51b815260206004820152601560248201527450726963652066656564206e6f742061637469766560581b6044820152606490fd5b61265e61266491612536565b91612536565b9181810291818304149015171561269557811561267f570490565b634e487b7160e01b600052601260045260246000fd5b634e487b7160e01b600052601160045260246000fd5b604051906126b88261213e565b600d82526c14de5cdd195b481c185d5cd959609a1b6020830152565b156126db57565b60405162461bcd60e51b815260206004820152601860248201527f436f6e7472616374206e6f7420696e697469616c697a656400000000000000006044820152606490fd5b1561272757565b60405162461bcd60e51b815260206004820152600f60248201526e151c985b9cd9995c8819985a5b1959608a1b6044820152606490fd5b6001600160401b03811161063f5760051b60200190565b60001981146126955760010190565b80518210156127985760209160051b010190565b634e487b7160e01b600052603260045260246000fd5b91908110156127985760051b0190565b3580151581036107475790565b356001600160a01b03811681036107475790565b6040516122b8916127ef8261213e565b600f82526e496e76616c6964206164647265737360881b60208301526001600160a01b0316151561234556fea2646970667358221220c0de8aace07acc42188f6dde52a8bb9f310a6cd32964a05eb2cf79d3180dd7d364736f6c63430008130033f890f086e0b40a73005667da0e6cb35e1d80c5e7e8e4cc3b9496241abb535d636080346200042657601f6200384538819003918201601f1916830191906001600160401b038311848410176200042b578161010092859260409586528339810103126200042657620000518262000461565b9160206200006181830162000461565b936200006f84840162000461565b6200007d6060850162000461565b936200008c6080820162000461565b906200009b60a0820162000461565b90620000b860e0620000b060c0840162000461565b920162000461565b9160018060a01b03199360009833868b5416178a55856002541660025560019788805560018060a01b038091169c8d15620003e25781169788156200039e5781169182156200035a57811692831562000316578116938415620002d25781169485156200028e5781169586156200024a5716968715620002065760a09a9b9c87600a541617600a55866007541617600755856003541617600355846004541617600455836005541617600555826006541617600655816008541617600855600954161760095583836200018a62000441565b82815282858201528288820152826060820152826080820152015280620001b062000441565b8181529283015284820181905260608201819052608082015201526017805465ffffffffffff19166401010101011790556011805460ff60a01b1916600160a01b17905542601655516133ce9081620004778239f35b8b5162461bcd60e51b8152600481018b9052601560248201527f496e76616c6964207265766965772073797374656d00000000000000000000006044820152606490fd5b8c5162461bcd60e51b8152600481018c9052601a60248201527f496e76616c69642064697370757465207265736f6c7574696f6e0000000000006044820152606490fd5b8c5162461bcd60e51b8152600481018c9052601960248201527f496e76616c6964207061796d656e742070726f636573736f72000000000000006044820152606490fd5b8c5162461bcd60e51b8152600481018c9052601660248201527f496e76616c696420657363726f77206d616e61676572000000000000000000006044820152606490fd5b8c5162461bcd60e51b8152600481018c9052601660248201527f496e76616c69642072656e742061677265656d656e74000000000000000000006044820152606490fd5b8c5162461bcd60e51b8152600481018c9052601960248201527f496e76616c69642070726f7065727479207265676973747279000000000000006044820152606490fd5b8c5162461bcd60e51b8152600481018c9052601560248201527f496e76616c6964207573657220726567697374727900000000000000000000006044820152606490fd5b8c5162461bcd60e51b8152600481018c9052601560248201527f496e76616c696420746f6b656e206164647265737300000000000000000000006044820152606490fd5b600080fd5b634e487b7160e01b600052604160045260246000fd5b6040519060c082016001600160401b038111838210176200042b57604052565b51906001600160a01b0382168203620004265756fe6080806040526004361015610069575b50361561001b57600080fd5b61002c60ff60115460a01c16613283565b341561003457005b60405162461bcd60e51b815260206004820152600d60248201526c139bc81d985b1d59481cd95b9d609a1b6044820152606490fd5b60009060e08235811c9182630b3bce2014612eea575081630bf2d66814612af85781631116cfdb14612a1e578163157c51d3146129b1578163158ef93e1461298c5781631acec795146125dc57816326b703a7146125b357816326d446851461258a57816330e66cd214612525578163335195a6146125075781633431d5c9146124e15781633981afc114612458578163408def1e146123f3578163439766ce1461235957816345282a92146122975781634cacef2b1461227957816354fd4d501461225b5781635c7460d6146122325781635d65ad67146121895781635f81a57c1461216b578163641f5d111461214257816364b87a70146121195781636cb69f4214611fef57816374fc183214611e935781637547c7a314611d2557816375829def14611ca75781637691c4ac14611c825781637cc1f86714611c2957816380d5ac8a14611c0057816382ce5f5214611bd757816387f38c8214611a65578163886e104414611a3c5781638c96cf631461195357816392d76cb61461192a57816393e54a5614611772578163953874d2146116e657816395ccea6714611618578163a04e876c146115ef578163a77db54f146115c6578163abc8c7af1461159d578163b8e381e514611574578163be9157cf1461154b578163bfa1f3b8146111f4578163bff1f9e1146111d6578163c12255c4146111ad578163c4bc5da51461114a578163d1ce59a714611103578163d849918914610f17578163eef6f9631461095d578163f1c6bdf814610934578163f851a4401461090d578163faaf807614610791575063fc2bf8f00361000f573461040557604036600319011261040557600254604051633e8dc9cf60e21b81526001600160a01b0392916024803592909184908290600490829089165afa908115610786579061031d91859161075d575b5061031661320e565b9015613097565b61032d60ff845460a01c16613237565b60119361034060ff865460a01c16613283565b8060045416803b1561075957848091604460405180948193630fc2bf8f60e41b8352600435600484015289898401525af1801561074e57908591610736575b505060fa830283810460fa14841517156107235761271090049485158015610418575b50849550541690813b156104135760a4600091858094604051968795869463a508b92160e01b8652336004870152850152604484015260016064840152600060848401525af18015610408576103f55750f35b6103fe90612f06565b6104055780f35b80fd5b6040513d84823e3d90fd5b505050fd5b60288702878104602814821715610710576064900490601e8802888104601e148217156106fd576064900490601489029089820460141417156106fd57918798916064899404610475816104708461047087896132d2565b6132d2565b9187600a5416916040519163a9059cbb60e01b9384845273742d35cc6634c0532925a3b8dc9f5a6f6e8c6f5e968760048601528c8501528360448160209b8c945af19081156106f2578d9389926106b4575b5060448c8c600a54169560405196879485938a85528c60048601528401525af19081156106a9578c92889261066b575b5060448b8b600a54169460405195869485938985528b60048601528401525af1801561066057610628575b5060ff60175460181c168061061f575b61056e575b5050906040917f1604c7c469c0ce177c411628a5787d2a5b6a2f7ffda7f9d732edcb70f1138032938351928352820152a1386103a2565b600a54600b5460405192835288166001600160a01b031660048301526024820192909252908490829060449082908d908b165af18015610614576105b3575b80610537565b91908383813d831161060d575b6105ca8183612f4f565b81010312610609577f1604c7c469c0ce177c411628a5787d2a5b6a2f7ffda7f9d732edcb70f1138032936105ff6040946130c7565b50935090916105ad565b8880fd5b503d6105c0565b6040513d8b823e3d90fd5b50811515610532565b8581813d8311610659575b61063d8183612f4f565b810103126106555761064e906130c7565b5038610522565b8a80fd5b503d610633565b6040513d8d823e3d90fd5b8281939294503d83116106a2575b6106838183612f4f565b8101031261069e578b9161069788926130c7565b50386104f7565b8b80fd5b503d610679565b6040513d8e823e3d90fd5b8281939295503d83116106eb575b6106cc8183612f4f565b810103126106e7578c926106e089926130c7565b50386104c7565b8c80fd5b503d6106c2565b6040513d8f823e3d90fd5b634e487b7160e01b885260048490528588fd5b634e487b7160e01b875260048390528487fd5b634e487b7160e01b855260048690528285fd5b61073f90612f06565b61074a57833861037f565b8380fd5b6040513d87823e3d90fd5b8480fd5b61077991503d8087833e6107718183612f4f565b810190613119565b505050505050503861030d565b6040513d86823e3d90fd5b82346104055760209081600319360112610405576107ad612fd2565b9260018060a01b0392838181600754169660246040518098819363056720bf60e51b835216998a60048301525afa9485156107865784956108d6575b5060248482600354166040519283809263cb64489760e01b82528b60048301525afa90811561074e5790839186916108b4575b5051916009541696602460405180998193631cec614760e21b835260048301525afa91821561078657849261087e575b6101009650604051951515865285015282604085015282606085015282608085015260a08401528160c0840152820152f35b80925086813d83116108ad575b6108958183612f4f565b810103126108a85761010095519161084c565b600080fd5b503d61088b565b6108d091503d8088833e6108c88183612f4f565b8101906132df565b8861081c565b9094508181813d8311610906575b6108ee8183612f4f565b8101031261074a576108ff906130c7565b93866107e9565b503d6108e4565b8234610405578060031936011261040557546040516001600160a01b039091168152602090f35b82346104055780600319360112610405576006546040516001600160a01b039091168152602090f35b82346104055761010036600319011261040557610978612ffe565b610980613014565b600254604051633e8dc9cf60e21b8152919291908490829060049082906001600160a01b03165afa8015610786576109c1918591610ef6575061031661320e565b6109d160ff845460a01c16613237565b6109e260ff60115460a01c16613283565b60075460405163056720bf60e51b81526001600160a01b038381166004830152909160209183916024918391165afa908115610786578491610ebc575b5015610e8157610a3360843560a4356132d2565b60443515610e3c576003604435026044358104600303610e285760643511610df057620151808110610db6576301e1338010610d7d57600480546040516387f98ca960e01b81528235928101929092526001600160a01b03838116602484015260448035908401526064803590840152608480359084015260a480359084015280851660c4840152919391602091859160e49183918991165af1928315610786578493610d49575b5060ff60175460101c1680610d3e575b610cbc575b606435610c22575b50610b046013546132c3565b601355610b20610b186064356044356131eb565b6015546131eb565b6015556011546001600160a01b0316908390823b15610bfb57604051828160a4818363a508b92160e01b9889835233600484015260016024840152604435604484015260006064840152600060848401525af1908115610bff578391610c0e575b50506011546001600160a01b031692833b15610c0a5760a490836040519586948593845260018060a01b0316600484015260006024840152604435604484015260006064840152600060848401525af18015610bff57610be7575b602082604051908152f35b610bf18391612f06565b610bfb5781610bdc565b5080fd5b6040513d85823e3d90fd5b8280fd5b610c1790612f06565b610bfb578186610b81565b6005546001600160a01b03169060209060a4610c4160843582356132d2565b604051635338c28b60e11b81523360048201526001600160a01b03878116602483015260648035604484015294169381019390935260848301529092839190829088905af180156107865715610af857602090813d8311610cb5575b610ca78183612f4f565b810103126108a85783610af8565b503d610c9d565b600c546040516306ac516d60e21b8152600481018590526001600160a01b03848116602483015233604483015260e43560648301529091602091839160849183918a91165af1801561074e57610d13575b50610af0565b602090813d8311610d37575b610d298183612f4f565b810103126108a85784610d0d565b503d610d1f565b5060e4351515610aeb565b9092506020813d602011610d75575b81610d6560209383612f4f565b810103126108a857519184610adb565b3d9150610d58565b60405162461bcd60e51b81526020600482015260116024820152704475726174696f6e20746f6f206c6f6e6760781b6044820152606490fd5b60405162461bcd60e51b8152602060048201526012602482015271111d5c985d1a5bdb881d1bdbc81cda1bdc9d60721b6044820152606490fd5b60405162461bcd60e51b815260206004820152601060248201526f088cae0dee6d2e840e8dede40d0d2ced60831b6044820152606490fd5b634e487b7160e01b85526011600452602485fd5b60405162461bcd60e51b815260206004820152601c60248201527f52656e7420616d6f756e74206d75737420626520706f736974697665000000006044820152606490fd5b60405162461bcd60e51b815260206004820152601360248201527215195b985b9d081b9bdd081d995c9a599a5959606a1b6044820152606490fd5b90506020813d602011610eee575b81610ed760209383612f4f565b8101031261074a57610ee8906130c7565b84610a1f565b3d9150610eca565b610f0a91503d8087833e6107718183612f4f565b505050505050508561030d565b905034610bfb5736600319011261040557610f30612fd2565b610f38612ffe565b610f40612fe8565b6001600160a01b0391606435838116908190036108a857608435908482168092036108a85760a435928584168094036108a857610f7b613014565b94885497610f94610f8a613072565b898b163314613097565b60ff8960a01c166110c857879283809216806110af575b501680611096575b50168061107d575b5080611064575b508061104b575b5080611032575b501680611019575b5060ff60a01b1916600160a01b17815560405142815233907f43863104038d02bfbf63a2b2c6aa5184d05e0a2f9af9a6aeec38009aab662c7890602090a280f35b6001600160601b0360a01b601154161760115538610fd8565b6001600160601b0360a01b601054161760105538610fd0565b6001600160601b0360a01b600f541617600f5538610fc9565b6001600160601b0360a01b600e541617600e5538610fc2565b6001600160601b0360a01b600d541617600d5538610fbb565b6001600160601b0360a01b600c541617600c5538610fb3565b6001600160601b0360a01b600b541617600b5538610fab565b60405162461bcd60e51b8152602060048201526013602482015272105b1c9958591e481a5b9a5d1a585b1a5e9959606a1b6044820152606490fd5b823461040557806003193601126104055760125490601354601454601554916040519485526020850152604084015260608301528060808301528060a083015260c0820152f35b82346104055780600319360112610405578060018060a01b0361117a818354163314611174613072565b90613097565b60025416803b156111aa5781809160046040518094819363157c51d360e01b83525af18015610408576103f55750f35b50fd5b82346104055780600319360112610405576005546040516001600160a01b039091168152602090f35b82346104055780600319360112610405576020601454604051908152f35b82346104055760403660031901126104055761120e612ffe565b600254604051633e8dc9cf60e21b815291936001600160a01b0392909184908290600490829087165afa908115610786579061125391859161152a575061031661320e565b61126360ff845460a01c16613237565b60ff60175460281c16156114ee57819061128460ff60115460a01c16613283565b8382600754169560246040518095819363543a185d60e11b835216988960048301525afa918215610786578491859361143f575b50508260045416604051632246d97b60e11b81528660048201528581602481855afa90811561141a5760249187918291611425575b50519260405192838092638aed078d60e01b82528b60048301525afa90811561141a579061132592918791611400575b5051906131eb565b60405192602096878501526040840152606083015260808201526080815260a08101918183106001600160401b038411176113ea578285918160405260105416638162e1bb60e01b825260043560a4850152604060c48501528186609f198661139160e482018261304d565b0301925af19283156113de57908491936113af575b50604051838152f35b90809293503d83116113d7575b6113c68185612f4f565b810103126108a857518282816113a6565b503d6113bc565b604051903d90823e3d90fd5b634e487b7160e01b600052604160045260246000fd5b61141491503d8089833e6108c88183612f4f565b8861131d565b6040513d88823e3d90fd5b61143991503d8084833e6108c88183612f4f565b896112ed565b915091503d8085843e6114528184612f4f565b8201610100838203126107595782516001600160401b03908181116114ea578261147d9186016130d4565b5060208401518181116114ea57826114969186016130d4565b5060408401518181116114ea57826114af9186016130d4565b5060608401519081116114e657906114c89184016130d4565b506114d5608083016130c7565b5060a08201519101519085806112b8565b8580fd5b8680fd5b60405162461bcd60e51b815260206004820152601460248201527310dc9bdcdccb58da185a5b88191a5cd8589b195960621b6044820152606490fd5b61153e91503d8087833e6107718183612f4f565b505050505050508661030d565b82346104055780600319360112610405576008546040516001600160a01b039091168152602090f35b8234610405578060031936011261040557600e546040516001600160a01b039091168152602090f35b8234610405578060031936011261040557600d546040516001600160a01b039091168152602090f35b8234610405578060031936011261040557600a546040516001600160a01b039091168152602090f35b8234610405578060031936011261040557600f546040516001600160a01b039091168152602090f35b823461040557604036600319011261040557611632612fd2565b81546001600160a01b03919082169061165461164c613072565b833314613097565b60ff60115460a01c166116a95782849360025416803b15610759578492836064926040519687958694631b0c0ad160e21b8652166004850152602435602485015260448401525af18015610408576103f55750f35b60405162461bcd60e51b815260206004820152601560248201527414de5cdd195b481b5d5cdd081899481c185d5cd959605a1b6044820152606490fd5b905034610bfb5781600319360112610bfb576101409060018060a01b03908160035416918060045416918160055416908260065416836007541684600a54169085600b54169286600c54169587600d54169760115416986040519a8b5260208b015260408a01526060890152608088015260a087015260c0860152840152610100830152610120820152f35b823461040557600319608036820112610bfb5781600435916001600160401b0392838111610c0a576117a8903690600401612f8b565b60243584811161074a576117c0903690600401612f8b565b91604435858111610759576117d9903690600401612f8b565b94606435908111610759576117f2903690600401612f8b565b600254604051633e8dc9cf60e21b81526001600160a01b039187908290600490829086165afa801561191f576118319188916118fe575061031661320e565b61184160ff875460a01c16613237565b61185260ff60115460a01c16613283565b6007541692833b156114e6576118c26118939387936118b36118a39a6040519b8c9a8b998a986349f2a52b60e11b8a52608060048b015260848a019061304d565b90868983030160248a015261304d565b908487830301604488015261304d565b9184830301606485015261304d565b03925af18015610408576118ea575b6118dc6014546132c3565b601455602060405160018152f35b6118f48291612f06565b61040557806118d1565b61191291503d808a833e6107718183612f4f565b505050505050508a61030d565b6040513d89823e3d90fd5b82346104055780600319360112610405576009546040516001600160a01b039091168152602090f35b8234610405576020366003190112610405576004356001600160401b038111610bfb57611984903690600401612f8b565b815482906001600160a01b03906119a790821661199f613072565b903314613097565b6011805460ff60a01b1916905560025416803b15610bfb57818091600460405180948193630775ef0f60e01b83525af1801561040857611a28575b507ff3ab02e27e493b90ce06184d5a193758ddf3218a1a7170cf71528ba0f8664925611a1c8360405191829160408352604083019061304d565b3360208301520390a180f35b611a3190612f06565b610bfb5781836119e2565b82346104055780600319360112610405576004546040516001600160a01b039091168152602090f35b823461040557602036600319011261040557600254604051633e8dc9cf60e21b81526001600160a01b039183908290600490829086165afa8015610bff57611ab6918491611bb6575061031661320e565b611ac660ff835460a01c16613237565b60ff60175460081c1615611b78578190611ae760ff60115460a01c16613283565b80600e5416803b15611b7457828091602460405180948193630f574ba760e01b835260043560048401525af1908115610bff578391611b60575b505060075416803b156111aa57818091604460405180948193639247db6360e01b8352336004840152606460248401525af18015610408576103f55750f35b611b6990612f06565b6111aa578184611b21565b5050fd5b60405162461bcd60e51b815260206004820152601660248201527514dd589cd8dc9a5c1d1a5bdb9cc8191a5cd8589b195960521b6044820152606490fd5b611bca91503d8086833e6107718183612f4f565b505050505050508461030d565b82346104055780600319360112610405576010546040516001600160a01b039091168152602090f35b82346104055780600319360112610405576011546040516001600160a01b039091168152602090f35b82346104055780600319360112610405575460025460015460a0926001600160a01b039283169160ff9190611c5c61318a565b93604051958316865260208601526040850152841c161515606083015215156080820152f35b82346104055780600319360112610405576020611c9d61318a565b6040519015158152f35b823461040557602036600319011261040557611cc1612fd2565b8154906001600160a01b0380831691611ce3611cdb613072565b843314613097565b611cec8161335a565b1680926001600160601b0360a01b161783557f7e644d79422f17c01e4894b5f4f588d331ebfa28653d42ae832dc59e38c9798f8380a380f35b8234610405576020908160031936011261040557600254604051633e8dc9cf60e21b815260048035926001600160a01b0392918591839190829086165afa9081156107865790611d7e91859161152a575061031661320e565b611d8e60ff845460a01c16613237565b60ff60175460181c1615611e5b57828094611db060ff60115460a01c16613283565b8083600a5416606485600b541660405195869384926323b872dd60e01b845233600485015260248401528960448401525af1801561074e57611e27575b5050600b541690813b15611b7457829160248392604051948593849263534a7e1d60e11b845260048401525af18015610408576103f55750f35b81813d8311611e54575b611e3b8183612f4f565b8101031261041357611e4c906130c7565b508480611ded565b503d611e31565b60405162461bcd60e51b815260048101859052601060248201526f14dd185ada5b99c8191a5cd8589b195960821b6044820152606490fd5b823461040557606036600319011261040557611ead612fd2565b60243590611eb9612fe8565b83546001600160a01b0390611ed49082163314611174613072565b611edc61318a565b15611fb6578492818116611f0f575082938392839283918315611f05575b1690f1156113de5780f35b6108fc9250611efa565b60405163a9059cbb60e01b602082019081526001600160a01b03949094166024820152604480820196909652948552611fae9484939192508390611f54606482612f4f565b51925af13d15611fb1573d611f6881612f70565b90611f766040519283612f4f565b81528360203d92013e5b60405190611f8d82612f34565b600f82526e151c985b9cd9995c8819985a5b1959608a1b6020830152613097565b80f35b611f80565b60405162461bcd60e51b815260206004820152601160248201527014de5cdd195b481b9bdd081c185d5cd959607a1b6044820152606490fd5b905034610bfb5781600319360112610bfb57816101609260a060405161201481612f19565b828152826020820152826040820152826060820152826080820152015260ff8060115460a01c16806000146121135761204f601654426132d2565b925b60018060a01b03905416936001549160165460405161206f81612f19565b60175496868816151582526020820192878960081c16151584526040830194888a60101c16151586526060840197898b60181c16151589526080850199808c60201c1615158b5260a086019b60281c1615158b526040519b8c5260208c0152151560408b015260608a0152608089015251151560a088015251151560c087015251151590850152511515610100840152511515610120830152511515610140820152f35b82612051565b8234610405578060031936011261040557600b546040516001600160a01b039091168152602090f35b8234610405578060031936011261040557600c546040516001600160a01b039091168152602090f35b82346104055780600319360112610405576020601554604051908152f35b8234610405576040366003190112610405578060206121e46121a9612fd2565b600254604051635d65ad6760e01b81526001600160a01b03928316600482015260248035908201529586939190921691839182906044820190565b03925af19081156113de5790612200575b602090604051908152f35b506020813d821161222a575b8161221960209383612f4f565b810103126108a857602090516121f5565b3d915061220c565b82346104055780600319360112610405576007546040516001600160a01b039091168152602090f35b82346104055780600319360112610405576020600154604051908152f35b82346104055780600319360112610405576020601654604051908152f35b8234610405578060031936011261040557600254604051633e8dc9cf60e21b815291908190839060049082906001600160a01b03165afa801561234c57818093818093612318575b5050906122ef61231492856131eb565b604051948594151585526020850152604084015260806060840152608083019061304d565b0390f35b90915061231494506122ef935061233992503d8091833e6107718183612f4f565b50945096949150949150939491926122df565b50604051903d90823e3d90fd5b82346104055780600319360112610405578060018060a01b03612383818354163314611174613072565b60025416803b156111aa5781809160e4604051809481936334cc128960e21b835260016004840152600160248401526001604484015262278d00606484015260a06084840152600b60a48401526a41646d696e20706175736560a81b60c48401525af18015610408576103f55750f35b8234610405576020366003190112610405577f730abf329076f769aacddade69fbe7ca672a3c95fc1b7728ecf7b8f8cb705ed0604060043561244260018060a01b038554163314611174613072565b600154908060015582519182526020820152a180f35b8234610405576020366003190112610405577f62fb284f5d1a9d326f25d6900267a8cb39113f8484b351a73c1ada4014c668646040612495612fd2565b83546001600160a01b03906124b09082163314611174613072565b6124b98261335a565b80600254921690816001600160601b0360a01b8416176002558351921682526020820152a180f35b8234610405578060031936011261040557602060ff60115460a01c166040519015158152f35b82346104055780600319360112610405576020601354604051908152f35b823461040557806003193601126104055760c06017546040519060ff9081811615158352818160081c1615156020840152818160101c1615156040840152818160181c1615156060840152818160201c161515608084015260281c16151560a0820152f35b82346104055780600319360112610405576002546040516001600160a01b039091168152602090f35b82346104055780600319360112610405576003546040516001600160a01b039091168152602090f35b8234610405576040366003190112610405576004356001600160401b038111610bfb5761260d903690600401612f8b565b602435801515809103610c0a577f43a0148be74197659be43bacdac4e492c6e55291225e29fd4f098868ff304fc1916126f79161265760018060a01b038654163314611174613072565b6040519061266482612f34565b600b8252602091828101906a6d61726b6574706c61636560a81b8252604051918483018651936126ab8782818b019761269e81878b61302a565b8101038084520182612f4f565b519020916126ca86604051809361269e8383019687925192839161302a565b51902003612701575060ff196017541660ff8216176017555b60405193849360408552604085019061304d565b918301520390a180f35b60405161270d81612f34565b600d81528381016c737562736372697074696f6e7360981b81526040518581019061274087828a5161269e81878b61302a565b5190209161275f86604051809361269e8383019687925192839161302a565b51902003612783575060175461ff008260081b169061ff001916176017555b6126e3565b60405161278f81612f34565b6009815283810168696e737572616e636560b81b8152604051858101906127be87828a5161269e81878b61302a565b519020916127dd86604051809361269e8383019687925192839161302a565b51902003612802575060175462ff00008260101b169062ff00001916176017556126e3565b60405161280e81612f34565b60078152838101667374616b696e6760c81b81526040518581019061283b87828a5161269e81878b61302a565b5190209161285a86604051809361269e8383019687925192839161302a565b51902003612881575060175463ff0000008260181b169063ff0000001916176017556126e3565b60405161288d81612f34565b6009815283810168726566657272616c7360b81b8152604051858101906128bc87828a5161269e81878b61302a565b519020916128db86604051809361269e8383019687925192839161302a565b5190200361290257506017805464ff00000000191682841b64ff00000000161790556126e3565b6040519061290f82612f34565b600a825261269e848301916931b937b9b9b1b430b4b760b11b83526129438660405180938282019586918c5192839161302a565b5190209161296285604051809361269e8383019687925192839161302a565b5190200361277e5760175465ff00000000008260281b169065ff00000000001916176017556126e3565b823461040557806003193601126104055760ff6020915460a01c166040519015158152f35b82346104055780600319360112610405578060018060a01b036129db818354163314611174613072565b6011805460ff60a01b1916600160a01b17905560025416803b156111aa5781809160046040518094819363157c51d360e01b83525af18015610408576103f55750f35b8234610405576040366003190112610405576004356024356001600160401b038111610c0a57612a52903690600401612f8b565b612a6960018060a01b038454163314611174613072565b600154821115612abb57817fbb39107f2d494b1da653c1f383620fe84ef10d7ac5ca16bb5a6a3e844699d56092600155612ab5604051928392835260406020840152604083019061304d565b0390a180f35b60405162461bcd60e51b815260206004820152601560248201527456657273696f6e206d75737420696e63726561736560581b6044820152606490fd5b823461040557600319608036820112610bfb576001600160401b0391600435838111610bfb57612b2c903690600401612f8b565b92602480359060443583811161075957612b4a903690600401612f8b565b9260643590811161075957612b63903690600401612f8b565b600254604051633e8dc9cf60e21b815291966001600160a01b0392909187908290600490829087165afa90811561191f5790612ba89188916118fe575061031661320e565b612bb860ff875460a01c16613237565b612bc960ff60115460a01c16613283565b816007541697604051809963056720bf60e51b8252336004830152818660209c8d935afa908115612edf578891612ea6575b5015612e6e5790889183600354169088604051809b8195829463017e5acd60e31b8452600484016080905260848401612c339161304d565b8b8b85015281848203016044850152612c4c908d61304d565b90838203016064840152612c5f9161304d565b03925af195861561074e578596612e3f575b5060ff60175460081c16612df2575b60ff601754881c16612d0c575b612c986012546132c3565b6012556011541691823b156107595791606085612cd995938195604051978896879586946358206d7760e11b8652336004870152850152606484019061304d565b90604483015203925af1801561040857612cf8575b5050604051908152f35b612d028291612f06565b6104055780612cee565b600f54604051631852e8d960e01b8152336004820152602481018590529082168882604481845afa91821561191f5791899188938492612dbd575b5081612d57575b50505050612c8d565b6040516307b22ee360e21b815233600482015260248101929092529092839160449183915af1801561141a57908891612d94575b90818792612d4e565b813d8311612db6575b612da78183612f4f565b810103126108a8578688612d8b565b503d612d9d565b92839194508092503d8311612deb575b612dd78183612f4f565b810103126108a8578691899151908b612d47565b503d612dcd565b80600e5416803b156114e657858091846040518094819363ec817e0d60e01b83523360048401525af1801561141a57612e2c575b50612c80565b612e3890959195612f06565b9387612e26565b9095508681813d8311612e67575b612e578183612f4f565b8101031261075957519487612c71565b503d612e4d565b60405162461bcd60e51b8152600481018a905260118186015270155cd95c881b9bdd081d995c9a599a5959607a1b6044820152606490fd5b90508981813d8311612ed8575b612ebd8183612f4f565b81010312612ed457612ece906130c7565b8a612bfb565b8780fd5b503d612eb3565b6040513d8a823e3d90fd5b839034610bfb5781600319360112610bfb576020906012548152f35b6001600160401b0381116113ea57604052565b60c081019081106001600160401b038211176113ea57604052565b604081019081106001600160401b038211176113ea57604052565b90601f801991011681019081106001600160401b038211176113ea57604052565b6001600160401b0381116113ea57601f01601f191660200190565b81601f820112156108a857803590612fa282612f70565b92612fb06040519485612f4f565b828452602083830101116108a857816000926020809301838601378301015290565b600435906001600160a01b03821682036108a857565b604435906001600160a01b03821682036108a857565b602435906001600160a01b03821682036108a857565b60c435906001600160a01b03821682036108a857565b60005b83811061303d5750506000910152565b818101518382015260200161302d565b906020916130668151809281855285808601910161302a565b601f01601f1916010190565b6040519061307f82612f34565b60098252682737ba1030b236b4b760b91b6020830152565b1561309f5750565b60405162461bcd60e51b8152602060048201529081906130c390602483019061304d565b0390fd5b519081151582036108a857565b81601f820112156108a85780516130ea81612f70565b926130f86040519485612f4f565b818452602082840101116108a857613116916020808501910161302a565b90565b9190610100838203126108a85761312f836130c7565b9261313c602082016130c7565b92613149604083016130c7565b92613156606084016130c7565b9260808101519260a08201519260c08301516001600160401b0381116108a85760e0916131849185016130d4565b92015190565b600254604051633e8dc9cf60e21b815290600090829060049082906001600160a01b03165afa9081156131df576000916131c2575090565b6131d5913d8091833e6107718183612f4f565b5050505050505090565b6040513d6000823e3d90fd5b919082018092116131f857565b634e487b7160e01b600052601160045260246000fd5b6040519061321b82612f34565b600d82526c14de5cdd195b481c185d5cd959609a1b6020830152565b1561323e57565b60405162461bcd60e51b815260206004820152601860248201527f436f6e7472616374206e6f7420696e697469616c697a656400000000000000006044820152606490fd5b1561328a57565b60405162461bcd60e51b815260206004820152601160248201527053797374656d206e6f742061637469766560781b6044820152606490fd5b60001981146131f85760010190565b919082039182116131f857565b9060209081838203126108a85782516001600160401b03938482116108a8570181601f820112156108a85780519384116113ea578360051b906040519461332885840187612f4f565b855283808601928201019283116108a8578301905b82821061334b575050505090565b8151815290830190830161333d565b6040516133969161336a82612f34565b600f82526e496e76616c6964206164647265737360881b60208301526001600160a01b03161515613097565b56fea26469706673582212202a0e66fbbf77ee7b1c58232ce9b9ecfd94f11ad84c3ecb120e756ef63a55db4064736f6c6343000813003360808060405234610056576b033b2e3c9fd0803ce8000000600555600480546001600160a01b031916339081179091556000908152600360205260408120805460ff191660011790558055610a98908161005c8239f35b600080fdfe608060408181526004918236101561001657600080fd5b600092833560e01c91826306fdde03146108ca57508163095ea7b31461085957816318160ddd1461083c57816323b872dd146107305781633092afd5146106c5578163313ce567146106a9578163395093511461061e57816340c10f19146104e15783826342966c68146104455750816370a082311461040d5781638da5cb5b146103e557816395d89b4114610381578163983b2d561461030f578163a457c2d71461022157508063a9059cbb14610193578063d5abeb0114610175578063dd62ed3e1461012d5763f46eccc4146100ed57600080fd5b346101295760203660031901126101295760209160ff9082906001600160a01b03610116610966565b1681526003855220541690519015158152f35b5080fd5b50346101295780600319360112610129578060209261014a610966565b610152610981565b6001600160a01b0391821683526002865283832091168252845220549051908152f35b50346101295781600319360112610129576020906005549051908152f35b50346101295780600319360112610129576020916101af610966565b8260243591338452600186526101ca83838620541015610997565b338452600186528184206101df8482546109da565b90556001600160a01b031680845260018652922080546102009083906109fd565b90558251908152600080516020610a43833981519152843392a35160018152f35b82843461030c578160031936011261030c5761023b610966565b90602435338252602094600286528483209360018060a01b031693848452865284832054908282106102c95750849291610274916109da565b33825260028652828220848352865282822055338152600285528181208382528552205482519081527f8c5be1e5ebec7d5bd14f71427d1e84f3dd0314c0f7b2291e5b200ac8c7c3b925843392a35160018152f35b855162461bcd60e51b8152908101879052601e60248201527f44656372656173656420616c6c6f77616e63652062656c6f77207a65726f00006044820152606490fd5b80fd5b90503461037d57602036600319011261037d5761032a610966565b61033f60018060a01b03809354163314610a0a565b168083526003602052908220805460ff191660011790557f6ae172837ea30b801fbfcdd4108aa1d5bf8ff775444fd70256b44e6bf3dfc3f68280a280f35b8280fd5b8383346101295781600319360112610129578051918183019083821067ffffffffffffffff8311176103d25750926103ce9382528252631491539560e21b6020830152519182918261091d565b0390f35b634e487b7160e01b815260418552602490fd5b90503461037d578260031936011261037d575490516001600160a01b03909116815260209150f35b5050346101295760203660031901126101295760209181906001600160a01b03610435610966565b1681526001845220549051908152f35b929150346104dd5760203660031901126104dd573590338352600160205261047282828520541015610997565b33835260016020528083206104888382546109da565b90556104958284546109da565b835580518281527fcc16f5dbb4873280815c1ee09dbd06736cffcc184412cf7a71a0fdb75d397ca560203392a251908152600080516020610a4383398151915260203392a380f35b5050fd5b90503461037d578160031936011261037d576104fb610966565b602435903385526020926003845260ff8587205416801561060b575b156105db5785549061052984836109fd565b600554106105a257509185939161054f82600080516020610a43833981519152956109fd565b855560018060a01b0316948585526001835280852061056f8382546109fd565b9055857f0f6798a560793a54c3bcfe86a93cde1e73087d944c0ea20544137d4121396885848351858152a251908152a380f35b855162461bcd60e51b8152908101859052601360248201527213585e081cdd5c1c1b1e48195e18d959591959606a1b6044820152606490fd5b845162461bcd60e51b8152908101849052600a6024820152692737ba1036b4b73a32b960b11b6044820152606490fd5b5080546001600160a01b03163314610517565b505034610129578060031936011261012957610638610966565b33835281602093600285528181209260018060a01b031692838252855281812061066560243582546109fd565b9055338152600285528181208382528552205482519081527f8c5be1e5ebec7d5bd14f71427d1e84f3dd0314c0f7b2291e5b200ac8c7c3b925843392a35160018152f35b5050346101295781600319360112610129576020905160128152f35b90503461037d57602036600319011261037d576106e0610966565b6106f560018060a01b03809354163314610a0a565b168083526003602052908220805460ff191690557fe94479a9f7e1952cc78f2d6baab678adc1b772d936c6583def489e524cb666928280a280f35b82843461030c57606036600319011261030c5761074b610966565b610753610981565b906044359060018060a01b03809116928385526020966001885261077c84888820541015610997565b848652600288528686203387528852838787205410610804575091858792600080516020610a4383398151915294868852600185528288206107bf8582546109da565b90551695868152600184528181206107d88482546109fd565b9055858152600284528181203382528452206107f58282546109da565b90558551908152a35160018152f35b865162461bcd60e51b81529081018890526012602482015271105b1b1bddd85b98d948195e18d95959195960721b6044820152606490fd5b505034610129578160031936011261012957602091549051908152f35b50503461012957806003193601126101295760209181610877610966565b91602435918291338152600287528181209460018060a01b0316948582528752205582519081527f8c5be1e5ebec7d5bd14f71427d1e84f3dd0314c0f7b2291e5b200ac8c7c3b925843392a35160018152f35b83853461030c578060031936011261030c578183019083821067ffffffffffffffff8311176103d257506103ce93508152600f82526e2932b73a21b430b4b7102a37b5b2b760891b602083015251918291825b6020808252825181830181905290939260005b82811061095257505060409293506000838284010152601f8019910116010190565b818101860151848201604001528501610930565b600435906001600160a01b038216820361097c57565b600080fd5b602435906001600160a01b038216820361097c57565b1561099e57565b60405162461bcd60e51b8152602060048201526014602482015273496e73756666696369656e742062616c616e636560601b6044820152606490fd5b919082039182116109e757565b634e487b7160e01b600052601160045260246000fd5b919082018092116109e757565b15610a1157565b60405162461bcd60e51b81526020600482015260096024820152682737ba1037bbb732b960b91b6044820152606490fdfeddf252ad1be2c89b69c2b068fc378daa952ba7f163c4a11628f55a4df523b3efa2646970667358221220c5698d936bb4b6fa1647f41c5a6019ef466ec50f4007c2c8b40143b2cf2bb20864736f6c6343000813003360803462000126576001600160401b0390601f6200323c38819003918201601f19168301918483118484101762000110578084926020946040528339810103126200012657516001600160a01b0381169190829003620001265760018060a01b03199133836000541617600055826002541617600255600180556040519060c0820190828210908211176200011057604052610fa0808252610bb88060208401526107d0908160408501526101f49283606086015260c860a061012c968760808201520152600e55600f5560105560115560125560c86013553381600654161760065533816007541617600755338160085416176008553390600954161760095560405161311090816200012c8239f35b634e487b7160e01b600052604160045260246000fd5b600080fdfe6080806040526004361015610261575b50361561001b57600080fd5b60405161002781612a5c565b600e815260208082016d191a5c9958dd17d9195c1bdcda5d60921b815260018060a01b0360025416906040518092633e8dc9cf60e21b825281600460009586935afa908115610256579061008c91849161022d575b50610085612dc6565b9015612c59565b60ff825460a01c16156101ed5760ff6003604051858188516100af8183896129b5565b810184815203019020015416156101af57341561017957917f4351add42c5a9c45fee71ba1fe1279c1fb34fd14beb743011618de4d5439c55e9391600261010583610169966040518093819289519283916129b5565b810160038152030190206001810161011e348254612da3565b90550161012c348254612da3565b90558080526004825260408120610144348254612da3565b905561015234600a54612da3565b600a556040519384936060855260608501906129d8565b91349084015260408301520390a1005b60405162461bcd60e51b815260048101849052600e60248201526d125b9d985b1a5908185b5bdd5b9d60921b6044820152606490fd5b60405162461bcd60e51b8152600481018490526016602482015275496e76616c696420726576656e75652073747265616d60501b6044820152606490fd5b60405162461bcd60e51b815260048101849052601860248201527710dbdb9d1c9858dd081b9bdd081a5b9a5d1a585b1a5e995960421b6044820152606490fd5b61024991503d8086833e6102418183612a77565b810190612c96565b505050505050503861007c565b6040513d85823e3d90fd5b600090813560e01c908163158ef93e1461291d5750806326d44685146128f45780632ea1b3c4146126f6578063345210dd146126a95780633981afc1146126205780633aecd0e314612005578063408def1e146125bb578063439766ce1461251857806343a2a0d5146121995780634484aa7d1461212957806345282a92146120675780634626402b1461203e578063523fba7f1461200557806352c02e7214611dc757806354fd4d5014611da9578063551512de14611bd15780635d65ad6714611b2457806366291dd0146118e857806374fc18321461179757806375829def1461171957806375f0a874146116f05780637691c4ac146116cb578063780b9737146113ab5780637cc1f867146113525780638df165f5146112b4578063a717639c14611296578063bf2d9e0b14611278578063c04a54141461124f578063c4bc5da5146111d7578063c7574839146111ae578063c8692e3f14611162578063ce37e80e1461088c578063d0296bf01461078c578063e430d8151461076e578063efca2eed14610750578063f22cfef21461056f578063f851a440146105485763fa3b1ed80361000f57346105455760c0366003190112610545576004356024356044359161046a8260643561271061046f8861046a8761046a8661046a8d61046a6084359b8c9660a4359e8f9a60018060a01b039054163314610464612c34565b90612c59565b612da3565b03610500577f7235ae58d81aeb14963e5d55c9028abe2f25d06b195ade686b9ce45177ca5b569560c0958460a06040516104a8816129fd565b888152836020820152846040820152856060820152866080820152015285600e5580600f5581601055826011558360125584601355604051958652602086015260408501526060840152608083015260a0820152a180f35b60405162461bcd60e51b815260206004820152601a60248201527f416c6c6f636174696f6e206d75737420746f74616c20313030250000000000006044820152606490fd5b80fd5b5034610545578060031936011261054557546040516001600160a01b039091168152602090f35b503461054557806003193601126105455760405161058c816129fd565b600590818152825b60a0811061073d5750604051926105aa846129fd565b828452602060a03682870137604051906105c3826129fd565b84825260a03682840137604051916105da836129fd565b8583528183019460a0368737845b8781106106b757506040519788976080890160808a5283518091528560a082818d01941b8c010194019188905b82821061067e5750505050916106368285948a6106449503868c015261293f565b9088820360408a015261293f565b92868403606088015251928381520193925b82811061066557505050500390f35b8351151585528695509381019392810192600101610656565b91939496806106a1600193959899829c9b9d9e609f1990820301865289516129d8565b9701920192018b9a999798969594939192610615565b8060ff60036106d96106d461072f959d9697989a999b9c9d612f57565b612b2e565b6106e281612b8e565b6106ec8589612f20565b526106f78488612f20565b5060018101546107078588612f20565b526002810154610717858a612f20565b52015416610725828a612f20565b9015159052612def565b9796959394929190976105e8565b6060602082840181019190915201610594565b50346105455780600319360112610545576020600b54604051908152f35b50346105455780600319360112610545576020600c54604051908152f35b5034610545576040366003190112610545576004356001600160401b038111610888576107bd903690600401612ab3565b6024358015158103610884576107e060018060a01b038454163314610464612c34565b6040519161080c815193602081818501966107fc81838a6129b5565b8101600381520301902054612b54565b1561084c5761082e6020610849946003936040519384928392519283916129b5565b810184815203019020019060ff801983541691151516179055565b80f35b60405162461bcd60e51b815260206004820152601060248201526f14dd1c99585b481b9bdd08199bdd5b9960821b6044820152606490fd5b8280fd5b5080fd5b5034610545576080366003190112610545576108a6612973565b6108ae61299f565b906108b7612989565b6064356001600160a01b038181169490929185900361115d5782906108e3828854163314610464612c34565b816001600160601b0360a01b9516856006541617600655168360075416176007551681600854161760085560095416176009556040519061092382612a41565b60405161092f81612a5c565b600d81526c506c6174666f726d204665657360981b602082015282526020820191818352604081019082825260016060820152602d6040516c706c6174666f726d5f6665657360981b81526003600d820152209181519485516001600160401b038111610e8f576109a08554612b54565b601f8111611118575b506020601f82116001146110ab5791816060949260039694899a610a049a926110a0575b50508160011b9160001990881b1c19161786555b5160018601555160028501550151151591019060ff801983541691151516179055565b60405190610a1182612a41565b604051610a1d81612a5c565b6011815270537562736372697074696f6e204665657360781b6020820152825280602083015280604083015260016060830152603160405170737562736372697074696f6e5f6665657360781b8152600360118201522082519283516001600160401b038111610f5e57610a918354612b54565b601f811161105b575b506020601f82116001146110095791816060926003948798610afb9892610ea3575b50508160011b9160001990861b1c19161784555b60208101516001850155604081015160028501550151151591019060ff801983541691151516179055565b60405190610b0882612a41565b604051610b1481612a5c565b6012815271496e737572616e6365205072656d69756d7360701b6020820152825280602083015280604083015260016060830152603260405171696e737572616e63655f7072656d69756d7360701b8152600360128201522082519283516001600160401b038111610f5e57610b8a8354612b54565b601f8111610fc4575b506020601f8211600114610f725791816060926003948798610bf29892610ea35750508160011b9160001990861b1c191617845560208101516001850155604081015160028501550151151591019060ff801983541691151516179055565b60405190610bff82612a41565b604051610c0b81612a5c565b601081526f4d61726b6574706c616365204665657360801b602082015282528060208301528060408301526001606083015260306040516f6d61726b6574706c6163655f6665657360801b8152600360108201522082519283516001600160401b038111610f5e57610c7d8354612b54565b601f8111610f19575b506020601f8211600114610eae5791816060926003948798610ce59892610ea35750508160011b9160001990861b1c191617845560208101516001850155604081015160028501550151151591019060ff801983541691151516179055565b60405190610cf282612a41565b604051610cfe81612a5c565b600f81526e5374616b696e67205265776172647360881b60208201528252602082019181835260408101828152606082019060018252602f6040516e7374616b696e675f7265776172647360881b81526003600f8201522092519485516001600160401b038111610e8f57610d738554612b54565b601f8111610e4a575b506020601f8211600114610ddf57908060039594939288996108499992610dd4575b50508160011b9160001990871b1c19161785555b51600185015551600284015551151591019060ff801983541691151516179055565b015190503880610d9e565b8587526020872097601f198316885b818110610e3257509860019284926003989796956108499b9c10610e1a575b505050811b018555610db2565b015160001983891b60f8161c19169055388080610e0d565b838301518b556001909a019960209384019301610dee565b85875260208720601f830160051c81019160208410610e85575b601f0160051c01905b818110610e7a5750610d7c565b878155600101610e6d565b9091508190610e64565b634e487b7160e01b86526041600452602486fd5b015190503880610abc565b8385526020852095601f198316865b818110610f01575092610ce59697600395936001938360609710610ee9575b505050811b018455610ad0565b015160001983881b60f8161c19169055388080610edc565b83830151895560019098019760209384019301610ebd565b83855260208520601f830160051c81019160208410610f54575b601f0160051c01905b818110610f495750610c86565b858155600101610f3c565b9091508190610f33565b634e487b7160e01b84526041600452602484fd5b8385526020852095601f198316865b818110610fac575092610bf29697600395936001938360609710610ee957505050811b018455610ad0565b83830151895560019098019760209384019301610f81565b83855260208520601f830160051c81019160208410610fff575b601f0160051c01905b818110610ff45750610b93565b858155600101610fe7565b9091508190610fde565b8385526020852095601f198316865b818110611043575092610afb9697600395936001938360609710610ee957505050811b018455610ad0565b83830151895560019098019760209384019301611018565b83855260208520601f830160051c81019160208410611096575b601f0160051c01905b81811061108b5750610a9a565b85815560010161107e565b9091508190611075565b0151905038806109cd565b8587526020872097601f198316885b818110611100575092610a04989960039795936001938360609997106110e8575b505050811b0186556109e1565b0151600019838a1b60f8161c191690553880806110db565b838301518b556001909a0199602093840193016110ba565b85875260208720601f830160051c81019160208410611153575b601f0160051c01905b81811061114857506109a9565b87815560010161113b565b9091508190611132565b600080fd5b503461054557806003193601126105455760a090600a54906040600b549180805260046020522054600d5490600c54926040519485526020850152604084015260608301526080820152f35b50346105455780600319360112610545576009546040516001600160a01b039091168152602090f35b50346105455780600319360112610545578060018060a01b03611201818354163314610464612c34565b60025416803b1561124c5781809160046040518094819363157c51d360e01b83525af18015611241576112315750f35b61123a90612a2e565b6105455780f35b6040513d84823e3d90fd5b50fd5b50346105455780600319360112610545576007546040516001600160a01b039091168152602090f35b50346105455780600319360112610545576020600a54604051908152f35b50346105455780600319360112610545576020600d54604051908152f35b503461054557602036600319011261054557600435906001600160401b0382116105455761133c61130060206112ed3660048701612ab3565b81604051938285809451938492016129b5565b8101600381520301902061131381612b8e565b9060018101549060ff6003600283015492015416906040519485946080865260808601906129d8565b9260208501526040840152151560608301520390f35b50346105455780600319360112610545575460025460015460a0926001600160a01b039283169160ff9190611385612d42565b93604051958316865260208601526040850152841c161515606083015215156080820152f35b5034610545576040366003190112610545576004356001600160401b038111610888576113dc903690600401612ab3565b6113e461299f565b82546001600160a01b03906113ff9082163314610464612c34565b6114088261307e565b6040519061141582612a5c565b600882526020918281019067747265617375727960c01b8252604051918483018751936114598782818c019761144c81878b6129b5565b8101038084520182612a77565b5190209161147886604051809361144c838301968792519283916129b5565b519020036114ce5750916000805160206130bb8339815191529391836114c29483166001600160601b0360a01b60065416176006555b6040519485946040865260408601906129d8565b9216908301520390a180f35b6040516114da81612a5c565b600b81528381016a19195d995b1bdc1b595b9d60aa1b81526040518581019061150b87828b5161144c81878b6129b5565b5190209161152a86604051809361144c838301968792519283916129b5565b519020036115645750916000805160206130bb8339815191529391836114c29483166001600160601b0360a01b60075416176007556114ae565b60405161157081612a5c565b60098152838101686d61726b6574696e6760b81b81526040518581019061159f87828b5161144c81878b6129b5565b519020916115be86604051809361144c838301968792519283916129b5565b519020036115f85750916000805160206130bb8339815191529391836114c29483166001600160601b0360a01b60085416176008556114ae565b6040519061160582612a5c565b6009825261144c8483019168636f6d6d756e69747960b81b83526116388660405180938282019586918d519283916129b5565b5190209161165785604051809361144c838301968792519283916129b5565b5190200361169057916000805160206130bb8339815191529391836114c29483166001600160601b0360a01b60095416176009556114ae565b60405162461bcd60e51b8152600481018390526013602482015272496e76616c69642077616c6c6574207479706560681b6044820152606490fd5b503461054557806003193601126105455760206116e6612d42565b6040519015158152f35b50346105455780600319360112610545576008546040516001600160a01b039091168152602090f35b503461054557602036600319011261054557611733612973565b8154906001600160a01b038083169161175561174d612c34565b843314612c59565b61175e8161307e565b1680926001600160601b0360a01b161783557f7e644d79422f17c01e4894b5f4f588d331ebfa28653d42ae832dc59e38c9798f8380a380f35b5034610545576117a636612afa565b83549192916001600160a01b03906117c49082163314610464612c34565b6117cc612d42565b156118af57849281811661180b575082938392839283918315611801575b1690f1156117f55780f35b604051903d90823e3d90fd5b6108fc92506117ea565b60405163a9059cbb60e01b602082019081526001600160a01b039490941660248201526044808201969096529485526108499484939192508390611850606482612a77565b51925af13d156118aa573d61186481612a98565b906118726040519283612a77565b81528360203d92013e5b6040519061188982612a5c565b600f82526e151c985b9cd9995c8819985a5b1959608a1b6020830152612c59565b61187c565b60405162461bcd60e51b815260206004820152601160248201527014de5cdd195b481b9bdd081c185d5cd959607a1b6044820152606490fd5b503461054557602080600319360112610888576001600160401b0390600435828111611b205761191c903690600401612ab3565b9061193460018060a01b038554163314610464612c34565b6040519161194f8151938381818501966107fc81838a6129b5565b611ae3576040519361196085612a41565b818552828501908682526040860193878552611992816060890197600196878a526040519384928392519283916129b5565b8101600381520301902096518051928311611acf576119b18854612b54565b601f8111611a89575b5081601f8411600114611a1b575091806003969492610849999896948b92611a10575b505060001982881b1c191690831b1786555b519085015551600284015551151591019060ff801983541691151516179055565b0151905038806119dd565b9190601f198416898b52838b20938b905b828210611a7257505092869491926108499a9997938360039a989610611a5a575b505050811b0186556119ef565b0151600019838a1b60f8161c19169055388080611a4d565b808986978294978701518155019601940190611a2c565b888a52828a20601f850160051c810191848610611ac5575b601f0160051c019086905b828110611aba5750506119ba565b8b8155018690611aac565b9091508190611aa1565b634e487b7160e01b89526041600452602489fd5b60405162461bcd60e51b815260048101839052601560248201527453747265616d20616c72656164792065786973747360581b6044820152606490fd5b8380fd5b503461054557604036600319011261054557806020611b7f611b44612973565b600254604051635d65ad6760e01b81526001600160a01b03928316600482015260248035908201529485939190921691839182906044820190565b03925af1908115611241578291611b9c575b602082604051908152f35b90506020813d8211611bc9575b81611bb660209383612a77565b8101031261088857602091505138611b91565b3d9150611ba9565b503461054557611be036612afa565b835490926001600160a01b0391611bfd9083163314610464612c34565b611c05612d42565b15611d6c5781169081611c7c578480848015611c72575b828092918192868a1690f115611c67577f3ab9db27a4cdd8c603a752b62d5fbd93b4b3509fe2596708e9688e42bbac3576936060935b6040519384526020840152166040820152a180f35b6040513d86823e3d90fd5b6108fc9150611c1c565b60405163a9059cbb60e01b81526001600160a01b0385166004820152602481018490529293919290919060208160448189885af1908115611d61578691611cf4575b50907f3ab9db27a4cdd8c603a752b62d5fbd93b4b3509fe2596708e9688e42bbac357694611cef6060959493612e11565b611c52565b93929190506020843d8211611d59575b81611d1160209383612a77565b81010312611d55577f3ab9db27a4cdd8c603a752b62d5fbd93b4b3509fe2596708e9688e42bbac357694611cef611d49606096612c89565b92939495505094611cbe565b8580fd5b3d9150611d04565b6040513d88823e3d90fd5b60405162461bcd60e51b815260206004820152601560248201527414de5cdd195b481b5d5cdd081899481c185d5cd959605a1b6044820152606490fd5b50346105455780600319360112610545576020600154604051908152f35b5034610545576060366003190112610545576004356001600160401b03811161088857611df8903690600401612ab3565b602435611e03612989565b600254604051633e8dc9cf60e21b81529192916001600160a01b039186908290600490829086165afa8015611d6157611e45918791611ff15750610085612dc6565b60ff855460a01c1615611fb15760405192845160ff60036020968781818b0195611e708183896129b5565b81018481520301902001541615611f73578315611f3d57917f4351add42c5a9c45fee71ba1fe1279c1fb34fd14beb743011618de4d5439c55e9593916002611ec887611f2e9896604051809381928b519283916129b5565b8101600381520301902060018101611ee1868254612da3565b905501611eef848254612da3565b905516908187526004835260408720611f09828254612da3565b9055611f1781600a54612da3565b600a556040519485946060865260608601906129d8565b9284015260408301520390a180f35b60405162461bcd60e51b815260048101869052600e60248201526d125b9d985b1a5908185b5bdd5b9d60921b6044820152606490fd5b60405162461bcd60e51b8152600481018690526016602482015275496e76616c696420726576656e75652073747265616d60501b6044820152606490fd5b60405162461bcd60e51b815260206004820152601860248201527710dbdb9d1c9858dd081b9bdd081a5b9a5d1a585b1a5e995960421b6044820152606490fd5b61024991503d8089833e6102418183612a77565b5034610545576020366003190112610545576020906040906001600160a01b0361202d612973565b168152600483522054604051908152f35b50346105455780600319360112610545576006546040516001600160a01b039091168152602090f35b5034610545578060031936011261054557600254604051633e8dc9cf60e21b815291908190839060049082906001600160a01b03165afa801561211c578180938180936120e8575b5050906120bf6120e49285612da3565b60405194859415158552602085015260408401526080606084015260808301906129d8565b0390f35b9091506120e494506120bf935061210992503d8091833e6102418183612a77565b50945096949150949150939491926120af565b50604051903d90823e3d90fd5b503461054557602036600319011261054557604090600435815260056020522080546120e460018301549260028101549060038101546005600483015492015492604051968796879260a094919796959260c0850198855260208501526040840152606083015260808201520152565b5034610545576020366003190112610545576121b3612973565b81546001600160a01b031633148015612504575b156124ce5760028054604051633e8dc9cf60e21b8152908490829060049082906001600160a01b03165afa8015611c675761220b9185916124ba5750610085612dc6565b6001600160a01b03821683526004602052604083205490811561247c57604051612234816129fd565b600e548152600f54602082015260105460408201526011546060820152601254608082015260135460a0820152600c549361226e85612def565b600c5561271061046a81612283855188612dfe565b049160a08161229660208801518a612dfe565b049361046a896122f58761046a8b886122b3604083015187612dfe565b04998961046a8c9b6122c960608601518a612dfe565b049c826122eb8f946122df60808901518d612dfe565b049d8e9701518b612dfe565b04998a978c612da3565b11612437576123446123689461233261236f986123206123569660018060a01b03600654168d612e4f565b6007546001600160a01b03168b612e4f565b6008546001600160a01b031689612e4f565b6009546001600160a01b031687612e4f565b6006546001600160a01b031692612da3565b9083612e4f565b6001600160a01b03168552600460205260408520859055600b54612394908490612da3565b600b5542600d55845b600581106124195750918391600560a06040957f40d8c854b6d5329fd5fccae04f5a931d7529963fbab81aced7337394e737cb4d9789528260205286892093815185556020820151600186015587820151908501556060810151600385015560808101516004850155015191015582519182526020820152a180f35b80868461242b6106d461243295612f57565b0155612def565b61239d565b60405162461bcd60e51b815260206004820152601860248201527f416c6c6f636174696f6e206578636565647320746f74616c00000000000000006044820152606490fd5b60405162461bcd60e51b81526020600482015260166024820152754e6f2066756e647320746f206469737472696275746560501b6044820152606490fd5b61024991503d8087833e6102418183612a77565b60405162461bcd60e51b815260206004820152600e60248201526d139bdd08185d5d1a1bdc9a5e995960921b6044820152606490fd5b506006546001600160a01b031633146121c7565b50346105455780600319360112610545578060018060a01b03612542818354163314610464612c34565b60025416803b1561124c57819060e4604051809481936334cc128960e21b835260016004840152600160248401526001604484015262278d00606484015260a06084840152600b60a48401526a41646d696e20706175736560a81b60c48401525af18015611241576125b2575080f35b61084990612a2e565b5034610545576020366003190112610545577f730abf329076f769aacddade69fbe7ca672a3c95fc1b7728ecf7b8f8cb705ed0604060043561260a60018060a01b038554163314610464612c34565b600154908060015582519182526020820152a180f35b5034610545576020366003190112610545577f62fb284f5d1a9d326f25d6900267a8cb39113f8484b351a73c1ada4014c66864604061265d612973565b83546001600160a01b03906126789082163314610464612c34565b6126818261307e565b80600254921690816001600160601b0360a01b8416176002558351921682526020820152a180f35b5034610545578060031936011261054557600e54600f54601054601154601254601354604080519687526020870195909552938501929092526060840152608083015260a082015260c090f35b50346105455760403660031901126105455760043560243581600c5461271c8282612f4a565b8311156128ed5761272d9250612f4a565b61273681612f09565b916127446040519384612a77565b818352601f19918261275582612f09565b0191602092368487013761276882612f09565b936127766040519586612a77565b82855261278283612f09565b01865b8181106128ad575050855b828110612819575050506127af6040519360408552604085019061293f565b90838203818501528080845193848152019301945b8281106127d15784840385f35b855180518552808301518584015260408082015190860152606080820151908601526080808201519086015260a090810151908501529481019460c0909301926001016127c4565b8061282a6128a59284999799612da3565b6128348289612f20565b5261283f8184612da3565b86526005808652604087209060405191612858836129fd565b80548352600181015488840152600281015460408401526003810154606084015260048101546080840152015460a0820152612894828a612f20565b5261289f8189612f20565b50612def565b959395612790565b84906040989698516128be816129fd565b87815287838201528760408201528760608201528760808201528760a082015282828b01015201969496612785565b505061272d565b50346105455780600319360112610545576002546040516001600160a01b039091168152602090f35b90503461088857816003193601126108885760ff6020925460a01c1615158152f35b90815180825260208080930193019160005b82811061295f575050505090565b835185529381019392810192600101612951565b600435906001600160a01b038216820361115d57565b604435906001600160a01b038216820361115d57565b602435906001600160a01b038216820361115d57565b60005b8381106129c85750506000910152565b81810151838201526020016129b8565b906020916129f1815180928185528580860191016129b5565b601f01601f1916010190565b60c081019081106001600160401b03821117612a1857604052565b634e487b7160e01b600052604160045260246000fd5b6001600160401b038111612a1857604052565b608081019081106001600160401b03821117612a1857604052565b604081019081106001600160401b03821117612a1857604052565b90601f801991011681019081106001600160401b03821117612a1857604052565b6001600160401b038111612a1857601f01601f191660200190565b81601f8201121561115d57803590612aca82612a98565b92612ad86040519485612a77565b8284526020838301011161115d57816000926020809301838601378301015290565b606090600319011261115d576001600160a01b03600435818116810361115d579160243591604435908116810361115d5790565b6020612b479181604051938285809451938492016129b5565b8101600381520301902090565b90600182811c92168015612b84575b6020831014612b6e57565b634e487b7160e01b600052602260045260246000fd5b91607f1691612b63565b9060405191826000825492612ba284612b54565b908184526001948581169081600014612c115750600114612bce575b5050612bcc92500383612a77565b565b9093915060005260209081600020936000915b818310612bf9575050612bcc93508201013880612bbe565b85548884018501529485019487945091830191612be1565b915050612bcc94506020925060ff191682840152151560051b8201013880612bbe565b60405190612c4182612a5c565b60098252682737ba1030b236b4b760b91b6020830152565b15612c615750565b60405162461bcd60e51b815260206004820152908190612c859060248301906129d8565b0390fd5b5190811515820361115d57565b91906101008382031261115d57612cac83612c89565b92612cb960208201612c89565b92612cc660408301612c89565b92612cd360608401612c89565b9260808101519260a08201519260c08301516001600160401b03811161115d5783019080601f8301121561115d57815191612d0d83612a98565b91612d1b6040519384612a77565b8383526020848301011161115d5760e092612d3c91602080850191016129b5565b92015190565b600254604051633e8dc9cf60e21b815290600090829060049082906001600160a01b03165afa908115612d9757600091612d7a575090565b612d8d913d8091833e6102418183612a77565b5050505050505090565b6040513d6000823e3d90fd5b91908201809211612db057565b634e487b7160e01b600052601160045260246000fd5b60405190612dd382612a5c565b600d82526c14de5cdd195b481c185d5cd959609a1b6020830152565b6000198114612db05760010190565b81810292918115918404141715612db057565b15612e1857565b60405162461bcd60e51b815260206004820152600f60248201526e151c985b9cd9995c8819985a5b1959608a1b6044820152606490fd5b908215612f04576001600160a01b0391821680612e7b57506000808094819482941682f1156117f55750565b60405163a9059cbb60e01b81526001600160a01b0392909216600483015260248201939093529160209150829060449082906000905af18015612d9757600090612eca575b612bcc9150612e11565b6020823d8211612efc575b81612ee260209383612a77565b810103126105455750612ef7612bcc91612c89565b612ec0565b3d9150612ed5565b505050565b6001600160401b038111612a185760051b60200190565b8051821015612f345760209160051b010190565b634e487b7160e01b600052603260045260246000fd5b91908203918211612db057565b801561305457600181146130265760028114612ff75760038114612fca57600414612f9f57604051612f8881612a5c565b60078152663ab735b737bbb760c91b602082015290565b604051612fab81612a5c565b600f81526e7374616b696e675f7265776172647360881b602082015290565b50604051612fd781612a5c565b601081526f6d61726b6574706c6163655f6665657360801b602082015290565b5060405161300481612a5c565b6012815271696e737572616e63655f7072656d69756d7360701b602082015290565b5060405161303381612a5c565b6011815270737562736372697074696f6e5f6665657360781b602082015290565b5060405161306181612a5c565b600d81526c706c6174666f726d5f6665657360981b602082015290565b604051612bcc9161308e82612a5c565b600f82526e496e76616c6964206164647265737360881b60208301526001600160a01b03161515612c5956fe6ff3a4003b90be84595beb5f6acb9d54f88bd3e6dd4887ca67e53dc9645465eaa2646970667358221220e3f97fcf9feb4f271ec763fdfbe604c6ced73baa8238ffd871801921b212712164736f6c634300081300336080806040523461001657610edd908161001c8239f35b600080fdfe608080604052600436101561001357600080fd5b60003560e01c90816318d0e8b214610b37575080631bf94bf214610b065780631f4ac12914610aae5780632932ebe2146105c5578063396e77e7146105a7578063404a51391461030457806373b1851c14610219578063ac610e88146101f3578063e83ddcea1461013e5763ed10b1dd1461008d57600080fd5b34610139576020366003190112610139576004356000818152602081905260409020546001600160a01b031615610101578060005260006020526007604060002001600160ff198254161790557f6c791c617591653cc115cd51ccea47bba48c18c394a2ea4435fed2528f5ed665600080a2005b60405162461bcd60e51b815260206004820152601060248201526f14995d9a595dc81b9bdd08199bdd5b9960821b6044820152606490fd5b600080fd5b34610139576020366003190112610139576004356000526000602052604060002060018060a01b0380825416906001830154169160028101546101e260ff6003840154166101d461019160048601610d49565b61019d60058701610d49565b9260ff600760068901549801541695604051998a998a5260208a015260408901526060880152610100806080890152870190610ccf565b9085820360a0870152610ccf565b9160c0840152151560e08301520390f35b34610139576020366003190112610139576020610211600435610e38565b604051908152f35b346101395760208060031936011261013957610233610bc1565b600380546000928392906001600160a01b03908116845b8481106102885787878781158061027e576102685704604051908152f35b634e487b7160e01b600052601260045260246000fd5b5050506000610211565b80600052600088526040600020828460018301541614806102f6575b6102b8575b506102b390610def565b61024a565b8460ff919897929801541681018091116102e0576102d96102b39196610def565b96906102a9565b634e487b7160e01b600052601160045260246000fd5b5060ff6007820154166102a4565b34610139576020806003193601126101395760038054916004358381111561059f575091805b61033381610e7b565b926103416040519485610c56565b818452601f19918261035282610e7b565b01368787013761036181610e7b565b9361036f6040519586610c56565b8185528361037c83610e7b565b0160005b8181106105485750506000198082019180831160005b85811061047c578a8a8a8a6103b660405193604085526040850190610bd7565b938385038185015282519081865280860181808460051b8901019501936000975b8489106103e45787870388f35b909192939495848082858560019503018752895190848060a01b0380835116825283830151168382015260408201516040820152606060ff81840151169082015260e080610458610445608080870151906101008091880152860190610ccf565b60a0808701519086830390870152610ccf565b9360c0808201519085015201511515910152980194019801979190949392946103d7565b819a979a6102e0578381840301908582116102e05781610540926104a0838e610e93565b52600052600089526040600020604051906104ba82610c39565b80546001600160a01b0390811683526001820154168b830152600281015460408301528981015460ff9081166060840152906007906104fb60048201610d49565b608085015261050c60058201610d49565b60a0850152600681015460c0850152015416151560e082015261052f828c610e93565b5261053a818b610e93565b50610def565b999699610396565b9780959860409493945161055b81610c39565b6000815260008382015260006040820152606060008183015280608083015260a0820152600060c0820152600060e082015282828a01015201979497929192610380565b92909261032a565b34610139576000366003190112610139576020600354604051908152f35b346101395760a0366003190112610139576105de610bc1565b6044359060ff821682036101395760643567ffffffffffffffff81116101395761060c903690600401610c78565b60843567ffffffffffffffff81116101395761062c903690600401610c78565b600160ff8516101580610aa0575b15610a6a57602435600052600260205260ff60406000205416610a25576003549161066483610def565b60035560ff6040519561067687610c39565b33875260018060a01b03861660208801526024356040880152166060860152608085015260a08401524260c0840152600060e084015280600052600060205260406000209260018060a01b038151166bffffffffffffffffffffffff60a01b9081865416178555600185019060018060a01b0360208401511690825416179055604081015160028501556003840160ff60608301511660ff19825416179055608081015180519067ffffffffffffffff821161093f57819061073b6004880154610d0f565b601f81116109d2575b50602090601f831160011461096057600092610955575b50508160011b916000199060031b1c19161760048501555b60a081015193845167ffffffffffffffff811161093f576107976005830154610d0f565b95601f87116108f8575b602096508690601f831160011461088757918060e0949260079460009261087c575b50508160011b916000199060031b1c19161760058201555b60c0840151600682015501910151151560ff80198354169116179055336000526001835261080d816040600020610dfe565b60018060a01b0382166000526001835261082b816040600020610dfe565b602435600052600283526040600020600160ff198254161790556040519160018060a01b031633827f7a1fdd90c3193bbed48d66a2360ac4036187df7f3947ce2c9463476ae7906d49600080a48152f35b0151905089806107c3565b90601f1983169160058501600052886000209260005b8181106108e1575092600192859260079660e09896106108c8575b505050811b0160058201556107db565b015160001960f88460031b161c191690558980806108b8565b92938a60018192878601518155019501930161089d565b600583016000526020600020601f830160051c810160208410610938575b601f890160051c8201811061092c5750506107a1565b60008155600101610916565b5080610916565b634e487b7160e01b600052604160045260246000fd5b01519050868061075b565b9250600487016000526020600020906000935b601f19841685106109b7576001945083601f1981161061099e575b505050811b016004850155610773565b015160001960f88460031b161c1916905586808061098e565b81810151835560209485019460019093019290910190610973565b909150600487016000526020600020601f840160051c810160208510610a1e575b90849392915b601f830160051c82018110610a0f575050610744565b600081558594506001016109f9565b50806109f3565b60405162461bcd60e51b815260206004820152601a60248201527f41677265656d656e7420616c72656164792072657669657765640000000000006044820152606490fd5b60405162461bcd60e51b815260206004820152600e60248201526d496e76616c696420726174696e6760901b6044820152606490fd5b50600560ff8516111561063a565b3461013957604036600319011261013957610ac7610bc1565b6001600160a01b031660009081526001602052604090208054602435919082101561013957602091610af891610c0b565b90546040519160031b1c8152f35b34610139576020366003190112610139576004356000526002602052602060ff604060002054166040519015158152f35b3461013957602080600319360112610139576001600160a01b03610b59610bc1565b16600052600180825282604060002080549283835284830191600052846000209060005b86868210610bab578590610b9382870383610c56565b610ba7604051928284938452830190610bd7565b0390f35b8354855288955090930192918101918101610b7d565b600435906001600160a01b038216820361013957565b90815180825260208080930193019160005b828110610bf7575050505090565b835185529381019392810192600101610be9565b8054821015610c235760005260206000200190600090565b634e487b7160e01b600052603260045260246000fd5b610100810190811067ffffffffffffffff82111761093f57604052565b90601f8019910116810190811067ffffffffffffffff82111761093f57604052565b81601f820112156101395780359067ffffffffffffffff821161093f5760405192610cad601f8401601f191660200185610c56565b8284526020838301011161013957816000926020809301838601378301015290565b919082519283825260005b848110610cfb575050826000602080949584010152601f8019910116010190565b602081830181015184830182015201610cda565b90600182811c92168015610d3f575b6020831014610d2957565b634e487b7160e01b600052602260045260246000fd5b91607f1691610d1e565b9060405191826000825492610d5d84610d0f565b908184526001948581169081600014610dcc5750600114610d89575b5050610d8792500383610c56565b565b9093915060005260209081600020936000915b818310610db4575050610d8793508201013880610d79565b85548884018501529485019487945091830191610d9c565b915050610d8794506020925060ff191682840152151560051b8201013880610d79565b60001981146102e05760010190565b80546801000000000000000081101561093f57610e2091600182018155610c0b565b819291549060031b91821b91600019901b1916179055565b600354906000805b838110610e51575050505060001990565b8082528160205282600260408420015414610e7457610e6f90610def565b610e40565b9250505090565b67ffffffffffffffff811161093f5760051b60200190565b8051821015610c235760209160051b01019056fea26469706673582212206d0720c222312c923c04605d125eefe3c5d7fbe39645d263de746aa3339299ea64736f6c6343000813003360808060405234610040573360018060a01b031960025416176002553360005260016020526040600020600160ff198254161790556116de90816100468239f35b600080fdfe608080604052600436101561001357600080fd5b60e0600035811c91826314d0f1ba14611312575081634b084d77146110055781634d81312014610f4c578163869d785f14610f005781639247db6314610d4357816393e54a56146107855781639483f25c14610282578163a87430ba146101a357508063ace417e014610161578063b532e4cb14610110578063baccbfdb146100d35763f851a440146100a557600080fd5b346100ce5760003660031901126100ce576002546040516001600160a01b039091168152602090f35b600080fd5b346100ce5760203660031901126100ce576001600160a01b036100f461134d565b1660005260006020526020600560406000200154604051908152f35b346100ce5760203660031901126100ce5761012961134d565b6002546001600160a01b039190610143908316331461162e565b1660005260016020526040600020600160ff19825416179055600080f35b346100ce5760203660031901126100ce576001600160a01b0361018261134d565b166000526000602052602060ff600460406000200154166040519015158152f35b346100ce5760203660031901126100ce5761023f906001600160a01b036101c861134d565b16600052600060205260406000206101df816114ea565b916101ec600183016114ea565b906101f9600284016114ea565b92610206600382016114ea565b9361026960ff6004840154169561025b60058501549361024d60076006880154970154986040519c8d9c8d610100908181520190611363565b8c810360208e015290611363565b908a820360408c0152611363565b9088820360608a0152611363565b941515608087015260a086015260c08501528301520390f35b346100ce5761029036611439565b9233600052602093600085526102aa6040600020546114b0565b1561074f57336000526000855260406000209282519367ffffffffffffffff948581116104fc57806102dc83546114b0565b95601f96878111610700575b50899087831160011461069b57600092610690575b50508160011b916000199060031b1c19161790555b336000526000865260019485604060002001908051908682116104fc57819061033b84546114b0565b87811161063f575b5089908783116001146105dc576000926105d1575b5050600019600383901b1c191690871b1790555b33600052600086526002604060002001908051908582116104fc57819061039384546114b0565b868111610580575b50889086831160011461051d57600092610512575b5050600019600383901b1c191690861b1790555b336000526000855260036040600020019481519384116104fc576103e886546114b0565b8381116104b6575b50809284116001146104505750928293918392600094610445575b50501b916000199060031b1c19161790555b337fbe4ec58a792f909e102ee3d745d0c3b34a4d437a54d903c4db098d31c556422f600080a2005b01519250858061040b565b919083601f1981168760005284600020946000905b8883831061049c5750505010610483575b505050811b01905561041d565b015160001960f88460031b161c19169055838080610476565b858701518855909601959485019487935090810190610465565b86600052816000208480870160051c8201928488106104f3575b0160051c019086905b8281106104e75750506103f0565b600081550186906104d9565b925081926104d0565b634e487b7160e01b600052604160045260246000fd5b0151905088806103b0565b90889350601f19831691856000528a6000209260005b8c82821061056a5750508411610551575b505050811b0190556103c4565b015160001960f88460031b161c19169055888080610544565b8385015186558c97909501949384019301610533565b90915083600052886000208680850160051c8201928b86106105c8575b918a91869594930160051c01915b8281106105b957505061039b565b600081558594508a91016105ab565b9250819261059d565b015190508980610358565b90899350601f19831691856000528b6000209260005b8d8282106106295750508411610610575b505050811b01905561036c565b015160001960f88460031b161c19169055898080610603565b8385015186558d979095019493840193016105f2565b90915083600052896000208780850160051c8201928c8610610687575b918b91869594930160051c01915b828110610678575050610343565b600081558594508b910161066a565b9250819261065c565b0151905089806102fd565b60008581528b81209350601f198516905b8c8282106106ea5750509084600195949392106106d1575b505050811b019055610312565b015160001960f88460031b161c191690558980806106c4565b60018596829396860151815501950193016106ac565b90915083600052896000208780850160051c8201928c8610610746575b9085949392910160051c01905b81811061073757506102e8565b6000815584935060010161072a565b9250819261071d565b60405162461bcd60e51b815260048101869052600e60248201526d139bdd081c9959da5cdd195c995960921b6044820152606490fd5b346100ce5761079336611439565b90939192933360005260006020526107af6040600020546114b0565b610d0957604051936107c0856113a3565b85855260208501526040840152606083015260006080830152603260a08301524260c0830152600081830152336000526000602052604060002091805180519067ffffffffffffffff82116104fc57819061081b86546114b0565b601f8111610cb9575b50602090601f8311600114610c4d57600092610c42575b50508160011b916000199060031b1c19161783555b602081015180519067ffffffffffffffff82116104fc57819061087660018701546114b0565b601f8111610bef575b50602090601f8311600114610b7d57600092610b72575b50508160011b916000199060031b1c19161760018401555b604081015180519067ffffffffffffffff82116104fc5781906108d460028701546114b0565b601f8111610b1f575b50602090601f8311600114610aad57600092610aa2575b50508160011b916000199060031b1c19161760028401555b606081015180519067ffffffffffffffff82116104fc5761093060038601546114b0565b601f8111610a5b575b50602090601f83116001146109e757600794939291600091836109dc575b50508160011b916000199060031b1c19161760038501555b600484016080820151151560ff8019835416911617905560a0810151600585015560c0810151600685015501519101557f48cac28ad4dc618e15f4c2dd5e97751182f166de97b25618318b2112aa951a2f60405160208152806109d733946020830190611363565b0390a2005b015190508780610957565b906003860160005260206000209160005b601f1985168110610a4357509183916001936007979695601f19811610610a2a575b505050811b01600385015561096f565b015160001960f88460031b161c19169055878080610a1a565b919260206001819286850151815501940192016109f8565b600386016000526020600020601f840160051c810160208510610a9b575b601f830160051c82018110610a8f575050610939565b60008155600101610a79565b5080610a79565b0151905086806108f4565b9250600286016000526020600020906000935b601f1984168510610b04576001945083601f19811610610aeb575b505050811b01600284015561090c565b015160001960f88460031b161c19169055868080610adb565b81810151835560209485019460019093019290910190610ac0565b909150600286016000526020600020601f840160051c810160208510610b6b575b90849392915b601f830160051c82018110610b5c5750506108dd565b60008155859450600101610b46565b5080610b40565b015190508680610896565b9250600186016000526020600020906000935b601f1984168510610bd4576001945083601f19811610610bbb575b505050811b0160018401556108ae565b015160001960f88460031b161c19169055868080610bab565b81810151835560209485019460019093019290910190610b90565b909150600186016000526020600020601f840160051c810160208510610c3b575b90849392915b601f830160051c82018110610c2c57505061087f565b60008155859450600101610c16565b5080610c10565b01519050868061083b565b9250856000526020600020906000935b601f1984168510610c9e576001945083601f19811610610c85575b505050811b018355610850565b015160001960f88460031b161c19169055868080610c78565b81810151835560209485019460019093019290910190610c5d565b909150856000526020600020601f840160051c810160208510610d02575b90849392915b601f830160051c82018110610cf3575050610824565b60008155859450600101610cdd565b5080610cd7565b60405162461bcd60e51b8152602060048201526012602482015271105b1c9958591e481c9959da5cdd195c995960721b6044820152606490fd5b346100ce5760403660031901126100ce57610d5c61134d565b602435336000526020916001835260ff604060002054168015610eec575b610d8390611590565b60018060a01b0316918260005260008152610dac610da56040600020546114b0565b15156115cc565b6000821315610e425782600052600081526005604060002001918254908101809111610e2c577ffc577563f1b9a0461e24abef1e1fcc0d33d3d881f20b5df6dda59de4aae2c82192555b82600052600081526007604060002001610e10815461161f565b90558260005260008152600560406000200154604051908152a2005b634e487b7160e01b600052601160045260246000fd5b908260005260008252600560406000200154610e5d8261160e565b1015610eb257610e6c9061160e565b9082600052600081526005604060002001918254908103908111610e2c577ffc577563f1b9a0461e24abef1e1fcc0d33d3d881f20b5df6dda59de4aae2c8219255610df6565b507ffc577563f1b9a0461e24abef1e1fcc0d33d3d881f20b5df6dda59de4aae2c82190826000526000815260006005604082200155610df6565b506002546001600160a01b03163314610d7a565b346100ce5760203660031901126100ce57610f1961134d565b6002546001600160a01b039190610f33908316331461162e565b166000908152600160205260409020805460ff19169055005b346100ce5760203660031901126100ce57610f6561134d565b33600052600160205260ff604060002054168015610ff1575b610f8790611590565b60018060a01b0316806000526000602052610fa9610da56040600020546114b0565b8060005260006020526004604060002001600160ff198254161790557fbfb2fa25f828a712fda370028ecc8813c7082c69b239a579753b10e24dd472cc6020604051338152a2005b506002546001600160a01b03163314610f7e565b346100ce5760403660031901126100ce5760243561102281611666565b9161103060405193846113c0565b81835261103c82611666565b92602080820191601f1980960136843761105585611666565b61106260405191826113c0565b8581528661106f87611666565b018360005b8281106112c9575050506000936004355b878610806112b9575b156111a1576001600160a01b038116600081815280875260409020546110b3906114b0565b151580611187575b6110cf575b506110ca9061161f565b611085565b8681611180926110e36110ca959a8961167e565b526000526000875260406000206007604051916110ff836113a3565b611108816114ea565b8352611116600182016114ea565b8a840152611126600282016114ea565b6040840152611137600382016114ea565b606084015260ff60048201541615156080840152600581015460a0840152600681015460c084015201548a82015261116f828761167e565b5261117a818661167e565b5061161f565b95906110c0565b50806000526000865260ff600460406000200154166110bb565b5092859288916040519460408601926040875251809352606092838701979060005b81811061129c57505050858703828701528451928388528288019183808660051b8b01019701956000995b868b106111fb578989038af35b90919293949596978680828585600195030189528b519087806112626112526112406112308751610100808952880190611363565b888801518782038a890152611363565b60408701518682036040880152611363565b858d0151858203868f0152611363565b9360808082015115159085015260a0808201519085015260c0808201519085015201519101529a0196019a019993929190969594966111ee565b82516001600160a01b03168a5298840198918401916001016111c3565b506001600160a01b03811061108e565b6040516112d5816113a3565b606080825280848301528060408301528082015260006080820152600060a0820152600060c0820152600089820152828286010152018490611074565b346100ce5760203660031901126100ce576020906001600160a01b0361133661134d565b166000526001825260ff6040600020541615158152f35b600435906001600160a01b03821682036100ce57565b919082519283825260005b84811061138f575050826000602080949584010152601f8019910116010190565b60208183018101518483018201520161136e565b610100810190811067ffffffffffffffff8211176104fc57604052565b90601f8019910116810190811067ffffffffffffffff8211176104fc57604052565b81601f820112156100ce5780359067ffffffffffffffff82116104fc5760405192611417601f8401601f1916602001856113c0565b828452602083830101116100ce57816000926020809301838601378301015290565b60806003198201126100ce5767ffffffffffffffff906004358281116100ce5781611466916004016113e2565b926024358381116100ce578261147e916004016113e2565b926044358181116100ce5783611496916004016113e2565b926064359182116100ce576114ad916004016113e2565b90565b90600182811c921680156114e0575b60208310146114ca57565b634e487b7160e01b600052602260045260246000fd5b91607f16916114bf565b90604051918260008254926114fe846114b0565b90818452600194858116908160001461156d575060011461152a575b5050611528925003836113c0565b565b9093915060005260209081600020936000915b8183106115555750506115289350820101388061151a565b8554888401850152948501948794509183019161153d565b91505061152894506020925060ff191682840152151560051b820101388061151a565b1561159757565b60405162461bcd60e51b815260206004820152600d60248201526c2737ba1036b7b232b930ba37b960991b6044820152606490fd5b156115d357565b60405162461bcd60e51b8152602060048201526013602482015272155cd95c881b9bdd081c9959da5cdd195c9959606a1b6044820152606490fd5b600160ff1b8114610e2c5760000390565b6000198114610e2c5760010190565b1561163557565b60405162461bcd60e51b81526020600482015260096024820152682737ba1030b236b4b760b91b6044820152606490fd5b67ffffffffffffffff81116104fc5760051b60200190565b80518210156116925760209160051b010190565b634e487b7160e01b600052603260045260246000fdfea26469706673582212209d1728393159528f18e730195abd7e7195cbcd747f3181a8e38de6cc51582fa364736f6c63430008130033ccef30f376c65ae8b2ae589da4cf27d6dcd9a238adca470e9a1713a230a37b5ba264697066735822122086169955b906f593aca54df6f6c1b026b23a154897d002bec2bf13da3171a10a64736f6c63430008130033",
  "linkReferences": {},
  "deployedLinkReferences": {}
}