{
  "_format": "hh-sol-artifact-1",
  "contractName": "RentChainSecurity",
  "sourceName": "contracts/RentChainSecurity.sol",
  "abi": [
    {
      "inputs": [],
      "stateMutability": "nonpayable",
      "type": "constructor"
    },
    {
      "anonymous": false,
      "inputs": [
        {
          "indexed": false,
          "internalType": "address",
          "name": "user",
          "type": "address"
        },
        {
          "indexed": false,
          "internalType": "bool",
          "name": "passed",
          "type": "bool"
        },
        {
          "indexed": false,
          "internalType": "uint256",
          "name": "riskScore",
          "type": "uint256"
        },
        {
          "indexed": false,
          "internalType": "string",
          "name": "checkType",
          "type": "string"
        }
      ],
      "name": "SecurityCheckPerformed",
      "type": "event"
    },
    {
      "anonymous": false,
      "inputs": [
        {
          "indexed": false,
          "internalType": "address",
          "name": "user",
          "type": "address"
        },
        {
          "indexed": false,
          "internalType": "string",
          "name": "activity",
          "type": "string"
        },
        {
          "indexed": false,
          "internalType": "uint256",
          "name": "riskScore",
          "type": "uint256"
        }
      ],
      "name": "SuspiciousActivityDetected",
      "type": "event"
    },
    {
      "anonymous": false,
      "inputs": [
        {
          "indexed": false,
          "internalType": "address",
          "name": "user",
          "type": "address"
        },
        {
          "indexed": false,
          "internalType": "uint256",
          "name": "daily",
          "type": "uint256"
        },
        {
          "indexed": false,
          "internalType": "uint256",
          "name": "weekly",
          "type": "uint256"
        },
        {
          "indexed": false,
          "internalType": "uint256",
          "name": "monthly",
          "type": "uint256"
        }
      ],
      "name": "TransactionLimitUpdated",
      "type": "event"
    },
    {
      "anonymous": false,
      "inputs": [
        {
          "indexed": false,
          "internalType": "address",
          "name": "user",
          "type": "address"
        },
        {
          "indexed": false,
          "internalType": "string",
          "name": "reason",
          "type": "string"
        }
      ],
      "name": "UserBlacklisted",
      "type": "event"
    },
    {
      "anonymous": false,
      "inputs": [
        {
          "indexed": false,
          "internalType": "address",
          "name": "user",
          "type": "address"
        }
      ],
      "name": "UserWhitelisted",
      "type": "event"
    },
    {
      "inputs": [],
      "name": "admin",
      "outputs": [
        {
          "internalType": "address",
          "name": "",
          "type": "address"
        }
      ],
      "stateMutability": "view",
      "type": "function"
    },
    {
      "inputs": [
        {
          "internalType": "address",
          "name": "user",
          "type": "address"
        },
        {
          "internalType": "string",
          "name": "reason",
          "type": "string"
        }
      ],
      "name": "blacklistUser",
      "outputs": [],
      "stateMutability": "nonpayable",
      "type": "function"
    },
    {
      "inputs": [
        {
          "internalType": "address",
          "name": "",
          "type": "address"
        }
      ],
      "name": "blacklisted",
      "outputs": [
        {
          "internalType": "bool",
          "name": "",
          "type": "bool"
        }
      ],
      "stateMutability": "view",
      "type": "function"
    },
    {
      "inputs": [
        {
          "internalType": "address",
          "name": "user",
          "type": "address"
        },
        {
          "internalType": "uint256",
          "name": "amount",
          "type": "uint256"
        }
      ],
      "name": "checkTransactionLimit",
      "outputs": [
        {
          "internalType": "bool",
          "name": "",
          "type": "bool"
        }
      ],
      "stateMutability": "view",
      "type": "function"
    },
    {
      "inputs": [],
      "name": "cooldownPeriod",
      "outputs": [
        {
          "internalType": "uint256",
          "name": "",
          "type": "uint256"
        }
      ],
      "stateMutability": "view",
      "type": "function"
    },
    {
      "inputs": [
        {
          "internalType": "address",
          "name": "user",
          "type": "address"
        }
      ],
      "name": "emergencyPauseUser",
      "outputs": [],
      "stateMutability": "nonpayable",
      "type": "function"
    },
    {
      "inputs": [
        {
          "internalType": "address",
          "name": "user",
          "type": "address"
        }
      ],
      "name": "getTransactionLimits",
      "outputs": [
        {
          "internalType": "uint256",
          "name": "dailyLimit",
          "type": "uint256"
        },
        {
          "internalType": "uint256",
          "name": "dailyUsed",
          "type": "uint256"
        },
        {
          "internalType": "uint256",
          "name": "weeklyLimit",
          "type": "uint256"
        },
        {
          "internalType": "uint256",
          "name": "weeklyUsed",
          "type": "uint256"
        },
        {
          "internalType": "uint256",
          "name": "monthlyLimit",
          "type": "uint256"
        },
        {
          "internalType": "uint256",
          "name": "monthlyUsed",
          "type": "uint256"
        }
      ],
      "stateMutability": "view",
      "type": "function"
    },
    {
      "inputs": [
        {
          "internalType": "address",
          "name": "user",
          "type": "address"
        }
      ],
      "name": "getUserSecurityStatus",
      "outputs": [
        {
          "internalType": "uint256",
          "name": "riskScore",
          "type": "uint256"
        },
        {
          "internalType": "bool",
          "name": "isBlacklisted",
          "type": "bool"
        },
        {
          "internalType": "uint256",
          "name": "lastCheck",
          "type": "uint256"
        },
        {
          "internalType": "uint256",
          "name": "transactionCount",
          "type": "uint256"
        },
        {
          "internalType": "bool",
          "name": "needsRecheck",
          "type": "bool"
        }
      ],
      "stateMutability": "view",
      "type": "function"
    },
    {
      "inputs": [
        {
          "internalType": "address",
          "name": "",
          "type": "address"
        }
      ],
      "name": "lastActivity",
      "outputs": [
        {
          "internalType": "uint256",
          "name": "",
          "type": "uint256"
        }
      ],
      "stateMutability": "view",
      "type": "function"
    },
    {
      "inputs": [],
      "name": "maxDailyLimit",
      "outputs": [
        {
          "internalType": "uint256",
          "name": "",
          "type": "uint256"
        }
      ],
      "stateMutability": "view",
      "type": "function"
    },
    {
      "inputs": [],
      "name": "maxMonthlyLimit",
      "outputs": [
        {
          "internalType": "uint256",
          "name": "",
          "type": "uint256"
        }
      ],
      "stateMutability": "view",
      "type": "function"
    },
    {
      "inputs": [],
      "name": "maxWeeklyLimit",
      "outputs": [
        {
          "internalType": "uint256",
          "name": "",
          "type": "uint256"
        }
      ],
      "stateMutability": "view",
      "type": "function"
    },
    {
      "inputs": [],
      "name": "minStakeAmount",
      "outputs": [
        {
          "internalType": "uint256",
          "name": "",
          "type": "uint256"
        }
      ],
      "stateMutability": "view",
      "type": "function"
    },
    {
      "inputs": [
        {
          "internalType": "address",
          "name": "user",
          "type": "address"
        },
        {
          "internalType": "bool",
          "name": "kycPassed",
          "type": "bool"
        },
        {
          "internalType": "bool",
          "name": "amlPassed",
          "type": "bool"
        },
        {
          "internalType": "bool",
          "name": "hasStake",
          "type": "bool"
        },
        {
          "internalType": "string",
          "name": "checkType",
          "type": "string"
        }
      ],
      "name": "performSecurityCheck",
      "outputs": [
        {
          "internalType": "uint256",
          "name": "riskScore",
          "type": "uint256"
        }
      ],
      "stateMutability": "nonpayable",
      "type": "function"
    },
    {
      "inputs": [
        {
          "internalType": "address",
          "name": "user",
          "type": "address"
        },
        {
          "internalType": "string",
          "name": "activity",
          "type": "string"
        }
      ],
      "name": "reportSuspiciousActivity",
      "outputs": [],
      "stateMutability": "nonpayable",
      "type": "function"
    },
    {
      "inputs": [
        {
          "internalType": "address",
          "name": "",
          "type": "address"
        },
        {
          "internalType": "uint256",
          "name": "",
          "type": "uint256"
        }
      ],
      "name": "securityChecks",
      "outputs": [
        {
          "internalType": "address",
          "name": "user",
          "type": "address"
        },
        {
          "internalType": "uint256",
          "name": "timestamp",
          "type": "uint256"
        },
        {
          "internalType": "bool",
          "name": "passedKYC",
          "type": "bool"
        },
        {
          "internalType": "bool",
          "name": "passedAML",
          "type": "bool"
        },
        {
          "internalType": "bool",
          "name": "hasStake",
          "type": "bool"
        },
        {
          "internalType": "uint256",
          "name": "riskScore",
          "type": "uint256"
        },
        {
          "internalType": "string",
          "name": "checkType",
          "type": "string"
        }
      ],
      "stateMutability": "view",
      "type": "function"
    },
    {
      "inputs": [],
      "name": "securityManager",
      "outputs": [
        {
          "internalType": "address",
          "name": "",
          "type": "address"
        }
      ],
      "stateMutability": "view",
      "type": "function"
    },
    {
      "inputs": [
        {
          "internalType": "uint256",
          "name": "cooldown",
          "type": "uint256"
        }
      ],
      "name": "setCooldownPeriod",
      "outputs": [],
      "stateMutability": "nonpayable",
      "type": "function"
    },
    {
      "inputs": [
        {
          "internalType": "uint256",
          "name": "daily",
          "type": "uint256"
        },
        {
          "internalType": "uint256",
          "name": "weekly",
          "type": "uint256"
        },
        {
          "internalType": "uint256",
          "name": "monthly",
          "type": "uint256"
        }
      ],
      "name": "setGlobalLimits",
      "outputs": [],
      "stateMutability": "nonpayable",
      "type": "function"
    },
    {
      "inputs": [
        {
          "internalType": "address",
          "name": "newManager",
          "type": "address"
        }
      ],
      "name": "setSecurityManager",
      "outputs": [],
      "stateMutability": "nonpayable",
      "type": "function"
    },
    {
      "inputs": [
        {
          "internalType": "address",
          "name": "user",
          "type": "address"
        },
        {
          "internalType": "uint256",
          "name": "daily",
          "type": "uint256"
        },
        {
          "internalType": "uint256",
          "name": "weekly",
          "type": "uint256"
        },
        {
          "internalType": "uint256",
          "name": "monthly",
          "type": "uint256"
        }
      ],
      "name": "setTransactionLimits",
      "outputs": [],
      "stateMutability": "nonpayable",
      "type": "function"
    },
    {
      "inputs": [
        {
          "internalType": "address",
          "name": "",
          "type": "address"
        }
      ],
      "name": "transactionLimits",
      "outputs": [
        {
          "internalType": "uint256",
          "name": "dailyLimit",
          "type": "uint256"
        },
        {
          "internalType": "uint256",
          "name": "weeklyLimit",
          "type": "uint256"
        },
        {
          "internalType": "uint256",
          "name": "monthlyLimit",
          "type": "uint256"
        },
        {
          "internalType": "uint256",
          "name": "dailyUsed",
          "type": "uint256"
        },
        {
          "internalType": "uint256",
          "name": "weeklyUsed",
          "type": "uint256"
        },
        {
          "internalType": "uint256",
          "name": "monthlyUsed",
          "type": "uint256"
        },
        {
          "internalType": "uint256",
          "name": "lastUpdate",
          "type": "uint256"
        }
      ],
      "stateMutability": "view",
      "type": "function"
    },
    {
      "inputs": [
        {
          "internalType": "address",
          "name": "user",
          "type": "address"
        },
        {
          "internalType": "uint256",
          "name": "amount",
          "type": "uint256"
        }
      ],
      "name": "updateTransactionUsage",
      "outputs": [],
      "stateMutability": "nonpayable",
      "type": "function"
    },
    {
      "inputs": [
        {
          "internalType": "address",
          "name": "",
          "type": "address"
        }
      ],
      "name": "userRiskScores",
      "outputs": [
        {
          "internalType": "uint256",
          "name": "",
          "type": "uint256"
        }
      ],
      "stateMutability": "view",
      "type": "function"
    },
    {
      "inputs": [
        {
          "internalType": "address",
          "name": "user",
          "type": "address"
        }
      ],
      "name": "whitelistUser",
      "outputs": [],
      "stateMutability": "nonpayable",
      "type": "function"
    },
    {
      "inputs": [
        {
          "internalType": "address",
          "name": "token",
          "type": "address"
        },
        {
          "internalType": "uint256",
          "name": "amount",
          "type": "uint256"
        }
      ],
      "name": "withdrawStuckTokens",
      "outputs": [],
      "stateMutability": "nonpayable",
      "type": "function"
    }
  ],
  "bytecode": "0x608080604052346100705760018060a01b0319338160055416176005553390600654161760065569021e19e0c9bab2400000600755690a968163f0a57b400000600855692a5a058fc295ed000000600955683635c9adc5dea00000600a5562015180600b5561148d90816100768239f35b600080fdfe608060408181526004918236101561001657600080fd5b600092833560e01c91826304646a4914611145575081630be17fe5146110c05781630ccaef681461105257816324301e5b14610fa15781634a4c560d14610f185781634d0970c614610e805781635175cef514610dc6578163594b111914610d8e5781635d02db2f14610c97578163674e07e8146107ef5781637b97f7f71461077857816380ea3de11461074957816385985b48146106dc57816394dbea661461068c5781639660c62214610651578163bd61f0a6146105a8578163c1de076514610458578163cd240f6c14610439578163dbac26e9146103fb578163dd188cc1146103dc578163de675a6d146103b3578163f07e96b31461037d578163f18876841461035e578163f1c99e881461018c57508063f851a440146101645763fee2420c1461014357600080fd5b346101605781600319360112610160576020906009549051908152f35b5080fd5b503461016057816003193601126101605760055490516001600160a01b039091168152602090f35b90503461035a57608036600319011261035a576101a7611161565b91602435604435926064359460018060a01b039182600654163314801561034d575b6101d290611316565b60075484116103135760085486116102d857600954871161029c579260809592600686938a7f01ef0bc258e5e0b35564a60642730b39d4f9ac8cb2500a9e3dda70ac722cc6a29a97819951946102278661117c565b868652602086018981528887018b815260608801918583528a8f8a019487865260a08b0197885260c08b0198428a52169e8f815260016020522098518955516001890155516002880155516003870155519085015551600584015551910155815194855260208501528301526060820152a180f35b606490602086519162461bcd60e51b8352820152601660248201527509adedce8d0d8f240d8d2dad2e840e8dede40d0d2ced60531b6044820152fd5b606490602086519162461bcd60e51b835282015260156024820152740aecacad6d8f240d8d2dad2e840e8dede40d0d2ced605b1b6044820152fd5b606490602086519162461bcd60e51b83528201526014602482015273088c2d2d8f240d8d2dad2e840e8dede40d0d2ced60631b6044820152fd5b50600554831633146101c9565b8280fd5b505034610160578160031936011261016057602090600a549051908152f35b90503461035a57602036600319011261035a5760209282916001600160a01b036103a5611161565b168252845220549051908152f35b50503461016057816003193601126101605760065490516001600160a01b039091168152602090f35b5050346101605781600319360112610160576020906007549051908152f35b5050346101605760203660031901126101605760209160ff9082906001600160a01b03610426611161565b1681526003855220541690519015158152f35b5050346101605781600319360112610160576020906008549051908152f35b83915034610160578260031936011261016057610473611161565b6001600160a01b039081168352602083815284842080549195929160243591908210156105a457906104a49161126a565b509081541692600192838301546002840154926003850154940188835196898354936104cf8561129c565b808b52948381169081156105805750600114610545575b50505050509060ff929161050086610541989903876111ae565b81519889988952880152828216151590870152818160081c161515606087015260101c161515608085015260a084015260e060c084015260e08301906112d6565b0390f35b908094939b50528983205b82841061056d5750505085019096019580888661054160ff6104e6565b80548985018c0152928a01928101610550565b60ff1916858c01525050505090151560051b860101965080888661054160ff6104e6565b8580fd5b9190503461035a578060031936011261035a5760206105c5611161565b92604460018060a01b0391868360055416936105e285331461141f565b8651978895869463a9059cbb60e01b86528501526024356024850152165af19081156106485750610611575080f35b6020813d8211610640575b81610629602093836111ae565b8101031261016057518015150361063d5780f35b80fd5b3d915061061c565b513d84823e3d90fd5b8390346101605760603660031901126101605761067960018060a01b0360055416331461141f565b3560075560243560085560443560095580f35b833461063d57602036600319011261063d576106a6611161565b6005546001600160a01b0391906106c0908316331461141f565b166bffffffffffffffffffffffff60a01b600654161760065580f35b90503461035a57602036600319011261035a5760c09282906001600160a01b03610704611161565b168152600160205220805492600382015492600183015490830154916005600285015494015494815196875260208701528501526060840152608083015260a0820152f35b8390346101605760203660031901126101605761077160018060a01b0360055416331461141f565b35600b5580f35b90503461035a57602036600319011261035a5760e09282906001600160a01b036107a0611161565b1681526001602052208054926001820154926002830154600384015491840154926006600586015495015495815197885260208801528601526060850152608084015260a083015260c0820152f35b9190503461035a5760a036600319011261035a5761080b611161565b9060249182358015159586820361063d57604435958615159283880361035a5760643596871515998a8903610c935767ffffffffffffffff996084358b8111610c8f5761085b90369087016111d0565b9760018060a01b039a8b92836006541633148015610c82575b61087d90611316565b6101f496610c78575b610c4e575b610c26575b169586865260209b8c948686528a8820546108ad600b544261137c565b10610bf7575b88885260018096528a882060038101549061271091828102928184041490151715610be55754908115610bd357928f938c98979693611f408f92948e98950411610b9c575b6103e89081811115610b9257509e8f955b878d528c8152828d209083519861091f8a61117c565b89528801924284528801958652606088019485526080880193845260a0880196875260c088019a8b5280549068010000000000000000821015610b80579061096b918b8201815561126a565b979097610b6f57908b9796959493929151166bffffffffffffffffffffffff60a01b875416178655518886015560028501925115159160ff62ff000061ff0086549351151560081b169351151560101b1693169062ffffff191617171790555160038201550192519081519a8b11610b5e57506109e8835461129c565b601f8111610b18575b508a908b601f8c11600114610a93575099809281927f6dea4192306851d1d02df52562e50649d0ce38675094cb6c752a6841054942fb9a9b9c8894610a88575b50501b916000199060031b1c19161790555b82825260028852868683205587528442912055610a7f845192839283526102bc87108884015286868401526080606084015260808301906112d6565b0390a151908152f35b015192503880610a31565b909a91601f1983169b8588528c8389209389915b8210610b00575050837f6dea4192306851d1d02df52562e50649d0ce38675094cb6c752a6841054942fb9b9c9d10610ae7575b505050811b019055610a43565b015160001960f88460031b161c19169055388080610ada565b8284015185559386019392830192908101908e610aa7565b8386528b8620601f8c0160051c8101918d8d10610b54575b601f0160051c019083905b828110610b495750506109f1565b878155018390610b3b565b9091508190610b30565b634e487b7160e01b86526041855285fd5b634e487b7160e01b8d528c8c52888dfd5b634e487b7160e01b8e5260418d52898efd5b90509e8f95610909565b939697985050925092506063198101908111610bc1579288928e928c8c9897966108f8565b634e487b7160e01b8852601187528488fd5b634e487b7160e01b8a5260128952868afd5b634e487b7160e01b8a5260118952868afd5b9091929394506031198101908111610c1457908c949392916108b3565b634e487b7160e01b8752601186528487fd5b93905060648101809111610c3c57899093610890565b634e487b7160e01b8652601185528286fd5b9490915060c88101809111610c6657908a919461088b565b634e487b7160e01b8752601186528387fd5b6102bc9650610886565b5060055484163314610874565b8680fd5b8480fd5b9190503461035a578060031936011261035a57610cb2611161565b6001600160a01b031683526001602052822060068101805490926024359291620151808101808211610d7057421015610d83575b62093a808101808211610d7057421015610d66575b62278d008101809111610d535791600591610d4193421015610d49575b60038201610d27868254611359565b90558101610d36858254611359565b905501918254611359565b905542905580f35b8683830155610d18565b634e487b7160e01b865260118252602486fd5b8582840155610cfb565b634e487b7160e01b875260118352602487fd5b856003840155610ce6565b5050346101605760203660031901126101605760209181906001600160a01b03610db6611161565b1681526002845220549051908152f35b838334610160576020366003190112610160576001600160a01b03610de9611161565b16808352602083905281832080549192908215610e7857600019830190838211610e6557600191610e199161126a565b500154905b6276a700820193848311610e655760a096508552600260205260ff818087205496600360205220541681519586521515602086015284015260608301524210156080820152f35b634e487b7160e01b865260118752602486fd5b508390610e1e565b505034610160577fcc1cf21b75158e751a071cc4770b92cde8bb2bc34f9187eedd0592b874a5566990610f05610eb536611227565b6006549092916001600160a01b0391821633148015610f0b575b610ed890611316565b16918286526003602052838620600160ff19825416179055835193849384528060208501528301906112d6565b0390a180f35b5060055482163314610ecf565b5050346101605760203660031901126101605760207f7409cb8e690bcd1487fd4fd27dad3fa92388d201ba6f953631d6d6b26299f84991610f57611161565b6006546001600160a01b039190821633148015610f94575b610f7890611316565b1680855260038352818520805460ff191690559051908152a180f35b5060055482163314610f6f565b83833461016057610fb136611227565b919060018060a01b0316908184526002602052808420546064810180911161103f579394507f10be6d28e3be81f22dca98ef8b8af634156562a64c81fe9050c73a2a0d7f6491936103e8908181111561103857505b8286526002602052808287205561102e825194859485526060602086015260608501906112d6565b918301520390a180f35b9050611006565b634e487b7160e01b855260118652602485fd5b505034610160576020366003190112610160576103e890611071611161565b6006546001600160a01b0391908216331480156110b3575b61109290611316565b1683526003602052808320600160ff19825416179055600260205282205580f35b5060055482163314611089565b8391503461016057826003193601126101605760ff836110de611161565b6001600160a01b038116855260036020529320541661110f5760208361110660243585611389565b90519015158152f35b606490602084519162461bcd60e51b8352820152601060248201526f155cd95c88189b1858dadb1a5cdd195960821b6044820152fd5b849034610160578160031936011261016057602090600b548152f35b600435906001600160a01b038216820361117757565b600080fd5b60e0810190811067ffffffffffffffff82111761119857604052565b634e487b7160e01b600052604160045260246000fd5b90601f8019910116810190811067ffffffffffffffff82111761119857604052565b81601f820112156111775780359067ffffffffffffffff82116111985760405192611205601f8401601f1916602001856111ae565b8284526020838301011161117757816000926020809301838601378301015290565b906040600319830112611177576004356001600160a01b038116810361117757916024359067ffffffffffffffff821161117757611267916004016111d0565b90565b8054821015611286576000526005602060002091020190600090565b634e487b7160e01b600052603260045260246000fd5b90600182811c921680156112cc575b60208310146112b657565b634e487b7160e01b600052602260045260246000fd5b91607f16916112ab565b919082519283825260005b848110611302575050826000602080949584010152601f8019910116010190565b6020818301810151848301820152016112e1565b1561131d57565b60405162461bcd60e51b81526020600482015260146024820152732737ba1039b2b1bab934ba3c9036b0b730b3b2b960611b6044820152606490fd5b9190820180921161136657565b634e487b7160e01b600052601160045260246000fd5b9190820391821161136657565b60018060a01b03166000526001602052604060002090600682015462015180810180911161136657421015611415576113c8825460038401549061137c565b81111591826113f7575b826113dc57505090565b6113f2919250600560028201549101549061137c565b101590565b915061140c600183015460048401549061137c565b811115916113d2565b9050600754101590565b1561142657565b60405162461bcd60e51b81526020600482015260096024820152682737ba1030b236b4b760b91b6044820152606490fdfea26469706673582212207d496076f551e97a351c83e1e6718c0bb9c1bebbfa2be87b53e410e7ebb19d4964736f6c63430008130033",
  "linkReferences": {},
  "deployedLinkReferences": {}
}