{
  "_format": "hh-sol-artifact-1",
  "contractName": "RentChainRewardsEngine",
  "sourceName": "contracts/RentChainRewardsEngine.sol",
  "abi": [
    {
      "inputs": [
        {
          "internalType": "address",
          "name": "_emergencySystem",
          "type": "address"
        },
        {
          "internalType": "address",
          "name": "_rewardsToken",
          "type": "address"
        }
      ],
      "stateMutability": "nonpayable",
      "type": "constructor"
    },
    {
      "anonymous": false,
      "inputs": [
        {
          "indexed": false,
          "internalType": "string",
          "name": "activityType",
          "type": "string"
        },
        {
          "indexed": false,
          "internalType": "uint256",
          "name": "points",
          "type": "uint256"
        },
        {
          "indexed": false,
          "internalType": "uint256",
          "name": "multiplier",
          "type": "uint256"
        }
      ],
      "name": "ActivityRegistered",
      "type": "event"
    },
    {
      "anonymous": false,
      "inputs": [
        {
          "indexed": true,
          "internalType": "address",
          "name": "previousAdmin",
          "type": "address"
        },
        {
          "indexed": true,
          "internalType": "address",
          "name": "newAdmin",
          "type": "address"
        }
      ],
      "name": "AdminChanged",
      "type": "event"
    },
    {
      "anonymous": false,
      "inputs": [
        {
          "indexed": false,
          "internalType": "address",
          "name": "initializer",
          "type": "address"
        },
        {
          "indexed": false,
          "internalType": "uint256",
          "name": "version",
          "type": "uint256"
        }
      ],
      "name": "ContractInitialized",
      "type": "event"
    },
    {
      "anonymous": false,
      "inputs": [
        {
          "indexed": false,
          "internalType": "uint256",
          "name": "oldVersion",
          "type": "uint256"
        },
        {
          "indexed": false,
          "internalType": "uint256",
          "name": "newVersion",
          "type": "uint256"
        }
      ],
      "name": "ContractUpgraded",
      "type": "event"
    },
    {
      "anonymous": false,
      "inputs": [
        {
          "indexed": false,
          "internalType": "address",
          "name": "oldSystem",
          "type": "address"
        },
        {
          "indexed": false,
          "internalType": "address",
          "name": "newSystem",
          "type": "address"
        }
      ],
      "name": "EmergencySystemUpdated",
      "type": "event"
    },
    {
      "anonymous": false,
      "inputs": [
        {
          "indexed": false,
          "internalType": "address",
          "name": "user",
          "type": "address"
        },
        {
          "indexed": false,
          "internalType": "uint256",
          "name": "bonusAmount",
          "type": "uint256"
        }
      ],
      "name": "LoyaltyBonusApplied",
      "type": "event"
    },
    {
      "anonymous": false,
      "inputs": [
        {
          "indexed": false,
          "internalType": "address",
          "name": "user",
          "type": "address"
        },
        {
          "indexed": false,
          "internalType": "uint256",
          "name": "amount",
          "type": "uint256"
        }
      ],
      "name": "RewardsClaimed",
      "type": "event"
    },
    {
      "anonymous": false,
      "inputs": [
        {
          "indexed": false,
          "internalType": "address",
          "name": "user",
          "type": "address"
        },
        {
          "indexed": false,
          "internalType": "string",
          "name": "activity",
          "type": "string"
        },
        {
          "indexed": false,
          "internalType": "uint256",
          "name": "amount",
          "type": "uint256"
        }
      ],
      "name": "RewardsEarned",
      "type": "event"
    },
    {
      "anonymous": false,
      "inputs": [
        {
          "indexed": false,
          "internalType": "uint256",
          "name": "tierId",
          "type": "uint256"
        },
        {
          "indexed": false,
          "internalType": "string",
          "name": "name",
          "type": "string"
        },
        {
          "indexed": false,
          "internalType": "uint256",
          "name": "minStake",
          "type": "uint256"
        },
        {
          "indexed": false,
          "internalType": "uint256",
          "name": "multiplier",
          "type": "uint256"
        }
      ],
      "name": "TierUpdated",
      "type": "event"
    },
    {
      "inputs": [],
      "name": "BASE_REWARD_RATE",
      "outputs": [
        {
          "internalType": "uint256",
          "name": "",
          "type": "uint256"
        }
      ],
      "stateMutability": "view",
      "type": "function"
    },
    {
      "inputs": [
        {
          "internalType": "string",
          "name": "name",
          "type": "string"
        },
        {
          "internalType": "uint256",
          "name": "minStake",
          "type": "uint256"
        },
        {
          "internalType": "uint256",
          "name": "multiplier",
          "type": "uint256"
        },
        {
          "internalType": "uint256",
          "name": "bonusRate",
          "type": "uint256"
        }
      ],
      "name": "addRewardTier",
      "outputs": [
        {
          "internalType": "uint256",
          "name": "",
          "type": "uint256"
        }
      ],
      "stateMutability": "nonpayable",
      "type": "function"
    },
    {
      "inputs": [],
      "name": "admin",
      "outputs": [
        {
          "internalType": "address",
          "name": "",
          "type": "address"
        }
      ],
      "stateMutability": "view",
      "type": "function"
    },
    {
      "inputs": [
        {
          "internalType": "address[]",
          "name": "users",
          "type": "address[]"
        },
        {
          "internalType": "string[]",
          "name": "activityTypes",
          "type": "string[]"
        },
        {
          "internalType": "uint256[]",
          "name": "baseAmounts",
          "type": "uint256[]"
        }
      ],
      "name": "batchRecordActivities",
      "outputs": [],
      "stateMutability": "nonpayable",
      "type": "function"
    },
    {
      "inputs": [
        {
          "internalType": "address",
          "name": "user",
          "type": "address"
        },
        {
          "internalType": "string",
          "name": "activityType",
          "type": "string"
        },
        {
          "internalType": "uint256",
          "name": "baseAmount",
          "type": "uint256"
        }
      ],
      "name": "calculateProjectedRewards",
      "outputs": [
        {
          "internalType": "uint256",
          "name": "projectedRewards",
          "type": "uint256"
        }
      ],
      "stateMutability": "view",
      "type": "function"
    },
    {
      "inputs": [],
      "name": "claimRewards",
      "outputs": [],
      "stateMutability": "nonpayable",
      "type": "function"
    },
    {
      "inputs": [
        {
          "internalType": "address[]",
          "name": "users",
          "type": "address[]"
        },
        {
          "internalType": "uint256[]",
          "name": "amounts",
          "type": "uint256[]"
        }
      ],
      "name": "emergencyRewardDistribution",
      "outputs": [],
      "stateMutability": "nonpayable",
      "type": "function"
    },
    {
      "inputs": [],
      "name": "emergencySystem",
      "outputs": [
        {
          "internalType": "contract RentChainEmergency",
          "name": "",
          "type": "address"
        }
      ],
      "stateMutability": "view",
      "type": "function"
    },
    {
      "inputs": [
        {
          "internalType": "string",
          "name": "activityType",
          "type": "string"
        }
      ],
      "name": "getActivityInfo",
      "outputs": [
        {
          "internalType": "uint256",
          "name": "points",
          "type": "uint256"
        },
        {
          "internalType": "uint256",
          "name": "multiplier",
          "type": "uint256"
        },
        {
          "internalType": "uint256",
          "name": "cooldown",
          "type": "uint256"
        }
      ],
      "stateMutability": "view",
      "type": "function"
    },
    {
      "inputs": [],
      "name": "getContractInfo",
      "outputs": [
        {
          "internalType": "address",
          "name": "contractAdmin",
          "type": "address"
        },
        {
          "internalType": "address",
          "name": "emergencySystemAddress",
          "type": "address"
        },
        {
          "internalType": "uint256",
          "name": "contractVersion",
          "type": "uint256"
        },
        {
          "internalType": "bool",
          "name": "isInitialized",
          "type": "bool"
        },
        {
          "internalType": "bool",
          "name": "isPaused",
          "type": "bool"
        }
      ],
      "stateMutability": "view",
      "type": "function"
    },
    {
      "inputs": [],
      "name": "getPauseInfo",
      "outputs": [
        {
          "internalType": "bool",
          "name": "paused",
          "type": "bool"
        },
        {
          "internalType": "uint256",
          "name": "pauseStart",
          "type": "uint256"
        },
        {
          "internalType": "uint256",
          "name": "pauseEnd",
          "type": "uint256"
        },
        {
          "internalType": "string",
          "name": "reason",
          "type": "string"
        }
      ],
      "stateMutability": "view",
      "type": "function"
    },
    {
      "inputs": [],
      "name": "getPlatformRewardsStats",
      "outputs": [
        {
          "internalType": "uint256",
          "name": "totalDistributed",
          "type": "uint256"
        },
        {
          "internalType": "uint256",
          "name": "activeUsers",
          "type": "uint256"
        },
        {
          "internalType": "uint256",
          "name": "totalTiers",
          "type": "uint256"
        },
        {
          "internalType": "uint256",
          "name": "totalActivities",
          "type": "uint256"
        }
      ],
      "stateMutability": "view",
      "type": "function"
    },
    {
      "inputs": [
        {
          "internalType": "uint256",
          "name": "tierId",
          "type": "uint256"
        }
      ],
      "name": "getTierInfo",
      "outputs": [
        {
          "internalType": "string",
          "name": "name",
          "type": "string"
        },
        {
          "internalType": "uint256",
          "name": "minStake",
          "type": "uint256"
        },
        {
          "internalType": "uint256",
          "name": "multiplier",
          "type": "uint256"
        },
        {
          "internalType": "uint256",
          "name": "bonusRate",
          "type": "uint256"
        },
        {
          "internalType": "bool",
          "name": "active",
          "type": "bool"
        }
      ],
      "stateMutability": "view",
      "type": "function"
    },
    {
      "inputs": [
        {
          "internalType": "address",
          "name": "user",
          "type": "address"
        }
      ],
      "name": "getUserRewardsInfo",
      "outputs": [
        {
          "internalType": "uint256",
          "name": "totalEarned",
          "type": "uint256"
        },
        {
          "internalType": "uint256",
          "name": "pendingRewards",
          "type": "uint256"
        },
        {
          "internalType": "uint256",
          "name": "lastClaim",
          "type": "uint256"
        },
        {
          "internalType": "uint256",
          "name": "currentTier",
          "type": "uint256"
        },
        {
          "internalType": "uint256",
          "name": "stakeAmount",
          "type": "uint256"
        },
        {
          "internalType": "uint256",
          "name": "referralRewards",
          "type": "uint256"
        },
        {
          "internalType": "uint256",
          "name": "activityRewards",
          "type": "uint256"
        },
        {
          "internalType": "uint256",
          "name": "loyaltyBonus",
          "type": "uint256"
        },
        {
          "internalType": "string",
          "name": "tierName",
          "type": "string"
        }
      ],
      "stateMutability": "view",
      "type": "function"
    },
    {
      "inputs": [],
      "name": "initialized",
      "outputs": [
        {
          "internalType": "bool",
          "name": "",
          "type": "bool"
        }
      ],
      "stateMutability": "view",
      "type": "function"
    },
    {
      "inputs": [],
      "name": "isSystemPaused",
      "outputs": [
        {
          "internalType": "bool",
          "name": "",
          "type": "bool"
        }
      ],
      "stateMutability": "view",
      "type": "function"
    },
    {
      "inputs": [
        {
          "internalType": "address",
          "name": "",
          "type": "address"
        },
        {
          "internalType": "string",
          "name": "",
          "type": "string"
        }
      ],
      "name": "lastActivityTime",
      "outputs": [
        {
          "internalType": "uint256",
          "name": "",
          "type": "uint256"
        }
      ],
      "stateMutability": "view",
      "type": "function"
    },
    {
      "inputs": [],
      "name": "nextTierId",
      "outputs": [
        {
          "internalType": "uint256",
          "name": "",
          "type": "uint256"
        }
      ],
      "stateMutability": "view",
      "type": "function"
    },
    {
      "inputs": [],
      "name": "pauseContract",
      "outputs": [],
      "stateMutability": "nonpayable",
      "type": "function"
    },
    {
      "inputs": [
        {
          "internalType": "address",
          "name": "user",
          "type": "address"
        },
        {
          "internalType": "string",
          "name": "activityType",
          "type": "string"
        },
        {
          "internalType": "uint256",
          "name": "baseAmount",
          "type": "uint256"
        }
      ],
      "name": "recordActivity",
      "outputs": [],
      "stateMutability": "nonpayable",
      "type": "function"
    },
    {
      "inputs": [
        {
          "internalType": "address",
          "name": "token",
          "type": "address"
        },
        {
          "internalType": "uint256",
          "name": "amount",
          "type": "uint256"
        },
        {
          "internalType": "address",
          "name": "recipient",
          "type": "address"
        }
      ],
      "name": "recoverStuckTokens",
      "outputs": [],
      "stateMutability": "nonpayable",
      "type": "function"
    },
    {
      "inputs": [
        {
          "internalType": "string",
          "name": "activityType",
          "type": "string"
        },
        {
          "internalType": "uint256",
          "name": "points",
          "type": "uint256"
        },
        {
          "internalType": "uint256",
          "name": "multiplier",
          "type": "uint256"
        },
        {
          "internalType": "uint256",
          "name": "cooldown",
          "type": "uint256"
        }
      ],
      "name": "registerActivity",
      "outputs": [],
      "stateMutability": "nonpayable",
      "type": "function"
    },
    {
      "inputs": [
        {
          "internalType": "address",
          "name": "token",
          "type": "address"
        },
        {
          "internalType": "uint256",
          "name": "amount",
          "type": "uint256"
        }
      ],
      "name": "requestEmergencyWithdrawal",
      "outputs": [
        {
          "internalType": "bytes32",
          "name": "",
          "type": "bytes32"
        }
      ],
      "stateMutability": "nonpayable",
      "type": "function"
    },
    {
      "inputs": [],
      "name": "resumeContract",
      "outputs": [],
      "stateMutability": "nonpayable",
      "type": "function"
    },
    {
      "inputs": [
        {
          "internalType": "string",
          "name": "",
          "type": "string"
        }
      ],
      "name": "rewardActivities",
      "outputs": [
        {
          "internalType": "string",
          "name": "activityType",
          "type": "string"
        },
        {
          "internalType": "uint256",
          "name": "points",
          "type": "uint256"
        },
        {
          "internalType": "uint256",
          "name": "multiplier",
          "type": "uint256"
        },
        {
          "internalType": "uint256",
          "name": "cooldown",
          "type": "uint256"
        }
      ],
      "stateMutability": "view",
      "type": "function"
    },
    {
      "inputs": [
        {
          "internalType": "uint256",
          "name": "",
          "type": "uint256"
        }
      ],
      "name": "rewardTiers",
      "outputs": [
        {
          "internalType": "string",
          "name": "name",
          "type": "string"
        },
        {
          "internalType": "uint256",
          "name": "minStake",
          "type": "uint256"
        },
        {
          "internalType": "uint256",
          "name": "multiplier",
          "type": "uint256"
        },
        {
          "internalType": "uint256",
          "name": "bonusRate",
          "type": "uint256"
        },
        {
          "internalType": "bool",
          "name": "active",
          "type": "bool"
        }
      ],
      "stateMutability": "view",
      "type": "function"
    },
    {
      "inputs": [],
      "name": "rewardsToken",
      "outputs": [
        {
          "internalType": "address",
          "name": "",
          "type": "address"
        }
      ],
      "stateMutability": "view",
      "type": "function"
    },
    {
      "inputs": [],
      "name": "rewardsTreasury",
      "outputs": [
        {
          "internalType": "address",
          "name": "",
          "type": "address"
        }
      ],
      "stateMutability": "view",
      "type": "function"
    },
    {
      "inputs": [
        {
          "internalType": "address",
          "name": "newToken",
          "type": "address"
        }
      ],
      "name": "setRewardsToken",
      "outputs": [],
      "stateMutability": "nonpayable",
      "type": "function"
    },
    {
      "inputs": [
        {
          "internalType": "address",
          "name": "newTreasury",
          "type": "address"
        }
      ],
      "name": "setRewardsTreasury",
      "outputs": [],
      "stateMutability": "nonpayable",
      "type": "function"
    },
    {
      "inputs": [
        {
          "internalType": "uint256",
          "name": "newVersion",
          "type": "uint256"
        }
      ],
      "name": "setVersion",
      "outputs": [],
      "stateMutability": "nonpayable",
      "type": "function"
    },
    {
      "inputs": [
        {
          "internalType": "uint256",
          "name": "tierId",
          "type": "uint256"
        },
        {
          "internalType": "bool",
          "name": "active",
          "type": "bool"
        }
      ],
      "name": "toggleTierActive",
      "outputs": [],
      "stateMutability": "nonpayable",
      "type": "function"
    },
    {
      "inputs": [],
      "name": "totalRewardsDistributed",
      "outputs": [
        {
          "internalType": "uint256",
          "name": "",
          "type": "uint256"
        }
      ],
      "stateMutability": "view",
      "type": "function"
    },
    {
      "inputs": [
        {
          "internalType": "address",
          "name": "newAdmin",
          "type": "address"
        }
      ],
      "name": "transferAdmin",
      "outputs": [],
      "stateMutability": "nonpayable",
      "type": "function"
    },
    {
      "inputs": [
        {
          "internalType": "string",
          "name": "activityType",
          "type": "string"
        },
        {
          "internalType": "uint256",
          "name": "newPoints",
          "type": "uint256"
        },
        {
          "internalType": "uint256",
          "name": "newMultiplier",
          "type": "uint256"
        }
      ],
      "name": "updateActivityPoints",
      "outputs": [],
      "stateMutability": "nonpayable",
      "type": "function"
    },
    {
      "inputs": [
        {
          "internalType": "address",
          "name": "newEmergencySystem",
          "type": "address"
        }
      ],
      "name": "updateEmergencySystem",
      "outputs": [],
      "stateMutability": "nonpayable",
      "type": "function"
    },
    {
      "inputs": [
        {
          "internalType": "address",
          "name": "user",
          "type": "address"
        },
        {
          "internalType": "uint256",
          "name": "stakeAmount",
          "type": "uint256"
        }
      ],
      "name": "updateStakeTier",
      "outputs": [],
      "stateMutability": "nonpayable",
      "type": "function"
    },
    {
      "inputs": [
        {
          "internalType": "address",
          "name": "",
          "type": "address"
        }
      ],
      "name": "userRewards",
      "outputs": [
        {
          "internalType": "uint256",
          "name": "totalEarned",
          "type": "uint256"
        },
        {
          "internalType": "uint256",
          "name": "pendingRewards",
          "type": "uint256"
        },
        {
          "internalType": "uint256",
          "name": "lastClaim",
          "type": "uint256"
        },
        {
          "internalType": "uint256",
          "name": "currentTier",
          "type": "uint256"
        },
        {
          "internalType": "uint256",
          "name": "stakeAmount",
          "type": "uint256"
        },
        {
          "internalType": "uint256",
          "name": "referralRewards",
          "type": "uint256"
        },
        {
          "internalType": "uint256",
          "name": "activityRewards",
          "type": "uint256"
        },
        {
          "internalType": "uint256",
          "name": "loyaltyBonus",
          "type": "uint256"
        }
      ],
      "stateMutability": "view",
      "type": "function"
    },
    {
      "inputs": [],
      "name": "version",
      "outputs": [
        {
          "internalType": "uint256",
          "name": "",
          "type": "uint256"
        }
      ],
      "stateMutability": "view",
      "type": "function"
    },
    {
      "stateMutability": "payable",
      "type": "receive"
    }
  ],
  "bytecode": "0x608034620017a057601f620041e238819003918201601f19168301916001600160401b0383118484101762000f5d578084926040948552833981010312620017a0576200005a6020620000528362001805565b920162001805565b60018060a01b0319913383600054161760005560018060a01b03168260025416176002556001805560018060a01b031681600754161760075533906008541617600855620000a7620017e5565b600681526542726f6e7a6560d01b60208201526009549060001982146200149f5760018201600955620000d9620017c5565b918183526000602084015261271060408401526000606084015260016080840152806000526004602052604060002092805180519060018060401b03821162000f5d578554600181811c9116801562001795575b602082101462000f3c57601f81116200174c575b50602090601f8311600114620016c8579582608093600493600080516020620041a283398151915299600092620016bc575b50508160011b916000199060031b1c19161781555b60208401516001820155604084015160028201556060840151600382015501910151151560ff80198354169116179055620001d660405192839283526080602084015260808301906200188c565b6000604083015261271060608301520390a1620001f2620017e5565b600681526529b4b63b32b960d11b60208201526000546001600160a01b031633148015620016a7575b62000226906200181a565b6009549060001982146200149f576001820160095562000245620017c5565b91818352683635c9adc5dea000006020840152612ee060408401526101f4606084015260016080840152806000526004602052604060002092805180519060018060401b03821162000f5d578554600181811c911680156200169c575b602082101462000f3c57601f811162001653575b50602090601f8311600114620015cf579582608093600493600080516020620041a283398151915299600092620015c3575b50508160011b916000199060031b1c19161781555b60208401516001820155604084015160028201556060840151600382015501910151151560ff801983541691161790556200034b60405192839283526080602084015260808301906200188c565b683635c9adc5dea000006040830152612ee060608301520390a16200036f620017e5565b600481526311dbdb1960e21b60208201526000546001600160a01b031633148015620015ae575b620003a1906200181a565b6009549060001982146200149f5760018201600955620003c0620017c5565b9181835269010f0cf064dd592000006020840152613a9860408401526103e8606084015260016080840152806000526004602052604060002092805180519060018060401b03821162000f5d578554600181811c91168015620015a3575b602082101462000f3c57601f81116200155a575b50602090601f8311600114620014d6579582608093600493600080516020620041a283398151915299600092620014ca575b50508160011b916000199060031b1c19161781555b60208401516001820155604084015160028201556060840151600382015501910151151560ff80198354169116179055620004c760405192839283526080602084015260808301906200188c565b69010f0cf064dd592000006040830152613a9860608301520390a1620004ec620017e5565b6008815267506c6174696e756d60c01b60208201526000546001600160a01b031633148015620014b5575b62000522906200181a565b6009549060001982146200149f576001820160095562000541620017c5565b9181835269021e19e0c9bab24000006020840152614e2060408401526107d0606084015260016080840152806000526004602052604060002092805180519060018060401b03821162000f5d578554600181811c9116801562001494575b602082101462000f3c57601f81116200144b575b50602090601f8311600114620013c7579582608093600493600080516020620041a283398151915299600092620013bb575b50508160011b916000199060031b1c19161781555b60208401516001820155604084015160028201556060840151600382015501910151151560ff801983541691161790556200064860405192839283526080602084015260808301906200188c565b69021e19e0c9bab24000006040830152614e2060608301520390a16200066d620017e5565b601081526f70726f70657274795f6c697374696e6760801b60208201526000546001600160a01b031633148015620013a6575b620006ab906200181a565b620006b5620017a5565b908082526064602083015261271060408301526201518060608301526040516020818351620006e8818385880162001867565b81016005815203019020825192835160018060401b03811162000f5d578254600181811c911680156200139b575b602082101462000f3c57601f811162001352575b506020601f8211600114620012e457620007a394939282600393606093600080516020620041c28339815191529960009262000e61575b50508160011b9160001990861b1c19161784555b602081015160018501556040810151600285015501519101556040519182916060835260608301906200188c565b6064602083015261271060408301520390a1620007bf620017e5565b600c81526b1c995b9d17dc185e5b595b9d60a21b60208201526000546001600160a01b031633148015620012cf575b620007f9906200181a565b62000803620017a5565b90808252603260208301526127106040830152620151806060830152604051602081835162000836818385880162001867565b81016005815203019020825192835160018060401b03811162000f5d578254600181811c91168015620012c4575b602082101462000f3c57601f81116200127b575b506020601f82116001146200120d57620008ef94939282600393606093600080516020620041c28339815191529960009262000e615750508160011b9160001990861b1c1916178455602081015160018501556040810151600285015501519101556040519182916060835260608301906200188c565b6032602083015261271060408301520390a16200090b620017e5565b601481527f61677265656d656e745f636f6d706c6574696f6e00000000000000000000000060208201526000546001600160a01b031633148015620011f8575b62000956906200181a565b62000960620017a5565b9080825260c86020830152612710604083015262093a806060830152604051602081835162000993818385880162001867565b81016005815203019020825192835160018060401b03811162000f5d578254600181811c91168015620011ed575b602082101462000f3c57601f8111620011a4575b506020601f8211600114620011365762000a4c94939282600393606093600080516020620041c28339815191529960009262000e615750508160011b9160001990861b1c1916178455602081015160018501556040810151600285015501519101556040519182916060835260608301906200188c565b60c8602083015261271060408301520390a162000a68620017e5565b60118152703932bb34b2bbafb9bab136b4b9b9b4b7b760791b60208201526000546001600160a01b03163314801562001121575b62000aa7906200181a565b62000ab1620017a5565b90808252601960208301526127106040830152620151806060830152604051602081835162000ae4818385880162001867565b81016005815203019020825192835160018060401b03811162000f5d578254600181811c9116801562001116575b602082101462000f3c57601f8111620010cd575b506020601f82116001146200105f5762000b9d94939282600393606093600080516020620041c28339815191529960009262000e615750508160011b9160001990861b1c1916178455602081015160018501556040810151600285015501519101556040519182916060835260608301906200188c565b6019602083015261271060408301520390a162000bb9620017e5565b601081526f726566657272616c5f7375636365737360801b60208201526000546001600160a01b0316331480156200104a575b62000bf7906200181a565b62000c01620017a5565b908082526101f46020830152612710604083015260006060830152604051602081835162000c33818385880162001867565b81016005815203019020825192835160018060401b03811162000f5d578254600181811c911680156200103f575b602082101462000f3c57601f811162000ff6575b506020601f821160011462000f885762000cec94939282600393606093600080516020620041c28339815191529960009262000e615750508160011b9160001990861b1c1916178455602081015160018501556040810151600285015501519101556040519182916060835260608301906200188c565b6101f4602083015261271060408301520390a162000d09620017e5565b60128152713234b9b83aba32afb932b9b7b63aba34b7b760711b60208201526000546001600160a01b03163314801562000f73575b62000d49906200181a565b62000d53620017a5565b9080825260646020830152612710604083015262278d006060830152604051602081835162000d86818385880162001867565b81016005815203019020825192835160018060401b03811162000f5d578254600181811c9116801562000f52575b602082101462000f3c57601f811162000ef3575b506020601f821160011462000e6d5762000e3f94939282600393606093600080516020620041c28339815191529960009262000e615750508160011b9160001990861b1c1916178455602081015160018501556040810151600285015501519101556040519182916060835260608301906200188c565b6064602083015261271060408301520390a16040516128ee9081620018b48239f35b01519050388062000761565b601f198216958460005260206000209660005b81811062000eda575083600080516020620041c28339815191529860609462000e3f999897946003976001951062000ec1575b505050811b01845562000775565b015160001983881b60f8161c1916905538808062000eb3565b8383015189556001909801976020938401930162000e80565b836000526020600020601f830160051c81016020841062000f34575b601f830160051c8201811062000f2757505062000dc8565b6000815560010162000f0f565b508062000f0f565b634e487b7160e01b600052602260045260246000fd5b90607f169062000db4565b634e487b7160e01b600052604160045260246000fd5b506008546001600160a01b0316331462000d3e565b8360005260206000209560005b601f198416811062000fdd575092600183600080516020620041c28339815191529860609462000cec999897600397601f1981161062000ec157505050811b01845562000775565b8282015188556001909701966020928301920162000f95565b836000526020600020601f830160051c81016020841062001037575b601f830160051c820181106200102a57505062000c75565b6000815560010162001012565b508062001012565b90607f169062000c61565b506008546001600160a01b0316331462000bec565b8360005260206000209560005b601f1984168110620010b4575092600183600080516020620041c28339815191529860609462000b9d999897600397601f1981161062000ec157505050811b01845562000775565b828201518855600190970196602092830192016200106c565b836000526020600020601f830160051c8101602084106200110e575b601f830160051c820181106200110157505062000b26565b60008155600101620010e9565b5080620010e9565b90607f169062000b12565b506008546001600160a01b0316331462000a9c565b8360005260206000209560005b601f19841681106200118b575092600183600080516020620041c28339815191529860609462000a4c999897600397601f1981161062000ec157505050811b01845562000775565b8282015188556001909701966020928301920162001143565b836000526020600020601f830160051c810160208410620011e5575b601f830160051c82018110620011d8575050620009d5565b60008155600101620011c0565b5080620011c0565b90607f1690620009c1565b506008546001600160a01b031633146200094b565b8360005260206000209560005b601f198416811062001262575092600183600080516020620041c283398151915298606094620008ef999897600397601f1981161062000ec157505050811b01845562000775565b828201518855600190970196602092830192016200121a565b836000526020600020601f830160051c810160208410620012bc575b601f830160051c82018110620012af57505062000878565b6000815560010162001297565b508062001297565b90607f169062000864565b506008546001600160a01b03163314620007ee565b8360005260206000209560005b601f198416811062001339575092600183600080516020620041c283398151915298606094620007a3999897600397601f1981161062000ec157505050811b01845562000775565b82820151885560019097019660209283019201620012f1565b836000526020600020601f830160051c81016020841062001393575b601f830160051c82018110620013865750506200072a565b600081556001016200136e565b50806200136e565b90607f169062000716565b506008546001600160a01b03163314620006a0565b015190503880620005e5565b908660005260206000209160005b601f198516811062001432575083600493600080516020620041a28339815191529993600193608097601f1981161062001418575b505050811b018155620005fa565b015160001960f88460031b161c191690553880806200140a565b91926020600181928685015181550194019201620013d5565b866000526020600020601f840160051c8101602085106200148c575b601f830160051c820181106200147f575050620005b3565b6000815560010162001467565b508062001467565b90607f16906200059f565b634e487b7160e01b600052601160045260246000fd5b506008546001600160a01b0316331462000517565b01519050388062000464565b908660005260206000209160005b601f198516811062001541575083600493600080516020620041a28339815191529993600193608097601f1981161062001527575b505050811b01815562000479565b015160001960f88460031b161c1916905538808062001519565b91926020600181928685015181550194019201620014e4565b866000526020600020601f840160051c8101602085106200159b575b601f830160051c820181106200158e57505062000432565b6000815560010162001576565b508062001576565b90607f16906200041e565b506008546001600160a01b0316331462000396565b015190503880620002e8565b908660005260206000209160005b601f19851681106200163a575083600493600080516020620041a28339815191529993600193608097601f1981161062001620575b505050811b018155620002fd565b015160001960f88460031b161c1916905538808062001612565b91926020600181928685015181550194019201620015dd565b866000526020600020601f840160051c81016020851062001694575b601f830160051c8201811062001687575050620002b6565b600081556001016200166f565b50806200166f565b90607f1690620002a2565b506008546001600160a01b031633146200021b565b01519050388062000173565b908660005260206000209160005b601f198516811062001733575083600493600080516020620041a28339815191529993600193608097601f1981161062001719575b505050811b01815562000188565b015160001960f88460031b161c191690553880806200170b565b91926020600181928685015181550194019201620016d6565b866000526020600020601f840160051c8101602085106200178d575b601f830160051c820181106200178057505062000141565b6000815560010162001768565b508062001768565b90607f16906200012d565b600080fd5b60405190608082016001600160401b0381118382101762000f5d57604052565b6040519060a082016001600160401b0381118382101762000f5d57604052565b60408051919082016001600160401b0381118382101762000f5d57604052565b51906001600160a01b0382168203620017a057565b156200182257565b60405162461bcd60e51b815260206004820152601360248201527f4e6f742072657761726473206d616e61676572000000000000000000000000006044820152606490fd5b60005b8381106200187b5750506000910152565b81810151838201526020016200186a565b90602091620018a78151809281855285808601910162001867565b601f01601f191601019056fe608080604052600436101561006b575b50361561001b57600080fd5b60405162461bcd60e51b815260206004820152602260248201527f446972656374206574686572207472616e7366657273206e6f7420616c6c6f77604482015261195960f21b6064820152608490fd5b600090813560e01c9081630594fd041461213f575080630660f1e8146120b85780630baf0a481461206b5780630e40fe9f1461204f578063135d0ad414611d06578063158ef93e14611ce157806326d4468514611cb85780632e9b05b514611a7f578063336774fa146118255780633635655614611671578063372500ab146114895780633981afc114611400578063408def1e1461139b578063439766ce146112f857806345282a921461123a57806354fd4d501461121c5780635d65ad671461116f57806360173cca1461110a578063678f515114610f4057806374fc183214610e1657806375829def14610d985780637691c4ac14610d735780637cc1f86714610d1a5780637efda8201461080a5780639562df1b1461071f57806397f980bd14610699578063b2720d4214610621578063b4a253e614610565578063b7f583b71461053c578063c4bc5da5146104c4578063cc9d751914610472578063d0e999b91461040b578063d1af0c7d146103e2578063d4170c9c146103c0578063de320cc11461036d578063e809f815146102be578063ee172546146102a0578063f851a440146102795763ff2011140361000f57346102765760203660031901126102765760409060043581526004602052206102498161239d565b61027260018301549260028101549060ff60046003830154920154169160405195869586612443565b0390f35b80fd5b5034610276578060031936011261027657546040516001600160a01b039091168152602090f35b50346102765780600319360112610276576020600a54604051908152f35b5034610276576020366003190112610276576001600160a01b036102e061215b565b16815260036020526040812090610272604060038401549283815260046020522091835492600185015494600281015492600482015460058301549161032f600760068601549501549561239d565b95604051998a998a5260208a015260408901526060880152608087015260a086015260c085015260e0840152610120806101008501528301906122e8565b50346102765760203660031901126102765761038761215b565b81546001600160a01b0391906103a990831633146103a3612475565b9061249a565b166001600160601b0360a01b600754161760075580f35b50346102765760206103da6103d436612246565b9161274c565b604051908152f35b50346102765780600319360112610276576007546040516001600160a01b039091168152602090f35b50346102765760403660031901126102765761042561215b565b6024356001600160401b03811161046e5790604060209361044d610465943690600401612228565b6001600160a01b03909316815260068552209061233d565b54604051908152f35b8280fd5b503461027657602036600319011261027657604090600435815260046020522060018101549061027260028201549160038101546104b760ff6004840154169261239d565b9360405195869586612443565b50346102765780600319360112610276578060018060a01b036104ee8183541633146103a3612475565b60025416803b156105395781809160046040518094819363157c51d360e01b83525af1801561052e5761051e5750f35b61052790612171565b6102765780f35b6040513d84823e3d90fd5b50fd5b50346102765780600319360112610276576008546040516001600160a01b039091168152602090f35b5034610276576060366003190112610276576004356001600160401b03811161061d57610596903690600401612228565b81546105b790336001600160a01b039182161490811561060f575b50612647565b600260405191805192600160208301946105d28184886122c5565b82019160058352602081602435940301902001556105f8604051938492519283916122c5565b820191600583526020816044359403019020015580f35b9050600854163314386105b1565b5080fd5b503461027657602036600319011261027657600435906001600160401b03821161027657606061066c60206106593660048701612228565b81604051938285809451938492016122c5565b81016005815203019020600181015490600360028201549101549060405192835260208301526040820152f35b503461027657602036600319011261027657600435906001600160401b0382116102765761070b6106d260206106593660048701612228565b810160058152030190206106e58161239d565b9060018101549060036002820154910154906040519485946080865260808601906122e8565b926020850152604084015260608301520390f35b50346102765760403660031901126102765761073961215b565b81546024918235916001600160a01b0391908216331480156107fd575b61075f90612647565b168352602090600382526040842091816004840155849360095492600019938481019081116107c657805b610799575b8787600388015580f35b8088526004845260408820600181015483101590816107ee575b506107d95780156107c65784018061078a565b634e487b7160e01b885260116004528288fd5b9350505050600391925091903880808061078f565b60ff91506004015416386107b3565b5060085482163314610756565b5034610276576060366003190112610276576004356001600160401b03811161061d5761083b90369060040161230d565b906024356001600160401b038111610d165761085b90369060040161230d565b90916044356001600160401b038111610d125761087c90369060040161230d565b93909160018060a01b0387541633148015610cfe575b61089b90612647565b6108a6848714612806565b6108b1858714612806565b865b8681106108be578780f35b6108d16108cc828985612842565b612868565b9085811015610cea578060051b84013591601e1985360301831215610ce6576001600160401b038386013511610ce6578483016020810193903536038413610ce25761092f90610922848b8a612842565b35943691880135906121f1565b8a54909190336001600160a01b038216148015610cce575b61095090612647565b600254604051633e8dc9cf60e21b8152908d90829060049082906001600160a01b03165afa918d8315610cc2576109a99360ff93826109a09392610c98575b5050610999612689565b901561249a565b60a01c166126b2565b60405160208184516109be81838589016122c5565b81016005815203019020936001850154948515610c59578060038e92015480610be2575b50906003610a66612710610a4d7f1f0211fc46b15c1378534c3f3ad078027e3ac3ee525cb2b31458b0cd2347ffbc989796956002610a44610b509d60018060a01b038b168952876020526040808a2099898b01548152600460205220996126fe565b910154906126fe565b04612710610a5f6002870154836126fe565b04906125e4565b92015480610b6a575b5060018101610a7f8382546125e4565b9055610a8c8282546125e4565b8155610a96612711565b6040516020810190610ac260208281610ab58b878151938492016122c5565b81010380845201826121b5565b51902090604051610ae360208281610ab581830196878151938492016122c5565b51902003610b5557600501610af98282546125e4565b90555b6001600160a01b0382168d52600660205260408d204290610b1d908561233d565b55610b4260405193849360018060a01b031684526060602085015260608401906122e8565b9060408301520390a161273d565b6108b3565b600601610b638282546125e4565b9055610afc565b610bd9610ba6612710610b9e7f4fc4cb540a5e5a42d5e6803aa27f2cf4a0f73a9ef499aeefc063fd5fef89bc3294876126fe565b0480956125e4565b9360078401610bb68282546125e4565b9055604080516001600160a01b0388168152602081019290925290918291820190565b0390a138610a6f565b610c066040610c0c939796959460018060a01b03871681526006602052208661233d565b546125e4565b4210610c1d579091928c90386109e2565b60405162461bcd60e51b815260206004820152601460248201527320b1ba34bb34ba3c9037b71031b7b7b63237bbb760611b6044820152606490fd5b60405162461bcd60e51b81526020600482015260176024820152761058dd1a5d9a5d1e481b9bdd081c9959da5cdd195c9959604a1b6044820152606490fd5b610cb492503d8091833e610cac81836121b5565b8101906124d7565b505050505050508f8061098f565b604051903d90823e3d90fd5b506008546001600160a01b03163314610947565b8a80fd5b8980fd5b634e487b7160e01b89526032600452602489fd5b506008546001600160a01b03163314610892565b8580fd5b8380fd5b50346102765780600319360112610276575460025460015460a0926001600160a01b039283169160ff9190610d4d612583565b93604051958316865260208601526040850152841c161515606083015215156080820152f35b50346102765780600319360112610276576020610d8e612583565b6040519015158152f35b503461027657602036600319011261027657610db261215b565b8154906001600160a01b0380831691610dd4610dcc612475565b84331461249a565b610ddd8161287c565b1680926001600160601b0360a01b161783557f7e644d79422f17c01e4894b5f4f588d331ebfa28653d42ae832dc59e38c9798f8380a380f35b503461027657606036600319011261027657610e3061215b565b602435906001600160a01b03906044358281169190828103610f3b5783610e5f879586541633146103a3612475565b610e6f610e6a612583565b612607565b8216610e965750508180938192828215610e8d575bf115610cc25780f35b506108fc610e84565b60405163a9059cbb60e01b602082019081526001600160a01b03929092166024820152604480820196909652948552610f33948493508390610ed96064826121b5565b51925af13d15610f36573d610eed816121d6565b90610efb60405192836121b5565b81528360203d92013e5b60405190610f128261219a565b600f82526e151c985b9cd9995c8819985a5b1959608a1b602083015261249a565b80f35b610f05565b600080fd5b5034610276576040366003190112610276576001600160401b0360043581811161046e57610f7290369060040161230d565b91602435908111610d1657610f8b90369060040161230d565b845490926001600160a01b039291610fa990841633146103a3612475565b610fb4610e6a612583565b610fbf848614612806565b855b858110610fcc578680f35b610fd7818685612842565b35610feb575b610fe69061273d565b610fc1565b610ff6818685612842565b3584611003838986612842565b61100c90612868565b168852600360209181835260408a206001019081549061102b916125e4565b9055611038838887612842565b359086611046858b88612842565b61104f90612868565b168a5282526040892090815490611065916125e4565b9055611072828786612842565b35600a90815490611082916125e4565b905561108f828885612842565b61109890612868565b906110a4838887612842565b3590866040519316835260608091840152820160169052608082017532b6b2b933b2b731bcafb234b9ba3934b13aba34b7b760511b9052604082015260a07f1f0211fc46b15c1378534c3f3ad078027e3ac3ee525cb2b31458b0cd2347ffbc91a1610fdd565b503461027657604036600319011261027657602435801515810361061d578154610f33919061114d90336001600160a01b039182161490811561060f5750612647565b60043583526004602052600460408420019060ff801983541691151516179055565b5034610276576040366003190112610276578060206111ca61118f61215b565b600254604051635d65ad6760e01b81526001600160a01b03928316600482015260248035908201529485939190921691839182906044820190565b03925af190811561052e5782916111e7575b602082604051908152f35b90506020813d8211611214575b81611201602093836121b5565b8101031261061d576020915051386111dc565b3d91506111f4565b50346102765780600319360112610276576020600154604051908152f35b5034610276578060031936011261027657600254604051633e8dc9cf60e21b815291908190839060049082906001600160a01b03165afa80156112eb578180938180936112b7575b50509061129261027292856125e4565b60405194859415158552602085015260408401526080606084015260808301906122e8565b909150610272945061129293506112d892503d8091833e610cac81836121b5565b5094509694915094915093949192611282565b50604051903d90823e3d90fd5b50346102765780600319360112610276578060018060a01b036113228183541633146103a3612475565b60025416803b1561053957819060e4604051809481936334cc128960e21b835260016004840152600160248401526001604484015262278d00606484015260a06084840152600b60a48401526a41646d696e20706175736560a81b60c48401525af1801561052e57611392575080f35b610f3390612171565b5034610276576020366003190112610276577f730abf329076f769aacddade69fbe7ca672a3c95fc1b7728ecf7b8f8cb705ed060406004356113ea60018060a01b0385541633146103a3612475565b600154908060015582519182526020820152a180f35b5034610276576020366003190112610276577f62fb284f5d1a9d326f25d6900267a8cb39113f8484b351a73c1ada4014c66864604061143d61215b565b83546001600160a01b039061145890821633146103a3612475565b6114618261287c565b80600254921690816001600160601b0360a01b8416176002558351921682526020820152a180f35b5034610276578060031936011261027657600254604051633e8dc9cf60e21b81526001600160a01b039183908290600490829086165afa8015611666576114da918491611645575b50610999612689565b6114ea60ff835460a01c166126b2565b33825260206003815260408320916001830192835493841561160a5785905560024291015561151b83600a546125e4565b600a5560075460405163a9059cbb60e01b815233600482015260248101859052918391839160449183918991165af19081156115ff5784916115ca575b501561159457506040805133815260208101929092527ffc30cddea38e2bf4d6ea7d3f9ed3b6ad7f176419f4963bd81318067a4aee73fe91a180f35b6064906040519062461bcd60e51b82526004820152600f60248201526e151c985b9cd9995c8819985a5b1959608a1b6044820152fd5b90508181813d83116115f8575b6115e181836121b5565b81010312610d16576115f2906124ca565b38611558565b503d6115d7565b6040513d86823e3d90fd5b60405162461bcd60e51b81526004810185905260136024820152724e6f207265776172647320746f20636c61696d60681b6044820152606490fd5b61165991503d8086833e610cac81836121b5565b50505050505050386114d1565b6040513d85823e3d90fd5b5034610276578060031936011261027657600a54600954916040519260c084018481106001600160401b0382111761181157806040526116b08161219a565b601081526f70726f70657274795f6c697374696e6760801b60e08601528452604051916116dc8361219a565b600c83526020926b1c995b9d17dc185e5b595b9d60a21b84820152838601526040516117078161219a565b601481527330b3b932b2b6b2b73a2fb1b7b6b83632ba34b7b760611b8482015260408601526040516117388161219a565b60118152703932bb34b2bbafb9bab136b4b9b9b4b7b760791b848201526060860152611762612711565b60808601526040516117738161219a565b60128152713234b9b83aba32afb932b9b7b63aba34b7b760711b8482015260a08601528092815b600681106117bc57506080955060405194855284015260408301526060820152f35b60016117de83600584811b8b01519082604051948386809551938492016122c5565b82019081520301902001546117fc575b6117f79061273d565b61179a565b936118096117f79161273d565b9490506117ee565b634e487b7160e01b83526041600452602483fd5b5034610276576118343661228c565b92919061185460018060a01b0380875416331490811561060f5750612647565b600954936118618561273d565b6009556040516001600160401b039160a0820183811183821017611a6b576040528582528460208301528360408301526060820152600160808201528587526004602052604087209181518051918211611a6b576118bf8454612363565b601f8111611a2a575b50976020988991601f8411600114611998577f9e9b185744188b300079c1edaaf6569345f8fa9f5102a4a007efd839db0442fb9896948461195e956119779a98956004956080959261198d575b50508160011b916000199060031b1c19161784555b8b810151600185015560408101516002850155606081015160038501550151151591019060ff801983541691151516179055565b60405193849387855260808986015260808501906122e8565b91604084015260608301520390a1604051908152f35b015190503880611915565b9190601f1984168684528b8420935b818110611a135750946001856119779a989560049560809561195e997f9e9b185744188b300079c1edaaf6569345f8fa9f5102a4a007efd839db0442fb9f9d9b106119fa575b505050811b01845561192a565b015160001960f88460031b161c191690553880806119ed565b92938c6001819287860151815501950193016119a7565b848a5260208a20601f840160051c810160208510611a64575b601f830160051c82018110611a595750506118c8565b8b8155600101611a43565b5080611a43565b634e487b7160e01b89526041600452602489fd5b503461027657611a8e3661228c565b91611aac60018060a01b0380875416331490811561060f5750612647565b6040516001600160401b03936080820185811183821017611ca457604052858252602094858301848152604084019186835260608501938452604051888181611afb8d838151938492016122c5565b8101600581520301902094518051918211611c9057611b1a8654612363565b601f8111611c4d575b5088908b601f8411600114611bbd5792807f012f300797d40c40ddd39cfecb120747701f0da70b1685eaa9807eac3b63ea2a9c9a98969360039693611ba39d9b999692611bb2575b50508160011b9160001990871b1c19161785555b516001850155516002840155519101556040519485946060865260608601906122e8565b9284015260408301520390a180f35b015190503880611b6b565b50868c52898c209190601f1984168d5b818110611c365750937f012f300797d40c40ddd39cfecb120747701f0da70b1685eaa9807eac3b63ea2a9c9a9896936003969360019383611ba39f9d9b9810611c1e575b505050811b018555611b7f565b015160001983891b60f8161c19169055388080611c11565b92938c600181928786015181550195019301611bcd565b868c52898c20601f840160051c8101918b8510611c86575b601f0160051c01905b818110611c7b5750611b23565b8c8155600101611c6e565b9091508190611c65565b634e487b7160e01b8b52604160045260248bfd5b634e487b7160e01b88526041600452602488fd5b50346102765780600319360112610276576002546040516001600160a01b039091168152602090f35b503461027657806003193601126102765760ff6020915460a01c166040519015158152f35b503461027657611d1536612246565b83546001600160a01b0394939033868216148015612042575b611d3790612647565b600485876002541660405192838092633e8dc9cf60e21b82525afa90811561203757916109a060ff92611d739489916120235750610999612689565b60405191835193602093848181840197611d8e81838b6122c5565b8101600581520301902060018101548015611fe457879860038399979899015480611f70575b506003611e258994611e15611e077f1f0211fc46b15c1378534c3f3ad078027e3ac3ee525cb2b31458b0cd2347ffbc9d9660406002978d169d8e8152878b5260048282209b898d0154835252209a6126fe565b6127109586930154906126fe565b0483610a5f60028a0154836126fe565b95015480611f00575b5050611edf93945060018201611e458682546125e4565b9055611e528583546125e4565b8255610ab5611e5f612711565b91611e798960405180938282019586918a519283916122c5565b51902090604051611e99898281610ab581830196878151938492016122c5565b51902003611eeb57600501611eaf8482546125e4565b90555b8387526006855242611ec7604089208361233d565b556060604051958695865285015260608401906122e8565b9060408301520390a180f35b600601611ef98482546125e4565b9055611eb2565b94611f3b7f4fc4cb540a5e5a42d5e6803aa27f2cf4a0f73a9ef499aeefc063fd5fef89bc3292611f33611edf98846126fe565b0480926125e4565b9660078501611f4b8382546125e4565b9055604080516001600160a01b039290921682526020820192909252a1849338611e2e565b86989995975081611f939293949597168b5260068a52610c0660408c208861233d565b4210611fa85790889593979694929138611db4565b60405162461bcd60e51b815260048101899052601460248201527320b1ba34bb34ba3c9037b71031b7b7b63237bbb760611b6044820152606490fd5b60405162461bcd60e51b81526004810187905260176024820152761058dd1a5d9a5d1e481b9bdd081c9959da5cdd195c9959604a1b6044820152606490fd5b61165991503d808b833e610cac81836121b5565b6040513d88823e3d90fd5b5060085486163314611d2e565b5034610276578060031936011261027657602060405160648152f35b50346102765760203660031901126102765761208561215b565b81546001600160a01b0391906120a190831633146103a3612475565b166001600160601b0360a01b600854161760085580f35b503461027657602036600319011261027657610100906040906001600160a01b036120e161215b565b168152600360205220805490600181015490600281015460038201546004830154906005840154926007600686015495015495604051978852602088015260408701526060860152608085015260a084015260c083015260e0820152f35b90503461061d578160031936011261061d576020906009548152f35b600435906001600160a01b0382168203610f3b57565b6001600160401b03811161218457604052565b634e487b7160e01b600052604160045260246000fd5b604081019081106001600160401b0382111761218457604052565b90601f801991011681019081106001600160401b0382111761218457604052565b6001600160401b03811161218457601f01601f191660200190565b9291926121fd826121d6565b9161220b60405193846121b5565b829481845281830111610f3b578281602093846000960137010152565b9080601f83011215610f3b57816020612243933591016121f1565b90565b906060600319830112610f3b576004356001600160a01b0381168103610f3b5791602435906001600160401b038211610f3b5761228591600401612228565b9060443590565b6080600319820112610f3b57600435906001600160401b038211610f3b576122b691600401612228565b90602435906044359060643590565b60005b8381106122d85750506000910152565b81810151838201526020016122c8565b90602091612301815180928185528580860191016122c5565b601f01601f1916010190565b9181601f84011215610f3b578235916001600160401b038311610f3b576020808501948460051b010111610f3b57565b6020906123579282604051948386809551938492016122c5565b82019081520301902090565b90600182811c92168015612393575b602083101461237d57565b634e487b7160e01b600052602260045260246000fd5b91607f1691612372565b90604051918260008254926123b184612363565b90818452600194858116908160001461242057506001146123dd575b50506123db925003836121b5565b565b9093915060005260209081600020936000915b8183106124085750506123db935082010138806123cd565b855488840185015294850194879450918301916123f0565b9150506123db94506020925060ff191682840152151560051b82010138806123cd565b93909261245e6080949796939760a0875260a08701906122e8565b966020860152604085015260608401521515910152565b604051906124828261219a565b60098252682737ba1030b236b4b760b91b6020830152565b156124a25750565b60405162461bcd60e51b8152602060048201529081906124c69060248301906122e8565b0390fd5b51908115158203610f3b57565b919061010083820312610f3b576124ed836124ca565b926124fa602082016124ca565b92612507604083016124ca565b92612514606084016124ca565b9260808101519260a08201519260c08301516001600160401b038111610f3b5783019080601f83011215610f3b5781519161254e836121d6565b9161255c60405193846121b5565b83835260208483010111610f3b5760e09261257d91602080850191016122c5565b92015190565b600254604051633e8dc9cf60e21b815290600090829060049082906001600160a01b03165afa9081156125d8576000916125bb575090565b6125ce913d8091833e610cac81836121b5565b5050505050505090565b6040513d6000823e3d90fd5b919082018092116125f157565b634e487b7160e01b600052601160045260246000fd5b1561260e57565b60405162461bcd60e51b815260206004820152601160248201527014de5cdd195b481b9bdd081c185d5cd959607a1b6044820152606490fd5b1561264e57565b60405162461bcd60e51b81526020600482015260136024820152722737ba103932bbb0b932399036b0b730b3b2b960691b6044820152606490fd5b604051906126968261219a565b600d82526c14de5cdd195b481c185d5cd959609a1b6020830152565b156126b957565b60405162461bcd60e51b815260206004820152601860248201527f436f6e7472616374206e6f7420696e697469616c697a656400000000000000006044820152606490fd5b818102929181159184041417156125f157565b6040519061271e8261219a565b601082526f726566657272616c5f7375636365737360801b6020830152565b60001981146125f15760010190565b91909160018060a01b03166000526003602052600361277f602060406000209481604051938285809451938492016122c5565b81016005815203019020920154600052600460205260406000209060018301549081156127fd576002936127c96127bb6003946127d9946126fe565b6127109687930154906126fe565b0484610a5f6002860154836126fe565b91015491826127e9575b50905090565b610a5f6127f693836126fe565b80386127e3565b50505050600090565b1561280d57565b60405162461bcd60e51b815260206004820152600d60248201526c125b9d985b1a59081a5b9c1d5d609a1b6044820152606490fd5b91908110156128525760051b0190565b634e487b7160e01b600052603260045260246000fd5b356001600160a01b0381168103610f3b5790565b6040516123db9161288c8261219a565b600f82526e496e76616c6964206164647265737360881b60208301526001600160a01b0316151561249a56fea2646970667358221220dcb1b4f93afb905d4c206d59958c73153bb6aca2d75fe031c6acde2ad4d6a18964736f6c634300081300339e9b185744188b300079c1edaaf6569345f8fa9f5102a4a007efd839db0442fb012f300797d40c40ddd39cfecb120747701f0da70b1685eaa9807eac3b63ea2a",
  "linkReferences": {},
  "deployedLinkReferences": {}
}