{
  "_format": "hh-sol-artifact-1",
  "contractName": "RentChainDeployer",
  "sourceName": "contracts/RentChainDeployer.sol",
  "abi": [
    {
      "inputs": [],
      "stateMutability": "nonpayable",
      "type": "constructor"
    },
    {
      "anonymous": false,
      "inputs": [
        {
          "indexed": false,
          "internalType": "address",
          "name": "newMainContract",
          "type": "address"
        }
      ],
      "name": "ContractsUpgraded",
      "type": "event"
    },
    {
      "anonymous": false,
      "inputs": [
        {
          "indexed": false,
          "internalType": "string",
          "name": "reason",
          "type": "string"
        }
      ],
      "name": "DeploymentFailed",
      "type": "event"
    },
    {
      "anonymous": false,
      "inputs": [
        {
          "indexed": false,
          "internalType": "address",
          "name": "mainContract",
          "type": "address"
        },
        {
          "indexed": false,
          "internalType": "address",
          "name": "emergencySystem",
          "type": "address"
        },
        {
          "indexed": false,
          "internalType": "uint256",
          "name": "timestamp",
          "type": "uint256"
        }
      ],
      "name": "SystemDeployed",
      "type": "event"
    },
    {
      "inputs": [],
      "name": "contracts",
      "outputs": [
        {
          "internalType": "contract RentChainMain",
          "name": "main",
          "type": "address"
        },
        {
          "internalType": "contract RentChainEmergency",
          "name": "emergency",
          "type": "address"
        },
        {
          "internalType": "address",
          "name": "treasury",
          "type": "address"
        },
        {
          "internalType": "address",
          "name": "development",
          "type": "address"
        },
        {
          "internalType": "address",
          "name": "marketing",
          "type": "address"
        }
      ],
      "stateMutability": "view",
      "type": "function"
    },
    {
      "inputs": [],
      "name": "deployRentChainSystem",
      "outputs": [],
      "stateMutability": "nonpayable",
      "type": "function"
    },
    {
      "inputs": [],
      "name": "deployed",
      "outputs": [
        {
          "internalType": "bool",
          "name": "",
          "type": "bool"
        }
      ],
      "stateMutability": "view",
      "type": "function"
    },
    {
      "inputs": [],
      "name": "deployer",
      "outputs": [
        {
          "internalType": "address",
          "name": "",
          "type": "address"
        }
      ],
      "stateMutability": "view",
      "type": "function"
    },
    {
      "inputs": [],
      "name": "deploymentTime",
      "outputs": [
        {
          "internalType": "uint256",
          "name": "",
          "type": "uint256"
        }
      ],
      "stateMutability": "view",
      "type": "function"
    },
    {
      "inputs": [],
      "name": "emergencyRecovery",
      "outputs": [],
      "stateMutability": "nonpayable",
      "type": "function"
    },
    {
      "inputs": [],
      "name": "getDeploymentInfo",
      "outputs": [
        {
          "internalType": "address",
          "name": "deployerAddress",
          "type": "address"
        },
        {
          "internalType": "uint256",
          "name": "deployTime",
          "type": "uint256"
        },
        {
          "internalType": "bool",
          "name": "isDeployed",
          "type": "bool"
        },
        {
          "internalType": "address",
          "name": "mainContract",
          "type": "address"
        },
        {
          "internalType": "address",
          "name": "emergencySystem",
          "type": "address"
        },
        {
          "internalType": "address",
          "name": "treasuryWallet",
          "type": "address"
        },
        {
          "internalType": "address",
          "name": "developmentWallet",
          "type": "address"
        },
        {
          "internalType": "address",
          "name": "marketingWallet",
          "type": "address"
        }
      ],
      "stateMutability": "view",
      "type": "function"
    },
    {
      "inputs": [
        {
          "internalType": "address",
          "name": "newDeployer",
          "type": "address"
        }
      ],
      "name": "transferDeployer",
      "outputs": [],
      "stateMutability": "nonpayable",
      "type": "function"
    },
    {
      "inputs": [
        {
          "internalType": "address",
          "name": "newMainContract",
          "type": "address"
        }
      ],
      "name": "upgradeSystem",
      "outputs": [],
      "stateMutability": "nonpayable",
      "type": "function"
    },
    {
      "inputs": [],
      "name": "verifySystem",
      "outputs": [
        {
          "internalType": "bool",
          "name": "systemHealthy",
          "type": "bool"
        },
        {
          "internalType": "string",
          "name": "issues",
          "type": "string"
        }
      ],
      "stateMutability": "view",
      "type": "function"
    }
  ],
  "bytecode": "0x6080806040523461002e57600080546001600160a01b0319163317905542600155620182519081620000348239f35b600080fdfe6040608081526004908136101561001557600080fd5b600091823560e01c908163309ec59d1461081c578382634e8bea041461073a575081636c0f79b6146106e9578163aeefffad14610675578163d3ee7b8d14610346578163d5f394881461031e578163ecda10f5146102ff578163ed9813801461014a578163f711d2fb146100b9575063f905c15a1461009357600080fd5b346100b557816003193601126100b55760209060ff6002541690519015158152f35b5080fd5b91905034610146576020366003190112610146576001600160a01b03823581811693919290849003610142576100f485549384163314610891565b831561010c5750506001600160a01b03191617815580f35b906020606492519162461bcd60e51b8352820152601060248201526f24b73b30b634b2103232b83637bcb2b960811b6044820152fd5b8480fd5b8280fd5b919050346101465760203660031901126101465781356001600160a01b0381811693918481036102fb57610182828754163314610891565b61019060ff60025416610934565b84156102c5573b1561029157908185928254168160035416813b156101425784916024839288519485938492631ea6a4fd60e21b8452898401525af1801561028757908491610273575b505081541690813b15610146578460248492838751958694859363179efb0960e01b85528401525af1801561026957610255575b507f27878903728c6d1249ccc9632f34fd630947b9ac18e78156010047fe66d3fa7860208484816bffffffffffffffffffffffff60a01b600354161760035551908152a180f35b61025e906108cc565b61014657823861020e565b83513d84823e3d90fd5b61027c906108cc565b6101465782386101da565b85513d86823e3d90fd5b506020606492519162461bcd60e51b8352820152600e60248201526d139bdd08184818dbdb9d1c9858dd60921b6044820152fd5b835162461bcd60e51b8152602081850152601060248201526f125b9d985b1a590818dbdb9d1c9858dd60821b6044820152606490fd5b8580fd5b5050346100b557816003193601126100b5576020906001549051908152f35b5050346100b557816003193601126100b557905490516001600160a01b039091168152602090f35b90503461014657826003193601126101465782546001600160a01b03906103709082163314610891565b60ff6002541661063f5782516119279081810167ffffffffffffffff92828210848311176106055790829162000dab8339039086f090811561063557826bffffffffffffffffffffffff60a01b921682855416178455845162015af0808201908282108483111761062257908291620026d28339039087f080156106185783168260035416176003558451605a808201908282108483111761062257908291620181c28339039087f080156106185783168260055416176005558451605a80820190828210848311176106225790829162000cf78339039087f08015610618578316826006541617600655845190605a80830191838310908311176106055791809188949362000d518339039083f080156105c557831680600754928316176007558360035416908486541690856005541693866006541690843b156106015786946084938680938c958e519a8b998a98634b5678d160e01b8a5289015260248801526044870152161760648401525af180156105c5576105ed575b5081835416826003541690803b1561014657828091602488518094819363179efb0960e01b978884528b8401525af19081156105e35783916105cf575b5050828454169083835416823b156105c15760248492838951958694859384528a8401525af180156105c5576105a9575b507f81b3ee7f221f8217359b836dad3e3ba9a00d983a65c77f34997c7192670b79b56060848685600160ff1960025416176002558060035416925416815192835260208301524290820152a180f35b6105b5909392936108cc565b6105c15790833861055a565b8380fd5b85513d84823e3d90fd5b6105d8906108cc565b6100b5578138610529565b86513d85823e3d90fd5b6105f6906108cc565b6105c15783386104ec565b8680fd5b634e487b7160e01b885260418652602488fd5b85513d88823e3d90fd5b634e487b7160e01b895260418752602489fd5b84513d87823e3d90fd5b506020606492519162461bcd60e51b8352820152601060248201526f105b1c9958591e4819195c1b1bde595960821b6044820152fd5b919050346101465782600319360112610146576101009260018060a01b0380915416926001549260ff6002541691838060035416915416918460055416938560065416956007541696825198895260208901521515908701526060860152608085015260a084015260c083015260e0820152f35b9190503461014657826003193601126101465760a09250600180841b038080600354169354169181600554169082600654169260075416938151958652602086015284015260608301526080820152f35b8091843461081857826003193601126108185782546001600160a01b03906107659082163314610891565b61077360ff60025416610934565b80835416803b1561014257849084845180988193630775ef0f60e01b83525af1801561080e576107fa575b83945082541691823b156107f5578392602484928451958693849263179efb0960e01b845230908401525af19081156107ec57506107d95750f35b6107e2906108cc565b6107e95780f35b80fd5b513d84823e3d90fd5b505050fd5b929093610806906108cc565b91839061079e565b82513d86823e3d90fd5b5050fd5b8284346107e957806003193601126107e957506060610839610988565b6108608451948593151584528060208501528251928380928601526020868601910161086e565b601f01601f19168101030190f35b60005b8381106108815750506000910152565b8181015183820152602001610871565b1561089857565b60405162461bcd60e51b815260206004820152600c60248201526b2737ba103232b83637bcb2b960a11b6044820152606490fd5b67ffffffffffffffff81116108e057604052565b634e487b7160e01b600052604160045260246000fd5b6040810190811067ffffffffffffffff8211176108e057604052565b90601f8019910116810190811067ffffffffffffffff8211176108e057604052565b1561093b57565b60405162461bcd60e51b815260206004820152601360248201527214de5cdd195b481b9bdd0819195c1b1bde5959606a1b6044820152606490fd5b5190811515820361098357565b600080fd5b60ff6002541615610cc4576003546001600160a01b0390811691908215610c8e5760045416918215610c505760409283518092630ac77c9f60e11b825281600460209586935afa60009181610c19575b50610a185750507f43616e6e6f7420636865636b20696e697469616c697a6174696f6e00000000006000935191610a0e836108f6565b601b835282015290565b15610be9576000600491855192838092633e8dc9cf60e21b82525afa806000928392610b17575b50610a7f5750507f43616e6e6f7420636865636b20656d657267656e6379207374617475730000006000935191610a75836108f6565b601d835282015290565b81610b0b575b50610ab4576d53797374656d206865616c74687960901b6001935191610aaa836108f6565b600e835282015290565b916000928151916060830183811067ffffffffffffffff8211176108e0576275736560e81b927f456d657267656e63792073797374656d20696e207065726d616e656e742070619183526023855284015282015290565b60001914905038610a85565b929091503d8082853e610b2a8185610912565b830192610100818503126100b557610b4181610976565b91610b4d868301610976565b50610b59888301610976565b50610b6660608301610976565b5060a08201519460c083015167ffffffffffffffff938482116105c157019181601f840112156107e9578251938411610bd557895191610baf601f8601601f19168a0184610912565b8483528885850101116107e95750908680610bcd949301910161086e565b919038610a3f565b634e487b7160e01b81526041600452602490fd5b507f4d61696e20636f6e7472616374206e6f7420696e697469616c697a65640000006000935191610a75836108f6565b90918482813d8311610c49575b610c308183610912565b810103126107e95750610c4290610976565b90386109d8565b503d610c26565b5060405160009250610c61816108f6565b601881527f456d657267656e63792073797374656d206e6f74207365740000000000000000602082015290565b5060405160009250610c9f816108f6565b601581527413585a5b8818dbdb9d1c9858dd081b9bdd081cd95d605a1b602082015290565b600090604051610cd3816108f6565b601381527214de5cdd195b481b9bdd0819195c1b1bde5959606a1b60208201529056fe608080604052346013576041908160198239f35b600080fdfe3615600957600080fd5b00fea26469706673582212205d62e9acad8fbd170878a2fe85efa1322c717c8a9ecebc6cfdf9c979b0d69dd064736f6c63430008130033608080604052346013576041908160198239f35b600080fdfe3615600957600080fd5b00fea26469706673582212200cd4d5953538ab7edca322bdbb215f16e1283ba5c07ad8de48c484ad4dd7cbbb64736f6c6343000813003360808060405234610040573360018060a01b031960035416176003553360005260006020526040600020600160ff198254161790556118e190816100468239f35b600080fdfe6080604052600436101561001257600080fd5b60e0600035811c80630775ef0f146114525780630c6dd9fd146113d0578063157c51d3146112de578063179efb09146112665780632799657d1461124857806329575f6a1461121f5780634a9122e31461120157806355002b75146111725780635d65ad6714610ec95780635f00e0c614610e545780636c302b4414610d35578063739e663014610b2e5780637a9a93f414610ab95780637b7e526714610a64578063b50240fe14610a2a578063bc5e9ebe146109eb578063c37fc8a8146108f0578063d3304a24146105c7578063f1df3456146102a5578063f8a338a51461022b5763fa37273c1461010457600080fd5b346102265760003660031901126102265760405181810181811067ffffffffffffffff821117610210576040526004549160ff831615158252602082019160ff8460081c16151583526101ff604082019460ff8160101c161515865260ff606084019160181c16151581526005546080840190815260065460a0850190815261018b6115d6565b9160c086019283526101a08151835190611786565b804210600014610207576101b5904290611827565b955b51151597511515985115159351151590519151925193604051998a998a5260208a015260408901526060880152608087015260a08601526101008060c0870152850190611682565b918301520390f35b506000956101b7565b634e487b7160e01b600052604160045260246000fd5b600080fd5b50346102265760003660031901126102265760ff906102a160045491600554906006546102566115d6565b9260405196868189981615158852818160081c1615156020890152818160101c161515604089015260181c1615156060870152608086015260a08501528060c0850152830190611682565b0390f35b346102265760403660031901126102265767ffffffffffffffff600435818111610226576102d790369060040161156b565b9091602435908111610226576102f190369060040161156b565b91909233600052600060205260ff6040600020541680156105b3575b610316906116c2565b82820361057e5760005b82811061032957005b61033481848461185b565b359061034181868861185b565b359182151583036102265733600052600060205260ff60406000205416801561056a575b61036e906116c2565b80600052600260205260406000206004810180549060ff821661053157600383015462015180810180911161051b5742106104e45761ffff1990911685151560081b61ff001617600117905583610416575b60008051602061186c833981519152916104119460a092600180851b0390600282825416926001830154169101549160405194855260208501526040840152606083015215156080820152a161184c565b610320565b60018101548154600283015460405163a9059cbb60e01b81526001600160a01b03928316600482015260248101919091529095909391602090859060449082906000908b165af19283156104d8576104119661048c60a09560008051602061186c833981519152976000916104a9575b506117ab565b8154166000526001602052600060408120559250945091506103c0565b6104cb915060203d6020116104d1575b6104c38183611549565b810190611793565b8e610486565b503d6104b9565b6040513d6000823e3d90fd5b60405162461bcd60e51b815260206004820152600f60248201526e10dbdbdb191bdddb881c195c9a5bd9608a1b6044820152606490fd5b634e487b7160e01b600052601160045260246000fd5b60405162461bcd60e51b8152602060048201526011602482015270105b1c9958591e481c1c9bd8d95cdcd959607a1b6044820152606490fd5b506003546001600160a01b03163314610365565b60405162461bcd60e51b815260206004820152600d60248201526c125b9d985b1a59081a5b9c1d5d609a1b6044820152606490fd5b506003546001600160a01b0316331461030d565b346102265760a036600319011261022657600435801515809103610226576105ed61153a565b604435918215158093036102265760643560843567ffffffffffffffff948582116102265736602383011215610226578160040135938685116102105760405195602095601f1994610646601f8301871689018a611549565b8189523660248383010111610226578160009260248a9301838c013789010152336000526000865260ff6040600020541680156108dc575b610687906116c2565b62278d008511610897576004549160ff831661085a579062ff000063ff0000009594939261ff00600197889660181b169463ffffffff19169160081b161791151560101b1617171760045542600555826006558451958611610210576106ee60075461159c565b601f8111610805575b508390601f87116001146107745750948080610760969594937f1afc9a745f93ec77943b1a4555e0a06a23052f1f1e63bc5ffee991fe3104bacd98600093610769575b501b916000199060031b1c1916176007555b604051938493604085526040850190611682565b918301520390a1005b87015192508961073a565b861690600760005260008051602061188c8339815191529160005b8181106107f057509187917f1afc9a745f93ec77943b1a4555e0a06a23052f1f1e63bc5ffee991fe3104bacd986107609897969594106107d7575b5050811b0160075561074c565b86015160001960f88460031b161c1916905587806107ca565b8783015184559284019291860191860161078f565b600760005260008051602061188c833981519152601f880160051c810191868910610850575b601f0160051c019083905b8281106108445750506106f7565b60008155018390610836565b909150819061082b565b60405162461bcd60e51b815260048101889052601560248201527414de5cdd195b48185b1c9958591e481c185d5cd959605a1b6044820152606490fd5b60405162461bcd60e51b815260048101879052601760248201527f5061757365206475726174696f6e20746f6f206c6f6e670000000000000000006044820152606490fd5b506003546001600160a01b0316331461067e565b3461022657600036600319011261022657600060085461090f81611834565b61091c6040519182611549565b81815261092882611834565b6020938285019391601f190136853760005b8281106109855750505090604051928392818401908285525180915260408401929160005b82811061096e57505050500390f35b83518552869550938101939281019260010161095f565b806000526002865260ff60046040600020015416156109ad575b6109a89061184c565b61093a565b9083518110156109d5576109cd8183886109a89460051b8801015261184c565b91905061099f565b634e487b7160e01b600052603260045260246000fd5b34610226576020366003190112610226576001600160a01b03610a0c611524565b166000526000602052602060ff604060002054166040519015158152f35b34610226576020366003190112610226576001600160a01b03610a4b611524565b1660005260016020526020604060002054604051908152f35b3461022657602036600319011261022657610a7d611524565b600354906001600160a01b0390610a9733838516146117e9565b610aa560ff60045416611746565b6001600160a01b0319909216911617600355005b34610226576020366003190112610226577f96903ccf75a03683e56434e0f2926f527b559127b4e4b23fc234ce2b5109c7f86020610af5611524565b6003546001600160a01b039190610b0f90831633146117e9565b168060005260008252604060002060ff198154169055604051908152a1005b3461022657604036600319011261022657600435610b4a61153a565b3360005260206000815260ff604060002054168015610d21575b610b6d906116c2565b8260005260028152604060002060048101805460ff8116610ce857600383015462015180810180911161051b574210610cb15761ffff191684151560081b61ff001617600117905582610c04575b9160008051602061186c833981519152939160a093600180861b0360028183541691600184015416920154926040519586528501526040840152606083015215156080820152a1005b60018101548154600283015460405163a9059cbb60e01b81526001600160a01b03928316600482015260248101919091529590949093909290918290879060449082906000908a165af19485156104d857610c7860a09660008051602061186c83398151915298600091610c9457506117ab565b8154166000526001825260006040812055919350919350610bbb565b610cab9150853d87116104d1576104c38183611549565b89610486565b60405162461bcd60e51b815260048101859052600f60248201526e10dbdbdb191bdddb881c195c9a5bd9608a1b6044820152606490fd5b60405162461bcd60e51b8152600481018590526011602482015270105b1c9958591e481c1c9bd8d95cdcd959607a1b6044820152606490fd5b506003546001600160a01b03163314610b64565b3461022657606036600319011261022657610d4e611524565b6024356044356001600160a01b03808216908183036102265783602091610dd396336000526000845260ff604060002054168015610e47575b610d90906116c2565b610d9e60ff60045416611746565b60405163a9059cbb60e01b81526001600160a01b03909616600487015260248601929092529395931692859081906044820190565b03816000865af19283156104d857610e166060947f1eadb3d0c63d81bf1c4800d2630a76ccdeb92dde6127f48577a5e792233af37596600091610e2957506117ab565b60405192835260208301526040820152a1005b610e41915060203d81116104d1576104c38183611549565b87610486565b5060035482163314610d87565b3461022657602036600319011261022657600435600052600260205260c0604060002060ff60018060a01b0391828154169260018201541690600281015460046003830154920154926040519586526020860152604085015260608401528181161515608084015260081c16151560a0820152f35b503461022657604036600319011261022657610ee3611524565b602490813560ff60045460081c166111395780156111045733600052602093600185526040600020546110c05733600052600185526040600020549060405191868301913360601b835260018060a01b0391828716966bffffffffffffffffffffffff199060601b16603486015285604886015242606886015260888501526088845260c084019267ffffffffffffffff90858510828611176110ab578460405285519020976101808601918583109083111761109757506004608096948a611069957f1c381d8f9487dfce4e34fdcb2c79d9d78f16dd24c348fd99efb8d526983f8d589a98958c95604052338452860189815261010087019189835260026101208901944286526101606101408b019a60008c52019860008a5260005252806040600020955116906bffffffffffffffffffffffff60a01b91828754161786556001860192511690825416179055516002830155516003820155019151151560ff8019845416911617825551151561ff00825491151560081b169061ff001916179055565b33600052600186524260406000205560405191858352338784015260408301526060820152a1604051908152f35b634e487b7160e01b60009081526041600452fd5b88634e487b7160e01b60005260416004526000fd5b60405162461bcd60e51b8152600481018690526019818601527f50656e64696e67207769746864726177616c20657869737473000000000000006044820152606490fd5b60405162461bcd60e51b815260206004820152600e818501526d125b9d985b1a5908185b5bdd5b9d60921b6044820152606490fd5b60405162461bcd60e51b8152602060048201526012818501527115da5d1a191c985dd85b1cc81c185d5cd95960721b6044820152606490fd5b34610226576020366003190112610226576001600160a01b03611193611524565b166000526001602052604060002054801515600081806111ec575b6111c8575b60609260405192835260208301526040820152f35b506201518082019182811161051b576111e46060934290611827565b9092506111b3565b5062015180830180841161051b5742106111ae565b34610226576000366003190112610226576020600854604051908152f35b34610226576000366003190112610226576003546040516001600160a01b039091168152602090f35b3461022657600036600319011261022657602060405162278d008152f35b34610226576020366003190112610226577f2bbc948ec094d6153be3d4fca4cbb562ba47d9a8449d39fe557aa4d9c2319b3460206112a2611524565b6003546001600160a01b0391906112bc90831633146117e9565b1680600052600082526040600020600160ff19825416179055604051908152a1005b346102265760003660031901126102265733600052600060205260ff6040600020541680156113bc575b611311906116c2565b60045461132060ff8216611746565b61132f60055460065490611786565b42106113835763ffffffff1916600455600060065561135761135260075461159c565b611704565b60006007557f8405beb5718fa80e67847f8f4174dc9f80fed07680154149a25ce0cf37418350600080a1005b60405162461bcd60e51b815260206004820152601160248201527014185d5cd9481b9bdd08195e1c1a5c9959607a1b6044820152606490fd5b506003546001600160a01b03163314611308565b34610226576020366003190112610226576113e9611524565b600354906001600160a01b039061140333838516146117e9565b1690811561141b576001600160a01b03191617600355005b60405162461bcd60e51b815260206004820152600f60248201526e496e76616c6964206164647265737360881b6044820152606490fd5b346102265760003660031901126102265733600052600060205260ff604060002054168015611510575b611485906116c2565b630101010163ffffffff196004541617600455426005557f1afc9a745f93ec77943b1a4555e0a06a23052f1f1e63bc5ffee991fe3104bacd608062278d00806006556114d561135260075461159c565b721153515491d15390d657d4105554d157d05313606a1b906026820160075560405191604083526013604084015260608301526020820152a1005b506003546001600160a01b0316331461147c565b600435906001600160a01b038216820361022657565b60243590811515820361022657565b90601f8019910116810190811067ffffffffffffffff82111761021057604052565b9181601f840112156102265782359167ffffffffffffffff8311610226576020808501948460051b01011161022657565b90600182811c921680156115cc575b60208310146115b657565b634e487b7160e01b600052602260045260246000fd5b91607f16916115ab565b60405190600082600754916115ea8361159c565b808352926001908181169081156116605750600114611613575b5061161192500383611549565b565b60076000908152915060008051602061188c8339815191525b8483106116455750611611935050810160200138611604565b81935090816020925483858a0101520191019091859261162c565b90506020925061161194915060ff191682840152151560051b82010138611604565b919082519283825260005b8481106116ae575050826000602080949584010152601f8019910116010190565b60208183018101518483018201520161168d565b156116c957565b60405162461bcd60e51b81526020600482015260136024820152722737ba1032b6b2b933b2b731bc9030b236b4b760691b6044820152606490fd5b601f811161170f5750565b600060078152601f60008051602061188c833981519152920160051c8201915b82811061173b57505050565b81815560010161172f565b1561174d57565b60405162461bcd60e51b815260206004820152601160248201527014de5cdd195b481b9bdd081c185d5cd959607a1b6044820152606490fd5b9190820180921161051b57565b90816020910312610226575180151581036102265790565b156117b257565b60405162461bcd60e51b815260206004820152600f60248201526e151c985b9cd9995c8819985a5b1959608a1b6044820152606490fd5b156117f057565b60405162461bcd60e51b815260206004820152600f60248201526e2737ba1039bab832b91030b236b4b760891b6044820152606490fd5b9190820391821161051b57565b67ffffffffffffffff81116102105760051b60200190565b600019811461051b5760010190565b91908110156109d55760051b019056feccd78db4eb8bc6e5a260daba1a6835af3763927165be6e4e4f3becc69792cb75a66cc928b5edb82af9bd49922954155ab7b0942694bea4ce44661d9a8736c688a2646970667358221220fb8939f03edc43990999eef90e904cf50ffd79277338ac6e86a40327a1b9b89a64736f6c63430008130033608080604052346100355760018060a01b031933816000541617600055600254166002556001805562015ab590816200003b8239f35b600080fdfe60808060405260043610156200006e575b5036156200001d57600080fd5b6200003060ff60115460a01c1662003b73565b34156200003957005b60405162461bcd60e51b815260206004820152600d60248201526c139bc81d985b1d59481cd95b9d609a1b6044820152606490fd5b60009060e08235811c9182630b3bce201462003777575081630bf2d668146200333c5781631116cfdb146200325d578163157c51d314620031e8578163158ef93e14620031c15781631acec7951462002dca57816326b703a71462002d9f57816326d446851462002d7457816330e66cd21462002d0d578163335195a61462002ced5781633431d5c91462002cc55781633981afc11462002c1e578163408def1e1462002bb4578163439766ce1462002b1257816345282a921462002a425781634b5678d114620022cd5781634cacef2b14620022ad57816354fd4d50146200228d5781635c7460d614620022625781635d65ad6714620021ac5781635f81a57c146200218c578163641f5d11146200216157816364b87a7014620021365781636cb69f42146200202557816374fc18321462001ead5781637547c7a31462001d2657816375829def1462001c995781637691c4ac1462001c705781637cc1f8671462001c1357816380d5ac8a1462001be857816382ce5f521462001bbd57816387f38c821462001a31578163886e10441462001a065781638c96cf63146200190b57816392d76cb614620018e057816393e54a5614620016fc578163953874d2146200166e57816395ccea671462001594578163a04e876c1462001569578163a77db54f146200153e578163abc8c7af1462001513578163b8e381e514620014e8578163be9157cf14620014bd578163bfa1f3b81462001127578163bff1f9e11462001107578163c12255c414620010dc578163c4bc5da51462001070578163d1ce59a71462001027578163eef6f9631462000a0d578163f1c6bdf814620009e2578163f851a44014620009b9578163faaf80761462000820575063fc2bf8f003620000105734620004565760403660031901126200045657600254604051633e8dc9cf60e21b81526001600160a01b0392916024803592909184908290600490829089165afa9081156200081557906200035f918591620007e7575b506200035762003afb565b901562003924565b6200037160ff845460a01c1662003b26565b6011936200038660ff865460a01c1662003b73565b8060045416803b15620007e357848091604460405180948193630fc2bf8f60e41b8352600435600484015289898401525af18015620007d857908591620007bc575b505060fa830283810460fa1484151715620007a9576127109004948515801562000469575b50849550541690813b15620004645760a4600091858094604051968795869463a508b92160e01b8652336004870152850152604484015260016064840152600060848401525af180156200045957620004435750f35b6200044e9062003795565b620004565780f35b80fd5b6040513d84823e3d90fd5b505050fd5b6028870287810460281482171562000796576064900490601e8802888104601e1482171562000783576064900490601489029089820460141417156200078357918798916064899404620004ce81620004c884620004c8878962003aed565b62003aed565b9187600a5416916040519163a9059cbb60e01b9384845273742d35cc6634c0532925a3b8dc9f5a6f6e8c6f5e968760048601528c8501528360448160209b8c945af190811562000778578d93899262000732575b5060448c8c600a54169560405196879485938a85528c60048601528401525af190811562000727578c928892620006e1575b5060448b8b600a54169460405195869485938985528b60048601528401525af18015620006d65762000696575b5060ff60175460181c16806200068c575b620005d0575b5050906040917f1604c7c469c0ce177c411628a5787d2a5b6a2f7ffda7f9d732edcb70f1138032938351928352820152a138620003ed565b600a54600b5460405192835288166001600160a01b031660048301526024820192909252908490829060449082908d908b165af18015620006815762000618575b8062000598565b91908383813d831162000679575b620006328183620037e1565b8101031262000675577f1604c7c469c0ce177c411628a5787d2a5b6a2f7ffda7f9d732edcb70f1138032936200066a60409462003957565b509350909162000611565b8880fd5b503d62000626565b6040513d8b823e3d90fd5b5081151562000592565b8581813d8311620006ce575b620006ae8183620037e1565b81010312620006ca57620006c29062003957565b503862000581565b8a80fd5b503d620006a2565b6040513d8d823e3d90fd5b8281939294503d83116200071f575b620006fc8183620037e1565b810103126200071b578b9162000713889262003957565b503862000554565b8b80fd5b503d620006f0565b6040513d8e823e3d90fd5b8281939295503d831162000770575b6200074d8183620037e1565b810103126200076c578c9262000764899262003957565b503862000522565b8c80fd5b503d62000741565b6040513d8f823e3d90fd5b634e487b7160e01b885260048490528588fd5b634e487b7160e01b875260048390528487fd5b634e487b7160e01b855260048690528285fd5b620007c79062003795565b620007d4578338620003c8565b8380fd5b6040513d87823e3d90fd5b8480fd5b6200080791503d8087833e620007fe8183620037e1565b810190620039b2565b50505050505050386200034c565b6040513d86823e3d90fd5b82346200045657602090816003193601126200045657620008406200386c565b9260018060a01b0392838181600754169660246040518098819363056720bf60e51b835216998a60048301525afa948515620008155784956200097a575b5060248482600354166040519283809263cb64489760e01b82528b60048301525afa908115620007d857908391869162000953575b5051916009541696602460405180998193631cec614760e21b835260048301525afa9182156200081557849262000917575b6101009650604051951515865285015282604085015282606085015282608085015260a08401528160c0840152820152f35b80925086813d83116200094b575b620009318183620037e1565b810103126200094657610100955191620008e5565b600080fd5b503d62000925565b6200097391503d8088833e6200096a8183620037e1565b81019062003bc4565b88620008b3565b9094508181813d8311620009b1575b620009958183620037e1565b81010312620007d457620009a99062003957565b93866200087e565b503d62000989565b82346200045657806003193601126200045657546040516001600160a01b039091168152602090f35b823462000456578060031936011262000456576006546040516001600160a01b039091168152602090f35b82346200045657610100366003190112620004565762000a2c62003883565b60c435906001600160a01b03821682036200094657600254604051633e8dc9cf60e21b8152908490829060049082906001600160a01b03165afa8015620008155762000a849185916200100257506200035762003afb565b62000a9660ff845460a01c1662003b26565b62000aa960ff60115460a01c1662003b73565b60075460405163056720bf60e51b81526001600160a01b038381166004830152909160209183916024918391165afa9081156200081557849162000fc0575b501562000f855762000aff60843560a43562003aed565b6044351562000f4057600360443502604435810460030362000f2c576064351162000ef45762015180811062000eba576301e133801062000e8157600480546040516387f98ca960e01b81528235928101929092526001600160a01b03838116602484015260448035908401526064803590840152608480359084015260a480359084015280851660c4840152919391602091859160e49183918991165af19283156200081557849362000e47575b5060ff60175460101c168062000e3b575b62000db0575b60643562000d0c575b5062000bdc60135462003bb4565b60135562000bfc62000bf360643560443562003a95565b60155462003a95565b6015556011546001600160a01b0316908390823b1562000ce157604051828160a4818363a508b92160e01b9889835233600484015260016024840152604435604484015260006064840152600060848401525af190811562000ce557839162000cf4575b50506011546001600160a01b031692833b1562000cf05760a490836040519586948593845260018060a01b0316600484015260006024840152604435604484015260006064840152600060848401525af1801562000ce55762000cc9575b602082604051908152f35b62000cd5839162003795565b62000ce1578162000cbe565b5080fd5b6040513d85823e3d90fd5b8280fd5b62000cff9062003795565b62000ce157818662000c60565b6005546001600160a01b03169060209060a462000d2d608435823562003aed565b604051635338c28b60e11b81523360048201526001600160a01b03878116602483015260648035604484015294169381019390935260848301529092839190829088905af1801562000815571562000bce57602090813d831162000da8575b62000d988183620037e1565b8101031262000946578362000bce565b503d62000d8c565b600c546040516306ac516d60e21b8152600481018590526001600160a01b03848116602483015233604483015260e43560648301529091602091839160849183918a91165af18015620007d85762000e0a575b5062000bc5565b602090813d831162000e33575b62000e238183620037e1565b8101031262000946578462000e03565b503d62000e17565b5060e435151562000bbf565b9092506020813d60201162000e78575b8162000e6660209383620037e1565b81010312620009465751918462000bae565b3d915062000e57565b60405162461bcd60e51b81526020600482015260116024820152704475726174696f6e20746f6f206c6f6e6760781b6044820152606490fd5b60405162461bcd60e51b8152602060048201526012602482015271111d5c985d1a5bdb881d1bdbc81cda1bdc9d60721b6044820152606490fd5b60405162461bcd60e51b815260206004820152601060248201526f088cae0dee6d2e840e8dede40d0d2ced60831b6044820152606490fd5b634e487b7160e01b85526011600452602485fd5b60405162461bcd60e51b815260206004820152601c60248201527f52656e7420616d6f756e74206d75737420626520706f736974697665000000006044820152606490fd5b60405162461bcd60e51b815260206004820152601360248201527215195b985b9d081b9bdd081d995c9a599a5959606a1b6044820152606490fd5b90506020813d60201162000ff9575b8162000fde60209383620037e1565b81010312620007d45762000ff29062003957565b8462000ae8565b3d915062000fcf565b6200101991503d8087833e620007fe8183620037e1565b50505050505050856200034c565b8234620004565780600319360112620004565760125490601354601454601554916040519485526020850152604084015260608301528060808301528060a083015260c0820152f35b823462000456578060031936011262000456578060018060a01b03620010a68183541633146200109f620038fd565b9062003924565b60025416803b15620010d95781809160046040518094819363157c51d360e01b83525af180156200045957620004435750f35b50fd5b823462000456578060031936011262000456576005546040516001600160a01b039091168152602090f35b823462000456578060031936011262000456576020601454604051908152f35b82346200045657604036600319011262000456576200114562003883565b600254604051633e8dc9cf60e21b815291936001600160a01b0392909184908290600490829087165afa9081156200081557906200118f9185916200149857506200035762003afb565b620011a160ff845460a01c1662003b26565b60ff60175460281c16156200145c578190620011c560ff60115460a01c1662003b73565b8382600754169560246040518095819363543a185d60e11b835216988960048301525afa9182156200081557849185936200139b575b50508260045416604051632246d97b60e11b81528660048201528581602481855afa9081156200137257602491879182916200137d575b50519260405192838092638aed078d60e01b82528b60048301525afa9081156200137257906200126e9291879162001354575b50519062003a95565b60405192602096878501526040840152606083015260808201526080815260a08101918183106001600160401b038411176200133e578285918160405260105416638162e1bb60e01b825260043560a4850152604060c48501528186609f1986620012dd60e4820182620038d6565b0301925af1928315620013325790849193620012fd575b50604051838152f35b90809293503d83116200132a575b620013178185620037e1565b81010312620009465751828281620012f4565b503d6200130b565b604051903d90823e3d90fd5b634e487b7160e01b600052604160045260246000fd5b6200136b91503d8089833e6200096a8183620037e1565b8862001265565b6040513d88823e3d90fd5b6200139491503d8084833e6200096a8183620037e1565b8962001232565b915091503d8085843e620013b08184620037e1565b820161010083820312620007e35782516001600160401b0390818111620014585782620013df91860162003965565b506020840151818111620014585782620013fb91860162003965565b5060408401518181116200145857826200141791860162003965565b5060608401519081116200145457906200143391840162003965565b50620014426080830162003957565b5060a0820151910151908580620011fb565b8580fd5b8680fd5b60405162461bcd60e51b815260206004820152601460248201527310dc9bdcdccb58da185a5b88191a5cd8589b195960621b6044820152606490fd5b620014af91503d8087833e620007fe8183620037e1565b50505050505050866200034c565b823462000456578060031936011262000456576008546040516001600160a01b039091168152602090f35b82346200045657806003193601126200045657600e546040516001600160a01b039091168152602090f35b82346200045657806003193601126200045657600d546040516001600160a01b039091168152602090f35b82346200045657806003193601126200045657600a546040516001600160a01b039091168152602090f35b82346200045657806003193601126200045657600f546040516001600160a01b039091168152602090f35b8234620004565760403660031901126200045657620015b26200386c565b81546001600160a01b039190821690620015d8620015cf620038fd565b83331462003924565b60ff60115460a01c16620016315782849360025416803b15620007e3578492836064926040519687958694631b0c0ad160e21b8652166004850152602435602485015260448401525af180156200045957620004435750f35b60405162461bcd60e51b815260206004820152601560248201527414de5cdd195b481b5d5cdd081899481c185d5cd959605a1b6044820152606490fd5b90503462000ce1578160031936011262000ce1576101409060018060a01b03908160035416918060045416918160055416908260065416836007541684600a54169085600b54169286600c54169587600d54169760115416986040519a8b5260208b015260408a01526060890152608088015260a087015260c0860152840152610100830152610120820152f35b8234620004565760031960803682011262000ce15781600435916001600160401b039283811162000cf057620017379036906004016200381f565b602435848111620007d457620017529036906004016200381f565b91604435858111620007e3576200176e9036906004016200381f565b94606435908111620007e3576200178a9036906004016200381f565b600254604051633e8dc9cf60e21b81526001600160a01b039187908290600490829086165afa8015620018d557620017ce918891620018b057506200035762003afb565b620017e060ff875460a01c1662003b26565b620017f360ff60115460a01c1662003b73565b6007541692833b1562001454576200186c6200183a9387936200185c6200184b9a6040519b8c9a8b998a986349f2a52b60e11b8a52608060048b015260848a0190620038d6565b90868983030160248a0152620038d6565b9084878303016044880152620038d6565b91848303016064850152620038d6565b03925af18015620004595762001898575b6200188a60145462003bb4565b601455602060405160018152f35b620018a4829162003795565b6200045657806200187d565b620018c791503d808a833e620007fe8183620037e1565b505050505050508a6200034c565b6040513d89823e3d90fd5b823462000456578060031936011262000456576009546040516001600160a01b039091168152602090f35b82346200045657602036600319011262000456576004356001600160401b03811162000ce157620019419036906004016200381f565b815482906001600160a01b0390620019689082166200195f620038fd565b90331462003924565b6011805460ff60a01b1916905560025416803b1562000ce157818091600460405180948193630775ef0f60e01b83525af180156200045957620019ee575b507ff3ab02e27e493b90ce06184d5a193758ddf3218a1a7170cf71528ba0f8664925620019e283604051918291604083526040830190620038d6565b3360208301520390a180f35b620019f99062003795565b62000ce1578183620019a6565b823462000456578060031936011262000456576004546040516001600160a01b039091168152602090f35b8234620004565760203660031901126200045657600254604051633e8dc9cf60e21b81526001600160a01b039183908290600490829086165afa801562000ce55762001a8991849162001b9857506200035762003afb565b62001a9b60ff835460a01c1662003b26565b60ff60175460081c161562001b5a57819062001abf60ff60115460a01c1662003b73565b80600e5416803b1562001b5657828091602460405180948193630f574ba760e01b835260043560048401525af190811562000ce557839162001b3e575b505060075416803b15620010d957818091604460405180948193639247db6360e01b8352336004840152606460248401525af180156200045957620004435750f35b62001b499062003795565b620010d957818462001afc565b5050fd5b60405162461bcd60e51b815260206004820152601660248201527514dd589cd8dc9a5c1d1a5bdb9cc8191a5cd8589b195960521b6044820152606490fd5b62001baf91503d8086833e620007fe8183620037e1565b50505050505050846200034c565b823462000456578060031936011262000456576010546040516001600160a01b039091168152602090f35b823462000456578060031936011262000456576011546040516001600160a01b039091168152602090f35b823462000456578060031936011262000456575460025460015460a0926001600160a01b039283169160ff919062001c4a62003a2f565b93604051958316865260208601526040850152841c161515606083015215156080820152f35b82346200045657806003193601126200045657602062001c8f62003a2f565b6040519015158152f35b823462000456576020366003190112620004565762001cb76200386c565b8154906001600160a01b038083169162001cdd62001cd4620038fd565b84331462003924565b62001ce88162003c48565b1680926bffffffffffffffffffffffff60a01b161783557f7e644d79422f17c01e4894b5f4f588d331ebfa28653d42ae832dc59e38c9798f8380a380f35b82346200045657602090816003193601126200045657600254604051633e8dc9cf60e21b815260048035926001600160a01b0392918591839190829086165afa90811562000815579062001d869185916200149857506200035762003afb565b62001d9860ff845460a01c1662003b26565b60ff60175460181c161562001e755782809462001dbd60ff60115460a01c1662003b73565b8083600a5416606485600b541660405195869384926323b872dd60e01b845233600485015260248401528960448401525af18015620007d85762001e39575b5050600b541690813b1562001b5657829160248392604051948593849263534a7e1d60e11b845260048401525af180156200045957620004435750f35b81813d831162001e6d575b62001e508183620037e1565b81010312620004645762001e649062003957565b50848062001dfc565b503d62001e44565b60405162461bcd60e51b815260048101859052601060248201526f14dd185ada5b99c8191a5cd8589b195960821b6044820152606490fd5b823462000456576060366003190112620004565762001ecb6200386c565b6024359062001ed96200389a565b83546001600160a01b039062001ef790821633146200109f620038fd565b62001f0162003a2f565b1562001fec57849281811662001f3957508293839283928391831562001f2e575b1690f115620013325780f35b6108fc925062001f22565b60405163a9059cbb60e01b602082019081526001600160a01b0394909416602482015260448082019690965294855262001fe3948493919250839062001f81606482620037e1565b51925af13d1562001fe6573d62001f988162003803565b9062001fa86040519283620037e1565b81528360203d92013e5b6040519062001fc182620037c5565b600f82526e151c985b9cd9995c8819985a5b1959608a1b602083015262003924565b80f35b62001fb2565b60405162461bcd60e51b815260206004820152601160248201527014de5cdd195b481b9bdd081c185d5cd959607a1b6044820152606490fd5b90503462000ce1578160031936011262000ce157610160916200204762003ab9565b5060ff8060115460a01c16806000146200212f57620020696016544262003aed565b925b60018060a01b0390541693600154916016546040516200208b81620037a9565b60175496868816151582526020820192878960081c16151584526040830194888a60101c16151586526060840197898b60181c16151589526080850199808c60201c1615158b5260a086019b60281c1615158b526040519b8c5260208c0152151560408b015260608a0152608089015251151560a088015251151560c087015251151590850152511515610100840152511515610120830152511515610140820152f35b826200206b565b82346200045657806003193601126200045657600b546040516001600160a01b039091168152602090f35b82346200045657806003193601126200045657600c546040516001600160a01b039091168152602090f35b823462000456578060031936011262000456576020601554604051908152f35b82346200045657604036600319011262000456578060206200220c620021d16200386c565b600254604051635d65ad6760e01b81526001600160a01b03928316600482015260248035908201529586939190921691839182906044820190565b03925af19081156200133257906200222a575b602090604051908152f35b506020813d821162002259575b816200224660209383620037e1565b810103126200094657602090516200221f565b3d915062002237565b823462000456578060031936011262000456576007546040516001600160a01b039091168152602090f35b823462000456578060031936011262000456576020600154604051908152f35b823462000456578060031936011262000456576020601654604051908152f35b8234620004565760803660031901126200045657620022eb6200386c565b90620022f662003883565b50620023016200389a565b506001600160a01b039160643583811603620009465781546200233262002327620038fd565b858316331462003924565b60ff8160a01c16620029fd57836bffffffffffffffffffffffff60a01b9216826002541617600255600160a01b908160ff60a01b1991823316906affffffffffffffffffffff60a81b16171784556001808055604051933385527f290a9d1bd9a992a26d178f5f8d2514edd099295c4ce6340dc3b7f441530cf3e860406020968488820152a160405196611724978881016001600160401b03998282108b831117620029e9579082916201435c8339039088f08015620018d5578116826007541617600755604051611210808201908282108b831117620029e95790829162006a9e8339039088f08015620018d5578116826003541617600355604051610af4808201908282108b831117620029e957908291620109c48339039088f0918215620018d55781600a9316818454161783558160035416604051906111cc90818301918383108d841117620029a2579183918b9362007cae8439815203019089f08015620029b6578216600454818382161760045560405191610b1d91828401928d85851090851117620029d557918c8c9492869462004d1086391617815203019089f08015620029b6578216816005541617600555604051611271808201908282108c831117620029c1579082916200582d8339039089f08015620029b6578216816006541617600655604051611085808201908282108c831117620029c15790829162003c8b8339039089f08015620029b6578216816008541617600855604051610ef9808201908282108c831117620029c157908291620127ad8339039089f08015620029b65782168160095416176009558183541660405190610cb6808301908382108d831117620029a2579180620025ca928594620136a686396001600160a01b0391821681529116602082015260400190565b039089f08015620029b657821681600b541617600b5581835416604051906112f590818301918383108d841117620029a2579183918b93620114b88439815203019089f08015620029b657821681600c541617600c55604051611edc808201908282108c831117620029c15790829162009d7b8339039089f08015620029b657821681600d541617600d558183541660405190611d4d90818301918383108d841117620029a2579183918b936200ec778439815203019089f08015620029b657821681600e541617600e55818354166040519061147690818301918383108d841117620029a2579183918b936200d8018439815203019089f08015620029b657821681600f541617600f55604051611baa808201908282108c831117620029c1579082916200bc578339039089f08015620029b657821681601054161760105581600354169882600454169960405191610f018084019184831090831117620029a2579b83926200275c928d9e9d9a9b9c9d62008e7a86396001600160a01b0391821681529116602082015260400190565b039086f08015620007d85782169060115416176011558082541691823b15620007e357604051926340c10f1960e01b9384815286816044818373742d35cc6634c0532925a3b8dc9f5a6f6e8c6f5e968760048401526a211654585005212800000060248401525af1908115620018d55787916200298a575b505082825416803b1562001458578680916044604051809481938a83528760048401526a108b2a2c2802909400000060248401525af1908115620018d557879162002972575b50508282541690813b15620014585786916044839260405194859384928a845260048401526a084595161401484a00000060248401525af1908115620013725786916200295a575b5050541690813b15620007d457839160448392604051948593849283523060048401526a18d0bf423c03d8de00000060248401525af190811562000ce557839162002942575b505060a090620028b762003ab9565b5060405190620028c782620037a9565b80825280878301528060408301528060608301526080820152015264010101010160175465ff000000000086151560281b169065ffffffffffff191617176017556011541617601155426016557f43863104038d02bfbf63a2b2c6aa5184d05e0a2f9af9a6aeec38009aab662c78604051914283523392a280f35b6200294d9062003795565b62000ce1578187620028a8565b620029659062003795565b620007e357848a62002862565b6200297d9062003795565b6200145457858b6200281a565b620029959062003795565b6200145457858b620027d4565b634e487b7160e01b8c52604160045260248cfd5b6040513d8a823e3d90fd5b634e487b7160e01b8b52604160045260248bfd5b634e487b7160e01b8d52604160045260248dfd5b634e487b7160e01b8a52604160045260248afd5b60405162461bcd60e51b815260206004820152601a60248201527f53797374656d20616c726561647920696e697469616c697a65640000000000006044820152606490fd5b82346200045657806003193601126200045657600254604051633e8dc9cf60e21b815291908190839060049082906001600160a01b03165afa801562002b055781809381809362002acb575b50509062002aa162002ac7928562003a95565b6040519485941515855260208501526040840152608060608401526080830190620038d6565b0390f35b90915062002ac7945062002aa1935062002af192503d8091833e620007fe8183620037e1565b509450969491509491509394919262002a8e565b50604051903d90823e3d90fd5b823462000456578060031936011262000456578060018060a01b0362002b418183541633146200109f620038fd565b60025416803b15620010d95781809160e4604051809481936334cc128960e21b835260016004840152600160248401526001604484015262278d00606484015260a06084840152600b60a48401526a41646d696e20706175736560a81b60c48401525af180156200045957620004435750f35b82346200045657602036600319011262000456577f730abf329076f769aacddade69fbe7ca672a3c95fc1b7728ecf7b8f8cb705ed0604060043562002c0860018060a01b0385541633146200109f620038fd565b600154908060015582519182526020820152a180f35b82346200045657602036600319011262000456577f62fb284f5d1a9d326f25d6900267a8cb39113f8484b351a73c1ada4014c6686462002c5d6200386c565b82546001600160a01b03919062002c7c90831633146200109f620038fd565b62002c878162003c48565b600280548284166001600160a01b031982161790915560408051939091166001600160a01b0390811684529091166020830152819081015b0390a180f35b82346200045657806003193601126200045657602060ff60115460a01c166040519015158152f35b823462000456578060031936011262000456576020601354604051908152f35b8234620004565780600319360112620004565760c06017546040519060ff9081811615158352818160081c1615156020840152818160101c1615156040840152818160181c1615156060840152818160201c161515608084015260281c16151560a0820152f35b823462000456578060031936011262000456576002546040516001600160a01b039091168152602090f35b823462000456578060031936011262000456576003546040516001600160a01b039091168152602090f35b82346200045657604036600319011262000456576004356001600160401b03811162000ce15762002e009036906004016200381f565b60243580151580910362000cf0577f43a0148be74197659be43bacdac4e492c6e55291225e29fd4f098868ff304fc19162002efa9162002e4f60018060a01b0386541633146200109f620038fd565b6040519062002e5e82620037c5565b600b8252602091828101906a6d61726b6574706c61636560a81b82526040519184830186519362002ea98782818b019762002e9b81878b620038b1565b8101038084520182620037e1565b5190209162002ecb86604051809362002e9b83830196879251928391620038b1565b5190200362002f04575060ff196017541660ff8216176017555b604051938493604085526040850190620038d6565b918301520390a180f35b60405162002f1281620037c5565b600d81528381016c737562736372697074696f6e7360981b81526040518581019062002f4887828a5162002e9b81878b620038b1565b5190209162002f6a86604051809362002e9b83830196879251928391620038b1565b5190200362002f90575060175461ff008260081b169061ff001916176017555b62002ee5565b60405162002f9e81620037c5565b6009815283810168696e737572616e636560b81b81526040518581019062002fd087828a5162002e9b81878b620038b1565b5190209162002ff286604051809362002e9b83830196879251928391620038b1565b5190200362003019575060175462ff00008260101b169062ff000019161760175562002ee5565b6040516200302781620037c5565b60078152838101667374616b696e6760c81b8152604051858101906200305787828a5162002e9b81878b620038b1565b519020916200307986604051809362002e9b83830196879251928391620038b1565b51902003620030a2575060175463ff0000008260181b169063ff00000019161760175562002ee5565b604051620030b081620037c5565b6009815283810168726566657272616c7360b81b815260405185810190620030e287828a5162002e9b81878b620038b1565b519020916200310486604051809362002e9b83830196879251928391620038b1565b519020036200312d57506017805464ff00000000191682841b64ff000000001617905562002ee5565b604051906200313c82620037c5565b600a825262002e9b848301916931b937b9b9b1b430b4b760b11b8352620031738660405180938282019586918c51928391620038b1565b519020916200319585604051809362002e9b83830196879251928391620038b1565b5190200362002f8a5760175465ff00000000008260281b169065ff000000000019161760175562002ee5565b8234620004565780600319360112620004565760ff6020915460a01c166040519015158152f35b823462000456578060031936011262000456578060018060a01b03620032178183541633146200109f620038fd565b6011805460ff60a01b1916600160a01b17905560025416803b15620010d95781809160046040518094819363157c51d360e01b83525af180156200045957620004435750f35b82346200045657604036600319011262000456576004356024356001600160401b03811162000cf057620032969036906004016200381f565b620032b060018060a01b0384541633146200109f620038fd565b600154821115620032ff57817fbb39107f2d494b1da653c1f383620fe84ef10d7ac5ca16bb5a6a3e844699d5609260015562002cbf6040519283928352604060208401526040830190620038d6565b60405162461bcd60e51b815260206004820152601560248201527456657273696f6e206d75737420696e63726561736560581b6044820152606490fd5b8234620004565760031960803682011262000ce1576001600160401b039160043583811162000ce157620033759036906004016200381f565b926024803590604435838111620007e357620033969036906004016200381f565b92606435908111620007e357620033b29036906004016200381f565b600254604051633e8dc9cf60e21b815291966001600160a01b0392909187908290600490829087165afa908115620018d55790620033fc918891620018b057506200035762003afb565b6200340e60ff875460a01c1662003b26565b6200342160ff60115460a01c1662003b73565b816007541697604051809963056720bf60e51b8252336004830152818660209c8d935afa908115620029b657889162003736575b5015620036fe5790889183600354169088604051809b8195829463017e5acd60e31b84526004840160809052608484016200349091620038d6565b8b8b85015281848203016044850152620034ab908d620038d6565b90838203016064840152620034c091620038d6565b03925af1958615620007d8578596620036c9575b5060ff60175460081c1662003675575b60ff601754881c166200357c575b620034ff60125462003bb4565b6012556011541691823b15620007e357916060856200354395938195604051978896879586946358206d7760e11b86523360048701528501526064840190620038d6565b90604483015203925af18015620004595762003564575b5050604051908152f35b62003570829162003795565b6200045657806200355a565b600f54604051631852e8d960e01b8152336004820152602481018590529082168882604481845afa918215620018d557918991889384926200363a575b5081620035cb575b50505050620034f2565b6040516307b22ee360e21b815233600482015260248101929092529092839160449183915af1801562001372579088916200360b575b90818792620035c1565b813d831162003632575b620036218183620037e1565b810103126200094657868862003601565b503d62003615565b92839194508092503d83116200366d575b620036578183620037e1565b8101031262000946578691899151908b620035b9565b503d6200364b565b80600e5416803b156200145457858091846040518094819363ec817e0d60e01b83523360048401525af180156200137257620036b3575b50620034e4565b620036c19095919562003795565b9387620036ac565b9095508681813d8311620036f6575b620036e48183620037e1565b81010312620007e357519487620034d4565b503d620036d8565b60405162461bcd60e51b8152600481018a905260118186015270155cd95c881b9bdd081d995c9a599a5959607a1b6044820152606490fd5b90508981813d83116200376f575b620037508183620037e1565b810103126200376b57620037649062003957565b8a62003455565b8780fd5b503d62003744565b83903462000ce1578160031936011262000ce1576020906012548152f35b6001600160401b0381116200133e57604052565b60c081019081106001600160401b038211176200133e57604052565b604081019081106001600160401b038211176200133e57604052565b90601f801991011681019081106001600160401b038211176200133e57604052565b6001600160401b0381116200133e57601f01601f191660200190565b81601f820112156200094657803590620038398262003803565b92620038496040519485620037e1565b828452602083830101116200094657816000926020809301838601378301015290565b600435906001600160a01b03821682036200094657565b602435906001600160a01b03821682036200094657565b604435906001600160a01b03821682036200094657565b60005b838110620038c55750506000910152565b8181015183820152602001620038b4565b90602091620038f181518092818552858086019101620038b1565b601f01601f1916010190565b604051906200390c82620037c5565b60098252682737ba1030b236b4b760b91b6020830152565b156200392d5750565b60405162461bcd60e51b81526020600482015290819062003953906024830190620038d6565b0390fd5b519081151582036200094657565b81601f82011215620009465780516200397e8162003803565b926200398e6040519485620037e1565b818452602082840101116200094657620039af9160208085019101620038b1565b90565b9190610100838203126200094657620039cb8362003957565b92620039da6020820162003957565b92620039e96040830162003957565b92620039f86060840162003957565b9260808101519260a08201519260c08301516001600160401b038111620009465760e09162003a2991850162003965565b92015190565b600254604051633e8dc9cf60e21b815290600090829060049082906001600160a01b03165afa90811562003a895760009162003a69575090565b62003a7f913d8091833e620007fe8183620037e1565b5050505050505090565b6040513d6000823e3d90fd5b9190820180921162003aa357565b634e487b7160e01b600052601160045260246000fd5b6040519062003ac882620037a9565b8160a06000918281528260208201528260408201528260608201528260808201520152565b9190820391821162003aa357565b6040519062003b0a82620037c5565b600d82526c14de5cdd195b481c185d5cd959609a1b6020830152565b1562003b2e57565b60405162461bcd60e51b815260206004820152601860248201527f436f6e7472616374206e6f7420696e697469616c697a656400000000000000006044820152606490fd5b1562003b7b57565b60405162461bcd60e51b815260206004820152601160248201527053797374656d206e6f742061637469766560781b6044820152606490fd5b600019811462003aa35760010190565b906020908183820312620009465782516001600160401b039384821162000946570181601f82011215620009465780519384116200133e578360051b906040519462003c1385840187620037e1565b8552838086019282010192831162000946578301905b82821062003c38575050505090565b8151815290830190830162003c29565b60405162003c889162003c5b82620037c5565b600f82526e496e76616c6964206164647265737360881b60208301526001600160a01b0316151562003924565b56fe60808060405234610040573360018060a01b031960035416176003553360005260016020526040600020600160ff1982541617905561103f90816100468239f35b600080fdfe6080604052600436101561001257600080fd5b60003560e01c806301fabd7514610c6d57806303a09d1814610b2d5780630db3993414610b0f578063345565dc146106b257806351d0ea3714610673578063564a565d14610578578063973ad27014610503578063bfb0a55b146103dc578063d077a4f814610289578063df02935c146101a8578063e0338b63146100ce5763f851a440146100a057600080fd5b346100c95760003660031901126100c9576003546040516001600160a01b039091168152602090f35b600080fd5b346100c95760203660031901126100c95760043533600052600160205260ff604060002054168015610194575b61010490610f20565b80600052600060205260ff60056040600020015416600481101561017e576101465760005260006020526005604060002001600160ff19825416179055600080f35b60405162461bcd60e51b815260206004820152601060248201526f2234b9b83aba32903737ba1037b832b760811b6044820152606490fd5b634e487b7160e01b600052602160045260246000fd5b506003546001600160a01b031633146100fb565b346100c9576020806003193601126100c957600435600081815280835260409020600101549091906001600160a01b0316330361025057816000526000815260ff60056040600020015416600481101561017e5761021c57600091825281905260409020600501805460ff19166003179055005b6064906040519062461bcd60e51b82526004820152600d60248201526c10d85b9b9bdd0818d85b98d95b609a1b6044820152fd5b6064906040519062461bcd60e51b8252600482015260126024820152712737ba103234b9b83aba32903930b4b9b2b960711b6044820152fd5b346100c95760803660031901126100c95760043560243560038110156100c9573360005260206001815260ff6040600020541680156103c8575b6102cc90610f20565b826000526000815260ff60056040600020015416600481101561017e57600103610384577fd479d35c2c3aee3d59f9972a1214f8effa0c54c4f8ff4dcf020913c0a5e27c629160409184600052600081526103388260058560002001600260ff19825416178155610f01565b84600052600081528260002042600782015560088101336001600160601b0360a01b8254161790556044356009820155600a60643591015561037c83518093610ecf565b3390820152a2005b6064906040519062461bcd60e51b82526004820152601760248201527f44697370757465206e6f7420696e2070726f67726573730000000000000000006044820152fd5b506003546001600160a01b031633146102c3565b346100c9576020806003193601126100c9576103f6610ce5565b600280546001600160a01b0393909290919084166000805b8581106104a7575061041f90610fad565b9460009360005b86811061043f576040518061043b8a82610cfb565b0390f35b80600052600082526040600020848487828260018601541614938415610498575b50505050610477575b61047290610edc565b610426565b94610490818761048a610472948c610fdf565b52610edc565b959050610469565b0154161490508484878c610460565b806000526000855260406000208388868282600186015416149384156104f4575b505050506104df575b6104da90610edc565b61040e565b906104ec6104da91610edc565b9190506104d1565b0154161490508388868b6104c8565b346100c95760203660031901126100c9577f715484adb5bc9cc29af577725dbf8486d0b82eca3ba79f65846e92ff38ef32b5602061053f610ce5565b6003546001600160a01b0391906105599083163314610f5d565b168060005260018252604060002060ff198154169055604051908152a1005b346100c95760203660031901126100c9576004356000526000602052604060002080549060018060a01b038060018301541681600284015416926105be60038201610de9565b936105cb60048301610de9565b9360058301549561062d60ff88169661061f60068701549360078801549560088901541696600a60098a01549901549960206040519e8f908152015260408d015260608c61018091829101528c0190610e8f565b908a820360808c0152610e8f565b95600481101561017e5788976106529160a08a015260ff60c08a019160081c16610ecf565b60e08701526101008601526101208501526101408401526101608301520390f35b346100c95760203660031901126100c9576001600160a01b03610694610ce5565b166000526001602052602060ff604060002054166040519015158152f35b346100c95760803660031901126100c9576024356001600160a01b03811681036100c95760443567ffffffffffffffff81116100c9576106f6903690600401610d58565b9060643567ffffffffffffffff81116100c957610717903690600401610d58565b6002549261072484610edc565b60025560405192610180840184811067ffffffffffffffff821117610a3857604052600435845233602085015260018060a01b0316604084015260608301526080820152600060a0820152600260c08201524260e082015260006101008201526000610120820152600061014082015260006101608201528160005260006020526040600020908051825560018060a01b036020820151166001600160601b0360a01b6001840154161760018301556002820160018060a01b036040830151166001600160601b0360a01b825416179055606081015192835167ffffffffffffffff8111610a38576108196003850154610daf565b601f8111610ac8575b506020601f8211600114610a59578192939495600092610a4e575b50508160011b916000199060031b1c19161760038401555b608082015192835167ffffffffffffffff8111610a38576108796004830154610daf565b601f81116109f1575b506020601f8211600114610982578192939495600092610977575b50508160011b916000199060031b1c19161760048201555b60a0830151600481101561017e5760ff8019600584015416911617600582015560c083015192600384101561017e57610160600a916108f960209660058601610f01565b60e0810151600685015561010081015160078501556008840160018060a01b03610120830151166001600160601b0360a01b82541617905561014081015160098501550151910155604051338152817f83201991c75b30e493678d0543bdbd02d6a194a5a0dda31490a5fe09e9f0a2208460043593a3604051908152f35b01519050858061089d565b6004830160005260206000209060005b601f19841681106109d9575060019394959683601f198116106109c0575b505050811b0160048201556108b5565b015160001960f88460031b161c191690558580806109b0565b9091602060018192858b015181550193019101610992565b600483016000526020600020601f830160051c810160208410610a31575b601f830160051c82018110610a25575050610882565b60008155600101610a0f565b5080610a0f565b634e487b7160e01b600052604160045260246000fd5b01519050858061083d565b6003850160005260206000209060005b601f1984168110610ab0575060019394959683601f19811610610a97575b505050811b016003840155610855565b015160001960f88460031b161c19169055858080610a87565b9091602060018192858b015181550193019101610a69565b600385016000526020600020601f830160051c810160208410610b08575b601f830160051c82018110610afc575050610822565b60008155600101610ae6565b5080610ae6565b346100c95760003660031901126100c9576020600254604051908152f35b346100c95760003660031901126100c9576002546000805b828110610bf25750610b5690610fad565b60009160005b818110610b71576040518061043b8582610cfb565b8060005260206000815260ff600581816040600020015416600481101561017e5715928315610bcc575b505050610bb1575b610bac90610edc565b610b5c565b92610bc4818561048a610bac9487610fdf565b939050610ba3565b600091929350848252526040600020015416600481101561017e57600114858080610b9b565b8060005260206000815260ff600581816040600020015416600481101561017e5715928315610c47575b505050610c32575b610c2d90610edc565b610b45565b90610c3f610c2d91610edc565b919050610c24565b600091929350848252526040600020015416600481101561017e57600114848080610c1c565b346100c95760203660031901126100c9577ffc4dfef69004b5e3aba1eb4a8b1e53b893418fda232d9f60574a6c62f30c449d6020610ca9610ce5565b6003546001600160a01b039190610cc39083163314610f5d565b1680600052600182526040600020600160ff19825416179055604051908152a1005b600435906001600160a01b03821682036100c957565b6020908160408183019282815285518094520193019160005b828110610d22575050505090565b835185529381019392810192600101610d14565b90601f8019910116810190811067ffffffffffffffff821117610a3857604052565b81601f820112156100c95780359067ffffffffffffffff8211610a385760405192610d8d601f8401601f191660200185610d36565b828452602083830101116100c957816000926020809301838601378301015290565b90600182811c92168015610ddf575b6020831014610dc957565b634e487b7160e01b600052602260045260246000fd5b91607f1691610dbe565b9060405191826000825492610dfd84610daf565b908184526001948581169081600014610e6c5750600114610e29575b5050610e2792500383610d36565b565b9093915060005260209081600020936000915b818310610e54575050610e2793508201013880610e19565b85548884018501529485019487945091830191610e3c565b915050610e2794506020925060ff191682840152151560051b8201013880610e19565b919082519283825260005b848110610ebb575050826000602080949584010152601f8019910116010190565b602081830181015184830182015201610e9a565b90600382101561017e5752565b6000198114610eeb5760010190565b634e487b7160e01b600052601160045260246000fd5b90600381101561017e5761ff0082549160081b169061ff001916179055565b15610f2757565b60405162461bcd60e51b815260206004820152600e60248201526d2737ba1030b93134ba3930ba37b960911b6044820152606490fd5b15610f6457565b60405162461bcd60e51b81526020600482015260096024820152682737ba1030b236b4b760b91b6044820152606490fd5b67ffffffffffffffff8111610a385760051b60200190565b90610fb782610f95565b610fc46040519182610d36565b8281528092610fd5601f1991610f95565b0190602036910137565b8051821015610ff35760209160051b010190565b634e487b7160e01b600052603260045260246000fdfea2646970667358221220ff6404c9e7efb9df128722ee9da73bac17b8a4618ec36a64da47622688ae6b8464736f6c6343000813003360803461007457601f610b1d38819003918201601f19168301916001600160401b038311848410176100795780849260209460405283398101031261007457516001600160a01b0381169081900361007457600280546001600160a01b031916919091179055604051610a8d90816100908239f35b600080fd5b634e487b7160e01b600052604160045260246000fdfe608080604052600436101561001357600080fd5b60003560e01c908163012f52ee146108b657508063356008a51461079a5780636374b11b14610716578063886e1044146106ed57806389cb29dd146106cf5780639c17e43914610559578063a5c1674e14610486578063a67185161461023c5763ed6531641461008257600080fd5b346102375760208060031936011261023757600435806000526000825260406000209060058201926100c760ff85546100bd828216156109da565b60081c1615610a19565b600483015442106101fc5782546001600160a01b0390811693338590036101b757600381015460028201805460405163a9059cbb60e01b81526001600160a01b039890981660048901526024880152969495949084908690604490829060009088165af19485156101ab577f6244ed823ca6be0f11bc890c3fafcf3c29cb23420c14243642e930b5e07e6d0a956101669160009161017e575b5061099c565b600160ff1982541617905554169354604051908152a3005b61019e9150863d88116101a4575b6101968183610962565b810190610984565b38610160565b503d61018c565b6040513d6000823e3d90fd5b60405162461bcd60e51b815260048101849052601960248201527f4f6e6c79206c616e646c6f72642063616e2072656c65617365000000000000006044820152606490fd5b6064906040519062461bcd60e51b825260048201526014602482015273546f6f206561726c7920746f2072656c6561736560601b6044820152fd5b600080fd5b346102375760a036600319011261023757610255610936565b61025d61094c565b606435916001600160a01b03831683036102375760443515610450576040516323b872dd60e01b8152336004820152306024820152604480359082015260208160648160006001600160a01b0389165af180156101ab576102c591600091610431575061099c565b60015491600019831461041b57600183016001556084354201421161041b5760405160e081019481861067ffffffffffffffff8711176104055760409586526001600160a01b039384168083529284166020808401828152604435858a0181815294881660608701908152608435420160808801908152600060a0890181815260c08a018281528d8352828852918e902099518a54908d166001600160a01b0319918216178b55955160018b018054918e16918816919091179055975160028a0155915160038901805491909b1694169390931790985590516004860155925160059094018054965161ff0090151560081b1694151560ff1661ffff19909716969096179390931790945594519485529383907f9405ad0a6208539879349284d71265479b1623846f70303da1f9890d6e8c10a7908690a4604051908152f35b634e487b7160e01b600052604160045260246000fd5b634e487b7160e01b600052601160045260246000fd5b61044a915060203d6020116101a4576101968183610962565b85610160565b60405162461bcd60e51b815260206004820152600e60248201526d125b9d985b1a5908185b5bdd5b9d60921b6044820152606490fd5b3461023757602036600319011261023757600435806000526000602052604060002060058101908154906104bd60ff8316156109da565b8054336001600160a01b0391821614918215610548575b50501561050d5761ff0019166101001790557f7ce7831fed9a800b1aa5e7ca21034bf7b95efc31a196459012cf8b8eb42b7dac600080a2005b60405162461bcd60e51b81526020600482015260136024820152724e6f7420706172747920746f20657363726f7760681b6044820152606490fd5b6001919250015416331484806104d4565b346102375760603660031901126102375760043561057561094c565b9060443591816000526020600081526040600020916005830192835460ff8160081c16156106965760ff6105aa9116156109da565b6002810154861161065f576003015460405163a9059cbb60e01b81526001600160a01b03838116600483015260248201889052909490929184908690604490829060009088165af19485156101ab577ff2986d88fbef6d847cabab14d6c2deed600a28c1330f7a5c25465898dc891d329561062c91600091610642575061099c565b805460ff191660011790556040519586521693a3005b6106599150863d88116101a4576101968183610962565b89610160565b60405162461bcd60e51b815260048101849052600f60248201526e082dadeeadce840e8dede40d0d2ced608b1b6044820152606490fd5b60405162461bcd60e51b8152600481018590526011602482015270139bc8191a5cdc1d5d19481c985a5cd959607a1b6044820152606490fd5b34610237576000366003190112610237576020600154604051908152f35b34610237576000366003190112610237576002546040516001600160a01b039091168152602090f35b3461023757602080600319360112610237576024816001600160a01b0361073b610936565b16604051928380926370a0823160e01b82523060048301525afa9081156101ab5760009161076d575b50604051908152f35b90508181813d8311610793575b6107848183610962565b81010312610237575182610764565b503d61077a565b346102375760208060031936011261023757600435806000526000825260406000209160058301926107d560ff85546100bd828216156109da565b80546001600160a01b039190821633036108715760038101546001820180546002909301805460405163a9059cbb60e01b81529486166001600160a01b03166004860152602485015296929493929091849086908516816000816044810103925af19485156101ab577f6244ed823ca6be0f11bc890c3fafcf3c29cb23420c14243642e930b5e07e6d0a9561016691600091610642575061099c565b60405162461bcd60e51b815260048101849052601860248201527f4f6e6c79206c616e646c6f72642063616e20726566756e6400000000000000006044820152606490fd5b346102375760203660031901126102375760e090600435600052600060205260ff604060002060018060a01b03908181541691806001830154169060028301549060038401541691600560048501549401549487526020870152604086015260608501526080840152818116151560a084015260081c16151560c0820152f35b600435906001600160a01b038216820361023757565b602435906001600160a01b038216820361023757565b90601f8019910116810190811067ffffffffffffffff82111761040557604052565b90816020910312610237575180151581036102375790565b156109a357565b60405162461bcd60e51b815260206004820152600f60248201526e151c985b9cd9995c8819985a5b1959608a1b6044820152606490fd5b156109e157565b60405162461bcd60e51b815260206004820152601060248201526f105b1c9958591e481c995b19585cd95960821b6044820152606490fd5b15610a2057565b60405162461bcd60e51b815260206004820152600f60248201526e115cd8dc9bddc8191a5cdc1d5d1959608a1b6044820152606490fdfea264697066735822122038f8572c47fcfe8a4eac0cb2e7d6790debb0d6d8d4772b5c062be8e507d381bb64736f6c634300081300336080806040523461002857600380546001600160a01b03191633179055611243908161002e8239f35b600080fdfe608080604052600436101561001357600080fd5b60003560e01c90816368c4ac2614610e9f57508063818645b114610a575780638709ad40146104b357806387d81789146103395780638da5cb5b146103105780639b22b920146102f25780639d7dadeb146101d1578063bd61f0a61461011b5763e79864661461008257600080fd5b346101165760403660031901126101165761009b610eda565b6024359081151591828103610116577fd86c88b4a367d9b81a6e00c9d3f7d01657bffef358fa8968c91c045ae99f0d529261010960409360018060a01b03906100e982600354163314611041565b1692836000526002602052846000209060ff801983541691151516179055565b82519182526020820152a1005b600080fd5b3461011657604036600319011261011657610134610eda565b6003546001600160a01b039160209161018b91908416610155338214611041565b60405163a9059cbb60e01b81526001600160a01b0390911660048201526024803590820152938492839160009183906044820190565b0393165af180156101c55761019c57005b6101bc9060203d81116101be575b6101b48183610f22565b810190611138565b005b503d6101aa565b6040513d6000823e3d90fd5b3461011657602080600319360112610116576101eb610eda565b600180546001600160a01b0393909290919084166000805b8581106102995750610214906111b3565b9460009360005b86811061023457604051806102308a82610fcc565b0390f35b8060005260008252604060002084848782828554161493841561028a575b50505050610269575b61026490611150565b61021b565b94610282818761027c610264948c6111f9565b52611150565b95905061025b565b0154161490508484878c610252565b806000526000855260406000208388868282855416149384156102e3575b505050506102ce575b6102c990611150565b610203565b906102db6102c991611150565b9190506102c0565b0154161490508388868b6102b7565b34610116576000366003190112610116576020600154604051908152f35b34610116576000366003190112610116576003546040516001600160a01b039091168152602090f35b34610116576020806003193601126101165760043560005260008152604060002060018060a01b0390818154169260019183838201541693600282015490600383015416906004830154926005810160405196879160009181549161039d83611007565b928386528a838216918260001461048d575050600114610449575b505050916103d460069260ff949b99989796959a9b0388610f22565b0154169560405197889687528487015260408601526060850152608084015260e060a08401528151918260e085015260005b83811061043157505050610100926000848385010152151560c0830152601f80199101168101030190f35b81810183015187820161010001528694508201610406565b89935060009291925282600020916000925b828410610473575050508201016103d48260ff6103b8565b849295829585835492010152019101909288928a9461045b565b60ff19168782015293151560051b860190930193506103d4925084915060ff90506103b8565b346101165760803660031901126101165760043567ffffffffffffffff8111610116576104e4903690600401610f9b565b602490813567ffffffffffffffff811161011657610506903690600401610f9b565b9390610510610ef0565b9260643567ffffffffffffffff811161011657610531903690600401610f44565b92868203610a23576001600160a01b03851660009081526002602052604090205461055e9060ff16611079565b6000805b8881106109e957506040516323b872dd60e01b8152336004820152306024820152604481019190915260208160648160006001600160a01b038b165af19081156101c5576000916109ca575b501561098f576105bd826111b3565b9560005b8381106105d657604051806102308a82610fcc565b6105ec6105e4828b88611175565b3515156110bb565b6106126001600160a01b0361060a610605848888611175565b6111e5565b1615156110f8565b60015461061e81611150565b60015561062f610605838787611175565b61063a838c89611175565b35906040519061064982610f06565b3382526001600160a01b03908116602080840191825260408085019586528d841660608601908152426080870190815260a087018f8152600060c089018190528a81529485905292909320865181546001600160a01b03199081169188169190911782559451600182018054871691881691909117905596516002880155516003870180549094169416939093179091555160048401555180519067ffffffffffffffff821161097a576107006005850154611007565b601f8111610933575b50602090601f83116001146108ba57928260069360c09361075c97966000926108af575b50508160011b916000199060031b1c19161760058501555b0151151591019060ff801983541691151516179055565b6107aa60208b61077b85610774610605828c8c611175565b928b611175565b60405163a9059cbb60e01b81526001600160a01b03909216600483015235602482015291829081906044820190565b038160006001600160a01b038e165af19081156101c557600091610890575b501561085a5790816108559260005260006020526006604060002001600160ff19825416179055806107fb838c6111f9565b5261080a610605838888611175565b610815838d8a611175565b604051903581526001600160a01b039091169133917f37a13dcf7266fe3681e46ca252ea4f79e8a76da88ae9446f99242fbc014a6c3990602090a4611150565b6105c1565b60405162461bcd60e51b815260206004820152600f818501526e151c985b9cd9995c8819985a5b1959608a1b6044820152606490fd5b6108a9915060203d6020116101be576101b48183610f22565b8b6107c9565b01519050388061072d565b906005850160005260206000209160005b601f198516811061091b57508360c09361075c979693600193600697601f19811610610902575b505050811b016005850155610745565b015160001960f88460031b161c191690553880806108f2565b919260206001819286850151815501940192016108cb565b600585016000526020600020601f840160051c810160208510610973575b601f830160051c82018110610967575050610709565b60008155600101610951565b5080610951565b86634e487b7160e01b60005260416004526000fd5b60405162461bcd60e51b8152602060048201526014818801527310985d18da081c185e5b595b9d0819985a5b195960621b6044820152606490fd5b6109e3915060203d6020116101be576101b48183610f22565b886105ae565b906109f5828a87611175565b358101809111610a0e57610a099091611150565b610562565b87634e487b7160e01b60005260116004526000fd5b60405162461bcd60e51b815260206004820152600d818801526c125b9d985b1a59081a5b9c1d5d609a1b6044820152606490fd5b3461011657608036600319011261011657610a70610eda565b610a78610ef0565b60643567ffffffffffffffff811161011657610a98903690600401610f44565b9060018060a01b0381166000526002602052610abb60ff60406000205416611079565b610ac860243515156110bb565b610adc6001600160a01b03841615156110f8565b6040516323b872dd60e01b81523360048201523060248083019190915235604482015260208160648160006001600160a01b0387165af19081156101c557600091610e80575b5015610e4a5760015491610b3583611150565b60015560405190610b4582610f06565b3382526001600160a01b038581166020808501918252602435604080870191825287851660608801908152426080890190815260a08901978852600060c08a018190528b81529485905291909320875181546001600160a01b031990811691881691909117825594516001820180548716918816919091179055915160028301559151600382018054909416941693909317909155516004820155905180519192919067ffffffffffffffff8211610e3457610c046005850154611007565b601f8111610ded575b50602090601f8311600114610d7757928260069360c093610c5e9796600092610d6c5750508160011b916000199060031b1c19161760058501550151151591019060ff801983541691151516179055565b60405163a9059cbb60e01b81526001600160a01b0384811660048301526024803590830152909160209183916044918391600091165af19081156101c557600091610d4d575b5015610d085760209181600052600083526006604060002001600160ff1982541617905560405190602435825260018060a01b031690827f37a13dcf7266fe3681e46ca252ea4f79e8a76da88ae9446f99242fbc014a6c39853393a4604051908152f35b60405162461bcd60e51b815260206004820152601c60248201527f5472616e7366657220746f20726563697069656e74206661696c6564000000006044820152606490fd5b610d66915060203d6020116101be576101b48183610f22565b83610ca4565b015190508a8061072d565b90601f198316916005860160005260206000209260005b818110610dd557509360c093610c5e9796936001938360069810610dbc57505050811b016005850155610745565b015160001960f88460031b161c191690558a80806108f2565b92936020600181928786015181550195019301610d8e565b600585016000526020600020601f840160051c810160208510610e2d575b601f830160051c82018110610e21575050610c0d565b60008155600101610e0b565b5080610e0b565b634e487b7160e01b600052604160045260246000fd5b60405162461bcd60e51b815260206004820152600e60248201526d14185e5b595b9d0819985a5b195960921b6044820152606490fd5b610e99915060203d6020116101be576101b48183610f22565b84610b22565b34610116576020366003190112610116576020906001600160a01b03610ec3610eda565b166000526002825260ff6040600020541615158152f35b600435906001600160a01b038216820361011657565b604435906001600160a01b038216820361011657565b60e0810190811067ffffffffffffffff821117610e3457604052565b90601f8019910116810190811067ffffffffffffffff821117610e3457604052565b81601f820112156101165780359067ffffffffffffffff8211610e345760405192610f79601f8401601f191660200185610f22565b8284526020838301011161011657816000926020809301838601378301015290565b9181601f840112156101165782359167ffffffffffffffff8311610116576020808501948460051b01011161011657565b6020908160408183019282815285518094520193019160005b828110610ff3575050505090565b835185529381019392810192600101610fe5565b90600182811c92168015611037575b602083101461102157565b634e487b7160e01b600052602260045260246000fd5b91607f1691611016565b1561104857565b60405162461bcd60e51b81526020600482015260096024820152682737ba1037bbb732b960b91b6044820152606490fd5b1561108057565b60405162461bcd60e51b8152602060048201526013602482015272151bdad95b881b9bdd081cdd5c1c1bdc9d1959606a1b6044820152606490fd5b156110c257565b60405162461bcd60e51b815260206004820152600e60248201526d125b9d985b1a5908185b5bdd5b9d60921b6044820152606490fd5b156110ff57565b60405162461bcd60e51b8152602060048201526011602482015270125b9d985b1a59081c9958da5c1a595b9d607a1b6044820152606490fd5b90816020910312610116575180151581036101165790565b600019811461115f5760010190565b634e487b7160e01b600052601160045260246000fd5b91908110156111855760051b0190565b634e487b7160e01b600052603260045260246000fd5b67ffffffffffffffff8111610e345760051b60200190565b906111bd8261119b565b6111ca6040519182610f22565b82815280926111db601f199161119b565b0190602036910137565b356001600160a01b03811681036101165790565b80518210156111855760209160051b01019056fea2646970667358221220263a9215dc7a50f5d7f09afa02098d577f23001e432939250d929e0622c6f1cb64736f6c6343000813003360808060405234610016576111f4908161001c8239f35b600080fdfe6080604052600436101561001257600080fd5b60e0600035811c80630bf2d668146109f057806339500f34146109d25780637ca28bc61461095d5780638b8cc996146104c25780638f48bd5b1461046a578063a715f673146101c4578063cb644897146101325763f7b108081461007557600080fd5b3461012d57602036600319011261012d57600435600090815260208190526040902080546001600160a01b0316906100af60018201611090565b61011c600283015461010e6100c660038601611090565b916100d360048701611090565b926100fb600660ff60058a015416980154966040519a8b9a8b528060208c01528a0190611016565b9160408901528782036060890152611016565b908582036080870152611016565b91151560a084015260c08301520390f35b600080fd5b3461012d5760208060031936011261012d576001600160a01b03610154610f9e565b166000526001908181526040600020916040519081938491848254948581520191600052846000209060005b868682106101ae57859061019682870383610f27565b6101aa604051928284938452830190610fe2565b0390f35b8354855288955090930192918101918101610180565b503461012d57604036600319011261012d57602435906101e382611193565b6101f06040519182610f27565b828152601f198061020085611193565b0193602094368685013761021381611193565b946102216040519687610f27565b8186528261022e83611193565b018160005b82811061042657505050600092600435956002938454975b8881108061041d575b1561033f5780600052600085528960ff60058a82826040600020015416610288575b5050505061028390611136565b61024b565b8a6103339460068c8396899f968a8f989b6102a96102839d6103229a6111aa565b5260005260008852604060002092604051986102c48a610f0c565b84546001600160a01b03168a526102dd60018601611090565b908a015283015460408901526102f560038401611090565b606089015261030660048401611090565b608089015282015416151560a0870152015460c08501526111aa565b5261032d818d6111aa565b50611136565b9690508938808a610276565b84888b868661035960405194604086526040860190610fe2565b94848603818601528351918287528187019082808560051b8a01019601946000985b858a106103885788880389f35b909192939495968580828585600195030188528a5190848060a01b0382511681526103f46103e16103c4858501518b878601528b850190611016565b604085015160408501526060808601519085830390860152611016565b6080808501519084830390850152611016565b9160a08082015115159083015260c080910151910152990195019901989291909594939561037b565b50818710610254565b60405161043281610f0c565b60008152606080848301526000604083015280808301526080820152600060a0820152600060c082015282828b010152018290610233565b3461012d57604036600319011261012d57610483610f9e565b6001600160a01b031660009081526001602052604090208054602435919082101561012d576020916104b491610fb4565b90546040519160031b1c8152f35b3461012d5760a036600319011261012d576024356001600160401b03811161012d576104f2903690600401610f48565b6064356001600160401b03811161012d57610511903690600401610f48565b6084356001600160401b03811161012d57610530903690600401610f48565b90600435600052600060205261055460018060a01b0360406000205416331461115b565b600435600052600060205260ff6005604060002001541615610922576004356000526000602052600160406000200183516001600160401b0381116107905761059d8254611056565b601f81116108da575b50602094601f821160011461087457948192939495600092610869575b50508160011b916000199060031b1c19161790555b600435600052600060205260406000209060443560028301558051906001600160401b0382116107905761060f6003840154611056565b601f811161081e575b50602090601f83116001146107b15760039291600091836107a6575b50508160011b9160001990841b1c1916179101555b6004356000526000602052600460406000200181516001600160401b038111610790576106768254611056565b601f8111610748575b50602092601f82116001146106e457928192936000926106d9575b50508160011b916000199060031b1c19161790555b6004357f7ad43e2b215acc30fe68db10cbf57c6b2b699ef7572e54808c2a106fb904f3fb600080a2005b01519050838061069a565b601f198216938360005260206000209160005b8681106107305750836001959610610717575b505050811b0190556106af565b015160001960f88460031b161c1916905583808061070a565b919260206001819286850151815501940192016106f7565b826000526020600020601f830160051c81019160208410610786575b601f0160051c01905b81811061077a575061067f565b6000815560010161076d565b9091508190610764565b634e487b7160e01b600052604160045260246000fd5b015190508580610634565b90601f198316916003850160005260206000209260005b818110610806575091600193918560039694106107ee575b505050811b01910155610649565b015160001983861b60f8161c191690558580806107e0565b929360206001819287860151815501950193016107c8565b600384016000526020600020601f840160051c8101916020851061085f575b601f0160051c01905b8181106108535750610618565b60008155600101610846565b909150819061083d565b0151905085806105c3565b601f198216958360005260206000209160005b8881106108c2575083600195969798106108a9575b505050811b0190556105d8565b015160001960f88460031b161c1916905585808061089c565b91926020600181928685015181550194019201610887565b826000526020600020601f830160051c81019160208410610918575b601f0160051c01905b81811061090c57506105a6565b600081556001016108ff565b90915081906108f6565b60405162461bcd60e51b815260206004820152601360248201527250726f7065727479206e6f742061637469766560681b6044820152606490fd5b3461012d57602036600319011261012d5760043580600052600060205261099260018060a01b0360406000205416331461115b565b806000526000602052600560406000200160ff1981541690557f7bc5467b3abd536b298666c57448e8ec6a25e7929f01a0789e4ef525716f45e3600080a2005b3461012d57600036600319011261012d576020600254604051908152f35b3461012d57608036600319011261012d576004356001600160401b03811161012d57610a20903690600401610f48565b6044356001600160401b03811161012d57610a3f903690600401610f48565b6064356001600160401b03811161012d57610a5e903690600401610f48565b9060025491610a6c83611136565b60025560405190610a7c82610f0c565b3382526020820192858452602435604084015260608301526080820152600160a08201524260c082015282600052600060205260406000209160018060a01b038251166bffffffffffffffffffffffff60a01b845416178355518051906001600160401b038211610790578190610af66001860154611056565b601f8111610eb9575b50602090601f8311600114610e4c57600092610e41575b50508160011b916000199060031b1c19161760018301555b6040810151600283015560608101518051906001600160401b038211610790578190610b5d6003860154611056565b601f8111610dee575b50602090601f8311600114610d7c57600092610d71575b50508160011b916000199060031b1c19161760038301555b60808101518051906001600160401b03821161079057610bb86004850154611056565b601f8111610d2a575b50602090601f8311600114610cb75791806006949260c094600092610cac575b50508160011b916000199060031b1c19161760048501555b6005840160a0820151151560ff801983541691161790550151910155336000526001602052604060002091825492680100000000000000008410156107905783610c4a916001602096018155610fb4565b81549060031b9084821b91600019901b1916179055817f4a94c8d5fab40a5edfd34ed099a279029ee376bf6a571684e0cffd8e00216dbc610c9660405193604085526040850190611016565b92602435868201528033940390a3604051908152f35b015190508880610be1565b90601f198316916004860160005260206000209260005b818110610d12575092600192859260c0966006989610610cf9575b505050811b016004850155610bf9565b015160001960f88460031b161c19169055888080610ce9565b92936020600181928786015181550195019301610cce565b600485016000526020600020601f840160051c810160208510610d6a575b601f830160051c82018110610d5e575050610bc1565b60008155600101610d48565b5080610d48565b015190508680610b7d565b9250600385016000526020600020906000935b601f1984168510610dd3576001945083601f19811610610dba575b505050811b016003830155610b95565b015160001960f88460031b161c19169055868080610daa565b81810151835560209485019460019093019290910190610d8f565b909150600385016000526020600020601f840160051c810160208510610e3a575b90849392915b601f830160051c82018110610e2b575050610b66565b60008155859450600101610e15565b5080610e0f565b015190508680610b16565b600186016000908152602081209350601f198516905b818110610ea15750908460019594939210610e88575b505050811b016001830155610b2e565b015160001960f88460031b161c19169055868080610e78565b92936020600181928786015181550195019301610e62565b909150600185016000526020600020601f840160051c810160208510610f05575b90849392915b601f830160051c82018110610ef6575050610aff565b60008155859450600101610ee0565b5080610eda565b60e081019081106001600160401b0382111761079057604052565b90601f801991011681019081106001600160401b0382111761079057604052565b81601f8201121561012d578035906001600160401b0382116107905760405192610f7c601f8401601f191660200185610f27565b8284526020838301011161012d57816000926020809301838601378301015290565b600435906001600160a01b038216820361012d57565b8054821015610fcc5760005260206000200190600090565b634e487b7160e01b600052603260045260246000fd5b90815180825260208080930193019160005b828110611002575050505090565b835185529381019392810192600101610ff4565b919082519283825260005b848110611042575050826000602080949584010152601f8019910116010190565b602081830181015184830182015201611021565b90600182811c92168015611086575b602083101461107057565b634e487b7160e01b600052602260045260246000fd5b91607f1691611065565b90604051918260008254926110a484611056565b90818452600194858116908160001461111357506001146110d0575b50506110ce92500383610f27565b565b9093915060005260209081600020936000915b8183106110fb5750506110ce935082010138806110c0565b855488840185015294850194879450918301916110e3565b9150506110ce94506020925060ff191682840152151560051b82010138806110c0565b60001981146111455760010190565b634e487b7160e01b600052601160045260246000fd5b1561116257565b60405162461bcd60e51b81526020600482015260096024820152682737ba1037bbb732b960b91b6044820152606490fd5b6001600160401b0381116107905760051b60200190565b8051821015610fcc5760209160051b01019056fea26469706673582212209a496ed9ad3ef31fe750e98da85f7d8712acd6e34f40b8c39c27c0894b014b4b64736f6c6343000813003360803461007457601f6111cc38819003918201601f19168301916001600160401b038311848410176100795780849260209460405283398101031261007457516001600160a01b0381169081900361007457600380546001600160a01b03191691909117905560405161113c90816100908239f35b600080fd5b634e487b7160e01b600052604160045260246000fdfe608080604052600436101561001357600080fd5b60003560e01c90816326b703a714610f0e57508063448db2f614610e335780635686b54b14610d765780637c05798c14610c5257806387f98ca91461086b5780638aed078d14610784578063a0f109c5146104a0578063a5c1674e146103f9578063bd14de9614610333578063c9b99dab14610315578063d064fbe8146102dd5763fc2bf8f0146100a357600080fd5b34610237576100b136610f83565b90806000526020600081526040600020600881015460ff811660058110156102c75760016100df9114611048565b60028201546001600160a01b0391908216330361028c576003830154860361024f576000916064859260405194859384926323b872dd60e01b84523360048501523060248501528b604485015260181c165af190811561024357600091610209575b50156101d357600581019081548581018091116101bd576006925501544203904282116101bd577f63e55317e25c0cab3a2de23ee0e244496daea0c1c2b8e272bbc01722b96bb9ae91836000526001825262278d006040600020910460005281526040600020600160ff198254161790556040519384523393a3005b634e487b7160e01b600052601160045260246000fd5b60405162461bcd60e51b815260048101839052600e60248201526d14185e5b595b9d0819985a5b195960921b6044820152606490fd5b90508281813d831161023c575b6102208183610f99565b81010312610237576102319061102c565b38610141565b600080fd5b503d610216565b6040513d6000823e3d90fd5b60405162461bcd60e51b8152600481018590526015602482015274125b98dbdc9c9958dd081c995b9d08185b5bdd5b9d605a1b6044820152606490fd5b60405162461bcd60e51b81526004810185905260136024820152724f6e6c792074656e616e742063616e2070617960681b6044820152606490fd5b634e487b7160e01b600052602160045260246000fd5b34610237576102eb36610f83565b906000526001602052604060002090600052602052602060ff604060002054166040519015158152f35b34610237576000366003190112610237576020600254604051908152f35b346102375760203660031901126102375760043560005260006020526040600020805460018060a01b038060018401541692816002820154169060038101546004820154600583015490600684015492600860078601549501549560ff871699604051998a5260208a015260408901526060880152608087015260a086015260c085015260e084015260058410156102c7576101809361010084015260ff8160081c16151561012084015260ff8160101c16151561014084015260181c16610160820152f35b34610237576020366003190112610237576004358060005260006020526008604060002061043e60018060a01b03806001840154163314908115610490575b5061108b565b01805460ff81169060058210156102c75761045d600160049314611048565b60ff19161790557f84a477df8a28a4276ca6dee4458a06c3015f30c477d9c949ede4e13ff8a552b46020604051338152a2005b9050600283015416331485610438565b346102375760208060031936011261023757600435908160005260008152604060002090600882019182549060ff821660058110156102c75760016104e59114611048565b60078101544210610749576001810180546001600160a01b0393919291908416330361070457839060181c166005820154916004810154908161061b575b50508161055e575b855460ff19166002178655867f5a098ab2367201784eb2ad9b7e2f0d916557002385b83ddcc19293f40c4e0ed0600080a2005b915460405163a9059cbb60e01b815293166001600160a01b03166004840152602483015282908290816000816044810103925af1908115610243576000916105e6575b50156105b0578080808061052b565b6064906040519062461bcd60e51b82526004820152600f60248201526e151c985b9cd9995c8819985a5b1959608a1b6044820152fd5b90508181813d8311610614575b6105fd8183610f99565b810103126102375761060e9061102c565b846105a1565b503d6105f3565b600201805460405163a9059cbb60e01b81529087166001600160a01b031660048201526024810183905287816044816000885af1908115610243576000916106cf575b501561069a577f69187e59ebb7ab44cba5434886e4e6cde1412568f3483279dc99de772cb2540587878b93541693604051908152a38780610523565b60405162461bcd60e51b815260048101889052600d60248201526c1499599d5b990819985a5b1959609a1b6044820152606490fd5b90508781813d83116106fd575b6106e68183610f99565b81010312610237576106f79061102c565b8a61065e565b503d6106dc565b60405162461bcd60e51b815260048101869052601960248201527f4f6e6c79206c616e646c6f72642063616e2072656c65617365000000000000006044820152606490fd5b60405162461bcd60e51b81526004810184905260136024820152721059dc99595b595b9d081b9bdd08195b991959606a1b6044820152606490fd5b34610237576020806003193601126102375761079e610f32565b60028054909290916001600160a01b03908116906000805b85811061082f57506107c7906110aa565b9460009360005b8681106107e757604051806107e38a82610f48565b0390f35b806000526000825284848460406000200154161461080e575b61080990611039565b6107ce565b946108278187610821610809948c6110dc565b52611039565b959050610800565b8060005260008552838388604060002001541614610856575b61085190611039565b6107b6565b9061086361085191611039565b919050610848565b346102375760e0366003190112610237576024356001600160a01b03811690600435908290036102375760a4359060843560c4356001600160a01b038116810361023757600354604051631ef6210160e31b81526004810185905290600090829060249082906001600160a01b03165afa90811561024357600090600092610bb7575b50336001600160a01b0390911603610b7d5715610b42578415610b0c5783821015610ad7576002549361092085611039565b60025560405192610180840184811067ffffffffffffffff821117610ac15760405284845233602085015286604085015260443560608501526064356080850152600060a085015260c084015260e083015260006101008301526000610120830152600061014083015260018060a01b031661016082015282600052600060205260086040600020825181556001810160018060a01b03602085015116906bffffffffffffffffffffffff60a01b9182825416179055600282019060018060a01b0360408601511690825416179055606083015160038201556080830151600482015560a0830151600582015560c0830151600682015560e0830151600782015501906101008101519060058210156102c757602095837fbccc93ea525c74213effe313cf29be12baa866b0a54b80532bfa465876a177459360409388965461ff00610120830151151560081b169060ff62ff0000610140850151151560101b16936101606301000000600160b81b0391015160181b1694169068ffffffffffffffffff60b81b1617171717905581519033825287820152a3604051908152f35b634e487b7160e01b600052604160045260246000fd5b60405162461bcd60e51b815260206004820152600d60248201526c496e76616c696420646174657360981b6044820152606490fd5b60405162461bcd60e51b815260206004820152600e60248201526d125b9d985b1a59081d195b985b9d60921b6044820152606490fd5b60405162461bcd60e51b815260206004820152601360248201527250726f7065727479206e6f742061637469766560681b6044820152606490fd5b60405162461bcd60e51b81526020600482015260126024820152712737ba10383937b832b93a3c9037bbb732b960711b6044820152606490fd5b9150503d806000833e610bca8183610f99565b81019060e081830312610237578051916001600160a01b03831683036102375760208201519167ffffffffffffffff928381116102375782610c0d918301610fbb565b5060608101518381116102375782610c26918301610fbb565b50608081015192831161023757610c4460a092610c4b948301610fbb565b500161102c565b90876108ee565b346102375760203660031901126102375760043560005260006020526040600020600881019081549060ff821660058110156102c757610d405760018101546001600160a01b0391903390831603610ce2575050815461ff001916610100178255505b805460ff8160081c1680610cd5575b610cca57005b60ff19166001179055005b5060ff8160101c16610cc4565b60020154163314600014610d025762ff0000191662010000178155610cb5565b60405162461bcd60e51b8152602060048201526016602482015275139bdd081c185c9d1e481d1bc81859dc99595b595b9d60521b6044820152606490fd5b60405162461bcd60e51b815260206004820152600e60248201526d496e76616c69642073746174757360901b6044820152606490fd5b346102375760203660031901126102375760043580600052600060205260086040600020610dba60018060a01b03806001840154163314908115610490575061108b565b01805460ff811660058110156102c757610dfe5760ff191660031790557f0cae0523c4d6568388c55dcaeb921d927527a60000ca46adffedddf87225f0ec600080a2005b60405162461bcd60e51b815260206004820152600d60248201526c10d85b9b9bdd0818d85b98d95b609a1b6044820152606490fd5b346102375760208060031936011261023757610e4d610f32565b6002546001600160a01b0392909183166000805b848110610ed15750610e72906110aa565b9360009260005b858110610e8e57604051806107e38982610f48565b806000526000825283836001604060002001541614610eb6575b610eb190611039565b610e79565b93610ec98186610821610eb1948b6110dc565b949050610ea8565b806000526000845282866001604060002001541614610ef9575b610ef490611039565b610e61565b90610f06610ef491611039565b919050610eeb565b34610237576000366003190112610237576003546001600160a01b03168152602090f35b600435906001600160a01b038216820361023757565b6020908160408183019282815285518094520193019160005b828110610f6f575050505090565b835185529381019392810192600101610f61565b6040906003190112610237576004359060243590565b90601f8019910116810190811067ffffffffffffffff821117610ac157604052565b919080601f840112156102375782519067ffffffffffffffff8211610ac15760405191602091610ff4601f8301601f1916840185610f99565b8184528282870101116102375760005b81811061101957508260009394955001015290565b8581018301518482018401528201611004565b5190811515820361023757565b60001981146101bd5760010190565b1561104f57565b60405162461bcd60e51b815260206004820152601460248201527341677265656d656e74206e6f742061637469766560601b6044820152606490fd5b15610d0257565b67ffffffffffffffff8111610ac15760051b60200190565b906110b482611092565b6110c16040519182610f99565b82815280926110d2601f1991611092565b0190602036910137565b80518210156110f05760209160051b010190565b634e487b7160e01b600052603260045260246000fdfea2646970667358221220d10a2b8c63cb6395077d534a7dc3bad5134c9fd999cb637825ca5a324241bd2c64736f6c6343000813003360803461009d57601f610f0138819003918201601f19168301916001600160401b038311848410176100a257808492604094855283398101031261009d57610052602061004b836100b8565b92016100b8565b9060018060a01b0319913383600654161760065560018060a01b03809216836004541617600455169060055416176005556201518060085542600955604051610e3490816100cd8239f35b600080fd5b634e487b7160e01b600052604160045260246000fd5b51906001600160a01b038216820361009d5756fe6040608081526004908136101561001557600080fd5b600091823560e01c90816303a9176214610b2b5781630749ca3e14610b0057816307d0413c14610ae1578163254129a314610a8457816326b703a714610a5c57816351858e2714610a2d57816358de7297146109f557816362dad5c314610740578163664fc5bd146106d6578163764e57fe146106a75781638598bcc41461056b578163886e1044146105425781638a65d874146104b6578163a508b921146103ac578163b040daee146102ce578163b5c21510146102a6578163cd931e401461023a578163e767b6ef1461017157508063ed2655cf14610153578063f851a4401461012b5763fb861ac11461010a57600080fd5b346101275781600319360112610127576020906009549051908152f35b5080fd5b503461012757816003193601126101275760065490516001600160a01b039091168152602090f35b50346101275781600319360112610127576020906007549051908152f35b83833461012757816003193601126101275761018b610c7d565b91600a808452610140906020928236858801376101a6610c7d565b928284523685850137805b8281106101e457505050906101e0916101d38451958587968752860190610c13565b9184830390850152610c13565b0390f35b6103e8808202908282041482151715610227579061022291610206828a610d9c565b52808352600386528683205461021c8287610d9c565b52610d3f565b6101b1565b634e487b7160e01b835260118952602483fd5b919050346102a25736600319011261012757610254610d06565b6024356001600160a01b03818116939184900361029e5761027a81600654163314610dc6565b6bffffffffffffffffffffffff60a01b921682825416179055600554161760055580f35b8480fd5b8280fd5b9050346102a25760203660031901126102a25760209282913581526003845220549051908152f35b919050346102a25760603660031901126102a2576102ea610d06565b9060243567ffffffffffffffff811161029e5760206060936103337f8f8ef30e9b0f21e3357aedef2bd0475931edee61d9ad4eedbd92ec2207b41c5e9661036594369101610c9e565b6001600160a01b039091168752868252838720805461035190610d3f565b905581845193828580945193849201610b7f565b810160028152030190206103798154610d3f565b90556103e860443504845260036020528084206103968154610d3f565b905583815191818352816020840152820152a180f35b5050346101275760a0366003190112610127576103c7610d06565b60243580151581036104b257604435906064359384151585036104ae5760843580151581036104aa577f4b6c7abacb75992cc13ad43ffe4479dac5f7be91202f5fbb108eb1af8d56ed629560609560018060a01b03169485895288602052838920946000146104995761043f60038601918254610d1c565b9055610484575b61046f575b600182019161045a8354610d3f565b8093555481519384526020840152820152a180f35b6005820161047d8154610d3f565b905561044b565b600683016104928154610d3f565b9055610446565b905061049260028501918254610d1c565b8680fd5b8580fd5b8380fd5b82843461053f57602036600319011261053f576101e09082906001600160a01b036104df610d06565b168152806020522091825492600181015494600282015490600383015490830154916006600585015494015494519788978893909796959260c0959260e08601998652602086015260408501526060840152608083015260a08201520152565b80fd5b50503461012757816003193601126101275760055490516001600160a01b039091168152602090f35b838334610127576020366003190112610127576001600160a01b0361058e610d06565b168252816020528082209060018201549283151590816000146106a15760058401546127109081810291818304149015171561068e57856105ce91610d4e565b905b82156106805760068501546127109081810291818304149015171561066d57866101e09697985061060091610d4e565b925b1561066757506106248661061f6003880154600289015490610d1c565b610d4e565b925b8554956003600282015491015491519788978893909796959260c0959260e08601998652602086015260408501526060840152608083015260a08201520152565b92610626565b634e487b7160e01b825260118852602482fd5b6101e0949596508092610602565b634e487b7160e01b825260118752602482fd5b806105d0565b839034610127576020366003190112610127576106cf60018060a01b03600654163314610dc6565b3560085580f35b505034610127578160031936011261012757610722906106f4610c47565b906005825260a0366020840137611d4c61073061070f610d6e565b8351958695608087526080870190610c13565b908582036020870152610ba2565b9183015261213460608301520390f35b83833461012757816003193601126101275761076160095460085490610d1c565b42106109c85760075461077381610d3f565b600755808352600193602090858252838520426003820155610793610c7d565b600a8152838101926101409182368637519367ffffffffffffffff948581116109b55768010000000000000000918282116109a257855482875580831061097b575b50858b52878b208c8c5b8481106109695750505050506107f3610c7d565b600a815286810190843683378b860190519187831161095657838311610956578154838355838a8e838310610927575b50505050908b52878b208c8c5b8481106109155750505050506002610846610c7d565b94600a8652878601943686370193519485116109025784116108ef575081548383558084106108c8575b50908652828620865b8381106108b757877f2ef70149803d0100afae7852c0fba62f17434ee8c76252b95586eb50d45c57668888884260095582519182524290820152a180f35b825182820155918401918801610879565b8288528884868a2092830192015b8281106108e4575050610870565b8981550189906108d6565b634e487b7160e01b885260419052602487fd5b634e487b7160e01b895260418252602489fd5b8a845194019381840155018d90610830565b8590525050898d20908101908e9085018e5b83821061094b578692508c9150610823565b8155018e908e610939565b634e487b7160e01b8c526041855260248cfd5b8a845194019381840155018d906107df565b8c838a8e8a81522092830192015b8281106109975750506107d5565b8d8155018d90610989565b634e487b7160e01b8b526041845260248bfd5b634e487b7160e01b8a526041835260248afd5b5162461bcd60e51b815260208184015260086024820152672a37b79039b7b7b760c11b6044820152606490fd5b5050346101275781600319360112610127578160c09282519281845281602085015283015280606083015280608083015260a0820152f35b833461053f578060031936011261053f57610a5360018060a01b03600654163314610dc6565b60001960085580f35b9050346102a257826003193601126102a2575490516001600160a01b03909116815260209150f35b82843461053f57602036600319011261053f5782359067ffffffffffffffff821161053f57506020610abd8194610acf93369101610c9e565b81845193828580945193849201610b7f565b81016002815203019020549051908152f35b5050346101275781600319360112610127576020906008549051908152f35b9050346102a25760203660031901126102a25781602093600392358152600185522001549051908152f35b82843461053f578060031936011261053f5750610b46610d6e565b906101e0610b52610c47565b6005815260a0366020830137610b718351948486958652850190610ba2565b908382036020850152610c13565b60005b838110610b925750506000910152565b8181015183820152602001610b82565b908082519081815260208091019281808460051b8301019501936000915b848310610bd05750505050505090565b909192939495848080600193601f1980878303018852601f8c51610bff81518092818752878088019101610b7f565b011601019801930193019194939290610bc0565b90815180825260208080930193019160005b828110610c33575050505090565b835185529381019392810192600101610c25565b6040519060c0820182811067ffffffffffffffff821117610c6757604052565b634e487b7160e01b600052604160045260246000fd5b60405190610160820182811067ffffffffffffffff821117610c6757604052565b81601f82011215610d015780359067ffffffffffffffff92838311610c675760405193601f8401601f19908116603f0116850190811185821017610c675760405282845260208383010111610d0157816000926020809301838601378301015290565b600080fd5b600435906001600160a01b0382168203610d0157565b91908201809211610d2957565b634e487b7160e01b600052601160045260246000fd5b6000198114610d295760010190565b8115610d58570490565b634e487b7160e01b600052601260045260246000fd5b610d76610c47565b90600582528160005b60a08110610d8b575050565b806060602080938501015201610d7f565b8051821015610db05760209160051b010190565b634e487b7160e01b600052603260045260246000fd5b15610dcd57565b60405162461bcd60e51b81526020600482015260096024820152682737ba1030b236b4b760b91b6044820152606490fdfea26469706673582212209f781f0ca0dc6460fe4f38795fa9ffe48de14987e100446623bea182974fe8ed64736f6c634300081300336080806040523461003357600480546001600160a01b0319163317905566038d7ea4c68000600555611ea390816100398239f35b600080fdfe6080604052600436101561001257600080fd5b6000803560e01c80630eaaf4c81461195e578063131dbd091461192e578063305a67a8146118195780633fb35178146117fb5780634884f459146115a55780635e318e0714611550578063661d2c2c146114165780636a1b7ecc146113f85780636e3a8f28146113bf578063918d407d1461117a5780639979ef4514610fbe578063a9b2c12014610f85578063aaccf1ec14610f67578063c128b23114610cdb578063c2f50a7a14610cbe578063c460494314610be8578063c56370e914610b81578063d264dc1514610848578063de74e57b146107a6578063e210a72d14610589578063e80838631461035f578063eb18a9d8146102ba578063ebdfbce514610248578063ef706adf1461015b5763f851a4401461013057600080fd5b346101585780600319360112610158576004546040516001600160a01b039091168152602090f35b80fd5b50346101585760208060031936011261024457600435808352828252604083205490917f1f51377b3e685a0e2419f9bb4ba7c07ec54936353ba3d0fb3c6538dab6766222916101b4906001600160a01b03161515611b74565b82845260018152604084203360005281526101f9600260406000206101de60018201541515611cf6565b6101ef60ff60038301541615611d6f565b0154421115611d33565b82845260018152604084203360005281528360036040600020828155826001820155826002820155015533845260038152604084206102388154611db4565b9055604051338152a280f35b5080fd5b5034610158576040366003190112610158576080906040610267611a8f565b91600435815260016020522060018060a01b038092166000526020526040600020908154169060018101549060ff6003600283015492015416916040519384526020840152604083015215156060820152f35b503461015857602080600319360112610244576001600160a01b0391826102df611a74565b1692838252600283526102f56040832054611dd9565b93829183600654945b85811061031c5760405187815280610318818a018b611aa5565b0390f35b80825281875283836040842054161461033e575b61033990611b42565b6102fe565b936103578186610351610339948c611e0b565b52611b42565b949050610330565b503461015857602036600319011261015857600435808252602082905260408220546001600160a01b03906103979082161515611b74565b818352826020526103b160ff600560408620015416611bb4565b8183528260205260408320600581019182546103d260ff8260081c16611c40565b6103e160088401544211611c7d565b60078301938285541690811561055a57879260ff19169055826001850154168385541690600286015490803b1561054b576040516323b872dd60e01b81526001600160a01b039384166004820152939092166024840152604483015282908290606490829084905af1801561054f57610537575b5050600682019182549060fa820282810460fa148315171561052357878080809594876104886127108497048098611c33565b91541682821561051a575bf11561050d57818080928560045416828215610504575bf1156104f9579154905460408051929093166001600160a01b0316825260208201527f8e378317cc1b9c64766fd136e5849da5f702d26a8f8b750115b7422909b2309f91819081015b0390a280f35b6040513d86823e3d90fd5b506108fc6104aa565b50604051903d90823e3d90fd5b506108fc610493565b634e487b7160e01b88526011600452602488fd5b61054090611aef565b61054b578438610455565b8480fd5b6040513d84823e3d90fd5b60405162461bcd60e51b81526020600482015260076024820152664e6f206269647360c81b6044820152606490fd5b503461015857606036600319011261015857600435808252602082815260408320546001600160a01b0390602435906105c59083161515611b74565b8385528483526105de60ff600560408820015416611bb4565b8385528483526040852060ff600582015460081c16610761576004610607910154421115611bf5565b83855260018352604085203360005283526001604060002001546107255761063160443542611b67565b9160405193608085019385851067ffffffffffffffff86111761070f577fbdf1e76c2ba2a5c85b93bf78678a4a3b06d63b18422612dac8d7d5249ed46714956003886106e3938b83976104f39a6040523386526040888701928b84528188019485526060880195818752815260018a522033600052885260406000209551166001600160601b0360a01b86541617855551600185015551600284015551151591019060ff801983541691151516179055565b33875252604085206106f58154611b42565b905560408051338152602081019290925290918291820190565b634e487b7160e01b600052604160045260246000fd5b60405162461bcd60e51b81526004810184905260146024820152734f6666657220616c72656164792065786973747360601b6044820152606490fd5b60405162461bcd60e51b815260048101859052601760248201527f43616e6e6f74206f66666572206f6e2061756374696f6e0000000000000000006044820152606490fd5b5034610158576020366003190112610158576040610140916004358152806020522060018060a01b038082541691816001820154169160ff60028301546003840154600485015490600586015492600860068801549660078901541697015497604051998a5260208a0152604089015260608801526080870152818116151560a087015260081c16151560c085015260e0840152610100830152610120820152f35b5060a03660031901126101585761085d611a74565b608435151560843503610244576005543410610b3c576040516331a9108f60e11b81526024803560048301526020908290816001600160a01b0386165afa908115610b31578391610aeb575b50336001600160a01b0390911603610ab45760643515610a7c576020917f52ac1f237eb54827f2c077ce1a53146aa8d5b27546ff026a6252a5ea6b05ccb160a06040936006549485946108fb86611b42565b60065561090a60643542611b67565b60843515610a765761091e60643542611b67565b83519161092a83611b03565b338352600180881b0386168b8401526024358584015260443560608401526080830152600186830152608435151560c08301528260e083015282610100830152610120820152868252818952600861012084842092600180891b038151166001600160601b03891b9081865416178555600185016001808b1b038e84015116828254161790558682015160028601556060820151600386015560808201516004860155600585016109ec8a8401511515829060ff801983541691151516179055565b60c0830151151561ff00825491871b169061ff00191617905560e0820151600686015560078501906001808b1b03610100840151169082541617905501519101553381526002885220610a3f8154611b42565b905560405190338252600180841b0316868201526024356040820152604435606082015260843515156080820152a2604051908152f35b8161091e565b60405162461bcd60e51b815260206004820152601060248201526f24b73b30b634b210323ab930ba34b7b760811b6044820152606490fd5b60405162461bcd60e51b815260206004820152600f60248201526e2737ba103a37b5b2b71037bbb732b960891b6044820152606490fd5b90506020813d602011610b29575b81610b0660209383611b20565b81010312610b2557516001600160a01b0381168103610b2557386108a9565b8280fd5b3d9150610af9565b6040513d85823e3d90fd5b60405162461bcd60e51b815260206004820152601860248201527f496e73756666696369656e74206c697374696e672066656500000000000000006044820152606490fd5b503461015857602036600319011261015857600435610bab60018060a01b03600454163314611e35565b808252816020526005604083200160ff1981541690557f411aee90354c51b1b04cd563fcab2617142a9d50da19232d888547c8a1b7fd8a8280a280f35b503461015857610bf736611ad9565b818352602090838252610c2e60018060a01b03610c1b816040882054163314611cbd565b8486528584526040862054161515611b74565b828452838252610c4760ff600560408720015416611bb4565b8015610c8957907f66bcde9f7aec9b81719a4fdec54cbafbf6c834d1f2f989d9cd2134dab8d0c0de91838552848252806003604087200155604051908152a280f35b60405162461bcd60e51b815260048101839052600d60248201526c496e76616c696420707269636560981b6044820152606490fd5b50346101585780600319360112610158576020604051610e108152f35b503461015857610cea36611ad9565b90610cf482611dd9565b90610cfe83611dc1565b93610d0c6040519586611b20565b838552601f19610d1b85611dc1565b01815b818110610f125750508091936006908154955b86811080610f09575b15610e47578084526020848152604085209060ff906005928284820154169081610e38575b50610d76575b505050610d7190611b42565b610d31565b918791610e2f9385610d8c610d71979b8d611e0b565b52898952888152604089209060405193610da585611b03565b60018060a01b0391828454168652826001850154169086015260028301546040860152600383015460608601526004830154608086015282015492808416151560a0860152600893841c16151560c08501528882015460e08501526007820154166101008401520154610120820152610e1e828c611e0b565b52610e29818b611e0b565b50611b42565b94903880610d65565b60049150015442111538610d5f565b838689610e5f60405192604084526040840190611aa5565b6020838203818501528080845193848152019301945b828110610e825784840385f35b855180516001600160a01b0390811686528184015181168685015260408083015190870152606080830151908701526080808301519087015260a08083015115159087015260c08083015115159087015260e08083015190870152610100808301519091169086015261012090810151908501529481019461014090930192600101610e75565b50818510610d3a565b602090604051610f2181611b03565b8481528285818301528560408301528560608301528560808301528560a08301528560c08301528560e08301528561010083015285610120830152828a01015201610d1e565b50346101585780600319360112610158576020600654604051908152f35b5034610158576020366003190112610158576020906040906001600160a01b03610fad611a74565b168152600283522054604051908152f35b5060208060031936011261024457600435808352828252604083205490916001600160a01b0391610ff29083161515611b74565b82845283815261100b60ff600560408720015416611bb4565b828452838152604084209061102960ff600584015460081c16611c40565b600882015442116111465760068201918254918234111561111457600382015434106110dc57509060078692019384541690816110b7575b505034918290555081546001600160a01b031916339081179092556040805192835260208301919091527f0e54eff26401bf69b81b26f60bd85ef47f5d85275c1d268d84f68d6897431c479190819081016104f3565b8280929181928282156110d3575bf115610b3157833880611061565b506108fc6110c5565b6064906040519062461bcd60e51b8252600482015260116024820152704269642062656c6f77207265736572766560781b6044820152fd5b6064906040519062461bcd60e51b82526004820152600b60248201526a42696420746f6f206c6f7760a81b6044820152fd5b6064906040519062461bcd60e51b82526004820152600d60248201526c105d58dd1a5bdb88195b991959609a1b6044820152fd5b503461015857604036600319011261015857600435611197611a8f565b81835260209083825260018060a01b036111b8816040872054163314611cbd565b8385528483526111cf816040872054161515611b74565b8385528483526111e860ff600560408820015416611bb4565b8385526001835260408520818316600052835284604060002093816003600187019661121688541515611cf6565b6112266002820154421115611d33565b019182549261123860ff851615611d6f565b600160ff198095161790558782525260408220906005820190815416905560028360018301541691015490803b15610b25576040516323b872dd60e01b81523360048201526001600160a01b0386166024820152604481019290925282908290606490829084905af1801561054f576113ab575b5050825460fa810281810460fa14821517156113975790868080806112d8612710829897048096611c33565b81811561138e575b3390f11561054f5782809291819260045416828215611385575bf115610b31579054604080516001600160a01b0384168152602081018390527f8e378317cc1b9c64766fd136e5849da5f702d26a8f8b750115b7422909b2309f939185917fea555ab99331ceac5051c58f17cc7b411b30241b0e28cb93a7d3a24c77a7a9a99190a2604080516001600160a01b039092168252602082019290925290819081016104f3565b506108fc6112fa565b506108fc6112e0565b634e487b7160e01b87526011600452602487fd5b6113b490611aef565b61054b5784386112ac565b5034610158576020366003190112610158576020906040906001600160a01b036113e7611a74565b168152600383522054604051908152f35b50346101585780600319360112610158576020600554604051908152f35b503461015857602080600319360112610244576001600160a01b03918261143b611a74565b1690818152600383526114516040822054611dd9565b928282526003815260408220549061148161146b83611dc1565b926114796040519485611b20565b808452611dc1565b8282019490601f1901368637838491600654925b8381106114ea5750505050806114b660405196604088526040880190611aa5565b928684038288015251928381520193925b8281106114d45785850386f35b83518716855293810193928101926001016114c7565b8087959697526001808752604086208360005287526040600020015461151d575b61151490611b42565b95949395611495565b916115488184611530611514948d611e0b565b528487528688528b604088205416610351828b611e0b565b92905061150b565b5034610158576020366003190112610158578080808060043560018060a01b036004541661157f813314611e35565b82821561159c575bf1156115905780f35b604051903d90823e3d90fd5b506108fc611587565b50602080600319360112610244576004359081835282815260018060a01b036115d5816040862054161515611b74565b8284528382526115ee60ff600560408720015416611bb4565b8284528382526040842060058101805460ff8160081c166117c1576116196004840154421115611bf5565b600383019485543410611786575060ff1916905581600182015416858383541691600284015490803b15610b25576040516323b872dd60e01b81526001600160a01b0394909416600485015233602485015260448401919091528290606490829084905af1801561177b57611768575b5082549060fa820282810460fa14831517156113975786808086959481976116b76127108497048098611c33565b91541682821561175f575bf11561054f5782809291819260045416828215611756575bf11561054f57828154803411611729575b5050546040805133815260208101929092527f8e378317cc1b9c64766fd136e5849da5f702d26a8f8b750115b7422909b2309f9190819081016104f3565b8180611736819334611c33565b81811561174d575b3390f11561054f5782386116eb565b506108fc61173e565b506108fc6116da565b506108fc6116c2565b61177490959195611aef565b9338611689565b6040513d88823e3d90fd5b6064906040519062461bcd60e51b825260048201526014602482015273125b9cdd59999a58da595b9d081c185e5b595b9d60621b6044820152fd5b60405162461bcd60e51b81526004810186905260126024820152712634b9ba34b7339034b99030bab1ba34b7b760711b6044820152606490fd5b5034610158578060031936011261015857602060405162278d008152f35b50346101585760208060031936011261024457600435808352828252604083205490916001600160a01b03916118529083163314611cbd565b828452838152611869826040862054161515611b74565b82845283815261188260ff600560408720015416611bb4565b8284528381528360408120600581019360ff855460081c168061191f575b6118ee575b50505060029160ff19815416905533845252604082206118c58154611db4565b90557f411aee90354c51b1b04cd563fcab2617142a9d50da19232d888547c8a1b7fd8a8280a280f35b828260068294936007849501541691015490828215611916575bf115610b31578338806118a5565b506108fc611908565b508060078301541615156118a0565b50346101585760203660031901126101585761195560018060a01b03600454163314611e35565b60043560055580f35b503461015857602036600319011261015857600435808252602082905260408220546001600160a01b03906119969082161515611b74565b8183528260205260408320906119b560ff600584015460081c16611c40565b600782018054913390831603611a3a57848093928193926006846119df6008869701544211611c7d565b019183835493556001600160601b0360a01b169055818115611a31575b3390f11561050d577f5e9c7ae3229b2cda5065d7058fcc05765c695c29ce05313fbe96cb2ca639231a6020604051338152a280f35b506108fc6119fc565b60405162461bcd60e51b81526020600482015260126024820152712737ba103434b3b432b9ba103134b23232b960711b6044820152606490fd5b600435906001600160a01b0382168203611a8a57565b600080fd5b602435906001600160a01b0382168203611a8a57565b90815180825260208080930193019160005b828110611ac5575050505090565b835185529381019392810192600101611ab7565b6040906003190112611a8a576004359060243590565b67ffffffffffffffff811161070f57604052565b610140810190811067ffffffffffffffff82111761070f57604052565b90601f8019910116810190811067ffffffffffffffff82111761070f57604052565b6000198114611b515760010190565b634e487b7160e01b600052601160045260246000fd5b91908201809211611b5157565b15611b7b57565b60405162461bcd60e51b8152602060048201526011602482015270131a5cdd1a5b99c81b9bdd08199bdd5b99607a1b6044820152606490fd5b15611bbb57565b60405162461bcd60e51b81526020600482015260126024820152714c697374696e67206e6f742061637469766560701b6044820152606490fd5b15611bfc57565b60405162461bcd60e51b815260206004820152600f60248201526e131a5cdd1a5b99c8195e1c1a5c9959608a1b6044820152606490fd5b91908203918211611b5157565b15611c4757565b60405162461bcd60e51b815260206004820152600e60248201526d2737ba1030b71030bab1ba34b7b760911b6044820152606490fd5b15611c8457565b60405162461bcd60e51b8152602060048201526011602482015270105d58dd1a5bdb881b9bdd08195b991959607a1b6044820152606490fd5b15611cc457565b60405162461bcd60e51b815260206004820152600a6024820152692737ba1039b2b63632b960b11b6044820152606490fd5b15611cfd57565b60405162461bcd60e51b815260206004820152600e60248201526d139bc81bd999995c88199bdd5b9960921b6044820152606490fd5b15611d3a57565b60405162461bcd60e51b815260206004820152600d60248201526c13d999995c88195e1c1a5c9959609a1b6044820152606490fd5b15611d7657565b60405162461bcd60e51b815260206004820152601660248201527513d999995c88185b1c9958591e481858d8d95c1d195960521b6044820152606490fd5b8015611b51576000190190565b67ffffffffffffffff811161070f5760051b60200190565b90611de382611dc1565b611df06040519182611b20565b8281528092611e01601f1991611dc1565b0190602036910137565b8051821015611e1f5760209160051b010190565b634e487b7160e01b600052603260045260246000fd5b15611e3c57565b60405162461bcd60e51b81526020600482015260096024820152682737ba1030b236b4b760b91b6044820152606490fdfea2646970667358221220f5692ac08afe731c9382d01cd2e70bfc9e324b53732e39bd80f449e57b2cd51764736f6c634300081300336080346200053757600480546001600160a01b0319163317905566038d7ea4c68000600655608081016001600160401b03811182821017620004f05760008051602062001b8a8339815191529160809160405260018152602081019060008252600260408201620f424081526060830190662386f26fc100009485835260016000526000602052620000a5604060002095511515869060ff801983541691151516179055565b51845490610100600160a81b039060081b1690610100600160a81b0319161784555160018401555191015560036020526040600020600160ff19825416179055604051906001825260006020830152620f424060408301526060820152a16004546001600160a01b0316330362000506576040516001600160401b036080820190811190821117620004f0576080818160008051602062001b8a8339815191529301604052600181526020810190308252600260408201620f42408152606083019066038d7ea4c68000825262082750948560005260006020526200019e604060002095511515869060ff801983541691151516179055565b51845490610100600160a81b039060081b1690610100600160a81b0319161784555160018401555191015560036020526040600020600160ff19825416179055604051908152306020820152620f4240604082015266038d7ea4c680006060820152a16004546001600160a01b031633036200050657604051608081016001600160401b03811182821017620004f05760008051602062001b8a833981519152916080916040526001815260208101903082526040810190620f42408252600260608201655af3107a4000938482526208274f958660005260006020526200029a604060002095511515869060ff801983541691151516179055565b51845490610100600160a81b039060081b1690610100600160a81b0319161784555160018401555191015560036020526040600020600160ff19825416179055604051918252306020830152620f424060408301526060820152a16004546001600160a01b031633036200050657604051608081016001600160401b03811182821017620004f05760008051602062001b8a8339815191529160809160405260018152602081019060008252600260408201620f4240815260608301906611c37937e0800094858352608960005260006020526200038c604060002095511515869060ff801983541691151516179055565b51845490610100600160a81b039060081b1690610100600160a81b0319161784555160018401555191015560036020526040600020600160ff19825416179055604051906089825260006020830152620f424060408301526060820152a16004546001600160a01b031633036200050657604051608081016001600160401b03811182821017620004f05760008051602062001b8a83398151915291608091604052600181526020810190600082526040810190620f42408252600260608201660aa87bee5380009384825261a4b19586600052600060205262000484604060002095511515869060ff801983541691151516179055565b51845490610100600160a81b039060081b1690610100600160a81b0319161784555160018401555191015560036020526040600020600160ff1982541617905560405191825260006020830152620f424060408301526060820152a160405161164d90816200053d8239f35b634e487b7160e01b600052604160045260246000fd5b60405162461bcd60e51b81526020600482015260096024820152682737ba1030b236b4b760b91b6044820152606490fd5b600080fdfe6080604052600436101561001257600080fd5b60003560e01c80630f3f6b5b1461126f57806319ed16dc14610dc85780632f7801f414611235578063370673da1461104c5780633c9fc52014610f755780633e66cfcb14610e2757806351bfbc3214610dc857806351d901c514610ca2578063548d496f14610c7157806359bc334c14610bbd5780636a84a98514610b9f5780637785f6fe14610b815780638142662814610aeb578063814a3029146109825780638162e1bb14610578578063836dd14f1461051f578063ad3b1b47146104be578063c4bffe2b146103a6578063c74a13b61461033a578063da468045146101c8578063f851a4401461019f5763fa25e7d61461010e57600080fd5b3461019a57602036600319011261019a5760043580600052600360205260ff6040600020541615610161576101596020916006549060005260008352600260406000200154906114a2565b604051908152f35b60405162461bcd60e51b81526020600482015260116024820152702ab739bab83837b93a32b21031b430b4b760791b6044820152606490fd5b600080fd5b3461019a57600036600319011261019a576004546040516001600160a01b039091168152602090f35b3461019a5760208060031936011261019a576101e2611312565b9060018060a01b0380831690816000526002928381526040600020549261022161020b85611589565b9461021960405196876113d5565b808652611589565b8483019390601f19013685376000936000976001600160601b03199060601b16975b836000528785526040600020548110156102f757604051858101908a8252600060348201528260548201524660748201526094600081830152815260c0810181811067ffffffffffffffff8211176102e1576040525190208060005260018652848460406000205416146102c1575b506102bc906114c5565b610243565b866102da916102d46102bc94998b6115a1565b526114c5565b95906102b2565b634e487b7160e01b600052604160045260246000fd5b848783604051928392818401908285525180915260408401929160005b82811061032357505050500390f35b835185528695509381019392810192600101610314565b3461019a57602036600319011261019a577f27ac1f8582df24c5a440380c6f532a5e3c80caf348beb3f6484f310f2c6bbd0b604060043561038660018060a01b0360045416331461150e565b60008181526020818152838220805460ff191690558351928352820152a1005b3461019a57600036600319011261019a576000805b6103e8811061048457506103e76103d182611589565b916103df60405193846113d5565b808352611589565b60209180830191601f19013683376000805b6103e8811061044557505090604051928392818401908285525180915260408401929160005b82811061042e57505050500390f35b83518552869550938101939281019260010161041f565b806000526003855260ff60406000205416610469575b610464906114c5565b6103f9565b9061047c81836102d461046494876115a1565b91905061045b565b80600052600360205260ff604060002054166104a9575b6104a4906114c5565b6103bb565b906104b66104a4916114c5565b91905061049b565b3461019a57604036600319011261019a5760008080806104dc611312565b6024359060018060a01b036104f68160045416331461150e565b83918315610515575b1690f11561050957005b6040513d6000823e3d90fd5b6108fc92506104ff565b3461019a57602036600319011261019a577f08ada4207834842abba9ea80ca977888a9d01744f201c6b458533fa72e77a9d1602060043561056b60018060a01b0360045416331461150e565b80600655604051908152a1005b604036600319011261019a5767ffffffffffffffff60243581811161019a576105a590369060040161136f565b600492919235600052600360205260ff604060002054161561093d57600435600052600060205260ff6040600020541615610900576105fa6006546004356000526000602052600260406000200154906114a2565b34106108c857336000526002602052604060002080549061061a826114c5565b905560405161066260b48260208101943360601b86526004356034830152868960548401378682019060548201524660748201524260948201520360948101845201826113d5565b5190209160405160e08101818110838211176102e157604052338152602081019046825260408101600435815261069a368689611413565b9060608301918252426080840152600060a08401528660c084015286600052600160205260406000209360018060a01b038451166001600160601b0360a01b8654161785555160018501555160028401555180519384116102e1576107026003840154611468565b601f8111610881575b50916020969186938890601f87116001146107e85791867f6e7320f2ca68964d68e8d30523bfb2c118684f04f2058e8d7579d43f9f899df3969760c0936006956000926107dd575b50508160011b916000199060031b1c19161760038501555b6080810151600485015561079460a08201511515600586019060ff801983541691151516179055565b01519101558360405191468352600435888401526060604084015281606084015260808301376000608085830101526080813395601f80199101168101030190a3604051908152f35b015190508c80610753565b959060038401600052896000209660005b601f19841681106108675750827f6e7320f2ca68964d68e8d30523bfb2c118684f04f2058e8d7579d43f9f899df397986006959360019360c096601f1981161061084e575b505050811b01600385015561076b565b015160001960f88460031b161c191690558c808061083e565b8282015189556001909801978a9750918b01918b016107f9565b600384016000526020600020601f860160051c8101602087106108c1575b601f830160051c820181106108b557505061070b565b6000815560010161089f565b508061089f565b60405162461bcd60e51b815260206004820152601060248201526f496e73756666696369656e742066656560801b6044820152606490fd5b60405162461bcd60e51b815260206004820152601560248201527454617267657420636861696e20696e61637469766560581b6044820152606490fd5b60405162461bcd60e51b815260206004820152601860248201527f556e737570706f727465642074617267657420636861696e00000000000000006044820152606490fd5b3461019a5760208060031936011261019a5760043560005260019081815260406000209160018060a01b038354169281810154906002810154936003820160405180956000908354936109d485611468565b94858552868382169182600014610ac9575050600114610a8a575b5050610a059250979594979693929603846113d5565b600481015494600660ff60058401541692015492604051978896875282870152604086015260e060608601528351938460e087015260005b858110610a72575050506101009460008685870101526080850152151560a084015260c0830152601f80199101168101030190f35b81810183015189820161010001528896508201610a3d565b85925060005281600020906000915b858310610ab1575050610a05935082010189806109ef565b8054838b018501528994508693909201918101610a99565b9250935050610a0594915060ff191682840152151560051b82010189806109ef565b3461019a57608036600319011261019a57610b04611312565b46600052600060205260018060a01b03610b298160406000205460081c1633146114d4565b7f625ac99e7d1638ecd81a8efa825f90976cf16b1a80cb0b891dfefbb01e30f2a16020604051818101906001600160601b03198660601b16825260148152610b70816113b9565b5190209260405194600186521693a3005b3461019a57600036600319011261019a576020600654604051908152f35b3461019a57600036600319011261019a576020600554604051908152f35b3461019a5760a036600319011261019a57610bd6611328565b67ffffffffffffffff60643581811161019a57610bf790369060040161144a565b5060843590811161019a57610c1090369060040161144a565b5046600052600060205260018060a01b03610c368160406000205460081c1633146114d4565b7f625ac99e7d1638ecd81a8efa825f90976cf16b1a80cb0b891dfefbb01e30f2a16020604051818101906004358252828152610b70816113b9565b3461019a57602036600319011261019a576004356000526003602052602060ff604060002054166040519015158152f35b3461019a57608036600319011261019a577f0349c5d4e3ded2d9a9db300c6f34e5c15d0a0d229865b33fb9658483458fd5ee600435610cdf611328565b90610dc36044356064359060018060a01b03610d008160045416331461150e565b600260405191610d0f8361139d565b6001835260208301908089168252610d79604085019186835260608601938885528a6000526000602052610d57604060002097511515889060ff801983541691151516179055565b518654610100600160a81b031916911660081b610100600160a81b0316178555565b5160018401555191015560036020526040600020600160ff1982541617905560405194859485909493926060926080830196835260018060a01b0316602083015260408201520152565b0390a1005b3461019a57602036600319011261019a576004356000908152602081815260409182902080546001820154600290920154845160ff83161515815260089290921c6001600160a01b031693820193909352928301526060820152608090f35b3461019a57608036600319011261019a57600435610e43611328565b60643567ffffffffffffffff811161019a57610e6390369060040161136f565b926044356000526020936000855260018060a01b0392610e8e8460406000205460081c1633146114d4565b826000526001865260ff60056040600020015416610f3d576000807f625ac99e7d1638ecd81a8efa825f90976cf16b1a80cb0b891dfefbb01e30f2a19388938683526001855260056040842001600160ff198254161790558160405192839283378101838152039082305af1933d15610f38573d610f0b816113f7565b90610f1960405192836113d5565b81526000833d92013e5b604051941515958686521693a3604051908152f35b610f23565b60405162461bcd60e51b815260048101879052601060248201526f105b1c9958591e48195e1958dd5d195960821b6044820152606490fd5b3461019a57604036600319011261019a577f0349c5d4e3ded2d9a9db300c6f34e5c15d0a0d229865b33fb9658483458fd5ee600435610fb2611328565b90610fc860018060a01b0360045416331461150e565b806000526003602052610fe260ff60406000205416611546565b60008181526020819052604090208054610100600160a81b031916600884901b610100600160a81b0316178155610dc390600181015460029190910154604080519485526001600160a01b0390951660208501529383015260608201929092529081906080820190565b3461019a57608036600319011261019a5767ffffffffffffffff60043581811161019a5761107e90369060040161133e565b909160243581811161019a5761109890369060040161133e565b929060443583811161019a576110b290369060040161133e565b9360643590811161019a576110cb90369060040161133e565b96909360018060a01b03916110e58360045416331461150e565b6110f08883146115cb565b6110fb8783146115cb565b6111068983146115cb565b60005b82811061111257005b61111d818484611607565b359061112a818b89611607565b358581169081810361019a57611230936112287f0349c5d4e3ded2d9a9db300c6f34e5c15d0a0d229865b33fb9658483458fd5ee938f61117a8f8f926111738f8b938491611607565b3593611607565b359161118b8c60045416331461150e565b60038c60405161119a8161139d565b60026001948583526020938484019182526111e4604085019189835260608601938b85528d60005260008852610d57604060002097511515889060ff801983541691151516179055565b5186840155519101555260406000209060ff1982541617905560405194859485909493926060926080830196835260018060a01b0316602083015260408201520152565b0390a16114c5565b611109565b3461019a57602036600319011261019a576001600160a01b03611256611312565b1660005260026020526020604060002054604051908152f35b3461019a57604036600319011261019a576004356024358015159182820361019a577f27ac1f8582df24c5a440380c6f532a5e3c80caf348beb3f6484f310f2c6bbd0b926113056040936112ce60018060a01b0360045416331461150e565b8360005260036020526112e760ff866000205416611546565b836000526000602052846000209060ff801983541691151516179055565b82519182526020820152a1005b600435906001600160a01b038216820361019a57565b602435906001600160a01b038216820361019a57565b9181601f8401121561019a5782359167ffffffffffffffff831161019a576020808501948460051b01011161019a57565b9181601f8401121561019a5782359167ffffffffffffffff831161019a576020838186019501011161019a57565b6080810190811067ffffffffffffffff8211176102e157604052565b6040810190811067ffffffffffffffff8211176102e157604052565b90601f8019910116810190811067ffffffffffffffff8211176102e157604052565b67ffffffffffffffff81116102e157601f01601f191660200190565b92919261141f826113f7565b9161142d60405193846113d5565b82948184528183011161019a578281602093846000960137010152565b9080601f8301121561019a5781602061146593359101611413565b90565b90600182811c92168015611498575b602083101461148257565b634e487b7160e01b600052602260045260246000fd5b91607f1691611477565b919082018092116114af57565b634e487b7160e01b600052601160045260246000fd5b60001981146114af5760010190565b156114db57565b60405162461bcd60e51b815260206004820152600b60248201526a4e6f74206761746577617960a81b6044820152606490fd5b1561151557565b60405162461bcd60e51b81526020600482015260096024820152682737ba1030b236b4b760b91b6044820152606490fd5b1561154d57565b60405162461bcd60e51b815260206004820152601460248201527310da185a5b881b9bdd0818dbdb999a59dd5c995960621b6044820152606490fd5b67ffffffffffffffff81116102e15760051b60200190565b80518210156115b55760209160051b010190565b634e487b7160e01b600052603260045260246000fd5b156115d257565b60405162461bcd60e51b815260206004820152600d60248201526c125b9d985b1a59081a5b9c1d5d609a1b6044820152606490fd5b91908110156115b55760051b019056fea264697066735822122028b9d27567fa9a6d6089b4d8f13d494272cade61093e622a94e4a073aeeb74ef64736f6c634300081300330349c5d4e3ded2d9a9db300c6f34e5c15d0a0d229865b33fb9658483458fd5ee6080346200030f57601f6200147638819003918201601f19168301916001600160401b038311848410176200031457808492604094855283396020938491810103126200030f57516001600160a01b039283821692918390036200030f57600480546001600160a01b03199081163317825560058054909116909417909355678ac7230489e8000060065560078054909460001992828414620002fa5760809495966001928385018255620000b36200032a565b946101f48087528487019686885260028b8201600a8152600099858b52600389528d8b20935184555189840155519101558951918252848201528489820152600a60608201527fb0962e6966d810bed3fca86ebf29182b8a8681a599007daf4ca9d7fc21af54ed978891a1808954163303620002cb578154868114620002b857608081868a930185558a620001476200032a565b60028a6102ee938484528a840190600b82528681860193603285525260038c528d2093518455518b840155519101558b5191825286820152600b8b82015260326060820152a1808954163303620002cb578154868114620002b857608081868a930185558a620001b66200032a565b60028a6103e8938484528a84019060338252868186019360c885525260038c528d2093518455518b840155519101558b519182528682015260338b82015260c86060820152a188541633036200028957805494851462000276576080959697508285019055620002256200032a565b60026105dc938483528383019060c982528a840191878352888852600386528b882094518555519084015551910155865193845283015260c9858301526060820152a15161112b90816200034b8239f35b634e487b7160e01b845260118852602484fd5b865162461bcd60e51b815280890183905260096024820152682737ba1030b236b4b760b91b6044820152606490fd5b634e487b7160e01b865260118a52602486fd5b875162461bcd60e51b8152808a0184905260096024820152682737ba1030b236b4b760b91b6044820152606490fd5b601186634e487b7160e01b6000525260246000fd5b600080fd5b634e487b7160e01b600052604160045260246000fd5b60405190606082016001600160401b03811183821017620003145760405256fe6040608081526004908136101561001557600080fd5b600091823560e01c80630373a23a14610c155780630594fd0414610bf65780631261783414610ab45780631355e29f146109d45780631852e8d9146109ab578063196f49141461098c5780631ec8bb8c1461083457806336a79f001461077f578063372500ab14610621578063422c6f8c146105d957806351858e27146105ab5780635603b9f914610573578063649aca4a1461053b57806376ad03bc1461051c5780638aee8127146104d057806392638786146104a95780639ca423b314610431578063acc37bdb14610384578063c49e06aa14610328578063d355271214610275578063db74559b1461023d578063ebb98f04146101f2578063ee172546146101d3578063f7c618c1146101a6578063f851a4401461017f5763ff2011141461013f57600080fd5b3461017b57602036600319011261017b576060928291358152600360205220805491600260018301549201549181519384526020840152820152f35b8280fd5b503461017b578260031936011261017b575490516001600160a01b03909116815260209150f35b5050346101cf57816003193601126101cf5760055490516001600160a01b039091168152602090f35b5080fd5b5050346101cf57816003193601126101cf576020906009549051908152f35b50903461017b57602036600319011261017b57600591610210610ca6565b61022560018060a01b03809354163314610ffd565b16835282602052822001600160ff1982541617905580f35b5050346101cf5760203660031901126101cf5760209181906001600160a01b03610265610ca6565b1681526001845220549051908152f35b50903461017b5760208060031936011261032457610100936001600160a01b0392909190836102a2610ca6565b169081845283835280842095600387015490870154916102c28383610f9a565b9380875260018652816102d781892054611035565b978281526001885260026102ed83832054611035565b9a8c54169b0154928152600188522054958251998a528901528701526060860152608085015260a084015260c083015260e0820152f35b8380fd5b8284346103815780600319360112610381576008549091825b8281106103735750608092821561036c5782915b600954815194855260208501528301526060820152f35b8091610355565b61037c90610cf4565b610341565b80fd5b828434610381578160031936011261038157906001600160a01b03806103a8610ca6565b169081845260019360209085825284812054946103dc6103c7876110a3565b966103d483519889610cbc565b8088526110a3565b8684019590601f19013687378252868352808220549381519682880192885251809252606087019592905b82821061041a5787808888888301520390f35b835181168752958401959284019290880190610407565b509190346101cf5760203660031901126101cf5760c0926001600160a01b039282908461045c610ca6565b16815280602052209083825416936001830154169260028301549060ff600560038601549486015495015416948151968752602087015285015260608401526080830152151560a0820152f35b50913461038157602036600319011261038157506104c960209235611035565b9051908152f35b8382346101cf5760203660031901126101cf576104eb610ca6565b61050060018060a01b03809354163314610ffd565b166bffffffffffffffffffffffff60a01b600554161760055580f35b5050346101cf57816003193601126101cf576020906006549051908152f35b5050346101cf5760203660031901126101cf5760209181906001600160a01b03610563610ca6565b1681526002845220549051908152f35b5050346101cf573660031901126103815761058c610ca6565b6024356001600160a01b038116810361017b576105a891610d19565b80f35b8382346101cf57816003193601126101cf57546105d2906001600160a01b03163314610ffd565b8060065580f35b50903461017b57602036600319011261017b576005916105f7610ca6565b61060c60018060a01b03809354163314610ffd565b1683528260205282200160ff19815416905580f35b503461017b578260031936011261017b573383526020600281526106518385205485835283858720015490610f9a565b9182156107485781836106b0923388528783528087892001610674838254610f8d565b9055600554875163a9059cbb60e01b8152339281019283526020830193909352919384926001600160a01b03169183918a918391604090910190565b03925af191821561073e5761070b93927f106f923f993c2149d49b4255ff723acafa1f2d94393f561d3eda32ae348f724195926106f5928892610711575b5050610fbf565b5133815260208101919091529081906040820190565b0390a180f35b6107309250803d10610737575b6107288183610cbc565b810190610fa7565b38806106ee565b503d61071e565b84513d87823e3d90fd5b60649184519162461bcd60e51b835282015260136024820152724e6f207265776172647320746f20636c61696d60681b6044820152fd5b503461017b57602036600319011261017b5780546107ed916020916001600160a01b03908116906107b1338314610ffd565b600554865163a9059cbb60e01b81526001600160a01b039093168484019081529335602085015291948593919092169183918891839160400190565b03925af1908115610828576105a89250839161080a575b50610fbf565b610822915060203d8111610737576107288183610cbc565b38610804565b505051903d90823e3d90fd5b50903461017b578060031936011261017b576001600160a01b0380610857610ca6565b1684526020938085528281209060ff600583015416156109535782825416948515610922575061088960243586610f53565b948486610899575b518681528790f35b7f5a91a713f126207d46906d994a642f1da493d9f984546740403956e2db950bca9484610909936003606097016108d18b8254610f8d565b9055855260028a528285206108e78a8254610f8d565b90556108f589600954610f8d565b600955541692838152600189522054611035565b8451918252858783015284820152a13880808084610891565b845162461bcd60e51b8152908101879052600b60248201526a2737903932b332b93932b960a91b6044820152606490fd5b835162461bcd60e51b81528086018790526013602482015272526566657272616c206e6f742061637469766560681b6044820152606490fd5b5050346101cf57816003193601126101cf576020906008549051908152f35b5050346101cf57806003193601126101cf576020906104c96109cb610ca6565b60243590610f53565b509190346101cf5760603660031901126101cf57823560243560443590610a0560018060a01b038754163314610ffd565b60075494610a1286610cf4565b6007558451906060820182811067ffffffffffffffff821117610aa157602098509160027fb0962e6966d810bed3fca86ebf29182b8a8681a599007daf4ca9d7fc21af54ed9694926080969489528583528a830184815289808501928784528c815260038e5220935184555160018401555191015585519287845288840152858301526060820152a151908152f35b634e487b7160e01b825260418952602482fd5b503461017b578160031936011261017b5767ffffffffffffffff908035828111610bf257610ae59036908301610c70565b92602435908111610bee57610afd9036908401610c70565b8354909491936001600160a01b0391610b199083163314610ffd565b858303610bbb5750865b828110610b2e578780f35b8082610b46610b41610b639487896110bb565b6110e1565b1689528860205282888a2054161580610b92575b610b6857610cf4565b610b23565b610b8d610b79610b418387896110bb565b610b87610b41848b8b6110bb565b90610d19565b610cf4565b50610ba1610b418289896110bb565b8380610bb1610b4185898b6110bb565b1691161415610b5a565b606490602088519162461bcd60e51b8352820152600d60248201526c125b9d985b1a59081a5b9c1d5d609a1b6044820152fd5b8580fd5b8480fd5b5050346101cf57816003193601126101cf576020906007549051908152f35b50903461017b57602036600319011261017b5781602091610c647f98c9cae42cac91fe8b116dbf81fe47e6b53fd49a362fb687d7ad4aa3114a7ce494359260018060a01b039054163314610ffd565b8160065551908152a180f35b9181601f84011215610ca15782359167ffffffffffffffff8311610ca1576020808501948460051b010111610ca157565b600080fd5b600435906001600160a01b0382168203610ca157565b90601f8019910116810190811067ffffffffffffffff821117610cde57604052565b634e487b7160e01b600052604160045260246000fd5b6000198114610d035760010190565b634e487b7160e01b600052601160045260246000fd5b6001600160a01b0391821691908215610f1b578116808314610ee2576000818152602090808252604093808583205416610eab57806004541633148015610ea2575b15610e6d57845160c0810181811067ffffffffffffffff821117610e595792869492600586937fdf95fdf88668708a802f70f84ff8e4fc24895b160a56c2c0272c493b58d2d8f59a989660609a528881528581018781528582014281528b830190868252608084019287845260a0850196600188528b8952888b52808a8a20965116906bffffffffffffffffffffffff60a01b91828854161787556001870192511690825416179055516002840155516003830155516004820155019051151560ff801983541691161790558581526001835220610e398154610cf4565b9055610e46600854610cf4565b60085582519384528301524290820152a1565b634e487b7160e01b84526041600452602484fd5b845162461bcd60e51b815260048101849052600e60248201526d139bdd08185d5d1a1bdc9a5e995960921b6044820152606490fd5b50833314610d5b565b845162461bcd60e51b815260048101849052601060248201526f105b1c9958591e481c9959995c9c995960821b6044820152606490fd5b60405162461bcd60e51b815260206004820152601160248201527021b0b73737ba103932b332b91039b2b63360791b6044820152606490fd5b60405162461bcd60e51b815260206004820152601060248201526f24b73b30b634b2103932b332b93932b960811b6044820152606490fd5b6001600160a01b0316600090815260016020526040902054610f7490611035565b90818102918183041490151715610d0357612710900490565b91908201809211610d0357565b91908203918211610d0357565b90816020910312610ca157518015158103610ca15790565b15610fc657565b60405162461bcd60e51b815260206004820152600f60248201526e151c985b9cd9995c8819985a5b1959608a1b6044820152606490fd5b1561100457565b60405162461bcd60e51b81526020600482015260096024820152682737ba1030b236b4b760b91b6044820152606490fd5b6007549060005b82811061104b57505050600090565b8060005260036020526040600020600181015483101580611082575b61107a575061107590610cf4565b61103c565b925050505490565b5060028101548015908115611098575b50611067565b905083111538611092565b67ffffffffffffffff8111610cde5760051b60200190565b91908110156110cb5760051b0190565b634e487b7160e01b600052603260045260246000fd5b356001600160a01b0381168103610ca1579056fea2646970667358221220a784201feab28d0fded213b041a002b0d5a3ed9d8ad0001ca8692323d37d5d9664736f6c63430008130033608034620008a657601f62001d4d38819003918201601f19168301916001600160401b038311848410176200067357808492602094604052833981010312620008a657516001600160a01b03811690819003620008a65760018060a01b03193381600354161760035560045416176004556200007a620008cb565b600580825264426173696360d81b6020830152546000198114620006895760018101600555620000a9620008ab565b828152678ac7230489e80000602082015262278d00604082015260056060820152600a6080820152600160a0820152600060c0820152816000526000602052604060002090805180519060018060401b03821162000673578354600181811c911680156200089b575b60208210146200065257601f811162000852575b50602090601f8311600114620007de5791806006949260c094600092620007d2575b50508160011b916000199060031b1c19161784555b6020810151600185015560408101516002850155606081015160038501556080810151600485015560a0810151151560ff80196005870154169116176005850155015191015560405190815260806020820152815180608083015260005b818110620007bb5760008051602062001d2d8339815191528360a081856000838284010152678ac7230489e80000604083015262278d006060830152601f80199101168101030190a16200020e620008cb565b600c81526b141c9bd9995cdcda5bdb985b60a21b60208201526003546001600160a01b031633036200069f57600554600019811462000689576001810160055562000258620008ab565b8281526802b5e3af16b1880000602082015262278d0060408201526032606082015260646080820152600160a0820152600060c0820152816000526000602052604060002090805180519060018060401b03821162000673578354600181811c91168015620007b0575b60208210146200065257601f811162000767575b50602090601f8311600114620006f35791806006949260c094600092620006e7575b50508160011b916000199060031b1c19161784555b602081015160018501556040810151600285015560608101516003850155608081015160048501556005840160a0820151151560ff80198354169116179055015191015560405190815260806020820152815180608083015260005b818110620006d05760008051602062001d2d8339815191528360a0818560008382840101526802b5e3af16b1880000604083015262278d006060830152601f80199101168101030190a1620003bd620008cb565b600a815269456e746572707269736560b01b60208201526003546001600160a01b031633036200069f57600554600019811462000689576001810160055562000405620008ab565b828152680ad78ebc5ac6200000602082015262278d0060408201526101f460608201526103e86080820152600160a0820152600060c0820152816000526000602052604060002090805180519060018060401b03821162000673578354600181811c9116801562000668575b60208210146200065257601f811162000609575b50602090601f8311600114620005955791806006949260c09460009262000589575b50508160011b916000199060031b1c19161784555b602081015160018501556040810151600285015560608101516003850155608081015160048501556005840160a0820151151560ff80198354169116179055015191015560405190815260806020820152815180608083015260005b818110620005725760008051602062001d2d8339815191528360a081856000838284010152680ad78ebc5ac6200000604083015262278d006060830152601f80199101168101030190a16040516114419081620008ec8239f35b80602080928601015160a082860101520162000518565b015190508880620004a7565b908460005260206000209160005b601f1985168110620005f05750926006949260019260c09583601f19811610620005d6575b505050811b018455620004bc565b015160001960f88460031b161c19169055888080620005c8565b91926020600181928685015181550194019201620005a3565b846000526020600020601f840160051c8101602085106200064a575b601f830160051c820181106200063d57505062000485565b6000815560010162000625565b508062000625565b634e487b7160e01b600052602260045260246000fd5b90607f169062000471565b634e487b7160e01b600052604160045260246000fd5b634e487b7160e01b600052601160045260246000fd5b60405162461bcd60e51b81526020600482015260096024820152682737ba1030b236b4b760b91b6044820152606490fd5b80602080928601015160a082860101520162000369565b015190508880620002f8565b908460005260206000209160005b601f19851681106200074e5750926006949260019260c09583601f1981161062000734575b505050811b0184556200030d565b015160001960f88460031b161c1916905588808062000726565b9192602060018192868501518155019401920162000701565b846000526020600020601f840160051c810160208510620007a8575b601f830160051c820181106200079b575050620002d6565b6000815560010162000783565b508062000783565b90607f1690620002c2565b80602080928601015160a0828601015201620001bb565b01519050388062000148565b908460005260206000209160005b601f1985168110620008395750926006949260019260c09583601f198116106200081f575b505050811b0184556200015d565b015160001960f88460031b161c1916905538808062000811565b91926020600181928685015181550194019201620007ec565b846000526020600020601f840160051c81016020851062000893575b601f830160051c820181106200088657505062000126565b600081556001016200086e565b50806200086e565b90607f169062000112565b600080fd5b6040519060e082016001600160401b038111838210176200067357604052565b60408051919082016001600160401b03811183821017620006735760405256fe6080604052600436101561001257600080fd5b60e0600035811c9081630ceff2041461101f5781630f574ba714610e00578163136d888314610d94578163284c7f3514610d0a57816328db4726146102935781633013ce2914610ce15781633efd1bf314610c2b578163492f835014610b7e57816354f79b1c14610b1d5781635f8d26b214610aff57816367f8a8b814610a1e5781636a326ab1146109cd5781636e307981146107cb5781636ffd81f0146106e0578163884e5fff146103fe57508063bf2d9e0b146103e0578063c6738f0614610343578063cf14b9e4146102cd578063ddf4acf314610293578063ec817e0d146101d7578063f851a440146101ae5763fcae44841461011157600080fd5b346101a95760003660031901126101a957336000526001602052604060002060038101805461014260ff8216611376565b60ff19169055546000526000602052600660406000200180548015610193576000190190557f3f7961fecfdd2e8a057c53ea3485024a5b412910ba5015a8fb357e54e08c06bc6020604051338152a1005b634e487b7160e01b600052601160045260246000fd5b600080fd5b346101a95760003660031901126101a9576003546040516001600160a01b039091168152602090f35b346101a95760203660031901126101a9576001600160a01b036101f861123c565b166000526001602052604060002061021660ff600383015416611376565b61022660028201544211156113c8565b805460005260006020526004604060002091019060038254910154811015610255576102519061128a565b9055005b60405162461bcd60e51b8152602060048201526016602482015275141c9bdc195c9d1e481b1a5b5a5d081c995858da195960521b6044820152606490fd5b346101a95760203660031901126101a9576001600160a01b036102b461123c565b1660005260026020526020604060002054604051908152f35b346101a95760203660031901126101a9576001600160a01b036102ee61123c565b16600052600160205260c06040600020805490600181015490600281015460ff6003830154169060056004840154930154936040519586526020860152604085015215156060840152608083015260a0820152f35b346101a95760a03660031901126101a9577f3b8f7b735ea18f3339272b5274fd33ae22952ce60647c6df4d176ec9042755c060606004356024356044359061039660018060a01b03600354163314611252565b6103a36005548410611299565b82600052600060205260406000208160018201558260028201556064356003820155600460843591015560405192835260208301526040820152a1005b346101a95760003660031901126101a9576020600654604051908152f35b346101a95760a03660031901126101a95767ffffffffffffffff906004358281116101a957366023820112156101a95780600401358381116106ca5760405191610452601f8301601f191660200184611134565b81835236602483830101116101a95781600092602460209301838601378301015261048860018060a01b03600354163314611252565b600554916104958361128a565b600555604051908101818110858211176106ca576040528181526024356020820152604435604082015260643560608201526084356080820152600160a0820152600060c082015282600052600060205260406000209080519485519081116106ca5761050283546110fa565b95601f8711610686575b602096508690601f83116001146105f3577f568723e8b256fe0a0b6a3e2ab46b4ebb136a3940f22e11ebf961cafc834d2cf69593836105cd969460069460c0946000926105e8575b50508160011b916000199060031b1c19161784555b8881015160018501556040810151600285015560608101516003850155608081015160048501556105af60a08201511515600586019060ff801983541691151516179055565b015191015560405191829185835260808784015260808301906111fc565b602435604083015260443560608301520390a1604051908152f35b015190508b80610554565b9084600052876000209160005b601f198516811061066f57509360018460069460c0947f568723e8b256fe0a0b6a3e2ab46b4ebb136a3940f22e11ebf961cafc834d2cf69a986105cd9a98601f19811610610656575b505050811b018455610569565b015160001960f88460031b161c191690558b8080610649565b919289600181928685015181550194019201610600565b836000526020600020601f830160051c8101602084106106c3575b601f890160051c820181106106b757505061050c565b600081556001016106a1565b50806106a1565b634e487b7160e01b600052604160045260246000fd5b346101a95760203660031901126101a957610100906001600160a01b0361070561123c565b1660005260016020526040600020805491826000526000602052604060002060ff60038401541693846000146107c35761074860038301546004860154906113bb565b915b85156107ba57600401546005850154610762916113bb565b935b856107ab575b600181015460028201549060056004840154930154936040519815158952602089015260408801526060870152608086015260a085015260c0840152820152f35b6002810154421115955061076a565b50600093610764565b60009161074a565b346101a95760003660031901126101a9573360005260206001815260406000206107fb60ff600383015416611376565b6002810190815462093a7f19810190811161019357421061099357600092815484528381526040842061083460ff6005830154166112d6565b600480546001830180546040516323b872dd60e01b8152339481019490945230602485015260448401529196919491849188916064918391906001600160a01b03165af1928315610987576108e66002610936946108dd7f0844521bd3c7295df35ca72576b1c04b6061d23891276d5c077cd73cbb3d31fc977f7bd379b31566817ff79103ff210fc7d86fa755c249a8dc25f96618362789e1919b60009161095a575b5061132c565b01548754611369565b8655600285549133600052526109026040600020918254611369565b90556109118454600654611369565b6006555493546040805133815260208101879052908101919091529081906060820190565b0390a15460408051338152602081019290925281019190915280606081015b0390a1005b61097a9150863d8811610980575b6109728183611134565b810190611314565b8c6108d7565b503d610968565b6040513d6000823e3d90fd5b60405162461bcd60e51b8152600481018490526012602482015271546f6f206561726c7920746f2072656e657760701b6044820152606490fd5b346101a95760203660031901126101a9576109e661123c565b6003546001600160a01b039190610a009083163314611252565b166bffffffffffffffffffffffff60a01b6004541617600455600080f35b346101a95760403660031901126101a95760006020610a91610a3e61123c565b6003546001600160a01b0390610a579082163314611252565b600454169060405194858094819363a9059cbb60e01b8352602435906004840160209093929193604081019460018060a01b031681520152565b03925af190811561098757600091610ae1575b5015610aac57005b60405162461bcd60e51b815260206004820152600d60248201526c1499599d5b990819985a5b1959609a1b6044820152606490fd5b610af9915060203d8111610980576109728183611134565b81610aa4565b346101a95760003660031901126101a9576020600554604051908152f35b346101a95760203660031901126101a957600435610b4660018060a01b03600354163314611252565b610b536005548210611299565b6000526000602052610b7c600560406000200160ff8154161560ff801983541691151516179055565b005b346101a95760203660031901126101a957600435610b9f6005548210611299565b6000526000602052604060002060018101546006820154928382029082820485148315171561019357610c03946002850154946003810154600482015490610bee60ff60058501541693611156565b97604051998a99610100808c528b01906111fc565b9760208a0152604089015260608801526080870152151560a086015260c08501528301520390f35b346101a95760203660031901126101a9576001600160a01b03610c4c61123c565b1660005260016020526040600020610c6a60ff600383015416611376565b610c7a60028201544211156113c8565b805460005260006020526005604060002091019060048254910154811015610ca5576102519061128a565b60405162461bcd60e51b815260206004820152601460248201527315195b985b9d081b1a5b5a5d081c995858da195960621b6044820152606490fd5b346101a95760003660031901126101a9576004546040516001600160a01b039091168152602090f35b346101a95760203660031901126101a9576004356000526000602052604060002090610d3582611156565b916001810154906002810154906003810154600482015490600660ff60058501541693015493610d6f60405198888a998a528901906111fc565b956020880152604087015260608601526080850152151560a084015260c08301520390f35b346101a95760003660031901126101a957600080600554905b818310610dd55760809250600654906040519283526020830152600060408301526060820152f35b610df4610dfa9184600052600060205260066040600020015490611369565b9261128a565b91610dad565b346101a9576020806003193601126101a957600435610e226005548210611299565b8060005260008252604060002091610e4060ff6005850154166112d6565b33600052600181526040600020600381019160ff835416158015611011575b15610fcd57600480546001870180546040516323b872dd60e01b8152339481019490945230602485015260448401529491939291908290859060649082906000906001600160a01b03165af1928315610987577f7bd379b31566817ff79103ff210fc7d86fa755c249a8dc25f96618362789e1919760006005600693610f0f6080987f75a8f2bbaa92d23ce6c0480c1f9678c0a6dfa57ebaaf72171b010140959ef2629a8591610fb0575061132c565b8a8155426001820155610f26600285015442611369565b9560028201968755600160ff19825416179055826004820155015586543360005260028552610f5b6040600020918254611369565b9055610f6987548354611369565b825501610f76815461128a565b90555485604051923384528301524260408301526060820152a1546040805133815260208101929092528101919091528060608101610955565b610fc79150893d8b11610980576109728183611134565b8e6108d7565b6064906040519062461bcd60e51b82526004820152601a60248201527f41637469766520737562736372697074696f6e206578697374730000000000006044820152fd5b506002820154421015610e5f565b346101a95760203660031901126101a9576000602061108a60018060a01b0380600354169061104f823314611252565b6004805460405163a9059cbb60e01b81526001600160a01b039094168483015290356024840152919485939190921691839182906044820190565b03925af1908115610987576000916110dc575b50156110a557005b60405162461bcd60e51b815260206004820152600f60248201526e151c985b9cd9995c8819985a5b1959608a1b6044820152606490fd5b6110f4915060203d8111610980576109728183611134565b8161109d565b90600182811c9216801561112a575b602083101461111457565b634e487b7160e01b600052602260045260246000fd5b91607f1691611109565b90601f8019910116810190811067ffffffffffffffff8211176106ca57604052565b906040519182600082549261116a846110fa565b9081845260019485811690816000146111d95750600114611196575b505061119492500383611134565b565b9093915060005260209081600020936000915b8183106111c157505061119493508201013880611186565b855488840185015294850194879450918301916111a9565b91505061119494506020925060ff191682840152151560051b8201013880611186565b919082519283825260005b848110611228575050826000602080949584010152601f8019910116010190565b602081830181015184830182015201611207565b600435906001600160a01b03821682036101a957565b1561125957565b60405162461bcd60e51b81526020600482015260096024820152682737ba1030b236b4b760b91b6044820152606490fd5b60001981146101935760010190565b156112a057565b60405162461bcd60e51b815260206004820152600e60248201526d141b185b881b9bdd08199bdd5b9960921b6044820152606490fd5b156112dd57565b60405162461bcd60e51b815260206004820152600f60248201526e506c616e206e6f742061637469766560881b6044820152606490fd5b908160209103126101a9575180151581036101a95790565b1561133357565b60405162461bcd60e51b815260206004820152600e60248201526d14185e5b595b9d0819985a5b195960921b6044820152606490fd5b9190820180921161019357565b1561137d57565b60405162461bcd60e51b815260206004820152601660248201527527379030b1ba34bb329039bab139b1b934b83a34b7b760511b6044820152606490fd5b9190820391821161019357565b156113cf57565b60405162461bcd60e51b815260206004820152601460248201527314dd589cd8dc9a5c1d1a5bdb88195e1c1a5c995960621b6044820152606490fdfea2646970667358221220d2555db481f9927baae929351af932603c3893746bf8159e12d0bbd74e1099a764736f6c63430008130033568723e8b256fe0a0b6a3e2ab46b4ebb136a3940f22e11ebf961cafc834d2cf660808060405234610056576b033b2e3c9fd0803ce8000000600555600480546001600160a01b031916339081179091556000908152600360205260408120805460ff191660011790558055610a98908161005c8239f35b600080fdfe608060408181526004918236101561001657600080fd5b600092833560e01c91826306fdde03146108ca57508163095ea7b31461085957816318160ddd1461083c57816323b872dd146107305781633092afd5146106c5578163313ce567146106a9578163395093511461061e57816340c10f19146104e15783826342966c68146104455750816370a082311461040d5781638da5cb5b146103e557816395d89b4114610381578163983b2d561461030f578163a457c2d71461022157508063a9059cbb14610193578063d5abeb0114610175578063dd62ed3e1461012d5763f46eccc4146100ed57600080fd5b346101295760203660031901126101295760209160ff9082906001600160a01b03610116610966565b1681526003855220541690519015158152f35b5080fd5b50346101295780600319360112610129578060209261014a610966565b610152610981565b6001600160a01b0391821683526002865283832091168252845220549051908152f35b50346101295781600319360112610129576020906005549051908152f35b50346101295780600319360112610129576020916101af610966565b8260243591338452600186526101ca83838620541015610997565b338452600186528184206101df8482546109da565b90556001600160a01b031680845260018652922080546102009083906109fd565b90558251908152600080516020610a43833981519152843392a35160018152f35b82843461030c578160031936011261030c5761023b610966565b90602435338252602094600286528483209360018060a01b031693848452865284832054908282106102c95750849291610274916109da565b33825260028652828220848352865282822055338152600285528181208382528552205482519081527f8c5be1e5ebec7d5bd14f71427d1e84f3dd0314c0f7b2291e5b200ac8c7c3b925843392a35160018152f35b855162461bcd60e51b8152908101879052601e60248201527f44656372656173656420616c6c6f77616e63652062656c6f77207a65726f00006044820152606490fd5b80fd5b90503461037d57602036600319011261037d5761032a610966565b61033f60018060a01b03809354163314610a0a565b168083526003602052908220805460ff191660011790557f6ae172837ea30b801fbfcdd4108aa1d5bf8ff775444fd70256b44e6bf3dfc3f68280a280f35b8280fd5b8383346101295781600319360112610129578051918183019083821067ffffffffffffffff8311176103d25750926103ce9382528252631491539560e21b6020830152519182918261091d565b0390f35b634e487b7160e01b815260418552602490fd5b90503461037d578260031936011261037d575490516001600160a01b03909116815260209150f35b5050346101295760203660031901126101295760209181906001600160a01b03610435610966565b1681526001845220549051908152f35b929150346104dd5760203660031901126104dd573590338352600160205261047282828520541015610997565b33835260016020528083206104888382546109da565b90556104958284546109da565b835580518281527fcc16f5dbb4873280815c1ee09dbd06736cffcc184412cf7a71a0fdb75d397ca560203392a251908152600080516020610a4383398151915260203392a380f35b5050fd5b90503461037d578160031936011261037d576104fb610966565b602435903385526020926003845260ff8587205416801561060b575b156105db5785549061052984836109fd565b600554106105a257509185939161054f82600080516020610a43833981519152956109fd565b855560018060a01b0316948585526001835280852061056f8382546109fd565b9055857f0f6798a560793a54c3bcfe86a93cde1e73087d944c0ea20544137d4121396885848351858152a251908152a380f35b855162461bcd60e51b8152908101859052601360248201527213585e081cdd5c1c1b1e48195e18d959591959606a1b6044820152606490fd5b845162461bcd60e51b8152908101849052600a6024820152692737ba1036b4b73a32b960b11b6044820152606490fd5b5080546001600160a01b03163314610517565b505034610129578060031936011261012957610638610966565b33835281602093600285528181209260018060a01b031692838252855281812061066560243582546109fd565b9055338152600285528181208382528552205482519081527f8c5be1e5ebec7d5bd14f71427d1e84f3dd0314c0f7b2291e5b200ac8c7c3b925843392a35160018152f35b5050346101295781600319360112610129576020905160128152f35b90503461037d57602036600319011261037d576106e0610966565b6106f560018060a01b03809354163314610a0a565b168083526003602052908220805460ff191690557fe94479a9f7e1952cc78f2d6baab678adc1b772d936c6583def489e524cb666928280a280f35b82843461030c57606036600319011261030c5761074b610966565b610753610981565b906044359060018060a01b03809116928385526020966001885261077c84888820541015610997565b848652600288528686203387528852838787205410610804575091858792600080516020610a4383398151915294868852600185528288206107bf8582546109da565b90551695868152600184528181206107d88482546109fd565b9055858152600284528181203382528452206107f58282546109da565b90558551908152a35160018152f35b865162461bcd60e51b81529081018890526012602482015271105b1b1bddd85b98d948195e18d95959195960721b6044820152606490fd5b505034610129578160031936011261012957602091549051908152f35b50503461012957806003193601126101295760209181610877610966565b91602435918291338152600287528181209460018060a01b0316948582528752205582519081527f8c5be1e5ebec7d5bd14f71427d1e84f3dd0314c0f7b2291e5b200ac8c7c3b925843392a35160018152f35b83853461030c578060031936011261030c578183019083821067ffffffffffffffff8311176103d257506103ce93508152600f82526e2932b73a21b430b4b7102a37b5b2b760891b602083015251918291825b6020808252825181830181905290939260005b82811061095257505060409293506000838284010152601f8019910116010190565b818101860151848201604001528501610930565b600435906001600160a01b038216820361097c57565b600080fd5b602435906001600160a01b038216820361097c57565b1561099e57565b60405162461bcd60e51b8152602060048201526014602482015273496e73756666696369656e742062616c616e636560601b6044820152606490fd5b919082039182116109e757565b634e487b7160e01b600052601160045260246000fd5b919082018092116109e757565b15610a1157565b60405162461bcd60e51b81526020600482015260096024820152682737ba1037bbb732b960b91b6044820152606490fdfeddf252ad1be2c89b69c2b068fc378daa952ba7f163c4a11628f55a4df523b3efa2646970667358221220c5698d936bb4b6fa1647f41c5a6019ef466ec50f4007c2c8b40143b2cf2bb20864736f6c6343000813003360803461008657601f6112f538819003918201601f19168301916001600160401b0383118484101761008b5780849260209460405283398101031261008657516001600160a01b038116908190036100865760018060a01b031990816003541617600355338160055416176005553390600454161760045560405161125390816100a28239f35b600080fd5b634e487b7160e01b600052604160045260246000fdfe608080604052600436101561001357600080fd5b60003560e01c90816306964de714610da95750806317a1f82814610c9e57806319ac461414610c175780631ab145b4146109a65780631cb27ba41461098a5780633013ce29146109615780633d36adc5146109095780634364b26e1461074557806346e30135146105f85780635e318e071461051a57806384ac35eb1461048c5780639efa0aa914610467578063a8e7410814610416578063b20e8bcc1461020a578063cad0b8db146101ec578063d3e894831461013c578063dbc837c5146101135763f851a440146100e557600080fd5b3461010e57600036600319011261010e576005546040516001600160a01b039091168152602090f35b600080fd5b3461010e57600036600319011261010e576004546040516001600160a01b039091168152602090f35b3461010e57602036600319011261010e576004356000526000602052610160604060002080549060ff60018060a01b03918260018201541692600282015416600382015460048301546005840154916006850154936008600787015496015497604051998a5260208a015260408901526060880152608087015260a086015260c0850152818116151560e0850152818160081c16151561010085015260101c161515610120830152610140820152f35b3461010e57600036600319011261010e576020600254604051908152f35b3461010e5760208060031936011261010e57600435908160005260008152604060002060018060a01b0380600183015416918233036103d85760078101805461025560ff82166110cd565b60ff8160081c166103a35760ff19169055600581015442039042821161038d57600301546201518061016d920482039082821161038d5781810291818304149015171561038d5704806102cb575b847fbb1ae509b65d9486a686f3f1b0435353031b5607109dc80aa4d063887e10f3e8600080a2005b60035460405163a9059cbb60e01b81526001600160a01b039490941660048501526024840191909152839183916044918391600091165af190811561038157600091610354575b5015610320578080806102a3565b6064906040519062461bcd60e51b82526004820152600d60248201526c1499599d5b990819985a5b1959609a1b6044820152fd5b6103749150823d841161037a575b61036c8183610fa4565b8101906110b5565b83610312565b503d610362565b6040513d6000823e3d90fd5b634e487b7160e01b600052601160045260246000fd5b60405162461bcd60e51b815260048101879052600d60248201526c436c61696d2070656e64696e6760981b6044820152606490fd5b60405162461bcd60e51b815260048101859052601660248201527513db9b1e481d195b985b9d0818d85b8818d85b98d95b60521b6044820152606490fd5b3461010e57602036600319011261010e5761042f611001565b6005546001600160a01b03919061044990831633146111e5565b166bffffffffffffffffffffffff60a01b6004541617600455600080f35b3461010e57600036600319011261010e57602060405169021e19e0c9bab24000008152f35b3461010e57602036600319011261010e576004356104b560018060a01b0360045416331461110d565b80600052600060205260006008604082206007810180546104da60ff82861c16611147565b6104ea60ff8260101c1615611188565b61ff001916905501557f2855af5d2357d4c3ccb4ee7c6848d4dc7d6c0ca5bff9d8d1338fca3d12508283600080a2005b3461010e57602036600319011261010e576000602061058860018060a01b0380600554169061054a8233146111e5565b60035460405163a9059cbb60e01b81526001600160a01b03909316600480850191909152356024840152919485939190921691839182906044820190565b03925af1908115610381576000916105da575b50156105a357005b60405162461bcd60e51b815260206004820152600f60248201526e151c985b9cd9995c8819985a5b1959608a1b6044820152606490fd5b6105f2915060203d811161037a5761036c8183610fa4565b8161059b565b3461010e5760208060031936011261010e576004359060018060a01b036106248160045416331461110d565b82600052600082526106ae826040600020926007840162010000815461064f60ff8260081c16611147565b61065f60ff8260101c1615611188565b62ff00ff191617905560088401549381600186936003541692015416600060405180968195829463a9059cbb60e01b84526004840160209093929193604081019460018060a01b031681520152565b03925af190811561038157600091610728575b50156106f357907f638d892b8630b775fea5d7a52b209e8bfa1d90c32b57cd37208ac84d4bcd6dcb91604051908152a2005b60405162461bcd60e51b815260048101839052600d60248201526c14185e5bdd5d0819985a5b1959609a1b6044820152606490fd5b61073f9150833d851161037a5761036c8183610fa4565b846106c1565b3461010e5760208060031936011261010e5760043590816000526000815260406000209060018060a01b03918260018201541633036108c457600781019060ff82541661088757600681019361079d85544210611078565b600354169160008460038401946064865460405194859384926323b872dd60e01b845233600485015230602485015260448401525af19081156103815760009161086a575b501561083457600160ff198254161790556005429101556301e13380420180421161038d577f7d285524823001f1a9e0eec4efb8c6350708012b991049fd6dd9250f89c8b258935554604051908152a2005b60405162461bcd60e51b815260048101859052600e60248201526d14185e5b595b9d0819985a5b195960921b6044820152606490fd5b6108819150853d871161037a5761036c8183610fa4565b876107e2565b60405162461bcd60e51b8152600481018490526015602482015274506f6c69637920616c72656164792061637469766560581b6044820152606490fd5b60405162461bcd60e51b815260048101839052601b60248201527f4f6e6c792074656e616e742063616e20706179207072656d69756d00000000006044820152606490fd5b3461010e57604036600319011261010e57610922611001565b6001600160a01b031660009081526001602052604090208054602435919082101561010e5760209161095391611017565b90546040519160031b1c8152f35b3461010e57600036600319011261010e576003546040516001600160a01b039091168152602090f35b3461010e57600036600319011261010e57602060405160058152f35b3461010e57608036600319011261010e576024356001600160a01b0381169060043582820361010e576044356001600160a01b038116939084900361010e5760643569021e19e0c9bab24000008111610bde5760058102908082046005148115171561038d5760025494610a198661102f565b6002556301e1338042019687421161038d576040519461016086019580871067ffffffffffffffff881117610bc85760209960647f0f96d7dd7db07c7ea86d9f68e49243f2d9606ef98a362f2f991cc59d22ff26bd978b996040528a8452848d8501528560408501520460608301528560808301524260a083015260c0820152600060e08201526000610100820152600061012082015260006101408201528660005260008a526008610140604060002092805184556001840160018060a01b038e83015116906bffffffffffffffffffffffff60a01b9182825416179055600285019060018060a01b0360408401511690825416179055606081015160038501556080810151600485015560a0810151600585015560c081015160068501556007840160e08201511515815461ff0061010085015115159160ff62ff0000610120880151151560101b1694169062ffffff19161791871b1617179055015191015560005260018852610b9085604060002061103e565b60005260018752610ba584604060002061103e565b604080516001600160a01b039290921682526020820192909252a3604051908152f35b634e487b7160e01b600052604160045260246000fd5b60405162461bcd60e51b8152602060048201526011602482015270086deeccae4c2ceca40e8dede40d0d2ced607b1b6044820152606490fd5b3461010e5760208060031936011261010e576001600160a01b03610c39611001565b166000526001808252604060002091604051918282855491828152019460005282600020926000905b828210610c8957610c8586610c79818a0382610fa4565b60405191829182610fc6565b0390f35b84548752958601959383019390830190610c62565b3461010e57600036600319011261010e57600080600254905b818110610d6c5750610cc8826111cd565b91610cd66040519384610fa4565b808352610ce5601f19916111cd565b0160209036828501376000805b838110610d075760405180610c858782610fc6565b806000526000835260ff60076040600020015416610d2e575b610d299061102f565b610cf2565b908451811015610d5657610d4e818385610d299460051b8901015261102f565b919050610d20565b634e487b7160e01b600052603260045260246000fd5b80600052600060205260ff60076040600020015416610d94575b610d8f9061102f565b610cb7565b91610da1610d8f9161102f565b929050610d86565b3461010e57606036600319011261010e5760043560249182356044359167ffffffffffffffff9283811161010e573660238201121561010e578060040135938411610f8f57602093610e04601f8201601f1916860184610fa4565b8083523687828401011161010e5760009281888794018483013701015282600052600082526040600020600781018054610e4060ff82166110cd565b6001830154336001600160a01b0391821614908115610f7f575b5015610f475760ff8160081c16610f035760048301548411610ec6577f675e9cd1ef5a9bb6971c9f1099eced3c6607be0407bc871bc50a8a7b36832e74959650916008916101008594610eb36006850154421115611078565b61ff0019161790550155604051908152a2005b60405162461bcd60e51b81526004810186905260168189015275436c61696d206578636565647320636f76657261676560501b6044820152606490fd5b60405162461bcd60e51b8152600481018690526017818901527f436c61696d20616c7265616479207375626d69747465640000000000000000006044820152606490fd5b60405162461bcd60e51b815260048101869052601181890152702737ba103837b634b1bc903437b63232b960791b6044820152606490fd5b9050600284015416331488610e5a565b85634e487b7160e01b60005260416004526000fd5b90601f8019910116810190811067ffffffffffffffff821117610bc857604052565b6020908160408183019282815285518094520193019160005b828110610fed575050505090565b835185529381019392810192600101610fdf565b600435906001600160a01b038216820361010e57565b8054821015610d565760005260206000200190600090565b600019811461038d5760010190565b805468010000000000000000811015610bc85761106091600182018155611017565b819291549060031b91821b91600019901b1916179055565b1561107f57565b60405162461bcd60e51b815260206004820152600e60248201526d141bdb1a58de48195e1c1a5c995960921b6044820152606490fd5b9081602091031261010e5751801515810361010e5790565b156110d457565b60405162461bcd60e51b8152602060048201526011602482015270506f6c696379206e6f742061637469766560781b6044820152606490fd5b1561111457565b60405162461bcd60e51b815260206004820152600b60248201526a2737ba1034b739bab932b960a91b6044820152606490fd5b1561114e57565b60405162461bcd60e51b8152602060048201526012602482015271139bc818db185a5b481cdd589b5a5d1d195960721b6044820152606490fd5b1561118f57565b60405162461bcd60e51b815260206004820152601660248201527510db185a5b48185b1c9958591e48185c1c1c9bdd995960521b6044820152606490fd5b67ffffffffffffffff8111610bc85760051b60200190565b156111ec57565b60405162461bcd60e51b81526020600482015260096024820152682737ba1030b236b4b760b91b6044820152606490fdfea2646970667358221220824f3fae565436e85ca9ec0fa8b177233afa96636e1f0940147413390ff7726564736f6c634300081300336080806040523461001657610edd908161001c8239f35b600080fdfe608080604052600436101561001357600080fd5b60003560e01c90816318d0e8b214610b37575080631bf94bf214610b065780631f4ac12914610aae5780632932ebe2146105c5578063396e77e7146105a7578063404a51391461030457806373b1851c14610219578063ac610e88146101f3578063e83ddcea1461013e5763ed10b1dd1461008d57600080fd5b34610139576020366003190112610139576004356000818152602081905260409020546001600160a01b031615610101578060005260006020526007604060002001600160ff198254161790557f6c791c617591653cc115cd51ccea47bba48c18c394a2ea4435fed2528f5ed665600080a2005b60405162461bcd60e51b815260206004820152601060248201526f14995d9a595dc81b9bdd08199bdd5b9960821b6044820152606490fd5b600080fd5b34610139576020366003190112610139576004356000526000602052604060002060018060a01b0380825416906001830154169160028101546101e260ff6003840154166101d461019160048601610d49565b61019d60058701610d49565b9260ff600760068901549801541695604051998a998a5260208a015260408901526060880152610100806080890152870190610ccf565b9085820360a0870152610ccf565b9160c0840152151560e08301520390f35b34610139576020366003190112610139576020610211600435610e38565b604051908152f35b346101395760208060031936011261013957610233610bc1565b600380546000928392906001600160a01b03908116845b8481106102885787878781158061027e576102685704604051908152f35b634e487b7160e01b600052601260045260246000fd5b5050506000610211565b80600052600088526040600020828460018301541614806102f6575b6102b8575b506102b390610def565b61024a565b8460ff919897929801541681018091116102e0576102d96102b39196610def565b96906102a9565b634e487b7160e01b600052601160045260246000fd5b5060ff6007820154166102a4565b34610139576020806003193601126101395760038054916004358381111561059f575091805b61033381610e7b565b926103416040519485610c56565b818452601f19918261035282610e7b565b01368787013761036181610e7b565b9361036f6040519586610c56565b8185528361037c83610e7b565b0160005b8181106105485750506000198082019180831160005b85811061047c578a8a8a8a6103b660405193604085526040850190610bd7565b938385038185015282519081865280860181808460051b8901019501936000975b8489106103e45787870388f35b909192939495848082858560019503018752895190848060a01b0380835116825283830151168382015260408201516040820152606060ff81840151169082015260e080610458610445608080870151906101008091880152860190610ccf565b60a0808701519086830390870152610ccf565b9360c0808201519085015201511515910152980194019801979190949392946103d7565b819a979a6102e0578381840301908582116102e05781610540926104a0838e610e93565b52600052600089526040600020604051906104ba82610c39565b80546001600160a01b0390811683526001820154168b830152600281015460408301528981015460ff9081166060840152906007906104fb60048201610d49565b608085015261050c60058201610d49565b60a0850152600681015460c0850152015416151560e082015261052f828c610e93565b5261053a818b610e93565b50610def565b999699610396565b9780959860409493945161055b81610c39565b6000815260008382015260006040820152606060008183015280608083015260a0820152600060c0820152600060e082015282828a01015201979497929192610380565b92909261032a565b34610139576000366003190112610139576020600354604051908152f35b346101395760a0366003190112610139576105de610bc1565b6044359060ff821682036101395760643567ffffffffffffffff81116101395761060c903690600401610c78565b60843567ffffffffffffffff81116101395761062c903690600401610c78565b600160ff8516101580610aa0575b15610a6a57602435600052600260205260ff60406000205416610a25576003549161066483610def565b60035560ff6040519561067687610c39565b33875260018060a01b03861660208801526024356040880152166060860152608085015260a08401524260c0840152600060e084015280600052600060205260406000209260018060a01b038151166bffffffffffffffffffffffff60a01b9081865416178555600185019060018060a01b0360208401511690825416179055604081015160028501556003840160ff60608301511660ff19825416179055608081015180519067ffffffffffffffff821161093f57819061073b6004880154610d0f565b601f81116109d2575b50602090601f831160011461096057600092610955575b50508160011b916000199060031b1c19161760048501555b60a081015193845167ffffffffffffffff811161093f576107976005830154610d0f565b95601f87116108f8575b602096508690601f831160011461088757918060e0949260079460009261087c575b50508160011b916000199060031b1c19161760058201555b60c0840151600682015501910151151560ff80198354169116179055336000526001835261080d816040600020610dfe565b60018060a01b0382166000526001835261082b816040600020610dfe565b602435600052600283526040600020600160ff198254161790556040519160018060a01b031633827f7a1fdd90c3193bbed48d66a2360ac4036187df7f3947ce2c9463476ae7906d49600080a48152f35b0151905089806107c3565b90601f1983169160058501600052886000209260005b8181106108e1575092600192859260079660e09896106108c8575b505050811b0160058201556107db565b015160001960f88460031b161c191690558980806108b8565b92938a60018192878601518155019501930161089d565b600583016000526020600020601f830160051c810160208410610938575b601f890160051c8201811061092c5750506107a1565b60008155600101610916565b5080610916565b634e487b7160e01b600052604160045260246000fd5b01519050868061075b565b9250600487016000526020600020906000935b601f19841685106109b7576001945083601f1981161061099e575b505050811b016004850155610773565b015160001960f88460031b161c1916905586808061098e565b81810151835560209485019460019093019290910190610973565b909150600487016000526020600020601f840160051c810160208510610a1e575b90849392915b601f830160051c82018110610a0f575050610744565b600081558594506001016109f9565b50806109f3565b60405162461bcd60e51b815260206004820152601a60248201527f41677265656d656e7420616c72656164792072657669657765640000000000006044820152606490fd5b60405162461bcd60e51b815260206004820152600e60248201526d496e76616c696420726174696e6760901b6044820152606490fd5b50600560ff8516111561063a565b3461013957604036600319011261013957610ac7610bc1565b6001600160a01b031660009081526001602052604090208054602435919082101561013957602091610af891610c0b565b90546040519160031b1c8152f35b34610139576020366003190112610139576004356000526002602052602060ff604060002054166040519015158152f35b3461013957602080600319360112610139576001600160a01b03610b59610bc1565b16600052600180825282604060002080549283835284830191600052846000209060005b86868210610bab578590610b9382870383610c56565b610ba7604051928284938452830190610bd7565b0390f35b8354855288955090930192918101918101610b7d565b600435906001600160a01b038216820361013957565b90815180825260208080930193019160005b828110610bf7575050505090565b835185529381019392810192600101610be9565b8054821015610c235760005260206000200190600090565b634e487b7160e01b600052603260045260246000fd5b610100810190811067ffffffffffffffff82111761093f57604052565b90601f8019910116810190811067ffffffffffffffff82111761093f57604052565b81601f820112156101395780359067ffffffffffffffff821161093f5760405192610cad601f8401601f191660200185610c56565b8284526020838301011161013957816000926020809301838601378301015290565b919082519283825260005b848110610cfb575050826000602080949584010152601f8019910116010190565b602081830181015184830182015201610cda565b90600182811c92168015610d3f575b6020831014610d2957565b634e487b7160e01b600052602260045260246000fd5b91607f1691610d1e565b9060405191826000825492610d5d84610d0f565b908184526001948581169081600014610dcc5750600114610d89575b5050610d8792500383610c56565b565b9093915060005260209081600020936000915b818310610db4575050610d8793508201013880610d79565b85548884018501529485019487945091830191610d9c565b915050610d8794506020925060ff191682840152151560051b8201013880610d79565b60001981146102e05760010190565b80546801000000000000000081101561093f57610e2091600182018155610c0b565b819291549060031b91821b91600019901b1916179055565b600354906000805b838110610e51575050505060001990565b8082528160205282600260408420015414610e7457610e6f90610def565b610e40565b9250505090565b67ffffffffffffffff811161093f5760051b60200190565b8051821015610c235760209160051b01019056fea26469706673582212206d0720c222312c923c04605d125eefe3c5d7fbe39645d263de746aa3339299ea64736f6c6343000813003360803461009557601f610cb638819003918201601f19168301916001600160401b0383118484101761009a57808492604094855283398101031261009557610052602061004b836100b0565b92016100b0565b60018060a01b03908160018060a01b03199316836000541617600055168160015416176001553390600754161760075543600555604051610bf190816100c58239f35b600080fd5b634e487b7160e01b600052604160045260246000fd5b51906001600160a01b03821682036100955756fe6040608081526004908136101561001557600080fd5b600091823560e01c9081628cc2621461097557816316934fc4146109165781631820cabb146108f85781632e1a7d4d1461078d57816331d7a262146107535781633d18b9121461066a5781635997bb371461064e57816372f702f314610626578163817b1cd2146106085781638da5cb5b146105df5781639e447fc6146105a3578163a218141b14610584578163a694fc3a146103d557838263beceed391461032e57508163c345315314610299578163cd3daf9d14610275578163d1af0c7d1461024c578163db2e21bc14610116575063df136d65146100f557600080fd5b346101125781600319360112610112576020906006549051908152f35b5080fd5b90503461024857826003193601126102485733835260206002815282842091825492831561021b578361019a9287859355610152828254610a8b565b815533808952600384528789208990558854885163a9059cbb60e01b81529283019182526020820193909352909384926001600160a01b03169183918a918391604090910190565b03925af1908115610211577f5fafa99d0643513820be26656b45130b01e1c03062e1266bf36f88cbd3bd96959394916101da9187916101e4575b50610a17565b519283523392a280f35b6102049150843d861161020a575b6101fc81836109d8565b8101906109fa565b386101d4565b503d6101f2565b84513d87823e3d90fd5b5060649184519162461bcd60e51b835282015260086024820152674e6f207374616b6560c01b6044820152fd5b8280fd5b50503461011257816003193601126101125760015490516001600160a01b039091168152602090f35b505034610112578160031936011261011257602090610292610a98565b9051908152f35b839150346101125760203660031901126101125735906001600160a01b038216808303610112578152600260205282902082519261032a916102da856109a6565b6103088154948587526001830154968760208201526060600360028601549586888501520154910152610afa565b9151948594859094939260609260808301968352602083015260408201520152565b0390f35b9150346101125760203660031901126101125761039260209160018060a01b0361035d81600754163314610b83565b60015486516323b872dd60e01b8152338185019081523060208201529335604085015295869492909116928492839160600190565b03925af19081156103c9576103ae925083916103b15750610a17565b80f35b610204915060203d811161020a576101fc81836109d8565b505051903d90823e3d90fd5b83833461011257602080600319360112610248578335916103f4610a98565b600655436005553361056b575b82156105375733845260028252808420805461051e575b845482516323b872dd60e01b815233818901908152306020820152604081018790529091859183916001600160a01b03169082908a90829060600103925af1908115610514579061046f9187916104f75750610a17565b61047a848254610a55565b80825542600183015562278d0042018042116104e4576104ca839260039260027f9e71bc8eea02a63969f509818f2dafb9254532904319f9dbda79b67bd34a5f3d999a9b96015560065490610a78565b9101556104d8858254610a55565b9055519283523392a280f35b634e487b7160e01b875260118852602487fd5b61050e9150853d871161020a576101fc81836109d8565b886101d4565b83513d88823e3d90fd5b61052733610afa565b3386526003845282862055610418565b5162461bcd60e51b815280850191909152600e60248201526d043616e6e6f74207374616b6520360941b6044820152606490fd5b61057433610afa565b3385526003835281852055610401565b5050346101125781600319360112610112576020906005549051908152f35b83346105dc5760203660031901126105dc576105ca60018060a01b03600754163314610b83565b6105d2610a98565b6006554360055580f35b80fd5b50503461011257816003193601126101125760075490516001600160a01b039091168152602090f35b90503461024857826003193601126102485760209250549051908152f35b505034610112578160031936011261011257905490516001600160a01b039091168152602090f35b5050346101125781600319360112610112576020905160648152f35b91905034610248578260031936011261024857610685610a98565b6006554360055533610739575b33835260036020528083209183835493846106ab575080f35b55600154825163a9059cbb60e01b815233928101928352602080840186905290929091839182900360400190829088906001600160a01b03165af190811561072f57906106fe9185916103b15750610a17565b519081527fe2403640ba68fed3a2f88b7557551d1993f84b99bb10ff833f0cf8db0c5e048660203392a23880808380f35b82513d86823e3d90fd5b61074233610afa565b338452600360205281842055610692565b90503461024857602036600319011261024857356001600160a01b0381169081900361024857828291602094526003845220549051908152f35b905034610248576020806003193601126108f4578135916107ac610a98565b60065543600555336108db575b3385526002825283852080548481106108a2576002820154421061086f576108309284926107e8878094610a8b565b90556107f5828254610a8b565b81558754875163a9059cbb60e01b8152339281019283526020830193909352919384926001600160a01b03169183918a918391604090910190565b03925af1908115610211577f7084f5476618d8e60b11ef0d7d3f06914655adb8793e28ff7f018d4c76d505d59394916101da9187916101e45750610a17565b855162461bcd60e51b8152808401859052600d60248201526c151bdad95b9cc81b1bd8dad959609a1b6044820152606490fd5b855162461bcd60e51b81528084018590526013602482015272125b9cdd59999a58da595b9d081cdd185ad959606a1b6044820152606490fd5b6108e433610afa565b33865260038352848620556107b9565b8380fd5b5050346101125781600319360112610112576020905162278d008152f35b90503461024857602036600319011261024857356001600160a01b038116908190036102485782526002602081815292829020805460018201549282015460039092015493519081529384019190915260408301526060820152608090f35b9050346102485760203660031901126102485735916001600160a01b03831683036105dc5750610292602092610afa565b6080810190811067ffffffffffffffff8211176109c257604052565b634e487b7160e01b600052604160045260246000fd5b90601f8019910116810190811067ffffffffffffffff8211176109c257604052565b90816020910312610a1257518015158103610a125790565b600080fd5b15610a1e57565b60405162461bcd60e51b815260206004820152600f60248201526e151c985b9cd9995c8819985a5b1959608a1b6044820152606490fd5b91908201809211610a6257565b634e487b7160e01b600052601160045260246000fd5b81810292918115918404141715610a6257565b91908203918211610a6257565b6004548015610af357610aad60055443610a8b565b606481029181830460641482151715610a625768056bc75e2d63100000600654920292808404670de0b6b3a76400001490151715610a6257610af0920490610a55565b90565b5060065490565b610af09060018060a01b0316806000526002602052670de0b6b3a7640000610b7c604060002092610b76600360405195610b33876109a6565b80548752600181015460208801526002810154604088015201549160608601928352610b5d610a98565b9060005260036020526040600020549551925190610a8b565b90610a78565b0490610a55565b15610b8a57565b60405162461bcd60e51b81526020600482015260096024820152682737ba1037bbb732b960b91b6044820152606490fdfea2646970667358221220c900fbdaf44f1309a5523e4320a98b4a61f75db23f36afc1c4e6fc0fb37e204e64736f6c6343000813003360808060405234610040573360018060a01b031960025416176002553360005260016020526040600020600160ff198254161790556116de90816100468239f35b600080fdfe608080604052600436101561001357600080fd5b60e0600035811c91826314d0f1ba14611312575081634b084d77146110055781634d81312014610f4c578163869d785f14610f005781639247db6314610d4357816393e54a56146107855781639483f25c14610282578163a87430ba146101a357508063ace417e014610161578063b532e4cb14610110578063baccbfdb146100d35763f851a440146100a557600080fd5b346100ce5760003660031901126100ce576002546040516001600160a01b039091168152602090f35b600080fd5b346100ce5760203660031901126100ce576001600160a01b036100f461134d565b1660005260006020526020600560406000200154604051908152f35b346100ce5760203660031901126100ce5761012961134d565b6002546001600160a01b039190610143908316331461162e565b1660005260016020526040600020600160ff19825416179055600080f35b346100ce5760203660031901126100ce576001600160a01b0361018261134d565b166000526000602052602060ff600460406000200154166040519015158152f35b346100ce5760203660031901126100ce5761023f906001600160a01b036101c861134d565b16600052600060205260406000206101df816114ea565b916101ec600183016114ea565b906101f9600284016114ea565b92610206600382016114ea565b9361026960ff6004840154169561025b60058501549361024d60076006880154970154986040519c8d9c8d610100908181520190611363565b8c810360208e015290611363565b908a820360408c0152611363565b9088820360608a0152611363565b941515608087015260a086015260c08501528301520390f35b346100ce5761029036611439565b9233600052602093600085526102aa6040600020546114b0565b1561074f57336000526000855260406000209282519367ffffffffffffffff948581116104fc57806102dc83546114b0565b95601f96878111610700575b50899087831160011461069b57600092610690575b50508160011b916000199060031b1c19161790555b336000526000865260019485604060002001908051908682116104fc57819061033b84546114b0565b87811161063f575b5089908783116001146105dc576000926105d1575b5050600019600383901b1c191690871b1790555b33600052600086526002604060002001908051908582116104fc57819061039384546114b0565b868111610580575b50889086831160011461051d57600092610512575b5050600019600383901b1c191690861b1790555b336000526000855260036040600020019481519384116104fc576103e886546114b0565b8381116104b6575b50809284116001146104505750928293918392600094610445575b50501b916000199060031b1c19161790555b337fbe4ec58a792f909e102ee3d745d0c3b34a4d437a54d903c4db098d31c556422f600080a2005b01519250858061040b565b919083601f1981168760005284600020946000905b8883831061049c5750505010610483575b505050811b01905561041d565b015160001960f88460031b161c19169055838080610476565b858701518855909601959485019487935090810190610465565b86600052816000208480870160051c8201928488106104f3575b0160051c019086905b8281106104e75750506103f0565b600081550186906104d9565b925081926104d0565b634e487b7160e01b600052604160045260246000fd5b0151905088806103b0565b90889350601f19831691856000528a6000209260005b8c82821061056a5750508411610551575b505050811b0190556103c4565b015160001960f88460031b161c19169055888080610544565b8385015186558c97909501949384019301610533565b90915083600052886000208680850160051c8201928b86106105c8575b918a91869594930160051c01915b8281106105b957505061039b565b600081558594508a91016105ab565b9250819261059d565b015190508980610358565b90899350601f19831691856000528b6000209260005b8d8282106106295750508411610610575b505050811b01905561036c565b015160001960f88460031b161c19169055898080610603565b8385015186558d979095019493840193016105f2565b90915083600052896000208780850160051c8201928c8610610687575b918b91869594930160051c01915b828110610678575050610343565b600081558594508b910161066a565b9250819261065c565b0151905089806102fd565b60008581528b81209350601f198516905b8c8282106106ea5750509084600195949392106106d1575b505050811b019055610312565b015160001960f88460031b161c191690558980806106c4565b60018596829396860151815501950193016106ac565b90915083600052896000208780850160051c8201928c8610610746575b9085949392910160051c01905b81811061073757506102e8565b6000815584935060010161072a565b9250819261071d565b60405162461bcd60e51b815260048101869052600e60248201526d139bdd081c9959da5cdd195c995960921b6044820152606490fd5b346100ce5761079336611439565b90939192933360005260006020526107af6040600020546114b0565b610d0957604051936107c0856113a3565b85855260208501526040840152606083015260006080830152603260a08301524260c0830152600081830152336000526000602052604060002091805180519067ffffffffffffffff82116104fc57819061081b86546114b0565b601f8111610cb9575b50602090601f8311600114610c4d57600092610c42575b50508160011b916000199060031b1c19161783555b602081015180519067ffffffffffffffff82116104fc57819061087660018701546114b0565b601f8111610bef575b50602090601f8311600114610b7d57600092610b72575b50508160011b916000199060031b1c19161760018401555b604081015180519067ffffffffffffffff82116104fc5781906108d460028701546114b0565b601f8111610b1f575b50602090601f8311600114610aad57600092610aa2575b50508160011b916000199060031b1c19161760028401555b606081015180519067ffffffffffffffff82116104fc5761093060038601546114b0565b601f8111610a5b575b50602090601f83116001146109e757600794939291600091836109dc575b50508160011b916000199060031b1c19161760038501555b600484016080820151151560ff8019835416911617905560a0810151600585015560c0810151600685015501519101557f48cac28ad4dc618e15f4c2dd5e97751182f166de97b25618318b2112aa951a2f60405160208152806109d733946020830190611363565b0390a2005b015190508780610957565b906003860160005260206000209160005b601f1985168110610a4357509183916001936007979695601f19811610610a2a575b505050811b01600385015561096f565b015160001960f88460031b161c19169055878080610a1a565b919260206001819286850151815501940192016109f8565b600386016000526020600020601f840160051c810160208510610a9b575b601f830160051c82018110610a8f575050610939565b60008155600101610a79565b5080610a79565b0151905086806108f4565b9250600286016000526020600020906000935b601f1984168510610b04576001945083601f19811610610aeb575b505050811b01600284015561090c565b015160001960f88460031b161c19169055868080610adb565b81810151835560209485019460019093019290910190610ac0565b909150600286016000526020600020601f840160051c810160208510610b6b575b90849392915b601f830160051c82018110610b5c5750506108dd565b60008155859450600101610b46565b5080610b40565b015190508680610896565b9250600186016000526020600020906000935b601f1984168510610bd4576001945083601f19811610610bbb575b505050811b0160018401556108ae565b015160001960f88460031b161c19169055868080610bab565b81810151835560209485019460019093019290910190610b90565b909150600186016000526020600020601f840160051c810160208510610c3b575b90849392915b601f830160051c82018110610c2c57505061087f565b60008155859450600101610c16565b5080610c10565b01519050868061083b565b9250856000526020600020906000935b601f1984168510610c9e576001945083601f19811610610c85575b505050811b018355610850565b015160001960f88460031b161c19169055868080610c78565b81810151835560209485019460019093019290910190610c5d565b909150856000526020600020601f840160051c810160208510610d02575b90849392915b601f830160051c82018110610cf3575050610824565b60008155859450600101610cdd565b5080610cd7565b60405162461bcd60e51b8152602060048201526012602482015271105b1c9958591e481c9959da5cdd195c995960721b6044820152606490fd5b346100ce5760403660031901126100ce57610d5c61134d565b602435336000526020916001835260ff604060002054168015610eec575b610d8390611590565b60018060a01b0316918260005260008152610dac610da56040600020546114b0565b15156115cc565b6000821315610e425782600052600081526005604060002001918254908101809111610e2c577ffc577563f1b9a0461e24abef1e1fcc0d33d3d881f20b5df6dda59de4aae2c82192555b82600052600081526007604060002001610e10815461161f565b90558260005260008152600560406000200154604051908152a2005b634e487b7160e01b600052601160045260246000fd5b908260005260008252600560406000200154610e5d8261160e565b1015610eb257610e6c9061160e565b9082600052600081526005604060002001918254908103908111610e2c577ffc577563f1b9a0461e24abef1e1fcc0d33d3d881f20b5df6dda59de4aae2c8219255610df6565b507ffc577563f1b9a0461e24abef1e1fcc0d33d3d881f20b5df6dda59de4aae2c82190826000526000815260006005604082200155610df6565b506002546001600160a01b03163314610d7a565b346100ce5760203660031901126100ce57610f1961134d565b6002546001600160a01b039190610f33908316331461162e565b166000908152600160205260409020805460ff19169055005b346100ce5760203660031901126100ce57610f6561134d565b33600052600160205260ff604060002054168015610ff1575b610f8790611590565b60018060a01b0316806000526000602052610fa9610da56040600020546114b0565b8060005260006020526004604060002001600160ff198254161790557fbfb2fa25f828a712fda370028ecc8813c7082c69b239a579753b10e24dd472cc6020604051338152a2005b506002546001600160a01b03163314610f7e565b346100ce5760403660031901126100ce5760243561102281611666565b9161103060405193846113c0565b81835261103c82611666565b92602080820191601f1980960136843761105585611666565b61106260405191826113c0565b8581528661106f87611666565b018360005b8281106112c9575050506000936004355b878610806112b9575b156111a1576001600160a01b038116600081815280875260409020546110b3906114b0565b151580611187575b6110cf575b506110ca9061161f565b611085565b8681611180926110e36110ca959a8961167e565b526000526000875260406000206007604051916110ff836113a3565b611108816114ea565b8352611116600182016114ea565b8a840152611126600282016114ea565b6040840152611137600382016114ea565b606084015260ff60048201541615156080840152600581015460a0840152600681015460c084015201548a82015261116f828761167e565b5261117a818661167e565b5061161f565b95906110c0565b50806000526000865260ff600460406000200154166110bb565b5092859288916040519460408601926040875251809352606092838701979060005b81811061129c57505050858703828701528451928388528288019183808660051b8b01019701956000995b868b106111fb578989038af35b90919293949596978680828585600195030189528b519087806112626112526112406112308751610100808952880190611363565b888801518782038a890152611363565b60408701518682036040880152611363565b858d0151858203868f0152611363565b9360808082015115159085015260a0808201519085015260c0808201519085015201519101529a0196019a019993929190969594966111ee565b82516001600160a01b03168a5298840198918401916001016111c3565b506001600160a01b03811061108e565b6040516112d5816113a3565b606080825280848301528060408301528082015260006080820152600060a0820152600060c0820152600089820152828286010152018490611074565b346100ce5760203660031901126100ce576020906001600160a01b0361133661134d565b166000526001825260ff6040600020541615158152f35b600435906001600160a01b03821682036100ce57565b919082519283825260005b84811061138f575050826000602080949584010152601f8019910116010190565b60208183018101518483018201520161136e565b610100810190811067ffffffffffffffff8211176104fc57604052565b90601f8019910116810190811067ffffffffffffffff8211176104fc57604052565b81601f820112156100ce5780359067ffffffffffffffff82116104fc5760405192611417601f8401601f1916602001856113c0565b828452602083830101116100ce57816000926020809301838601378301015290565b60806003198201126100ce5767ffffffffffffffff906004358281116100ce5781611466916004016113e2565b926024358381116100ce578261147e916004016113e2565b926044358181116100ce5783611496916004016113e2565b926064359182116100ce576114ad916004016113e2565b90565b90600182811c921680156114e0575b60208310146114ca57565b634e487b7160e01b600052602260045260246000fd5b91607f16916114bf565b90604051918260008254926114fe846114b0565b90818452600194858116908160001461156d575060011461152a575b5050611528925003836113c0565b565b9093915060005260209081600020936000915b8183106115555750506115289350820101388061151a565b8554888401850152948501948794509183019161153d565b91505061152894506020925060ff191682840152151560051b820101388061151a565b1561159757565b60405162461bcd60e51b815260206004820152600d60248201526c2737ba1036b7b232b930ba37b960991b6044820152606490fd5b156115d357565b60405162461bcd60e51b8152602060048201526013602482015272155cd95c881b9bdd081c9959da5cdd195c9959606a1b6044820152606490fd5b600160ff1b8114610e2c5760000390565b6000198114610e2c5760010190565b1561163557565b60405162461bcd60e51b81526020600482015260096024820152682737ba1030b236b4b760b91b6044820152606490fd5b67ffffffffffffffff81116104fc5760051b60200190565b80518210156116925760209160051b010190565b634e487b7160e01b600052603260045260246000fdfea26469706673582212209d1728393159528f18e730195abd7e7195cbcd747f3181a8e38de6cc51582fa364736f6c63430008130033a264697066735822122053845da2a5658ce6bd2cde0156af58b430311d538418ebcf8dcf110cc191e33e64736f6c63430008130033608080604052346013576041908160198239f35b600080fdfe3615600957600080fd5b00fea2646970667358221220a57994f6afc52f637898bea85b3ac32b56b875c6f4f67ed277a964b2ab95a25664736f6c63430008130033a2646970667358221220a8584f1dfb66e89e50485bd3b620975291868ecb9d9e62eac5038fdfb357250364736f6c63430008130033",
  "linkReferences": {},
  "deployedLinkReferences": {}
}