{
  "_format": "hh-sol-artifact-1",
  "contractName": "RentChainSubscriptions",
  "sourceName": "contracts/RentChainSubscriptions.sol",
  "abi": [
    {
      "inputs": [
        {
          "internalType": "address",
          "name": "_paymentToken",
          "type": "address"
        }
      ],
      "stateMutability": "nonpayable",
      "type": "constructor"
    },
    {
      "anonymous": false,
      "inputs": [
        {
          "indexed": false,
          "internalType": "address",
          "name": "user",
          "type": "address"
        },
        {
          "indexed": false,
          "internalType": "uint256",
          "name": "amount",
          "type": "uint256"
        },
        {
          "indexed": false,
          "internalType": "uint256",
          "name": "planId",
          "type": "uint256"
        }
      ],
      "name": "PaymentProcessed",
      "type": "event"
    },
    {
      "anonymous": false,
      "inputs": [
        {
          "indexed": false,
          "internalType": "uint256",
          "name": "planId",
          "type": "uint256"
        },
        {
          "indexed": false,
          "internalType": "string",
          "name": "name",
          "type": "string"
        },
        {
          "indexed": false,
          "internalType": "uint256",
          "name": "price",
          "type": "uint256"
        },
        {
          "indexed": false,
          "internalType": "uint256",
          "name": "duration",
          "type": "uint256"
        }
      ],
      "name": "SubscriptionPlanCreated",
      "type": "event"
    },
    {
      "anonymous": false,
      "inputs": [
        {
          "indexed": false,
          "internalType": "uint256",
          "name": "planId",
          "type": "uint256"
        },
        {
          "indexed": false,
          "internalType": "uint256",
          "name": "price",
          "type": "uint256"
        },
        {
          "indexed": false,
          "internalType": "uint256",
          "name": "duration",
          "type": "uint256"
        }
      ],
      "name": "SubscriptionPlanUpdated",
      "type": "event"
    },
    {
      "anonymous": false,
      "inputs": [
        {
          "indexed": false,
          "internalType": "address",
          "name": "user",
          "type": "address"
        },
        {
          "indexed": false,
          "internalType": "uint256",
          "name": "planId",
          "type": "uint256"
        },
        {
          "indexed": false,
          "internalType": "uint256",
          "name": "newEndDate",
          "type": "uint256"
        }
      ],
      "name": "SubscriptionRenewed",
      "type": "event"
    },
    {
      "anonymous": false,
      "inputs": [
        {
          "indexed": false,
          "internalType": "address",
          "name": "user",
          "type": "address"
        },
        {
          "indexed": false,
          "internalType": "uint256",
          "name": "planId",
          "type": "uint256"
        },
        {
          "indexed": false,
          "internalType": "uint256",
          "name": "startDate",
          "type": "uint256"
        },
        {
          "indexed": false,
          "internalType": "uint256",
          "name": "endDate",
          "type": "uint256"
        }
      ],
      "name": "UserSubscribed",
      "type": "event"
    },
    {
      "anonymous": false,
      "inputs": [
        {
          "indexed": false,
          "internalType": "address",
          "name": "user",
          "type": "address"
        }
      ],
      "name": "UserUnsubscribed",
      "type": "event"
    },
    {
      "inputs": [],
      "name": "admin",
      "outputs": [
        {
          "internalType": "address",
          "name": "",
          "type": "address"
        }
      ],
      "stateMutability": "view",
      "type": "function"
    },
    {
      "inputs": [
        {
          "internalType": "string",
          "name": "name",
          "type": "string"
        },
        {
          "internalType": "uint256",
          "name": "price",
          "type": "uint256"
        },
        {
          "internalType": "uint256",
          "name": "duration",
          "type": "uint256"
        },
        {
          "internalType": "uint256",
          "name": "maxProperties",
          "type": "uint256"
        },
        {
          "internalType": "uint256",
          "name": "maxTenants",
          "type": "uint256"
        }
      ],
      "name": "createSubscriptionPlan",
      "outputs": [
        {
          "internalType": "uint256",
          "name": "",
          "type": "uint256"
        }
      ],
      "stateMutability": "nonpayable",
      "type": "function"
    },
    {
      "inputs": [
        {
          "internalType": "address",
          "name": "user",
          "type": "address"
        },
        {
          "internalType": "uint256",
          "name": "amount",
          "type": "uint256"
        }
      ],
      "name": "emergencyRefund",
      "outputs": [],
      "stateMutability": "nonpayable",
      "type": "function"
    },
    {
      "inputs": [
        {
          "internalType": "uint256",
          "name": "planId",
          "type": "uint256"
        }
      ],
      "name": "getPlanStats",
      "outputs": [
        {
          "internalType": "string",
          "name": "name",
          "type": "string"
        },
        {
          "internalType": "uint256",
          "name": "price",
          "type": "uint256"
        },
        {
          "internalType": "uint256",
          "name": "duration",
          "type": "uint256"
        },
        {
          "internalType": "uint256",
          "name": "maxProperties",
          "type": "uint256"
        },
        {
          "internalType": "uint256",
          "name": "maxTenants",
          "type": "uint256"
        },
        {
          "internalType": "bool",
          "name": "isActive",
          "type": "bool"
        },
        {
          "internalType": "uint256",
          "name": "totalSubscribers",
          "type": "uint256"
        },
        {
          "internalType": "uint256",
          "name": "totalRevenueFromPlan",
          "type": "uint256"
        }
      ],
      "stateMutability": "view",
      "type": "function"
    },
    {
      "inputs": [],
      "name": "getPlatformStats",
      "outputs": [
        {
          "internalType": "uint256",
          "name": "totalPlans",
          "type": "uint256"
        },
        {
          "internalType": "uint256",
          "name": "totalSubscribers",
          "type": "uint256"
        },
        {
          "internalType": "uint256",
          "name": "activeSubscribers",
          "type": "uint256"
        },
        {
          "internalType": "uint256",
          "name": "platformRevenue",
          "type": "uint256"
        }
      ],
      "stateMutability": "view",
      "type": "function"
    },
    {
      "inputs": [
        {
          "internalType": "address",
          "name": "user",
          "type": "address"
        }
      ],
      "name": "getUserPaymentHistory",
      "outputs": [
        {
          "internalType": "uint256",
          "name": "totalPaid",
          "type": "uint256"
        }
      ],
      "stateMutability": "view",
      "type": "function"
    },
    {
      "inputs": [
        {
          "internalType": "address",
          "name": "user",
          "type": "address"
        }
      ],
      "name": "getUserSubscriptionStatus",
      "outputs": [
        {
          "internalType": "bool",
          "name": "isActive",
          "type": "bool"
        },
        {
          "internalType": "uint256",
          "name": "planId",
          "type": "uint256"
        },
        {
          "internalType": "uint256",
          "name": "startDate",
          "type": "uint256"
        },
        {
          "internalType": "uint256",
          "name": "endDate",
          "type": "uint256"
        },
        {
          "internalType": "uint256",
          "name": "propertiesUsed",
          "type": "uint256"
        },
        {
          "internalType": "uint256",
          "name": "tenantsManaged",
          "type": "uint256"
        },
        {
          "internalType": "uint256",
          "name": "propertiesRemaining",
          "type": "uint256"
        },
        {
          "internalType": "uint256",
          "name": "tenantsRemaining",
          "type": "uint256"
        }
      ],
      "stateMutability": "view",
      "type": "function"
    },
    {
      "inputs": [],
      "name": "nextPlanId",
      "outputs": [
        {
          "internalType": "uint256",
          "name": "",
          "type": "uint256"
        }
      ],
      "stateMutability": "view",
      "type": "function"
    },
    {
      "inputs": [],
      "name": "paymentToken",
      "outputs": [
        {
          "internalType": "address",
          "name": "",
          "type": "address"
        }
      ],
      "stateMutability": "view",
      "type": "function"
    },
    {
      "inputs": [
        {
          "internalType": "address",
          "name": "user",
          "type": "address"
        }
      ],
      "name": "recordPropertyUsage",
      "outputs": [],
      "stateMutability": "nonpayable",
      "type": "function"
    },
    {
      "inputs": [
        {
          "internalType": "address",
          "name": "user",
          "type": "address"
        }
      ],
      "name": "recordTenantUsage",
      "outputs": [],
      "stateMutability": "nonpayable",
      "type": "function"
    },
    {
      "inputs": [],
      "name": "renewSubscription",
      "outputs": [],
      "stateMutability": "nonpayable",
      "type": "function"
    },
    {
      "inputs": [
        {
          "internalType": "address",
          "name": "newToken",
          "type": "address"
        }
      ],
      "name": "setPaymentToken",
      "outputs": [],
      "stateMutability": "nonpayable",
      "type": "function"
    },
    {
      "inputs": [
        {
          "internalType": "uint256",
          "name": "planId",
          "type": "uint256"
        }
      ],
      "name": "subscribe",
      "outputs": [],
      "stateMutability": "nonpayable",
      "type": "function"
    },
    {
      "inputs": [
        {
          "internalType": "uint256",
          "name": "",
          "type": "uint256"
        }
      ],
      "name": "subscriptionPlans",
      "outputs": [
        {
          "internalType": "string",
          "name": "name",
          "type": "string"
        },
        {
          "internalType": "uint256",
          "name": "price",
          "type": "uint256"
        },
        {
          "internalType": "uint256",
          "name": "duration",
          "type": "uint256"
        },
        {
          "internalType": "uint256",
          "name": "maxProperties",
          "type": "uint256"
        },
        {
          "internalType": "uint256",
          "name": "maxTenants",
          "type": "uint256"
        },
        {
          "internalType": "bool",
          "name": "isActive",
          "type": "bool"
        },
        {
          "internalType": "uint256",
          "name": "totalSubscribers",
          "type": "uint256"
        }
      ],
      "stateMutability": "view",
      "type": "function"
    },
    {
      "inputs": [
        {
          "internalType": "uint256",
          "name": "planId",
          "type": "uint256"
        }
      ],
      "name": "togglePlanActive",
      "outputs": [],
      "stateMutability": "nonpayable",
      "type": "function"
    },
    {
      "inputs": [],
      "name": "totalRevenue",
      "outputs": [
        {
          "internalType": "uint256",
          "name": "",
          "type": "uint256"
        }
      ],
      "stateMutability": "view",
      "type": "function"
    },
    {
      "inputs": [],
      "name": "unsubscribe",
      "outputs": [],
      "stateMutability": "nonpayable",
      "type": "function"
    },
    {
      "inputs": [
        {
          "internalType": "uint256",
          "name": "planId",
          "type": "uint256"
        },
        {
          "internalType": "uint256",
          "name": "price",
          "type": "uint256"
        },
        {
          "internalType": "uint256",
          "name": "duration",
          "type": "uint256"
        },
        {
          "internalType": "uint256",
          "name": "maxProperties",
          "type": "uint256"
        },
        {
          "internalType": "uint256",
          "name": "maxTenants",
          "type": "uint256"
        }
      ],
      "name": "updateSubscriptionPlan",
      "outputs": [],
      "stateMutability": "nonpayable",
      "type": "function"
    },
    {
      "inputs": [
        {
          "internalType": "address",
          "name": "",
          "type": "address"
        }
      ],
      "name": "userPayments",
      "outputs": [
        {
          "internalType": "uint256",
          "name": "",
          "type": "uint256"
        }
      ],
      "stateMutability": "view",
      "type": "function"
    },
    {
      "inputs": [
        {
          "internalType": "address",
          "name": "",
          "type": "address"
        }
      ],
      "name": "userSubscriptions",
      "outputs": [
        {
          "internalType": "uint256",
          "name": "planId",
          "type": "uint256"
        },
        {
          "internalType": "uint256",
          "name": "startDate",
          "type": "uint256"
        },
        {
          "internalType": "uint256",
          "name": "endDate",
          "type": "uint256"
        },
        {
          "internalType": "bool",
          "name": "isActive",
          "type": "bool"
        },
        {
          "internalType": "uint256",
          "name": "propertiesUsed",
          "type": "uint256"
        },
        {
          "internalType": "uint256",
          "name": "tenantsManaged",
          "type": "uint256"
        }
      ],
      "stateMutability": "view",
      "type": "function"
    },
    {
      "inputs": [
        {
          "internalType": "uint256",
          "name": "amount",
          "type": "uint256"
        }
      ],
      "name": "withdrawRevenue",
      "outputs": [],
      "stateMutability": "nonpayable",
      "type": "function"
    }
  ],
  "bytecode": "0x608034620008a657601f62001d4d38819003918201601f19168301916001600160401b038311848410176200067357808492602094604052833981010312620008a657516001600160a01b03811690819003620008a65760018060a01b03193381600354161760035560045416176004556200007a620008cb565b600580825264426173696360d81b6020830152546000198114620006895760018101600555620000a9620008ab565b828152678ac7230489e80000602082015262278d00604082015260056060820152600a6080820152600160a0820152600060c0820152816000526000602052604060002090805180519060018060401b03821162000673578354600181811c911680156200089b575b60208210146200065257601f811162000852575b50602090601f8311600114620007de5791806006949260c094600092620007d2575b50508160011b916000199060031b1c19161784555b6020810151600185015560408101516002850155606081015160038501556080810151600485015560a0810151151560ff80196005870154169116176005850155015191015560405190815260806020820152815180608083015260005b818110620007bb5760008051602062001d2d8339815191528360a081856000838284010152678ac7230489e80000604083015262278d006060830152601f80199101168101030190a16200020e620008cb565b600c81526b141c9bd9995cdcda5bdb985b60a21b60208201526003546001600160a01b031633036200069f57600554600019811462000689576001810160055562000258620008ab565b8281526802b5e3af16b1880000602082015262278d0060408201526032606082015260646080820152600160a0820152600060c0820152816000526000602052604060002090805180519060018060401b03821162000673578354600181811c91168015620007b0575b60208210146200065257601f811162000767575b50602090601f8311600114620006f35791806006949260c094600092620006e7575b50508160011b916000199060031b1c19161784555b602081015160018501556040810151600285015560608101516003850155608081015160048501556005840160a0820151151560ff80198354169116179055015191015560405190815260806020820152815180608083015260005b818110620006d05760008051602062001d2d8339815191528360a0818560008382840101526802b5e3af16b1880000604083015262278d006060830152601f80199101168101030190a1620003bd620008cb565b600a815269456e746572707269736560b01b60208201526003546001600160a01b031633036200069f57600554600019811462000689576001810160055562000405620008ab565b828152680ad78ebc5ac6200000602082015262278d0060408201526101f460608201526103e86080820152600160a0820152600060c0820152816000526000602052604060002090805180519060018060401b03821162000673578354600181811c9116801562000668575b60208210146200065257601f811162000609575b50602090601f8311600114620005955791806006949260c09460009262000589575b50508160011b916000199060031b1c19161784555b602081015160018501556040810151600285015560608101516003850155608081015160048501556005840160a0820151151560ff80198354169116179055015191015560405190815260806020820152815180608083015260005b818110620005725760008051602062001d2d8339815191528360a081856000838284010152680ad78ebc5ac6200000604083015262278d006060830152601f80199101168101030190a16040516114419081620008ec8239f35b80602080928601015160a082860101520162000518565b015190508880620004a7565b908460005260206000209160005b601f1985168110620005f05750926006949260019260c09583601f19811610620005d6575b505050811b018455620004bc565b015160001960f88460031b161c19169055888080620005c8565b91926020600181928685015181550194019201620005a3565b846000526020600020601f840160051c8101602085106200064a575b601f830160051c820181106200063d57505062000485565b6000815560010162000625565b508062000625565b634e487b7160e01b600052602260045260246000fd5b90607f169062000471565b634e487b7160e01b600052604160045260246000fd5b634e487b7160e01b600052601160045260246000fd5b60405162461bcd60e51b81526020600482015260096024820152682737ba1030b236b4b760b91b6044820152606490fd5b80602080928601015160a082860101520162000369565b015190508880620002f8565b908460005260206000209160005b601f19851681106200074e5750926006949260019260c09583601f1981161062000734575b505050811b0184556200030d565b015160001960f88460031b161c1916905588808062000726565b9192602060018192868501518155019401920162000701565b846000526020600020601f840160051c810160208510620007a8575b601f830160051c820181106200079b575050620002d6565b6000815560010162000783565b508062000783565b90607f1690620002c2565b80602080928601015160a0828601015201620001bb565b01519050388062000148565b908460005260206000209160005b601f1985168110620008395750926006949260019260c09583601f198116106200081f575b505050811b0184556200015d565b015160001960f88460031b161c1916905538808062000811565b91926020600181928685015181550194019201620007ec565b846000526020600020601f840160051c81016020851062000893575b601f830160051c820181106200088657505062000126565b600081556001016200086e565b50806200086e565b90607f169062000112565b600080fd5b6040519060e082016001600160401b038111838210176200067357604052565b60408051919082016001600160401b03811183821017620006735760405256fe6080604052600436101561001257600080fd5b60e0600035811c9081630ceff2041461101f5781630f574ba714610e00578163136d888314610d94578163284c7f3514610d0a57816328db4726146102935781633013ce2914610ce15781633efd1bf314610c2b578163492f835014610b7e57816354f79b1c14610b1d5781635f8d26b214610aff57816367f8a8b814610a1e5781636a326ab1146109cd5781636e307981146107cb5781636ffd81f0146106e0578163884e5fff146103fe57508063bf2d9e0b146103e0578063c6738f0614610343578063cf14b9e4146102cd578063ddf4acf314610293578063ec817e0d146101d7578063f851a440146101ae5763fcae44841461011157600080fd5b346101a95760003660031901126101a957336000526001602052604060002060038101805461014260ff8216611376565b60ff19169055546000526000602052600660406000200180548015610193576000190190557f3f7961fecfdd2e8a057c53ea3485024a5b412910ba5015a8fb357e54e08c06bc6020604051338152a1005b634e487b7160e01b600052601160045260246000fd5b600080fd5b346101a95760003660031901126101a9576003546040516001600160a01b039091168152602090f35b346101a95760203660031901126101a9576001600160a01b036101f861123c565b166000526001602052604060002061021660ff600383015416611376565b61022660028201544211156113c8565b805460005260006020526004604060002091019060038254910154811015610255576102519061128a565b9055005b60405162461bcd60e51b8152602060048201526016602482015275141c9bdc195c9d1e481b1a5b5a5d081c995858da195960521b6044820152606490fd5b346101a95760203660031901126101a9576001600160a01b036102b461123c565b1660005260026020526020604060002054604051908152f35b346101a95760203660031901126101a9576001600160a01b036102ee61123c565b16600052600160205260c06040600020805490600181015490600281015460ff6003830154169060056004840154930154936040519586526020860152604085015215156060840152608083015260a0820152f35b346101a95760a03660031901126101a9577f3b8f7b735ea18f3339272b5274fd33ae22952ce60647c6df4d176ec9042755c060606004356024356044359061039660018060a01b03600354163314611252565b6103a36005548410611299565b82600052600060205260406000208160018201558260028201556064356003820155600460843591015560405192835260208301526040820152a1005b346101a95760003660031901126101a9576020600654604051908152f35b346101a95760a03660031901126101a95767ffffffffffffffff906004358281116101a957366023820112156101a95780600401358381116106ca5760405191610452601f8301601f191660200184611134565b81835236602483830101116101a95781600092602460209301838601378301015261048860018060a01b03600354163314611252565b600554916104958361128a565b600555604051908101818110858211176106ca576040528181526024356020820152604435604082015260643560608201526084356080820152600160a0820152600060c082015282600052600060205260406000209080519485519081116106ca5761050283546110fa565b95601f8711610686575b602096508690601f83116001146105f3577f568723e8b256fe0a0b6a3e2ab46b4ebb136a3940f22e11ebf961cafc834d2cf69593836105cd969460069460c0946000926105e8575b50508160011b916000199060031b1c19161784555b8881015160018501556040810151600285015560608101516003850155608081015160048501556105af60a08201511515600586019060ff801983541691151516179055565b015191015560405191829185835260808784015260808301906111fc565b602435604083015260443560608301520390a1604051908152f35b015190508b80610554565b9084600052876000209160005b601f198516811061066f57509360018460069460c0947f568723e8b256fe0a0b6a3e2ab46b4ebb136a3940f22e11ebf961cafc834d2cf69a986105cd9a98601f19811610610656575b505050811b018455610569565b015160001960f88460031b161c191690558b8080610649565b919289600181928685015181550194019201610600565b836000526020600020601f830160051c8101602084106106c3575b601f890160051c820181106106b757505061050c565b600081556001016106a1565b50806106a1565b634e487b7160e01b600052604160045260246000fd5b346101a95760203660031901126101a957610100906001600160a01b0361070561123c565b1660005260016020526040600020805491826000526000602052604060002060ff60038401541693846000146107c35761074860038301546004860154906113bb565b915b85156107ba57600401546005850154610762916113bb565b935b856107ab575b600181015460028201549060056004840154930154936040519815158952602089015260408801526060870152608086015260a085015260c0840152820152f35b6002810154421115955061076a565b50600093610764565b60009161074a565b346101a95760003660031901126101a9573360005260206001815260406000206107fb60ff600383015416611376565b6002810190815462093a7f19810190811161019357421061099357600092815484528381526040842061083460ff6005830154166112d6565b600480546001830180546040516323b872dd60e01b8152339481019490945230602485015260448401529196919491849188916064918391906001600160a01b03165af1928315610987576108e66002610936946108dd7f0844521bd3c7295df35ca72576b1c04b6061d23891276d5c077cd73cbb3d31fc977f7bd379b31566817ff79103ff210fc7d86fa755c249a8dc25f96618362789e1919b60009161095a575b5061132c565b01548754611369565b8655600285549133600052526109026040600020918254611369565b90556109118454600654611369565b6006555493546040805133815260208101879052908101919091529081906060820190565b0390a15460408051338152602081019290925281019190915280606081015b0390a1005b61097a9150863d8811610980575b6109728183611134565b810190611314565b8c6108d7565b503d610968565b6040513d6000823e3d90fd5b60405162461bcd60e51b8152600481018490526012602482015271546f6f206561726c7920746f2072656e657760701b6044820152606490fd5b346101a95760203660031901126101a9576109e661123c565b6003546001600160a01b039190610a009083163314611252565b166bffffffffffffffffffffffff60a01b6004541617600455600080f35b346101a95760403660031901126101a95760006020610a91610a3e61123c565b6003546001600160a01b0390610a579082163314611252565b600454169060405194858094819363a9059cbb60e01b8352602435906004840160209093929193604081019460018060a01b031681520152565b03925af190811561098757600091610ae1575b5015610aac57005b60405162461bcd60e51b815260206004820152600d60248201526c1499599d5b990819985a5b1959609a1b6044820152606490fd5b610af9915060203d8111610980576109728183611134565b81610aa4565b346101a95760003660031901126101a9576020600554604051908152f35b346101a95760203660031901126101a957600435610b4660018060a01b03600354163314611252565b610b536005548210611299565b6000526000602052610b7c600560406000200160ff8154161560ff801983541691151516179055565b005b346101a95760203660031901126101a957600435610b9f6005548210611299565b6000526000602052604060002060018101546006820154928382029082820485148315171561019357610c03946002850154946003810154600482015490610bee60ff60058501541693611156565b97604051998a99610100808c528b01906111fc565b9760208a0152604089015260608801526080870152151560a086015260c08501528301520390f35b346101a95760203660031901126101a9576001600160a01b03610c4c61123c565b1660005260016020526040600020610c6a60ff600383015416611376565b610c7a60028201544211156113c8565b805460005260006020526005604060002091019060048254910154811015610ca5576102519061128a565b60405162461bcd60e51b815260206004820152601460248201527315195b985b9d081b1a5b5a5d081c995858da195960621b6044820152606490fd5b346101a95760003660031901126101a9576004546040516001600160a01b039091168152602090f35b346101a95760203660031901126101a9576004356000526000602052604060002090610d3582611156565b916001810154906002810154906003810154600482015490600660ff60058501541693015493610d6f60405198888a998a528901906111fc565b956020880152604087015260608601526080850152151560a084015260c08301520390f35b346101a95760003660031901126101a957600080600554905b818310610dd55760809250600654906040519283526020830152600060408301526060820152f35b610df4610dfa9184600052600060205260066040600020015490611369565b9261128a565b91610dad565b346101a9576020806003193601126101a957600435610e226005548210611299565b8060005260008252604060002091610e4060ff6005850154166112d6565b33600052600181526040600020600381019160ff835416158015611011575b15610fcd57600480546001870180546040516323b872dd60e01b8152339481019490945230602485015260448401529491939291908290859060649082906000906001600160a01b03165af1928315610987577f7bd379b31566817ff79103ff210fc7d86fa755c249a8dc25f96618362789e1919760006005600693610f0f6080987f75a8f2bbaa92d23ce6c0480c1f9678c0a6dfa57ebaaf72171b010140959ef2629a8591610fb0575061132c565b8a8155426001820155610f26600285015442611369565b9560028201968755600160ff19825416179055826004820155015586543360005260028552610f5b6040600020918254611369565b9055610f6987548354611369565b825501610f76815461128a565b90555485604051923384528301524260408301526060820152a1546040805133815260208101929092528101919091528060608101610955565b610fc79150893d8b11610980576109728183611134565b8e6108d7565b6064906040519062461bcd60e51b82526004820152601a60248201527f41637469766520737562736372697074696f6e206578697374730000000000006044820152fd5b506002820154421015610e5f565b346101a95760203660031901126101a9576000602061108a60018060a01b0380600354169061104f823314611252565b6004805460405163a9059cbb60e01b81526001600160a01b039094168483015290356024840152919485939190921691839182906044820190565b03925af1908115610987576000916110dc575b50156110a557005b60405162461bcd60e51b815260206004820152600f60248201526e151c985b9cd9995c8819985a5b1959608a1b6044820152606490fd5b6110f4915060203d8111610980576109728183611134565b8161109d565b90600182811c9216801561112a575b602083101461111457565b634e487b7160e01b600052602260045260246000fd5b91607f1691611109565b90601f8019910116810190811067ffffffffffffffff8211176106ca57604052565b906040519182600082549261116a846110fa565b9081845260019485811690816000146111d95750600114611196575b505061119492500383611134565b565b9093915060005260209081600020936000915b8183106111c157505061119493508201013880611186565b855488840185015294850194879450918301916111a9565b91505061119494506020925060ff191682840152151560051b8201013880611186565b919082519283825260005b848110611228575050826000602080949584010152601f8019910116010190565b602081830181015184830182015201611207565b600435906001600160a01b03821682036101a957565b1561125957565b60405162461bcd60e51b81526020600482015260096024820152682737ba1030b236b4b760b91b6044820152606490fd5b60001981146101935760010190565b156112a057565b60405162461bcd60e51b815260206004820152600e60248201526d141b185b881b9bdd08199bdd5b9960921b6044820152606490fd5b156112dd57565b60405162461bcd60e51b815260206004820152600f60248201526e506c616e206e6f742061637469766560881b6044820152606490fd5b908160209103126101a9575180151581036101a95790565b1561133357565b60405162461bcd60e51b815260206004820152600e60248201526d14185e5b595b9d0819985a5b195960921b6044820152606490fd5b9190820180921161019357565b1561137d57565b60405162461bcd60e51b815260206004820152601660248201527527379030b1ba34bb329039bab139b1b934b83a34b7b760511b6044820152606490fd5b9190820391821161019357565b156113cf57565b60405162461bcd60e51b815260206004820152601460248201527314dd589cd8dc9a5c1d1a5bdb88195e1c1a5c995960621b6044820152606490fdfea2646970667358221220d2555db481f9927baae929351af932603c3893746bf8159e12d0bbd74e1099a764736f6c63430008130033568723e8b256fe0a0b6a3e2ab46b4ebb136a3940f22e11ebf961cafc834d2cf6",
  "linkReferences": {},
  "deployedLinkReferences": {}
}