{
  "_format": "hh-sol-artifact-1",
  "contractName": "RentalInsurance",
  "sourceName": "contracts/RentalInsurance.sol",
  "abi": [
    {
      "inputs": [
        {
          "internalType": "address",
          "name": "_paymentToken",
          "type": "address"
        }
      ],
      "stateMutability": "nonpayable",
      "type": "constructor"
    },
    {
      "anonymous": false,
      "inputs": [
        {
          "indexed": true,
          "internalType": "uint256",
          "name": "policyId",
          "type": "uint256"
        },
        {
          "indexed": false,
          "internalType": "uint256",
          "name": "payout",
          "type": "uint256"
        }
      ],
      "name": "ClaimApproved",
      "type": "event"
    },
    {
      "anonymous": false,
      "inputs": [
        {
          "indexed": true,
          "internalType": "uint256",
          "name": "policyId",
          "type": "uint256"
        }
      ],
      "name": "ClaimDenied",
      "type": "event"
    },
    {
      "anonymous": false,
      "inputs": [
        {
          "indexed": true,
          "internalType": "uint256",
          "name": "policyId",
          "type": "uint256"
        },
        {
          "indexed": false,
          "internalType": "uint256",
          "name": "amount",
          "type": "uint256"
        }
      ],
      "name": "ClaimSubmitted",
      "type": "event"
    },
    {
      "anonymous": false,
      "inputs": [
        {
          "indexed": true,
          "internalType": "uint256",
          "name": "policyId",
          "type": "uint256"
        }
      ],
      "name": "PolicyCancelled",
      "type": "event"
    },
    {
      "anonymous": false,
      "inputs": [
        {
          "indexed": true,
          "internalType": "uint256",
          "name": "policyId",
          "type": "uint256"
        },
        {
          "indexed": true,
          "internalType": "uint256",
          "name": "agreementId",
          "type": "uint256"
        },
        {
          "indexed": false,
          "internalType": "address",
          "name": "tenant",
          "type": "address"
        },
        {
          "indexed": false,
          "internalType": "uint256",
          "name": "coverage",
          "type": "uint256"
        }
      ],
      "name": "PolicyCreated",
      "type": "event"
    },
    {
      "anonymous": false,
      "inputs": [
        {
          "indexed": true,
          "internalType": "uint256",
          "name": "policyId",
          "type": "uint256"
        },
        {
          "indexed": false,
          "internalType": "uint256",
          "name": "amount",
          "type": "uint256"
        }
      ],
      "name": "PremiumPaid",
      "type": "event"
    },
    {
      "inputs": [],
      "name": "MAX_COVERAGE",
      "outputs": [
        {
          "internalType": "uint256",
          "name": "",
          "type": "uint256"
        }
      ],
      "stateMutability": "view",
      "type": "function"
    },
    {
      "inputs": [],
      "name": "PREMIUM_RATE",
      "outputs": [
        {
          "internalType": "uint256",
          "name": "",
          "type": "uint256"
        }
      ],
      "stateMutability": "view",
      "type": "function"
    },
    {
      "inputs": [],
      "name": "admin",
      "outputs": [
        {
          "internalType": "address",
          "name": "",
          "type": "address"
        }
      ],
      "stateMutability": "view",
      "type": "function"
    },
    {
      "inputs": [
        {
          "internalType": "uint256",
          "name": "policyId",
          "type": "uint256"
        }
      ],
      "name": "approveClaim",
      "outputs": [],
      "stateMutability": "nonpayable",
      "type": "function"
    },
    {
      "inputs": [
        {
          "internalType": "uint256",
          "name": "policyId",
          "type": "uint256"
        }
      ],
      "name": "cancelPolicy",
      "outputs": [],
      "stateMutability": "nonpayable",
      "type": "function"
    },
    {
      "inputs": [
        {
          "internalType": "uint256",
          "name": "agreementId",
          "type": "uint256"
        },
        {
          "internalType": "address",
          "name": "tenant",
          "type": "address"
        },
        {
          "internalType": "address",
          "name": "landlord",
          "type": "address"
        },
        {
          "internalType": "uint256",
          "name": "coverageAmount",
          "type": "uint256"
        }
      ],
      "name": "createPolicy",
      "outputs": [
        {
          "internalType": "uint256",
          "name": "",
          "type": "uint256"
        }
      ],
      "stateMutability": "nonpayable",
      "type": "function"
    },
    {
      "inputs": [
        {
          "internalType": "uint256",
          "name": "policyId",
          "type": "uint256"
        }
      ],
      "name": "denyClaim",
      "outputs": [],
      "stateMutability": "nonpayable",
      "type": "function"
    },
    {
      "inputs": [],
      "name": "getActivePolicies",
      "outputs": [
        {
          "internalType": "uint256[]",
          "name": "",
          "type": "uint256[]"
        }
      ],
      "stateMutability": "view",
      "type": "function"
    },
    {
      "inputs": [
        {
          "internalType": "address",
          "name": "user",
          "type": "address"
        }
      ],
      "name": "getUserPolicies",
      "outputs": [
        {
          "internalType": "uint256[]",
          "name": "",
          "type": "uint256[]"
        }
      ],
      "stateMutability": "view",
      "type": "function"
    },
    {
      "inputs": [],
      "name": "insurer",
      "outputs": [
        {
          "internalType": "address",
          "name": "",
          "type": "address"
        }
      ],
      "stateMutability": "view",
      "type": "function"
    },
    {
      "inputs": [],
      "name": "nextPolicyId",
      "outputs": [
        {
          "internalType": "uint256",
          "name": "",
          "type": "uint256"
        }
      ],
      "stateMutability": "view",
      "type": "function"
    },
    {
      "inputs": [
        {
          "internalType": "uint256",
          "name": "policyId",
          "type": "uint256"
        }
      ],
      "name": "payPremium",
      "outputs": [],
      "stateMutability": "nonpayable",
      "type": "function"
    },
    {
      "inputs": [],
      "name": "paymentToken",
      "outputs": [
        {
          "internalType": "contract IERC20",
          "name": "",
          "type": "address"
        }
      ],
      "stateMutability": "view",
      "type": "function"
    },
    {
      "inputs": [
        {
          "internalType": "uint256",
          "name": "",
          "type": "uint256"
        }
      ],
      "name": "policies",
      "outputs": [
        {
          "internalType": "uint256",
          "name": "agreementId",
          "type": "uint256"
        },
        {
          "internalType": "address",
          "name": "tenant",
          "type": "address"
        },
        {
          "internalType": "address",
          "name": "landlord",
          "type": "address"
        },
        {
          "internalType": "uint256",
          "name": "premium",
          "type": "uint256"
        },
        {
          "internalType": "uint256",
          "name": "coverageAmount",
          "type": "uint256"
        },
        {
          "internalType": "uint256",
          "name": "startDate",
          "type": "uint256"
        },
        {
          "internalType": "uint256",
          "name": "endDate",
          "type": "uint256"
        },
        {
          "internalType": "bool",
          "name": "isActive",
          "type": "bool"
        },
        {
          "internalType": "bool",
          "name": "claimSubmitted",
          "type": "bool"
        },
        {
          "internalType": "bool",
          "name": "claimApproved",
          "type": "bool"
        },
        {
          "internalType": "uint256",
          "name": "claimAmount",
          "type": "uint256"
        }
      ],
      "stateMutability": "view",
      "type": "function"
    },
    {
      "inputs": [
        {
          "internalType": "address",
          "name": "newInsurer",
          "type": "address"
        }
      ],
      "name": "setInsurer",
      "outputs": [],
      "stateMutability": "nonpayable",
      "type": "function"
    },
    {
      "inputs": [
        {
          "internalType": "uint256",
          "name": "policyId",
          "type": "uint256"
        },
        {
          "internalType": "uint256",
          "name": "claimAmount",
          "type": "uint256"
        },
        {
          "internalType": "string",
          "name": "reason",
          "type": "string"
        }
      ],
      "name": "submitClaim",
      "outputs": [],
      "stateMutability": "nonpayable",
      "type": "function"
    },
    {
      "inputs": [
        {
          "internalType": "address",
          "name": "",
          "type": "address"
        },
        {
          "internalType": "uint256",
          "name": "",
          "type": "uint256"
        }
      ],
      "name": "userPolicies",
      "outputs": [
        {
          "internalType": "uint256",
          "name": "",
          "type": "uint256"
        }
      ],
      "stateMutability": "view",
      "type": "function"
    },
    {
      "inputs": [
        {
          "internalType": "uint256",
          "name": "amount",
          "type": "uint256"
        }
      ],
      "name": "withdrawFees",
      "outputs": [],
      "stateMutability": "nonpayable",
      "type": "function"
    }
  ],
  "bytecode": "0x60803461008657601f6112f538819003918201601f19168301916001600160401b0383118484101761008b5780849260209460405283398101031261008657516001600160a01b038116908190036100865760018060a01b031990816003541617600355338160055416176005553390600454161760045560405161125390816100a28239f35b600080fd5b634e487b7160e01b600052604160045260246000fdfe608080604052600436101561001357600080fd5b60003560e01c90816306964de714610da95750806317a1f82814610c9e57806319ac461414610c175780631ab145b4146109a65780631cb27ba41461098a5780633013ce29146109615780633d36adc5146109095780634364b26e1461074557806346e30135146105f85780635e318e071461051a57806384ac35eb1461048c5780639efa0aa914610467578063a8e7410814610416578063b20e8bcc1461020a578063cad0b8db146101ec578063d3e894831461013c578063dbc837c5146101135763f851a440146100e557600080fd5b3461010e57600036600319011261010e576005546040516001600160a01b039091168152602090f35b600080fd5b3461010e57600036600319011261010e576004546040516001600160a01b039091168152602090f35b3461010e57602036600319011261010e576004356000526000602052610160604060002080549060ff60018060a01b03918260018201541692600282015416600382015460048301546005840154916006850154936008600787015496015497604051998a5260208a015260408901526060880152608087015260a086015260c0850152818116151560e0850152818160081c16151561010085015260101c161515610120830152610140820152f35b3461010e57600036600319011261010e576020600254604051908152f35b3461010e5760208060031936011261010e57600435908160005260008152604060002060018060a01b0380600183015416918233036103d85760078101805461025560ff82166110cd565b60ff8160081c166103a35760ff19169055600581015442039042821161038d57600301546201518061016d920482039082821161038d5781810291818304149015171561038d5704806102cb575b847fbb1ae509b65d9486a686f3f1b0435353031b5607109dc80aa4d063887e10f3e8600080a2005b60035460405163a9059cbb60e01b81526001600160a01b039490941660048501526024840191909152839183916044918391600091165af190811561038157600091610354575b5015610320578080806102a3565b6064906040519062461bcd60e51b82526004820152600d60248201526c1499599d5b990819985a5b1959609a1b6044820152fd5b6103749150823d841161037a575b61036c8183610fa4565b8101906110b5565b83610312565b503d610362565b6040513d6000823e3d90fd5b634e487b7160e01b600052601160045260246000fd5b60405162461bcd60e51b815260048101879052600d60248201526c436c61696d2070656e64696e6760981b6044820152606490fd5b60405162461bcd60e51b815260048101859052601660248201527513db9b1e481d195b985b9d0818d85b8818d85b98d95b60521b6044820152606490fd5b3461010e57602036600319011261010e5761042f611001565b6005546001600160a01b03919061044990831633146111e5565b166bffffffffffffffffffffffff60a01b6004541617600455600080f35b3461010e57600036600319011261010e57602060405169021e19e0c9bab24000008152f35b3461010e57602036600319011261010e576004356104b560018060a01b0360045416331461110d565b80600052600060205260006008604082206007810180546104da60ff82861c16611147565b6104ea60ff8260101c1615611188565b61ff001916905501557f2855af5d2357d4c3ccb4ee7c6848d4dc7d6c0ca5bff9d8d1338fca3d12508283600080a2005b3461010e57602036600319011261010e576000602061058860018060a01b0380600554169061054a8233146111e5565b60035460405163a9059cbb60e01b81526001600160a01b03909316600480850191909152356024840152919485939190921691839182906044820190565b03925af1908115610381576000916105da575b50156105a357005b60405162461bcd60e51b815260206004820152600f60248201526e151c985b9cd9995c8819985a5b1959608a1b6044820152606490fd5b6105f2915060203d811161037a5761036c8183610fa4565b8161059b565b3461010e5760208060031936011261010e576004359060018060a01b036106248160045416331461110d565b82600052600082526106ae826040600020926007840162010000815461064f60ff8260081c16611147565b61065f60ff8260101c1615611188565b62ff00ff191617905560088401549381600186936003541692015416600060405180968195829463a9059cbb60e01b84526004840160209093929193604081019460018060a01b031681520152565b03925af190811561038157600091610728575b50156106f357907f638d892b8630b775fea5d7a52b209e8bfa1d90c32b57cd37208ac84d4bcd6dcb91604051908152a2005b60405162461bcd60e51b815260048101839052600d60248201526c14185e5bdd5d0819985a5b1959609a1b6044820152606490fd5b61073f9150833d851161037a5761036c8183610fa4565b846106c1565b3461010e5760208060031936011261010e5760043590816000526000815260406000209060018060a01b03918260018201541633036108c457600781019060ff82541661088757600681019361079d85544210611078565b600354169160008460038401946064865460405194859384926323b872dd60e01b845233600485015230602485015260448401525af19081156103815760009161086a575b501561083457600160ff198254161790556005429101556301e13380420180421161038d577f7d285524823001f1a9e0eec4efb8c6350708012b991049fd6dd9250f89c8b258935554604051908152a2005b60405162461bcd60e51b815260048101859052600e60248201526d14185e5b595b9d0819985a5b195960921b6044820152606490fd5b6108819150853d871161037a5761036c8183610fa4565b876107e2565b60405162461bcd60e51b8152600481018490526015602482015274506f6c69637920616c72656164792061637469766560581b6044820152606490fd5b60405162461bcd60e51b815260048101839052601b60248201527f4f6e6c792074656e616e742063616e20706179207072656d69756d00000000006044820152606490fd5b3461010e57604036600319011261010e57610922611001565b6001600160a01b031660009081526001602052604090208054602435919082101561010e5760209161095391611017565b90546040519160031b1c8152f35b3461010e57600036600319011261010e576003546040516001600160a01b039091168152602090f35b3461010e57600036600319011261010e57602060405160058152f35b3461010e57608036600319011261010e576024356001600160a01b0381169060043582820361010e576044356001600160a01b038116939084900361010e5760643569021e19e0c9bab24000008111610bde5760058102908082046005148115171561038d5760025494610a198661102f565b6002556301e1338042019687421161038d576040519461016086019580871067ffffffffffffffff881117610bc85760209960647f0f96d7dd7db07c7ea86d9f68e49243f2d9606ef98a362f2f991cc59d22ff26bd978b996040528a8452848d8501528560408501520460608301528560808301524260a083015260c0820152600060e08201526000610100820152600061012082015260006101408201528660005260008a526008610140604060002092805184556001840160018060a01b038e83015116906bffffffffffffffffffffffff60a01b9182825416179055600285019060018060a01b0360408401511690825416179055606081015160038501556080810151600485015560a0810151600585015560c081015160068501556007840160e08201511515815461ff0061010085015115159160ff62ff0000610120880151151560101b1694169062ffffff19161791871b1617179055015191015560005260018852610b9085604060002061103e565b60005260018752610ba584604060002061103e565b604080516001600160a01b039290921682526020820192909252a3604051908152f35b634e487b7160e01b600052604160045260246000fd5b60405162461bcd60e51b8152602060048201526011602482015270086deeccae4c2ceca40e8dede40d0d2ced607b1b6044820152606490fd5b3461010e5760208060031936011261010e576001600160a01b03610c39611001565b166000526001808252604060002091604051918282855491828152019460005282600020926000905b828210610c8957610c8586610c79818a0382610fa4565b60405191829182610fc6565b0390f35b84548752958601959383019390830190610c62565b3461010e57600036600319011261010e57600080600254905b818110610d6c5750610cc8826111cd565b91610cd66040519384610fa4565b808352610ce5601f19916111cd565b0160209036828501376000805b838110610d075760405180610c858782610fc6565b806000526000835260ff60076040600020015416610d2e575b610d299061102f565b610cf2565b908451811015610d5657610d4e818385610d299460051b8901015261102f565b919050610d20565b634e487b7160e01b600052603260045260246000fd5b80600052600060205260ff60076040600020015416610d94575b610d8f9061102f565b610cb7565b91610da1610d8f9161102f565b929050610d86565b3461010e57606036600319011261010e5760043560249182356044359167ffffffffffffffff9283811161010e573660238201121561010e578060040135938411610f8f57602093610e04601f8201601f1916860184610fa4565b8083523687828401011161010e5760009281888794018483013701015282600052600082526040600020600781018054610e4060ff82166110cd565b6001830154336001600160a01b0391821614908115610f7f575b5015610f475760ff8160081c16610f035760048301548411610ec6577f675e9cd1ef5a9bb6971c9f1099eced3c6607be0407bc871bc50a8a7b36832e74959650916008916101008594610eb36006850154421115611078565b61ff0019161790550155604051908152a2005b60405162461bcd60e51b81526004810186905260168189015275436c61696d206578636565647320636f76657261676560501b6044820152606490fd5b60405162461bcd60e51b8152600481018690526017818901527f436c61696d20616c7265616479207375626d69747465640000000000000000006044820152606490fd5b60405162461bcd60e51b815260048101869052601181890152702737ba103837b634b1bc903437b63232b960791b6044820152606490fd5b9050600284015416331488610e5a565b85634e487b7160e01b60005260416004526000fd5b90601f8019910116810190811067ffffffffffffffff821117610bc857604052565b6020908160408183019282815285518094520193019160005b828110610fed575050505090565b835185529381019392810192600101610fdf565b600435906001600160a01b038216820361010e57565b8054821015610d565760005260206000200190600090565b600019811461038d5760010190565b805468010000000000000000811015610bc85761106091600182018155611017565b819291549060031b91821b91600019901b1916179055565b1561107f57565b60405162461bcd60e51b815260206004820152600e60248201526d141bdb1a58de48195e1c1a5c995960921b6044820152606490fd5b9081602091031261010e5751801515810361010e5790565b156110d457565b60405162461bcd60e51b8152602060048201526011602482015270506f6c696379206e6f742061637469766560781b6044820152606490fd5b1561111457565b60405162461bcd60e51b815260206004820152600b60248201526a2737ba1034b739bab932b960a91b6044820152606490fd5b1561114e57565b60405162461bcd60e51b8152602060048201526012602482015271139bc818db185a5b481cdd589b5a5d1d195960721b6044820152606490fd5b1561118f57565b60405162461bcd60e51b815260206004820152601660248201527510db185a5b48185b1c9958591e48185c1c1c9bdd995960521b6044820152606490fd5b67ffffffffffffffff8111610bc85760051b60200190565b156111ec57565b60405162461bcd60e51b81526020600482015260096024820152682737ba1030b236b4b760b91b6044820152606490fdfea2646970667358221220824f3fae565436e85ca9ec0fa8b177233afa96636e1f0940147413390ff7726564736f6c63430008130033",
  "linkReferences": {},
  "deployedLinkReferences": {}
}