{
  "_format": "hh-sol-artifact-1",
  "contractName": "RentChainOracle",
  "sourceName": "contracts/RentChainOracle.sol",
  "abi": [
    {
      "inputs": [],
      "stateMutability": "nonpayable",
      "type": "constructor"
    },
    {
      "anonymous": false,
      "inputs": [
        {
          "indexed": false,
          "internalType": "string",
          "name": "key",
          "type": "string"
        },
        {
          "indexed": false,
          "internalType": "uint256",
          "name": "updateInterval",
          "type": "uint256"
        },
        {
          "indexed": false,
          "internalType": "uint256",
          "name": "minResponses",
          "type": "uint256"
        },
        {
          "indexed": false,
          "internalType": "uint256",
          "name": "maxResponses",
          "type": "uint256"
        }
      ],
      "name": "DataFeedCreated",
      "type": "event"
    },
    {
      "anonymous": false,
      "inputs": [
        {
          "indexed": false,
          "internalType": "string",
          "name": "key",
          "type": "string"
        },
        {
          "indexed": false,
          "internalType": "uint256",
          "name": "value",
          "type": "uint256"
        },
        {
          "indexed": false,
          "internalType": "uint256",
          "name": "timestamp",
          "type": "uint256"
        },
        {
          "indexed": false,
          "internalType": "address",
          "name": "provider",
          "type": "address"
        }
      ],
      "name": "DataUpdated",
      "type": "event"
    },
    {
      "anonymous": false,
      "inputs": [
        {
          "indexed": false,
          "internalType": "address",
          "name": "provider",
          "type": "address"
        }
      ],
      "name": "ProviderAdded",
      "type": "event"
    },
    {
      "anonymous": false,
      "inputs": [
        {
          "indexed": false,
          "internalType": "address",
          "name": "provider",
          "type": "address"
        }
      ],
      "name": "ProviderRemoved",
      "type": "event"
    },
    {
      "anonymous": false,
      "inputs": [
        {
          "indexed": false,
          "internalType": "address",
          "name": "provider",
          "type": "address"
        },
        {
          "indexed": false,
          "internalType": "uint256",
          "name": "amount",
          "type": "uint256"
        }
      ],
      "name": "ProviderSlashed",
      "type": "event"
    },
    {
      "inputs": [
        {
          "internalType": "address",
          "name": "provider",
          "type": "address"
        }
      ],
      "name": "addDataProvider",
      "outputs": [],
      "stateMutability": "nonpayable",
      "type": "function"
    },
    {
      "inputs": [],
      "name": "admin",
      "outputs": [
        {
          "internalType": "address",
          "name": "",
          "type": "address"
        }
      ],
      "stateMutability": "view",
      "type": "function"
    },
    {
      "inputs": [
        {
          "internalType": "address",
          "name": "",
          "type": "address"
        }
      ],
      "name": "authorizedProviders",
      "outputs": [
        {
          "internalType": "bool",
          "name": "",
          "type": "bool"
        }
      ],
      "stateMutability": "view",
      "type": "function"
    },
    {
      "inputs": [
        {
          "internalType": "string",
          "name": "key",
          "type": "string"
        },
        {
          "internalType": "uint256",
          "name": "updateInterval",
          "type": "uint256"
        },
        {
          "internalType": "uint256",
          "name": "minResponses",
          "type": "uint256"
        },
        {
          "internalType": "uint256",
          "name": "maxResponses",
          "type": "uint256"
        }
      ],
      "name": "createDataFeed",
      "outputs": [],
      "stateMutability": "nonpayable",
      "type": "function"
    },
    {
      "inputs": [
        {
          "internalType": "string",
          "name": "",
          "type": "string"
        }
      ],
      "name": "dataFeeds",
      "outputs": [
        {
          "internalType": "string",
          "name": "key",
          "type": "string"
        },
        {
          "internalType": "uint256",
          "name": "updateInterval",
          "type": "uint256"
        },
        {
          "internalType": "uint256",
          "name": "lastUpdate",
          "type": "uint256"
        },
        {
          "internalType": "uint256",
          "name": "minResponses",
          "type": "uint256"
        },
        {
          "internalType": "uint256",
          "name": "maxResponses",
          "type": "uint256"
        },
        {
          "internalType": "uint256",
          "name": "dataCount",
          "type": "uint256"
        }
      ],
      "stateMutability": "view",
      "type": "function"
    },
    {
      "inputs": [
        {
          "internalType": "string",
          "name": "key",
          "type": "string"
        }
      ],
      "name": "getData",
      "outputs": [
        {
          "internalType": "uint256",
          "name": "value",
          "type": "uint256"
        },
        {
          "internalType": "uint256",
          "name": "timestamp",
          "type": "uint256"
        }
      ],
      "stateMutability": "view",
      "type": "function"
    },
    {
      "inputs": [
        {
          "internalType": "string",
          "name": "key",
          "type": "string"
        }
      ],
      "name": "getDataFeedInfo",
      "outputs": [
        {
          "internalType": "uint256",
          "name": "updateInterval",
          "type": "uint256"
        },
        {
          "internalType": "uint256",
          "name": "lastUpdate",
          "type": "uint256"
        },
        {
          "internalType": "uint256",
          "name": "minResponses",
          "type": "uint256"
        },
        {
          "internalType": "uint256",
          "name": "maxResponses",
          "type": "uint256"
        },
        {
          "internalType": "uint256",
          "name": "dataCount",
          "type": "uint256"
        },
        {
          "internalType": "uint256",
          "name": "providerCountForFeed",
          "type": "uint256"
        }
      ],
      "stateMutability": "view",
      "type": "function"
    },
    {
      "inputs": [
        {
          "internalType": "string",
          "name": "key",
          "type": "string"
        },
        {
          "internalType": "uint256",
          "name": "limit",
          "type": "uint256"
        }
      ],
      "name": "getDataHistory",
      "outputs": [
        {
          "internalType": "uint256[]",
          "name": "values",
          "type": "uint256[]"
        },
        {
          "internalType": "uint256[]",
          "name": "timestamps",
          "type": "uint256[]"
        }
      ],
      "stateMutability": "view",
      "type": "function"
    },
    {
      "inputs": [
        {
          "internalType": "string",
          "name": "key",
          "type": "string"
        },
        {
          "internalType": "uint256",
          "name": "count",
          "type": "uint256"
        }
      ],
      "name": "getDataWithAverage",
      "outputs": [
        {
          "internalType": "uint256",
          "name": "average",
          "type": "uint256"
        },
        {
          "internalType": "uint256",
          "name": "timestamp",
          "type": "uint256"
        }
      ],
      "stateMutability": "view",
      "type": "function"
    },
    {
      "inputs": [],
      "name": "minimumStake",
      "outputs": [
        {
          "internalType": "uint256",
          "name": "",
          "type": "uint256"
        }
      ],
      "stateMutability": "view",
      "type": "function"
    },
    {
      "inputs": [],
      "name": "providerCount",
      "outputs": [
        {
          "internalType": "uint256",
          "name": "",
          "type": "uint256"
        }
      ],
      "stateMutability": "view",
      "type": "function"
    },
    {
      "inputs": [
        {
          "internalType": "address",
          "name": "",
          "type": "address"
        }
      ],
      "name": "providerStake",
      "outputs": [
        {
          "internalType": "uint256",
          "name": "",
          "type": "uint256"
        }
      ],
      "stateMutability": "view",
      "type": "function"
    },
    {
      "inputs": [
        {
          "internalType": "address",
          "name": "provider",
          "type": "address"
        }
      ],
      "name": "removeDataProvider",
      "outputs": [],
      "stateMutability": "nonpayable",
      "type": "function"
    },
    {
      "inputs": [
        {
          "internalType": "uint256",
          "name": "newMinimum",
          "type": "uint256"
        }
      ],
      "name": "setMinimumStake",
      "outputs": [],
      "stateMutability": "nonpayable",
      "type": "function"
    },
    {
      "inputs": [
        {
          "internalType": "address",
          "name": "provider",
          "type": "address"
        },
        {
          "internalType": "uint256",
          "name": "amount",
          "type": "uint256"
        },
        {
          "internalType": "string",
          "name": "reason",
          "type": "string"
        }
      ],
      "name": "slashProvider",
      "outputs": [],
      "stateMutability": "nonpayable",
      "type": "function"
    },
    {
      "inputs": [
        {
          "internalType": "address",
          "name": "token",
          "type": "address"
        },
        {
          "internalType": "uint256",
          "name": "amount",
          "type": "uint256"
        }
      ],
      "name": "stakeTokens",
      "outputs": [],
      "stateMutability": "nonpayable",
      "type": "function"
    },
    {
      "inputs": [
        {
          "internalType": "string",
          "name": "key",
          "type": "string"
        },
        {
          "internalType": "uint256",
          "name": "value",
          "type": "uint256"
        },
        {
          "internalType": "bytes32",
          "name": "dataHash",
          "type": "bytes32"
        }
      ],
      "name": "submitData",
      "outputs": [],
      "stateMutability": "nonpayable",
      "type": "function"
    },
    {
      "inputs": [
        {
          "internalType": "address",
          "name": "token",
          "type": "address"
        },
        {
          "internalType": "uint256",
          "name": "amount",
          "type": "uint256"
        }
      ],
      "name": "unstakeTokens",
      "outputs": [],
      "stateMutability": "nonpayable",
      "type": "function"
    },
    {
      "inputs": [
        {
          "internalType": "string",
          "name": "key",
          "type": "string"
        },
        {
          "internalType": "uint256",
          "name": "updateInterval",
          "type": "uint256"
        },
        {
          "internalType": "uint256",
          "name": "minResponses",
          "type": "uint256"
        },
        {
          "internalType": "uint256",
          "name": "maxResponses",
          "type": "uint256"
        }
      ],
      "name": "updateDataFeed",
      "outputs": [],
      "stateMutability": "nonpayable",
      "type": "function"
    },
    {
      "inputs": [
        {
          "internalType": "address",
          "name": "token",
          "type": "address"
        },
        {
          "internalType": "uint256",
          "name": "amount",
          "type": "uint256"
        }
      ],
      "name": "withdrawStuckTokens",
      "outputs": [],
      "stateMutability": "nonpayable",
      "type": "function"
    }
  ],
  "bytecode": "0x6080806040523461003557600380546001600160a01b03191633179055683635c9adc5dea00000600455611428908161003b8239f35b600080fdfe6040608081526004908136101561001557600080fd5b600090813560e01c80630badafe114610deb5780630c44f05d14610c3657806313bd052314610bff578063233e990314610bd057806350910ad614610b4b5780636819538a14610a23578063692fc0941461098c57806369dc3ae21461094f57806374c832681461093157806379a83f5a146108695780639fb7788114610750578063ae55c88814610677578063b31607a81461056e578063bcd2964f14610477578063bd61f0a6146103cd578063bdd6062e14610366578063e89a173e146101e3578063ec5ffac2146101c1578063f851a440146101995763f9244dd7146100fd57600080fd5b3461019557602036600319011261019557610116611125565b6003546001600160a01b0391906101309083163314611223565b1690818352600160205280832060ff19815416905560055480156101825760001901600555519081527f1589f8555933761a3cff8aa925061be3b46e2dd43f621322ab611d300f62b1d990602090a180f35b634e487b7160e01b845260118552602484fd5b5080fd5b503461019557816003193601126101955760035490516001600160a01b039091168152602090f35b5082346101df57826003193601126101df5760209250549051908152f35b8280fd5b5082346101df57816003193601126101df576101fd611125565b602435903385526020926001845261021a60ff8688205416611280565b3386526002845282858720541061032e573386526002845261023f838688205461131b565b8154116102f557918391610291933388526002845286882061026284825461131b565b9055865163a9059cbb60e01b815233918101918252602082019390935291938492839189918391604090910190565b03926001600160a01b03165af19182156102e8576102b8935084926102bb575b50506113b4565b80f35b6102da9250803d106102e1575b6102d28183611057565b81019061139c565b83806102b1565b503d6102c8565b50505051903d90823e3d90fd5b845162461bcd60e51b8152908101849052601360248201527242656c6f77206d696e696d756d207374616b6560681b6044820152606490fd5b845162461bcd60e51b81529081018490526012602482015271496e73756666696369656e74207374616b6560701b6044820152606490fd5b5082346101df57602080926103a861037d366110eb565b97929195909461039860018060a01b03600354163314611223565b519382858094519384920161113b565b81018881520301902091600183016103c2815415156112cc565b556003820155015580f35b508290346101df57806003193601126101df57602061043e926103ee611125565b6003546001600160a01b0390811690879061040a338414611223565b865163a9059cbb60e01b81526001600160a01b03909316948301948552602435602086015291968794859391849160400190565b0393165af190811561046e5750610453575080f35b61046a9060203d81116102e1576102d28183611057565b5080f35b513d84823e3d90fd5b5082346101df57610487366111bd565b9091835183818095516104a0816020988980960161113b565b8101888152030190206007810154928381111561056757508290955b6104c582611340565b966104cf83611340565b946006839201916000198201918211905b858110610512578a8a61050e8b8b61050184519585879687528601906111ef565b91848303908501526111ef565b0390f35b81610554578061052561054f928561131b565b8652848a5260018b87208d61053c84835492611372565b520154610549828b611372565b5261125b565b6104e0565b634e487b7160e01b855260118752602485fd5b90956104bc565b5091346101955761057e366111bd565b91909284518481809651610598816020998a80960161113b565b810184815203019020936007850154908482106106355782959493919591839460066105c4828a61131b565b9701935b8888108061062c575b156105fd576105f06105f06105f6928a89528787528c8920549061130e565b9761125b565b96956105c8565b9750509150935082156106195750508351920482524290820152f35b634e487b7160e01b825260129052602490fd5b508187106105d1565b8360649188519162461bcd60e51b8352820152601860248201527f496e73756666696369656e74206461746120706f696e747300000000000000006044820152fd5b5091903461074d576020918260031936011261019557803567ffffffffffffffff81116101df57836106af6106c1923690850161108f565b8187519382858094519384920161113b565b81018581520301902090600782015490811561071657600019820191821161070357508291600691869452018352209060018254920154908351928352820152f35b634e487b7160e01b845260119052602483fd5b855162461bcd60e51b815290810185905260116024820152704e6f206461746120617661696c61626c6560781b6044820152606490fd5b80fd5b5091346101955760603660031901126101955761076b611125565b6024359160443567ffffffffffffffff81116108655761078e903690830161108f565b506003546001600160a01b03906107a89082163314611223565b82169081855260026020528386862054106108225750839461081c917f1f23fbfb3eedfa7285fbf3046ae9bdcfdfc0cbc70611752972939d76849ed5c5955260026020528086206107fa85825461131b565b9055516001600160a01b03909216825260208201929092529081906040820190565b0390a180f35b606490602087519162461bcd60e51b8352820152601b60248201527f496e73756666696369656e74207374616b6520746f20736c61736800000000006044820152fd5b8480fd5b508290346101df57806003193601126101df57826020610887611125565b606460243595338552600184526108a360ff8787205416611280565b85516323b872dd60e01b81523391810191909152306024820152604481018790529384928391906001600160a01b03165af19081156109275761090492916108f2918691610909575b506113b4565b3384526002602052832091825461130e565b905580f35b610921915060203d81116102e1576102d28183611057565b866108ec565b82513d86823e3d90fd5b50346101955781600319360112610195576020906005549051908152f35b50346101955760203660031901126101955760209160ff9082906001600160a01b03610979611125565b1681526001855220541690519015158152f35b5082346101df5760203660031901126101df57803567ffffffffffffffff8111610a1f57602060c0946109c56109d8933690860161108f565b908286519483868095519384920161113b565b8201908152030190209160018301549260028101549260076003830154918301549201549260055494815196875260208701528501526060840152608083015260a0820152f35b8380fd5b508290346101df5760209081600319360112610a1f57823567ffffffffffffffff81116108655782610a5b610a6d923690870161108f565b8184519382858094519384920161113b565b81018781520301902081519385825490610a868261115e565b908188526001928381169081600014610b2d5750600114610af9575b5050610ab386610adf980387611057565b82015492600283015490600760038501549385015494015494815198899860c08a5260c08a0190611198565b968801528601526060850152608084015260a08301520390f35b9097508381528581205b888210610b1a5750860185019650610ab386610aa2565b8054888301880152908601908201610b03565b60ff1916888a01525050151560051b860185019650610ab386610aa2565b50346101955760203660031901126101955760207fae9c2c6481964847714ce58f65a7f6dcc41d0d8394449bacdf161b5920c4744a91610b89611125565b6003546001600160a01b039190610ba39083163314611223565b169081855260018352808520600160ff19825416179055610bc560055461125b565b60055551908152a180f35b82843461019557602036600319011261019557610bf860018060a01b03600354163314611223565b8035905580f35b50346101955760203660031901126101955760209181906001600160a01b03610c26611125565b1681526002845220549051908152f35b50346101955760603660031901126101955767ffffffffffffffff8335818111610a1f57610c67903690860161108f565b9160243533855260209260018452610c8460ff8488205416611280565b825184818751610c978183858c0161113b565b81018981520301902090600182015491610cb28315156112cc565b610cc16002820193845461130e565b4210610db3576007810190815491610cd88361125b565b90558551926080840190811184821017610da05789879593610d8b999795936003937f3049b5d6fd0799bd38efbd141826a9f18653074f4bfb1faad992125c56326e949c9a52868552600689860191428352898701933385526060880195604435875252018952878d2094518555516001850155600284019060018060a01b039051166bffffffffffffffffffffffff60a01b825416179055519101554290558151948594608086526080860190611198565b9284015242908301523360608301520390a180f35b634e487b7160e01b8a5260418b5260248afd5b845162461bcd60e51b8152808a018790526012602482015271546f6f20736f6f6e20746f2075706461746560701b6044820152606490fd5b503461019557610dfa366110eb565b92939091610e1360018060a01b03600354163314611223565b815185519760209889880190610e2a81858461113b565b8301898152838b60019586930301902001546110145789610e55918651809381928c5192839161113b565b81018b81520301902091875167ffffffffffffffff811161100157610e7a845461115e565b601f8111610fbb575b508a601f8211600114610f2757938886948c9d99978d95857ff6487884b2645477f0eaa4dc20448bfb866fe108e132ff5f8e2dc0e3167675059f96610f0a9f9e9c9a8f60079992610f1c575b5050600019600383901b1c191690821b1785555b84015587600384015582015582600282015501558151968796608088526080880190611198565b9486015284015260608301520390a180f35b01519050388f610ecf565b848b528b8b2090601f1983168c5b818110610fa657509487858e9f9b9997967ff6487884b2645477f0eaa4dc20448bfb866fe108e132ff5f8e2dc0e3167675059f9796610f0a9f9e9c9a968f968e978360079b10610f8d575b505050811b018555610ee3565b015160001960f88460031b161c19169055388f80610f80565b8c830151845592850192918e01918e01610f35565b848b528b8b20601f830160051c8101918d8410610ff7575b601f0160051c019083905b828110610fec575050610e83565b8c8155018390610fde565b9091508190610fd3565b634e487b7160e01b8a526041835260248afd5b845162461bcd60e51b81528083018b9052601860248201527f44617461206665656420616c72656164792065786973747300000000000000006044820152606490fd5b90601f8019910116810190811067ffffffffffffffff82111761107957604052565b634e487b7160e01b600052604160045260246000fd5b81601f820112156110e65780359067ffffffffffffffff821161107957604051926110c4601f8401601f191660200185611057565b828452602083830101116110e657816000926020809301838601378301015290565b600080fd5b60806003198201126110e6576004359067ffffffffffffffff82116110e6576111169160040161108f565b90602435906044359060643590565b600435906001600160a01b03821682036110e657565b60005b83811061114e5750506000910152565b818101518382015260200161113e565b90600182811c9216801561118e575b602083101461117857565b634e487b7160e01b600052602260045260246000fd5b91607f169161116d565b906020916111b18151809281855285808601910161113b565b601f01601f1916010190565b60406003198201126110e6576004359067ffffffffffffffff82116110e6576111e89160040161108f565b9060243590565b90815180825260208080930193019160005b82811061120f575050505090565b835185529381019392810192600101611201565b1561122a57565b60405162461bcd60e51b81526020600482015260096024820152682737ba1030b236b4b760b91b6044820152606490fd5b600019811461126a5760010190565b634e487b7160e01b600052601160045260246000fd5b1561128757565b60405162461bcd60e51b815260206004820152601760248201527f4e6f7420617574686f72697a65642070726f76696465720000000000000000006044820152606490fd5b156112d357565b60405162461bcd60e51b815260206004820152601360248201527211185d184819995959081b9bdd08199bdd5b99606a1b6044820152606490fd5b9190820180921161126a57565b9190820391821161126a57565b67ffffffffffffffff81116110795760051b60200190565b9061134a82611328565b6113576040519182611057565b8281528092611368601f1991611328565b0190602036910137565b80518210156113865760209160051b010190565b634e487b7160e01b600052603260045260246000fd5b908160209103126110e6575180151581036110e65790565b156113bb57565b60405162461bcd60e51b815260206004820152600f60248201526e151c985b9cd9995c8819985a5b1959608a1b6044820152606490fdfea2646970667358221220732f9191584bc680d59aad9137cc3d53521f57de0bddf0658c492237a320fd9a64736f6c63430008130033",
  "linkReferences": {},
  "deployedLinkReferences": {}
}