{
  "_format": "hh-sol-artifact-1",
  "contractName": "RentChain",
  "sourceName": "contracts/RentChain.sol",
  "abi": [
    {
      "inputs": [
        {
          "internalType": "uint256",
          "name": "_platformFee",
          "type": "uint256"
        }
      ],
      "stateMutability": "nonpayable",
      "type": "constructor"
    },
    {
      "anonymous": false,
      "inputs": [
        {
          "indexed": false,
          "internalType": "uint256",
          "name": "newFee",
          "type": "uint256"
        }
      ],
      "name": "PlatformFeeUpdated",
      "type": "event"
    },
    {
      "anonymous": false,
      "inputs": [
        {
          "indexed": false,
          "internalType": "address",
          "name": "user",
          "type": "address"
        },
        {
          "indexed": false,
          "internalType": "bool",
          "name": "isLandlord",
          "type": "bool"
        }
      ],
      "name": "UserVerified",
      "type": "event"
    },
    {
      "inputs": [
        {
          "internalType": "address",
          "name": "landlord",
          "type": "address"
        },
        {
          "internalType": "address",
          "name": "tenant",
          "type": "address"
        },
        {
          "internalType": "uint256",
          "name": "amount",
          "type": "uint256"
        },
        {
          "internalType": "address",
          "name": "token",
          "type": "address"
        },
        {
          "internalType": "uint256",
          "name": "duration",
          "type": "uint256"
        }
      ],
      "name": "createEscrow",
      "outputs": [
        {
          "internalType": "uint256",
          "name": "",
          "type": "uint256"
        }
      ],
      "stateMutability": "nonpayable",
      "type": "function"
    },
    {
      "inputs": [
        {
          "internalType": "uint256",
          "name": "propertyId",
          "type": "uint256"
        },
        {
          "internalType": "address",
          "name": "tenant",
          "type": "address"
        },
        {
          "internalType": "uint256",
          "name": "rentAmount",
          "type": "uint256"
        },
        {
          "internalType": "uint256",
          "name": "securityDeposit",
          "type": "uint256"
        },
        {
          "internalType": "uint256",
          "name": "startDate",
          "type": "uint256"
        },
        {
          "internalType": "uint256",
          "name": "endDate",
          "type": "uint256"
        },
        {
          "internalType": "address",
          "name": "paymentToken",
          "type": "address"
        }
      ],
      "name": "createRentalAgreement",
      "outputs": [
        {
          "internalType": "uint256",
          "name": "",
          "type": "uint256"
        }
      ],
      "stateMutability": "nonpayable",
      "type": "function"
    },
    {
      "inputs": [],
      "name": "escrowManager",
      "outputs": [
        {
          "internalType": "contract EscrowManager",
          "name": "",
          "type": "address"
        }
      ],
      "stateMutability": "view",
      "type": "function"
    },
    {
      "inputs": [],
      "name": "getSystemInfo",
      "outputs": [
        {
          "internalType": "uint256",
          "name": "totalProperties",
          "type": "uint256"
        },
        {
          "internalType": "uint256",
          "name": "totalAgreements",
          "type": "uint256"
        },
        {
          "internalType": "uint256",
          "name": "totalEscrows",
          "type": "uint256"
        },
        {
          "internalType": "uint256",
          "name": "totalPayments",
          "type": "uint256"
        }
      ],
      "stateMutability": "view",
      "type": "function"
    },
    {
      "inputs": [],
      "name": "owner",
      "outputs": [
        {
          "internalType": "address",
          "name": "",
          "type": "address"
        }
      ],
      "stateMutability": "view",
      "type": "function"
    },
    {
      "inputs": [],
      "name": "paymentProcessor",
      "outputs": [
        {
          "internalType": "contract PaymentProcessor",
          "name": "",
          "type": "address"
        }
      ],
      "stateMutability": "view",
      "type": "function"
    },
    {
      "inputs": [],
      "name": "platformFee",
      "outputs": [
        {
          "internalType": "uint256",
          "name": "",
          "type": "uint256"
        }
      ],
      "stateMutability": "view",
      "type": "function"
    },
    {
      "inputs": [
        {
          "internalType": "address",
          "name": "to",
          "type": "address"
        },
        {
          "internalType": "uint256",
          "name": "amount",
          "type": "uint256"
        },
        {
          "internalType": "address",
          "name": "token",
          "type": "address"
        },
        {
          "internalType": "string",
          "name": "description",
          "type": "string"
        }
      ],
      "name": "processPayment",
      "outputs": [
        {
          "internalType": "uint256",
          "name": "",
          "type": "uint256"
        }
      ],
      "stateMutability": "nonpayable",
      "type": "function"
    },
    {
      "inputs": [],
      "name": "propertyRegistry",
      "outputs": [
        {
          "internalType": "contract PropertyRegistry",
          "name": "",
          "type": "address"
        }
      ],
      "stateMutability": "view",
      "type": "function"
    },
    {
      "inputs": [
        {
          "internalType": "string",
          "name": "title",
          "type": "string"
        },
        {
          "internalType": "uint256",
          "name": "price",
          "type": "uint256"
        },
        {
          "internalType": "string",
          "name": "location",
          "type": "string"
        },
        {
          "internalType": "string",
          "name": "ipfsHash",
          "type": "string"
        }
      ],
      "name": "registerProperty",
      "outputs": [
        {
          "internalType": "uint256",
          "name": "",
          "type": "uint256"
        }
      ],
      "stateMutability": "nonpayable",
      "type": "function"
    },
    {
      "inputs": [],
      "name": "rentAgreement",
      "outputs": [
        {
          "internalType": "contract RentAgreement",
          "name": "",
          "type": "address"
        }
      ],
      "stateMutability": "view",
      "type": "function"
    },
    {
      "inputs": [
        {
          "internalType": "uint256",
          "name": "newFee",
          "type": "uint256"
        }
      ],
      "name": "setPlatformFee",
      "outputs": [],
      "stateMutability": "nonpayable",
      "type": "function"
    },
    {
      "inputs": [
        {
          "internalType": "address",
          "name": "",
          "type": "address"
        }
      ],
      "name": "verifiedLandlords",
      "outputs": [
        {
          "internalType": "bool",
          "name": "",
          "type": "bool"
        }
      ],
      "stateMutability": "view",
      "type": "function"
    },
    {
      "inputs": [
        {
          "internalType": "address",
          "name": "",
          "type": "address"
        }
      ],
      "name": "verifiedTenants",
      "outputs": [
        {
          "internalType": "bool",
          "name": "",
          "type": "bool"
        }
      ],
      "stateMutability": "view",
      "type": "function"
    },
    {
      "inputs": [
        {
          "internalType": "address",
          "name": "user",
          "type": "address"
        },
        {
          "internalType": "bool",
          "name": "isLandlord",
          "type": "bool"
        }
      ],
      "name": "verifyUser",
      "outputs": [],
      "stateMutability": "nonpayable",
      "type": "function"
    },
    {
      "inputs": [
        {
          "internalType": "address",
          "name": "token",
          "type": "address"
        },
        {
          "internalType": "uint256",
          "name": "amount",
          "type": "uint256"
        }
      ],
      "name": "withdrawFees",
      "outputs": [],
      "stateMutability": "nonpayable",
      "type": "function"
    }
  ],
  "bytecode": "0x6080346101af57601f614e4938819003918201601f19168301926001600160401b03929091838511838610176101b45781602092849260409788528339810103126101af5751600480546001600160a01b03199081163317825560059290925583519192916112108082019291908484118285101761019a57612a6d823980600093039083f092831561019057825485166001600160a01b0394851690811784558651906111cc80830191908483118484101761017d57918391602093613c7d8439815203019084f0801561017357841680866001541617600155865190610b1d90818301918383108584111761017d57918391602093610cdf8439815203019084f0801561017357841685600254161760025585519161127190818401928484109084111761016057509082916117fc8339039082f090811561015557501690600354161760035551610b1490816101cb8239f35b8451903d90823e3d90fd5b634e487b7160e01b855260419052602484fd5b86513d85823e3d90fd5b634e487b7160e01b875260418652602487fd5b85513d84823e3d90fd5b604183634e487b7160e01b6000525260246000fd5b600080fd5b634e487b7160e01b600052604160045260246000fdfe6040608081526004908136101561001557600080fd5b600091823560e01c9081630bf2d6681461087357816312e8e2c31461081757816326232a2e146107f857816326b703a7146107d05781636cb69f42146106065781637e7ed03214610559578163818645b1146104a25781638869ea9014610464578163886e10441461043b5781638da5cb5b14610413578163a67185161461033b578163ac613f79146102fd578163ad3b1b4714610254578163c12255c41461022b578163f08e00ea146100fe575063f1c6bdf8146100d357600080fd5b346100fa57816003193601126100fa5760035490516001600160a01b039091168152602090f35b5080fd5b8383346100fa5760e03660031901126100fa57610119610a50565b6001600160a01b039360c4358581169290839003610227578516908185526020956007875260ff8587205416156101ee578692918660e49260015416875196879586946387f98ca960e01b8652803590860152602485015260443560448501526064356064850152608435608485015260a43560a485015260c48401525af19283156101e35780936101ae575b505051908152f35b909192508382813d83116101dc575b6101c781836109a6565b810103126101d95750519083806101a6565b80fd5b503d6101bd565b8251903d90823e3d90fd5b845162461bcd60e51b8152808301889052601360248201527215195b985b9d081b9bdd081d995c9a599a5959606a1b6044820152606490fd5b8480fd5b5050346100fa57816003193601126100fa5760025490516001600160a01b039091168152602090f35b919050346102f957806003193601126102f9576020610271610a3a565b92604460018060a01b039186838254169361028d853314610a66565b8651978895869463a9059cbb60e01b86528501526024356024850152165af19081156102f057506102bc575080f35b6020813d82116102e8575b816102d4602093836109a6565b810103126100fa5751801515036101d95780f35b3d91506102c7565b513d84823e3d90fd5b8280fd5b5050346100fa5760203660031901126100fa5760209160ff9082906001600160a01b03610328610a3a565b1681526007855220541690519015158152f35b919050346102f95760a03660031901126102f957610357610a3a565b61035f610a50565b906001600160a01b0390606435828116919087908390036101d95760209460a4938580600254169289519a8b988997635338c28b60e11b895216908701521660248501526044356044850152606484015260843560848401525af19182156104095783926103d2575b6020838351908152f35b9091506020813d8211610401575b816103ed602093836109a6565b810103126102f957602092505190386103c8565b3d91506103e0565b81513d85823e3d90fd5b9050346102f957826003193601126102f9575490516001600160a01b03909116815260209150f35b5050346100fa57816003193601126100fa5760015490516001600160a01b039091168152602090f35b5050346100fa5760203660031901126100fa5760209160ff9082906001600160a01b0361048f610a3a565b1681526006855220541690519015158152f35b919050346102f95760803660031901126102f9576104be610a3a565b6001600160a01b036044358181169491929085900361055557606435928667ffffffffffffffff85116101d9576104fa602095369086016109de565b9261053a8360035416948851998a978896879563818645b160e01b8752169085015260243560248501526044840152608060648401526084830190610a9e565b03925af19182156104095783926103d2576020838351908152f35b8580fd5b919050346102f957806003193601126102f957610574610a3a565b602435928315159081850361055557547f34736af44d2b91cd43fa896d4cfe0861ec1e6b4538583d385fc671639e9153b2946001600160a01b03916105bc9083163314610a66565b156105e95782811686526006602052838620805460ff191660011790555b8351921682526020820152a180f35b82811686526007602052838620805460ff191660011790556105da565b919050346102f957826003193601126102f95782548151630e5403cd60e21b815291906001600160a01b0390602090819085908790829086165afa9384156107c65790859392918795610794575b5080826001541684519788809263c9b99dab60e01b82525afa91821561071b578495968893610762575b508181600254168551968780926389cb29dd60e01b82525afa948515610758578895610725575b5060035484516304d915c960e51b815296839288928391165afa94851561071b5787956106e4575b506080965082519586528501528301526060820152f35b9080955081813d8311610714575b6106fc81836109a6565b8101031261071057608096505193386106cd565b8680fd5b503d6106f2565b83513d89823e3d90fd5b9094508181813d8311610751575b61073d81836109a6565b8101031261074d575193816106a5565b8780fd5b503d610733565b84513d8a823e3d90fd5b945091508084813d811161078d575b61077b81836109a6565b8101031261071057849351913861067e565b503d610771565b818096508195503d83116107bf575b6107ad81836109a6565b81010312610555578492519338610654565b503d6107a3565b83513d88823e3d90fd5b5050346100fa57816003193601126100fa57905490516001600160a01b039091168152602090f35b5050346100fa57816003193601126100fa576020906005549051908152f35b919050346102f95760203660031901126102f957816020916108677f45610d581145924dd7090a5017e5f2b1d6f42213bb2e95707ff86846bbfcb1ca94359260018060a01b039054163314610a66565b8160055551908152a180f35b8383346100fa57600319926080368501126102f95767ffffffffffffffff8135818111610227576108a790369084016109de565b91604435828111610555576108bf90369083016109de565b91606435908111610555576108d790369083016109de565b953386526020966006885260ff86882054161561096b578661092b95936109528a969460809461094360018060a01b03865416978c519b8c9a8b998a9863017e5acd60e31b8a528901526084880190610a9e565b90602435602488015284878303016044880152610a9e565b91848303016064850152610a9e565b03925af19283156101e35780936101ae57505051908152f35b855162461bcd60e51b81528084018990526015602482015274139bdd081d995c9a599a5959081b185b991b1bdc99605a1b6044820152606490fd5b90601f8019910116810190811067ffffffffffffffff8211176109c857604052565b634e487b7160e01b600052604160045260246000fd5b81601f82011215610a355780359067ffffffffffffffff82116109c85760405192610a13601f8401601f1916602001856109a6565b82845260208383010111610a3557816000926020809301838601378301015290565b600080fd5b600435906001600160a01b0382168203610a3557565b602435906001600160a01b0382168203610a3557565b15610a6d57565b60405162461bcd60e51b81526020600482015260096024820152682737ba1037bbb732b960b91b6044820152606490fd5b919082519283825260005b848110610aca575050826000602080949584010152601f8019910116010190565b602081830181015184830182015201610aa956fea2646970667358221220988e58ac8bec0de4658c9a7a9b8e7e247f713e03b926e862d5ba7d4763342e5c64736f6c6343000813003360803461007457601f610b1d38819003918201601f19168301916001600160401b038311848410176100795780849260209460405283398101031261007457516001600160a01b0381169081900361007457600280546001600160a01b031916919091179055604051610a8d90816100908239f35b600080fd5b634e487b7160e01b600052604160045260246000fdfe608080604052600436101561001357600080fd5b60003560e01c908163012f52ee146108b657508063356008a51461079a5780636374b11b14610716578063886e1044146106ed57806389cb29dd146106cf5780639c17e43914610559578063a5c1674e14610486578063a67185161461023c5763ed6531641461008257600080fd5b346102375760208060031936011261023757600435806000526000825260406000209060058201926100c760ff85546100bd828216156109da565b60081c1615610a19565b600483015442106101fc5782546001600160a01b0390811693338590036101b757600381015460028201805460405163a9059cbb60e01b81526001600160a01b039890981660048901526024880152969495949084908690604490829060009088165af19485156101ab577f6244ed823ca6be0f11bc890c3fafcf3c29cb23420c14243642e930b5e07e6d0a956101669160009161017e575b5061099c565b600160ff1982541617905554169354604051908152a3005b61019e9150863d88116101a4575b6101968183610962565b810190610984565b38610160565b503d61018c565b6040513d6000823e3d90fd5b60405162461bcd60e51b815260048101849052601960248201527f4f6e6c79206c616e646c6f72642063616e2072656c65617365000000000000006044820152606490fd5b6064906040519062461bcd60e51b825260048201526014602482015273546f6f206561726c7920746f2072656c6561736560601b6044820152fd5b600080fd5b346102375760a036600319011261023757610255610936565b61025d61094c565b606435916001600160a01b03831683036102375760443515610450576040516323b872dd60e01b8152336004820152306024820152604480359082015260208160648160006001600160a01b0389165af180156101ab576102c591600091610431575061099c565b60015491600019831461041b57600183016001556084354201421161041b5760405160e081019481861067ffffffffffffffff8711176104055760409586526001600160a01b039384168083529284166020808401828152604435858a0181815294881660608701908152608435420160808801908152600060a0890181815260c08a018281528d8352828852918e902099518a54908d166001600160a01b0319918216178b55955160018b018054918e16918816919091179055975160028a0155915160038901805491909b1694169390931790985590516004860155925160059094018054965161ff0090151560081b1694151560ff1661ffff19909716969096179390931790945594519485529383907f9405ad0a6208539879349284d71265479b1623846f70303da1f9890d6e8c10a7908690a4604051908152f35b634e487b7160e01b600052604160045260246000fd5b634e487b7160e01b600052601160045260246000fd5b61044a915060203d6020116101a4576101968183610962565b85610160565b60405162461bcd60e51b815260206004820152600e60248201526d125b9d985b1a5908185b5bdd5b9d60921b6044820152606490fd5b3461023757602036600319011261023757600435806000526000602052604060002060058101908154906104bd60ff8316156109da565b8054336001600160a01b0391821614918215610548575b50501561050d5761ff0019166101001790557f7ce7831fed9a800b1aa5e7ca21034bf7b95efc31a196459012cf8b8eb42b7dac600080a2005b60405162461bcd60e51b81526020600482015260136024820152724e6f7420706172747920746f20657363726f7760681b6044820152606490fd5b6001919250015416331484806104d4565b346102375760603660031901126102375760043561057561094c565b9060443591816000526020600081526040600020916005830192835460ff8160081c16156106965760ff6105aa9116156109da565b6002810154861161065f576003015460405163a9059cbb60e01b81526001600160a01b03838116600483015260248201889052909490929184908690604490829060009088165af19485156101ab577ff2986d88fbef6d847cabab14d6c2deed600a28c1330f7a5c25465898dc891d329561062c91600091610642575061099c565b805460ff191660011790556040519586521693a3005b6106599150863d88116101a4576101968183610962565b89610160565b60405162461bcd60e51b815260048101849052600f60248201526e082dadeeadce840e8dede40d0d2ced608b1b6044820152606490fd5b60405162461bcd60e51b8152600481018590526011602482015270139bc8191a5cdc1d5d19481c985a5cd959607a1b6044820152606490fd5b34610237576000366003190112610237576020600154604051908152f35b34610237576000366003190112610237576002546040516001600160a01b039091168152602090f35b3461023757602080600319360112610237576024816001600160a01b0361073b610936565b16604051928380926370a0823160e01b82523060048301525afa9081156101ab5760009161076d575b50604051908152f35b90508181813d8311610793575b6107848183610962565b81010312610237575182610764565b503d61077a565b346102375760208060031936011261023757600435806000526000825260406000209160058301926107d560ff85546100bd828216156109da565b80546001600160a01b039190821633036108715760038101546001820180546002909301805460405163a9059cbb60e01b81529486166001600160a01b03166004860152602485015296929493929091849086908516816000816044810103925af19485156101ab577f6244ed823ca6be0f11bc890c3fafcf3c29cb23420c14243642e930b5e07e6d0a9561016691600091610642575061099c565b60405162461bcd60e51b815260048101849052601860248201527f4f6e6c79206c616e646c6f72642063616e20726566756e6400000000000000006044820152606490fd5b346102375760203660031901126102375760e090600435600052600060205260ff604060002060018060a01b03908181541691806001830154169060028301549060038401541691600560048501549401549487526020870152604086015260608501526080840152818116151560a084015260081c16151560c0820152f35b600435906001600160a01b038216820361023757565b602435906001600160a01b038216820361023757565b90601f8019910116810190811067ffffffffffffffff82111761040557604052565b90816020910312610237575180151581036102375790565b156109a357565b60405162461bcd60e51b815260206004820152600f60248201526e151c985b9cd9995c8819985a5b1959608a1b6044820152606490fd5b156109e157565b60405162461bcd60e51b815260206004820152601060248201526f105b1c9958591e481c995b19585cd95960821b6044820152606490fd5b15610a2057565b60405162461bcd60e51b815260206004820152600f60248201526e115cd8dc9bddc8191a5cdc1d5d1959608a1b6044820152606490fdfea264697066735822122038f8572c47fcfe8a4eac0cb2e7d6790debb0d6d8d4772b5c062be8e507d381bb64736f6c634300081300336080806040523461002857600380546001600160a01b03191633179055611243908161002e8239f35b600080fdfe608080604052600436101561001357600080fd5b60003560e01c90816368c4ac2614610e9f57508063818645b114610a575780638709ad40146104b357806387d81789146103395780638da5cb5b146103105780639b22b920146102f25780639d7dadeb146101d1578063bd61f0a61461011b5763e79864661461008257600080fd5b346101165760403660031901126101165761009b610eda565b6024359081151591828103610116577fd86c88b4a367d9b81a6e00c9d3f7d01657bffef358fa8968c91c045ae99f0d529261010960409360018060a01b03906100e982600354163314611041565b1692836000526002602052846000209060ff801983541691151516179055565b82519182526020820152a1005b600080fd5b3461011657604036600319011261011657610134610eda565b6003546001600160a01b039160209161018b91908416610155338214611041565b60405163a9059cbb60e01b81526001600160a01b0390911660048201526024803590820152938492839160009183906044820190565b0393165af180156101c55761019c57005b6101bc9060203d81116101be575b6101b48183610f22565b810190611138565b005b503d6101aa565b6040513d6000823e3d90fd5b3461011657602080600319360112610116576101eb610eda565b600180546001600160a01b0393909290919084166000805b8581106102995750610214906111b3565b9460009360005b86811061023457604051806102308a82610fcc565b0390f35b8060005260008252604060002084848782828554161493841561028a575b50505050610269575b61026490611150565b61021b565b94610282818761027c610264948c6111f9565b52611150565b95905061025b565b0154161490508484878c610252565b806000526000855260406000208388868282855416149384156102e3575b505050506102ce575b6102c990611150565b610203565b906102db6102c991611150565b9190506102c0565b0154161490508388868b6102b7565b34610116576000366003190112610116576020600154604051908152f35b34610116576000366003190112610116576003546040516001600160a01b039091168152602090f35b34610116576020806003193601126101165760043560005260008152604060002060018060a01b0390818154169260019183838201541693600282015490600383015416906004830154926005810160405196879160009181549161039d83611007565b928386528a838216918260001461048d575050600114610449575b505050916103d460069260ff949b99989796959a9b0388610f22565b0154169560405197889687528487015260408601526060850152608084015260e060a08401528151918260e085015260005b83811061043157505050610100926000848385010152151560c0830152601f80199101168101030190f35b81810183015187820161010001528694508201610406565b89935060009291925282600020916000925b828410610473575050508201016103d48260ff6103b8565b849295829585835492010152019101909288928a9461045b565b60ff19168782015293151560051b860190930193506103d4925084915060ff90506103b8565b346101165760803660031901126101165760043567ffffffffffffffff8111610116576104e4903690600401610f9b565b602490813567ffffffffffffffff811161011657610506903690600401610f9b565b9390610510610ef0565b9260643567ffffffffffffffff811161011657610531903690600401610f44565b92868203610a23576001600160a01b03851660009081526002602052604090205461055e9060ff16611079565b6000805b8881106109e957506040516323b872dd60e01b8152336004820152306024820152604481019190915260208160648160006001600160a01b038b165af19081156101c5576000916109ca575b501561098f576105bd826111b3565b9560005b8381106105d657604051806102308a82610fcc565b6105ec6105e4828b88611175565b3515156110bb565b6106126001600160a01b0361060a610605848888611175565b6111e5565b1615156110f8565b60015461061e81611150565b60015561062f610605838787611175565b61063a838c89611175565b35906040519061064982610f06565b3382526001600160a01b03908116602080840191825260408085019586528d841660608601908152426080870190815260a087018f8152600060c089018190528a81529485905292909320865181546001600160a01b03199081169188169190911782559451600182018054871691881691909117905596516002880155516003870180549094169416939093179091555160048401555180519067ffffffffffffffff821161097a576107006005850154611007565b601f8111610933575b50602090601f83116001146108ba57928260069360c09361075c97966000926108af575b50508160011b916000199060031b1c19161760058501555b0151151591019060ff801983541691151516179055565b6107aa60208b61077b85610774610605828c8c611175565b928b611175565b60405163a9059cbb60e01b81526001600160a01b03909216600483015235602482015291829081906044820190565b038160006001600160a01b038e165af19081156101c557600091610890575b501561085a5790816108559260005260006020526006604060002001600160ff19825416179055806107fb838c6111f9565b5261080a610605838888611175565b610815838d8a611175565b604051903581526001600160a01b039091169133917f37a13dcf7266fe3681e46ca252ea4f79e8a76da88ae9446f99242fbc014a6c3990602090a4611150565b6105c1565b60405162461bcd60e51b815260206004820152600f818501526e151c985b9cd9995c8819985a5b1959608a1b6044820152606490fd5b6108a9915060203d6020116101be576101b48183610f22565b8b6107c9565b01519050388061072d565b906005850160005260206000209160005b601f198516811061091b57508360c09361075c979693600193600697601f19811610610902575b505050811b016005850155610745565b015160001960f88460031b161c191690553880806108f2565b919260206001819286850151815501940192016108cb565b600585016000526020600020601f840160051c810160208510610973575b601f830160051c82018110610967575050610709565b60008155600101610951565b5080610951565b86634e487b7160e01b60005260416004526000fd5b60405162461bcd60e51b8152602060048201526014818801527310985d18da081c185e5b595b9d0819985a5b195960621b6044820152606490fd5b6109e3915060203d6020116101be576101b48183610f22565b886105ae565b906109f5828a87611175565b358101809111610a0e57610a099091611150565b610562565b87634e487b7160e01b60005260116004526000fd5b60405162461bcd60e51b815260206004820152600d818801526c125b9d985b1a59081a5b9c1d5d609a1b6044820152606490fd5b3461011657608036600319011261011657610a70610eda565b610a78610ef0565b60643567ffffffffffffffff811161011657610a98903690600401610f44565b9060018060a01b0381166000526002602052610abb60ff60406000205416611079565b610ac860243515156110bb565b610adc6001600160a01b03841615156110f8565b6040516323b872dd60e01b81523360048201523060248083019190915235604482015260208160648160006001600160a01b0387165af19081156101c557600091610e80575b5015610e4a5760015491610b3583611150565b60015560405190610b4582610f06565b3382526001600160a01b038581166020808501918252602435604080870191825287851660608801908152426080890190815260a08901978852600060c08a018190528b81529485905291909320875181546001600160a01b031990811691881691909117825594516001820180548716918816919091179055915160028301559151600382018054909416941693909317909155516004820155905180519192919067ffffffffffffffff8211610e3457610c046005850154611007565b601f8111610ded575b50602090601f8311600114610d7757928260069360c093610c5e9796600092610d6c5750508160011b916000199060031b1c19161760058501550151151591019060ff801983541691151516179055565b60405163a9059cbb60e01b81526001600160a01b0384811660048301526024803590830152909160209183916044918391600091165af19081156101c557600091610d4d575b5015610d085760209181600052600083526006604060002001600160ff1982541617905560405190602435825260018060a01b031690827f37a13dcf7266fe3681e46ca252ea4f79e8a76da88ae9446f99242fbc014a6c39853393a4604051908152f35b60405162461bcd60e51b815260206004820152601c60248201527f5472616e7366657220746f20726563697069656e74206661696c6564000000006044820152606490fd5b610d66915060203d6020116101be576101b48183610f22565b83610ca4565b015190508a8061072d565b90601f198316916005860160005260206000209260005b818110610dd557509360c093610c5e9796936001938360069810610dbc57505050811b016005850155610745565b015160001960f88460031b161c191690558a80806108f2565b92936020600181928786015181550195019301610d8e565b600585016000526020600020601f840160051c810160208510610e2d575b601f830160051c82018110610e21575050610c0d565b60008155600101610e0b565b5080610e0b565b634e487b7160e01b600052604160045260246000fd5b60405162461bcd60e51b815260206004820152600e60248201526d14185e5b595b9d0819985a5b195960921b6044820152606490fd5b610e99915060203d6020116101be576101b48183610f22565b84610b22565b34610116576020366003190112610116576020906001600160a01b03610ec3610eda565b166000526002825260ff6040600020541615158152f35b600435906001600160a01b038216820361011657565b604435906001600160a01b038216820361011657565b60e0810190811067ffffffffffffffff821117610e3457604052565b90601f8019910116810190811067ffffffffffffffff821117610e3457604052565b81601f820112156101165780359067ffffffffffffffff8211610e345760405192610f79601f8401601f191660200185610f22565b8284526020838301011161011657816000926020809301838601378301015290565b9181601f840112156101165782359167ffffffffffffffff8311610116576020808501948460051b01011161011657565b6020908160408183019282815285518094520193019160005b828110610ff3575050505090565b835185529381019392810192600101610fe5565b90600182811c92168015611037575b602083101461102157565b634e487b7160e01b600052602260045260246000fd5b91607f1691611016565b1561104857565b60405162461bcd60e51b81526020600482015260096024820152682737ba1037bbb732b960b91b6044820152606490fd5b1561108057565b60405162461bcd60e51b8152602060048201526013602482015272151bdad95b881b9bdd081cdd5c1c1bdc9d1959606a1b6044820152606490fd5b156110c257565b60405162461bcd60e51b815260206004820152600e60248201526d125b9d985b1a5908185b5bdd5b9d60921b6044820152606490fd5b156110ff57565b60405162461bcd60e51b8152602060048201526011602482015270125b9d985b1a59081c9958da5c1a595b9d607a1b6044820152606490fd5b90816020910312610116575180151581036101165790565b600019811461115f5760010190565b634e487b7160e01b600052601160045260246000fd5b91908110156111855760051b0190565b634e487b7160e01b600052603260045260246000fd5b67ffffffffffffffff8111610e345760051b60200190565b906111bd8261119b565b6111ca6040519182610f22565b82815280926111db601f199161119b565b0190602036910137565b356001600160a01b03811681036101165790565b80518210156111855760209160051b01019056fea2646970667358221220263a9215dc7a50f5d7f09afa02098d577f23001e432939250d929e0622c6f1cb64736f6c6343000813003360808060405234610016576111f4908161001c8239f35b600080fdfe6080604052600436101561001257600080fd5b60e0600035811c80630bf2d668146109f057806339500f34146109d25780637ca28bc61461095d5780638b8cc996146104c25780638f48bd5b1461046a578063a715f673146101c4578063cb644897146101325763f7b108081461007557600080fd5b3461012d57602036600319011261012d57600435600090815260208190526040902080546001600160a01b0316906100af60018201611090565b61011c600283015461010e6100c660038601611090565b916100d360048701611090565b926100fb600660ff60058a015416980154966040519a8b9a8b528060208c01528a0190611016565b9160408901528782036060890152611016565b908582036080870152611016565b91151560a084015260c08301520390f35b600080fd5b3461012d5760208060031936011261012d576001600160a01b03610154610f9e565b166000526001908181526040600020916040519081938491848254948581520191600052846000209060005b868682106101ae57859061019682870383610f27565b6101aa604051928284938452830190610fe2565b0390f35b8354855288955090930192918101918101610180565b503461012d57604036600319011261012d57602435906101e382611193565b6101f06040519182610f27565b828152601f198061020085611193565b0193602094368685013761021381611193565b946102216040519687610f27565b8186528261022e83611193565b018160005b82811061042657505050600092600435956002938454975b8881108061041d575b1561033f5780600052600085528960ff60058a82826040600020015416610288575b5050505061028390611136565b61024b565b8a6103339460068c8396899f968a8f989b6102a96102839d6103229a6111aa565b5260005260008852604060002092604051986102c48a610f0c565b84546001600160a01b03168a526102dd60018601611090565b908a015283015460408901526102f560038401611090565b606089015261030660048401611090565b608089015282015416151560a0870152015460c08501526111aa565b5261032d818d6111aa565b50611136565b9690508938808a610276565b84888b868661035960405194604086526040860190610fe2565b94848603818601528351918287528187019082808560051b8a01019601946000985b858a106103885788880389f35b909192939495968580828585600195030188528a5190848060a01b0382511681526103f46103e16103c4858501518b878601528b850190611016565b604085015160408501526060808601519085830390860152611016565b6080808501519084830390850152611016565b9160a08082015115159083015260c080910151910152990195019901989291909594939561037b565b50818710610254565b60405161043281610f0c565b60008152606080848301526000604083015280808301526080820152600060a0820152600060c082015282828b010152018290610233565b3461012d57604036600319011261012d57610483610f9e565b6001600160a01b031660009081526001602052604090208054602435919082101561012d576020916104b491610fb4565b90546040519160031b1c8152f35b3461012d5760a036600319011261012d576024356001600160401b03811161012d576104f2903690600401610f48565b6064356001600160401b03811161012d57610511903690600401610f48565b6084356001600160401b03811161012d57610530903690600401610f48565b90600435600052600060205261055460018060a01b0360406000205416331461115b565b600435600052600060205260ff6005604060002001541615610922576004356000526000602052600160406000200183516001600160401b0381116107905761059d8254611056565b601f81116108da575b50602094601f821160011461087457948192939495600092610869575b50508160011b916000199060031b1c19161790555b600435600052600060205260406000209060443560028301558051906001600160401b0382116107905761060f6003840154611056565b601f811161081e575b50602090601f83116001146107b15760039291600091836107a6575b50508160011b9160001990841b1c1916179101555b6004356000526000602052600460406000200181516001600160401b038111610790576106768254611056565b601f8111610748575b50602092601f82116001146106e457928192936000926106d9575b50508160011b916000199060031b1c19161790555b6004357f7ad43e2b215acc30fe68db10cbf57c6b2b699ef7572e54808c2a106fb904f3fb600080a2005b01519050838061069a565b601f198216938360005260206000209160005b8681106107305750836001959610610717575b505050811b0190556106af565b015160001960f88460031b161c1916905583808061070a565b919260206001819286850151815501940192016106f7565b826000526020600020601f830160051c81019160208410610786575b601f0160051c01905b81811061077a575061067f565b6000815560010161076d565b9091508190610764565b634e487b7160e01b600052604160045260246000fd5b015190508580610634565b90601f198316916003850160005260206000209260005b818110610806575091600193918560039694106107ee575b505050811b01910155610649565b015160001983861b60f8161c191690558580806107e0565b929360206001819287860151815501950193016107c8565b600384016000526020600020601f840160051c8101916020851061085f575b601f0160051c01905b8181106108535750610618565b60008155600101610846565b909150819061083d565b0151905085806105c3565b601f198216958360005260206000209160005b8881106108c2575083600195969798106108a9575b505050811b0190556105d8565b015160001960f88460031b161c1916905585808061089c565b91926020600181928685015181550194019201610887565b826000526020600020601f830160051c81019160208410610918575b601f0160051c01905b81811061090c57506105a6565b600081556001016108ff565b90915081906108f6565b60405162461bcd60e51b815260206004820152601360248201527250726f7065727479206e6f742061637469766560681b6044820152606490fd5b3461012d57602036600319011261012d5760043580600052600060205261099260018060a01b0360406000205416331461115b565b806000526000602052600560406000200160ff1981541690557f7bc5467b3abd536b298666c57448e8ec6a25e7929f01a0789e4ef525716f45e3600080a2005b3461012d57600036600319011261012d576020600254604051908152f35b3461012d57608036600319011261012d576004356001600160401b03811161012d57610a20903690600401610f48565b6044356001600160401b03811161012d57610a3f903690600401610f48565b6064356001600160401b03811161012d57610a5e903690600401610f48565b9060025491610a6c83611136565b60025560405190610a7c82610f0c565b3382526020820192858452602435604084015260608301526080820152600160a08201524260c082015282600052600060205260406000209160018060a01b038251166bffffffffffffffffffffffff60a01b845416178355518051906001600160401b038211610790578190610af66001860154611056565b601f8111610eb9575b50602090601f8311600114610e4c57600092610e41575b50508160011b916000199060031b1c19161760018301555b6040810151600283015560608101518051906001600160401b038211610790578190610b5d6003860154611056565b601f8111610dee575b50602090601f8311600114610d7c57600092610d71575b50508160011b916000199060031b1c19161760038301555b60808101518051906001600160401b03821161079057610bb86004850154611056565b601f8111610d2a575b50602090601f8311600114610cb75791806006949260c094600092610cac575b50508160011b916000199060031b1c19161760048501555b6005840160a0820151151560ff801983541691161790550151910155336000526001602052604060002091825492680100000000000000008410156107905783610c4a916001602096018155610fb4565b81549060031b9084821b91600019901b1916179055817f4a94c8d5fab40a5edfd34ed099a279029ee376bf6a571684e0cffd8e00216dbc610c9660405193604085526040850190611016565b92602435868201528033940390a3604051908152f35b015190508880610be1565b90601f198316916004860160005260206000209260005b818110610d12575092600192859260c0966006989610610cf9575b505050811b016004850155610bf9565b015160001960f88460031b161c19169055888080610ce9565b92936020600181928786015181550195019301610cce565b600485016000526020600020601f840160051c810160208510610d6a575b601f830160051c82018110610d5e575050610bc1565b60008155600101610d48565b5080610d48565b015190508680610b7d565b9250600385016000526020600020906000935b601f1984168510610dd3576001945083601f19811610610dba575b505050811b016003830155610b95565b015160001960f88460031b161c19169055868080610daa565b81810151835560209485019460019093019290910190610d8f565b909150600385016000526020600020601f840160051c810160208510610e3a575b90849392915b601f830160051c82018110610e2b575050610b66565b60008155859450600101610e15565b5080610e0f565b015190508680610b16565b600186016000908152602081209350601f198516905b818110610ea15750908460019594939210610e88575b505050811b016001830155610b2e565b015160001960f88460031b161c19169055868080610e78565b92936020600181928786015181550195019301610e62565b909150600185016000526020600020601f840160051c810160208510610f05575b90849392915b601f830160051c82018110610ef6575050610aff565b60008155859450600101610ee0565b5080610eda565b60e081019081106001600160401b0382111761079057604052565b90601f801991011681019081106001600160401b0382111761079057604052565b81601f8201121561012d578035906001600160401b0382116107905760405192610f7c601f8401601f191660200185610f27565b8284526020838301011161012d57816000926020809301838601378301015290565b600435906001600160a01b038216820361012d57565b8054821015610fcc5760005260206000200190600090565b634e487b7160e01b600052603260045260246000fd5b90815180825260208080930193019160005b828110611002575050505090565b835185529381019392810192600101610ff4565b919082519283825260005b848110611042575050826000602080949584010152601f8019910116010190565b602081830181015184830182015201611021565b90600182811c92168015611086575b602083101461107057565b634e487b7160e01b600052602260045260246000fd5b91607f1691611065565b90604051918260008254926110a484611056565b90818452600194858116908160001461111357506001146110d0575b50506110ce92500383610f27565b565b9093915060005260209081600020936000915b8183106110fb5750506110ce935082010138806110c0565b855488840185015294850194879450918301916110e3565b9150506110ce94506020925060ff191682840152151560051b82010138806110c0565b60001981146111455760010190565b634e487b7160e01b600052601160045260246000fd5b1561116257565b60405162461bcd60e51b81526020600482015260096024820152682737ba1037bbb732b960b91b6044820152606490fd5b6001600160401b0381116107905760051b60200190565b8051821015610fcc5760209160051b01019056fea26469706673582212209a496ed9ad3ef31fe750e98da85f7d8712acd6e34f40b8c39c27c0894b014b4b64736f6c6343000813003360803461007457601f6111cc38819003918201601f19168301916001600160401b038311848410176100795780849260209460405283398101031261007457516001600160a01b0381169081900361007457600380546001600160a01b03191691909117905560405161113c90816100908239f35b600080fd5b634e487b7160e01b600052604160045260246000fdfe608080604052600436101561001357600080fd5b60003560e01c90816326b703a714610f0e57508063448db2f614610e335780635686b54b14610d765780637c05798c14610c5257806387f98ca91461086b5780638aed078d14610784578063a0f109c5146104a0578063a5c1674e146103f9578063bd14de9614610333578063c9b99dab14610315578063d064fbe8146102dd5763fc2bf8f0146100a357600080fd5b34610237576100b136610f83565b90806000526020600081526040600020600881015460ff811660058110156102c75760016100df9114611048565b60028201546001600160a01b0391908216330361028c576003830154860361024f576000916064859260405194859384926323b872dd60e01b84523360048501523060248501528b604485015260181c165af190811561024357600091610209575b50156101d357600581019081548581018091116101bd576006925501544203904282116101bd577f63e55317e25c0cab3a2de23ee0e244496daea0c1c2b8e272bbc01722b96bb9ae91836000526001825262278d006040600020910460005281526040600020600160ff198254161790556040519384523393a3005b634e487b7160e01b600052601160045260246000fd5b60405162461bcd60e51b815260048101839052600e60248201526d14185e5b595b9d0819985a5b195960921b6044820152606490fd5b90508281813d831161023c575b6102208183610f99565b81010312610237576102319061102c565b38610141565b600080fd5b503d610216565b6040513d6000823e3d90fd5b60405162461bcd60e51b8152600481018590526015602482015274125b98dbdc9c9958dd081c995b9d08185b5bdd5b9d605a1b6044820152606490fd5b60405162461bcd60e51b81526004810185905260136024820152724f6e6c792074656e616e742063616e2070617960681b6044820152606490fd5b634e487b7160e01b600052602160045260246000fd5b34610237576102eb36610f83565b906000526001602052604060002090600052602052602060ff604060002054166040519015158152f35b34610237576000366003190112610237576020600254604051908152f35b346102375760203660031901126102375760043560005260006020526040600020805460018060a01b038060018401541692816002820154169060038101546004820154600583015490600684015492600860078601549501549560ff871699604051998a5260208a015260408901526060880152608087015260a086015260c085015260e084015260058410156102c7576101809361010084015260ff8160081c16151561012084015260ff8160101c16151561014084015260181c16610160820152f35b34610237576020366003190112610237576004358060005260006020526008604060002061043e60018060a01b03806001840154163314908115610490575b5061108b565b01805460ff81169060058210156102c75761045d600160049314611048565b60ff19161790557f84a477df8a28a4276ca6dee4458a06c3015f30c477d9c949ede4e13ff8a552b46020604051338152a2005b9050600283015416331485610438565b346102375760208060031936011261023757600435908160005260008152604060002090600882019182549060ff821660058110156102c75760016104e59114611048565b60078101544210610749576001810180546001600160a01b0393919291908416330361070457839060181c166005820154916004810154908161061b575b50508161055e575b855460ff19166002178655867f5a098ab2367201784eb2ad9b7e2f0d916557002385b83ddcc19293f40c4e0ed0600080a2005b915460405163a9059cbb60e01b815293166001600160a01b03166004840152602483015282908290816000816044810103925af1908115610243576000916105e6575b50156105b0578080808061052b565b6064906040519062461bcd60e51b82526004820152600f60248201526e151c985b9cd9995c8819985a5b1959608a1b6044820152fd5b90508181813d8311610614575b6105fd8183610f99565b810103126102375761060e9061102c565b846105a1565b503d6105f3565b600201805460405163a9059cbb60e01b81529087166001600160a01b031660048201526024810183905287816044816000885af1908115610243576000916106cf575b501561069a577f69187e59ebb7ab44cba5434886e4e6cde1412568f3483279dc99de772cb2540587878b93541693604051908152a38780610523565b60405162461bcd60e51b815260048101889052600d60248201526c1499599d5b990819985a5b1959609a1b6044820152606490fd5b90508781813d83116106fd575b6106e68183610f99565b81010312610237576106f79061102c565b8a61065e565b503d6106dc565b60405162461bcd60e51b815260048101869052601960248201527f4f6e6c79206c616e646c6f72642063616e2072656c65617365000000000000006044820152606490fd5b60405162461bcd60e51b81526004810184905260136024820152721059dc99595b595b9d081b9bdd08195b991959606a1b6044820152606490fd5b34610237576020806003193601126102375761079e610f32565b60028054909290916001600160a01b03908116906000805b85811061082f57506107c7906110aa565b9460009360005b8681106107e757604051806107e38a82610f48565b0390f35b806000526000825284848460406000200154161461080e575b61080990611039565b6107ce565b946108278187610821610809948c6110dc565b52611039565b959050610800565b8060005260008552838388604060002001541614610856575b61085190611039565b6107b6565b9061086361085191611039565b919050610848565b346102375760e0366003190112610237576024356001600160a01b03811690600435908290036102375760a4359060843560c4356001600160a01b038116810361023757600354604051631ef6210160e31b81526004810185905290600090829060249082906001600160a01b03165afa90811561024357600090600092610bb7575b50336001600160a01b0390911603610b7d5715610b42578415610b0c5783821015610ad7576002549361092085611039565b60025560405192610180840184811067ffffffffffffffff821117610ac15760405284845233602085015286604085015260443560608501526064356080850152600060a085015260c084015260e083015260006101008301526000610120830152600061014083015260018060a01b031661016082015282600052600060205260086040600020825181556001810160018060a01b03602085015116906bffffffffffffffffffffffff60a01b9182825416179055600282019060018060a01b0360408601511690825416179055606083015160038201556080830151600482015560a0830151600582015560c0830151600682015560e0830151600782015501906101008101519060058210156102c757602095837fbccc93ea525c74213effe313cf29be12baa866b0a54b80532bfa465876a177459360409388965461ff00610120830151151560081b169060ff62ff0000610140850151151560101b16936101606301000000600160b81b0391015160181b1694169068ffffffffffffffffff60b81b1617171717905581519033825287820152a3604051908152f35b634e487b7160e01b600052604160045260246000fd5b60405162461bcd60e51b815260206004820152600d60248201526c496e76616c696420646174657360981b6044820152606490fd5b60405162461bcd60e51b815260206004820152600e60248201526d125b9d985b1a59081d195b985b9d60921b6044820152606490fd5b60405162461bcd60e51b815260206004820152601360248201527250726f7065727479206e6f742061637469766560681b6044820152606490fd5b60405162461bcd60e51b81526020600482015260126024820152712737ba10383937b832b93a3c9037bbb732b960711b6044820152606490fd5b9150503d806000833e610bca8183610f99565b81019060e081830312610237578051916001600160a01b03831683036102375760208201519167ffffffffffffffff928381116102375782610c0d918301610fbb565b5060608101518381116102375782610c26918301610fbb565b50608081015192831161023757610c4460a092610c4b948301610fbb565b500161102c565b90876108ee565b346102375760203660031901126102375760043560005260006020526040600020600881019081549060ff821660058110156102c757610d405760018101546001600160a01b0391903390831603610ce2575050815461ff001916610100178255505b805460ff8160081c1680610cd5575b610cca57005b60ff19166001179055005b5060ff8160101c16610cc4565b60020154163314600014610d025762ff0000191662010000178155610cb5565b60405162461bcd60e51b8152602060048201526016602482015275139bdd081c185c9d1e481d1bc81859dc99595b595b9d60521b6044820152606490fd5b60405162461bcd60e51b815260206004820152600e60248201526d496e76616c69642073746174757360901b6044820152606490fd5b346102375760203660031901126102375760043580600052600060205260086040600020610dba60018060a01b03806001840154163314908115610490575061108b565b01805460ff811660058110156102c757610dfe5760ff191660031790557f0cae0523c4d6568388c55dcaeb921d927527a60000ca46adffedddf87225f0ec600080a2005b60405162461bcd60e51b815260206004820152600d60248201526c10d85b9b9bdd0818d85b98d95b609a1b6044820152606490fd5b346102375760208060031936011261023757610e4d610f32565b6002546001600160a01b0392909183166000805b848110610ed15750610e72906110aa565b9360009260005b858110610e8e57604051806107e38982610f48565b806000526000825283836001604060002001541614610eb6575b610eb190611039565b610e79565b93610ec98186610821610eb1948b6110dc565b949050610ea8565b806000526000845282866001604060002001541614610ef9575b610ef490611039565b610e61565b90610f06610ef491611039565b919050610eeb565b34610237576000366003190112610237576003546001600160a01b03168152602090f35b600435906001600160a01b038216820361023757565b6020908160408183019282815285518094520193019160005b828110610f6f575050505090565b835185529381019392810192600101610f61565b6040906003190112610237576004359060243590565b90601f8019910116810190811067ffffffffffffffff821117610ac157604052565b919080601f840112156102375782519067ffffffffffffffff8211610ac15760405191602091610ff4601f8301601f1916840185610f99565b8184528282870101116102375760005b81811061101957508260009394955001015290565b8581018301518482018401528201611004565b5190811515820361023757565b60001981146101bd5760010190565b1561104f57565b60405162461bcd60e51b815260206004820152601460248201527341677265656d656e74206e6f742061637469766560601b6044820152606490fd5b15610d0257565b67ffffffffffffffff8111610ac15760051b60200190565b906110b482611092565b6110c16040519182610f99565b82815280926110d2601f1991611092565b0190602036910137565b80518210156110f05760209160051b010190565b634e487b7160e01b600052603260045260246000fdfea2646970667358221220d10a2b8c63cb6395077d534a7dc3bad5134c9fd999cb637825ca5a324241bd2c64736f6c63430008130033",
  "linkReferences": {},
  "deployedLinkReferences": {}
}