{
  "_format": "hh-sol-artifact-1",
  "contractName": "PriceOracle",
  "sourceName": "contracts/PriceOracle.sol",
  "abi": [
    {
      "inputs": [],
      "stateMutability": "nonpayable",
      "type": "constructor"
    },
    {
      "anonymous": false,
      "inputs": [
        {
          "indexed": true,
          "internalType": "address",
          "name": "token",
          "type": "address"
        },
        {
          "indexed": false,
          "internalType": "uint256",
          "name": "price",
          "type": "uint256"
        }
      ],
      "name": "FixedPriceSet",
      "type": "event"
    },
    {
      "anonymous": false,
      "inputs": [
        {
          "indexed": true,
          "internalType": "address",
          "name": "token",
          "type": "address"
        },
        {
          "indexed": true,
          "internalType": "address",
          "name": "priceFeed",
          "type": "address"
        }
      ],
      "name": "PriceFeedSet",
      "type": "event"
    },
    {
      "anonymous": false,
      "inputs": [
        {
          "indexed": true,
          "internalType": "address",
          "name": "token",
          "type": "address"
        },
        {
          "indexed": false,
          "internalType": "bool",
          "name": "isFixed",
          "type": "bool"
        }
      ],
      "name": "PriceTypeChanged",
      "type": "event"
    },
    {
      "inputs": [],
      "name": "PRICE_DECIMALS",
      "outputs": [
        {
          "internalType": "uint256",
          "name": "",
          "type": "uint256"
        }
      ],
      "stateMutability": "view",
      "type": "function"
    },
    {
      "inputs": [],
      "name": "admin",
      "outputs": [
        {
          "internalType": "address",
          "name": "",
          "type": "address"
        }
      ],
      "stateMutability": "view",
      "type": "function"
    },
    {
      "inputs": [
        {
          "internalType": "address",
          "name": "fromToken",
          "type": "address"
        },
        {
          "internalType": "address",
          "name": "toToken",
          "type": "address"
        },
        {
          "internalType": "uint256",
          "name": "amount",
          "type": "uint256"
        }
      ],
      "name": "convertPrice",
      "outputs": [
        {
          "internalType": "uint256",
          "name": "",
          "type": "uint256"
        }
      ],
      "stateMutability": "view",
      "type": "function"
    },
    {
      "inputs": [
        {
          "internalType": "address",
          "name": "",
          "type": "address"
        }
      ],
      "name": "fixedPrices",
      "outputs": [
        {
          "internalType": "uint256",
          "name": "",
          "type": "uint256"
        }
      ],
      "stateMutability": "view",
      "type": "function"
    },
    {
      "inputs": [
        {
          "internalType": "address[]",
          "name": "tokens",
          "type": "address[]"
        }
      ],
      "name": "getMultiplePrices",
      "outputs": [
        {
          "internalType": "uint256[]",
          "name": "",
          "type": "uint256[]"
        }
      ],
      "stateMutability": "view",
      "type": "function"
    },
    {
      "inputs": [
        {
          "internalType": "address",
          "name": "token",
          "type": "address"
        }
      ],
      "name": "getPrice",
      "outputs": [
        {
          "internalType": "uint256",
          "name": "",
          "type": "uint256"
        }
      ],
      "stateMutability": "view",
      "type": "function"
    },
    {
      "inputs": [
        {
          "internalType": "address",
          "name": "token",
          "type": "address"
        },
        {
          "internalType": "uint256",
          "name": "amount",
          "type": "uint256"
        }
      ],
      "name": "getPriceInUSD",
      "outputs": [
        {
          "internalType": "uint256",
          "name": "",
          "type": "uint256"
        }
      ],
      "stateMutability": "view",
      "type": "function"
    },
    {
      "inputs": [
        {
          "internalType": "address",
          "name": "",
          "type": "address"
        }
      ],
      "name": "isFixedPrice",
      "outputs": [
        {
          "internalType": "bool",
          "name": "",
          "type": "bool"
        }
      ],
      "stateMutability": "view",
      "type": "function"
    },
    {
      "inputs": [
        {
          "internalType": "address",
          "name": "",
          "type": "address"
        }
      ],
      "name": "priceFeeds",
      "outputs": [
        {
          "internalType": "address",
          "name": "",
          "type": "address"
        }
      ],
      "stateMutability": "view",
      "type": "function"
    },
    {
      "inputs": [
        {
          "internalType": "address",
          "name": "token",
          "type": "address"
        },
        {
          "internalType": "uint256",
          "name": "price",
          "type": "uint256"
        }
      ],
      "name": "setFixedPrice",
      "outputs": [],
      "stateMutability": "nonpayable",
      "type": "function"
    },
    {
      "inputs": [
        {
          "internalType": "address",
          "name": "token",
          "type": "address"
        },
        {
          "internalType": "address",
          "name": "priceFeed",
          "type": "address"
        }
      ],
      "name": "setPriceFeed",
      "outputs": [],
      "stateMutability": "nonpayable",
      "type": "function"
    },
    {
      "inputs": [
        {
          "internalType": "address",
          "name": "token",
          "type": "address"
        },
        {
          "internalType": "bool",
          "name": "fixedPrice",
          "type": "bool"
        }
      ],
      "name": "setPriceType",
      "outputs": [],
      "stateMutability": "nonpayable",
      "type": "function"
    },
    {
      "inputs": [
        {
          "internalType": "address",
          "name": "newAdmin",
          "type": "address"
        }
      ],
      "name": "transferAdmin",
      "outputs": [],
      "stateMutability": "nonpayable",
      "type": "function"
    }
  ],
  "bytecode": "0x6080806040523461002857600380546001600160a01b03191633179055610819908161002e8239f35b600080fdfe6040608081526004908136101561001557600080fd5b600091823560e01c9081631badc89a1461052a57816341976e09146105025781634bb846e11461049a5781637089f2bf1461045d57816375829def1461040f57816376e11286146103785781639dcb511a1461033e578163a1c7ffb3146101f457508063a5db70f61461016c578063bccd3b151461012f578063e983fe25146100f8578063f1a640f8146100dd5763f851a440146100b257600080fd5b346100d957816003193601126100d95760035490516001600160a01b039091168152602090f35b5080fd5b50346100d957816003193601126100d9576020905160088152f35b50346100d95760203660031901126100d95760209181906001600160a01b0361011f6105ac565b1681526001845220549051908152f35b50346100d95760203660031901126100d95760209160ff9082906001600160a01b036101596105ac565b1681526002855220541690519015158152f35b50346100d957806003193601126100d9576101856105ac565b602435908115158092036101f0577f144d3a719c4346397a6fa94b2e15ffbcd4db0feca3c6e9cbf4bd548e785a74579160209160018060a01b03906101cf826003541633146105dd565b16938486526002835280862060ff1981541660ff841617905551908152a280f35b8380fd5b9050823461033b576020806003193601126100d95782359167ffffffffffffffff8084116100d957366023850112156100d957838501359081116100d957602490600595368383891b880101116101f057610254829897969495986107cb565b9361026188519586610615565b82855261026d836107cb565b858a019790601f1901368937865b8481106102c35750505050505083519485948186019282875251809352850193925b8281106102ac57505050500390f35b83518552869550938101939281019260010161029d565b989997989597969580821b8381018701356001600160a01b0381168103610337576102ed90610664565b908a51831015610325578a0189015260001981146103135760010199989795969961027b565b634e487b7160e01b8752601184528587fd5b634e487b7160e01b8952603286528789fd5b8880fd5b80fd5b5050346100d95760203660031901126100d9576020916001600160a01b03908290826103686105ac565b1681528085522054169051908152f35b5050346100d957806003193601126100d9576103926105ac565b61039a6105c7565b9160018060a01b0380926103b3826003541633146105dd565b169182855284602052818520931692836bffffffffffffffffffffffff60a01b8254161790556002602052832060ff1981541690557fd2d8394cf7549a5ddbc2ba3dd7b2de8d53c891472d1f2907008ed6a10045fdae8380a380f35b833461033b57602036600319011261033b576104296105ac565b600354906001600160a01b039061044333838516146105dd565b16906bffffffffffffffffffffffff60a01b161760035580f35b5050346100d957806003193601126100d9576020906305f5e10061049261048a6104856105ac565b610664565b6024356107a2565b049051908152f35b8383346100d95760603660031901126100d9576104b56105ac565b906104dc6104d36104cd6104c76105c7565b94610664565b93610664565b926044356107a2565b9282156104ef5750602093505191048152f35b634e487b7160e01b815260128552602490fd5b5050346100d95760203660031901126100d9576020906105236104856105ac565b9051908152f35b5050346100d957806003193601126100d9577f2c60109121f292628e58d5636924f9d2213afd7309210cafca435156875146c460206105676105ac565b600354602435916001600160a01b039161058490831633146105dd565b169384865260018352818187205560028352808620600160ff1982541617905551908152a280f35b600435906001600160a01b03821682036105c257565b600080fd5b602435906001600160a01b03821682036105c257565b156105e457565b60405162461bcd60e51b81526020600482015260096024820152682737ba1030b236b4b760b91b6044820152606490fd5b90601f8019910116810190811067ffffffffffffffff82111761063757604052565b634e487b7160e01b600052604160045260246000fd5b519069ffffffffffffffffffff821682036105c257565b6001600160a01b0390811660008181526002602090815260408083205490939060ff1615610699578252600190522054919050565b50928184528282205416801561076a579060a08392600495945195868092633fabe5a360e21b82525afa93841561075e578194610711575b508313156106de57505090565b60649250519062461bcd60e51b82526004820152600d60248201526c496e76616c696420707269636560981b6044820152fd5b90935060a0813d8211610756575b8161072c60a09383610615565b810103126101f05761073d8161064d565b5061074e608084830151920161064d565b5092386106d1565b3d915061071f565b509051903d90823e3d90fd5b825162461bcd60e51b8152600481018590526011602482015270139bc81c1c9a58d94819995959081cd95d607a1b6044820152606490fd5b818102929181159184041417156107b557565b634e487b7160e01b600052601160045260246000fd5b67ffffffffffffffff81116106375760051b6020019056fea2646970667358221220afedd8946d28d516e34b35e77b87c1a13fac0bdfd0817232a30360aa0a1b64d564736f6c63430008130033",
  "linkReferences": {},
  "deployedLinkReferences": {}
}