{
  "_format": "hh-sol-artifact-1",
  "contractName": "RentChainDAO",
  "sourceName": "contracts/RentChainDAO.sol",
  "abi": [
    {
      "inputs": [
        {
          "internalType": "address",
          "name": "_governanceToken",
          "type": "address"
        }
      ],
      "stateMutability": "nonpayable",
      "type": "constructor"
    },
    {
      "anonymous": false,
      "inputs": [
        {
          "indexed": false,
          "internalType": "uint256",
          "name": "threshold",
          "type": "uint256"
        },
        {
          "indexed": false,
          "internalType": "uint256",
          "name": "delay",
          "type": "uint256"
        },
        {
          "indexed": false,
          "internalType": "uint256",
          "name": "period",
          "type": "uint256"
        },
        {
          "indexed": false,
          "internalType": "uint256",
          "name": "quorum",
          "type": "uint256"
        }
      ],
      "name": "DAOParametersUpdated",
      "type": "event"
    },
    {
      "anonymous": false,
      "inputs": [
        {
          "indexed": true,
          "internalType": "uint256",
          "name": "proposalId",
          "type": "uint256"
        },
        {
          "indexed": true,
          "internalType": "address",
          "name": "proposer",
          "type": "address"
        }
      ],
      "name": "ProposalCreated",
      "type": "event"
    },
    {
      "anonymous": false,
      "inputs": [
        {
          "indexed": true,
          "internalType": "uint256",
          "name": "proposalId",
          "type": "uint256"
        }
      ],
      "name": "ProposalExecuted",
      "type": "event"
    },
    {
      "anonymous": false,
      "inputs": [
        {
          "indexed": true,
          "internalType": "uint256",
          "name": "proposalId",
          "type": "uint256"
        },
        {
          "indexed": true,
          "internalType": "address",
          "name": "voter",
          "type": "address"
        },
        {
          "indexed": false,
          "internalType": "uint8",
          "name": "support",
          "type": "uint8"
        },
        {
          "indexed": false,
          "internalType": "uint256",
          "name": "votes",
          "type": "uint256"
        }
      ],
      "name": "VoteCast",
      "type": "event"
    },
    {
      "anonymous": false,
      "inputs": [
        {
          "indexed": true,
          "internalType": "address",
          "name": "voter",
          "type": "address"
        },
        {
          "indexed": false,
          "internalType": "uint256",
          "name": "votingPower",
          "type": "uint256"
        }
      ],
      "name": "VotingPowerUpdated",
      "type": "event"
    },
    {
      "inputs": [],
      "name": "admin",
      "outputs": [
        {
          "internalType": "address",
          "name": "",
          "type": "address"
        }
      ],
      "stateMutability": "view",
      "type": "function"
    },
    {
      "inputs": [
        {
          "internalType": "address[]",
          "name": "voters",
          "type": "address[]"
        }
      ],
      "name": "batchUpdateVotingPower",
      "outputs": [],
      "stateMutability": "nonpayable",
      "type": "function"
    },
    {
      "inputs": [
        {
          "internalType": "uint256",
          "name": "proposalId",
          "type": "uint256"
        },
        {
          "internalType": "uint8",
          "name": "support",
          "type": "uint8"
        }
      ],
      "name": "castVote",
      "outputs": [],
      "stateMutability": "nonpayable",
      "type": "function"
    },
    {
      "inputs": [
        {
          "internalType": "uint256",
          "name": "proposalId",
          "type": "uint256"
        }
      ],
      "name": "executeProposal",
      "outputs": [],
      "stateMutability": "nonpayable",
      "type": "function"
    },
    {
      "inputs": [],
      "name": "getActiveProposals",
      "outputs": [
        {
          "internalType": "uint256[]",
          "name": "",
          "type": "uint256[]"
        }
      ],
      "stateMutability": "view",
      "type": "function"
    },
    {
      "inputs": [
        {
          "internalType": "uint256",
          "name": "proposalId",
          "type": "uint256"
        }
      ],
      "name": "getProposalVotes",
      "outputs": [
        {
          "internalType": "uint256",
          "name": "forVotes",
          "type": "uint256"
        },
        {
          "internalType": "uint256",
          "name": "againstVotes",
          "type": "uint256"
        },
        {
          "internalType": "uint256",
          "name": "abstainVotes",
          "type": "uint256"
        }
      ],
      "stateMutability": "view",
      "type": "function"
    },
    {
      "inputs": [
        {
          "internalType": "address",
          "name": "voter",
          "type": "address"
        },
        {
          "internalType": "uint256",
          "name": "proposalId",
          "type": "uint256"
        }
      ],
      "name": "getVoterInfo",
      "outputs": [
        {
          "internalType": "bool",
          "name": "hasVoted",
          "type": "bool"
        },
        {
          "internalType": "uint8",
          "name": "support",
          "type": "uint8"
        },
        {
          "internalType": "uint256",
          "name": "votesCast",
          "type": "uint256"
        }
      ],
      "stateMutability": "view",
      "type": "function"
    },
    {
      "inputs": [],
      "name": "governanceToken",
      "outputs": [
        {
          "internalType": "contract IERC20",
          "name": "",
          "type": "address"
        }
      ],
      "stateMutability": "view",
      "type": "function"
    },
    {
      "inputs": [],
      "name": "nextProposalId",
      "outputs": [
        {
          "internalType": "uint256",
          "name": "",
          "type": "uint256"
        }
      ],
      "stateMutability": "view",
      "type": "function"
    },
    {
      "inputs": [],
      "name": "proposalThreshold",
      "outputs": [
        {
          "internalType": "uint256",
          "name": "",
          "type": "uint256"
        }
      ],
      "stateMutability": "view",
      "type": "function"
    },
    {
      "inputs": [
        {
          "internalType": "uint256",
          "name": "",
          "type": "uint256"
        }
      ],
      "name": "proposals",
      "outputs": [
        {
          "internalType": "uint256",
          "name": "id",
          "type": "uint256"
        },
        {
          "internalType": "address",
          "name": "proposer",
          "type": "address"
        },
        {
          "internalType": "string",
          "name": "title",
          "type": "string"
        },
        {
          "internalType": "string",
          "name": "description",
          "type": "string"
        },
        {
          "internalType": "string",
          "name": "ipfsHash",
          "type": "string"
        },
        {
          "internalType": "uint256",
          "name": "voteStart",
          "type": "uint256"
        },
        {
          "internalType": "uint256",
          "name": "voteEnd",
          "type": "uint256"
        },
        {
          "internalType": "uint256",
          "name": "forVotes",
          "type": "uint256"
        },
        {
          "internalType": "uint256",
          "name": "againstVotes",
          "type": "uint256"
        },
        {
          "internalType": "uint256",
          "name": "abstainVotes",
          "type": "uint256"
        },
        {
          "internalType": "bool",
          "name": "executed",
          "type": "bool"
        },
        {
          "internalType": "address",
          "name": "target",
          "type": "address"
        },
        {
          "internalType": "bytes",
          "name": "data",
          "type": "bytes"
        },
        {
          "internalType": "uint256",
          "name": "value",
          "type": "uint256"
        }
      ],
      "stateMutability": "view",
      "type": "function"
    },
    {
      "inputs": [
        {
          "internalType": "string",
          "name": "title",
          "type": "string"
        },
        {
          "internalType": "string",
          "name": "description",
          "type": "string"
        },
        {
          "internalType": "string",
          "name": "ipfsHash",
          "type": "string"
        },
        {
          "internalType": "address",
          "name": "target",
          "type": "address"
        },
        {
          "internalType": "bytes",
          "name": "data",
          "type": "bytes"
        },
        {
          "internalType": "uint256",
          "name": "value",
          "type": "uint256"
        }
      ],
      "name": "propose",
      "outputs": [
        {
          "internalType": "uint256",
          "name": "",
          "type": "uint256"
        }
      ],
      "stateMutability": "nonpayable",
      "type": "function"
    },
    {
      "inputs": [],
      "name": "quorum",
      "outputs": [
        {
          "internalType": "uint256",
          "name": "",
          "type": "uint256"
        }
      ],
      "stateMutability": "view",
      "type": "function"
    },
    {
      "inputs": [
        {
          "internalType": "uint256",
          "name": "threshold",
          "type": "uint256"
        }
      ],
      "name": "setProposalThreshold",
      "outputs": [],
      "stateMutability": "nonpayable",
      "type": "function"
    },
    {
      "inputs": [
        {
          "internalType": "uint256",
          "name": "newQuorum",
          "type": "uint256"
        }
      ],
      "name": "setQuorum",
      "outputs": [],
      "stateMutability": "nonpayable",
      "type": "function"
    },
    {
      "inputs": [
        {
          "internalType": "uint256",
          "name": "delay",
          "type": "uint256"
        }
      ],
      "name": "setVotingDelay",
      "outputs": [],
      "stateMutability": "nonpayable",
      "type": "function"
    },
    {
      "inputs": [
        {
          "internalType": "uint256",
          "name": "period",
          "type": "uint256"
        }
      ],
      "name": "setVotingPeriod",
      "outputs": [],
      "stateMutability": "nonpayable",
      "type": "function"
    },
    {
      "inputs": [
        {
          "internalType": "address",
          "name": "newAdmin",
          "type": "address"
        }
      ],
      "name": "transferAdmin",
      "outputs": [],
      "stateMutability": "nonpayable",
      "type": "function"
    },
    {
      "inputs": [
        {
          "internalType": "address",
          "name": "voter",
          "type": "address"
        }
      ],
      "name": "updateVotingPower",
      "outputs": [],
      "stateMutability": "nonpayable",
      "type": "function"
    },
    {
      "inputs": [
        {
          "internalType": "uint256",
          "name": "",
          "type": "uint256"
        },
        {
          "internalType": "address",
          "name": "",
          "type": "address"
        }
      ],
      "name": "votes",
      "outputs": [
        {
          "internalType": "bool",
          "name": "hasVoted",
          "type": "bool"
        },
        {
          "internalType": "uint8",
          "name": "support",
          "type": "uint8"
        },
        {
          "internalType": "uint256",
          "name": "votes",
          "type": "uint256"
        }
      ],
      "stateMutability": "view",
      "type": "function"
    },
    {
      "inputs": [],
      "name": "votingDelay",
      "outputs": [
        {
          "internalType": "uint256",
          "name": "",
          "type": "uint256"
        }
      ],
      "stateMutability": "view",
      "type": "function"
    },
    {
      "inputs": [],
      "name": "votingPeriod",
      "outputs": [
        {
          "internalType": "uint256",
          "name": "",
          "type": "uint256"
        }
      ],
      "stateMutability": "view",
      "type": "function"
    },
    {
      "inputs": [
        {
          "internalType": "address",
          "name": "",
          "type": "address"
        }
      ],
      "name": "votingPower",
      "outputs": [
        {
          "internalType": "uint256",
          "name": "",
          "type": "uint256"
        }
      ],
      "stateMutability": "view",
      "type": "function"
    },
    {
      "stateMutability": "payable",
      "type": "receive"
    }
  ],
  "bytecode": "0x6080346100a657601f6119d938819003918201601f19168301916001600160401b038311848410176100ab578084926020946040528339810103126100a657516001600160a01b038116908190036100a65760018060a01b0319908160005416176000553390600154161760015569021e19e0c9bab2400000600255620151806003556203f4806004556954b40b1f852bda00000060055560405161191790816100c28239f35b600080fd5b634e487b7160e01b600052604160045260246000fdfe608080604052600436101561001d575b50361561001b57600080fd5b005b60003560e01c908163013cf08b146114925750806302a251a3146114745780630d61b519146111f05780631703a018146111d25780632ab09d14146111b45780633932abb11461119657806347c66140146111505780634d7df5e8146110095780635584c4f914610e955780635678138814610bfa57806370b0f66014610b8e578063747c125514610a9f57806375829def14610a5857806396c1658a146109d1578063b58131b0146109b3578063bbfe22bd14610377578063c07473f61461033d578063c1ba4e59146102d1578063d23254b414610254578063ea0217cf146101e7578063ece40cc11461017e578063f851a440146101555763f96dae0a14610127573861000f565b34610150576000366003190112610150576000546040516001600160a01b039091168152602090f35b600080fd5b34610150576000366003190112610150576001546040516001600160a01b039091168152602090f35b34610150576020366003190112610150576000805160206118c28339815191526004356101b660018060a01b03600154163314611872565b600281905560035460045460055460408051948552602085019390935291830152606082015280608081015b0390a1005b34610150576020366003190112610150576000805160206118c283398151915260043561021f60018060a01b03600154163314611872565b806004556002546101e26003549260055490604051948594859094939260609260808301968352602083015260408201520152565b34610150576040366003190112610150576024356001600160a01b03811690819003610150576004356000526007602052604060002090600052602052604060002060018154910154906102cd604051928260ff80869560081c1691168460ff6040929594936060830196151583521660208201520152565b0390f35b34610150576020366003190112610150576000805160206118c283398151915260043561030960018060a01b03600154163314611872565b806005556002546101e260035492600454604051948594859094939260609260808301968352602083015260408201520152565b34610150576020366003190112610150576001600160a01b0361035e611742565b1660005260086020526020604060002054604051908152f35b346101505760c0366003190112610150576004356001600160401b038111610150576103a79036906004016117aa565b6024356001600160401b038111610150576103c69036906004016117aa565b6044356001600160401b038111610150576103e59036906004016117aa565b906064356001600160a01b0381168103610150576084356001600160401b038111610150573660238201121561015057610429903690602481600401359101611773565b913360005260086020526040600020546002541161096e576009549361044e856117c8565b6009556003549061047561046c61046584426117ed565b93426117ed565b600454906117ed565b9260405197886101c08101106001600160401b036101c08b0111176107ea576101c089016040528789523360208a015260408901526060880152608087015260a086015260c0850152600060e085015260006101008501526000610120850152600061014085015260018060a01b031661016084015261018083015260a4356101a08301528060005260066020526040600020825181556001810160018060a01b036020850151166bffffffffffffffffffffffff60a01b82541617905560408301519283516001600160401b0381116107ea576105638161055a60028601546115f6565b600286016117fa565b6020601f82116001146108ff5781929394956000926108f4575b50508160011b916000199060031b1c19161760028301555b60608101519283516001600160401b0381116107ea576105c5816105bc60038701546115f6565b600387016117fa565b6020601f821160011461088557819293949560009261087a575b50508160011b916000199060031b1c19161760038401555b60808201519283516001600160401b0381116107ea576106278161061e60048501546115f6565b600485016117fa565b6020601f821160011461080b578192939495600092610800575b50508160011b916000199060031b1c19161760048201555b60a0830151600582015560c0830151600682015560e0830151600782015561010083015160088201556101208301516009820155600a81016106ae6101408501511515829060ff801983541691151516179055565b6101608401518154610100600160a81b03191660089190911b610100600160a81b03161790556101808301518051909390600b8301906001600160401b0381116107ea576020956107098261070385546115f6565b856117fa565b8690601f831160011461077d5791806101a09492600c9694600092610772575b50508160011b916000199060031b1c19161790555b01519101556040519033817fcd423cc1203c0af96b9b3d68d73b3064a69de2d14450bb7181c5e5df2132b358600080a38152f35b015190508980610729565b90601f1983169184600052886000209260005b8181106107d35750926001928592600c98966101a09896106107ba575b505050811b01905561073e565b015160001960f88460031b161c191690558980806107ad565b92938a600181928786015181550195019301610790565b634e487b7160e01b600052604160045260246000fd5b015190508580610641565b6004830160005260206000209060005b601f1984168110610862575060019394959683601f19811610610849575b505050811b016004820155610659565b015160001960f88460031b161c19169055858080610839565b9091602060018192858b01518155019301910161081b565b0151905085806105df565b6003850160005260206000209060005b601f19841681106108dc575060019394959683601f198116106108c3575b505050811b0160038401556105f7565b015160001960f88460031b161c191690558580806108b3565b9091602060018192858b015181550193019101610895565b01519050858061057d565b6002840160005260206000209060005b601f1984168110610956575060019394959683601f1981161061093d575b505050811b016002830155610595565b015160001960f88460031b161c1916905585808061092d565b9091602060018192858b01518155019301910161090f565b60405162461bcd60e51b815260206004820152601860248201527f42656c6f772070726f706f73616c207468726573686f6c6400000000000000006044820152606490fd5b34610150576000366003190112610150576020600254604051908152f35b34610150576040366003190112610150576109ea611742565b602435600052600760205260406000209060018060a01b03166000526020526040600020604051610a1a816116c6565b815460ff808216151580845260089290921c166020808401829052600190940154604093840181905283519283529382015290810191909152606090f35b3461015057602036600319011261015057610a71611742565b600154906001600160a01b0390610a8b3383851614611872565b6001600160a01b0319909216911617600155005b346101505760208060031936011261015057610ab9611742565b6000546040516370a0823160e01b81526001600160a01b03928316600482018190529390929091829184916024918391165afa8015610b8257600090610b35575b7f36ac285914fb5fd49dd16e36cab1e696eda836080e3a61ff587c8671cbbdcab99250836000526008825280604060002055604051908152a2005b508082813d8311610b7b575b610b4b81836116e1565b81010312610150577f36ac285914fb5fd49dd16e36cab1e696eda836080e3a61ff587c8671cbbdcab99151610afa565b503d610b41565b6040513d6000823e3d90fd5b34610150576020366003190112610150576000805160206118c2833981519152600435610bc660018060a01b03600154163314611872565b806003556002546101e260045460055490604051948594859094939260609260808301968352602083015260408201520152565b346101505760403660031901126101505760043560249081359160ff831680930361015057600183101580610e8a575b15610e525781600052602060068152604060002060058101544210610e1a5760068101544211610de8578360005260078252604060002033600052825260ff60406000205416610db5573360005260088252604060002054928315610d805750604051610c96816116c6565b600181526001838201878152604083019086825287600052600786526040600020336000528652610cdb604060002094511515859060ff801983541691151516179055565b51835461ff00191660089190911b61ff00161783555191015560018503610d3e57600701610d0a8382546117ed565b90555b6040519384528301527fb83d25c6a5d258561330739951487acb4bd09ba5190b5d32c4f261817d90679260403393a3005b60028503610d5b57600801610d548382546117ed565b9055610d0d565b60038514610d6a575b50610d0d565b600901610d788382546117ed565b905584610d64565b82600f6064926040519262461bcd60e51b845260048401528201526e2737903b37ba34b733903837bbb2b960891b6044820152fd5b50600d6064926040519262461bcd60e51b845260048401528201526c105b1c9958591e481d9bdd1959609a1b6044820152fd5b50600c6064926040519262461bcd60e51b845260048401528201526b159bdd1a5b99c8195b99195960a21b6044820152fd5b5060126064926040519262461bcd60e51b8452600484015282015271159bdd1a5b99c81b9bdd081cdd185c9d195960721b6044820152fd5b60649060116040519162461bcd60e51b83526020600484015282015270496e76616c696420766f7465207479706560781b6044820152fd5b506003831115610c2a565b34610150576000366003190112610150576009546000805b828110610fb35750610ed7610ec1826118aa565b91610ecf60405193846116e1565b8083526118aa565b6020928383019291601f19013684376000805b828110610f355750505090604051928392818401908285525180915260408401929160005b828110610f1e57505050500390f35b835185528695509381019392810192600101610f0f565b8060005260068087526040600020908101544211159081610fa3575b50610f65575b610f60906117c8565b610eea565b908351811015610f8d57610f85818388610f609460051b880101526117c8565b919050610f57565b634e487b7160e01b600052603260045260246000fd5b60ff9150600a0154161587610f51565b806000526006806020526040600020908101544211159081610ff9575b50610fe4575b610fdf906117c8565b610ead565b90610ff1610fdf916117c8565b919050610fd6565b60ff9150600a0154161584610fd0565b346101505760208060031936011261015057600435906001600160401b0390818311610150573660238401121561015057826004013591821161015057602490818401938236918560051b0101116101505760005b83811061106757005b6000546001600160a01b039190821683838661108c611087868b8d61184e565b61185e565b60405194859384926370a0823160e01b84521660048301525afa908115610b82578688869260009461111f575b5094806110ef611087877f36ac285914fb5fd49dd16e36cab1e696eda836080e3a61ff587c8671cbbdcab9969561111a9a61184e565b16600052600882528360406000205561110c611087868b8d61184e565b1692604051908152a26117c8565b61105e565b9350505081813d8311611149575b61113781836116e1565b810103126101505751838688856110b9565b503d61112d565b3461015057602036600319011261015057600435600052600660205260606040600020600781015490600960088201549101549060405192835260208301526040820152f35b34610150576000366003190112610150576020600354604051908152f35b34610150576000366003190112610150576020600954604051908152f35b34610150576000366003190112610150576020600554604051908152f35b3461015057602080600319360112610150576004359081600052600681526040600020600681015442111561143c57600a81019081549060ff8216611404576007810154600882015490818111156113cd579061124c916117ed565b60055411611393576001918260ff1980921617809455600b600c83015492019060405193600092805461127e816115f6565b9381841691821561137c575050600114611341575b5060009586959384900394925060081c6001600160a01b031690505af13d1561133c573d6112c081611758565b906112ce60405192836116e1565b81526000833d92013e5b1561130557507f712ae1383f79ac853f8d882153778e0260ef8f03b504e2866e0593e04d2b291f600080a2005b6064906040519062461bcd60e51b82526004820152601060248201526f115e1958dd5d1a5bdb8819985a5b195960821b6044820152fd5b6112d8565b909192506000528560002090866000925b84841061136a57505050908301905081836000611293565b80548785015292019187908201611352565b168752505050801515028301905081836000611293565b60405162461bcd60e51b8152600481018590526012602482015271145d5bdc9d5b481b9bdd081c995858da195960721b6044820152606490fd5b60405162461bcd60e51b815260048101879052600f60248201526e141c9bdc1bdcd85b0819985a5b1959608a1b6044820152606490fd5b60405162461bcd60e51b815260048101859052601060248201526f105b1c9958591e48195e1958dd5d195960821b6044820152606490fd5b60405162461bcd60e51b815260048101839052601060248201526f159bdd1a5b99c81b9bdd08195b99195960821b6044820152606490fd5b34610150576000366003190112610150576020600454604051908152f35b34610150576020366003190112610150576004356000908152600660205260409020805460018201546001600160a01b0390811693919290826114d88160028501611630565b036114e390846116e1565b60405190816114f58160038601611630565b0361150090836116e1565b60405191826115128160048701611630565b0361151d90846116e1565b60058401549260068501546007860154600887015491600988015493600a89015495604051998a80600b83019061155391611630565b0361155e908c6116e1565b600c01549a6040519d8e809e8152602001528c6101c06040819201528d0161158591611702565b8c810360608e015261159691611702565b8b810360808d01526115a791611702565b9660a08b015260c08a015260e089015261010088015261012087015260ff8116151561014087015260081c166101608501528381036101808501526115eb91611702565b906101a08301520390f35b90600182811c92168015611626575b602083101461161057565b634e487b7160e01b600052602260045260246000fd5b91607f1691611605565b9060009291805491611641836115f6565b9182825260019384811690816000146116a35750600114611663575b50505050565b90919394506000526020928360002092846000945b83861061168f57505050500101903880808061165d565b805485870183015294019385908201611678565b9294505050602093945060ff191683830152151560051b0101903880808061165d565b606081019081106001600160401b038211176107ea57604052565b90601f801991011681019081106001600160401b038211176107ea57604052565b919082519283825260005b84811061172e575050826000602080949584010152601f8019910116010190565b60208183018101518483018201520161170d565b600435906001600160a01b038216820361015057565b6001600160401b0381116107ea57601f01601f191660200190565b92919261177f82611758565b9161178d60405193846116e1565b829481845281830111610150578281602093846000960137010152565b9080601f83011215610150578160206117c593359101611773565b90565b60001981146117d75760010190565b634e487b7160e01b600052601160045260246000fd5b919082018092116117d757565b90601f811161180857505050565b600091825260208220906020601f850160051c83019410611844575b601f0160051c01915b82811061183957505050565b81815560010161182d565b9092508290611824565b9190811015610f8d5760051b0190565b356001600160a01b03811681036101505790565b1561187957565b60405162461bcd60e51b81526020600482015260096024820152682737ba1030b236b4b760b91b6044820152606490fd5b6001600160401b0381116107ea5760051b6020019056fe134752757c657b63232531b9223c1e79903bcfdd99cab335eb23f08db6f8349aa2646970667358221220087649a1d8bd66d1815d4a50fc3d9960c50849593a5b3bf46bca8853ec1f6c7064736f6c63430008130033",
  "linkReferences": {},
  "deployedLinkReferences": {}
}