{
  "_format": "hh-sol-artifact-1",
  "contractName": "RentChainReferral",
  "sourceName": "contracts/RentChainReferral.sol",
  "abi": [
    {
      "inputs": [
        {
          "internalType": "address",
          "name": "_rewardToken",
          "type": "address"
        }
      ],
      "stateMutability": "nonpayable",
      "type": "constructor"
    },
    {
      "anonymous": false,
      "inputs": [
        {
          "indexed": false,
          "internalType": "uint256",
          "name": "newBaseReward",
          "type": "uint256"
        }
      ],
      "name": "BaseRewardUpdated",
      "type": "event"
    },
    {
      "anonymous": false,
      "inputs": [
        {
          "indexed": false,
          "internalType": "address",
          "name": "user",
          "type": "address"
        },
        {
          "indexed": false,
          "internalType": "uint256",
          "name": "amount",
          "type": "uint256"
        }
      ],
      "name": "RewardClaimed",
      "type": "event"
    },
    {
      "anonymous": false,
      "inputs": [
        {
          "indexed": false,
          "internalType": "address",
          "name": "referrer",
          "type": "address"
        },
        {
          "indexed": false,
          "internalType": "uint256",
          "name": "amount",
          "type": "uint256"
        },
        {
          "indexed": false,
          "internalType": "uint256",
          "name": "percentage",
          "type": "uint256"
        }
      ],
      "name": "RewardEarned",
      "type": "event"
    },
    {
      "anonymous": false,
      "inputs": [
        {
          "indexed": false,
          "internalType": "uint256",
          "name": "tierId",
          "type": "uint256"
        },
        {
          "indexed": false,
          "internalType": "uint256",
          "name": "percentage",
          "type": "uint256"
        },
        {
          "indexed": false,
          "internalType": "uint256",
          "name": "minReferrals",
          "type": "uint256"
        },
        {
          "indexed": false,
          "internalType": "uint256",
          "name": "maxReferrals",
          "type": "uint256"
        }
      ],
      "name": "RewardTierAdded",
      "type": "event"
    },
    {
      "anonymous": false,
      "inputs": [
        {
          "indexed": false,
          "internalType": "address",
          "name": "referrer",
          "type": "address"
        },
        {
          "indexed": false,
          "internalType": "address",
          "name": "referred",
          "type": "address"
        },
        {
          "indexed": false,
          "internalType": "uint256",
          "name": "registeredAt",
          "type": "uint256"
        }
      ],
      "name": "UserReferred",
      "type": "event"
    },
    {
      "inputs": [
        {
          "internalType": "address",
          "name": "user",
          "type": "address"
        }
      ],
      "name": "activateReferral",
      "outputs": [],
      "stateMutability": "nonpayable",
      "type": "function"
    },
    {
      "inputs": [
        {
          "internalType": "uint256",
          "name": "percentage",
          "type": "uint256"
        },
        {
          "internalType": "uint256",
          "name": "minReferrals",
          "type": "uint256"
        },
        {
          "internalType": "uint256",
          "name": "maxReferrals",
          "type": "uint256"
        }
      ],
      "name": "addRewardTier",
      "outputs": [
        {
          "internalType": "uint256",
          "name": "",
          "type": "uint256"
        }
      ],
      "stateMutability": "nonpayable",
      "type": "function"
    },
    {
      "inputs": [],
      "name": "admin",
      "outputs": [
        {
          "internalType": "address",
          "name": "",
          "type": "address"
        }
      ],
      "stateMutability": "view",
      "type": "function"
    },
    {
      "inputs": [],
      "name": "baseReward",
      "outputs": [
        {
          "internalType": "uint256",
          "name": "",
          "type": "uint256"
        }
      ],
      "stateMutability": "view",
      "type": "function"
    },
    {
      "inputs": [
        {
          "internalType": "address[]",
          "name": "referred",
          "type": "address[]"
        },
        {
          "internalType": "address[]",
          "name": "referrers",
          "type": "address[]"
        }
      ],
      "name": "batchRegisterReferrals",
      "outputs": [],
      "stateMutability": "nonpayable",
      "type": "function"
    },
    {
      "inputs": [
        {
          "internalType": "address",
          "name": "user",
          "type": "address"
        },
        {
          "internalType": "uint256",
          "name": "amount",
          "type": "uint256"
        }
      ],
      "name": "calculateReward",
      "outputs": [
        {
          "internalType": "uint256",
          "name": "reward",
          "type": "uint256"
        }
      ],
      "stateMutability": "view",
      "type": "function"
    },
    {
      "inputs": [],
      "name": "claimRewards",
      "outputs": [],
      "stateMutability": "nonpayable",
      "type": "function"
    },
    {
      "inputs": [
        {
          "internalType": "address",
          "name": "user",
          "type": "address"
        }
      ],
      "name": "deactivateReferral",
      "outputs": [],
      "stateMutability": "nonpayable",
      "type": "function"
    },
    {
      "inputs": [
        {
          "internalType": "address",
          "name": "user",
          "type": "address"
        },
        {
          "internalType": "uint256",
          "name": "amount",
          "type": "uint256"
        }
      ],
      "name": "distributeReward",
      "outputs": [
        {
          "internalType": "uint256",
          "name": "",
          "type": "uint256"
        }
      ],
      "stateMutability": "nonpayable",
      "type": "function"
    },
    {
      "inputs": [],
      "name": "emergencyPause",
      "outputs": [],
      "stateMutability": "nonpayable",
      "type": "function"
    },
    {
      "inputs": [],
      "name": "getPlatformReferralStats",
      "outputs": [
        {
          "internalType": "uint256",
          "name": "totalUsersReferred",
          "type": "uint256"
        },
        {
          "internalType": "uint256",
          "name": "totalRewardsPaid",
          "type": "uint256"
        },
        {
          "internalType": "uint256",
          "name": "activeReferrers",
          "type": "uint256"
        },
        {
          "internalType": "uint256",
          "name": "averageReferralsPerUser",
          "type": "uint256"
        }
      ],
      "stateMutability": "view",
      "type": "function"
    },
    {
      "inputs": [
        {
          "internalType": "address",
          "name": "user",
          "type": "address"
        },
        {
          "internalType": "uint256",
          "name": "depth",
          "type": "uint256"
        }
      ],
      "name": "getReferralTree",
      "outputs": [
        {
          "internalType": "address[]",
          "name": "directReferrals",
          "type": "address[]"
        },
        {
          "internalType": "uint256",
          "name": "totalTreeSize",
          "type": "uint256"
        }
      ],
      "stateMutability": "view",
      "type": "function"
    },
    {
      "inputs": [
        {
          "internalType": "uint256",
          "name": "referralCount",
          "type": "uint256"
        }
      ],
      "name": "getTierPercentage",
      "outputs": [
        {
          "internalType": "uint256",
          "name": "",
          "type": "uint256"
        }
      ],
      "stateMutability": "view",
      "type": "function"
    },
    {
      "inputs": [
        {
          "internalType": "address",
          "name": "user",
          "type": "address"
        }
      ],
      "name": "getUserReferralInfo",
      "outputs": [
        {
          "internalType": "address",
          "name": "referrer",
          "type": "address"
        },
        {
          "internalType": "uint256",
          "name": "registeredAt",
          "type": "uint256"
        },
        {
          "internalType": "uint256",
          "name": "totalEarned",
          "type": "uint256"
        },
        {
          "internalType": "uint256",
          "name": "rewardsClaimed",
          "type": "uint256"
        },
        {
          "internalType": "uint256",
          "name": "pendingRewards",
          "type": "uint256"
        },
        {
          "internalType": "uint256",
          "name": "referralCountUser",
          "type": "uint256"
        },
        {
          "internalType": "uint256",
          "name": "currentTier",
          "type": "uint256"
        },
        {
          "internalType": "uint256",
          "name": "tierPercentage",
          "type": "uint256"
        }
      ],
      "stateMutability": "view",
      "type": "function"
    },
    {
      "inputs": [],
      "name": "nextTierId",
      "outputs": [
        {
          "internalType": "uint256",
          "name": "",
          "type": "uint256"
        }
      ],
      "stateMutability": "view",
      "type": "function"
    },
    {
      "inputs": [
        {
          "internalType": "address",
          "name": "",
          "type": "address"
        }
      ],
      "name": "referralCount",
      "outputs": [
        {
          "internalType": "uint256",
          "name": "",
          "type": "uint256"
        }
      ],
      "stateMutability": "view",
      "type": "function"
    },
    {
      "inputs": [
        {
          "internalType": "address",
          "name": "",
          "type": "address"
        }
      ],
      "name": "referrals",
      "outputs": [
        {
          "internalType": "address",
          "name": "referrer",
          "type": "address"
        },
        {
          "internalType": "address",
          "name": "referred",
          "type": "address"
        },
        {
          "internalType": "uint256",
          "name": "registeredAt",
          "type": "uint256"
        },
        {
          "internalType": "uint256",
          "name": "totalEarned",
          "type": "uint256"
        },
        {
          "internalType": "uint256",
          "name": "rewardsClaimed",
          "type": "uint256"
        },
        {
          "internalType": "bool",
          "name": "isActive",
          "type": "bool"
        }
      ],
      "stateMutability": "view",
      "type": "function"
    },
    {
      "inputs": [
        {
          "internalType": "address",
          "name": "referred",
          "type": "address"
        },
        {
          "internalType": "address",
          "name": "referrer",
          "type": "address"
        }
      ],
      "name": "registerReferral",
      "outputs": [],
      "stateMutability": "nonpayable",
      "type": "function"
    },
    {
      "inputs": [
        {
          "internalType": "uint256",
          "name": "",
          "type": "uint256"
        }
      ],
      "name": "rewardTiers",
      "outputs": [
        {
          "internalType": "uint256",
          "name": "percentage",
          "type": "uint256"
        },
        {
          "internalType": "uint256",
          "name": "minReferrals",
          "type": "uint256"
        },
        {
          "internalType": "uint256",
          "name": "maxReferrals",
          "type": "uint256"
        }
      ],
      "stateMutability": "view",
      "type": "function"
    },
    {
      "inputs": [],
      "name": "rewardToken",
      "outputs": [
        {
          "internalType": "address",
          "name": "",
          "type": "address"
        }
      ],
      "stateMutability": "view",
      "type": "function"
    },
    {
      "inputs": [
        {
          "internalType": "uint256",
          "name": "newBaseReward",
          "type": "uint256"
        }
      ],
      "name": "setBaseReward",
      "outputs": [],
      "stateMutability": "nonpayable",
      "type": "function"
    },
    {
      "inputs": [
        {
          "internalType": "address",
          "name": "newToken",
          "type": "address"
        }
      ],
      "name": "setRewardToken",
      "outputs": [],
      "stateMutability": "nonpayable",
      "type": "function"
    },
    {
      "inputs": [
        {
          "internalType": "address",
          "name": "",
          "type": "address"
        }
      ],
      "name": "totalEarned",
      "outputs": [
        {
          "internalType": "uint256",
          "name": "",
          "type": "uint256"
        }
      ],
      "stateMutability": "view",
      "type": "function"
    },
    {
      "inputs": [],
      "name": "totalReferrals",
      "outputs": [
        {
          "internalType": "uint256",
          "name": "",
          "type": "uint256"
        }
      ],
      "stateMutability": "view",
      "type": "function"
    },
    {
      "inputs": [],
      "name": "totalRewardsDistributed",
      "outputs": [
        {
          "internalType": "uint256",
          "name": "",
          "type": "uint256"
        }
      ],
      "stateMutability": "view",
      "type": "function"
    },
    {
      "inputs": [
        {
          "internalType": "uint256",
          "name": "amount",
          "type": "uint256"
        }
      ],
      "name": "withdrawExcessRewards",
      "outputs": [],
      "stateMutability": "nonpayable",
      "type": "function"
    }
  ],
  "bytecode": "0x6080346200030f57601f6200147638819003918201601f19168301916001600160401b038311848410176200031457808492604094855283396020938491810103126200030f57516001600160a01b039283821692918390036200030f57600480546001600160a01b03199081163317825560058054909116909417909355678ac7230489e8000060065560078054909460001992828414620002fa5760809495966001928385018255620000b36200032a565b946101f48087528487019686885260028b8201600a8152600099858b52600389528d8b20935184555189840155519101558951918252848201528489820152600a60608201527fb0962e6966d810bed3fca86ebf29182b8a8681a599007daf4ca9d7fc21af54ed978891a1808954163303620002cb578154868114620002b857608081868a930185558a620001476200032a565b60028a6102ee938484528a840190600b82528681860193603285525260038c528d2093518455518b840155519101558b5191825286820152600b8b82015260326060820152a1808954163303620002cb578154868114620002b857608081868a930185558a620001b66200032a565b60028a6103e8938484528a84019060338252868186019360c885525260038c528d2093518455518b840155519101558b519182528682015260338b82015260c86060820152a188541633036200028957805494851462000276576080959697508285019055620002256200032a565b60026105dc938483528383019060c982528a840191878352888852600386528b882094518555519084015551910155865193845283015260c9858301526060820152a15161112b90816200034b8239f35b634e487b7160e01b845260118852602484fd5b865162461bcd60e51b815280890183905260096024820152682737ba1030b236b4b760b91b6044820152606490fd5b634e487b7160e01b865260118a52602486fd5b875162461bcd60e51b8152808a0184905260096024820152682737ba1030b236b4b760b91b6044820152606490fd5b601186634e487b7160e01b6000525260246000fd5b600080fd5b634e487b7160e01b600052604160045260246000fd5b60405190606082016001600160401b03811183821017620003145760405256fe6040608081526004908136101561001557600080fd5b600091823560e01c80630373a23a14610c155780630594fd0414610bf65780631261783414610ab45780631355e29f146109d45780631852e8d9146109ab578063196f49141461098c5780631ec8bb8c1461083457806336a79f001461077f578063372500ab14610621578063422c6f8c146105d957806351858e27146105ab5780635603b9f914610573578063649aca4a1461053b57806376ad03bc1461051c5780638aee8127146104d057806392638786146104a95780639ca423b314610431578063acc37bdb14610384578063c49e06aa14610328578063d355271214610275578063db74559b1461023d578063ebb98f04146101f2578063ee172546146101d3578063f7c618c1146101a6578063f851a4401461017f5763ff2011141461013f57600080fd5b3461017b57602036600319011261017b576060928291358152600360205220805491600260018301549201549181519384526020840152820152f35b8280fd5b503461017b578260031936011261017b575490516001600160a01b03909116815260209150f35b5050346101cf57816003193601126101cf5760055490516001600160a01b039091168152602090f35b5080fd5b5050346101cf57816003193601126101cf576020906009549051908152f35b50903461017b57602036600319011261017b57600591610210610ca6565b61022560018060a01b03809354163314610ffd565b16835282602052822001600160ff1982541617905580f35b5050346101cf5760203660031901126101cf5760209181906001600160a01b03610265610ca6565b1681526001845220549051908152f35b50903461017b5760208060031936011261032457610100936001600160a01b0392909190836102a2610ca6565b169081845283835280842095600387015490870154916102c28383610f9a565b9380875260018652816102d781892054611035565b978281526001885260026102ed83832054611035565b9a8c54169b0154928152600188522054958251998a528901528701526060860152608085015260a084015260c083015260e0820152f35b8380fd5b8284346103815780600319360112610381576008549091825b8281106103735750608092821561036c5782915b600954815194855260208501528301526060820152f35b8091610355565b61037c90610cf4565b610341565b80fd5b828434610381578160031936011261038157906001600160a01b03806103a8610ca6565b169081845260019360209085825284812054946103dc6103c7876110a3565b966103d483519889610cbc565b8088526110a3565b8684019590601f19013687378252868352808220549381519682880192885251809252606087019592905b82821061041a5787808888888301520390f35b835181168752958401959284019290880190610407565b509190346101cf5760203660031901126101cf5760c0926001600160a01b039282908461045c610ca6565b16815280602052209083825416936001830154169260028301549060ff600560038601549486015495015416948151968752602087015285015260608401526080830152151560a0820152f35b50913461038157602036600319011261038157506104c960209235611035565b9051908152f35b8382346101cf5760203660031901126101cf576104eb610ca6565b61050060018060a01b03809354163314610ffd565b166bffffffffffffffffffffffff60a01b600554161760055580f35b5050346101cf57816003193601126101cf576020906006549051908152f35b5050346101cf5760203660031901126101cf5760209181906001600160a01b03610563610ca6565b1681526002845220549051908152f35b5050346101cf573660031901126103815761058c610ca6565b6024356001600160a01b038116810361017b576105a891610d19565b80f35b8382346101cf57816003193601126101cf57546105d2906001600160a01b03163314610ffd565b8060065580f35b50903461017b57602036600319011261017b576005916105f7610ca6565b61060c60018060a01b03809354163314610ffd565b1683528260205282200160ff19815416905580f35b503461017b578260031936011261017b573383526020600281526106518385205485835283858720015490610f9a565b9182156107485781836106b0923388528783528087892001610674838254610f8d565b9055600554875163a9059cbb60e01b8152339281019283526020830193909352919384926001600160a01b03169183918a918391604090910190565b03925af191821561073e5761070b93927f106f923f993c2149d49b4255ff723acafa1f2d94393f561d3eda32ae348f724195926106f5928892610711575b5050610fbf565b5133815260208101919091529081906040820190565b0390a180f35b6107309250803d10610737575b6107288183610cbc565b810190610fa7565b38806106ee565b503d61071e565b84513d87823e3d90fd5b60649184519162461bcd60e51b835282015260136024820152724e6f207265776172647320746f20636c61696d60681b6044820152fd5b503461017b57602036600319011261017b5780546107ed916020916001600160a01b03908116906107b1338314610ffd565b600554865163a9059cbb60e01b81526001600160a01b039093168484019081529335602085015291948593919092169183918891839160400190565b03925af1908115610828576105a89250839161080a575b50610fbf565b610822915060203d8111610737576107288183610cbc565b38610804565b505051903d90823e3d90fd5b50903461017b578060031936011261017b576001600160a01b0380610857610ca6565b1684526020938085528281209060ff600583015416156109535782825416948515610922575061088960243586610f53565b948486610899575b518681528790f35b7f5a91a713f126207d46906d994a642f1da493d9f984546740403956e2db950bca9484610909936003606097016108d18b8254610f8d565b9055855260028a528285206108e78a8254610f8d565b90556108f589600954610f8d565b600955541692838152600189522054611035565b8451918252858783015284820152a13880808084610891565b845162461bcd60e51b8152908101879052600b60248201526a2737903932b332b93932b960a91b6044820152606490fd5b835162461bcd60e51b81528086018790526013602482015272526566657272616c206e6f742061637469766560681b6044820152606490fd5b5050346101cf57816003193601126101cf576020906008549051908152f35b5050346101cf57806003193601126101cf576020906104c96109cb610ca6565b60243590610f53565b509190346101cf5760603660031901126101cf57823560243560443590610a0560018060a01b038754163314610ffd565b60075494610a1286610cf4565b6007558451906060820182811067ffffffffffffffff821117610aa157602098509160027fb0962e6966d810bed3fca86ebf29182b8a8681a599007daf4ca9d7fc21af54ed9694926080969489528583528a830184815289808501928784528c815260038e5220935184555160018401555191015585519287845288840152858301526060820152a151908152f35b634e487b7160e01b825260418952602482fd5b503461017b578160031936011261017b5767ffffffffffffffff908035828111610bf257610ae59036908301610c70565b92602435908111610bee57610afd9036908401610c70565b8354909491936001600160a01b0391610b199083163314610ffd565b858303610bbb5750865b828110610b2e578780f35b8082610b46610b41610b639487896110bb565b6110e1565b1689528860205282888a2054161580610b92575b610b6857610cf4565b610b23565b610b8d610b79610b418387896110bb565b610b87610b41848b8b6110bb565b90610d19565b610cf4565b50610ba1610b418289896110bb565b8380610bb1610b4185898b6110bb565b1691161415610b5a565b606490602088519162461bcd60e51b8352820152600d60248201526c125b9d985b1a59081a5b9c1d5d609a1b6044820152fd5b8580fd5b8480fd5b5050346101cf57816003193601126101cf576020906007549051908152f35b50903461017b57602036600319011261017b5781602091610c647f98c9cae42cac91fe8b116dbf81fe47e6b53fd49a362fb687d7ad4aa3114a7ce494359260018060a01b039054163314610ffd565b8160065551908152a180f35b9181601f84011215610ca15782359167ffffffffffffffff8311610ca1576020808501948460051b010111610ca157565b600080fd5b600435906001600160a01b0382168203610ca157565b90601f8019910116810190811067ffffffffffffffff821117610cde57604052565b634e487b7160e01b600052604160045260246000fd5b6000198114610d035760010190565b634e487b7160e01b600052601160045260246000fd5b6001600160a01b0391821691908215610f1b578116808314610ee2576000818152602090808252604093808583205416610eab57806004541633148015610ea2575b15610e6d57845160c0810181811067ffffffffffffffff821117610e595792869492600586937fdf95fdf88668708a802f70f84ff8e4fc24895b160a56c2c0272c493b58d2d8f59a989660609a528881528581018781528582014281528b830190868252608084019287845260a0850196600188528b8952888b52808a8a20965116906bffffffffffffffffffffffff60a01b91828854161787556001870192511690825416179055516002840155516003830155516004820155019051151560ff801983541691161790558581526001835220610e398154610cf4565b9055610e46600854610cf4565b60085582519384528301524290820152a1565b634e487b7160e01b84526041600452602484fd5b845162461bcd60e51b815260048101849052600e60248201526d139bdd08185d5d1a1bdc9a5e995960921b6044820152606490fd5b50833314610d5b565b845162461bcd60e51b815260048101849052601060248201526f105b1c9958591e481c9959995c9c995960821b6044820152606490fd5b60405162461bcd60e51b815260206004820152601160248201527021b0b73737ba103932b332b91039b2b63360791b6044820152606490fd5b60405162461bcd60e51b815260206004820152601060248201526f24b73b30b634b2103932b332b93932b960811b6044820152606490fd5b6001600160a01b0316600090815260016020526040902054610f7490611035565b90818102918183041490151715610d0357612710900490565b91908201809211610d0357565b91908203918211610d0357565b90816020910312610ca157518015158103610ca15790565b15610fc657565b60405162461bcd60e51b815260206004820152600f60248201526e151c985b9cd9995c8819985a5b1959608a1b6044820152606490fd5b1561100457565b60405162461bcd60e51b81526020600482015260096024820152682737ba1030b236b4b760b91b6044820152606490fd5b6007549060005b82811061104b57505050600090565b8060005260036020526040600020600181015483101580611082575b61107a575061107590610cf4565b61103c565b925050505490565b5060028101548015908115611098575b50611067565b905083111538611092565b67ffffffffffffffff8111610cde5760051b60200190565b91908110156110cb5760051b0190565b634e487b7160e01b600052603260045260246000fd5b356001600160a01b0381168103610ca1579056fea2646970667358221220a784201feab28d0fded213b041a002b0d5a3ed9d8ad0001ca8692323d37d5d9664736f6c63430008130033",
  "linkReferences": {},
  "deployedLinkReferences": {}
}