{
  "_format": "hh-sol-artifact-1",
  "contractName": "PropertyRegistry",
  "sourceName": "contracts/PropertyRegistry.sol",
  "abi": [
    {
      "anonymous": false,
      "inputs": [
        {
          "indexed": true,
          "internalType": "uint256",
          "name": "propertyId",
          "type": "uint256"
        }
      ],
      "name": "PropertyDeactivated",
      "type": "event"
    },
    {
      "anonymous": false,
      "inputs": [
        {
          "indexed": true,
          "internalType": "uint256",
          "name": "propertyId",
          "type": "uint256"
        },
        {
          "indexed": true,
          "internalType": "address",
          "name": "owner",
          "type": "address"
        },
        {
          "indexed": false,
          "internalType": "string",
          "name": "title",
          "type": "string"
        },
        {
          "indexed": false,
          "internalType": "uint256",
          "name": "price",
          "type": "uint256"
        }
      ],
      "name": "PropertyRegistered",
      "type": "event"
    },
    {
      "anonymous": false,
      "inputs": [
        {
          "indexed": true,
          "internalType": "uint256",
          "name": "propertyId",
          "type": "uint256"
        }
      ],
      "name": "PropertyUpdated",
      "type": "event"
    },
    {
      "inputs": [
        {
          "internalType": "uint256",
          "name": "propertyId",
          "type": "uint256"
        }
      ],
      "name": "deactivateProperty",
      "outputs": [],
      "stateMutability": "nonpayable",
      "type": "function"
    },
    {
      "inputs": [
        {
          "internalType": "uint256",
          "name": "start",
          "type": "uint256"
        },
        {
          "internalType": "uint256",
          "name": "count",
          "type": "uint256"
        }
      ],
      "name": "getActiveProperties",
      "outputs": [
        {
          "internalType": "uint256[]",
          "name": "",
          "type": "uint256[]"
        },
        {
          "components": [
            {
              "internalType": "address",
              "name": "owner",
              "type": "address"
            },
            {
              "internalType": "string",
              "name": "title",
              "type": "string"
            },
            {
              "internalType": "uint256",
              "name": "price",
              "type": "uint256"
            },
            {
              "internalType": "string",
              "name": "location",
              "type": "string"
            },
            {
              "internalType": "string",
              "name": "ipfsHash",
              "type": "string"
            },
            {
              "internalType": "bool",
              "name": "isActive",
              "type": "bool"
            },
            {
              "internalType": "uint256",
              "name": "timestamp",
              "type": "uint256"
            }
          ],
          "internalType": "struct PropertyRegistry.Property[]",
          "name": "",
          "type": "tuple[]"
        }
      ],
      "stateMutability": "view",
      "type": "function"
    },
    {
      "inputs": [
        {
          "internalType": "address",
          "name": "owner",
          "type": "address"
        }
      ],
      "name": "getOwnerProperties",
      "outputs": [
        {
          "internalType": "uint256[]",
          "name": "",
          "type": "uint256[]"
        }
      ],
      "stateMutability": "view",
      "type": "function"
    },
    {
      "inputs": [],
      "name": "nextPropertyId",
      "outputs": [
        {
          "internalType": "uint256",
          "name": "",
          "type": "uint256"
        }
      ],
      "stateMutability": "view",
      "type": "function"
    },
    {
      "inputs": [
        {
          "internalType": "address",
          "name": "",
          "type": "address"
        },
        {
          "internalType": "uint256",
          "name": "",
          "type": "uint256"
        }
      ],
      "name": "ownerProperties",
      "outputs": [
        {
          "internalType": "uint256",
          "name": "",
          "type": "uint256"
        }
      ],
      "stateMutability": "view",
      "type": "function"
    },
    {
      "inputs": [
        {
          "internalType": "uint256",
          "name": "",
          "type": "uint256"
        }
      ],
      "name": "properties",
      "outputs": [
        {
          "internalType": "address",
          "name": "owner",
          "type": "address"
        },
        {
          "internalType": "string",
          "name": "title",
          "type": "string"
        },
        {
          "internalType": "uint256",
          "name": "price",
          "type": "uint256"
        },
        {
          "internalType": "string",
          "name": "location",
          "type": "string"
        },
        {
          "internalType": "string",
          "name": "ipfsHash",
          "type": "string"
        },
        {
          "internalType": "bool",
          "name": "isActive",
          "type": "bool"
        },
        {
          "internalType": "uint256",
          "name": "timestamp",
          "type": "uint256"
        }
      ],
      "stateMutability": "view",
      "type": "function"
    },
    {
      "inputs": [
        {
          "internalType": "string",
          "name": "title",
          "type": "string"
        },
        {
          "internalType": "uint256",
          "name": "price",
          "type": "uint256"
        },
        {
          "internalType": "string",
          "name": "location",
          "type": "string"
        },
        {
          "internalType": "string",
          "name": "ipfsHash",
          "type": "string"
        }
      ],
      "name": "registerProperty",
      "outputs": [
        {
          "internalType": "uint256",
          "name": "",
          "type": "uint256"
        }
      ],
      "stateMutability": "nonpayable",
      "type": "function"
    },
    {
      "inputs": [
        {
          "internalType": "uint256",
          "name": "propertyId",
          "type": "uint256"
        },
        {
          "internalType": "string",
          "name": "title",
          "type": "string"
        },
        {
          "internalType": "uint256",
          "name": "price",
          "type": "uint256"
        },
        {
          "internalType": "string",
          "name": "location",
          "type": "string"
        },
        {
          "internalType": "string",
          "name": "ipfsHash",
          "type": "string"
        }
      ],
      "name": "updateProperty",
      "outputs": [],
      "stateMutability": "nonpayable",
      "type": "function"
    }
  ],
  "bytecode": "0x60808060405234610016576111f4908161001c8239f35b600080fdfe6080604052600436101561001257600080fd5b60e0600035811c80630bf2d668146109f057806339500f34146109d25780637ca28bc61461095d5780638b8cc996146104c25780638f48bd5b1461046a578063a715f673146101c4578063cb644897146101325763f7b108081461007557600080fd5b3461012d57602036600319011261012d57600435600090815260208190526040902080546001600160a01b0316906100af60018201611090565b61011c600283015461010e6100c660038601611090565b916100d360048701611090565b926100fb600660ff60058a015416980154966040519a8b9a8b528060208c01528a0190611016565b9160408901528782036060890152611016565b908582036080870152611016565b91151560a084015260c08301520390f35b600080fd5b3461012d5760208060031936011261012d576001600160a01b03610154610f9e565b166000526001908181526040600020916040519081938491848254948581520191600052846000209060005b868682106101ae57859061019682870383610f27565b6101aa604051928284938452830190610fe2565b0390f35b8354855288955090930192918101918101610180565b503461012d57604036600319011261012d57602435906101e382611193565b6101f06040519182610f27565b828152601f198061020085611193565b0193602094368685013761021381611193565b946102216040519687610f27565b8186528261022e83611193565b018160005b82811061042657505050600092600435956002938454975b8881108061041d575b1561033f5780600052600085528960ff60058a82826040600020015416610288575b5050505061028390611136565b61024b565b8a6103339460068c8396899f968a8f989b6102a96102839d6103229a6111aa565b5260005260008852604060002092604051986102c48a610f0c565b84546001600160a01b03168a526102dd60018601611090565b908a015283015460408901526102f560038401611090565b606089015261030660048401611090565b608089015282015416151560a0870152015460c08501526111aa565b5261032d818d6111aa565b50611136565b9690508938808a610276565b84888b868661035960405194604086526040860190610fe2565b94848603818601528351918287528187019082808560051b8a01019601946000985b858a106103885788880389f35b909192939495968580828585600195030188528a5190848060a01b0382511681526103f46103e16103c4858501518b878601528b850190611016565b604085015160408501526060808601519085830390860152611016565b6080808501519084830390850152611016565b9160a08082015115159083015260c080910151910152990195019901989291909594939561037b565b50818710610254565b60405161043281610f0c565b60008152606080848301526000604083015280808301526080820152600060a0820152600060c082015282828b010152018290610233565b3461012d57604036600319011261012d57610483610f9e565b6001600160a01b031660009081526001602052604090208054602435919082101561012d576020916104b491610fb4565b90546040519160031b1c8152f35b3461012d5760a036600319011261012d576024356001600160401b03811161012d576104f2903690600401610f48565b6064356001600160401b03811161012d57610511903690600401610f48565b6084356001600160401b03811161012d57610530903690600401610f48565b90600435600052600060205261055460018060a01b0360406000205416331461115b565b600435600052600060205260ff6005604060002001541615610922576004356000526000602052600160406000200183516001600160401b0381116107905761059d8254611056565b601f81116108da575b50602094601f821160011461087457948192939495600092610869575b50508160011b916000199060031b1c19161790555b600435600052600060205260406000209060443560028301558051906001600160401b0382116107905761060f6003840154611056565b601f811161081e575b50602090601f83116001146107b15760039291600091836107a6575b50508160011b9160001990841b1c1916179101555b6004356000526000602052600460406000200181516001600160401b038111610790576106768254611056565b601f8111610748575b50602092601f82116001146106e457928192936000926106d9575b50508160011b916000199060031b1c19161790555b6004357f7ad43e2b215acc30fe68db10cbf57c6b2b699ef7572e54808c2a106fb904f3fb600080a2005b01519050838061069a565b601f198216938360005260206000209160005b8681106107305750836001959610610717575b505050811b0190556106af565b015160001960f88460031b161c1916905583808061070a565b919260206001819286850151815501940192016106f7565b826000526020600020601f830160051c81019160208410610786575b601f0160051c01905b81811061077a575061067f565b6000815560010161076d565b9091508190610764565b634e487b7160e01b600052604160045260246000fd5b015190508580610634565b90601f198316916003850160005260206000209260005b818110610806575091600193918560039694106107ee575b505050811b01910155610649565b015160001983861b60f8161c191690558580806107e0565b929360206001819287860151815501950193016107c8565b600384016000526020600020601f840160051c8101916020851061085f575b601f0160051c01905b8181106108535750610618565b60008155600101610846565b909150819061083d565b0151905085806105c3565b601f198216958360005260206000209160005b8881106108c2575083600195969798106108a9575b505050811b0190556105d8565b015160001960f88460031b161c1916905585808061089c565b91926020600181928685015181550194019201610887565b826000526020600020601f830160051c81019160208410610918575b601f0160051c01905b81811061090c57506105a6565b600081556001016108ff565b90915081906108f6565b60405162461bcd60e51b815260206004820152601360248201527250726f7065727479206e6f742061637469766560681b6044820152606490fd5b3461012d57602036600319011261012d5760043580600052600060205261099260018060a01b0360406000205416331461115b565b806000526000602052600560406000200160ff1981541690557f7bc5467b3abd536b298666c57448e8ec6a25e7929f01a0789e4ef525716f45e3600080a2005b3461012d57600036600319011261012d576020600254604051908152f35b3461012d57608036600319011261012d576004356001600160401b03811161012d57610a20903690600401610f48565b6044356001600160401b03811161012d57610a3f903690600401610f48565b6064356001600160401b03811161012d57610a5e903690600401610f48565b9060025491610a6c83611136565b60025560405190610a7c82610f0c565b3382526020820192858452602435604084015260608301526080820152600160a08201524260c082015282600052600060205260406000209160018060a01b038251166bffffffffffffffffffffffff60a01b845416178355518051906001600160401b038211610790578190610af66001860154611056565b601f8111610eb9575b50602090601f8311600114610e4c57600092610e41575b50508160011b916000199060031b1c19161760018301555b6040810151600283015560608101518051906001600160401b038211610790578190610b5d6003860154611056565b601f8111610dee575b50602090601f8311600114610d7c57600092610d71575b50508160011b916000199060031b1c19161760038301555b60808101518051906001600160401b03821161079057610bb86004850154611056565b601f8111610d2a575b50602090601f8311600114610cb75791806006949260c094600092610cac575b50508160011b916000199060031b1c19161760048501555b6005840160a0820151151560ff801983541691161790550151910155336000526001602052604060002091825492680100000000000000008410156107905783610c4a916001602096018155610fb4565b81549060031b9084821b91600019901b1916179055817f4a94c8d5fab40a5edfd34ed099a279029ee376bf6a571684e0cffd8e00216dbc610c9660405193604085526040850190611016565b92602435868201528033940390a3604051908152f35b015190508880610be1565b90601f198316916004860160005260206000209260005b818110610d12575092600192859260c0966006989610610cf9575b505050811b016004850155610bf9565b015160001960f88460031b161c19169055888080610ce9565b92936020600181928786015181550195019301610cce565b600485016000526020600020601f840160051c810160208510610d6a575b601f830160051c82018110610d5e575050610bc1565b60008155600101610d48565b5080610d48565b015190508680610b7d565b9250600385016000526020600020906000935b601f1984168510610dd3576001945083601f19811610610dba575b505050811b016003830155610b95565b015160001960f88460031b161c19169055868080610daa565b81810151835560209485019460019093019290910190610d8f565b909150600385016000526020600020601f840160051c810160208510610e3a575b90849392915b601f830160051c82018110610e2b575050610b66565b60008155859450600101610e15565b5080610e0f565b015190508680610b16565b600186016000908152602081209350601f198516905b818110610ea15750908460019594939210610e88575b505050811b016001830155610b2e565b015160001960f88460031b161c19169055868080610e78565b92936020600181928786015181550195019301610e62565b909150600185016000526020600020601f840160051c810160208510610f05575b90849392915b601f830160051c82018110610ef6575050610aff565b60008155859450600101610ee0565b5080610eda565b60e081019081106001600160401b0382111761079057604052565b90601f801991011681019081106001600160401b0382111761079057604052565b81601f8201121561012d578035906001600160401b0382116107905760405192610f7c601f8401601f191660200185610f27565b8284526020838301011161012d57816000926020809301838601378301015290565b600435906001600160a01b038216820361012d57565b8054821015610fcc5760005260206000200190600090565b634e487b7160e01b600052603260045260246000fd5b90815180825260208080930193019160005b828110611002575050505090565b835185529381019392810192600101610ff4565b919082519283825260005b848110611042575050826000602080949584010152601f8019910116010190565b602081830181015184830182015201611021565b90600182811c92168015611086575b602083101461107057565b634e487b7160e01b600052602260045260246000fd5b91607f1691611065565b90604051918260008254926110a484611056565b90818452600194858116908160001461111357506001146110d0575b50506110ce92500383610f27565b565b9093915060005260209081600020936000915b8183106110fb5750506110ce935082010138806110c0565b855488840185015294850194879450918301916110e3565b9150506110ce94506020925060ff191682840152151560051b82010138806110c0565b60001981146111455760010190565b634e487b7160e01b600052601160045260246000fd5b1561116257565b60405162461bcd60e51b81526020600482015260096024820152682737ba1037bbb732b960b91b6044820152606490fd5b6001600160401b0381116107905760051b60200190565b8051821015610fcc5760209160051b01019056fea26469706673582212209a496ed9ad3ef31fe750e98da85f7d8712acd6e34f40b8c39c27c0894b014b4b64736f6c63430008130033",
  "linkReferences": {},
  "deployedLinkReferences": {}
}