{
  "_format": "hh-sol-artifact-1",
  "contractName": "RentChainMultiChain",
  "sourceName": "contracts/RentChainMultiChain.sol",
  "abi": [
    {
      "inputs": [],
      "stateMutability": "nonpayable",
      "type": "constructor"
    },
    {
      "anonymous": false,
      "inputs": [
        {
          "indexed": false,
          "internalType": "uint256",
          "name": "chainId",
          "type": "uint256"
        },
        {
          "indexed": false,
          "internalType": "address",
          "name": "gateway",
          "type": "address"
        },
        {
          "indexed": false,
          "internalType": "uint256",
          "name": "gasLimit",
          "type": "uint256"
        },
        {
          "indexed": false,
          "internalType": "uint256",
          "name": "fee",
          "type": "uint256"
        }
      ],
      "name": "ChainConfigured",
      "type": "event"
    },
    {
      "anonymous": false,
      "inputs": [
        {
          "indexed": false,
          "internalType": "uint256",
          "name": "chainId",
          "type": "uint256"
        },
        {
          "indexed": false,
          "internalType": "bool",
          "name": "isActive",
          "type": "bool"
        }
      ],
      "name": "ChainStatusUpdated",
      "type": "event"
    },
    {
      "anonymous": false,
      "inputs": [
        {
          "indexed": false,
          "internalType": "uint256",
          "name": "newFee",
          "type": "uint256"
        }
      ],
      "name": "CrossChainFeeUpdated",
      "type": "event"
    },
    {
      "anonymous": false,
      "inputs": [
        {
          "indexed": true,
          "internalType": "bytes32",
          "name": "requestHash",
          "type": "bytes32"
        },
        {
          "indexed": true,
          "internalType": "address",
          "name": "user",
          "type": "address"
        },
        {
          "indexed": false,
          "internalType": "uint256",
          "name": "sourceChain",
          "type": "uint256"
        },
        {
          "indexed": false,
          "internalType": "uint256",
          "name": "targetChain",
          "type": "uint256"
        },
        {
          "indexed": false,
          "internalType": "bytes",
          "name": "data",
          "type": "bytes"
        }
      ],
      "name": "CrossChainRequestCreated",
      "type": "event"
    },
    {
      "anonymous": false,
      "inputs": [
        {
          "indexed": true,
          "internalType": "bytes32",
          "name": "requestHash",
          "type": "bytes32"
        },
        {
          "indexed": true,
          "internalType": "address",
          "name": "user",
          "type": "address"
        },
        {
          "indexed": false,
          "internalType": "bool",
          "name": "success",
          "type": "bool"
        }
      ],
      "name": "CrossChainRequestExecuted",
      "type": "event"
    },
    {
      "inputs": [
        {
          "internalType": "uint256",
          "name": "chainId",
          "type": "uint256"
        },
        {
          "internalType": "address",
          "name": "gateway",
          "type": "address"
        },
        {
          "internalType": "uint256",
          "name": "gasLimit",
          "type": "uint256"
        },
        {
          "internalType": "uint256",
          "name": "fee",
          "type": "uint256"
        }
      ],
      "name": "addChainConfig",
      "outputs": [],
      "stateMutability": "nonpayable",
      "type": "function"
    },
    {
      "inputs": [],
      "name": "admin",
      "outputs": [
        {
          "internalType": "address",
          "name": "",
          "type": "address"
        }
      ],
      "stateMutability": "view",
      "type": "function"
    },
    {
      "inputs": [],
      "name": "baseCrossChainFee",
      "outputs": [
        {
          "internalType": "uint256",
          "name": "",
          "type": "uint256"
        }
      ],
      "stateMutability": "view",
      "type": "function"
    },
    {
      "inputs": [
        {
          "internalType": "uint256[]",
          "name": "chainIds",
          "type": "uint256[]"
        },
        {
          "internalType": "address[]",
          "name": "gateways",
          "type": "address[]"
        },
        {
          "internalType": "uint256[]",
          "name": "gasLimits",
          "type": "uint256[]"
        },
        {
          "internalType": "uint256[]",
          "name": "fees",
          "type": "uint256[]"
        }
      ],
      "name": "batchAddChains",
      "outputs": [],
      "stateMutability": "nonpayable",
      "type": "function"
    },
    {
      "inputs": [
        {
          "internalType": "uint256",
          "name": "",
          "type": "uint256"
        }
      ],
      "name": "chainConfigs",
      "outputs": [
        {
          "internalType": "bool",
          "name": "isActive",
          "type": "bool"
        },
        {
          "internalType": "address",
          "name": "gateway",
          "type": "address"
        },
        {
          "internalType": "uint256",
          "name": "gasLimit",
          "type": "uint256"
        },
        {
          "internalType": "uint256",
          "name": "fee",
          "type": "uint256"
        }
      ],
      "stateMutability": "view",
      "type": "function"
    },
    {
      "inputs": [
        {
          "internalType": "uint256",
          "name": "targetChain",
          "type": "uint256"
        },
        {
          "internalType": "bytes",
          "name": "data",
          "type": "bytes"
        }
      ],
      "name": "createCrossChainRequest",
      "outputs": [
        {
          "internalType": "bytes32",
          "name": "",
          "type": "bytes32"
        }
      ],
      "stateMutability": "payable",
      "type": "function"
    },
    {
      "inputs": [
        {
          "internalType": "bytes32",
          "name": "",
          "type": "bytes32"
        }
      ],
      "name": "crossChainRequests",
      "outputs": [
        {
          "internalType": "address",
          "name": "user",
          "type": "address"
        },
        {
          "internalType": "uint256",
          "name": "sourceChain",
          "type": "uint256"
        },
        {
          "internalType": "uint256",
          "name": "targetChain",
          "type": "uint256"
        },
        {
          "internalType": "bytes",
          "name": "data",
          "type": "bytes"
        },
        {
          "internalType": "uint256",
          "name": "timestamp",
          "type": "uint256"
        },
        {
          "internalType": "bool",
          "name": "executed",
          "type": "bool"
        },
        {
          "internalType": "bytes32",
          "name": "requestHash",
          "type": "bytes32"
        }
      ],
      "stateMutability": "view",
      "type": "function"
    },
    {
      "inputs": [
        {
          "internalType": "uint256",
          "name": "chainId",
          "type": "uint256"
        }
      ],
      "name": "emergencyPauseChain",
      "outputs": [],
      "stateMutability": "nonpayable",
      "type": "function"
    },
    {
      "inputs": [
        {
          "internalType": "uint256",
          "name": "targetChain",
          "type": "uint256"
        }
      ],
      "name": "estimateCrossChainFee",
      "outputs": [
        {
          "internalType": "uint256",
          "name": "totalFee",
          "type": "uint256"
        }
      ],
      "stateMutability": "view",
      "type": "function"
    },
    {
      "inputs": [
        {
          "internalType": "bytes32",
          "name": "requestHash",
          "type": "bytes32"
        },
        {
          "internalType": "address",
          "name": "user",
          "type": "address"
        },
        {
          "internalType": "uint256",
          "name": "sourceChain",
          "type": "uint256"
        },
        {
          "internalType": "bytes",
          "name": "data",
          "type": "bytes"
        }
      ],
      "name": "executeCrossChainRequest",
      "outputs": [
        {
          "internalType": "bool",
          "name": "",
          "type": "bool"
        }
      ],
      "stateMutability": "nonpayable",
      "type": "function"
    },
    {
      "inputs": [
        {
          "internalType": "uint256",
          "name": "chainId",
          "type": "uint256"
        }
      ],
      "name": "getChainConfig",
      "outputs": [
        {
          "internalType": "bool",
          "name": "isActive",
          "type": "bool"
        },
        {
          "internalType": "address",
          "name": "gateway",
          "type": "address"
        },
        {
          "internalType": "uint256",
          "name": "gasLimit",
          "type": "uint256"
        },
        {
          "internalType": "uint256",
          "name": "fee",
          "type": "uint256"
        }
      ],
      "stateMutability": "view",
      "type": "function"
    },
    {
      "inputs": [],
      "name": "getSupportedChains",
      "outputs": [
        {
          "internalType": "uint256[]",
          "name": "",
          "type": "uint256[]"
        }
      ],
      "stateMutability": "view",
      "type": "function"
    },
    {
      "inputs": [
        {
          "internalType": "address",
          "name": "user",
          "type": "address"
        }
      ],
      "name": "getUserCrossChainRequests",
      "outputs": [
        {
          "internalType": "bytes32[]",
          "name": "",
          "type": "bytes32[]"
        }
      ],
      "stateMutability": "view",
      "type": "function"
    },
    {
      "inputs": [],
      "name": "nextRequestId",
      "outputs": [
        {
          "internalType": "uint256",
          "name": "",
          "type": "uint256"
        }
      ],
      "stateMutability": "view",
      "type": "function"
    },
    {
      "inputs": [
        {
          "internalType": "uint256",
          "name": "newFee",
          "type": "uint256"
        }
      ],
      "name": "setCrossChainFee",
      "outputs": [],
      "stateMutability": "nonpayable",
      "type": "function"
    },
    {
      "inputs": [
        {
          "internalType": "uint256",
          "name": "",
          "type": "uint256"
        }
      ],
      "name": "supportedChains",
      "outputs": [
        {
          "internalType": "bool",
          "name": "",
          "type": "bool"
        }
      ],
      "stateMutability": "view",
      "type": "function"
    },
    {
      "inputs": [
        {
          "internalType": "uint256",
          "name": "propertyId",
          "type": "uint256"
        },
        {
          "internalType": "address",
          "name": "owner",
          "type": "address"
        },
        {
          "internalType": "uint256",
          "name": "price",
          "type": "uint256"
        },
        {
          "internalType": "string",
          "name": "location",
          "type": "string"
        },
        {
          "internalType": "string",
          "name": "ipfsHash",
          "type": "string"
        }
      ],
      "name": "syncPropertyData",
      "outputs": [],
      "stateMutability": "nonpayable",
      "type": "function"
    },
    {
      "inputs": [
        {
          "internalType": "address",
          "name": "user",
          "type": "address"
        },
        {
          "internalType": "uint256",
          "name": "propertiesCount",
          "type": "uint256"
        },
        {
          "internalType": "uint256",
          "name": "agreementsCount",
          "type": "uint256"
        },
        {
          "internalType": "uint256",
          "name": "reputationScore",
          "type": "uint256"
        }
      ],
      "name": "syncUserData",
      "outputs": [],
      "stateMutability": "nonpayable",
      "type": "function"
    },
    {
      "inputs": [
        {
          "internalType": "uint256",
          "name": "chainId",
          "type": "uint256"
        },
        {
          "internalType": "address",
          "name": "newGateway",
          "type": "address"
        }
      ],
      "name": "updateChainGateway",
      "outputs": [],
      "stateMutability": "nonpayable",
      "type": "function"
    },
    {
      "inputs": [
        {
          "internalType": "uint256",
          "name": "chainId",
          "type": "uint256"
        },
        {
          "internalType": "bool",
          "name": "isActive",
          "type": "bool"
        }
      ],
      "name": "updateChainStatus",
      "outputs": [],
      "stateMutability": "nonpayable",
      "type": "function"
    },
    {
      "inputs": [
        {
          "internalType": "address",
          "name": "",
          "type": "address"
        }
      ],
      "name": "userNonces",
      "outputs": [
        {
          "internalType": "uint256",
          "name": "",
          "type": "uint256"
        }
      ],
      "stateMutability": "view",
      "type": "function"
    },
    {
      "inputs": [
        {
          "internalType": "address",
          "name": "to",
          "type": "address"
        },
        {
          "internalType": "uint256",
          "name": "amount",
          "type": "uint256"
        }
      ],
      "name": "withdrawFees",
      "outputs": [],
      "stateMutability": "nonpayable",
      "type": "function"
    }
  ],
  "bytecode": "0x6080346200053757600480546001600160a01b0319163317905566038d7ea4c68000600655608081016001600160401b03811182821017620004f05760008051602062001b8a8339815191529160809160405260018152602081019060008252600260408201620f424081526060830190662386f26fc100009485835260016000526000602052620000a5604060002095511515869060ff801983541691151516179055565b51845490610100600160a81b039060081b1690610100600160a81b0319161784555160018401555191015560036020526040600020600160ff19825416179055604051906001825260006020830152620f424060408301526060820152a16004546001600160a01b0316330362000506576040516001600160401b036080820190811190821117620004f0576080818160008051602062001b8a8339815191529301604052600181526020810190308252600260408201620f42408152606083019066038d7ea4c68000825262082750948560005260006020526200019e604060002095511515869060ff801983541691151516179055565b51845490610100600160a81b039060081b1690610100600160a81b0319161784555160018401555191015560036020526040600020600160ff19825416179055604051908152306020820152620f4240604082015266038d7ea4c680006060820152a16004546001600160a01b031633036200050657604051608081016001600160401b03811182821017620004f05760008051602062001b8a833981519152916080916040526001815260208101903082526040810190620f42408252600260608201655af3107a4000938482526208274f958660005260006020526200029a604060002095511515869060ff801983541691151516179055565b51845490610100600160a81b039060081b1690610100600160a81b0319161784555160018401555191015560036020526040600020600160ff19825416179055604051918252306020830152620f424060408301526060820152a16004546001600160a01b031633036200050657604051608081016001600160401b03811182821017620004f05760008051602062001b8a8339815191529160809160405260018152602081019060008252600260408201620f4240815260608301906611c37937e0800094858352608960005260006020526200038c604060002095511515869060ff801983541691151516179055565b51845490610100600160a81b039060081b1690610100600160a81b0319161784555160018401555191015560036020526040600020600160ff19825416179055604051906089825260006020830152620f424060408301526060820152a16004546001600160a01b031633036200050657604051608081016001600160401b03811182821017620004f05760008051602062001b8a83398151915291608091604052600181526020810190600082526040810190620f42408252600260608201660aa87bee5380009384825261a4b19586600052600060205262000484604060002095511515869060ff801983541691151516179055565b51845490610100600160a81b039060081b1690610100600160a81b0319161784555160018401555191015560036020526040600020600160ff1982541617905560405191825260006020830152620f424060408301526060820152a160405161164d90816200053d8239f35b634e487b7160e01b600052604160045260246000fd5b60405162461bcd60e51b81526020600482015260096024820152682737ba1030b236b4b760b91b6044820152606490fd5b600080fdfe6080604052600436101561001257600080fd5b60003560e01c80630f3f6b5b1461126f57806319ed16dc14610dc85780632f7801f414611235578063370673da1461104c5780633c9fc52014610f755780633e66cfcb14610e2757806351bfbc3214610dc857806351d901c514610ca2578063548d496f14610c7157806359bc334c14610bbd5780636a84a98514610b9f5780637785f6fe14610b815780638142662814610aeb578063814a3029146109825780638162e1bb14610578578063836dd14f1461051f578063ad3b1b47146104be578063c4bffe2b146103a6578063c74a13b61461033a578063da468045146101c8578063f851a4401461019f5763fa25e7d61461010e57600080fd5b3461019a57602036600319011261019a5760043580600052600360205260ff6040600020541615610161576101596020916006549060005260008352600260406000200154906114a2565b604051908152f35b60405162461bcd60e51b81526020600482015260116024820152702ab739bab83837b93a32b21031b430b4b760791b6044820152606490fd5b600080fd5b3461019a57600036600319011261019a576004546040516001600160a01b039091168152602090f35b3461019a5760208060031936011261019a576101e2611312565b9060018060a01b0380831690816000526002928381526040600020549261022161020b85611589565b9461021960405196876113d5565b808652611589565b8483019390601f19013685376000936000976001600160601b03199060601b16975b836000528785526040600020548110156102f757604051858101908a8252600060348201528260548201524660748201526094600081830152815260c0810181811067ffffffffffffffff8211176102e1576040525190208060005260018652848460406000205416146102c1575b506102bc906114c5565b610243565b866102da916102d46102bc94998b6115a1565b526114c5565b95906102b2565b634e487b7160e01b600052604160045260246000fd5b848783604051928392818401908285525180915260408401929160005b82811061032357505050500390f35b835185528695509381019392810192600101610314565b3461019a57602036600319011261019a577f27ac1f8582df24c5a440380c6f532a5e3c80caf348beb3f6484f310f2c6bbd0b604060043561038660018060a01b0360045416331461150e565b60008181526020818152838220805460ff191690558351928352820152a1005b3461019a57600036600319011261019a576000805b6103e8811061048457506103e76103d182611589565b916103df60405193846113d5565b808352611589565b60209180830191601f19013683376000805b6103e8811061044557505090604051928392818401908285525180915260408401929160005b82811061042e57505050500390f35b83518552869550938101939281019260010161041f565b806000526003855260ff60406000205416610469575b610464906114c5565b6103f9565b9061047c81836102d461046494876115a1565b91905061045b565b80600052600360205260ff604060002054166104a9575b6104a4906114c5565b6103bb565b906104b66104a4916114c5565b91905061049b565b3461019a57604036600319011261019a5760008080806104dc611312565b6024359060018060a01b036104f68160045416331461150e565b83918315610515575b1690f11561050957005b6040513d6000823e3d90fd5b6108fc92506104ff565b3461019a57602036600319011261019a577f08ada4207834842abba9ea80ca977888a9d01744f201c6b458533fa72e77a9d1602060043561056b60018060a01b0360045416331461150e565b80600655604051908152a1005b604036600319011261019a5767ffffffffffffffff60243581811161019a576105a590369060040161136f565b600492919235600052600360205260ff604060002054161561093d57600435600052600060205260ff6040600020541615610900576105fa6006546004356000526000602052600260406000200154906114a2565b34106108c857336000526002602052604060002080549061061a826114c5565b905560405161066260b48260208101943360601b86526004356034830152868960548401378682019060548201524660748201524260948201520360948101845201826113d5565b5190209160405160e08101818110838211176102e157604052338152602081019046825260408101600435815261069a368689611413565b9060608301918252426080840152600060a08401528660c084015286600052600160205260406000209360018060a01b038451166001600160601b0360a01b8654161785555160018501555160028401555180519384116102e1576107026003840154611468565b601f8111610881575b50916020969186938890601f87116001146107e85791867f6e7320f2ca68964d68e8d30523bfb2c118684f04f2058e8d7579d43f9f899df3969760c0936006956000926107dd575b50508160011b916000199060031b1c19161760038501555b6080810151600485015561079460a08201511515600586019060ff801983541691151516179055565b01519101558360405191468352600435888401526060604084015281606084015260808301376000608085830101526080813395601f80199101168101030190a3604051908152f35b015190508c80610753565b959060038401600052896000209660005b601f19841681106108675750827f6e7320f2ca68964d68e8d30523bfb2c118684f04f2058e8d7579d43f9f899df397986006959360019360c096601f1981161061084e575b505050811b01600385015561076b565b015160001960f88460031b161c191690558c808061083e565b8282015189556001909801978a9750918b01918b016107f9565b600384016000526020600020601f860160051c8101602087106108c1575b601f830160051c820181106108b557505061070b565b6000815560010161089f565b508061089f565b60405162461bcd60e51b815260206004820152601060248201526f496e73756666696369656e742066656560801b6044820152606490fd5b60405162461bcd60e51b815260206004820152601560248201527454617267657420636861696e20696e61637469766560581b6044820152606490fd5b60405162461bcd60e51b815260206004820152601860248201527f556e737570706f727465642074617267657420636861696e00000000000000006044820152606490fd5b3461019a5760208060031936011261019a5760043560005260019081815260406000209160018060a01b038354169281810154906002810154936003820160405180956000908354936109d485611468565b94858552868382169182600014610ac9575050600114610a8a575b5050610a059250979594979693929603846113d5565b600481015494600660ff60058401541692015492604051978896875282870152604086015260e060608601528351938460e087015260005b858110610a72575050506101009460008685870101526080850152151560a084015260c0830152601f80199101168101030190f35b81810183015189820161010001528896508201610a3d565b85925060005281600020906000915b858310610ab1575050610a05935082010189806109ef565b8054838b018501528994508693909201918101610a99565b9250935050610a0594915060ff191682840152151560051b82010189806109ef565b3461019a57608036600319011261019a57610b04611312565b46600052600060205260018060a01b03610b298160406000205460081c1633146114d4565b7f625ac99e7d1638ecd81a8efa825f90976cf16b1a80cb0b891dfefbb01e30f2a16020604051818101906001600160601b03198660601b16825260148152610b70816113b9565b5190209260405194600186521693a3005b3461019a57600036600319011261019a576020600654604051908152f35b3461019a57600036600319011261019a576020600554604051908152f35b3461019a5760a036600319011261019a57610bd6611328565b67ffffffffffffffff60643581811161019a57610bf790369060040161144a565b5060843590811161019a57610c1090369060040161144a565b5046600052600060205260018060a01b03610c368160406000205460081c1633146114d4565b7f625ac99e7d1638ecd81a8efa825f90976cf16b1a80cb0b891dfefbb01e30f2a16020604051818101906004358252828152610b70816113b9565b3461019a57602036600319011261019a576004356000526003602052602060ff604060002054166040519015158152f35b3461019a57608036600319011261019a577f0349c5d4e3ded2d9a9db300c6f34e5c15d0a0d229865b33fb9658483458fd5ee600435610cdf611328565b90610dc36044356064359060018060a01b03610d008160045416331461150e565b600260405191610d0f8361139d565b6001835260208301908089168252610d79604085019186835260608601938885528a6000526000602052610d57604060002097511515889060ff801983541691151516179055565b518654610100600160a81b031916911660081b610100600160a81b0316178555565b5160018401555191015560036020526040600020600160ff1982541617905560405194859485909493926060926080830196835260018060a01b0316602083015260408201520152565b0390a1005b3461019a57602036600319011261019a576004356000908152602081815260409182902080546001820154600290920154845160ff83161515815260089290921c6001600160a01b031693820193909352928301526060820152608090f35b3461019a57608036600319011261019a57600435610e43611328565b60643567ffffffffffffffff811161019a57610e6390369060040161136f565b926044356000526020936000855260018060a01b0392610e8e8460406000205460081c1633146114d4565b826000526001865260ff60056040600020015416610f3d576000807f625ac99e7d1638ecd81a8efa825f90976cf16b1a80cb0b891dfefbb01e30f2a19388938683526001855260056040842001600160ff198254161790558160405192839283378101838152039082305af1933d15610f38573d610f0b816113f7565b90610f1960405192836113d5565b81526000833d92013e5b604051941515958686521693a3604051908152f35b610f23565b60405162461bcd60e51b815260048101879052601060248201526f105b1c9958591e48195e1958dd5d195960821b6044820152606490fd5b3461019a57604036600319011261019a577f0349c5d4e3ded2d9a9db300c6f34e5c15d0a0d229865b33fb9658483458fd5ee600435610fb2611328565b90610fc860018060a01b0360045416331461150e565b806000526003602052610fe260ff60406000205416611546565b60008181526020819052604090208054610100600160a81b031916600884901b610100600160a81b0316178155610dc390600181015460029190910154604080519485526001600160a01b0390951660208501529383015260608201929092529081906080820190565b3461019a57608036600319011261019a5767ffffffffffffffff60043581811161019a5761107e90369060040161133e565b909160243581811161019a5761109890369060040161133e565b929060443583811161019a576110b290369060040161133e565b9360643590811161019a576110cb90369060040161133e565b96909360018060a01b03916110e58360045416331461150e565b6110f08883146115cb565b6110fb8783146115cb565b6111068983146115cb565b60005b82811061111257005b61111d818484611607565b359061112a818b89611607565b358581169081810361019a57611230936112287f0349c5d4e3ded2d9a9db300c6f34e5c15d0a0d229865b33fb9658483458fd5ee938f61117a8f8f926111738f8b938491611607565b3593611607565b359161118b8c60045416331461150e565b60038c60405161119a8161139d565b60026001948583526020938484019182526111e4604085019189835260608601938b85528d60005260008852610d57604060002097511515889060ff801983541691151516179055565b5186840155519101555260406000209060ff1982541617905560405194859485909493926060926080830196835260018060a01b0316602083015260408201520152565b0390a16114c5565b611109565b3461019a57602036600319011261019a576001600160a01b03611256611312565b1660005260026020526020604060002054604051908152f35b3461019a57604036600319011261019a576004356024358015159182820361019a577f27ac1f8582df24c5a440380c6f532a5e3c80caf348beb3f6484f310f2c6bbd0b926113056040936112ce60018060a01b0360045416331461150e565b8360005260036020526112e760ff866000205416611546565b836000526000602052846000209060ff801983541691151516179055565b82519182526020820152a1005b600435906001600160a01b038216820361019a57565b602435906001600160a01b038216820361019a57565b9181601f8401121561019a5782359167ffffffffffffffff831161019a576020808501948460051b01011161019a57565b9181601f8401121561019a5782359167ffffffffffffffff831161019a576020838186019501011161019a57565b6080810190811067ffffffffffffffff8211176102e157604052565b6040810190811067ffffffffffffffff8211176102e157604052565b90601f8019910116810190811067ffffffffffffffff8211176102e157604052565b67ffffffffffffffff81116102e157601f01601f191660200190565b92919261141f826113f7565b9161142d60405193846113d5565b82948184528183011161019a578281602093846000960137010152565b9080601f8301121561019a5781602061146593359101611413565b90565b90600182811c92168015611498575b602083101461148257565b634e487b7160e01b600052602260045260246000fd5b91607f1691611477565b919082018092116114af57565b634e487b7160e01b600052601160045260246000fd5b60001981146114af5760010190565b156114db57565b60405162461bcd60e51b815260206004820152600b60248201526a4e6f74206761746577617960a81b6044820152606490fd5b1561151557565b60405162461bcd60e51b81526020600482015260096024820152682737ba1030b236b4b760b91b6044820152606490fd5b1561154d57565b60405162461bcd60e51b815260206004820152601460248201527310da185a5b881b9bdd0818dbdb999a59dd5c995960621b6044820152606490fd5b67ffffffffffffffff81116102e15760051b60200190565b80518210156115b55760209160051b010190565b634e487b7160e01b600052603260045260246000fd5b156115d257565b60405162461bcd60e51b815260206004820152600d60248201526c125b9d985b1a59081a5b9c1d5d609a1b6044820152606490fd5b91908110156115b55760051b019056fea264697066735822122028b9d27567fa9a6d6089b4d8f13d494272cade61093e622a94e4a073aeeb74ef64736f6c634300081300330349c5d4e3ded2d9a9db300c6f34e5c15d0a0d229865b33fb9658483458fd5ee",
  "linkReferences": {},
  "deployedLinkReferences": {}
}