{
  "_format": "hh-sol-artifact-1",
  "contractName": "RentChainVesting",
  "sourceName": "contracts/RentChainVesting.sol",
  "abi": [
    {
      "inputs": [
        {
          "internalType": "address",
          "name": "_emergencySystem",
          "type": "address"
        }
      ],
      "stateMutability": "nonpayable",
      "type": "constructor"
    },
    {
      "anonymous": false,
      "inputs": [
        {
          "indexed": true,
          "internalType": "address",
          "name": "previousAdmin",
          "type": "address"
        },
        {
          "indexed": true,
          "internalType": "address",
          "name": "newAdmin",
          "type": "address"
        }
      ],
      "name": "AdminChanged",
      "type": "event"
    },
    {
      "anonymous": false,
      "inputs": [
        {
          "indexed": false,
          "internalType": "address",
          "name": "initializer",
          "type": "address"
        },
        {
          "indexed": false,
          "internalType": "uint256",
          "name": "version",
          "type": "uint256"
        }
      ],
      "name": "ContractInitialized",
      "type": "event"
    },
    {
      "anonymous": false,
      "inputs": [
        {
          "indexed": false,
          "internalType": "uint256",
          "name": "oldVersion",
          "type": "uint256"
        },
        {
          "indexed": false,
          "internalType": "uint256",
          "name": "newVersion",
          "type": "uint256"
        }
      ],
      "name": "ContractUpgraded",
      "type": "event"
    },
    {
      "anonymous": false,
      "inputs": [
        {
          "indexed": false,
          "internalType": "address",
          "name": "oldSystem",
          "type": "address"
        },
        {
          "indexed": false,
          "internalType": "address",
          "name": "newSystem",
          "type": "address"
        }
      ],
      "name": "EmergencySystemUpdated",
      "type": "event"
    },
    {
      "anonymous": false,
      "inputs": [
        {
          "indexed": true,
          "internalType": "uint256",
          "name": "scheduleId",
          "type": "uint256"
        },
        {
          "indexed": false,
          "internalType": "address",
          "name": "beneficiary",
          "type": "address"
        },
        {
          "indexed": false,
          "internalType": "uint256",
          "name": "amount",
          "type": "uint256"
        }
      ],
      "name": "TokensReleased",
      "type": "event"
    },
    {
      "anonymous": false,
      "inputs": [
        {
          "indexed": true,
          "internalType": "uint256",
          "name": "scheduleId",
          "type": "uint256"
        },
        {
          "indexed": false,
          "internalType": "uint256",
          "name": "percentage",
          "type": "uint256"
        },
        {
          "indexed": false,
          "internalType": "uint256",
          "name": "unlockTime",
          "type": "uint256"
        }
      ],
      "name": "VestingConditionAdded",
      "type": "event"
    },
    {
      "anonymous": false,
      "inputs": [
        {
          "indexed": true,
          "internalType": "uint256",
          "name": "scheduleId",
          "type": "uint256"
        },
        {
          "indexed": false,
          "internalType": "address",
          "name": "revokedBy",
          "type": "address"
        }
      ],
      "name": "VestingRevoked",
      "type": "event"
    },
    {
      "anonymous": false,
      "inputs": [
        {
          "indexed": true,
          "internalType": "uint256",
          "name": "scheduleId",
          "type": "uint256"
        },
        {
          "indexed": false,
          "internalType": "address",
          "name": "beneficiary",
          "type": "address"
        },
        {
          "indexed": false,
          "internalType": "address",
          "name": "token",
          "type": "address"
        },
        {
          "indexed": false,
          "internalType": "uint256",
          "name": "amount",
          "type": "uint256"
        }
      ],
      "name": "VestingScheduleCreated",
      "type": "event"
    },
    {
      "inputs": [],
      "name": "MAX_DURATION",
      "outputs": [
        {
          "internalType": "uint256",
          "name": "",
          "type": "uint256"
        }
      ],
      "stateMutability": "view",
      "type": "function"
    },
    {
      "inputs": [],
      "name": "MIN_DURATION",
      "outputs": [
        {
          "internalType": "uint256",
          "name": "",
          "type": "uint256"
        }
      ],
      "stateMutability": "view",
      "type": "function"
    },
    {
      "inputs": [
        {
          "internalType": "uint256",
          "name": "scheduleId",
          "type": "uint256"
        },
        {
          "internalType": "uint256",
          "name": "unlockPercentage",
          "type": "uint256"
        },
        {
          "internalType": "uint256",
          "name": "unlockTime",
          "type": "uint256"
        }
      ],
      "name": "addVestingCondition",
      "outputs": [],
      "stateMutability": "nonpayable",
      "type": "function"
    },
    {
      "inputs": [],
      "name": "admin",
      "outputs": [
        {
          "internalType": "address",
          "name": "",
          "type": "address"
        }
      ],
      "stateMutability": "view",
      "type": "function"
    },
    {
      "inputs": [
        {
          "internalType": "address[]",
          "name": "beneficiaries",
          "type": "address[]"
        },
        {
          "internalType": "address",
          "name": "token",
          "type": "address"
        },
        {
          "internalType": "uint256[]",
          "name": "amounts",
          "type": "uint256[]"
        },
        {
          "internalType": "uint256",
          "name": "startTime",
          "type": "uint256"
        },
        {
          "internalType": "uint256",
          "name": "duration",
          "type": "uint256"
        },
        {
          "internalType": "uint256",
          "name": "cliff",
          "type": "uint256"
        },
        {
          "internalType": "bool",
          "name": "revocable",
          "type": "bool"
        }
      ],
      "name": "batchCreateVestingSchedules",
      "outputs": [
        {
          "internalType": "uint256[]",
          "name": "",
          "type": "uint256[]"
        }
      ],
      "stateMutability": "nonpayable",
      "type": "function"
    },
    {
      "inputs": [
        {
          "internalType": "address",
          "name": "",
          "type": "address"
        },
        {
          "internalType": "uint256",
          "name": "",
          "type": "uint256"
        }
      ],
      "name": "beneficiarySchedules",
      "outputs": [
        {
          "internalType": "uint256",
          "name": "",
          "type": "uint256"
        }
      ],
      "stateMutability": "view",
      "type": "function"
    },
    {
      "inputs": [
        {
          "internalType": "uint256",
          "name": "scheduleId",
          "type": "uint256"
        }
      ],
      "name": "computeVestingProgress",
      "outputs": [
        {
          "internalType": "uint256",
          "name": "vestedPercentage",
          "type": "uint256"
        },
        {
          "internalType": "uint256",
          "name": "timeElapsed",
          "type": "uint256"
        },
        {
          "internalType": "uint256",
          "name": "timeRemaining",
          "type": "uint256"
        }
      ],
      "stateMutability": "view",
      "type": "function"
    },
    {
      "inputs": [
        {
          "internalType": "address",
          "name": "beneficiary",
          "type": "address"
        },
        {
          "internalType": "address",
          "name": "token",
          "type": "address"
        },
        {
          "internalType": "uint256",
          "name": "amount",
          "type": "uint256"
        },
        {
          "internalType": "uint256",
          "name": "startTime",
          "type": "uint256"
        },
        {
          "internalType": "uint256",
          "name": "duration",
          "type": "uint256"
        },
        {
          "internalType": "uint256",
          "name": "cliff",
          "type": "uint256"
        },
        {
          "internalType": "bool",
          "name": "revocable",
          "type": "bool"
        },
        {
          "components": [
            {
              "internalType": "uint256",
              "name": "unlockPercentage",
              "type": "uint256"
            },
            {
              "internalType": "uint256",
              "name": "unlockTime",
              "type": "uint256"
            },
            {
              "internalType": "bool",
              "name": "unlocked",
              "type": "bool"
            }
          ],
          "internalType": "struct RentChainVesting.VestingCondition[]",
          "name": "conditions",
          "type": "tuple[]"
        }
      ],
      "name": "createVestingSchedule",
      "outputs": [
        {
          "internalType": "uint256",
          "name": "",
          "type": "uint256"
        }
      ],
      "stateMutability": "nonpayable",
      "type": "function"
    },
    {
      "inputs": [
        {
          "internalType": "uint256",
          "name": "scheduleId",
          "type": "uint256"
        }
      ],
      "name": "emergencyRelease",
      "outputs": [],
      "stateMutability": "nonpayable",
      "type": "function"
    },
    {
      "inputs": [],
      "name": "emergencySystem",
      "outputs": [
        {
          "internalType": "contract RentChainEmergency",
          "name": "",
          "type": "address"
        }
      ],
      "stateMutability": "view",
      "type": "function"
    },
    {
      "inputs": [
        {
          "internalType": "address",
          "name": "beneficiary",
          "type": "address"
        }
      ],
      "name": "getBeneficiarySchedules",
      "outputs": [
        {
          "internalType": "uint256[]",
          "name": "",
          "type": "uint256[]"
        }
      ],
      "stateMutability": "view",
      "type": "function"
    },
    {
      "inputs": [],
      "name": "getContractInfo",
      "outputs": [
        {
          "internalType": "address",
          "name": "contractAdmin",
          "type": "address"
        },
        {
          "internalType": "address",
          "name": "emergencySystemAddress",
          "type": "address"
        },
        {
          "internalType": "uint256",
          "name": "contractVersion",
          "type": "uint256"
        },
        {
          "internalType": "bool",
          "name": "isInitialized",
          "type": "bool"
        },
        {
          "internalType": "bool",
          "name": "isPaused",
          "type": "bool"
        }
      ],
      "stateMutability": "view",
      "type": "function"
    },
    {
      "inputs": [],
      "name": "getPauseInfo",
      "outputs": [
        {
          "internalType": "bool",
          "name": "paused",
          "type": "bool"
        },
        {
          "internalType": "uint256",
          "name": "pauseStart",
          "type": "uint256"
        },
        {
          "internalType": "uint256",
          "name": "pauseEnd",
          "type": "uint256"
        },
        {
          "internalType": "string",
          "name": "reason",
          "type": "string"
        }
      ],
      "stateMutability": "view",
      "type": "function"
    },
    {
      "inputs": [
        {
          "internalType": "uint256",
          "name": "scheduleId",
          "type": "uint256"
        }
      ],
      "name": "getVestingConditions",
      "outputs": [
        {
          "internalType": "uint256[]",
          "name": "percentages",
          "type": "uint256[]"
        },
        {
          "internalType": "uint256[]",
          "name": "unlockTimes",
          "type": "uint256[]"
        },
        {
          "internalType": "bool[]",
          "name": "unlockedStatus",
          "type": "bool[]"
        }
      ],
      "stateMutability": "view",
      "type": "function"
    },
    {
      "inputs": [
        {
          "internalType": "uint256",
          "name": "scheduleId",
          "type": "uint256"
        }
      ],
      "name": "getVestingSchedule",
      "outputs": [
        {
          "internalType": "address",
          "name": "beneficiary",
          "type": "address"
        },
        {
          "internalType": "address",
          "name": "token",
          "type": "address"
        },
        {
          "internalType": "uint256",
          "name": "totalAmount",
          "type": "uint256"
        },
        {
          "internalType": "uint256",
          "name": "releasedAmount",
          "type": "uint256"
        },
        {
          "internalType": "uint256",
          "name": "startTime",
          "type": "uint256"
        },
        {
          "internalType": "uint256",
          "name": "duration",
          "type": "uint256"
        },
        {
          "internalType": "uint256",
          "name": "cliff",
          "type": "uint256"
        },
        {
          "internalType": "bool",
          "name": "revocable",
          "type": "bool"
        },
        {
          "internalType": "bool",
          "name": "revoked",
          "type": "bool"
        },
        {
          "internalType": "uint256",
          "name": "releasableAmount",
          "type": "uint256"
        }
      ],
      "stateMutability": "view",
      "type": "function"
    },
    {
      "inputs": [
        {
          "internalType": "address",
          "name": "token",
          "type": "address"
        }
      ],
      "name": "getVestingStats",
      "outputs": [
        {
          "internalType": "uint256",
          "name": "totalVestedAmount",
          "type": "uint256"
        },
        {
          "internalType": "uint256",
          "name": "totalReleasedAmount",
          "type": "uint256"
        },
        {
          "internalType": "uint256",
          "name": "activeSchedules",
          "type": "uint256"
        },
        {
          "internalType": "uint256",
          "name": "totalBeneficiaries",
          "type": "uint256"
        }
      ],
      "stateMutability": "view",
      "type": "function"
    },
    {
      "inputs": [],
      "name": "initialized",
      "outputs": [
        {
          "internalType": "bool",
          "name": "",
          "type": "bool"
        }
      ],
      "stateMutability": "view",
      "type": "function"
    },
    {
      "inputs": [],
      "name": "isSystemPaused",
      "outputs": [
        {
          "internalType": "bool",
          "name": "",
          "type": "bool"
        }
      ],
      "stateMutability": "view",
      "type": "function"
    },
    {
      "inputs": [],
      "name": "nextScheduleId",
      "outputs": [
        {
          "internalType": "uint256",
          "name": "",
          "type": "uint256"
        }
      ],
      "stateMutability": "view",
      "type": "function"
    },
    {
      "inputs": [],
      "name": "pauseContract",
      "outputs": [],
      "stateMutability": "nonpayable",
      "type": "function"
    },
    {
      "inputs": [
        {
          "internalType": "address",
          "name": "token",
          "type": "address"
        },
        {
          "internalType": "uint256",
          "name": "amount",
          "type": "uint256"
        },
        {
          "internalType": "address",
          "name": "recipient",
          "type": "address"
        }
      ],
      "name": "recoverStuckTokens",
      "outputs": [],
      "stateMutability": "nonpayable",
      "type": "function"
    },
    {
      "inputs": [
        {
          "internalType": "uint256",
          "name": "scheduleId",
          "type": "uint256"
        }
      ],
      "name": "release",
      "outputs": [],
      "stateMutability": "nonpayable",
      "type": "function"
    },
    {
      "inputs": [
        {
          "internalType": "uint256[]",
          "name": "scheduleIds",
          "type": "uint256[]"
        }
      ],
      "name": "releaseMultiple",
      "outputs": [],
      "stateMutability": "nonpayable",
      "type": "function"
    },
    {
      "inputs": [
        {
          "internalType": "address",
          "name": "token",
          "type": "address"
        },
        {
          "internalType": "uint256",
          "name": "amount",
          "type": "uint256"
        }
      ],
      "name": "requestEmergencyWithdrawal",
      "outputs": [
        {
          "internalType": "bytes32",
          "name": "",
          "type": "bytes32"
        }
      ],
      "stateMutability": "nonpayable",
      "type": "function"
    },
    {
      "inputs": [],
      "name": "resumeContract",
      "outputs": [],
      "stateMutability": "nonpayable",
      "type": "function"
    },
    {
      "inputs": [
        {
          "internalType": "uint256",
          "name": "scheduleId",
          "type": "uint256"
        }
      ],
      "name": "revoke",
      "outputs": [],
      "stateMutability": "nonpayable",
      "type": "function"
    },
    {
      "inputs": [
        {
          "internalType": "uint256",
          "name": "newVersion",
          "type": "uint256"
        }
      ],
      "name": "setVersion",
      "outputs": [],
      "stateMutability": "nonpayable",
      "type": "function"
    },
    {
      "inputs": [
        {
          "internalType": "address",
          "name": "newAdmin",
          "type": "address"
        }
      ],
      "name": "setVestingAdmin",
      "outputs": [],
      "stateMutability": "nonpayable",
      "type": "function"
    },
    {
      "inputs": [
        {
          "internalType": "address",
          "name": "",
          "type": "address"
        }
      ],
      "name": "totalReleased",
      "outputs": [
        {
          "internalType": "uint256",
          "name": "",
          "type": "uint256"
        }
      ],
      "stateMutability": "view",
      "type": "function"
    },
    {
      "inputs": [
        {
          "internalType": "address",
          "name": "",
          "type": "address"
        }
      ],
      "name": "totalVested",
      "outputs": [
        {
          "internalType": "uint256",
          "name": "",
          "type": "uint256"
        }
      ],
      "stateMutability": "view",
      "type": "function"
    },
    {
      "inputs": [
        {
          "internalType": "address",
          "name": "newAdmin",
          "type": "address"
        }
      ],
      "name": "transferAdmin",
      "outputs": [],
      "stateMutability": "nonpayable",
      "type": "function"
    },
    {
      "inputs": [
        {
          "internalType": "address",
          "name": "newEmergencySystem",
          "type": "address"
        }
      ],
      "name": "updateEmergencySystem",
      "outputs": [],
      "stateMutability": "nonpayable",
      "type": "function"
    },
    {
      "inputs": [],
      "name": "version",
      "outputs": [
        {
          "internalType": "uint256",
          "name": "",
          "type": "uint256"
        }
      ],
      "stateMutability": "view",
      "type": "function"
    },
    {
      "inputs": [],
      "name": "vestingAdmin",
      "outputs": [
        {
          "internalType": "address",
          "name": "",
          "type": "address"
        }
      ],
      "stateMutability": "view",
      "type": "function"
    },
    {
      "inputs": [
        {
          "internalType": "uint256",
          "name": "",
          "type": "uint256"
        },
        {
          "internalType": "uint256",
          "name": "",
          "type": "uint256"
        }
      ],
      "name": "vestingConditions",
      "outputs": [
        {
          "internalType": "uint256",
          "name": "unlockPercentage",
          "type": "uint256"
        },
        {
          "internalType": "uint256",
          "name": "unlockTime",
          "type": "uint256"
        },
        {
          "internalType": "bool",
          "name": "unlocked",
          "type": "bool"
        }
      ],
      "stateMutability": "view",
      "type": "function"
    },
    {
      "inputs": [
        {
          "internalType": "uint256",
          "name": "",
          "type": "uint256"
        }
      ],
      "name": "vestingSchedules",
      "outputs": [
        {
          "internalType": "address",
          "name": "beneficiary",
          "type": "address"
        },
        {
          "internalType": "address",
          "name": "token",
          "type": "address"
        },
        {
          "internalType": "uint256",
          "name": "totalAmount",
          "type": "uint256"
        },
        {
          "internalType": "uint256",
          "name": "releasedAmount",
          "type": "uint256"
        },
        {
          "internalType": "uint256",
          "name": "startTime",
          "type": "uint256"
        },
        {
          "internalType": "uint256",
          "name": "duration",
          "type": "uint256"
        },
        {
          "internalType": "uint256",
          "name": "cliff",
          "type": "uint256"
        },
        {
          "internalType": "bool",
          "name": "revocable",
          "type": "bool"
        },
        {
          "internalType": "bool",
          "name": "revoked",
          "type": "bool"
        },
        {
          "internalType": "uint256",
          "name": "createdAt",
          "type": "uint256"
        }
      ],
      "stateMutability": "view",
      "type": "function"
    },
    {
      "stateMutability": "payable",
      "type": "receive"
    }
  ],
  "bytecode": "0x60803461008a57601f6129dd38819003918201601f19168301916001600160401b0383118484101761008f5780849260209460405283398101031261008a57516001600160a01b0381169081900361008a5760018060a01b03199033826000541617600055816002541617600255600180553390600854161760085560405161293790816100a68239f35b600080fd5b634e487b7160e01b600052604160045260246000fdfe608080604052600436101561006b575b50361561001b57600080fd5b60405162461bcd60e51b815260206004820152602260248201527f446972656374206574686572207472616e7366657273206e6f7420616c6c6f77604482015261195960f21b6064820152608490fd5b600090813560e01c90816301ab45d91461195c575080630529b3971461181e5780630f038d4114611800578063158ef93e146117db57806320c5429b146114ba578063213ae32414611378578063224a63be1461131857806326d44685146112ef57806337bdc99b146110415780633981afc114610fb857806339c28c6214610e3e5780633bea3c8d14610df1578063408def1e14610d8c578063439766ce14610ce957806345282a9214610c2357806346ca424114610bcd57806354fd4d5014610baf5780635d65ad6714610b025780636633fc7a146108b05780636d3cbe211461083c57806374fc18321461070b57806375829def1461068d5780637691c4ac146106685780637cc1f8671461060f5780638e9463f6146105e65780638fdd511e1461055f5780639726f6fd1461045e578063b13e4a9d14610425578063b1724b4614610406578063b2726705146103af578063b6a6d17714610391578063beb8f88314610312578063c4bc5da514610294578063d79779b21461025b578063f851a440146102345763fa69364e0361000f573461023157602036600319011261023157606061021e60043561284d565b9060405192835260208301526040820152f35b80fd5b5034610231578060031936011261023157546040516001600160a01b039091168152602090f35b5034610231576020366003190112610231576020906040906001600160a01b03610283611d5f565b168152600783522054604051908152f35b50346102315780600319360112610231578060018060a01b036102c48183541633146102be611ee9565b90611f0e565b60025416803b1561030f5781809160046040518094819363157c51d360e01b83525af18015610304576102f45750f35b6102fd90611e68565b6102315780f35b6040513d84823e3d90fd5b50fd5b5034610231576020366003190112610231576040600435918281526003602052209061038d60018060a01b0392838154169360018201541692600282015494600383015492600481015460058201549061037560076006850154940154956126d6565b95604051998a9960ff808960081c169816968b611dfa565b0390f35b5034610231578060031936011261023157602060405162278d008152f35b5034610231576020366003190112610231576080906001600160a01b036103d4611d5f565b168152600660205260408082205491600760205220546009549060405192835260208301528060408301526060820152f35b50346102315780600319360112610231576020604051630784ce008152f35b5034610231576020366003190112610231576020906040906001600160a01b0361044d611d5f565b168152600683522054604051908152f35b50346102315761010036600319011261023157610479611d5f565b90610482611d75565b61048a611deb565b60e435916001600160401b03831161055b573660238401121561055b578260040135946104b686611eb7565b936104c46040519586611e96565b8685526020958686019060246060809a028401019236841161055757602401915b83831061050d5788610505898960a4356084356064356044358d8d612139565b604051908152f35b8983360312610557576040519061052382611e4d565b83358252898401358a830152604084013590811515820361055257828b9260408e9501528152019201916104e5565b600080fd5b5080fd5b8380fd5b503461023157602080600319360112610557576001600160a01b03610582611d5f565b168252600581526040822091604051809384918482549182815201918452848420935b858282106105d0575050506105bc92500383611e96565b61038d604051928284938452830190611cf9565b85548452600195860195889550930192016105a5565b50346102315780600319360112610231576008546040516001600160a01b039091168152602090f35b50346102315780600319360112610231575460025460015460a0926001600160a01b039283169160ff9190610642611ff7565b93604051958316865260208601526040850152841c161515606083015215156080820152f35b50346102315780600319360112610231576020610683611ff7565b6040519015158152f35b5034610231576020366003190112610231576106a7611d5f565b8154906001600160a01b03808316916106c96106c1611ee9565b843314611f0e565b6106d2816120bb565b1680926001600160601b0360a01b161783557f7e644d79422f17c01e4894b5f4f588d331ebfa28653d42ae832dc59e38c9798f8380a380f35b503461023157606036600319011261023157610725611d5f565b602435906001600160a01b039060443582811691908281036105525783610754879586541633146102be611ee9565b61076461075f611ff7565b61207b565b8216610797575050818093819282821561078e575bf1156107825780f35b604051903d90823e3d90fd5b506108fc610779565b60405163a9059cbb60e01b602082019081526001600160a01b039290921660248201526044808201969096529485526108349484935083906107da606482611e96565b51925af13d15610837573d6107ee81611ece565b906107fc6040519283611e96565b81528360203d92013e5b6040519061081382611e7b565b600f82526e151c985b9cd9995c8819985a5b1959608a1b6020830152611f0e565b80f35b610806565b503461023157602036600319011261023157604090600435815260036020522060018060a01b0361038d818354169160018401541691600284015493600381015491600482015460058301546006840154916008600786015495015495604051998a9960ff808960081c169816968b611dfa565b50346102315760e0366003190112610231576004356001600160401b038111610557576108e1903690600401611cc9565b906108ea611d75565b6044356001600160401b038111610a4b57610909903690600401611cc9565b94610912611deb565b9560018060a01b036008541633148015610aef575b610930906120f9565b808603610aba576109408661281b565b9582835b838110610a9557506040516323b872dd60e01b81523360048201523060248201526044810191909152602081606481876001600160a01b038b165af18015610a8a578490610a4f575b610997915061254c565b825b8181106109b6576040516020808252819061038d9082018b611cf9565b6109c1818389612686565b35906001600160a01b0382168203610a4b576109de818588612686565b35916040518060208101106001600160401b03602083011117610a35578b610a2092610a30956020840160405289845260a43591608435918d60643592612139565b610a2a828b612599565b5261258a565b610999565b634e487b7160e01b600052604160045260246000fd5b8480fd5b506020813d602011610a82575b81610a6960209383611e96565b8101031261055b57610a7d61099791611f3e565b61098d565b3d9150610a5c565b6040513d86823e3d90fd5b90610aaf610ab591610aa884878a612686565b3590612058565b9161258a565b610944565b60405162461bcd60e51b815260206004820152600d60248201526c125b9d985b1a59081a5b9c1d5d609a1b6044820152606490fd5b5081546001600160a01b03163314610927565b503461023157604036600319011261023157806020610b5d610b22611d5f565b600254604051635d65ad6760e01b81526001600160a01b03928316600482015260248035908201529485939190921691839182906044820190565b03925af1908115610304578291610b7a575b602082604051908152f35b90506020813d8211610ba7575b81610b9460209383611e96565b8101031261055757602091505138610b6f565b3d9150610b87565b50346102315780600319360112610231576020600154604051908152f35b503461023157604036600319011261023157610be7611d5f565b6001600160a01b0316815260056020526040812080546024359290831015610231576020610c158484611dd3565b90546040519160031b1c8152f35b5034610231578060031936011261023157600254604051633e8dc9cf60e21b815291908190839060049082906001600160a01b03165afa8015610cdc57818093818093610ca0575b505090610c7b61038d9285612058565b6040519485941515855260208501526040840152608060608401526080830190611dae565b90915061038d9450610c7b9350610cc992503d8091833e610cc18183611e96565b810190611f4b565b5094509694915094915093949192610c6b565b50604051903d90823e3d90fd5b50346102315780600319360112610231578060018060a01b03610d138183541633146102be611ee9565b60025416803b1561030f57819060e4604051809481936334cc128960e21b835260016004840152600160248401526001604484015262278d00606484015260a06084840152600b60a48401526a41646d696e20706175736560a81b60c48401525af1801561030457610d83575080f35b61083490611e68565b5034610231576020366003190112610231577f730abf329076f769aacddade69fbe7ca672a3c95fc1b7728ecf7b8f8cb705ed06040600435610ddb60018060a01b0385541633146102be611ee9565b600154908060015582519182526020820152a180f35b503461023157602036600319011261023157610e0b611d5f565b81546001600160a01b039190610e2790831633146102be611ee9565b166001600160601b0360a01b600854161760085580f35b5034610231576020806003193601126105575760085460043591906001600160a01b0390811633148015610fac575b610e76906120f9565b610e8161075f611ff7565b8284526003825260408420906002820154916003810192610ea3845482612696565b9355610f0284848460018501818154168b526007845260408b20610ec8848254612058565b90555416858554168a60405180968195829463a9059cbb60e01b84526004840160209093929193604081019460018060a01b031681520152565b03925af1948515610fa1578795610f56575b5050610f2e6000805160206128e28339815191529461254c565b5460408051929091166001600160a01b03168252602082019290925290819081015b0390a280f35b90809550813d8311610f9a575b610f6d8183611e96565b81010312610f9657610f2e610f906000805160206128e283398151915295611f3e565b94610f14565b8580fd5b503d610f63565b6040513d89823e3d90fd5b50835481163314610e6d565b5034610231576020366003190112610231577f62fb284f5d1a9d326f25d6900267a8cb39113f8484b351a73c1ada4014c668646040610ff5611d5f565b83546001600160a01b039061101090821633146102be611ee9565b611019826120bb565b80600254921690816001600160601b0360a01b8416176002558351921682526020820152a180f35b50346102315760208060031936011261055757600254604051633e8dc9cf60e21b815260048035936001600160a01b03939092918691839190829087165afa80156111de576110a19186916112ce575b5061109a612611565b9015611f0e565b6110b160ff855460a01c1661263a565b8284526003815260408420918083541633036112975760ff600784015460081c166112605760048301544210611225576110ea846126d6565b9283156111e95780600360019201611103868254612058565b905501818154168652600783526040862061111f858254612058565b90555460405163a9059cbb60e01b815233600482015260248101859052918391839160449183918a91165af19182156111de57859261118f575b50506000805160206128e283398151915291611177610f509261254c565b60408051338152602081019290925290918291820190565b90809250813d83116111d7575b6111a68183611e96565b8101031261055b576000805160206128e2833981519152916111776111cd610f5093611f3e565b9250819350611159565b503d61119c565b6040513d87823e3d90fd5b60405162461bcd60e51b81526004810184905260146024820152734e6f20746f6b656e7320746f2072656c6561736560601b6044820152606490fd5b60405162461bcd60e51b815260048101839052601360248201527215995cdd1a5b99c81b9bdd081cdd185c9d1959606a1b6044820152606490fd5b60405162461bcd60e51b815260048101839052600f60248201526e15995cdd1a5b99c81c995d9bdad959608a1b6044820152606490fd5b60405162461bcd60e51b815260048101839052600f60248201526e4e6f742062656e656669636961727960881b6044820152606490fd5b6112e291503d8088833e610cc18183611e96565b5050505050505038611091565b50346102315780600319360112610231576002546040516001600160a01b039091168152602090f35b5034610231576040366003190112610231576024359060043581526004602052604081209081548310156102315760606113528484611d2d565b5080549060ff600260018301549201541690604051928352602083015215156040820152f35b5034610231576020806003193601126105575790600435815260048252604081208054916113a58361281b565b926113af8161281b565b6113b882611eb7565b916113c66040519384611e96565b8083526113d281611eb7565b8388019590601f1901368737845b82811061144e5750505094806114146114079760405198899860608a5260608a0190611cf9565b90888203848a0152611cf9565b92868403604088015251928381520193925b82811061143557505050500390f35b8351151585528695509381019392810192600101611426565b806114626114af92849b9897999a9b611d2d565b505461146e828c612599565b52600161147b8285611d2d565b5001546114888287612599565b5260ff60026114978386611d2d565b500154166114a5828a612599565b901515905261258a565b9796959394976113e0565b50346102315760208060031936011261055757600854600435916001600160a01b03918216331480156117cf575b6114f1906120f9565b828452600381526040842091600783019283549360ff85161561179a5760ff8560081c1661176357611522866126d6565b60028301549160038401906101006115458461154085548098612696565b612696565b9861ff00191617905581611663575b5050508361158c575b50507fa434ad0e0bfc9ff6db2dad7866c6821e3c72611af76e11bcc7d6a0ba0d1923929150604051338152a280f35b6001015460085460405163a9059cbb60e01b81529083166001600160a01b03166004820152602481019490945282918491168187816044810103925af1918215610a8a578492611609575b506116027fa434ad0e0bfc9ff6db2dad7866c6821e3c72611af76e11bcc7d6a0ba0d1923929261254c565b388061155d565b91508082813d831161165c575b6116208183611e96565b8101031261055b576116026116557fa434ad0e0bfc9ff6db2dad7866c6821e3c72611af76e11bcc7d6a0ba0d19239293611f3e565b92506115d7565b503d611616565b611670826116b494612058565b90556001830154835460405163a9059cbb60e01b81529086166001600160a01b031660048201526024810183905292869184919087169082908c9082906044820190565b03925af180156117585787928991611706575b50906116e16000805160206128e28339815191529261254c565b8354604080519187166001600160a01b031682526020820192909252a2388080611554565b80929350868092503d8311611751575b6117208183611e96565b8101031261174d5786916116e16117456000805160206128e283398151915293611f3e565b9192506116c7565b8780fd5b503d611716565b6040513d8a823e3d90fd5b60405162461bcd60e51b815260048101859052600f60248201526e105b1c9958591e481c995d9bdad959608a1b6044820152606490fd5b60405162461bcd60e51b815260048101859052600d60248201526c4e6f74207265766f6361626c6560981b6044820152606490fd5b508354821633146114e8565b503461023157806003193601126102315760ff6020915460a01c166040519015158152f35b50346102315780600319360112610231576020600954604051908152f35b50346102315760603660031901126102315760043560243560443561185860018060a01b038060085416331490811561194f575b506120f9565b81151580611943575b1561190957428111156118ce577f1f20e3a1c889dc8faff68e05b7b857ead59e9a3b4bea87dd03ad0c3f76766f689160409184865260046020526118c08387208451906118ad82611e4d565b84825283602083015288868301526125ad565b82519182526020820152a280f35b60405162461bcd60e51b8152602060048201526013602482015272496e76616c696420756e6c6f636b2074696d6560681b6044820152606490fd5b60405162461bcd60e51b8152602060048201526012602482015271496e76616c69642070657263656e7461676560701b6044820152606490fd5b50612710821115611861565b9050855416331438611852565b905034610557576020366003190112610557576004356001600160401b038111611cc55761198e903690600401611cc9565b9091838160048160018060a01b0360025416633e8dc9cf60e21b82525afa8015610a8a576119c5918591611cb1575061109a612611565b8254906119d860ff60a093841c1661263a565b835b8181106119e5578480f35b6119f0818386612686565b358552600360205260408520546001600160a01b03163314611a1b575b611a169061258a565b6119da565b611a26818386612686565b600254604051633e8dc9cf60e21b815291359291908790829060049082906001600160a01b03165afa8015610fa157611a68918891611c9d575061109a612611565b611a7760ff8754861c1661263a565b818652600360205260408620913360018060a01b0384541603611c6657600760ff8185015460081c16611c2f5760048401544210611bf457611ab8826126d6565b938415611bb85780600360019201611ad1878254612058565b9055019060018060a01b03825416895260205260408820611af3858254612058565b90555460405163a9059cbb60e01b8152336004820152602481018590529390602090859060449082908c906001600160a01b03165af1938415611758578894611b61575b50611b576000805160206128e283398151915291611177611a169661254c565b0390a29050611a0d565b93506020843d602011611bb0575b81611b7c60209383611e96565b8101031261174d57611b576000805160206128e283398151915291611177611ba6611a1697611f3e565b9650509150611b37565b3d9150611b6f565b60405162461bcd60e51b81526020600482015260146024820152734e6f20746f6b656e7320746f2072656c6561736560601b6044820152606490fd5b60405162461bcd60e51b815260206004820152601360248201527215995cdd1a5b99c81b9bdd081cdd185c9d1959606a1b6044820152606490fd5b60405162461bcd60e51b815260206004820152600f60248201526e15995cdd1a5b99c81c995d9bdad959608a1b6044820152606490fd5b60405162461bcd60e51b815260206004820152600f60248201526e4e6f742062656e656669636961727960881b6044820152606490fd5b6112e291503d808a833e610cc18183611e96565b6112e291503d8087833e610cc18183611e96565b8280fd5b9181601f84011215610552578235916001600160401b038311610552576020808501948460051b01011161055257565b90815180825260208080930193019160005b828110611d19575050505090565b835185529381019392810192600101611d0b565b8054821015611d49576000526003602060002091020190600090565b634e487b7160e01b600052603260045260246000fd5b600435906001600160a01b038216820361055257565b602435906001600160a01b038216820361055257565b60005b838110611d9e5750506000910152565b8181015183820152602001611d8e565b90602091611dc781518092818552858086019101611d8b565b601f01601f1916010190565b8054821015611d495760005260206000200190600090565b60c43590811515820361055257565b969390926101209895929b9a99969361014089019c60018060a01b038092168a5216602089015260408801526060870152608086015260a085015260c0840152151560e083015215156101008201520152565b606081019081106001600160401b03821117610a3557604052565b6001600160401b038111610a3557604052565b604081019081106001600160401b03821117610a3557604052565b90601f801991011681019081106001600160401b03821117610a3557604052565b6001600160401b038111610a355760051b60200190565b6001600160401b038111610a3557601f01601f191660200190565b60405190611ef682611e7b565b60098252682737ba1030b236b4b760b91b6020830152565b15611f165750565b60405162461bcd60e51b815260206004820152908190611f3a906024830190611dae565b0390fd5b5190811515820361055257565b91906101008382031261055257611f6183611f3e565b92611f6e60208201611f3e565b92611f7b60408301611f3e565b92611f8860608401611f3e565b9260808101519260a08201519260c08301516001600160401b0381116105525783019080601f8301121561055257815191611fc283611ece565b91611fd06040519384611e96565b838352602084830101116105525760e092611ff19160208085019101611d8b565b92015190565b600254604051633e8dc9cf60e21b815290600090829060049082906001600160a01b03165afa90811561204c5760009161202f575090565b612042913d8091833e610cc18183611e96565b5050505050505090565b6040513d6000823e3d90fd5b9190820180921161206557565b634e487b7160e01b600052601160045260246000fd5b1561208257565b60405162461bcd60e51b815260206004820152601160248201527014de5cdd195b481b9bdd081c185d5cd959607a1b6044820152606490fd5b6040516120f7916120cb82611e7b565b600f82526e496e76616c6964206164647265737360881b60208301526001600160a01b03161515611f0e565b565b1561210057565b60405162461bcd60e51b81526020600482015260116024820152702737ba103b32b9ba34b7339030b236b4b760791b6044820152606490fd5b9497969592909593919360018060a01b039081600854163314801561253f575b612162906120f9565b8187169081156125045786156124ce5762278d00851015806124c0575b1561248857848b1161244a57604080516323b872dd60e01b8152336004820152306024820152604481018990529b9096600096858c1696929060208f6064818c8c5af19e8f1561244057899f6123fc575b506121de6121e89e9f61254c565b6009549d8e61258a565b60095589519361014085018581106001600160401b038211176123e857928f939286928c8f8f8d8f918e60089c9a8252895260208901928352808901938452606089019480865260808a0196875260a08a0197885260c08a0198895260e08a019a15158b526101206101008b019a828c52019b428d5281526003602052209b51166001600160601b0360a01b90818d5416178c5560019e8f8d01925116908254161790555160028a01555160038901555160048801555160058701555160068601556122c76007860192511515839060ff801983541691151516179055565b51815461ff001916901515841b61ff0016179055519101558285815b6123ac575b50505083526005602052838320805491600160401b83101561239857938998969361234084889594612392987ff9e2388582685f398e72b6ab1baa838d419fb6c68bf9ac4cb583adbacffd2b779c9a96018155611dd3565b81549060031b908c821b91600019901b19161790558152600660205220612368838254612058565b9055516001600160a01b039384168152939092166020840152604083019190915281906060820190565b0390a290565b634e487b7160e01b85526041600452602485fd5b82518110156123e3576123dd908c885260046020526123d88989206123d18387612599565b51906125ad565b61258a565b816122e3565b6122e8565b634e487b7160e01b8b52604160045260248bfd5b9e5060208f813d8311612439575b6124148183611e96565b81010312612435576121de6121e89e9f61242d90611f3e565b9f9e506121d0565b8880fd5b503d61240a565b8a513d8b823e3d90fd5b60405162461bcd60e51b815260206004820152601660248201527521b634b3331032bc31b2b2b23990323ab930ba34b7b760511b6044820152606490fd5b60405162461bcd60e51b815260206004820152601060248201526f24b73b30b634b210323ab930ba34b7b760811b6044820152606490fd5b50630784ce0085111561217f565b60405162461bcd60e51b815260206004820152600e60248201526d125b9d985b1a5908185b5bdd5b9d60921b6044820152606490fd5b60405162461bcd60e51b8152602060048201526013602482015272496e76616c69642062656e656669636961727960681b6044820152606490fd5b5060005482163314612159565b1561255357565b60405162461bcd60e51b815260206004820152600f60248201526e151c985b9cd9995c8819985a5b1959608a1b6044820152606490fd5b60001981146120655760010190565b8051821015611d495760209160051b010190565b8054600160401b811015610a35576125ca91600182018155611d2d565b6125fb5760026040836120f794518455602081015160018501550151151591019060ff801983541691151516179055565b634e487b7160e01b600052600060045260246000fd5b6040519061261e82611e7b565b600d82526c14de5cdd195b481c185d5cd959609a1b6020830152565b1561264157565b60405162461bcd60e51b815260206004820152601860248201527f436f6e7472616374206e6f7420696e697469616c697a656400000000000000006044820152606490fd5b9190811015611d495760051b0190565b9190820391821161206557565b8181029291811591840414171561206557565b81156126c0570490565b634e487b7160e01b600052601260045260246000fd5b600081815260036020928184526040808420936004850154956126fd600687015488612058565b42106128115783825260048152828220829483948254955b86811061279057505050505050508061278257506005820154926127398482612058565b421061275657506127539250600282015491015490612696565b90565b6127539361277461276a6127799342612696565b60028601546126a3565b6126b6565b91015490612696565b916127539350015490612696565b61279a8185611d2d565b5060ff6002809201541615806127f9575b6127bf575b506127ba9061258a565b612715565b6127ba91986127106127eb6127f293878b528d8a52868b2001546127e38d8a611d2d565b5054906126a3565b0490612058565b97906127b0565b5060016128068387611d2d565b5001544210156127ab565b5094505050505090565b9061282582611eb7565b6128326040519182611e96565b8281528092612843601f1991611eb7565b0190602036910137565b9060009182526003602052604082209060048201548042106128d6576128739042612696565b926003830154612710908181029181830414901517156128c257600561289f86926002870154906126b6565b940154808210156128ba576128b49250612696565b91929190565b505091929190565b634e487b7160e01b82526011600452602482fd5b50600590910154829156fea6c812047c4dc10f52f9e7943b1b3dfafae864d5e0d4ded081bbbde69dd6ff0da26469706673582212209822a3b6be15100b92b0d2405c67df33f038796518763c8301ed469f3e3a9b3864736f6c63430008130033",
  "linkReferences": {},
  "deployedLinkReferences": {}
}