{
  "_format": "hh-sol-artifact-1",
  "contractName": "RentChainGasStation",
  "sourceName": "contracts/RentChainGasStation.sol",
  "abi": [
    {
      "inputs": [
        {
          "internalType": "address",
          "name": "_emergencySystem",
          "type": "address"
        },
        {
          "internalType": "address",
          "name": "_gasToken",
          "type": "address"
        }
      ],
      "stateMutability": "nonpayable",
      "type": "constructor"
    },
    {
      "anonymous": false,
      "inputs": [
        {
          "indexed": true,
          "internalType": "address",
          "name": "previousAdmin",
          "type": "address"
        },
        {
          "indexed": true,
          "internalType": "address",
          "name": "newAdmin",
          "type": "address"
        }
      ],
      "name": "AdminChanged",
      "type": "event"
    },
    {
      "anonymous": false,
      "inputs": [
        {
          "indexed": false,
          "internalType": "address",
          "name": "initializer",
          "type": "address"
        },
        {
          "indexed": false,
          "internalType": "uint256",
          "name": "version",
          "type": "uint256"
        }
      ],
      "name": "ContractInitialized",
      "type": "event"
    },
    {
      "anonymous": false,
      "inputs": [
        {
          "indexed": false,
          "internalType": "uint256",
          "name": "oldVersion",
          "type": "uint256"
        },
        {
          "indexed": false,
          "internalType": "uint256",
          "name": "newVersion",
          "type": "uint256"
        }
      ],
      "name": "ContractUpgraded",
      "type": "event"
    },
    {
      "anonymous": false,
      "inputs": [
        {
          "indexed": false,
          "internalType": "address",
          "name": "oldSystem",
          "type": "address"
        },
        {
          "indexed": false,
          "internalType": "address",
          "name": "newSystem",
          "type": "address"
        }
      ],
      "name": "EmergencySystemUpdated",
      "type": "event"
    },
    {
      "anonymous": false,
      "inputs": [
        {
          "indexed": false,
          "internalType": "uint256",
          "name": "newGasPrice",
          "type": "uint256"
        }
      ],
      "name": "GasPriceUpdated",
      "type": "event"
    },
    {
      "anonymous": false,
      "inputs": [
        {
          "indexed": true,
          "internalType": "address",
          "name": "sponsor",
          "type": "address"
        },
        {
          "indexed": true,
          "internalType": "address",
          "name": "user",
          "type": "address"
        },
        {
          "indexed": false,
          "internalType": "uint256",
          "name": "amount",
          "type": "uint256"
        }
      ],
      "name": "GasSponsored",
      "type": "event"
    },
    {
      "anonymous": false,
      "inputs": [
        {
          "indexed": true,
          "internalType": "address",
          "name": "sponsor",
          "type": "address"
        },
        {
          "indexed": false,
          "internalType": "uint256",
          "name": "amount",
          "type": "uint256"
        },
        {
          "indexed": false,
          "internalType": "uint256",
          "name": "maxPerUser",
          "type": "uint256"
        }
      ],
      "name": "SponsorshipCreated",
      "type": "event"
    },
    {
      "anonymous": false,
      "inputs": [
        {
          "indexed": true,
          "internalType": "address",
          "name": "sponsor",
          "type": "address"
        },
        {
          "indexed": false,
          "internalType": "uint256",
          "name": "additionalAmount",
          "type": "uint256"
        }
      ],
      "name": "SponsorshipToppedUp",
      "type": "event"
    },
    {
      "inputs": [],
      "name": "admin",
      "outputs": [
        {
          "internalType": "address",
          "name": "",
          "type": "address"
        }
      ],
      "stateMutability": "view",
      "type": "function"
    },
    {
      "inputs": [],
      "name": "baseGasPrice",
      "outputs": [
        {
          "internalType": "uint256",
          "name": "",
          "type": "uint256"
        }
      ],
      "stateMutability": "view",
      "type": "function"
    },
    {
      "inputs": [
        {
          "internalType": "address[]",
          "name": "users",
          "type": "address[]"
        },
        {
          "internalType": "uint256[]",
          "name": "amounts",
          "type": "uint256[]"
        }
      ],
      "name": "batchSponsorGas",
      "outputs": [],
      "stateMutability": "nonpayable",
      "type": "function"
    },
    {
      "inputs": [
        {
          "internalType": "uint256",
          "name": "totalAmount",
          "type": "uint256"
        },
        {
          "internalType": "uint256",
          "name": "_maxPerUser",
          "type": "uint256"
        }
      ],
      "name": "createSponsorship",
      "outputs": [],
      "stateMutability": "nonpayable",
      "type": "function"
    },
    {
      "inputs": [],
      "name": "deactivateSponsorship",
      "outputs": [],
      "stateMutability": "nonpayable",
      "type": "function"
    },
    {
      "inputs": [
        {
          "internalType": "address",
          "name": "user",
          "type": "address"
        },
        {
          "internalType": "uint256",
          "name": "amount",
          "type": "uint256"
        }
      ],
      "name": "emergencyGasRefund",
      "outputs": [],
      "stateMutability": "nonpayable",
      "type": "function"
    },
    {
      "inputs": [],
      "name": "emergencySystem",
      "outputs": [
        {
          "internalType": "contract RentChainEmergency",
          "name": "",
          "type": "address"
        }
      ],
      "stateMutability": "view",
      "type": "function"
    },
    {
      "inputs": [
        {
          "internalType": "uint256",
          "name": "gasAmount",
          "type": "uint256"
        }
      ],
      "name": "estimateGasCost",
      "outputs": [
        {
          "internalType": "uint256",
          "name": "cost",
          "type": "uint256"
        }
      ],
      "stateMutability": "view",
      "type": "function"
    },
    {
      "inputs": [],
      "name": "gasToken",
      "outputs": [
        {
          "internalType": "address",
          "name": "",
          "type": "address"
        }
      ],
      "stateMutability": "view",
      "type": "function"
    },
    {
      "inputs": [],
      "name": "getContractInfo",
      "outputs": [
        {
          "internalType": "address",
          "name": "contractAdmin",
          "type": "address"
        },
        {
          "internalType": "address",
          "name": "emergencySystemAddress",
          "type": "address"
        },
        {
          "internalType": "uint256",
          "name": "contractVersion",
          "type": "uint256"
        },
        {
          "internalType": "bool",
          "name": "isInitialized",
          "type": "bool"
        },
        {
          "internalType": "bool",
          "name": "isPaused",
          "type": "bool"
        }
      ],
      "stateMutability": "view",
      "type": "function"
    },
    {
      "inputs": [],
      "name": "getPauseInfo",
      "outputs": [
        {
          "internalType": "bool",
          "name": "paused",
          "type": "bool"
        },
        {
          "internalType": "uint256",
          "name": "pauseStart",
          "type": "uint256"
        },
        {
          "internalType": "uint256",
          "name": "pauseEnd",
          "type": "uint256"
        },
        {
          "internalType": "string",
          "name": "reason",
          "type": "string"
        }
      ],
      "stateMutability": "view",
      "type": "function"
    },
    {
      "inputs": [],
      "name": "getPlatformGasStats",
      "outputs": [
        {
          "internalType": "uint256",
          "name": "totalSponsoredGas",
          "type": "uint256"
        },
        {
          "internalType": "uint256",
          "name": "activeSponsorships",
          "type": "uint256"
        },
        {
          "internalType": "uint256",
          "name": "totalUsersSponsored",
          "type": "uint256"
        },
        {
          "internalType": "uint256",
          "name": "currentBaseGasPrice",
          "type": "uint256"
        }
      ],
      "stateMutability": "view",
      "type": "function"
    },
    {
      "inputs": [
        {
          "internalType": "address",
          "name": "sponsor",
          "type": "address"
        }
      ],
      "name": "getSponsorshipStats",
      "outputs": [
        {
          "internalType": "uint256",
          "name": "totalSponsored",
          "type": "uint256"
        },
        {
          "internalType": "uint256",
          "name": "remainingBalance",
          "type": "uint256"
        },
        {
          "internalType": "uint256",
          "name": "maxPerUser",
          "type": "uint256"
        },
        {
          "internalType": "uint256",
          "name": "usersSponsored",
          "type": "uint256"
        },
        {
          "internalType": "bool",
          "name": "active",
          "type": "bool"
        }
      ],
      "stateMutability": "view",
      "type": "function"
    },
    {
      "inputs": [
        {
          "internalType": "address",
          "name": "user",
          "type": "address"
        }
      ],
      "name": "getUserGasStats",
      "outputs": [
        {
          "internalType": "uint256",
          "name": "totalUsed",
          "type": "uint256"
        },
        {
          "internalType": "uint256",
          "name": "lastUsed",
          "type": "uint256"
        },
        {
          "internalType": "uint256",
          "name": "sponsoredCount",
          "type": "uint256"
        },
        {
          "internalType": "uint256",
          "name": "eligibleAmount",
          "type": "uint256"
        }
      ],
      "stateMutability": "view",
      "type": "function"
    },
    {
      "inputs": [],
      "name": "initialized",
      "outputs": [
        {
          "internalType": "bool",
          "name": "",
          "type": "bool"
        }
      ],
      "stateMutability": "view",
      "type": "function"
    },
    {
      "inputs": [],
      "name": "isSystemPaused",
      "outputs": [
        {
          "internalType": "bool",
          "name": "",
          "type": "bool"
        }
      ],
      "stateMutability": "view",
      "type": "function"
    },
    {
      "inputs": [],
      "name": "maxSponsorshipAmount",
      "outputs": [
        {
          "internalType": "uint256",
          "name": "",
          "type": "uint256"
        }
      ],
      "stateMutability": "view",
      "type": "function"
    },
    {
      "inputs": [],
      "name": "pauseContract",
      "outputs": [],
      "stateMutability": "nonpayable",
      "type": "function"
    },
    {
      "inputs": [],
      "name": "reactivateSponsorship",
      "outputs": [],
      "stateMutability": "nonpayable",
      "type": "function"
    },
    {
      "inputs": [
        {
          "internalType": "address",
          "name": "token",
          "type": "address"
        },
        {
          "internalType": "uint256",
          "name": "amount",
          "type": "uint256"
        },
        {
          "internalType": "address",
          "name": "recipient",
          "type": "address"
        }
      ],
      "name": "recoverStuckTokens",
      "outputs": [],
      "stateMutability": "nonpayable",
      "type": "function"
    },
    {
      "inputs": [
        {
          "internalType": "address",
          "name": "token",
          "type": "address"
        },
        {
          "internalType": "uint256",
          "name": "amount",
          "type": "uint256"
        }
      ],
      "name": "requestEmergencyWithdrawal",
      "outputs": [
        {
          "internalType": "bytes32",
          "name": "",
          "type": "bytes32"
        }
      ],
      "stateMutability": "nonpayable",
      "type": "function"
    },
    {
      "inputs": [],
      "name": "resumeContract",
      "outputs": [],
      "stateMutability": "nonpayable",
      "type": "function"
    },
    {
      "inputs": [
        {
          "internalType": "uint256",
          "name": "newGasPrice",
          "type": "uint256"
        }
      ],
      "name": "setBaseGasPrice",
      "outputs": [],
      "stateMutability": "nonpayable",
      "type": "function"
    },
    {
      "inputs": [
        {
          "internalType": "address",
          "name": "newGasToken",
          "type": "address"
        }
      ],
      "name": "setGasToken",
      "outputs": [],
      "stateMutability": "nonpayable",
      "type": "function"
    },
    {
      "inputs": [
        {
          "internalType": "uint256",
          "name": "newMax",
          "type": "uint256"
        }
      ],
      "name": "setMaxSponsorshipAmount",
      "outputs": [],
      "stateMutability": "nonpayable",
      "type": "function"
    },
    {
      "inputs": [
        {
          "internalType": "uint256",
          "name": "newVersion",
          "type": "uint256"
        }
      ],
      "name": "setVersion",
      "outputs": [],
      "stateMutability": "nonpayable",
      "type": "function"
    },
    {
      "inputs": [
        {
          "internalType": "address",
          "name": "user",
          "type": "address"
        },
        {
          "internalType": "uint256",
          "name": "amount",
          "type": "uint256"
        }
      ],
      "name": "sponsorGas",
      "outputs": [],
      "stateMutability": "nonpayable",
      "type": "function"
    },
    {
      "inputs": [
        {
          "internalType": "address",
          "name": "",
          "type": "address"
        }
      ],
      "name": "sponsorships",
      "outputs": [
        {
          "internalType": "address",
          "name": "sponsor",
          "type": "address"
        },
        {
          "internalType": "uint256",
          "name": "totalSponsored",
          "type": "uint256"
        },
        {
          "internalType": "uint256",
          "name": "remainingBalance",
          "type": "uint256"
        },
        {
          "internalType": "uint256",
          "name": "maxPerUser",
          "type": "uint256"
        },
        {
          "internalType": "uint256",
          "name": "usersSponsored",
          "type": "uint256"
        },
        {
          "internalType": "bool",
          "name": "active",
          "type": "bool"
        }
      ],
      "stateMutability": "view",
      "type": "function"
    },
    {
      "inputs": [
        {
          "internalType": "uint256",
          "name": "additionalAmount",
          "type": "uint256"
        }
      ],
      "name": "topUpSponsorship",
      "outputs": [],
      "stateMutability": "nonpayable",
      "type": "function"
    },
    {
      "inputs": [],
      "name": "totalGasSponsored",
      "outputs": [
        {
          "internalType": "uint256",
          "name": "",
          "type": "uint256"
        }
      ],
      "stateMutability": "view",
      "type": "function"
    },
    {
      "inputs": [
        {
          "internalType": "address",
          "name": "newAdmin",
          "type": "address"
        }
      ],
      "name": "transferAdmin",
      "outputs": [],
      "stateMutability": "nonpayable",
      "type": "function"
    },
    {
      "inputs": [
        {
          "internalType": "address",
          "name": "newEmergencySystem",
          "type": "address"
        }
      ],
      "name": "updateEmergencySystem",
      "outputs": [],
      "stateMutability": "nonpayable",
      "type": "function"
    },
    {
      "inputs": [
        {
          "internalType": "address",
          "name": "",
          "type": "address"
        }
      ],
      "name": "userGasUsage",
      "outputs": [
        {
          "internalType": "uint256",
          "name": "totalUsed",
          "type": "uint256"
        },
        {
          "internalType": "uint256",
          "name": "lastUsed",
          "type": "uint256"
        },
        {
          "internalType": "uint256",
          "name": "sponsoredCount",
          "type": "uint256"
        }
      ],
      "stateMutability": "view",
      "type": "function"
    },
    {
      "inputs": [
        {
          "internalType": "address",
          "name": "",
          "type": "address"
        },
        {
          "internalType": "address",
          "name": "",
          "type": "address"
        }
      ],
      "name": "userSponsorships",
      "outputs": [
        {
          "internalType": "bool",
          "name": "",
          "type": "bool"
        }
      ],
      "stateMutability": "view",
      "type": "function"
    },
    {
      "inputs": [],
      "name": "version",
      "outputs": [
        {
          "internalType": "uint256",
          "name": "",
          "type": "uint256"
        }
      ],
      "stateMutability": "view",
      "type": "function"
    },
    {
      "inputs": [],
      "name": "withdrawRemainingSponsorship",
      "outputs": [],
      "stateMutability": "nonpayable",
      "type": "function"
    },
    {
      "stateMutability": "payable",
      "type": "receive"
    }
  ],
  "bytecode": "0x608034620000b357601f62001fb538819003918201601f19168301916001600160401b03831184841017620000b8578084926040948552833981010312620000b3576200005a60206200005283620000ce565b9201620000ce565b9060018060a01b0319913383600054161760005560018060a01b038092168360025416176002556001805516906006541617600655633b9aca00600755670de0b6b3a7640000600855604051611ed19081620000e48239f35b600080fd5b634e487b7160e01b600052604160045260246000fd5b51906001600160a01b0382168203620000b35756fe608080604052600436101561006b575b50361561001b57600080fd5b60405162461bcd60e51b815260206004820152602260248201527f446972656374206574686572207472616e7366657273206e6f7420616c6c6f77604482015261195960f21b6064820152608490fd5b600090813560e01c908163045152d01461185657508063105e7f9c14611824578063158ef93e146117ff5780631e9f8aad146117b25780631f8914d1146116e657806326d44685146116bd578063347397a51461165b5780633981afc1146115d25780633c507e431461159e5780633e46cb7414611573578063408def1e1461150e578063435af292146114bd578063439766ce1461141a57806345282a921461135857806349050ae614610f4d5780634e51638d14610ef057806354fd4d5014610ed25780635d65ad6714610e255780636952483014610bc957806374fc183214610a6257806375829def146109e45780637691c4ac146109bf5780637cc1f8671461096657806387b6f0d21461094857806390daedca1461092a578063a100d967146108b0578063aae8311014610852578063b9f16552146106c7578063bd4725a61461067f578063c4bc5da514610601578063c91d59fe146105d8578063d2f40718146102f2578063d5819b9b14610284578063e0f6dfca14610266578063e2464bb4146102295763f851a4400361000f5734610226578060031936011261022657546040516001600160a01b039091168152602090f35b80fd5b5034610226578060031936011261022657338152600360205260056040822061025760028201541515611e24565b01805460ff1916600117905580f35b50346102265780600319360112610226576020600954604051908152f35b50346102265760203660031901126102265760a0906040906001600160a01b036102ac611966565b168152600360205220600181015490600281015490600381015460ff60056004840154930154169260405194855260208501526040840152606083015215156080820152f35b50346102265760403660031901126102265761030c611966565b60243560018060a01b0391600484846002541660405192838092633e8dc9cf60e21b82525afa801561052f576103539186916105af575b5061034c611bf6565b9015611a88565b61036360ff855460a01c16611c1f565b33845260209060038252604085209361038260ff600587015416611ce6565b600285019485549561039686881015611d2b565b60038201548611610573573388526005855260408820968385169788600052865260ff6040600020541661053a5792600487938796936103da866104889a98611d6e565b9055016103e78154611d7b565b905587895260048452604089206103ff848254611bd3565b905587895260048452600260408a204260018201550161041f8154611d7b565b905533895260058452604089208860005284526040600020600160ff1982541617905561044e83600954611bd3565b60095560065416908860405180978195829463a9059cbb60e01b84526004840160209093929193604081019460018060a01b031681520152565b03925af191821561052f5785926104d1575b506104c57fc9991e76367ebf3387530c533ae59ea7535aa764f043134baaf8b3dd3ad7062692611ca8565b6040519283523392a380f35b91508082813d8311610528575b6104e88183611a25565b81010312610524576104c561051d7fc9991e76367ebf3387530c533ae59ea7535aa764f043134baaf8b3dd3ad7062693611ab8565b925061049a565b8480fd5b503d6104de565b6040513d87823e3d90fd5b60405162461bcd60e51b8152600481018790526011602482015270105b1c9958591e481cdc1bdb9cdbdc9959607a1b6044820152606490fd5b60405162461bcd60e51b815260048101869052601460248201527322bc31b2b2b2399036b0bc103832b9103ab9b2b960611b6044820152606490fd5b6105cb91503d8088833e6105c38183611a25565b810190611ac5565b5050505050505038610343565b50346102265780600319360112610226576006546040516001600160a01b039091168152602090f35b50346102265780600319360112610226578060018060a01b0361063181835416331461062b611a63565b90611a88565b60025416803b1561067c5781809160046040518094819363157c51d360e01b83525af18015610671576106615750f35b61066a906119f5565b6102265780f35b6040513d84823e3d90fd5b50fd5b503461022657602036600319011261022657600754600435818102929181159184041417156106b357602082604051908152f35b634e487b7160e01b81526011600452602490fd5b50346102265760208060031936011261084e57600254604051633e8dc9cf60e21b815260048035936001600160a01b03939092918691839190829087165afa801561052f5761071f9186916105af575061034c611bf6565b61072f60ff855460a01c16611c1f565b33845260038152604084209161074b60ff600585015416611ce6565b610756841515611c6b565b6006546040516323b872dd60e01b815233600482015230602482015260448101869052918391839160649183918a91165af190811561052f5785916107ef575b507fab434bf6b79c5ad526582efab48852b21a4f9000d5c9cbc5a6412f9ece34a7b5926107c4600292611ca8565b600181016107d3868254611bd3565b9055016107e1848254611bd3565b90556040519283523392a280f35b90508181813d8311610847575b6108068183611a25565b81010312610524577fab434bf6b79c5ad526582efab48852b21a4f9000d5c9cbc5a6412f9ece34a7b5926107c461083e600293611ab8565b92505092610796565b503d6107fc565b5080fd5b50346102265760403660031901126102265761086c611966565b6024356001600160a01b0381811693918490036108ab5760409216815260056020522090600052602052602060ff604060002054166040519015158152f35b600080fd5b50346102265760203660031901126102265760c0906001600160a01b0390604090826108da611966565b1681526003602052209081541690600181015490600281015460038201549060ff6005600485015494015416936040519586526020860152604085015260608401526080830152151560a0820152f35b50346102265780600319360112610226576020600854604051908152f35b50346102265780600319360112610226576020600754604051908152f35b50346102265780600319360112610226575460025460015460a0926001600160a01b039283169160ff9190610999611b72565b93604051958316865260208601526040850152841c161515606083015215156080820152f35b503461022657806003193601126102265760206109da611b72565b6040519015158152f35b5034610226576020366003190112610226576109fe611966565b8154906001600160a01b0380831691610a20610a18611a63565b843314611a88565b610a2981611e5d565b1680926001600160601b0360a01b161783557f7e644d79422f17c01e4894b5f4f588d331ebfa28653d42ae832dc59e38c9798f8380a380f35b503461022657606036600319011261022657610a7c611966565b602435906001600160a01b039060443582811691908281036108ab57610aa984875416331461062b611a63565b610ab1611b72565b15610b905785938216610aeb5750508180938192828215610ae2575bf115610ad65780f35b604051903d90823e3d90fd5b506108fc610acd565b60405163a9059cbb60e01b602082019081526001600160a01b03929092166024820152604480820196909652948552610b88948493508390610b2e606482611a25565b51925af13d15610b8b573d610b4281611a47565b90610b506040519283611a25565b81528360203d92013e5b60405190610b6782611a09565b600f82526e151c985b9cd9995c8819985a5b1959608a1b6020830152611a88565b80f35b610b5a565b60405162461bcd60e51b815260206004820152601160248201527014de5cdd195b481b9bdd081c185d5cd959607a1b6044820152606490fd5b50346102265760403660031901126102265760043560243560018060a01b03600484826002541660405192838092633e8dc9cf60e21b82525afa801561052f57610c1c9186916105af575061034c611bf6565b610c2c60ff855460a01c16611c1f565b610c37831515611c6b565b6008548311610dee578115610db2576006546040516323b872dd60e01b815233600482015230602482015260448101859052602092918390829060649082908a9087165af18015610da7578690610d6d575b610c939150611ca8565b60405160c081019080821067ffffffffffffffff831117610d575760059160405233815283810186815260408201878152606083019087825260808401928a845260a085019660018852338c526003895260408c209551166001600160601b0360a01b865416178555516001850155516002840155516003830155516004820155019051151560ff801983541691161790556040519283528201527f31d09c3f790ac177c0c993792b8c0a5c6b239683238f0031ef8aa9847d1813a860403392a280f35b634e487b7160e01b600052604160045260246000fd5b508281813d8311610da0575b610d838183611a25565b81010312610d9c57610d97610c9391611ab8565b610c89565b8580fd5b503d610d79565b6040513d88823e3d90fd5b60405162461bcd60e51b815260206004820152601460248201527324b73b30b634b21036b0bc103832b9103ab9b2b960611b6044820152606490fd5b60405162461bcd60e51b815260206004820152600f60248201526e082dadeeadce840e8dede40d0d2ced608b1b6044820152606490fd5b503461022657604036600319011261022657806020610e80610e45611966565b600254604051635d65ad6760e01b81526001600160a01b03928316600482015260248035908201529485939190921691839182906044820190565b03925af1908115610671578291610e9d575b602082604051908152f35b90506020813d8211610eca575b81610eb760209383611a25565b8101031261084e57602091505138610e92565b3d9150610eaa565b50346102265780600319360112610226576020600154604051908152f35b5034610226576020366003190112610226577ffcdccc6074c6c42e4bd578aa9870c697dc976a270968452d2b8c8dc369fae3966020600435610f3f60018060a01b03855416331461062b611a63565b80600755604051908152a180f35b50346102265760403660031901126102265767ffffffffffffffff60043581811161135457610f809036906004016119c4565b9160243590811161135057610f999036906004016119c4565b600254604051633e8dc9cf60e21b8152919491908690829060049082906001600160a01b03165afa8015610da757610fda91879161133c575061034c611bf6565b610fea60ff865460a01c16611c1f565b838103611307573385526003602052604085209261100e60ff600586015416611ce6565b85805b8682106112e257611029915060028601541015611d2b565b855b828110611036578680f35b3387526005602052604087206001600160a01b0361105d611058848787611d8a565b611db0565b1660005260205260ff6040600020541615806112c9575b611087575b61108290611d7b565b61102b565b806110a46110996111ff938988611d8a565b356002880154611d6e565b6002870155600486016110b78154611d7b565b90556110c4818887611d8a565b356001600160a01b036110db611058848888611d8a565b16895260046020526110f260408a20918254611bd3565b90556001600160a01b0361110a611058838787611d8a565b168852600460205260408820426001918201556001600160a01b03611133611058848888611d8a565b1689526004602052600260408a200161114c8154611d7b565b90553389526005602052604089206001600160a01b03611170611058858989611d8a565b1660005260205260406000209060ff19825416179055611191818887611d8a565b3561119f6009918254611bd3565b90556006546020906001600160a01b03166111be611058848888611d8a565b906111ca848b8a611d8a565b60405163a9059cbb60e01b81526001600160a01b039093166004840152356024830152909384919082908c9082906044820190565b03925af19182156112be578892611279575b5061121e61108292611ca8565b61122c611058828686611d8a565b611237828988611d8a565b604051903581526001600160a01b039091169033907fc9991e76367ebf3387530c533ae59ea7535aa764f043134baaf8b3dd3ad7062690602090a39050611079565b91506020823d6020116112b6575b8161129460209383611a25565b810103126112b25761121e6112ab61108293611ab8565b9250611211565b8780fd5b3d9150611287565b6040513d8a823e3d90fd5b506112d5818786611d8a565b3560038601541015611074565b6112fb611301916112f4848a89611d8a565b3590611bd3565b91611d7b565b90611011565b60405162461bcd60e51b815260206004820152600d60248201526c125b9d985b1a59081a5b9c1d5d609a1b6044820152606490fd5b6105cb91503d8089833e6105c38183611a25565b8380fd5b8280fd5b5034610226578060031936011261022657600254604051633e8dc9cf60e21b815291908190839060049082906001600160a01b03165afa801561140d578180938180936113d9575b5050906113b06113d59285611bd3565b604051948594151585526020850152604084015260806060840152608083019061199f565b0390f35b9091506113d594506113b093506113fa92503d8091833e6105c38183611a25565b50945096949150949150939491926113a0565b50604051903d90823e3d90fd5b50346102265780600319360112610226578060018060a01b0361144481835416331461062b611a63565b60025416803b1561067c57819060e4604051809481936334cc128960e21b835260016004840152600160248401526001604484015262278d00606484015260a06084840152600b60a48401526a41646d696e20706175736560a81b60c48401525af18015610671576114b4575080f35b610b88906119f5565b5034610226576020366003190112610226576060906040906001600160a01b036114e5611966565b168152600460205220805490600260018201549101549060405192835260208301526040820152f35b5034610226576020366003190112610226577f730abf329076f769aacddade69fbe7ca672a3c95fc1b7728ecf7b8f8cb705ed0604060043561155d60018060a01b03855416331461062b611a63565b600154908060015582519182526020820152a180f35b5034610226578060031936011261022657338152600360205260408120600501805460ff1916905580f35b5034610226578060031936011261022657608090600954906007549060405192835280602084015260408301526060820152f35b5034610226576020366003190112610226577f62fb284f5d1a9d326f25d6900267a8cb39113f8484b351a73c1ada4014c66864604061160f611966565b83546001600160a01b039061162a908216331461062b611a63565b61163382611e5d565b80600254921690816001600160601b0360a01b8416176002558351921682526020820152a180f35b503461022657602036600319011261022657608090604061167a611966565b6001600160a01b0381168352600460205291208054600182015460029092015490926116a590611dc4565b91604051938452602084015260408301526060820152f35b50346102265780600319360112610226576002546040516001600160a01b039091168152602090f35b50346102265760403660031901126102265780602061175d611706611966565b83546001600160a01b0390611721908216331461062b611a63565b60065460405163a9059cbb60e01b81526001600160a01b0390931660048401526024803590840152919485939190921691839182906044820190565b03925af18015610671578290611778575b610b889150611ca8565b506020813d82116117aa575b8161179160209383611a25565b8101031261084e576117a5610b8891611ab8565b61176e565b3d9150611784565b5034610226576020366003190112610226576117cc611966565b81546001600160a01b0391906117e8908316331461062b611a63565b166001600160601b0360a01b600654161760065580f35b503461022657806003193601126102265760ff6020915460a01c166040519015158152f35b50346102265760203660031901126102265761184d60018060a01b03825416331461062b611a63565b60043560085580f35b8234610226578060031936011261022657338152602060038152604082209260ff6005850154166119335750806118d560028495018481549161189a831515611e24565b5560065460405163a9059cbb60e01b81523360048201526024810192909252909485926001600160a01b039092169183919082906044820190565b03925af19081156119285783916118f1575b83610b8883611ca8565b905081813d8311611921575b6119078183611a25565b8101031261084e5761191b610b8891611ab8565b836118e7565b503d6118fd565b6040513d85823e3d90fd5b60649162461bcd60e51b82526004820152601060248201526f11195858dd1a5d985d1948199a5c9cdd60821b6044820152fd5b600435906001600160a01b03821682036108ab57565b60005b83811061198f5750506000910152565b818101518382015260200161197f565b906020916119b88151809281855285808601910161197c565b601f01601f1916010190565b9181601f840112156108ab5782359167ffffffffffffffff83116108ab576020808501948460051b0101116108ab57565b67ffffffffffffffff8111610d5757604052565b6040810190811067ffffffffffffffff821117610d5757604052565b90601f8019910116810190811067ffffffffffffffff821117610d5757604052565b67ffffffffffffffff8111610d5757601f01601f191660200190565b60405190611a7082611a09565b60098252682737ba1030b236b4b760b91b6020830152565b15611a905750565b60405162461bcd60e51b815260206004820152908190611ab490602483019061199f565b0390fd5b519081151582036108ab57565b9190610100838203126108ab57611adb83611ab8565b92611ae860208201611ab8565b92611af560408301611ab8565b92611b0260608401611ab8565b9260808101519260a08201519260c083015167ffffffffffffffff81116108ab5783019080601f830112156108ab57815191611b3d83611a47565b91611b4b6040519384611a25565b838352602084830101116108ab5760e092611b6c916020808501910161197c565b92015190565b600254604051633e8dc9cf60e21b815290600090829060049082906001600160a01b03165afa908115611bc757600091611baa575090565b611bbd913d8091833e6105c38183611a25565b5050505050505090565b6040513d6000823e3d90fd5b91908201809211611be057565b634e487b7160e01b600052601160045260246000fd5b60405190611c0382611a09565b600d82526c14de5cdd195b481c185d5cd959609a1b6020830152565b15611c2657565b60405162461bcd60e51b815260206004820152601860248201527f436f6e7472616374206e6f7420696e697469616c697a656400000000000000006044820152606490fd5b15611c7257565b60405162461bcd60e51b815260206004820152600e60248201526d125b9d985b1a5908185b5bdd5b9d60921b6044820152606490fd5b15611caf57565b60405162461bcd60e51b815260206004820152600f60248201526e151c985b9cd9995c8819985a5b1959608a1b6044820152606490fd5b15611ced57565b60405162461bcd60e51b815260206004820152601660248201527553706f6e736f7273686970206e6f742061637469766560501b6044820152606490fd5b15611d3257565b60405162461bcd60e51b8152602060048201526014602482015273496e73756666696369656e742062616c616e636560601b6044820152606490fd5b91908203918211611be057565b6000198114611be05760010190565b9190811015611d9a5760051b0190565b634e487b7160e01b600052603260045260246000fd5b356001600160a01b03811681036108ab5790565b6001600160a01b03166000908152600460205260409020600101548015611e1d57611def9042611d6e565b62278d00811115611e01575060085490565b62093a801015611e145760085460011c90565b60085460021c90565b5060085490565b15611e2b57565b60405162461bcd60e51b815260206004820152600a6024820152694e6f2062616c616e636560b01b6044820152606490fd5b604051611e9991611e6d82611a09565b600f82526e496e76616c6964206164647265737360881b60208301526001600160a01b03161515611a88565b56fea2646970667358221220fcc5cb615e44764de5ca111e9f9616577490002528de18b58eb0c308eb7e44ae64736f6c63430008130033",
  "linkReferences": {},
  "deployedLinkReferences": {}
}