{
  "_format": "hh-sol-artifact-1",
  "contractName": "BatchOperations",
  "sourceName": "contracts/BatchOperations.sol",
  "abi": [
    {
      "inputs": [],
      "stateMutability": "nonpayable",
      "type": "constructor"
    },
    {
      "anonymous": false,
      "inputs": [
        {
          "indexed": true,
          "internalType": "address",
          "name": "owner",
          "type": "address"
        },
        {
          "indexed": false,
          "internalType": "address[]",
          "name": "spender",
          "type": "address[]"
        },
        {
          "indexed": false,
          "internalType": "uint256[]",
          "name": "amounts",
          "type": "uint256[]"
        }
      ],
      "name": "BatchApproval",
      "type": "event"
    },
    {
      "anonymous": false,
      "inputs": [
        {
          "indexed": true,
          "internalType": "address",
          "name": "payer",
          "type": "address"
        },
        {
          "indexed": false,
          "internalType": "address[]",
          "name": "recipients",
          "type": "address[]"
        },
        {
          "indexed": false,
          "internalType": "uint256",
          "name": "totalAmount",
          "type": "uint256"
        }
      ],
      "name": "BatchPayment",
      "type": "event"
    },
    {
      "anonymous": false,
      "inputs": [
        {
          "indexed": true,
          "internalType": "address",
          "name": "from",
          "type": "address"
        },
        {
          "indexed": false,
          "internalType": "address[]",
          "name": "recipients",
          "type": "address[]"
        },
        {
          "indexed": false,
          "internalType": "uint256[]",
          "name": "amounts",
          "type": "uint256[]"
        }
      ],
      "name": "BatchTransfer",
      "type": "event"
    },
    {
      "inputs": [
        {
          "internalType": "address",
          "name": "token",
          "type": "address"
        },
        {
          "internalType": "address[]",
          "name": "spenders",
          "type": "address[]"
        },
        {
          "internalType": "uint256[]",
          "name": "amounts",
          "type": "uint256[]"
        }
      ],
      "name": "batchApprove",
      "outputs": [],
      "stateMutability": "nonpayable",
      "type": "function"
    },
    {
      "inputs": [
        {
          "internalType": "address",
          "name": "rentAgreement",
          "type": "address"
        },
        {
          "internalType": "uint256[]",
          "name": "agreementIds",
          "type": "uint256[]"
        }
      ],
      "name": "batchConfirmAgreements",
      "outputs": [],
      "stateMutability": "nonpayable",
      "type": "function"
    },
    {
      "inputs": [
        {
          "internalType": "address",
          "name": "rentAgreement",
          "type": "address"
        },
        {
          "internalType": "uint256[]",
          "name": "propertyIds",
          "type": "uint256[]"
        },
        {
          "internalType": "address[]",
          "name": "tenants",
          "type": "address[]"
        },
        {
          "internalType": "uint256[]",
          "name": "rentAmounts",
          "type": "uint256[]"
        },
        {
          "internalType": "uint256[]",
          "name": "securityDeposits",
          "type": "uint256[]"
        },
        {
          "internalType": "uint256[]",
          "name": "startDates",
          "type": "uint256[]"
        },
        {
          "internalType": "uint256[]",
          "name": "endDates",
          "type": "uint256[]"
        },
        {
          "internalType": "address",
          "name": "paymentToken",
          "type": "address"
        }
      ],
      "name": "batchCreateAgreements",
      "outputs": [],
      "stateMutability": "nonpayable",
      "type": "function"
    },
    {
      "inputs": [
        {
          "internalType": "address",
          "name": "rentAgreement",
          "type": "address"
        },
        {
          "internalType": "uint256[]",
          "name": "agreementIds",
          "type": "uint256[]"
        },
        {
          "internalType": "uint256[]",
          "name": "amounts",
          "type": "uint256[]"
        }
      ],
      "name": "batchPayRent",
      "outputs": [],
      "stateMutability": "nonpayable",
      "type": "function"
    },
    {
      "inputs": [
        {
          "internalType": "address",
          "name": "token",
          "type": "address"
        },
        {
          "internalType": "address[]",
          "name": "landlords",
          "type": "address[]"
        },
        {
          "internalType": "uint256[]",
          "name": "amounts",
          "type": "uint256[]"
        },
        {
          "internalType": "string",
          "name": "description",
          "type": "string"
        }
      ],
      "name": "batchRentPayment",
      "outputs": [],
      "stateMutability": "nonpayable",
      "type": "function"
    },
    {
      "inputs": [
        {
          "internalType": "address",
          "name": "token",
          "type": "address"
        },
        {
          "internalType": "address[]",
          "name": "recipients",
          "type": "address[]"
        },
        {
          "internalType": "uint256[]",
          "name": "amounts",
          "type": "uint256[]"
        }
      ],
      "name": "batchTransfer",
      "outputs": [],
      "stateMutability": "nonpayable",
      "type": "function"
    },
    {
      "inputs": [
        {
          "internalType": "address[]",
          "name": "recipients",
          "type": "address[]"
        },
        {
          "internalType": "uint256[]",
          "name": "amounts",
          "type": "uint256[]"
        }
      ],
      "name": "batchTransferETH",
      "outputs": [],
      "stateMutability": "payable",
      "type": "function"
    },
    {
      "inputs": [],
      "name": "owner",
      "outputs": [
        {
          "internalType": "address",
          "name": "",
          "type": "address"
        }
      ],
      "stateMutability": "view",
      "type": "function"
    },
    {
      "inputs": [
        {
          "internalType": "uint256",
          "name": "amount",
          "type": "uint256"
        }
      ],
      "name": "withdrawStuckETH",
      "outputs": [],
      "stateMutability": "nonpayable",
      "type": "function"
    },
    {
      "inputs": [
        {
          "internalType": "address",
          "name": "token",
          "type": "address"
        },
        {
          "internalType": "uint256",
          "name": "amount",
          "type": "uint256"
        }
      ],
      "name": "withdrawStuckTokens",
      "outputs": [],
      "stateMutability": "nonpayable",
      "type": "function"
    }
  ],
  "bytecode": "0x6080806040523461002857600080546001600160a01b03191633179055610ff8908161002e8239f35b600080fdfe6080604052600436101561001257600080fd5b60003560e01c806302f1fd7014610c055780631239ec8c14610a3c5780632f1f0bcc146109f55780635ddcdd3c1461075457806377a95891146106525780638da5cb5b146106295780639550ae5614610533578063a0ce91d8146103d5578063a3abc632146101455763bd61f0a61461008a57600080fd5b34610140576040366003190112610140576100a3610d2a565b6000546001600160a01b03916020916100fa919084166100c4338214610f8a565b60405163a9059cbb60e01b81526001600160a01b0390911660048201526024803590820152938492839160009183906044820190565b0393165af180156101345761010b57005b61012b9060203d811161012d575b6101238183610dcf565b810190610e9f565b005b503d610119565b6040513d6000823e3d90fd5b600080fd5b34610140576101003660031901126101405761015f610d2a565b6024356001600160401b0381116101405761017e903690600401610d40565b916044356001600160401b0381116101405761019e903690600401610d40565b926064356001600160401b038111610140576101be903690600401610d40565b9290916084356001600160401b038111610140576101e0903690600401610d40565b91909360a4356001600160401b03811161014057610202903690600401610d40565b946001600160401b0360c43511610140576102223660c435600401610d40565b97909460e4356001600160a01b03811690036101405761026f898e6102488f8214610e0b565b6102538d8214610e0b565b61025e8a8214610e0b565b6102698b8214610e0b565b14610e0b565b6000945b8d861061027c57005b8c8b8f8b8b8b8f938b8d8b818b8f8296908f61029b8580948193610e6c565b359e6102a692610e6c565b6102af90610eb7565b9b6102b992610e6c565b35966102c492610e6c565b35956102cf92610e6c565b35946102da92610e6c565b3593604051956387f98ca960e01b60208801526024870152600160a01b600190031660448601526064850152608484015260a483015260c4820152600160a01b6001900360e4351660e482015260e481528061012081011061012082016001600160401b0310176103bf576000818e610120839401604052602082519201905af4610363610f5a565b501561037a576103738e96610e47565b9550610273565b60405162461bcd60e51b815260206004820152601960248201527f41677265656d656e74206372656174696f6e206661696c6564000000000000006044820152606490fd5b634e487b7160e01b600052604160045260246000fd5b6040366003190112610140576001600160401b0360043581811161014057610401903690600401610d40565b90916024359081116101405761041b903690600401610d40565b6104288184939414610e0b565b6000805b82811061050e575034036104d25760005b82811061047f57509061047a7fd76871a3b9b205c530f73884df11af482cc4ac28f71bdb2f15a98e79a3a790769392604051938493339785610f18565b0390a2005b60008080806001600160a01b0361049f61049a878a8d610e6c565b610eb7565b166104ab86888b610e6c565b35908282156104c9575bf115610134576104c490610e47565b61043d565b506108fc6104b5565b60405162461bcd60e51b8152602060048201526014602482015273125b98dbdc9c9958dd0811551208185b5bdd5b9d60621b6044820152606490fd5b9061052861052e91610521848689610e6c565b3590610e92565b91610e47565b61042c565b346101405761054136610d70565b93926105508584939414610e0b565b60005b82811061055c57005b610567818484610e6c565b35610573828887610e6c565b356040519160209283810190630fc2bf8f60e41b82526024928382015260449384820152838152608081018181106001600160401b0382111761061457604052516000918291908b5af46105c5610f5a565b50156105dc575050506105d790610e47565b610553565b6064929160137214995b9d081c185e5b595b9d0819985a5b1959606a1b926040519462461bcd60e51b86526004860152840152820152fd5b83634e487b7160e01b60005260416004526000fd5b34610140576000366003190112610140576000546040516001600160a01b039091168152602090f35b346101405760403660031901126101405761066b610d2a565b6001600160401b03602480358281116101405761068c903690600401610d40565b60009491945b81811061069b57005b6106a6818388610e6c565b604051631f015e6360e21b602080830191825292358783015286825290606081018881118282101761073f5760405251600091829190875af46106e7610f5a565b50156106fc57506106f790610e47565b610692565b606490601d866040519262461bcd60e51b845260048401528201527f41677265656d656e7420636f6e6669726d6174696f6e206661696c65640000006044820152fd5b87634e487b7160e01b60005260416004526000fd5b346101405760803660031901126101405761076d610d2a565b6024906001600160401b0382358181116101405761078f903690600401610d40565b9260448035848111610140576107a9903690600401610d40565b91909460649384359182116101405736602383011215610140578160040135916107d283610df0565b906107e06040519283610dcf565b838252368b858301011161014057836000928c9560209d8e94018483013701015261080c848914610e0b565b600096906001600160a01b0316875b8581106109d757506040516323b872dd60e01b8152336004820152306024820152604481018990528a816064816000865af1908115610134576000916109ba575b50156109875760005b8a8a82106108b2577fc8f5166057e7146c7274930824516efc3af3c57ef715d202d32303c248ca180a8b8b6108a68c60405193604085526040850191610ecb565b938201528033930390a2005b6108fe906108c461049a848e8d610e6c565b6108cf848a88610e6c565b60405163a9059cbb60e01b81526001600160a01b03909216600483015235602482015291829081906044820190565b03816000875af19081156101345760009161096a575b50156109285761092390610e47565b610865565b60405162461bcd60e51b8152600481018c9052601b818601527f5472616e7366657220746f206c616e646c6f7264206661696c65640000000000818701528790fd5b61098191508c8d3d1061012d576101238183610dcf565b8c610914565b60405162461bcd60e51b8152600481018b9052600e818501526d14185e5b595b9d0819985a5b195960921b818601528690fd5b6109d191508b3d8d1161012d576101238183610dcf565b8b61085c565b976109ea6109f0916105218b8987610e6c565b98610e47565b61081b565b3461014057602036600319011261014057600080808060043560018060a01b03825416610a23813314610f8a565b828215610a33575bf11561013457005b506108fc610a2b565b3461014057610a4a36610d70565b93610a588584939414610e0b565b6001600160a01b03166000805b868210610bed576040516323b872dd60e01b815233600482015230602482015260448101919091526020915081816064816000875af190811561013457600091610bd0575b5015610b9a5760005b838110610af15750505061047a7fd76871a3b9b205c530f73884df11af482cc4ac28f71bdb2f15a98e79a3a790769394604051938493339785610f18565b610b0e82610b0361049a84888b610e6c565b6108cf848b8a610e6c565b03816000885af190811561013457600091610b7d575b5015610b3857610b3390610e47565b610ab3565b60405162461bcd60e51b815260048101839052601c60248201527f5472616e7366657220746f20726563697069656e74206661696c6564000000006044820152606490fd5b610b949150833d851161012d576101238183610dcf565b88610b24565b6064906040519062461bcd60e51b82526004820152600f60248201526e151c985b9cd9995c8819985a5b1959608a1b6044820152fd5b610be79150823d841161012d576101238183610dcf565b87610aaa565b610528610bff91610521848a89610e6c565b90610a65565b3461014057610c1336610d70565b909293610c21828414610e0b565b6001600160a01b031660005b838110610c695760405133907f173fd2fbc21fdb6646489037403f7e7eb2e1ad96a20077a59daacc3ae95b3d75908061047a878a8a8d85610f18565b610c7761049a828689610e6c565b610c82828588610e6c565b60405163095ea7b360e01b81526001600160a01b0392909216600483015235602482015260209081816044816000885af190811561013457600091610d0d575b5015610cd75750610cd290610e47565b610c2d565b6064906040519062461bcd60e51b82526004820152600f60248201526e105c1c1c9bdd985b0819985a5b1959608a1b6044820152fd5b610d249150823d841161012d576101238183610dcf565b88610cc2565b600435906001600160a01b038216820361014057565b9181601f84011215610140578235916001600160401b038311610140576020808501948460051b01011161014057565b906060600319830112610140576004356001600160a01b038116810361014057916001600160401b03916024358381116101405782610db191600401610d40565b9390939260443591821161014057610dcb91600401610d40565b9091565b90601f801991011681019081106001600160401b038211176103bf57604052565b6001600160401b0381116103bf57601f01601f191660200190565b15610e1257565b60405162461bcd60e51b815260206004820152600d60248201526c125b9d985b1a59081a5b9c1d5d609a1b6044820152606490fd5b6000198114610e565760010190565b634e487b7160e01b600052601160045260246000fd5b9190811015610e7c5760051b0190565b634e487b7160e01b600052603260045260246000fd5b91908201809211610e5657565b90816020910312610140575180151581036101405790565b356001600160a01b03811681036101405790565b9190808252602080920192916000805b838210610eea57505050505090565b9091929394853560018060a01b038116809103610f14578152830194830193929160010190610edb565b8280fd5b9190610f2c91604084526040840191610ecb565b8181036020909201919091528281526001600160fb1b0383116101405760209260051b809284830137010190565b3d15610f85573d90610f6b82610df0565b91610f796040519384610dcf565b82523d6000602084013e565b606090565b15610f9157565b60405162461bcd60e51b81526020600482015260096024820152682737ba1037bbb732b960b91b6044820152606490fdfea264697066735822122088a1930b78072aa84e6af54267b40978cced3c2f013a8c52e3900ef6343e4db464736f6c63430008130033",
  "linkReferences": {},
  "deployedLinkReferences": {}
}