{
  "_format": "hh-sol-artifact-1",
  "contractName": "StakingRewards",
  "sourceName": "contracts/StakingRewards.sol",
  "abi": [
    {
      "inputs": [
        {
          "internalType": "address",
          "name": "_stakingToken",
          "type": "address"
        },
        {
          "internalType": "address",
          "name": "_rewardsToken",
          "type": "address"
        }
      ],
      "stateMutability": "nonpayable",
      "type": "constructor"
    },
    {
      "anonymous": false,
      "inputs": [
        {
          "indexed": true,
          "internalType": "address",
          "name": "user",
          "type": "address"
        },
        {
          "indexed": false,
          "internalType": "uint256",
          "name": "amount",
          "type": "uint256"
        }
      ],
      "name": "EmergencyWithdraw",
      "type": "event"
    },
    {
      "anonymous": false,
      "inputs": [
        {
          "indexed": true,
          "internalType": "address",
          "name": "user",
          "type": "address"
        },
        {
          "indexed": false,
          "internalType": "uint256",
          "name": "reward",
          "type": "uint256"
        }
      ],
      "name": "RewardPaid",
      "type": "event"
    },
    {
      "anonymous": false,
      "inputs": [
        {
          "indexed": true,
          "internalType": "address",
          "name": "user",
          "type": "address"
        },
        {
          "indexed": false,
          "internalType": "uint256",
          "name": "amount",
          "type": "uint256"
        }
      ],
      "name": "Staked",
      "type": "event"
    },
    {
      "anonymous": false,
      "inputs": [
        {
          "indexed": true,
          "internalType": "address",
          "name": "user",
          "type": "address"
        },
        {
          "indexed": false,
          "internalType": "uint256",
          "name": "amount",
          "type": "uint256"
        }
      ],
      "name": "Withdrawn",
      "type": "event"
    },
    {
      "inputs": [],
      "name": "LOCK_PERIOD",
      "outputs": [
        {
          "internalType": "uint256",
          "name": "",
          "type": "uint256"
        }
      ],
      "stateMutability": "view",
      "type": "function"
    },
    {
      "inputs": [],
      "name": "REWARD_RATE",
      "outputs": [
        {
          "internalType": "uint256",
          "name": "",
          "type": "uint256"
        }
      ],
      "stateMutability": "view",
      "type": "function"
    },
    {
      "inputs": [
        {
          "internalType": "uint256",
          "name": "amount",
          "type": "uint256"
        }
      ],
      "name": "addRewards",
      "outputs": [],
      "stateMutability": "nonpayable",
      "type": "function"
    },
    {
      "inputs": [
        {
          "internalType": "address",
          "name": "account",
          "type": "address"
        }
      ],
      "name": "earned",
      "outputs": [
        {
          "internalType": "uint256",
          "name": "",
          "type": "uint256"
        }
      ],
      "stateMutability": "view",
      "type": "function"
    },
    {
      "inputs": [],
      "name": "emergencyWithdraw",
      "outputs": [],
      "stateMutability": "nonpayable",
      "type": "function"
    },
    {
      "inputs": [],
      "name": "getReward",
      "outputs": [],
      "stateMutability": "nonpayable",
      "type": "function"
    },
    {
      "inputs": [
        {
          "internalType": "address",
          "name": "account",
          "type": "address"
        }
      ],
      "name": "getStakeInfo",
      "outputs": [
        {
          "internalType": "uint256",
          "name": "stakedAmount",
          "type": "uint256"
        },
        {
          "internalType": "uint256",
          "name": "stakedAt",
          "type": "uint256"
        },
        {
          "internalType": "uint256",
          "name": "unlockTime",
          "type": "uint256"
        },
        {
          "internalType": "uint256",
          "name": "pendingReward",
          "type": "uint256"
        }
      ],
      "stateMutability": "view",
      "type": "function"
    },
    {
      "inputs": [],
      "name": "lastUpdateBlock",
      "outputs": [
        {
          "internalType": "uint256",
          "name": "",
          "type": "uint256"
        }
      ],
      "stateMutability": "view",
      "type": "function"
    },
    {
      "inputs": [],
      "name": "owner",
      "outputs": [
        {
          "internalType": "address",
          "name": "",
          "type": "address"
        }
      ],
      "stateMutability": "view",
      "type": "function"
    },
    {
      "inputs": [
        {
          "internalType": "address",
          "name": "",
          "type": "address"
        }
      ],
      "name": "pendingRewards",
      "outputs": [
        {
          "internalType": "uint256",
          "name": "",
          "type": "uint256"
        }
      ],
      "stateMutability": "view",
      "type": "function"
    },
    {
      "inputs": [],
      "name": "rewardPerToken",
      "outputs": [
        {
          "internalType": "uint256",
          "name": "",
          "type": "uint256"
        }
      ],
      "stateMutability": "view",
      "type": "function"
    },
    {
      "inputs": [],
      "name": "rewardPerTokenStored",
      "outputs": [
        {
          "internalType": "uint256",
          "name": "",
          "type": "uint256"
        }
      ],
      "stateMutability": "view",
      "type": "function"
    },
    {
      "inputs": [],
      "name": "rewardsToken",
      "outputs": [
        {
          "internalType": "contract IERC20",
          "name": "",
          "type": "address"
        }
      ],
      "stateMutability": "view",
      "type": "function"
    },
    {
      "inputs": [
        {
          "internalType": "uint256",
          "name": "newRate",
          "type": "uint256"
        }
      ],
      "name": "setRewardRate",
      "outputs": [],
      "stateMutability": "nonpayable",
      "type": "function"
    },
    {
      "inputs": [
        {
          "internalType": "uint256",
          "name": "amount",
          "type": "uint256"
        }
      ],
      "name": "stake",
      "outputs": [],
      "stateMutability": "nonpayable",
      "type": "function"
    },
    {
      "inputs": [
        {
          "internalType": "address",
          "name": "",
          "type": "address"
        }
      ],
      "name": "stakes",
      "outputs": [
        {
          "internalType": "uint256",
          "name": "amount",
          "type": "uint256"
        },
        {
          "internalType": "uint256",
          "name": "stakedAt",
          "type": "uint256"
        },
        {
          "internalType": "uint256",
          "name": "unlockTime",
          "type": "uint256"
        },
        {
          "internalType": "uint256",
          "name": "rewardDebt",
          "type": "uint256"
        }
      ],
      "stateMutability": "view",
      "type": "function"
    },
    {
      "inputs": [],
      "name": "stakingToken",
      "outputs": [
        {
          "internalType": "contract IERC20",
          "name": "",
          "type": "address"
        }
      ],
      "stateMutability": "view",
      "type": "function"
    },
    {
      "inputs": [],
      "name": "totalStaked",
      "outputs": [
        {
          "internalType": "uint256",
          "name": "",
          "type": "uint256"
        }
      ],
      "stateMutability": "view",
      "type": "function"
    },
    {
      "inputs": [
        {
          "internalType": "uint256",
          "name": "amount",
          "type": "uint256"
        }
      ],
      "name": "withdraw",
      "outputs": [],
      "stateMutability": "nonpayable",
      "type": "function"
    }
  ],
  "bytecode": "0x60803461009557601f610cb638819003918201601f19168301916001600160401b0383118484101761009a57808492604094855283398101031261009557610052602061004b836100b0565b92016100b0565b60018060a01b03908160018060a01b03199316836000541617600055168160015416176001553390600754161760075543600555604051610bf190816100c58239f35b600080fd5b634e487b7160e01b600052604160045260246000fd5b51906001600160a01b03821682036100955756fe6040608081526004908136101561001557600080fd5b600091823560e01c9081628cc2621461097557816316934fc4146109165781631820cabb146108f85781632e1a7d4d1461078d57816331d7a262146107535781633d18b9121461066a5781635997bb371461064e57816372f702f314610626578163817b1cd2146106085781638da5cb5b146105df5781639e447fc6146105a3578163a218141b14610584578163a694fc3a146103d557838263beceed391461032e57508163c345315314610299578163cd3daf9d14610275578163d1af0c7d1461024c578163db2e21bc14610116575063df136d65146100f557600080fd5b346101125781600319360112610112576020906006549051908152f35b5080fd5b90503461024857826003193601126102485733835260206002815282842091825492831561021b578361019a9287859355610152828254610a8b565b815533808952600384528789208990558854885163a9059cbb60e01b81529283019182526020820193909352909384926001600160a01b03169183918a918391604090910190565b03925af1908115610211577f5fafa99d0643513820be26656b45130b01e1c03062e1266bf36f88cbd3bd96959394916101da9187916101e4575b50610a17565b519283523392a280f35b6102049150843d861161020a575b6101fc81836109d8565b8101906109fa565b386101d4565b503d6101f2565b84513d87823e3d90fd5b5060649184519162461bcd60e51b835282015260086024820152674e6f207374616b6560c01b6044820152fd5b8280fd5b50503461011257816003193601126101125760015490516001600160a01b039091168152602090f35b505034610112578160031936011261011257602090610292610a98565b9051908152f35b839150346101125760203660031901126101125735906001600160a01b038216808303610112578152600260205282902082519261032a916102da856109a6565b6103088154948587526001830154968760208201526060600360028601549586888501520154910152610afa565b9151948594859094939260609260808301968352602083015260408201520152565b0390f35b9150346101125760203660031901126101125761039260209160018060a01b0361035d81600754163314610b83565b60015486516323b872dd60e01b8152338185019081523060208201529335604085015295869492909116928492839160600190565b03925af19081156103c9576103ae925083916103b15750610a17565b80f35b610204915060203d811161020a576101fc81836109d8565b505051903d90823e3d90fd5b83833461011257602080600319360112610248578335916103f4610a98565b600655436005553361056b575b82156105375733845260028252808420805461051e575b845482516323b872dd60e01b815233818901908152306020820152604081018790529091859183916001600160a01b03169082908a90829060600103925af1908115610514579061046f9187916104f75750610a17565b61047a848254610a55565b80825542600183015562278d0042018042116104e4576104ca839260039260027f9e71bc8eea02a63969f509818f2dafb9254532904319f9dbda79b67bd34a5f3d999a9b96015560065490610a78565b9101556104d8858254610a55565b9055519283523392a280f35b634e487b7160e01b875260118852602487fd5b61050e9150853d871161020a576101fc81836109d8565b886101d4565b83513d88823e3d90fd5b61052733610afa565b3386526003845282862055610418565b5162461bcd60e51b815280850191909152600e60248201526d043616e6e6f74207374616b6520360941b6044820152606490fd5b61057433610afa565b3385526003835281852055610401565b5050346101125781600319360112610112576020906005549051908152f35b83346105dc5760203660031901126105dc576105ca60018060a01b03600754163314610b83565b6105d2610a98565b6006554360055580f35b80fd5b50503461011257816003193601126101125760075490516001600160a01b039091168152602090f35b90503461024857826003193601126102485760209250549051908152f35b505034610112578160031936011261011257905490516001600160a01b039091168152602090f35b5050346101125781600319360112610112576020905160648152f35b91905034610248578260031936011261024857610685610a98565b6006554360055533610739575b33835260036020528083209183835493846106ab575080f35b55600154825163a9059cbb60e01b815233928101928352602080840186905290929091839182900360400190829088906001600160a01b03165af190811561072f57906106fe9185916103b15750610a17565b519081527fe2403640ba68fed3a2f88b7557551d1993f84b99bb10ff833f0cf8db0c5e048660203392a23880808380f35b82513d86823e3d90fd5b61074233610afa565b338452600360205281842055610692565b90503461024857602036600319011261024857356001600160a01b0381169081900361024857828291602094526003845220549051908152f35b905034610248576020806003193601126108f4578135916107ac610a98565b60065543600555336108db575b3385526002825283852080548481106108a2576002820154421061086f576108309284926107e8878094610a8b565b90556107f5828254610a8b565b81558754875163a9059cbb60e01b8152339281019283526020830193909352919384926001600160a01b03169183918a918391604090910190565b03925af1908115610211577f7084f5476618d8e60b11ef0d7d3f06914655adb8793e28ff7f018d4c76d505d59394916101da9187916101e45750610a17565b855162461bcd60e51b8152808401859052600d60248201526c151bdad95b9cc81b1bd8dad959609a1b6044820152606490fd5b855162461bcd60e51b81528084018590526013602482015272125b9cdd59999a58da595b9d081cdd185ad959606a1b6044820152606490fd5b6108e433610afa565b33865260038352848620556107b9565b8380fd5b5050346101125781600319360112610112576020905162278d008152f35b90503461024857602036600319011261024857356001600160a01b038116908190036102485782526002602081815292829020805460018201549282015460039092015493519081529384019190915260408301526060820152608090f35b9050346102485760203660031901126102485735916001600160a01b03831683036105dc5750610292602092610afa565b6080810190811067ffffffffffffffff8211176109c257604052565b634e487b7160e01b600052604160045260246000fd5b90601f8019910116810190811067ffffffffffffffff8211176109c257604052565b90816020910312610a1257518015158103610a125790565b600080fd5b15610a1e57565b60405162461bcd60e51b815260206004820152600f60248201526e151c985b9cd9995c8819985a5b1959608a1b6044820152606490fd5b91908201809211610a6257565b634e487b7160e01b600052601160045260246000fd5b81810292918115918404141715610a6257565b91908203918211610a6257565b6004548015610af357610aad60055443610a8b565b606481029181830460641482151715610a625768056bc75e2d63100000600654920292808404670de0b6b3a76400001490151715610a6257610af0920490610a55565b90565b5060065490565b610af09060018060a01b0316806000526002602052670de0b6b3a7640000610b7c604060002092610b76600360405195610b33876109a6565b80548752600181015460208801526002810154604088015201549160608601928352610b5d610a98565b9060005260036020526040600020549551925190610a8b565b90610a78565b0490610a55565b15610b8a57565b60405162461bcd60e51b81526020600482015260096024820152682737ba1037bbb732b960b91b6044820152606490fdfea2646970667358221220c900fbdaf44f1309a5523e4320a98b4a61f75db23f36afc1c4e6fc0fb37e204e64736f6c63430008130033",
  "linkReferences": {},
  "deployedLinkReferences": {}
}