{
  "_format": "hh-sol-artifact-1",
  "contractName": "UserRegistry",
  "sourceName": "contracts/UserRegistry.sol",
  "abi": [
    {
      "inputs": [],
      "stateMutability": "nonpayable",
      "type": "constructor"
    },
    {
      "anonymous": false,
      "inputs": [
        {
          "indexed": true,
          "internalType": "address",
          "name": "user",
          "type": "address"
        }
      ],
      "name": "ProfileUpdated",
      "type": "event"
    },
    {
      "anonymous": false,
      "inputs": [
        {
          "indexed": true,
          "internalType": "address",
          "name": "user",
          "type": "address"
        },
        {
          "indexed": false,
          "internalType": "uint256",
          "name": "newReputation",
          "type": "uint256"
        }
      ],
      "name": "ReputationUpdated",
      "type": "event"
    },
    {
      "anonymous": false,
      "inputs": [
        {
          "indexed": true,
          "internalType": "address",
          "name": "user",
          "type": "address"
        },
        {
          "indexed": false,
          "internalType": "string",
          "name": "name",
          "type": "string"
        }
      ],
      "name": "UserRegistered",
      "type": "event"
    },
    {
      "anonymous": false,
      "inputs": [
        {
          "indexed": true,
          "internalType": "address",
          "name": "user",
          "type": "address"
        },
        {
          "indexed": false,
          "internalType": "address",
          "name": "verifiedBy",
          "type": "address"
        }
      ],
      "name": "UserVerified",
      "type": "event"
    },
    {
      "inputs": [
        {
          "internalType": "address",
          "name": "moderator",
          "type": "address"
        }
      ],
      "name": "addModerator",
      "outputs": [],
      "stateMutability": "nonpayable",
      "type": "function"
    },
    {
      "inputs": [],
      "name": "admin",
      "outputs": [
        {
          "internalType": "address",
          "name": "",
          "type": "address"
        }
      ],
      "stateMutability": "view",
      "type": "function"
    },
    {
      "inputs": [
        {
          "internalType": "address",
          "name": "user",
          "type": "address"
        }
      ],
      "name": "getUserReputation",
      "outputs": [
        {
          "internalType": "uint256",
          "name": "",
          "type": "uint256"
        }
      ],
      "stateMutability": "view",
      "type": "function"
    },
    {
      "inputs": [
        {
          "internalType": "uint256",
          "name": "start",
          "type": "uint256"
        },
        {
          "internalType": "uint256",
          "name": "count",
          "type": "uint256"
        }
      ],
      "name": "getVerifiedUsers",
      "outputs": [
        {
          "internalType": "address[]",
          "name": "",
          "type": "address[]"
        },
        {
          "components": [
            {
              "internalType": "string",
              "name": "name",
              "type": "string"
            },
            {
              "internalType": "string",
              "name": "email",
              "type": "string"
            },
            {
              "internalType": "string",
              "name": "phone",
              "type": "string"
            },
            {
              "internalType": "string",
              "name": "ipfsHash",
              "type": "string"
            },
            {
              "internalType": "bool",
              "name": "isVerified",
              "type": "bool"
            },
            {
              "internalType": "uint256",
              "name": "reputation",
              "type": "uint256"
            },
            {
              "internalType": "uint256",
              "name": "joinDate",
              "type": "uint256"
            },
            {
              "internalType": "uint256",
              "name": "totalTransactions",
              "type": "uint256"
            }
          ],
          "internalType": "struct UserRegistry.UserProfile[]",
          "name": "",
          "type": "tuple[]"
        }
      ],
      "stateMutability": "view",
      "type": "function"
    },
    {
      "inputs": [
        {
          "internalType": "address",
          "name": "user",
          "type": "address"
        }
      ],
      "name": "isUserVerified",
      "outputs": [
        {
          "internalType": "bool",
          "name": "",
          "type": "bool"
        }
      ],
      "stateMutability": "view",
      "type": "function"
    },
    {
      "inputs": [
        {
          "internalType": "address",
          "name": "",
          "type": "address"
        }
      ],
      "name": "moderators",
      "outputs": [
        {
          "internalType": "bool",
          "name": "",
          "type": "bool"
        }
      ],
      "stateMutability": "view",
      "type": "function"
    },
    {
      "inputs": [
        {
          "internalType": "string",
          "name": "name",
          "type": "string"
        },
        {
          "internalType": "string",
          "name": "email",
          "type": "string"
        },
        {
          "internalType": "string",
          "name": "phone",
          "type": "string"
        },
        {
          "internalType": "string",
          "name": "ipfsHash",
          "type": "string"
        }
      ],
      "name": "registerUser",
      "outputs": [],
      "stateMutability": "nonpayable",
      "type": "function"
    },
    {
      "inputs": [
        {
          "internalType": "address",
          "name": "moderator",
          "type": "address"
        }
      ],
      "name": "removeModerator",
      "outputs": [],
      "stateMutability": "nonpayable",
      "type": "function"
    },
    {
      "inputs": [
        {
          "internalType": "string",
          "name": "name",
          "type": "string"
        },
        {
          "internalType": "string",
          "name": "email",
          "type": "string"
        },
        {
          "internalType": "string",
          "name": "phone",
          "type": "string"
        },
        {
          "internalType": "string",
          "name": "ipfsHash",
          "type": "string"
        }
      ],
      "name": "updateProfile",
      "outputs": [],
      "stateMutability": "nonpayable",
      "type": "function"
    },
    {
      "inputs": [
        {
          "internalType": "address",
          "name": "user",
          "type": "address"
        },
        {
          "internalType": "int256",
          "name": "change",
          "type": "int256"
        }
      ],
      "name": "updateUserReputation",
      "outputs": [],
      "stateMutability": "nonpayable",
      "type": "function"
    },
    {
      "inputs": [
        {
          "internalType": "address",
          "name": "",
          "type": "address"
        }
      ],
      "name": "users",
      "outputs": [
        {
          "internalType": "string",
          "name": "name",
          "type": "string"
        },
        {
          "internalType": "string",
          "name": "email",
          "type": "string"
        },
        {
          "internalType": "string",
          "name": "phone",
          "type": "string"
        },
        {
          "internalType": "string",
          "name": "ipfsHash",
          "type": "string"
        },
        {
          "internalType": "bool",
          "name": "isVerified",
          "type": "bool"
        },
        {
          "internalType": "uint256",
          "name": "reputation",
          "type": "uint256"
        },
        {
          "internalType": "uint256",
          "name": "joinDate",
          "type": "uint256"
        },
        {
          "internalType": "uint256",
          "name": "totalTransactions",
          "type": "uint256"
        }
      ],
      "stateMutability": "view",
      "type": "function"
    },
    {
      "inputs": [
        {
          "internalType": "address",
          "name": "user",
          "type": "address"
        }
      ],
      "name": "verifyUser",
      "outputs": [],
      "stateMutability": "nonpayable",
      "type": "function"
    }
  ],
  "bytecode": "0x60808060405234610040573360018060a01b031960025416176002553360005260016020526040600020600160ff198254161790556116de90816100468239f35b600080fdfe608080604052600436101561001357600080fd5b60e0600035811c91826314d0f1ba14611312575081634b084d77146110055781634d81312014610f4c578163869d785f14610f005781639247db6314610d4357816393e54a56146107855781639483f25c14610282578163a87430ba146101a357508063ace417e014610161578063b532e4cb14610110578063baccbfdb146100d35763f851a440146100a557600080fd5b346100ce5760003660031901126100ce576002546040516001600160a01b039091168152602090f35b600080fd5b346100ce5760203660031901126100ce576001600160a01b036100f461134d565b1660005260006020526020600560406000200154604051908152f35b346100ce5760203660031901126100ce5761012961134d565b6002546001600160a01b039190610143908316331461162e565b1660005260016020526040600020600160ff19825416179055600080f35b346100ce5760203660031901126100ce576001600160a01b0361018261134d565b166000526000602052602060ff600460406000200154166040519015158152f35b346100ce5760203660031901126100ce5761023f906001600160a01b036101c861134d565b16600052600060205260406000206101df816114ea565b916101ec600183016114ea565b906101f9600284016114ea565b92610206600382016114ea565b9361026960ff6004840154169561025b60058501549361024d60076006880154970154986040519c8d9c8d610100908181520190611363565b8c810360208e015290611363565b908a820360408c0152611363565b9088820360608a0152611363565b941515608087015260a086015260c08501528301520390f35b346100ce5761029036611439565b9233600052602093600085526102aa6040600020546114b0565b1561074f57336000526000855260406000209282519367ffffffffffffffff948581116104fc57806102dc83546114b0565b95601f96878111610700575b50899087831160011461069b57600092610690575b50508160011b916000199060031b1c19161790555b336000526000865260019485604060002001908051908682116104fc57819061033b84546114b0565b87811161063f575b5089908783116001146105dc576000926105d1575b5050600019600383901b1c191690871b1790555b33600052600086526002604060002001908051908582116104fc57819061039384546114b0565b868111610580575b50889086831160011461051d57600092610512575b5050600019600383901b1c191690861b1790555b336000526000855260036040600020019481519384116104fc576103e886546114b0565b8381116104b6575b50809284116001146104505750928293918392600094610445575b50501b916000199060031b1c19161790555b337fbe4ec58a792f909e102ee3d745d0c3b34a4d437a54d903c4db098d31c556422f600080a2005b01519250858061040b565b919083601f1981168760005284600020946000905b8883831061049c5750505010610483575b505050811b01905561041d565b015160001960f88460031b161c19169055838080610476565b858701518855909601959485019487935090810190610465565b86600052816000208480870160051c8201928488106104f3575b0160051c019086905b8281106104e75750506103f0565b600081550186906104d9565b925081926104d0565b634e487b7160e01b600052604160045260246000fd5b0151905088806103b0565b90889350601f19831691856000528a6000209260005b8c82821061056a5750508411610551575b505050811b0190556103c4565b015160001960f88460031b161c19169055888080610544565b8385015186558c97909501949384019301610533565b90915083600052886000208680850160051c8201928b86106105c8575b918a91869594930160051c01915b8281106105b957505061039b565b600081558594508a91016105ab565b9250819261059d565b015190508980610358565b90899350601f19831691856000528b6000209260005b8d8282106106295750508411610610575b505050811b01905561036c565b015160001960f88460031b161c19169055898080610603565b8385015186558d979095019493840193016105f2565b90915083600052896000208780850160051c8201928c8610610687575b918b91869594930160051c01915b828110610678575050610343565b600081558594508b910161066a565b9250819261065c565b0151905089806102fd565b60008581528b81209350601f198516905b8c8282106106ea5750509084600195949392106106d1575b505050811b019055610312565b015160001960f88460031b161c191690558980806106c4565b60018596829396860151815501950193016106ac565b90915083600052896000208780850160051c8201928c8610610746575b9085949392910160051c01905b81811061073757506102e8565b6000815584935060010161072a565b9250819261071d565b60405162461bcd60e51b815260048101869052600e60248201526d139bdd081c9959da5cdd195c995960921b6044820152606490fd5b346100ce5761079336611439565b90939192933360005260006020526107af6040600020546114b0565b610d0957604051936107c0856113a3565b85855260208501526040840152606083015260006080830152603260a08301524260c0830152600081830152336000526000602052604060002091805180519067ffffffffffffffff82116104fc57819061081b86546114b0565b601f8111610cb9575b50602090601f8311600114610c4d57600092610c42575b50508160011b916000199060031b1c19161783555b602081015180519067ffffffffffffffff82116104fc57819061087660018701546114b0565b601f8111610bef575b50602090601f8311600114610b7d57600092610b72575b50508160011b916000199060031b1c19161760018401555b604081015180519067ffffffffffffffff82116104fc5781906108d460028701546114b0565b601f8111610b1f575b50602090601f8311600114610aad57600092610aa2575b50508160011b916000199060031b1c19161760028401555b606081015180519067ffffffffffffffff82116104fc5761093060038601546114b0565b601f8111610a5b575b50602090601f83116001146109e757600794939291600091836109dc575b50508160011b916000199060031b1c19161760038501555b600484016080820151151560ff8019835416911617905560a0810151600585015560c0810151600685015501519101557f48cac28ad4dc618e15f4c2dd5e97751182f166de97b25618318b2112aa951a2f60405160208152806109d733946020830190611363565b0390a2005b015190508780610957565b906003860160005260206000209160005b601f1985168110610a4357509183916001936007979695601f19811610610a2a575b505050811b01600385015561096f565b015160001960f88460031b161c19169055878080610a1a565b919260206001819286850151815501940192016109f8565b600386016000526020600020601f840160051c810160208510610a9b575b601f830160051c82018110610a8f575050610939565b60008155600101610a79565b5080610a79565b0151905086806108f4565b9250600286016000526020600020906000935b601f1984168510610b04576001945083601f19811610610aeb575b505050811b01600284015561090c565b015160001960f88460031b161c19169055868080610adb565b81810151835560209485019460019093019290910190610ac0565b909150600286016000526020600020601f840160051c810160208510610b6b575b90849392915b601f830160051c82018110610b5c5750506108dd565b60008155859450600101610b46565b5080610b40565b015190508680610896565b9250600186016000526020600020906000935b601f1984168510610bd4576001945083601f19811610610bbb575b505050811b0160018401556108ae565b015160001960f88460031b161c19169055868080610bab565b81810151835560209485019460019093019290910190610b90565b909150600186016000526020600020601f840160051c810160208510610c3b575b90849392915b601f830160051c82018110610c2c57505061087f565b60008155859450600101610c16565b5080610c10565b01519050868061083b565b9250856000526020600020906000935b601f1984168510610c9e576001945083601f19811610610c85575b505050811b018355610850565b015160001960f88460031b161c19169055868080610c78565b81810151835560209485019460019093019290910190610c5d565b909150856000526020600020601f840160051c810160208510610d02575b90849392915b601f830160051c82018110610cf3575050610824565b60008155859450600101610cdd565b5080610cd7565b60405162461bcd60e51b8152602060048201526012602482015271105b1c9958591e481c9959da5cdd195c995960721b6044820152606490fd5b346100ce5760403660031901126100ce57610d5c61134d565b602435336000526020916001835260ff604060002054168015610eec575b610d8390611590565b60018060a01b0316918260005260008152610dac610da56040600020546114b0565b15156115cc565b6000821315610e425782600052600081526005604060002001918254908101809111610e2c577ffc577563f1b9a0461e24abef1e1fcc0d33d3d881f20b5df6dda59de4aae2c82192555b82600052600081526007604060002001610e10815461161f565b90558260005260008152600560406000200154604051908152a2005b634e487b7160e01b600052601160045260246000fd5b908260005260008252600560406000200154610e5d8261160e565b1015610eb257610e6c9061160e565b9082600052600081526005604060002001918254908103908111610e2c577ffc577563f1b9a0461e24abef1e1fcc0d33d3d881f20b5df6dda59de4aae2c8219255610df6565b507ffc577563f1b9a0461e24abef1e1fcc0d33d3d881f20b5df6dda59de4aae2c82190826000526000815260006005604082200155610df6565b506002546001600160a01b03163314610d7a565b346100ce5760203660031901126100ce57610f1961134d565b6002546001600160a01b039190610f33908316331461162e565b166000908152600160205260409020805460ff19169055005b346100ce5760203660031901126100ce57610f6561134d565b33600052600160205260ff604060002054168015610ff1575b610f8790611590565b60018060a01b0316806000526000602052610fa9610da56040600020546114b0565b8060005260006020526004604060002001600160ff198254161790557fbfb2fa25f828a712fda370028ecc8813c7082c69b239a579753b10e24dd472cc6020604051338152a2005b506002546001600160a01b03163314610f7e565b346100ce5760403660031901126100ce5760243561102281611666565b9161103060405193846113c0565b81835261103c82611666565b92602080820191601f1980960136843761105585611666565b61106260405191826113c0565b8581528661106f87611666565b018360005b8281106112c9575050506000936004355b878610806112b9575b156111a1576001600160a01b038116600081815280875260409020546110b3906114b0565b151580611187575b6110cf575b506110ca9061161f565b611085565b8681611180926110e36110ca959a8961167e565b526000526000875260406000206007604051916110ff836113a3565b611108816114ea565b8352611116600182016114ea565b8a840152611126600282016114ea565b6040840152611137600382016114ea565b606084015260ff60048201541615156080840152600581015460a0840152600681015460c084015201548a82015261116f828761167e565b5261117a818661167e565b5061161f565b95906110c0565b50806000526000865260ff600460406000200154166110bb565b5092859288916040519460408601926040875251809352606092838701979060005b81811061129c57505050858703828701528451928388528288019183808660051b8b01019701956000995b868b106111fb578989038af35b90919293949596978680828585600195030189528b519087806112626112526112406112308751610100808952880190611363565b888801518782038a890152611363565b60408701518682036040880152611363565b858d0151858203868f0152611363565b9360808082015115159085015260a0808201519085015260c0808201519085015201519101529a0196019a019993929190969594966111ee565b82516001600160a01b03168a5298840198918401916001016111c3565b506001600160a01b03811061108e565b6040516112d5816113a3565b606080825280848301528060408301528082015260006080820152600060a0820152600060c0820152600089820152828286010152018490611074565b346100ce5760203660031901126100ce576020906001600160a01b0361133661134d565b166000526001825260ff6040600020541615158152f35b600435906001600160a01b03821682036100ce57565b919082519283825260005b84811061138f575050826000602080949584010152601f8019910116010190565b60208183018101518483018201520161136e565b610100810190811067ffffffffffffffff8211176104fc57604052565b90601f8019910116810190811067ffffffffffffffff8211176104fc57604052565b81601f820112156100ce5780359067ffffffffffffffff82116104fc5760405192611417601f8401601f1916602001856113c0565b828452602083830101116100ce57816000926020809301838601378301015290565b60806003198201126100ce5767ffffffffffffffff906004358281116100ce5781611466916004016113e2565b926024358381116100ce578261147e916004016113e2565b926044358181116100ce5783611496916004016113e2565b926064359182116100ce576114ad916004016113e2565b90565b90600182811c921680156114e0575b60208310146114ca57565b634e487b7160e01b600052602260045260246000fd5b91607f16916114bf565b90604051918260008254926114fe846114b0565b90818452600194858116908160001461156d575060011461152a575b5050611528925003836113c0565b565b9093915060005260209081600020936000915b8183106115555750506115289350820101388061151a565b8554888401850152948501948794509183019161153d565b91505061152894506020925060ff191682840152151560051b820101388061151a565b1561159757565b60405162461bcd60e51b815260206004820152600d60248201526c2737ba1036b7b232b930ba37b960991b6044820152606490fd5b156115d357565b60405162461bcd60e51b8152602060048201526013602482015272155cd95c881b9bdd081c9959da5cdd195c9959606a1b6044820152606490fd5b600160ff1b8114610e2c5760000390565b6000198114610e2c5760010190565b1561163557565b60405162461bcd60e51b81526020600482015260096024820152682737ba1030b236b4b760b91b6044820152606490fd5b67ffffffffffffffff81116104fc5760051b60200190565b80518210156116925760209160051b010190565b634e487b7160e01b600052603260045260246000fdfea26469706673582212209d1728393159528f18e730195abd7e7195cbcd747f3181a8e38de6cc51582fa364736f6c63430008130033",
  "linkReferences": {},
  "deployedLinkReferences": {}
}